{
  "_format": "hh-sol-artifact-1",
  "contractName": "CloudSlit",
  "sourceName": "contracts/CloudSlit.sol",
  "abi": [
    {
      "inputs": [],
      "stateMutability": "nonpayable",
      "type": "constructor"
    },
    {
      "anonymous": false,
      "inputs": [
        {
          "indexed": true,
          "internalType": "address",
          "name": "owner",
          "type": "address"
        },
        {
          "indexed": true,
          "internalType": "address",
          "name": "spender",
          "type": "address"
        },
        {
          "indexed": false,
          "internalType": "uint256",
          "name": "value",
          "type": "uint256"
        }
      ],
      "name": "Approval",
      "type": "event"
    },
    {
      "anonymous": false,
      "inputs": [
        {
          "indexed": true,
          "internalType": "address",
          "name": "from",
          "type": "address"
        },
        {
          "indexed": true,
          "internalType": "address",
          "name": "to",
          "type": "address"
        },
        {
          "indexed": false,
          "internalType": "uint256",
          "name": "value",
          "type": "uint256"
        }
      ],
      "name": "Transfer",
      "type": "event"
    },
    {
      "inputs": [
        {
          "internalType": "address",
          "name": "owner",
          "type": "address"
        },
        {
          "internalType": "address",
          "name": "spender",
          "type": "address"
        }
      ],
      "name": "allowance",
      "outputs": [
        {
          "internalType": "uint256",
          "name": "",
          "type": "uint256"
        }
      ],
      "stateMutability": "view",
      "type": "function"
    },
    {
      "inputs": [
        {
          "internalType": "address",
          "name": "spender",
          "type": "address"
        },
        {
          "internalType": "uint256",
          "name": "value",
          "type": "uint256"
        }
      ],
      "name": "approve",
      "outputs": [
        {
          "internalType": "bool",
          "name": "",
          "type": "bool"
        }
      ],
      "stateMutability": "nonpayable",
      "type": "function"
    },
    {
      "inputs": [
        {
          "internalType": "address",
          "name": "account",
          "type": "address"
        }
      ],
      "name": "balanceOf",
      "outputs": [
        {
          "internalType": "uint256",
          "name": "",
          "type": "uint256"
        }
      ],
      "stateMutability": "view",
      "type": "function"
    },
    {
      "inputs": [
        {
          "internalType": "string",
          "name": "uid",
          "type": "string"
        }
      ],
      "name": "bindWallet",
      "outputs": [],
      "stateMutability": "nonpayable",
      "type": "function"
    },
    {
      "inputs": [
        {
          "internalType": "string",
          "name": "uid",
          "type": "string"
        }
      ],
      "name": "changeWallet",
      "outputs": [],
      "stateMutability": "nonpayable",
      "type": "function"
    },
    {
      "inputs": [
        {
          "internalType": "string",
          "name": "_orderId",
          "type": "string"
        }
      ],
      "name": "checkOrder",
      "outputs": [
        {
          "internalType": "bool",
          "name": "",
          "type": "bool"
        }
      ],
      "stateMutability": "view",
      "type": "function"
    },
    {
      "inputs": [
        {
          "internalType": "string",
          "name": "_name",
          "type": "string"
        },
        {
          "internalType": "uint32",
          "name": "_duration",
          "type": "uint32"
        },
        {
          "internalType": "string",
          "name": "_orderId",
          "type": "string"
        },
        {
          "internalType": "uint256",
          "name": "_price",
          "type": "uint256"
        }
      ],
      "name": "clientOrder",
      "outputs": [],
      "stateMutability": "nonpayable",
      "type": "function"
    },
    {
      "inputs": [],
      "name": "decimals",
      "outputs": [
        {
          "internalType": "uint8",
          "name": "",
          "type": "uint8"
        }
      ],
      "stateMutability": "view",
      "type": "function"
    },
    {
      "inputs": [],
      "name": "fullnodeDepositAmount",
      "outputs": [
        {
          "internalType": "uint256",
          "name": "",
          "type": "uint256"
        }
      ],
      "stateMutability": "view",
      "type": "function"
    },
    {
      "inputs": [
        {
          "internalType": "string",
          "name": "uid",
          "type": "string"
        }
      ],
      "name": "getWallet",
      "outputs": [
        {
          "internalType": "address",
          "name": "",
          "type": "address"
        }
      ],
      "stateMutability": "view",
      "type": "function"
    },
    {
      "inputs": [
        {
          "internalType": "uint8",
          "name": "_type",
          "type": "uint8"
        }
      ],
      "name": "isDeposit",
      "outputs": [
        {
          "internalType": "bool",
          "name": "",
          "type": "bool"
        }
      ],
      "stateMutability": "view",
      "type": "function"
    },
    {
      "inputs": [],
      "name": "name",
      "outputs": [
        {
          "internalType": "string",
          "name": "",
          "type": "string"
        }
      ],
      "stateMutability": "view",
      "type": "function"
    },
    {
      "inputs": [],
      "name": "privoderDepositAmount",
      "outputs": [
        {
          "internalType": "uint256",
          "name": "",
          "type": "uint256"
        }
      ],
      "stateMutability": "view",
      "type": "function"
    },
    {
      "inputs": [
        {
          "internalType": "uint8",
          "name": "_type",
          "type": "uint8"
        }
      ],
      "name": "stake",
      "outputs": [],
      "stateMutability": "nonpayable",
      "type": "function"
    },
    {
      "inputs": [],
      "name": "symbol",
      "outputs": [
        {
          "internalType": "string",
          "name": "",
          "type": "string"
        }
      ],
      "stateMutability": "view",
      "type": "function"
    },
    {
      "inputs": [],
      "name": "totalSupply",
      "outputs": [
        {
          "internalType": "uint256",
          "name": "",
          "type": "uint256"
        }
      ],
      "stateMutability": "view",
      "type": "function"
    },
    {
      "inputs": [
        {
          "internalType": "address",
          "name": "to",
          "type": "address"
        },
        {
          "internalType": "uint256",
          "name": "value",
          "type": "uint256"
        }
      ],
      "name": "transfer",
      "outputs": [
        {
          "internalType": "bool",
          "name": "",
          "type": "bool"
        }
      ],
      "stateMutability": "nonpayable",
      "type": "function"
    },
    {
      "inputs": [
        {
          "internalType": "address",
          "name": "from",
          "type": "address"
        },
        {
          "internalType": "address",
          "name": "to",
          "type": "address"
        },
        {
          "internalType": "uint256",
          "name": "value",
          "type": "uint256"
        }
      ],
      "name": "transferFrom",
      "outputs": [
        {
          "internalType": "bool",
          "name": "",
          "type": "bool"
        }
      ],
      "stateMutability": "nonpayable",
      "type": "function"
    },
    {
      "inputs": [
        {
          "internalType": "uint8",
          "name": "_type",
          "type": "uint8"
        }
      ],
      "name": "withdraw",
      "outputs": [],
      "stateMutability": "nonpayable",
      "type": "function"
    },
    {
      "inputs": [],
      "name": "withdrawAllOrderTokens",
      "outputs": [],
      "stateMutability": "nonpayable",
      "type": "function"
    },
    {
      "inputs": [
        {
          "internalType": "string",
          "name": "_orderId",
          "type": "string"
        }
      ],
      "name": "withdrawOrderTokens",
      "outputs": [],
      "stateMutability": "nonpayable",
      "type": "function"
    }
  ],
  "bytecode": "0x60806040526040518060400160405280600d81526020017f436c6f7564536c69742044616f00000000000000000000000000000000000000815250600090816200004a919062000395565b506040518060400160405280600381526020017f43534400000000000000000000000000000000000000000000000000000000008152506001908162000091919062000395565b506000600260006101000a81548160ff021916908360ff160217905550620f42406003556113886007556103e8600855348015620000ce57600080fd5b50600354600460003373ffffffffffffffffffffffffffffffffffffffff1673ffffffffffffffffffffffffffffffffffffffff168152602001908152602001600020819055506200047c565b600081519050919050565b7f4e487b7100000000000000000000000000000000000000000000000000000000600052604160045260246000fd5b7f4e487b7100000000000000000000000000000000000000000000000000000000600052602260045260246000fd5b600060028204905060018216806200019d57607f821691505b602082108103620001b357620001b262000155565b5b50919050565b60008190508160005260206000209050919050565b60006020601f8301049050919050565b600082821b905092915050565b6000600883026200021d7fffffffffffffffffffffffffffffffffffffffffffffffffffffffffffffffff82620001de565b620002298683620001de565b95508019841693508086168417925050509392505050565b6000819050919050565b6000819050919050565b600062000276620002706200026a8462000241565b6200024b565b62000241565b9050919050565b6000819050919050565b620002928362000255565b620002aa620002a1826200027d565b848454620001eb565b825550505050565b600090565b620002c1620002b2565b620002ce81848462000287565b505050565b5b81811015620002f657620002ea600082620002b7565b600181019050620002d4565b5050565b601f82111562000345576200030f81620001b9565b6200031a84620001ce565b810160208510156200032a578190505b620003426200033985620001ce565b830182620002d3565b50505b505050565b600082821c905092915050565b60006200036a600019846008026200034a565b1980831691505092915050565b600062000385838362000357565b9150826002028217905092915050565b620003a0826200011b565b67ffffffffffffffff811115620003bc57620003bb62000126565b5b620003c8825462000184565b620003d5828285620002fa565b600060209050601f8311600181146200040d5760008415620003f8578287015190505b62000404858262000377565b86555062000474565b601f1984166200041d86620001b9565b60005b82811015620004475784890151825560018201915060208501945060208101905062000420565b8683101562000467578489015162000463601f89168262000357565b8355505b6001600288020188555050505b505050505050565b612467806200048c6000396000f3fe608060405234801561001057600080fd5b50600436106101375760003560e01c80638ec012b9116100b8578063c6ab5d901161007c578063c6ab5d901461033a578063cd74c0a714610356578063d35b1ac214610374578063dd62ed3e14610392578063dd6887ed146103c2578063f276b8aa146103f257610137565b80638ec012b91461028457806395d89b41146102a0578063a4e2df66146102be578063a9059cbb146102ee578063b031bc661461031e57610137565b806327a0b34a116100ff57806327a0b34a146101f4578063313ce567146101fe5780635c437c7a1461021c578063604f21771461023857806370a082311461025457610137565b806306fdde031461013c578063095ea7b31461015a57806318160ddd1461018a57806323b872dd146101a857806325cfedb5146101d8575b600080fd5b610144610422565b60405161015191906118f5565b60405180910390f35b610174600480360381019061016f91906119bf565b6104b0565b6040516101819190611a1a565b60405180910390f35b6101926105a2565b60405161019f9190611a44565b60405180910390f35b6101c260048036038101906101bd9190611a5f565b6105a8565b6040516101cf9190611a1a565b60405180910390f35b6101f260048036038101906101ed9190611be7565b61082e565b005b6101fc610869565b005b610206610a32565b6040516102139190611c4c565b60405180910390f35b61023660048036038101906102319190611ca3565b610a45565b005b610252600480360381019061024d9190611d6e565b610d26565b005b61026e60048036038101906102699190611d9b565b6110b2565b60405161027b9190611a44565b60405180910390f35b61029e60048036038101906102999190611be7565b6110fb565b005b6102a86111d2565b6040516102b591906118f5565b60405180910390f35b6102d860048036038101906102d39190611be7565b611260565b6040516102e59190611dd7565b60405180910390f35b610308600480360381019061030391906119bf565b6112a8565b6040516103159190611a1a565b60405180910390f35b61033860048036038101906103339190611be7565b611411565b005b610354600480360381019061034f9190611d6e565b611471565b005b61035e6116d9565b60405161036b9190611a44565b60405180910390f35b61037c6116df565b6040516103899190611a44565b60405180910390f35b6103ac60048036038101906103a79190611df2565b6116e5565b6040516103b99190611a44565b60405180910390f35b6103dc60048036038101906103d79190611be7565b61176c565b6040516103e99190611a1a565b60405180910390f35b61040c60048036038101906104079190611d6e565b6117a4565b6040516104199190611a1a565b60405180910390f35b6000805461042f90611e61565b80601f016020809104026020016040519081016040528092919081815260200182805461045b90611e61565b80156104a85780601f1061047d576101008083540402835291602001916104a8565b820191906000526020600020905b81548152906001019060200180831161048b57829003601f168201915b505050505081565b600081600560003373ffffffffffffffffffffffffffffffffffffffff1673ffffffffffffffffffffffffffffffffffffffff16815260200190815260200160002060008573ffffffffffffffffffffffffffffffffffffffff1673ffffffffffffffffffffffffffffffffffffffff168152602001908152602001600020819055508273ffffffffffffffffffffffffffffffffffffffff163373ffffffffffffffffffffffffffffffffffffffff167f8c5be1e5ebec7d5bd14f71427d1e84f3dd0314c0f7b2291e5b200ac8c7c3b925846040516105909190611a44565b60405180910390a36001905092915050565b60035481565b600081600460008673ffffffffffffffffffffffffffffffffffffffff1673ffffffffffffffffffffffffffffffffffffffff1681526020019081526020016000205410156105f657600080fd5b81600560008673ffffffffffffffffffffffffffffffffffffffff1673ffffffffffffffffffffffffffffffffffffffff16815260200190815260200160002060003373ffffffffffffffffffffffffffffffffffffffff1673ffffffffffffffffffffffffffffffffffffffff16815260200190815260200160002054101561067f57600080fd5b81600460008673ffffffffffffffffffffffffffffffffffffffff1673ffffffffffffffffffffffffffffffffffffffff16815260200190815260200160002060008282546106ce9190611ec1565b9250508190555081600560008673ffffffffffffffffffffffffffffffffffffffff1673ffffffffffffffffffffffffffffffffffffffff16815260200190815260200160002060003373ffffffffffffffffffffffffffffffffffffffff1673ffffffffffffffffffffffffffffffffffffffff16815260200190815260200160002060008282546107619190611ec1565b9250508190555081600460008573ffffffffffffffffffffffffffffffffffffffff1673ffffffffffffffffffffffffffffffffffffffff16815260200190815260200160002060008282546107b79190611ef5565b925050819055508273ffffffffffffffffffffffffffffffffffffffff168473ffffffffffffffffffffffffffffffffffffffff167fddf252ad1be2c89b69c2b068fc378daa952ba7f163c4a11628f55a4df523b3ef8460405161081b9190611a44565b60405180910390a3600190509392505050565b600b8160405161083e9190611f87565b908152602001604051809103902060060160009054906101000a900460ff1661086657600080fd5b50565b6000600a60003373ffffffffffffffffffffffffffffffffffffffff1673ffffffffffffffffffffffffffffffffffffffff16815260200190815260200160002054036108b557600080fd5b6000600c60003373ffffffffffffffffffffffffffffffffffffffff1673ffffffffffffffffffffffffffffffffffffffff168152602001908152602001600020805480602002602001604051908101604052809291908181526020016000905b828210156109c257838290600052602060002001805461093590611e61565b80601f016020809104026020016040519081016040528092919081815260200182805461096190611e61565b80156109ae5780601f10610983576101008083540402835291602001916109ae565b820191906000526020600020905b81548152906001019060200180831161099157829003601f168201915b505050505081526020019060010190610916565b50505050905060005b8151811015610a2e57600b8282815181106109e9576109e8611f9e565b5b60200260200101516040516109fe9190611f87565b908152602001604051809103902060060160019054906101000a9050508080610a2690611fcd565b9150506109cb565b5050565b600260009054906101000a900460ff1681565b600b82604051610a559190611f87565b908152602001604051809103902060060160009054906101000a900460ff16610ab3576040517f08c379a0000000000000000000000000000000000000000000000000000000008152600401610aaa90612061565b60405180910390fd5b80600460003373ffffffffffffffffffffffffffffffffffffffff1673ffffffffffffffffffffffffffffffffffffffff168152602001908152602001600020541015610b35576040517f08c379a0000000000000000000000000000000000000000000000000000000008152600401610b2c906120cd565b60405180910390fd5b80600460003373ffffffffffffffffffffffffffffffffffffffff1673ffffffffffffffffffffffffffffffffffffffff1681526020019081526020016000206000828254610b849190611ec1565b925050819055506000610e109050604051806101200160405280868152602001428152602001828663ffffffff16610bbc91906120ed565b42610bc79190611ef5565b8152602001600081526020018563ffffffff1681526020018381526020016001151581526020016000151581526020013373ffffffffffffffffffffffffffffffffffffffff16815250600b84604051610c219190611f87565b90815260200160405180910390206000820151816000019081610c4491906122f3565b5060208201518160010155604082015181600201556060820151816003015560808201518160040160006101000a81548163ffffffff021916908363ffffffff16021790555060a0820151816005015560c08201518160060160006101000a81548160ff02191690831515021790555060e08201518160060160016101000a81548160ff0219169083151502179055506101008201518160060160026101000a81548173ffffffffffffffffffffffffffffffffffffffff021916908373ffffffffffffffffffffffffffffffffffffffff1602179055509050505050505050565b60018160ff1603610eec576000600960003373ffffffffffffffffffffffffffffffffffffffff1673ffffffffffffffffffffffffffffffffffffffff1681526020019081526020016000205414610db3576040517f08c379a0000000000000000000000000000000000000000000000000000000008152600401610daa90612411565b60405180910390fd5b600754600460003373ffffffffffffffffffffffffffffffffffffffff1673ffffffffffffffffffffffffffffffffffffffff168152602001908152602001600020541015610e37576040517f08c379a0000000000000000000000000000000000000000000000000000000008152600401610e2e906120cd565b60405180910390fd5b600754600460003373ffffffffffffffffffffffffffffffffffffffff1673ffffffffffffffffffffffffffffffffffffffff1681526020019081526020016000206000828254610e889190611ec1565b92505081905550600754600960003373ffffffffffffffffffffffffffffffffffffffff1673ffffffffffffffffffffffffffffffffffffffff1681526020019081526020016000206000828254610ee09190611ef5565b925050819055506110af565b60028160ff16036110ae576000600a60003373ffffffffffffffffffffffffffffffffffffffff1673ffffffffffffffffffffffffffffffffffffffff1681526020019081526020016000205414610f79576040517f08c379a0000000000000000000000000000000000000000000000000000000008152600401610f7090612411565b60405180910390fd5b600854600460003373ffffffffffffffffffffffffffffffffffffffff1673ffffffffffffffffffffffffffffffffffffffff168152602001908152602001600020541015610ffd576040517f08c379a0000000000000000000000000000000000000000000000000000000008152600401610ff4906120cd565b60405180910390fd5b600854600460003373ffffffffffffffffffffffffffffffffffffffff1673ffffffffffffffffffffffffffffffffffffffff168152602001908152602001600020600082825461104e9190611ec1565b92505081905550600854600a60003373ffffffffffffffffffffffffffffffffffffffff1673ffffffffffffffffffffffffffffffffffffffff16815260200190815260200160002060008282546110a69190611ef5565b925050819055505b5b50565b6000600460008373ffffffffffffffffffffffffffffffffffffffff1673ffffffffffffffffffffffffffffffffffffffff168152602001908152602001600020549050919050565b600073ffffffffffffffffffffffffffffffffffffffff166006826040516111239190611f87565b908152602001604051809103902060009054906101000a900473ffffffffffffffffffffffffffffffffffffffff1673ffffffffffffffffffffffffffffffffffffffff161461117257600080fd5b336006826040516111839190611f87565b908152602001604051809103902060006101000a81548173ffffffffffffffffffffffffffffffffffffffff021916908373ffffffffffffffffffffffffffffffffffffffff16021790555050565b600180546111df90611e61565b80601f016020809104026020016040519081016040528092919081815260200182805461120b90611e61565b80156112585780601f1061122d57610100808354040283529160200191611258565b820191906000526020600020905b81548152906001019060200180831161123b57829003601f168201915b505050505081565b60006006826040516112729190611f87565b908152602001604051809103902060009054906101000a900473ffffffffffffffffffffffffffffffffffffffff169050919050565b600081600460003373ffffffffffffffffffffffffffffffffffffffff1673ffffffffffffffffffffffffffffffffffffffff1681526020019081526020016000205410156112f657600080fd5b81600460003373ffffffffffffffffffffffffffffffffffffffff1673ffffffffffffffffffffffffffffffffffffffff16815260200190815260200160002060008282546113459190611ec1565b9250508190555081600460008573ffffffffffffffffffffffffffffffffffffffff1673ffffffffffffffffffffffffffffffffffffffff168152602001908152602001600020600082825461139b9190611ef5565b925050819055508273ffffffffffffffffffffffffffffffffffffffff163373ffffffffffffffffffffffffffffffffffffffff167fddf252ad1be2c89b69c2b068fc378daa952ba7f163c4a11628f55a4df523b3ef846040516113ff9190611a44565b60405180910390a36001905092915050565b336006826040516114229190611f87565b908152602001604051809103902060006101000a81548173ffffffffffffffffffffffffffffffffffffffff021916908373ffffffffffffffffffffffffffffffffffffffff16021790555050565b60018160ff16036115a5576000600960003373ffffffffffffffffffffffffffffffffffffffff1673ffffffffffffffffffffffffffffffffffffffff16815260200190815260200160002054116114c857600080fd5b600960003373ffffffffffffffffffffffffffffffffffffffff1673ffffffffffffffffffffffffffffffffffffffff16815260200190815260200160002054600460003373ffffffffffffffffffffffffffffffffffffffff1673ffffffffffffffffffffffffffffffffffffffff16815260200190815260200160002060008282546115569190611ef5565b92505081905550600960003373ffffffffffffffffffffffffffffffffffffffff1673ffffffffffffffffffffffffffffffffffffffff168152602001908152602001600020600090556116d6565b60028160ff16036116d5576000600a60003373ffffffffffffffffffffffffffffffffffffffff1673ffffffffffffffffffffffffffffffffffffffff16815260200190815260200160002054116115fc57600080fd5b600a60003373ffffffffffffffffffffffffffffffffffffffff1673ffffffffffffffffffffffffffffffffffffffff16815260200190815260200160002054600460003373ffffffffffffffffffffffffffffffffffffffff1673ffffffffffffffffffffffffffffffffffffffff168152602001908152602001600020600082825461168a9190611ef5565b92505081905550600a60003373ffffffffffffffffffffffffffffffffffffffff1673ffffffffffffffffffffffffffffffffffffffff168152602001908152602001600020600090555b5b50565b60085481565b60075481565b6000600560008473ffffffffffffffffffffffffffffffffffffffff1673ffffffffffffffffffffffffffffffffffffffff16815260200190815260200160002060008373ffffffffffffffffffffffffffffffffffffffff1673ffffffffffffffffffffffffffffffffffffffff16815260200190815260200160002054905092915050565b6000600b8260405161177e9190611f87565b908152602001604051809103902060060160009054906101000a900460ff169050919050565b600060018260ff16036117fc576000600960003373ffffffffffffffffffffffffffffffffffffffff1673ffffffffffffffffffffffffffffffffffffffff1681526020019081526020016000205414159050611857565b60028260ff1603611852576000600a60003373ffffffffffffffffffffffffffffffffffffffff1673ffffffffffffffffffffffffffffffffffffffff1681526020019081526020016000205414159050611857565b600090505b919050565b600081519050919050565b600082825260208201905092915050565b60005b8381101561189657808201518184015260208101905061187b565b838111156118a5576000848401525b50505050565b6000601f19601f8301169050919050565b60006118c78261185c565b6118d18185611867565b93506118e1818560208601611878565b6118ea816118ab565b840191505092915050565b6000602082019050818103600083015261190f81846118bc565b905092915050565b6000604051905090565b600080fd5b600080fd5b600073ffffffffffffffffffffffffffffffffffffffff82169050919050565b60006119568261192b565b9050919050565b6119668161194b565b811461197157600080fd5b50565b6000813590506119838161195d565b92915050565b6000819050919050565b61199c81611989565b81146119a757600080fd5b50565b6000813590506119b981611993565b92915050565b600080604083850312156119d6576119d5611921565b5b60006119e485828601611974565b92505060206119f5858286016119aa565b9150509250929050565b60008115159050919050565b611a14816119ff565b82525050565b6000602082019050611a2f6000830184611a0b565b92915050565b611a3e81611989565b82525050565b6000602082019050611a596000830184611a35565b92915050565b600080600060608486031215611a7857611a77611921565b5b6000611a8686828701611974565b9350506020611a9786828701611974565b9250506040611aa8868287016119aa565b9150509250925092565b600080fd5b600080fd5b7f4e487b7100000000000000000000000000000000000000000000000000000000600052604160045260246000fd5b611af4826118ab565b810181811067ffffffffffffffff82111715611b1357611b12611abc565b5b80604052505050565b6000611b26611917565b9050611b328282611aeb565b919050565b600067ffffffffffffffff821115611b5257611b51611abc565b5b611b5b826118ab565b9050602081019050919050565b82818337600083830152505050565b6000611b8a611b8584611b37565b611b1c565b905082815260208101848484011115611ba657611ba5611ab7565b5b611bb1848285611b68565b509392505050565b600082601f830112611bce57611bcd611ab2565b5b8135611bde848260208601611b77565b91505092915050565b600060208284031215611bfd57611bfc611921565b5b600082013567ffffffffffffffff811115611c1b57611c1a611926565b5b611c2784828501611bb9565b91505092915050565b600060ff82169050919050565b611c4681611c30565b82525050565b6000602082019050611c616000830184611c3d565b92915050565b600063ffffffff82169050919050565b611c8081611c67565b8114611c8b57600080fd5b50565b600081359050611c9d81611c77565b92915050565b60008060008060808587031215611cbd57611cbc611921565b5b600085013567ffffffffffffffff811115611cdb57611cda611926565b5b611ce787828801611bb9565b9450506020611cf887828801611c8e565b935050604085013567ffffffffffffffff811115611d1957611d18611926565b5b611d2587828801611bb9565b9250506060611d36878288016119aa565b91505092959194509250565b611d4b81611c30565b8114611d5657600080fd5b50565b600081359050611d6881611d42565b92915050565b600060208284031215611d8457611d83611921565b5b6000611d9284828501611d59565b91505092915050565b600060208284031215611db157611db0611921565b5b6000611dbf84828501611974565b91505092915050565b611dd18161194b565b82525050565b6000602082019050611dec6000830184611dc8565b92915050565b60008060408385031215611e0957611e08611921565b5b6000611e1785828601611974565b9250506020611e2885828601611974565b9150509250929050565b7f4e487b7100000000000000000000000000000000000000000000000000000000600052602260045260246000fd5b60006002820490506001821680611e7957607f821691505b602082108103611e8c57611e8b611e32565b5b50919050565b7f4e487b7100000000000000000000000000000000000000000000000000000000600052601160045260246000fd5b6000611ecc82611989565b9150611ed783611989565b925082821015611eea57611ee9611e92565b5b828203905092915050565b6000611f0082611989565b9150611f0b83611989565b9250827fffffffffffffffffffffffffffffffffffffffffffffffffffffffffffffffff03821115611f4057611f3f611e92565b5b828201905092915050565b600081905092915050565b6000611f618261185c565b611f6b8185611f4b565b9350611f7b818560208601611878565b80840191505092915050565b6000611f938284611f56565b915081905092915050565b7f4e487b7100000000000000000000000000000000000000000000000000000000600052603260045260246000fd5b6000611fd882611989565b91507fffffffffffffffffffffffffffffffffffffffffffffffffffffffffffffffff820361200a57612009611e92565b5b600182019050919050565b7f416c726561647920706169640000000000000000000000000000000000000000600082015250565b600061204b600c83611867565b915061205682612015565b602082019050919050565b6000602082019050818103600083015261207a8161203e565b9050919050565b7f4e6f7420656e6f75676820746f6b656e73000000000000000000000000000000600082015250565b60006120b7601183611867565b91506120c282612081565b602082019050919050565b600060208201905081810360008301526120e6816120aa565b9050919050565b60006120f882611989565b915061210383611989565b9250817fffffffffffffffffffffffffffffffffffffffffffffffffffffffffffffffff048311821515161561213c5761213b611e92565b5b828202905092915050565b60008190508160005260206000209050919050565b60006020601f8301049050919050565b600082821b905092915050565b6000600883026121a97fffffffffffffffffffffffffffffffffffffffffffffffffffffffffffffffff8261216c565b6121b3868361216c565b95508019841693508086168417925050509392505050565b6000819050919050565b60006121f06121eb6121e684611989565b6121cb565b611989565b9050919050565b6000819050919050565b61220a836121d5565b61221e612216826121f7565b848454612179565b825550505050565b600090565b612233612226565b61223e818484612201565b505050565b5b818110156122625761225760008261222b565b600181019050612244565b5050565b601f8211156122a75761227881612147565b6122818461215c565b81016020851015612290578190505b6122a461229c8561215c565b830182612243565b50505b505050565b600082821c905092915050565b60006122ca600019846008026122ac565b1980831691505092915050565b60006122e383836122b9565b9150826002028217905092915050565b6122fc8261185c565b67ffffffffffffffff81111561231557612314611abc565b5b61231f8254611e61565b61232a828285612266565b600060209050601f83116001811461235d576000841561234b578287015190505b61235585826122d7565b8655506123bd565b601f19841661236b86612147565b60005b828110156123935784890151825560018201915060208501945060208101905061236e565b868310156123b057848901516123ac601f8916826122b9565b8355505b6001600288020188555050505b505050505050565b7f416c7265616479207374616b6564000000000000000000000000000000000000600082015250565b60006123fb600e83611867565b9150612406826123c5565b602082019050919050565b6000602082019050818103600083015261242a816123ee565b905091905056fea26469706673582212205aec28cbbd40a7a11672fc990b2bd3ca2c76abe23f0bbea5d0d8baf81297fa5564736f6c634300080f0033",
  "linkReferences": {},
  "deployedLinkReferences": {}
}