{
  "_format": "hh-sol-artifact-1",
  "contractName": "CloudSlit",
  "sourceName": "contracts/CloudSlit.sol",
  "abi": [
    {
      "inputs": [
        {
          "internalType": "uint256",
          "name": "initialSupply",
          "type": "uint256"
        }
      ],
      "stateMutability": "nonpayable",
      "type": "constructor"
    },
    {
      "anonymous": false,
      "inputs": [
        {
          "indexed": true,
          "internalType": "address",
          "name": "owner",
          "type": "address"
        },
        {
          "indexed": true,
          "internalType": "address",
          "name": "spender",
          "type": "address"
        },
        {
          "indexed": false,
          "internalType": "uint256",
          "name": "value",
          "type": "uint256"
        }
      ],
      "name": "Approval",
      "type": "event"
    },
    {
      "anonymous": false,
      "inputs": [
        {
          "indexed": true,
          "internalType": "address",
          "name": "from",
          "type": "address"
        },
        {
          "indexed": true,
          "internalType": "address",
          "name": "to",
          "type": "address"
        },
        {
          "indexed": false,
          "internalType": "uint256",
          "name": "value",
          "type": "uint256"
        }
      ],
      "name": "Transfer",
      "type": "event"
    },
    {
      "inputs": [
        {
          "internalType": "address",
          "name": "owner",
          "type": "address"
        },
        {
          "internalType": "address",
          "name": "spender",
          "type": "address"
        }
      ],
      "name": "allowance",
      "outputs": [
        {
          "internalType": "uint256",
          "name": "",
          "type": "uint256"
        }
      ],
      "stateMutability": "view",
      "type": "function"
    },
    {
      "inputs": [
        {
          "internalType": "address",
          "name": "spender",
          "type": "address"
        },
        {
          "internalType": "uint256",
          "name": "amount",
          "type": "uint256"
        }
      ],
      "name": "approve",
      "outputs": [
        {
          "internalType": "bool",
          "name": "",
          "type": "bool"
        }
      ],
      "stateMutability": "nonpayable",
      "type": "function"
    },
    {
      "inputs": [
        {
          "internalType": "address",
          "name": "account",
          "type": "address"
        }
      ],
      "name": "balanceOf",
      "outputs": [
        {
          "internalType": "uint256",
          "name": "",
          "type": "uint256"
        }
      ],
      "stateMutability": "view",
      "type": "function"
    },
    {
      "inputs": [
        {
          "internalType": "string",
          "name": "uuid",
          "type": "string"
        }
      ],
      "name": "bindWallet",
      "outputs": [],
      "stateMutability": "nonpayable",
      "type": "function"
    },
    {
      "inputs": [
        {
          "internalType": "string",
          "name": "uuid",
          "type": "string"
        },
        {
          "internalType": "address",
          "name": "newWallet",
          "type": "address"
        }
      ],
      "name": "changeWallet",
      "outputs": [],
      "stateMutability": "nonpayable",
      "type": "function"
    },
    {
      "inputs": [
        {
          "internalType": "string",
          "name": "_orderId",
          "type": "string"
        }
      ],
      "name": "checkOrder",
      "outputs": [
        {
          "internalType": "bool",
          "name": "",
          "type": "bool"
        }
      ],
      "stateMutability": "view",
      "type": "function"
    },
    {
      "inputs": [
        {
          "internalType": "string",
          "name": "_name",
          "type": "string"
        },
        {
          "internalType": "uint32",
          "name": "_duration",
          "type": "uint32"
        },
        {
          "internalType": "string",
          "name": "_orderId",
          "type": "string"
        },
        {
          "internalType": "uint256",
          "name": "_price",
          "type": "uint256"
        },
        {
          "internalType": "address",
          "name": "_to",
          "type": "address"
        }
      ],
      "name": "clientOrder",
      "outputs": [],
      "stateMutability": "nonpayable",
      "type": "function"
    },
    {
      "inputs": [],
      "name": "decimals",
      "outputs": [
        {
          "internalType": "uint8",
          "name": "",
          "type": "uint8"
        }
      ],
      "stateMutability": "view",
      "type": "function"
    },
    {
      "inputs": [
        {
          "internalType": "address",
          "name": "spender",
          "type": "address"
        },
        {
          "internalType": "uint256",
          "name": "subtractedValue",
          "type": "uint256"
        }
      ],
      "name": "decreaseAllowance",
      "outputs": [
        {
          "internalType": "bool",
          "name": "",
          "type": "bool"
        }
      ],
      "stateMutability": "nonpayable",
      "type": "function"
    },
    {
      "inputs": [],
      "name": "fullnodeDepositAmount",
      "outputs": [
        {
          "internalType": "uint256",
          "name": "",
          "type": "uint256"
        }
      ],
      "stateMutability": "view",
      "type": "function"
    },
    {
      "inputs": [],
      "name": "getAllOrderTokens",
      "outputs": [
        {
          "internalType": "uint256",
          "name": "",
          "type": "uint256"
        }
      ],
      "stateMutability": "view",
      "type": "function"
    },
    {
      "inputs": [
        {
          "internalType": "string",
          "name": "_orderId",
          "type": "string"
        }
      ],
      "name": "getOrdersInfo",
      "outputs": [
        {
          "components": [
            {
              "internalType": "string",
              "name": "name",
              "type": "string"
            },
            {
              "internalType": "uint256",
              "name": "startTime",
              "type": "uint256"
            },
            {
              "internalType": "uint256",
              "name": "endTime",
              "type": "uint256"
            },
            {
              "internalType": "uint256",
              "name": "withdrawDuration",
              "type": "uint256"
            },
            {
              "internalType": "uint32",
              "name": "duration",
              "type": "uint32"
            },
            {
              "internalType": "uint256",
              "name": "price",
              "type": "uint256"
            },
            {
              "internalType": "bool",
              "name": "used",
              "type": "bool"
            },
            {
              "internalType": "bool",
              "name": "withdraw",
              "type": "bool"
            },
            {
              "internalType": "address",
              "name": "payAddress",
              "type": "address"
            },
            {
              "internalType": "address",
              "name": "privateAddress",
              "type": "address"
            }
          ],
          "internalType": "struct CloudSlit.Order",
          "name": "",
          "type": "tuple"
        }
      ],
      "stateMutability": "view",
      "type": "function"
    },
    {
      "inputs": [
        {
          "internalType": "address",
          "name": "from",
          "type": "address"
        }
      ],
      "name": "getPrivoderOrders",
      "outputs": [
        {
          "internalType": "string[]",
          "name": "",
          "type": "string[]"
        }
      ],
      "stateMutability": "view",
      "type": "function"
    },
    {
      "inputs": [
        {
          "internalType": "string",
          "name": "uuid",
          "type": "string"
        }
      ],
      "name": "getUserInfo",
      "outputs": [
        {
          "internalType": "bool",
          "name": "",
          "type": "bool"
        },
        {
          "internalType": "bool",
          "name": "",
          "type": "bool"
        }
      ],
      "stateMutability": "view",
      "type": "function"
    },
    {
      "inputs": [
        {
          "internalType": "string",
          "name": "uuid",
          "type": "string"
        }
      ],
      "name": "getWallet",
      "outputs": [
        {
          "internalType": "address",
          "name": "",
          "type": "address"
        },
        {
          "internalType": "uint8",
          "name": "",
          "type": "uint8"
        }
      ],
      "stateMutability": "view",
      "type": "function"
    },
    {
      "inputs": [
        {
          "internalType": "address",
          "name": "spender",
          "type": "address"
        },
        {
          "internalType": "uint256",
          "name": "addedValue",
          "type": "uint256"
        }
      ],
      "name": "increaseAllowance",
      "outputs": [
        {
          "internalType": "bool",
          "name": "",
          "type": "bool"
        }
      ],
      "stateMutability": "nonpayable",
      "type": "function"
    },
    {
      "inputs": [
        {
          "internalType": "uint8",
          "name": "_type",
          "type": "uint8"
        }
      ],
      "name": "isDeposit",
      "outputs": [
        {
          "internalType": "bool",
          "name": "",
          "type": "bool"
        }
      ],
      "stateMutability": "view",
      "type": "function"
    },
    {
      "inputs": [],
      "name": "name",
      "outputs": [
        {
          "internalType": "string",
          "name": "",
          "type": "string"
        }
      ],
      "stateMutability": "view",
      "type": "function"
    },
    {
      "inputs": [],
      "name": "privoderDepositAmount",
      "outputs": [
        {
          "internalType": "uint256",
          "name": "",
          "type": "uint256"
        }
      ],
      "stateMutability": "view",
      "type": "function"
    },
    {
      "inputs": [
        {
          "internalType": "uint8",
          "name": "_type",
          "type": "uint8"
        }
      ],
      "name": "stake",
      "outputs": [],
      "stateMutability": "nonpayable",
      "type": "function"
    },
    {
      "inputs": [],
      "name": "symbol",
      "outputs": [
        {
          "internalType": "string",
          "name": "",
          "type": "string"
        }
      ],
      "stateMutability": "view",
      "type": "function"
    },
    {
      "inputs": [],
      "name": "totalSupply",
      "outputs": [
        {
          "internalType": "uint256",
          "name": "",
          "type": "uint256"
        }
      ],
      "stateMutability": "view",
      "type": "function"
    },
    {
      "inputs": [
        {
          "internalType": "address",
          "name": "to",
          "type": "address"
        },
        {
          "internalType": "uint256",
          "name": "amount",
          "type": "uint256"
        }
      ],
      "name": "transfer",
      "outputs": [
        {
          "internalType": "bool",
          "name": "",
          "type": "bool"
        }
      ],
      "stateMutability": "nonpayable",
      "type": "function"
    },
    {
      "inputs": [
        {
          "internalType": "address",
          "name": "from",
          "type": "address"
        },
        {
          "internalType": "address",
          "name": "to",
          "type": "address"
        },
        {
          "internalType": "uint256",
          "name": "amount",
          "type": "uint256"
        }
      ],
      "name": "transferFrom",
      "outputs": [
        {
          "internalType": "bool",
          "name": "",
          "type": "bool"
        }
      ],
      "stateMutability": "nonpayable",
      "type": "function"
    },
    {
      "inputs": [
        {
          "internalType": "string",
          "name": "uuid",
          "type": "string"
        }
      ],
      "name": "unbindWallet",
      "outputs": [],
      "stateMutability": "nonpayable",
      "type": "function"
    },
    {
      "inputs": [
        {
          "internalType": "string",
          "name": "uuid",
          "type": "string"
        }
      ],
      "name": "verifyWallet",
      "outputs": [],
      "stateMutability": "nonpayable",
      "type": "function"
    },
    {
      "inputs": [
        {
          "internalType": "uint8",
          "name": "_type",
          "type": "uint8"
        }
      ],
      "name": "withdraw",
      "outputs": [],
      "stateMutability": "nonpayable",
      "type": "function"
    },
    {
      "inputs": [],
      "name": "withdrawAllOrderTokens",
      "outputs": [],
      "stateMutability": "nonpayable",
      "type": "function"
    },
    {
      "inputs": [
        {
          "internalType": "string",
          "name": "_orderId",
          "type": "string"
        }
      ],
      "name": "withdrawOrderTokens",
      "outputs": [],
      "stateMutability": "nonpayable",
      "type": "function"
    }
  ],
  "bytecode": "0x60806040526113886006556103e8600755610e10600c60006101000a81548163ffffffff021916908363ffffffff1602179055503480156200004057600080fd5b5060405162004ec338038062004ec3833981810160405281019062000066919062000306565b6040518060400160405280600d81526020017f436c6f7564536c69742044616f000000000000000000000000000000000000008152506040518060400160405280600381526020017f43534400000000000000000000000000000000000000000000000000000000008152508160039081620000e39190620005a8565b508060049081620000f59190620005a8565b50505062000134336200010d6200013b60201b60201c565b600a6200011b91906200081f565b8362000128919062000870565b6200014460201b60201c565b50620009df565b60006012905090565b600073ffffffffffffffffffffffffffffffffffffffff168273ffffffffffffffffffffffffffffffffffffffff1603620001b6576040517f08c379a0000000000000000000000000000000000000000000000000000000008152600401620001ad9062000932565b60405180910390fd5b620001ca60008383620002bc60201b60201c565b8060026000828254620001de919062000954565b92505081905550806000808473ffffffffffffffffffffffffffffffffffffffff1673ffffffffffffffffffffffffffffffffffffffff168152602001908152602001600020600082825462000235919062000954565b925050819055508173ffffffffffffffffffffffffffffffffffffffff16600073ffffffffffffffffffffffffffffffffffffffff167fddf252ad1be2c89b69c2b068fc378daa952ba7f163c4a11628f55a4df523b3ef836040516200029c9190620009c2565b60405180910390a3620002b860008383620002c160201b60201c565b5050565b505050565b505050565b600080fd5b6000819050919050565b620002e081620002cb565b8114620002ec57600080fd5b50565b6000815190506200030081620002d5565b92915050565b6000602082840312156200031f576200031e620002c6565b5b60006200032f84828501620002ef565b91505092915050565b600081519050919050565b7f4e487b7100000000000000000000000000000000000000000000000000000000600052604160045260246000fd5b7f4e487b7100000000000000000000000000000000000000000000000000000000600052602260045260246000fd5b60006002820490506001821680620003ba57607f821691505b602082108103620003d057620003cf62000372565b5b50919050565b60008190508160005260206000209050919050565b60006020601f8301049050919050565b600082821b905092915050565b6000600883026200043a7fffffffffffffffffffffffffffffffffffffffffffffffffffffffffffffffff82620003fb565b620004468683620003fb565b95508019841693508086168417925050509392505050565b6000819050919050565b600062000489620004836200047d84620002cb565b6200045e565b620002cb565b9050919050565b6000819050919050565b620004a58362000468565b620004bd620004b48262000490565b84845462000408565b825550505050565b600090565b620004d4620004c5565b620004e18184846200049a565b505050565b5b818110156200050957620004fd600082620004ca565b600181019050620004e7565b5050565b601f82111562000558576200052281620003d6565b6200052d84620003eb565b810160208510156200053d578190505b620005556200054c85620003eb565b830182620004e6565b50505b505050565b600082821c905092915050565b60006200057d600019846008026200055d565b1980831691505092915050565b60006200059883836200056a565b9150826002028217905092915050565b620005b38262000338565b67ffffffffffffffff811115620005cf57620005ce62000343565b5b620005db8254620003a1565b620005e88282856200050d565b600060209050601f8311600181146200062057600084156200060b578287015190505b6200061785826200058a565b86555062000687565b601f1984166200063086620003d6565b60005b828110156200065a5784890151825560018201915060208501945060208101905062000633565b868310156200067a578489015162000676601f8916826200056a565b8355505b6001600288020188555050505b505050505050565b7f4e487b7100000000000000000000000000000000000000000000000000000000600052601160045260246000fd5b60008160011c9050919050565b6000808291508390505b60018511156200071d57808604811115620006f557620006f46200068f565b5b6001851615620007055780820291505b80810290506200071585620006be565b9450620006d5565b94509492505050565b6000826200073857600190506200080b565b816200074857600090506200080b565b81600181146200076157600281146200076c57620007a2565b60019150506200080b565b60ff8411156200078157620007806200068f565b5b8360020a9150848211156200079b576200079a6200068f565b5b506200080b565b5060208310610133831016604e8410600b8410161715620007dc5782820a905083811115620007d657620007d56200068f565b5b6200080b565b620007eb8484846001620006cb565b925090508184048111156200080557620008046200068f565b5b81810290505b9392505050565b600060ff82169050919050565b60006200082c82620002cb565b9150620008398362000812565b9250620008687fffffffffffffffffffffffffffffffffffffffffffffffffffffffffffffffff848462000726565b905092915050565b60006200087d82620002cb565b91506200088a83620002cb565b9250817fffffffffffffffffffffffffffffffffffffffffffffffffffffffffffffffff0483118215151615620008c657620008c56200068f565b5b828202905092915050565b600082825260208201905092915050565b7f45524332303a206d696e7420746f20746865207a65726f206164647265737300600082015250565b60006200091a601f83620008d1565b91506200092782620008e2565b602082019050919050565b600060208201905081810360008301526200094d816200090b565b9050919050565b60006200096182620002cb565b91506200096e83620002cb565b9250827fffffffffffffffffffffffffffffffffffffffffffffffffffffffffffffffff03821115620009a657620009a56200068f565b5b828201905092915050565b620009bc81620002cb565b82525050565b6000602082019050620009d96000830184620009b1565b92915050565b6144d480620009ef6000396000f3fe608060405234801561001057600080fd5b50600436106101cf5760003560e01c806387a858d211610104578063cd74c0a7116100a2578063dd6887ed11610071578063dd6887ed14610568578063f276b8aa14610598578063f3fbfc7b146105c8578063ffc2c9b7146105e6576101cf565b8063cd74c0a7146104e0578063d19e4856146104fe578063d35b1ac21461051a578063dd62ed3e14610538576101cf565b8063a457c2d7116100de578063a457c2d714610433578063a4e2df6614610463578063a9059cbb14610494578063c6ab5d90146104c4576101cf565b806387a858d2146103dd5780638ec012b9146103f957806395d89b4114610415576101cf565b8063313ce56711610171578063604f21771161014b578063604f21771461033057806370a082311461034c5780637c9b7fdd1461037c5780638291a021146103ad576101cf565b8063313ce567146102c657806339509351146102e45780635c9abe1114610314576101cf565b8063183dd1cd116101ad578063183dd1cd1461024057806323b872dd1461027057806325cfedb5146102a057806327a0b34a146102bc576101cf565b806306fdde03146101d4578063095ea7b3146101f257806318160ddd14610222575b600080fd5b6101dc610602565b6040516101e99190613075565b60405180910390f35b61020c6004803603810190610207919061313f565b610694565b604051610219919061319a565b60405180910390f35b61022a6106b7565b60405161023791906131c4565b60405180910390f35b61025a600480360381019061025591906131df565b6106c1565b6040516102679190613318565b60405180910390f35b61028a6004803603810190610285919061333a565b6107d9565b604051610297919061319a565b60405180910390f35b6102ba60048036038101906102b591906134c2565b610808565b005b6102c4610bb1565b005b6102ce611164565b6040516102db9190613527565b60405180910390f35b6102fe60048036038101906102f9919061313f565b61116d565b60405161030b919061319a565b60405180910390f35b61032e6004803603810190610329919061357e565b6111a4565b005b61034a6004803603810190610345919061365d565b6114e5565b005b610366600480360381019061036191906131df565b61176d565b60405161037391906131c4565b60405180910390f35b610396600480360381019061039191906134c2565b6117b5565b6040516103a492919061368a565b60405180910390f35b6103c760048036038101906103c291906134c2565b61190f565b6040516103d491906137c9565b60405180910390f35b6103f760048036038101906103f291906137eb565b611b0a565b005b610413600480360381019061040e91906134c2565b611cbf565b005b61041d611ef9565b60405161042a9190613075565b60405180910390f35b61044d6004803603810190610448919061313f565b611f8b565b60405161045a919061319a565b60405180910390f35b61047d600480360381019061047891906134c2565b612002565b60405161048b929190613856565b60405180910390f35b6104ae60048036038101906104a9919061313f565b61207f565b6040516104bb919061319a565b60405180910390f35b6104de60048036038101906104d9919061365d565b6120a2565b005b6104e8612274565b6040516104f591906131c4565b60405180910390f35b610518600480360381019061051391906134c2565b61227a565b005b610522612352565b60405161052f91906131c4565b60405180910390f35b610552600480360381019061054d919061387f565b612358565b60405161055f91906131c4565b60405180910390f35b610582600480360381019061057d91906134c2565b6123df565b60405161058f919061319a565b60405180910390f35b6105b260048036038101906105ad919061365d565b612417565b6040516105bf919061319a565b60405180910390f35b6105d06124cf565b6040516105dd91906131c4565b60405180910390f35b61060060048036038101906105fb91906134c2565b6129a5565b005b606060038054610611906138ee565b80601f016020809104026020016040519081016040528092919081815260200182805461063d906138ee565b801561068a5780601f1061065f5761010080835404028352916020019161068a565b820191906000526020600020905b81548152906001019060200180831161066d57829003601f168201915b5050505050905090565b60008061069f612a6d565b90506106ac818585612a75565b600191505092915050565b6000600254905090565b6060600b60008373ffffffffffffffffffffffffffffffffffffffff1673ffffffffffffffffffffffffffffffffffffffff168152602001908152602001600020805480602002602001604051908101604052809291908181526020016000905b828210156107ce578382906000526020600020018054610741906138ee565b80601f016020809104026020016040519081016040528092919081815260200182805461076d906138ee565b80156107ba5780601f1061078f576101008083540402835291602001916107ba565b820191906000526020600020905b81548152906001019060200180831161079d57829003601f168201915b505050505081526020019060010190610722565b505050509050919050565b6000806107e4612a6d565b90506107f1858285612c3e565b6107fc858585612cca565b60019150509392505050565b600a81604051610818919061395b565b908152602001604051809103902060060160019054906101000a900460ff1615610877576040517f08c379a000000000000000000000000000000000000000000000000000000000815260040161086e906139be565b60405180910390fd5b3373ffffffffffffffffffffffffffffffffffffffff16600a8260405161089e919061395b565b908152602001604051809103902060070160009054906101000a900473ffffffffffffffffffffffffffffffffffffffff1673ffffffffffffffffffffffffffffffffffffffff1614610926576040517f08c379a000000000000000000000000000000000000000000000000000000000815260040161091d90613a50565b60405180910390fd5b600a81604051610936919061395b565b9081526020016040518091039020600201544210610a75576001600a82604051610960919061395b565b908152602001604051809103902060060160016101000a81548160ff0219169083151502179055506000600a8260405161099a919061395b565b908152602001604051809103902060030154600a836040516109bc919061395b565b908152602001604051809103902060040160009054906101000a900463ffffffff1663ffffffff166109ee9190613a9f565b9050600081600a84604051610a03919061395b565b908152602001604051809103902060040160009054906101000a900463ffffffff1663ffffffff16600a85604051610a3b919061395b565b908152602001604051809103902060050154610a579190613b02565b610a619190613b33565b9050610a6e303383612cca565b5050610bae565b6000600a82604051610a87919061395b565b908152602001604051809103902060030154600c60009054906101000a900463ffffffff1663ffffffff16600a84604051610ac2919061395b565b90815260200160405180910390206001015442610adf9190613a9f565b610ae99190613b02565b610af39190613a9f565b905080600a83604051610b06919061395b565b90815260200160405180910390206003016000828254610b269190613b8d565b92505081905550600081600a84604051610b40919061395b565b908152602001604051809103902060040160009054906101000a900463ffffffff1663ffffffff16600a85604051610b78919061395b565b908152602001604051809103902060050154610b949190613b02565b610b9e9190613b33565b9050610bab303383612cca565b50505b50565b6000600960003373ffffffffffffffffffffffffffffffffffffffff1673ffffffffffffffffffffffffffffffffffffffff1681526020019081526020016000205403610c33576040517f08c379a0000000000000000000000000000000000000000000000000000000008152600401610c2a90613c2f565b60405180910390fd5b6000600b60003373ffffffffffffffffffffffffffffffffffffffff1673ffffffffffffffffffffffffffffffffffffffff168152602001908152602001600020805480602002602001604051908101604052809291908181526020016000905b82821015610d40578382906000526020600020018054610cb3906138ee565b80601f0160208091040260200160405190810160405280929190818152602001828054610cdf906138ee565b8015610d2c5780601f10610d0157610100808354040283529160200191610d2c565b820191906000526020600020905b815481529060010190602001808311610d0f57829003601f168201915b505050505081526020019060010190610c94565b5050505090506000805b825181101561115457600a838281518110610d6857610d67613c4f565b5b6020026020010151604051610d7d919061395b565b908152602001604051809103902060060160019054906101000a900460ff1661114157600a838281518110610db557610db4613c4f565b5b6020026020010151604051610dca919061395b565b9081526020016040518091039020600201544210610f88576001600a848381518110610df957610df8613c4f565b5b6020026020010151604051610e0e919061395b565b908152602001604051809103902060060160016101000a81548160ff0219169083151502179055506000600a848381518110610e4d57610e4c613c4f565b5b6020026020010151604051610e62919061395b565b908152602001604051809103902060030154600a858481518110610e8957610e88613c4f565b5b6020026020010151604051610e9e919061395b565b908152602001604051809103902060040160009054906101000a900463ffffffff1663ffffffff16610ed09190613a9f565b905080600a858481518110610ee857610ee7613c4f565b5b6020026020010151604051610efd919061395b565b908152602001604051809103902060040160009054906101000a900463ffffffff1663ffffffff16600a868581518110610f3a57610f39613c4f565b5b6020026020010151604051610f4f919061395b565b908152602001604051809103902060050154610f6b9190613b02565b610f759190613b33565b83610f809190613b8d565b925050611140565b6000600a848381518110610f9f57610f9e613c4f565b5b6020026020010151604051610fb4919061395b565b908152602001604051809103902060030154600c60009054906101000a900463ffffffff1663ffffffff16600a868581518110610ff457610ff3613c4f565b5b6020026020010151604051611009919061395b565b908152602001604051809103902060010154426110269190613a9f565b6110309190613b02565b61103a9190613a9f565b905080600a85848151811061105257611051613c4f565b5b6020026020010151604051611067919061395b565b908152602001604051809103902060030160008282546110879190613b8d565b9250508190555080600a8584815181106110a4576110a3613c4f565b5b60200260200101516040516110b9919061395b565b908152602001604051809103902060040160009054906101000a900463ffffffff1663ffffffff16600a8685815181106110f6576110f5613c4f565b5b602002602001015160405161110b919061395b565b9081526020016040518091039020600501546111279190613b02565b6111319190613b33565b8361113c9190613b8d565b9250505b5b808061114c90613c7e565b915050610d4a565b50611160303383612cca565b5050565b60006012905090565b600080611178612a6d565b905061119981858561118a8589612358565b6111949190613b8d565b612a75565b600191505092915050565b600a836040516111b4919061395b565b908152602001604051809103902060060160009054906101000a900460ff1615611213576040517f08c379a000000000000000000000000000000000000000000000000000000000815260040161120a90613d12565b60405180910390fd5b8161121d3361176d565b101561125e576040517f08c379a000000000000000000000000000000000000000000000000000000000815260040161125590613d7e565b60405180910390fd5b611269333084612cca565b604051806101400160405280868152602001428152602001600c60009054906101000a900463ffffffff168661129f9190613d9e565b63ffffffff16426112b09190613b8d565b8152602001600081526020018563ffffffff1681526020018381526020016001151581526020016000151581526020013373ffffffffffffffffffffffffffffffffffffffff1681526020018273ffffffffffffffffffffffffffffffffffffffff16815250600a84604051611326919061395b565b908152602001604051809103902060008201518160000190816113499190613f88565b5060208201518160010155604082015181600201556060820151816003015560808201518160040160006101000a81548163ffffffff021916908363ffffffff16021790555060a0820151816005015560c08201518160060160006101000a81548160ff02191690831515021790555060e08201518160060160016101000a81548160ff0219169083151502179055506101008201518160060160026101000a81548173ffffffffffffffffffffffffffffffffffffffff021916908373ffffffffffffffffffffffffffffffffffffffff1602179055506101208201518160070160006101000a81548173ffffffffffffffffffffffffffffffffffffffff021916908373ffffffffffffffffffffffffffffffffffffffff160217905550905050600b60008273ffffffffffffffffffffffffffffffffffffffff1673ffffffffffffffffffffffffffffffffffffffff168152602001908152602001600020839080600181540180825580915050600190039060005260206000200160009091909190915090816114dd9190613f88565b505050505050565b60018160ff1603611629576000600860003373ffffffffffffffffffffffffffffffffffffffff1673ffffffffffffffffffffffffffffffffffffffff1681526020019081526020016000205414611572576040517f08c379a0000000000000000000000000000000000000000000000000000000008152600401611569906140a6565b60405180910390fd5b60065461157e3361176d565b10156115bf576040517f08c379a00000000000000000000000000000000000000000000000000000000081526004016115b690613d7e565b60405180910390fd5b6115cc3330600654612cca565b600654600860003373ffffffffffffffffffffffffffffffffffffffff1673ffffffffffffffffffffffffffffffffffffffff168152602001908152602001600020600082825461161d9190613b8d565b9250508190555061176a565b60028160ff1603611769576000600960003373ffffffffffffffffffffffffffffffffffffffff1673ffffffffffffffffffffffffffffffffffffffff16815260200190815260200160002054146116b6576040517f08c379a00000000000000000000000000000000000000000000000000000000081526004016116ad906140a6565b60405180910390fd5b6007546116c23361176d565b1015611703576040517f08c379a00000000000000000000000000000000000000000000000000000000081526004016116fa90613d7e565b60405180910390fd5b6117103330600754612cca565b600754600960003373ffffffffffffffffffffffffffffffffffffffff1673ffffffffffffffffffffffffffffffffffffffff16815260200190815260200160002060008282546117619190613b8d565b925050819055505b5b50565b60008060008373ffffffffffffffffffffffffffffffffffffffff1673ffffffffffffffffffffffffffffffffffffffff168152602001908152602001600020549050919050565b60008060026005846040516117ca919061395b565b908152602001604051809103902060000160149054906101000a900460ff1660ff160361190257600060086000600586604051611807919061395b565b908152602001604051809103902060000160009054906101000a900473ffffffffffffffffffffffffffffffffffffffff1673ffffffffffffffffffffffffffffffffffffffff1673ffffffffffffffffffffffffffffffffffffffff168152602001908152602001600020541160006009600060058760405161188b919061395b565b908152602001604051809103902060000160009054906101000a900473ffffffffffffffffffffffffffffffffffffffff1673ffffffffffffffffffffffffffffffffffffffff1673ffffffffffffffffffffffffffffffffffffffff16815260200190815260200160002054119150915061190a565b600080915091505b915091565b611917612f53565b600a82604051611927919061395b565b908152602001604051809103902060405180610140016040529081600082018054611951906138ee565b80601f016020809104026020016040519081016040528092919081815260200182805461197d906138ee565b80156119ca5780601f1061199f576101008083540402835291602001916119ca565b820191906000526020600020905b8154815290600101906020018083116119ad57829003601f168201915b505050505081526020016001820154815260200160028201548152602001600382015481526020016004820160009054906101000a900463ffffffff1663ffffffff1663ffffffff168152602001600582015481526020016006820160009054906101000a900460ff161515151581526020016006820160019054906101000a900460ff161515151581526020016006820160029054906101000a900473ffffffffffffffffffffffffffffffffffffffff1673ffffffffffffffffffffffffffffffffffffffff1673ffffffffffffffffffffffffffffffffffffffff1681526020016007820160009054906101000a900473ffffffffffffffffffffffffffffffffffffffff1673ffffffffffffffffffffffffffffffffffffffff1673ffffffffffffffffffffffffffffffffffffffff16815250509050919050565b600073ffffffffffffffffffffffffffffffffffffffff168173ffffffffffffffffffffffffffffffffffffffff1603611b4357600080fd5b6001600583604051611b55919061395b565b908152602001604051809103902060000160149054906101000a900460ff1660ff1603611be15780600583604051611b8d919061395b565b908152602001604051809103902060000160006101000a81548173ffffffffffffffffffffffffffffffffffffffff021916908373ffffffffffffffffffffffffffffffffffffffff160217905550611cbb565b3373ffffffffffffffffffffffffffffffffffffffff16600583604051611c08919061395b565b908152602001604051809103902060000160009054906101000a900473ffffffffffffffffffffffffffffffffffffffff1673ffffffffffffffffffffffffffffffffffffffff1614611c5a57600080fd5b80600583604051611c6b919061395b565b908152602001604051809103902060000160006101000a81548173ffffffffffffffffffffffffffffffffffffffff021916908373ffffffffffffffffffffffffffffffffffffffff1602179055505b5050565b600073ffffffffffffffffffffffffffffffffffffffff16600582604051611ce7919061395b565b908152602001604051809103902060000160009054906101000a900473ffffffffffffffffffffffffffffffffffffffff1673ffffffffffffffffffffffffffffffffffffffff1614611d3957600080fd5b6000600860003373ffffffffffffffffffffffffffffffffffffffff1673ffffffffffffffffffffffffffffffffffffffff1681526020019081526020016000205403611e3d5760405180604001604052803373ffffffffffffffffffffffffffffffffffffffff168152602001600160ff16815250600582604051611dbf919061395b565b908152602001604051809103902060008201518160000160006101000a81548173ffffffffffffffffffffffffffffffffffffffff021916908373ffffffffffffffffffffffffffffffffffffffff16021790555060208201518160000160146101000a81548160ff021916908360ff160217905550905050611ef6565b60405180604001604052803373ffffffffffffffffffffffffffffffffffffffff168152602001600260ff16815250600582604051611e7c919061395b565b908152602001604051809103902060008201518160000160006101000a81548173ffffffffffffffffffffffffffffffffffffffff021916908373ffffffffffffffffffffffffffffffffffffffff16021790555060208201518160000160146101000a81548160ff021916908360ff1602179055509050505b50565b606060048054611f08906138ee565b80601f0160208091040260200160405190810160405280929190818152602001828054611f34906138ee565b8015611f815780601f10611f5657610100808354040283529160200191611f81565b820191906000526020600020905b815481529060010190602001808311611f6457829003601f168201915b5050505050905090565b600080611f96612a6d565b90506000611fa48286612358565b905083811015611fe9576040517f08c379a0000000000000000000000000000000000000000000000000000000008152600401611fe090614138565b60405180910390fd5b611ff68286868403612a75565b60019250505092915050565b600080600583604051612015919061395b565b908152602001604051809103902060000160009054906101000a900473ffffffffffffffffffffffffffffffffffffffff16600584604051612057919061395b565b908152602001604051809103902060000160149054906101000a900460ff1691509150915091565b60008061208a612a6d565b9050612097818585612cca565b600191505092915050565b60018160ff160361218b576000600860003373ffffffffffffffffffffffffffffffffffffffff1673ffffffffffffffffffffffffffffffffffffffff16815260200190815260200160002054116120f957600080fd5b6121433033600860003373ffffffffffffffffffffffffffffffffffffffff1673ffffffffffffffffffffffffffffffffffffffff16815260200190815260200160002054612cca565b600860003373ffffffffffffffffffffffffffffffffffffffff1673ffffffffffffffffffffffffffffffffffffffff16815260200190815260200160002060009055612271565b60028160ff1603612270576000600960003373ffffffffffffffffffffffffffffffffffffffff1673ffffffffffffffffffffffffffffffffffffffff16815260200190815260200160002054116121e257600080fd5b61222c3033600960003373ffffffffffffffffffffffffffffffffffffffff1673ffffffffffffffffffffffffffffffffffffffff16815260200190815260200160002054612cca565b600960003373ffffffffffffffffffffffffffffffffffffffff1673ffffffffffffffffffffffffffffffffffffffff168152602001908152602001600020600090555b5b50565b60075481565b3373ffffffffffffffffffffffffffffffffffffffff166005826040516122a1919061395b565b908152602001604051809103902060000160009054906101000a900473ffffffffffffffffffffffffffffffffffffffff1673ffffffffffffffffffffffffffffffffffffffff16146122f357600080fd5b600581604051612303919061395b565b9081526020016040518091039020600080820160006101000a81549073ffffffffffffffffffffffffffffffffffffffff02191690556000820160146101000a81549060ff0219169055505050565b60065481565b6000600160008473ffffffffffffffffffffffffffffffffffffffff1673ffffffffffffffffffffffffffffffffffffffff16815260200190815260200160002060008373ffffffffffffffffffffffffffffffffffffffff1673ffffffffffffffffffffffffffffffffffffffff16815260200190815260200160002054905092915050565b6000600a826040516123f1919061395b565b908152602001604051809103902060060160009054906101000a900460ff169050919050565b600060018260ff160361246f576000600860003373ffffffffffffffffffffffffffffffffffffffff1673ffffffffffffffffffffffffffffffffffffffff16815260200190815260200160002054141590506124ca565b60028260ff16036124c5576000600960003373ffffffffffffffffffffffffffffffffffffffff1673ffffffffffffffffffffffffffffffffffffffff16815260200190815260200160002054141590506124ca565b600090505b919050565b600080600960003373ffffffffffffffffffffffffffffffffffffffff1673ffffffffffffffffffffffffffffffffffffffff168152602001908152602001600020541461252057600090506129a2565b6000600b60003373ffffffffffffffffffffffffffffffffffffffff1673ffffffffffffffffffffffffffffffffffffffff168152602001908152602001600020805480602002602001604051908101604052809291908181526020016000905b8282101561262d5783829060005260206000200180546125a0906138ee565b80601f01602080910402602001604051908101604052809291908181526020018280546125cc906138ee565b80156126195780601f106125ee57610100808354040283529160200191612619565b820191906000526020600020905b8154815290600101906020018083116125fc57829003601f168201915b505050505081526020019060010190612581565b5050505090506000805b825181101561299b57600a83828151811061265557612654613c4f565b5b602002602001015160405161266a919061395b565b908152602001604051809103902060060160019054906101000a900460ff1661298857600a8382815181106126a2576126a1613c4f565b5b60200260200101516040516126b7919061395b565b9081526020016040518091039020600201544210612821576000600a8483815181106126e6576126e5613c4f565b5b60200260200101516040516126fb919061395b565b908152602001604051809103902060030154600a85848151811061272257612721613c4f565b5b6020026020010151604051612737919061395b565b908152602001604051809103902060040160009054906101000a900463ffffffff1663ffffffff166127699190613a9f565b905080600a85848151811061278157612780613c4f565b5b6020026020010151604051612796919061395b565b908152602001604051809103902060040160009054906101000a900463ffffffff1663ffffffff16600a8685815181106127d3576127d2613c4f565b5b60200260200101516040516127e8919061395b565b9081526020016040518091039020600501546128049190613b02565b61280e9190613b33565b836128199190613b8d565b925050612987565b6000600a84838151811061283857612837613c4f565b5b602002602001015160405161284d919061395b565b908152602001604051809103902060030154600c60009054906101000a900463ffffffff1663ffffffff16600a86858151811061288d5761288c613c4f565b5b60200260200101516040516128a2919061395b565b908152602001604051809103902060010154426128bf9190613a9f565b6128c99190613b02565b6128d39190613a9f565b905080600a8584815181106128eb576128ea613c4f565b5b6020026020010151604051612900919061395b565b908152602001604051809103902060040160009054906101000a900463ffffffff1663ffffffff16600a86858151811061293d5761293c613c4f565b5b6020026020010151604051612952919061395b565b90815260200160405180910390206005015461296e9190613b02565b6129789190613b33565b836129839190613b8d565b9250505b5b808061299390613c7e565b915050612637565b5080925050505b90565b6000600860003373ffffffffffffffffffffffffffffffffffffffff1673ffffffffffffffffffffffffffffffffffffffff16815260200190815260200160002054116129f157600080fd5b6001600582604051612a03919061395b565b908152602001604051809103902060000160149054906101000a900460ff1660ff1614612a2f57600080fd5b6002600582604051612a41919061395b565b908152602001604051809103902060000160146101000a81548160ff021916908360ff16021790555050565b600033905090565b600073ffffffffffffffffffffffffffffffffffffffff168373ffffffffffffffffffffffffffffffffffffffff1603612ae4576040517f08c379a0000000000000000000000000000000000000000000000000000000008152600401612adb906141ca565b60405180910390fd5b600073ffffffffffffffffffffffffffffffffffffffff168273ffffffffffffffffffffffffffffffffffffffff1603612b53576040517f08c379a0000000000000000000000000000000000000000000000000000000008152600401612b4a9061425c565b60405180910390fd5b80600160008573ffffffffffffffffffffffffffffffffffffffff1673ffffffffffffffffffffffffffffffffffffffff16815260200190815260200160002060008473ffffffffffffffffffffffffffffffffffffffff1673ffffffffffffffffffffffffffffffffffffffff168152602001908152602001600020819055508173ffffffffffffffffffffffffffffffffffffffff168373ffffffffffffffffffffffffffffffffffffffff167f8c5be1e5ebec7d5bd14f71427d1e84f3dd0314c0f7b2291e5b200ac8c7c3b92583604051612c3191906131c4565b60405180910390a3505050565b6000612c4a8484612358565b90507fffffffffffffffffffffffffffffffffffffffffffffffffffffffffffffffff8114612cc45781811015612cb6576040517f08c379a0000000000000000000000000000000000000000000000000000000008152600401612cad906142c8565b60405180910390fd5b612cc38484848403612a75565b5b50505050565b600073ffffffffffffffffffffffffffffffffffffffff168373ffffffffffffffffffffffffffffffffffffffff1603612d39576040517f08c379a0000000000000000000000000000000000000000000000000000000008152600401612d309061435a565b60405180910390fd5b600073ffffffffffffffffffffffffffffffffffffffff168273ffffffffffffffffffffffffffffffffffffffff1603612da8576040517f08c379a0000000000000000000000000000000000000000000000000000000008152600401612d9f906143ec565b60405180910390fd5b612db3838383612f49565b60008060008573ffffffffffffffffffffffffffffffffffffffff1673ffffffffffffffffffffffffffffffffffffffff16815260200190815260200160002054905081811015612e39576040517f08c379a0000000000000000000000000000000000000000000000000000000008152600401612e309061447e565b60405180910390fd5b8181036000808673ffffffffffffffffffffffffffffffffffffffff1673ffffffffffffffffffffffffffffffffffffffff16815260200190815260200160002081905550816000808573ffffffffffffffffffffffffffffffffffffffff1673ffffffffffffffffffffffffffffffffffffffff1681526020019081526020016000206000828254612ecc9190613b8d565b925050819055508273ffffffffffffffffffffffffffffffffffffffff168473ffffffffffffffffffffffffffffffffffffffff167fddf252ad1be2c89b69c2b068fc378daa952ba7f163c4a11628f55a4df523b3ef84604051612f3091906131c4565b60405180910390a3612f43848484612f4e565b50505050565b505050565b505050565b60405180610140016040528060608152602001600081526020016000815260200160008152602001600063ffffffff16815260200160008152602001600015158152602001600015158152602001600073ffffffffffffffffffffffffffffffffffffffff168152602001600073ffffffffffffffffffffffffffffffffffffffff1681525090565b600081519050919050565b600082825260208201905092915050565b60005b83811015613016578082015181840152602081019050612ffb565b83811115613025576000848401525b50505050565b6000601f19601f8301169050919050565b600061304782612fdc565b6130518185612fe7565b9350613061818560208601612ff8565b61306a8161302b565b840191505092915050565b6000602082019050818103600083015261308f818461303c565b905092915050565b6000604051905090565b600080fd5b600080fd5b600073ffffffffffffffffffffffffffffffffffffffff82169050919050565b60006130d6826130ab565b9050919050565b6130e6816130cb565b81146130f157600080fd5b50565b600081359050613103816130dd565b92915050565b6000819050919050565b61311c81613109565b811461312757600080fd5b50565b60008135905061313981613113565b92915050565b60008060408385031215613156576131556130a1565b5b6000613164858286016130f4565b92505060206131758582860161312a565b9150509250929050565b60008115159050919050565b6131948161317f565b82525050565b60006020820190506131af600083018461318b565b92915050565b6131be81613109565b82525050565b60006020820190506131d960008301846131b5565b92915050565b6000602082840312156131f5576131f46130a1565b5b6000613203848285016130f4565b91505092915050565b600081519050919050565b600082825260208201905092915050565b6000819050602082019050919050565b600082825260208201905092915050565b600061325482612fdc565b61325e8185613238565b935061326e818560208601612ff8565b6132778161302b565b840191505092915050565b600061328e8383613249565b905092915050565b6000602082019050919050565b60006132ae8261320c565b6132b88185613217565b9350836020820285016132ca85613228565b8060005b8581101561330657848403895281516132e78582613282565b94506132f283613296565b925060208a019950506001810190506132ce565b50829750879550505050505092915050565b6000602082019050818103600083015261333281846132a3565b905092915050565b600080600060608486031215613353576133526130a1565b5b6000613361868287016130f4565b9350506020613372868287016130f4565b92505060406133838682870161312a565b9150509250925092565b600080fd5b600080fd5b7f4e487b7100000000000000000000000000000000000000000000000000000000600052604160045260246000fd5b6133cf8261302b565b810181811067ffffffffffffffff821117156133ee576133ed613397565b5b80604052505050565b6000613401613097565b905061340d82826133c6565b919050565b600067ffffffffffffffff82111561342d5761342c613397565b5b6134368261302b565b9050602081019050919050565b82818337600083830152505050565b600061346561346084613412565b6133f7565b90508281526020810184848401111561348157613480613392565b5b61348c848285613443565b509392505050565b600082601f8301126134a9576134a861338d565b5b81356134b9848260208601613452565b91505092915050565b6000602082840312156134d8576134d76130a1565b5b600082013567ffffffffffffffff8111156134f6576134f56130a6565b5b61350284828501613494565b91505092915050565b600060ff82169050919050565b6135218161350b565b82525050565b600060208201905061353c6000830184613518565b92915050565b600063ffffffff82169050919050565b61355b81613542565b811461356657600080fd5b50565b60008135905061357881613552565b92915050565b600080600080600060a0868803121561359a576135996130a1565b5b600086013567ffffffffffffffff8111156135b8576135b76130a6565b5b6135c488828901613494565b95505060206135d588828901613569565b945050604086013567ffffffffffffffff8111156135f6576135f56130a6565b5b61360288828901613494565b93505060606136138882890161312a565b9250506080613624888289016130f4565b9150509295509295909350565b61363a8161350b565b811461364557600080fd5b50565b60008135905061365781613631565b92915050565b600060208284031215613673576136726130a1565b5b600061368184828501613648565b91505092915050565b600060408201905061369f600083018561318b565b6136ac602083018461318b565b9392505050565b6136bc81613109565b82525050565b6136cb81613542565b82525050565b6136da8161317f565b82525050565b6136e9816130cb565b82525050565b600061014083016000830151848203600086015261370d8282613249565b915050602083015161372260208601826136b3565b50604083015161373560408601826136b3565b50606083015161374860608601826136b3565b50608083015161375b60808601826136c2565b5060a083015161376e60a08601826136b3565b5060c083015161378160c08601826136d1565b5060e083015161379460e08601826136d1565b506101008301516137a96101008601826136e0565b506101208301516137be6101208601826136e0565b508091505092915050565b600060208201905081810360008301526137e381846136ef565b905092915050565b60008060408385031215613802576138016130a1565b5b600083013567ffffffffffffffff8111156138205761381f6130a6565b5b61382c85828601613494565b925050602061383d858286016130f4565b9150509250929050565b613850816130cb565b82525050565b600060408201905061386b6000830185613847565b6138786020830184613518565b9392505050565b60008060408385031215613896576138956130a1565b5b60006138a4858286016130f4565b92505060206138b5858286016130f4565b9150509250929050565b7f4e487b7100000000000000000000000000000000000000000000000000000000600052602260045260246000fd5b6000600282049050600182168061390657607f821691505b602082108103613919576139186138bf565b5b50919050565b600081905092915050565b600061393582612fdc565b61393f818561391f565b935061394f818560208601612ff8565b80840191505092915050565b6000613967828461392a565b915081905092915050565b7f546865206f7264657220686173206265656e2077697468647261776e00000000600082015250565b60006139a8601c83612fe7565b91506139b382613972565b602082019050919050565b600060208201905081810360008301526139d78161399b565b9050919050565b7f506c6561736520636f6e6669726d207468652077616c6c65742061646472657360008201527f732c2043616e206e6f7420776974686472617700000000000000000000000000602082015250565b6000613a3a603383612fe7565b9150613a45826139de565b604082019050919050565b60006020820190508181036000830152613a6981613a2d565b9050919050565b7f4e487b7100000000000000000000000000000000000000000000000000000000600052601160045260246000fd5b6000613aaa82613109565b9150613ab583613109565b925082821015613ac857613ac7613a70565b5b828203905092915050565b7f4e487b7100000000000000000000000000000000000000000000000000000000600052601260045260246000fd5b6000613b0d82613109565b9150613b1883613109565b925082613b2857613b27613ad3565b5b828204905092915050565b6000613b3e82613109565b9150613b4983613109565b9250817fffffffffffffffffffffffffffffffffffffffffffffffffffffffffffffffff0483118215151615613b8257613b81613a70565b5b828202905092915050565b6000613b9882613109565b9150613ba383613109565b9250827fffffffffffffffffffffffffffffffffffffffffffffffffffffffffffffffff03821115613bd857613bd7613a70565b5b828201905092915050565b7f4e6f74206465706f736974730000000000000000000000000000000000000000600082015250565b6000613c19600c83612fe7565b9150613c2482613be3565b602082019050919050565b60006020820190508181036000830152613c4881613c0c565b9050919050565b7f4e487b7100000000000000000000000000000000000000000000000000000000600052603260045260246000fd5b6000613c8982613109565b91507fffffffffffffffffffffffffffffffffffffffffffffffffffffffffffffffff8203613cbb57613cba613a70565b5b600182019050919050565b7f416c726561647920706169640000000000000000000000000000000000000000600082015250565b6000613cfc600c83612fe7565b9150613d0782613cc6565b602082019050919050565b60006020820190508181036000830152613d2b81613cef565b9050919050565b7f4e6f7420656e6f75676820435344000000000000000000000000000000000000600082015250565b6000613d68600e83612fe7565b9150613d7382613d32565b602082019050919050565b60006020820190508181036000830152613d9781613d5b565b9050919050565b6000613da982613542565b9150613db483613542565b92508163ffffffff0483118215151615613dd157613dd0613a70565b5b828202905092915050565b60008190508160005260206000209050919050565b60006020601f8301049050919050565b600082821b905092915050565b600060088302613e3e7fffffffffffffffffffffffffffffffffffffffffffffffffffffffffffffffff82613e01565b613e488683613e01565b95508019841693508086168417925050509392505050565b6000819050919050565b6000613e85613e80613e7b84613109565b613e60565b613109565b9050919050565b6000819050919050565b613e9f83613e6a565b613eb3613eab82613e8c565b848454613e0e565b825550505050565b600090565b613ec8613ebb565b613ed3818484613e96565b505050565b5b81811015613ef757613eec600082613ec0565b600181019050613ed9565b5050565b601f821115613f3c57613f0d81613ddc565b613f1684613df1565b81016020851015613f25578190505b613f39613f3185613df1565b830182613ed8565b50505b505050565b600082821c905092915050565b6000613f5f60001984600802613f41565b1980831691505092915050565b6000613f788383613f4e565b9150826002028217905092915050565b613f9182612fdc565b67ffffffffffffffff811115613faa57613fa9613397565b5b613fb482546138ee565b613fbf828285613efb565b600060209050601f831160018114613ff25760008415613fe0578287015190505b613fea8582613f6c565b865550614052565b601f19841661400086613ddc565b60005b8281101561402857848901518255600182019150602085019450602081019050614003565b868310156140455784890151614041601f891682613f4e565b8355505b6001600288020188555050505b505050505050565b7f416c7265616479207374616b6564000000000000000000000000000000000000600082015250565b6000614090600e83612fe7565b915061409b8261405a565b602082019050919050565b600060208201905081810360008301526140bf81614083565b9050919050565b7f45524332303a2064656372656173656420616c6c6f77616e63652062656c6f7760008201527f207a65726f000000000000000000000000000000000000000000000000000000602082015250565b6000614122602583612fe7565b915061412d826140c6565b604082019050919050565b6000602082019050818103600083015261415181614115565b9050919050565b7f45524332303a20617070726f76652066726f6d20746865207a65726f2061646460008201527f7265737300000000000000000000000000000000000000000000000000000000602082015250565b60006141b4602483612fe7565b91506141bf82614158565b604082019050919050565b600060208201905081810360008301526141e3816141a7565b9050919050565b7f45524332303a20617070726f766520746f20746865207a65726f20616464726560008201527f7373000000000000000000000000000000000000000000000000000000000000602082015250565b6000614246602283612fe7565b9150614251826141ea565b604082019050919050565b6000602082019050818103600083015261427581614239565b9050919050565b7f45524332303a20696e73756666696369656e7420616c6c6f77616e6365000000600082015250565b60006142b2601d83612fe7565b91506142bd8261427c565b602082019050919050565b600060208201905081810360008301526142e1816142a5565b9050919050565b7f45524332303a207472616e736665722066726f6d20746865207a65726f20616460008201527f6472657373000000000000000000000000000000000000000000000000000000602082015250565b6000614344602583612fe7565b915061434f826142e8565b604082019050919050565b6000602082019050818103600083015261437381614337565b9050919050565b7f45524332303a207472616e7366657220746f20746865207a65726f206164647260008201527f6573730000000000000000000000000000000000000000000000000000000000602082015250565b60006143d6602383612fe7565b91506143e18261437a565b604082019050919050565b60006020820190508181036000830152614405816143c9565b9050919050565b7f45524332303a207472616e7366657220616d6f756e742065786365656473206260008201527f616c616e63650000000000000000000000000000000000000000000000000000602082015250565b6000614468602683612fe7565b91506144738261440c565b604082019050919050565b600060208201905081810360008301526144978161445b565b905091905056fea26469706673582212206b35abef505b63d50516832eab3f21554a6528968e5d1bc41406faf3db445bca64736f6c634300080f0033",
  "linkReferences": {},
  "deployedLinkReferences": {}
}