{
  "_format": "hh-sol-artifact-1",
  "contractName": "CloudSlit",
  "sourceName": "contracts/CloudSlit.sol",
  "abi": [
    {
      "inputs": [],
      "stateMutability": "nonpayable",
      "type": "constructor"
    },
    {
      "anonymous": false,
      "inputs": [
        {
          "indexed": true,
          "internalType": "address",
          "name": "owner",
          "type": "address"
        },
        {
          "indexed": true,
          "internalType": "address",
          "name": "spender",
          "type": "address"
        },
        {
          "indexed": false,
          "internalType": "uint256",
          "name": "value",
          "type": "uint256"
        }
      ],
      "name": "Approval",
      "type": "event"
    },
    {
      "anonymous": false,
      "inputs": [
        {
          "indexed": true,
          "internalType": "address",
          "name": "from",
          "type": "address"
        },
        {
          "indexed": true,
          "internalType": "address",
          "name": "to",
          "type": "address"
        },
        {
          "indexed": false,
          "internalType": "uint256",
          "name": "value",
          "type": "uint256"
        }
      ],
      "name": "Transfer",
      "type": "event"
    },
    {
      "inputs": [
        {
          "internalType": "address",
          "name": "owner",
          "type": "address"
        },
        {
          "internalType": "address",
          "name": "spender",
          "type": "address"
        }
      ],
      "name": "allowance",
      "outputs": [
        {
          "internalType": "uint256",
          "name": "",
          "type": "uint256"
        }
      ],
      "stateMutability": "view",
      "type": "function"
    },
    {
      "inputs": [
        {
          "internalType": "address",
          "name": "spender",
          "type": "address"
        },
        {
          "internalType": "uint256",
          "name": "value",
          "type": "uint256"
        }
      ],
      "name": "approve",
      "outputs": [
        {
          "internalType": "bool",
          "name": "",
          "type": "bool"
        }
      ],
      "stateMutability": "nonpayable",
      "type": "function"
    },
    {
      "inputs": [
        {
          "internalType": "address",
          "name": "account",
          "type": "address"
        }
      ],
      "name": "balanceOf",
      "outputs": [
        {
          "internalType": "uint256",
          "name": "",
          "type": "uint256"
        }
      ],
      "stateMutability": "view",
      "type": "function"
    },
    {
      "inputs": [
        {
          "internalType": "string",
          "name": "uuid",
          "type": "string"
        }
      ],
      "name": "bindWallet",
      "outputs": [],
      "stateMutability": "nonpayable",
      "type": "function"
    },
    {
      "inputs": [
        {
          "internalType": "string",
          "name": "uuid",
          "type": "string"
        },
        {
          "internalType": "address",
          "name": "newWallet",
          "type": "address"
        }
      ],
      "name": "changeWallet",
      "outputs": [],
      "stateMutability": "nonpayable",
      "type": "function"
    },
    {
      "inputs": [
        {
          "internalType": "string",
          "name": "_orderId",
          "type": "string"
        }
      ],
      "name": "checkOrder",
      "outputs": [
        {
          "internalType": "bool",
          "name": "",
          "type": "bool"
        }
      ],
      "stateMutability": "view",
      "type": "function"
    },
    {
      "inputs": [
        {
          "internalType": "string",
          "name": "_name",
          "type": "string"
        },
        {
          "internalType": "uint32",
          "name": "_duration",
          "type": "uint32"
        },
        {
          "internalType": "string",
          "name": "_orderId",
          "type": "string"
        },
        {
          "internalType": "uint256",
          "name": "_price",
          "type": "uint256"
        },
        {
          "internalType": "address",
          "name": "_to",
          "type": "address"
        }
      ],
      "name": "clientOrder",
      "outputs": [],
      "stateMutability": "nonpayable",
      "type": "function"
    },
    {
      "inputs": [],
      "name": "decimals",
      "outputs": [
        {
          "internalType": "uint8",
          "name": "",
          "type": "uint8"
        }
      ],
      "stateMutability": "view",
      "type": "function"
    },
    {
      "inputs": [],
      "name": "fullnodeDepositAmount",
      "outputs": [
        {
          "internalType": "uint256",
          "name": "",
          "type": "uint256"
        }
      ],
      "stateMutability": "view",
      "type": "function"
    },
    {
      "inputs": [],
      "name": "getAllOrderTokens",
      "outputs": [
        {
          "internalType": "uint256",
          "name": "",
          "type": "uint256"
        }
      ],
      "stateMutability": "view",
      "type": "function"
    },
    {
      "inputs": [
        {
          "internalType": "string",
          "name": "_orderId",
          "type": "string"
        }
      ],
      "name": "getOrdersInfo",
      "outputs": [
        {
          "components": [
            {
              "internalType": "string",
              "name": "name",
              "type": "string"
            },
            {
              "internalType": "uint256",
              "name": "startTime",
              "type": "uint256"
            },
            {
              "internalType": "uint256",
              "name": "endTime",
              "type": "uint256"
            },
            {
              "internalType": "uint256",
              "name": "withdrawDuration",
              "type": "uint256"
            },
            {
              "internalType": "uint32",
              "name": "duration",
              "type": "uint32"
            },
            {
              "internalType": "uint256",
              "name": "price",
              "type": "uint256"
            },
            {
              "internalType": "bool",
              "name": "used",
              "type": "bool"
            },
            {
              "internalType": "bool",
              "name": "withdraw",
              "type": "bool"
            },
            {
              "internalType": "address",
              "name": "payAddress",
              "type": "address"
            },
            {
              "internalType": "address",
              "name": "privateAddress",
              "type": "address"
            }
          ],
          "internalType": "struct CloudSlit.Order",
          "name": "",
          "type": "tuple"
        }
      ],
      "stateMutability": "view",
      "type": "function"
    },
    {
      "inputs": [
        {
          "internalType": "address",
          "name": "from",
          "type": "address"
        }
      ],
      "name": "getPrivoderOrders",
      "outputs": [
        {
          "internalType": "string[]",
          "name": "",
          "type": "string[]"
        }
      ],
      "stateMutability": "view",
      "type": "function"
    },
    {
      "inputs": [
        {
          "internalType": "string",
          "name": "uuid",
          "type": "string"
        }
      ],
      "name": "getUserInfo",
      "outputs": [
        {
          "internalType": "bool",
          "name": "",
          "type": "bool"
        },
        {
          "internalType": "bool",
          "name": "",
          "type": "bool"
        }
      ],
      "stateMutability": "view",
      "type": "function"
    },
    {
      "inputs": [
        {
          "internalType": "string",
          "name": "uuid",
          "type": "string"
        }
      ],
      "name": "getWallet",
      "outputs": [
        {
          "internalType": "address",
          "name": "",
          "type": "address"
        },
        {
          "internalType": "uint8",
          "name": "",
          "type": "uint8"
        }
      ],
      "stateMutability": "view",
      "type": "function"
    },
    {
      "inputs": [
        {
          "internalType": "uint8",
          "name": "_type",
          "type": "uint8"
        }
      ],
      "name": "isDeposit",
      "outputs": [
        {
          "internalType": "bool",
          "name": "",
          "type": "bool"
        }
      ],
      "stateMutability": "view",
      "type": "function"
    },
    {
      "inputs": [],
      "name": "name",
      "outputs": [
        {
          "internalType": "string",
          "name": "",
          "type": "string"
        }
      ],
      "stateMutability": "view",
      "type": "function"
    },
    {
      "inputs": [],
      "name": "privoderDepositAmount",
      "outputs": [
        {
          "internalType": "uint256",
          "name": "",
          "type": "uint256"
        }
      ],
      "stateMutability": "view",
      "type": "function"
    },
    {
      "inputs": [
        {
          "internalType": "uint8",
          "name": "_type",
          "type": "uint8"
        }
      ],
      "name": "stake",
      "outputs": [],
      "stateMutability": "nonpayable",
      "type": "function"
    },
    {
      "inputs": [],
      "name": "symbol",
      "outputs": [
        {
          "internalType": "string",
          "name": "",
          "type": "string"
        }
      ],
      "stateMutability": "view",
      "type": "function"
    },
    {
      "inputs": [],
      "name": "totalSupply",
      "outputs": [
        {
          "internalType": "uint256",
          "name": "",
          "type": "uint256"
        }
      ],
      "stateMutability": "view",
      "type": "function"
    },
    {
      "inputs": [
        {
          "internalType": "address",
          "name": "to",
          "type": "address"
        },
        {
          "internalType": "uint256",
          "name": "value",
          "type": "uint256"
        }
      ],
      "name": "transfer",
      "outputs": [
        {
          "internalType": "bool",
          "name": "",
          "type": "bool"
        }
      ],
      "stateMutability": "nonpayable",
      "type": "function"
    },
    {
      "inputs": [
        {
          "internalType": "address",
          "name": "from",
          "type": "address"
        },
        {
          "internalType": "address",
          "name": "to",
          "type": "address"
        },
        {
          "internalType": "uint256",
          "name": "value",
          "type": "uint256"
        }
      ],
      "name": "transferFrom",
      "outputs": [
        {
          "internalType": "bool",
          "name": "",
          "type": "bool"
        }
      ],
      "stateMutability": "nonpayable",
      "type": "function"
    },
    {
      "inputs": [
        {
          "internalType": "string",
          "name": "uuid",
          "type": "string"
        }
      ],
      "name": "verifyWallet",
      "outputs": [],
      "stateMutability": "nonpayable",
      "type": "function"
    },
    {
      "inputs": [
        {
          "internalType": "uint8",
          "name": "_type",
          "type": "uint8"
        }
      ],
      "name": "withdraw",
      "outputs": [],
      "stateMutability": "nonpayable",
      "type": "function"
    },
    {
      "inputs": [],
      "name": "withdrawAllOrderTokens",
      "outputs": [],
      "stateMutability": "nonpayable",
      "type": "function"
    },
    {
      "inputs": [
        {
          "internalType": "string",
          "name": "_orderId",
          "type": "string"
        }
      ],
      "name": "withdrawOrderTokens",
      "outputs": [],
      "stateMutability": "nonpayable",
      "type": "function"
    }
  ],
  "bytecode": "0x60806040526040518060400160405280600d81526020017f436c6f7564536c69742044616f00000000000000000000000000000000000000815250600090816200004a9190620003b8565b506040518060400160405280600381526020017f435344000000000000000000000000000000000000000000000000000000000081525060019081620000919190620003b8565b506000600260006101000a81548160ff021916908360ff160217905550620f42406003556113886007556103e8600855610e10600d60006101000a81548163ffffffff021916908363ffffffff160217905550348015620000f157600080fd5b50600354600460003373ffffffffffffffffffffffffffffffffffffffff1673ffffffffffffffffffffffffffffffffffffffff168152602001908152602001600020819055506200049f565b600081519050919050565b7f4e487b7100000000000000000000000000000000000000000000000000000000600052604160045260246000fd5b7f4e487b7100000000000000000000000000000000000000000000000000000000600052602260045260246000fd5b60006002820490506001821680620001c057607f821691505b602082108103620001d657620001d562000178565b5b50919050565b60008190508160005260206000209050919050565b60006020601f8301049050919050565b600082821b905092915050565b600060088302620002407fffffffffffffffffffffffffffffffffffffffffffffffffffffffffffffffff8262000201565b6200024c868362000201565b95508019841693508086168417925050509392505050565b6000819050919050565b6000819050919050565b600062000299620002936200028d8462000264565b6200026e565b62000264565b9050919050565b6000819050919050565b620002b58362000278565b620002cd620002c482620002a0565b8484546200020e565b825550505050565b600090565b620002e4620002d5565b620002f1818484620002aa565b505050565b5b8181101562000319576200030d600082620002da565b600181019050620002f7565b5050565b601f82111562000368576200033281620001dc565b6200033d84620001f1565b810160208510156200034d578190505b620003656200035c85620001f1565b830182620002f6565b50505b505050565b600082821c905092915050565b60006200038d600019846008026200036d565b1980831691505092915050565b6000620003a883836200037a565b9150826002028217905092915050565b620003c3826200013e565b67ffffffffffffffff811115620003df57620003de62000149565b5b620003eb8254620001a7565b620003f88282856200031d565b600060209050601f8311600181146200043057600084156200041b578287015190505b6200042785826200039a565b86555062000497565b601f1984166200044086620001dc565b60005b828110156200046a5784890151825560018201915060208501945060208101905062000443565b868310156200048a578489015162000486601f8916826200037a565b8355505b6001600288020188555050505b505050505050565b61413b80620004af6000396000f3fe608060405234801561001057600080fd5b506004361061018e5760003560e01c806387a858d2116100de578063cd74c0a711610097578063dd6887ed11610071578063dd6887ed146104ab578063f276b8aa146104db578063f3fbfc7b1461050b578063ffc2c9b7146105295761018e565b8063cd74c0a71461043f578063d35b1ac21461045d578063dd62ed3e1461047b5761018e565b806387a858d21461036c5780638ec012b91461038857806395d89b41146103a4578063a4e2df66146103c2578063a9059cbb146103f3578063c6ab5d90146104235761018e565b806327a0b34a1161014b578063604f217711610125578063604f2177146102bf57806370a08231146102db5780637c9b7fdd1461030b5780638291a0211461033c5761018e565b806327a0b34a1461027b578063313ce567146102855780635c9abe11146102a35761018e565b806306fdde0314610193578063095ea7b3146101b157806318160ddd146101e1578063183dd1cd146101ff57806323b872dd1461022f57806325cfedb51461025f575b600080fd5b61019b610545565b6040516101a891906130b4565b60405180910390f35b6101cb60048036038101906101c6919061317e565b6105d3565b6040516101d891906131d9565b60405180910390f35b6101e96106c5565b6040516101f69190613203565b60405180910390f35b6102196004803603810190610214919061321e565b6106cb565b6040516102269190613357565b60405180910390f35b61024960048036038101906102449190613379565b6107e3565b60405161025691906131d9565b60405180910390f35b61027960048036038101906102749190613501565b610a69565b005b610283610ea8565b005b61028d6114a6565b60405161029a9190613566565b60405180910390f35b6102bd60048036038101906102b891906135bd565b6114b9565b005b6102d960048036038101906102d4919061369c565b61187c565b005b6102f560048036038101906102f0919061321e565b611c08565b6040516103029190613203565b60405180910390f35b61032560048036038101906103209190613501565b611c51565b6040516103339291906136c9565b60405180910390f35b61035660048036038101906103519190613501565b611dab565b6040516103639190613808565b60405180910390f35b6103866004803603810190610381919061382a565b611fa6565b005b6103a2600480360381019061039d9190613501565b61215b565b005b6103ac612395565b6040516103b991906130b4565b60405180910390f35b6103dc60048036038101906103d79190613501565b612423565b6040516103ea929190613895565b60405180910390f35b61040d6004803603810190610408919061317e565b6124a0565b60405161041a91906131d9565b60405180910390f35b61043d6004803603810190610438919061369c565b612609565b005b610447612871565b6040516104549190613203565b60405180910390f35b610465612877565b6040516104729190613203565b60405180910390f35b610495600480360381019061049091906138be565b61287d565b6040516104a29190613203565b60405180910390f35b6104c560048036038101906104c09190613501565b612904565b6040516104d291906131d9565b60405180910390f35b6104f560048036038101906104f0919061369c565b61293c565b60405161050291906131d9565b60405180910390f35b6105136129f4565b6040516105209190613203565b60405180910390f35b610543600480360381019061053e9190613501565b612eca565b005b600080546105529061392d565b80601f016020809104026020016040519081016040528092919081815260200182805461057e9061392d565b80156105cb5780601f106105a0576101008083540402835291602001916105cb565b820191906000526020600020905b8154815290600101906020018083116105ae57829003601f168201915b505050505081565b600081600560003373ffffffffffffffffffffffffffffffffffffffff1673ffffffffffffffffffffffffffffffffffffffff16815260200190815260200160002060008573ffffffffffffffffffffffffffffffffffffffff1673ffffffffffffffffffffffffffffffffffffffff168152602001908152602001600020819055508273ffffffffffffffffffffffffffffffffffffffff163373ffffffffffffffffffffffffffffffffffffffff167f8c5be1e5ebec7d5bd14f71427d1e84f3dd0314c0f7b2291e5b200ac8c7c3b925846040516106b39190613203565b60405180910390a36001905092915050565b60035481565b6060600c60008373ffffffffffffffffffffffffffffffffffffffff1673ffffffffffffffffffffffffffffffffffffffff168152602001908152602001600020805480602002602001604051908101604052809291908181526020016000905b828210156107d857838290600052602060002001805461074b9061392d565b80601f01602080910402602001604051908101604052809291908181526020018280546107779061392d565b80156107c45780601f10610799576101008083540402835291602001916107c4565b820191906000526020600020905b8154815290600101906020018083116107a757829003601f168201915b50505050508152602001906001019061072c565b505050509050919050565b600081600460008673ffffffffffffffffffffffffffffffffffffffff1673ffffffffffffffffffffffffffffffffffffffff16815260200190815260200160002054101561083157600080fd5b81600560008673ffffffffffffffffffffffffffffffffffffffff1673ffffffffffffffffffffffffffffffffffffffff16815260200190815260200160002060003373ffffffffffffffffffffffffffffffffffffffff1673ffffffffffffffffffffffffffffffffffffffff1681526020019081526020016000205410156108ba57600080fd5b81600460008673ffffffffffffffffffffffffffffffffffffffff1673ffffffffffffffffffffffffffffffffffffffff1681526020019081526020016000206000828254610909919061398d565b9250508190555081600560008673ffffffffffffffffffffffffffffffffffffffff1673ffffffffffffffffffffffffffffffffffffffff16815260200190815260200160002060003373ffffffffffffffffffffffffffffffffffffffff1673ffffffffffffffffffffffffffffffffffffffff168152602001908152602001600020600082825461099c919061398d565b9250508190555081600460008573ffffffffffffffffffffffffffffffffffffffff1673ffffffffffffffffffffffffffffffffffffffff16815260200190815260200160002060008282546109f291906139c1565b925050819055508273ffffffffffffffffffffffffffffffffffffffff168473ffffffffffffffffffffffffffffffffffffffff167fddf252ad1be2c89b69c2b068fc378daa952ba7f163c4a11628f55a4df523b3ef84604051610a569190613203565b60405180910390a3600190509392505050565b600b81604051610a799190613a53565b908152602001604051809103902060060160019054906101000a900460ff1615610ad8576040517f08c379a0000000000000000000000000000000000000000000000000000000008152600401610acf90613ab6565b60405180910390fd5b3373ffffffffffffffffffffffffffffffffffffffff16600b82604051610aff9190613a53565b908152602001604051809103902060070160009054906101000a900473ffffffffffffffffffffffffffffffffffffffff1673ffffffffffffffffffffffffffffffffffffffff1614610b87576040517f08c379a0000000000000000000000000000000000000000000000000000000008152600401610b7e90613b48565b60405180910390fd5b600b81604051610b979190613a53565b9081526020016040518091039020600201544210610d21576001600b82604051610bc19190613a53565b908152602001604051809103902060060160016101000a81548160ff0219169083151502179055506000600b82604051610bfb9190613a53565b908152602001604051809103902060030154600b83604051610c1d9190613a53565b908152602001604051809103902060040160009054906101000a900463ffffffff1663ffffffff16610c4f919061398d565b9050600081600b84604051610c649190613a53565b908152602001604051809103902060040160009054906101000a900463ffffffff1663ffffffff16600b85604051610c9c9190613a53565b908152602001604051809103902060050154610cb89190613b97565b610cc29190613bc8565b905080600460003373ffffffffffffffffffffffffffffffffffffffff1673ffffffffffffffffffffffffffffffffffffffff1681526020019081526020016000206000828254610d1391906139c1565b925050819055505050610ea5565b6000600b82604051610d339190613a53565b908152602001604051809103902060030154600d60009054906101000a900463ffffffff1663ffffffff16600b84604051610d6e9190613a53565b90815260200160405180910390206001015442610d8b919061398d565b610d959190613b97565b610d9f919061398d565b905080600b83604051610db29190613a53565b90815260200160405180910390206003016000828254610dd291906139c1565b92505081905550600081600b84604051610dec9190613a53565b908152602001604051809103902060040160009054906101000a900463ffffffff1663ffffffff16600b85604051610e249190613a53565b908152602001604051809103902060050154610e409190613b97565b610e4a9190613bc8565b905080600460003373ffffffffffffffffffffffffffffffffffffffff1673ffffffffffffffffffffffffffffffffffffffff1681526020019081526020016000206000828254610e9b91906139c1565b9250508190555050505b50565b6000600a60003373ffffffffffffffffffffffffffffffffffffffff1673ffffffffffffffffffffffffffffffffffffffff1681526020019081526020016000205403610f2a576040517f08c379a0000000000000000000000000000000000000000000000000000000008152600401610f2190613c6e565b60405180910390fd5b6000600c60003373ffffffffffffffffffffffffffffffffffffffff1673ffffffffffffffffffffffffffffffffffffffff168152602001908152602001600020805480602002602001604051908101604052809291908181526020016000905b82821015611037578382906000526020600020018054610faa9061392d565b80601f0160208091040260200160405190810160405280929190818152602001828054610fd69061392d565b80156110235780601f10610ff857610100808354040283529160200191611023565b820191906000526020600020905b81548152906001019060200180831161100657829003601f168201915b505050505081526020019060010190610f8b565b5050505090506000805b825181101561144b57600b83828151811061105f5761105e613c8e565b5b60200260200101516040516110749190613a53565b908152602001604051809103902060060160019054906101000a900460ff1661143857600b8382815181106110ac576110ab613c8e565b5b60200260200101516040516110c19190613a53565b908152602001604051809103902060020154421061127f576001600b8483815181106110f0576110ef613c8e565b5b60200260200101516040516111059190613a53565b908152602001604051809103902060060160016101000a81548160ff0219169083151502179055506000600b84838151811061114457611143613c8e565b5b60200260200101516040516111599190613a53565b908152602001604051809103902060030154600b8584815181106111805761117f613c8e565b5b60200260200101516040516111959190613a53565b908152602001604051809103902060040160009054906101000a900463ffffffff1663ffffffff166111c7919061398d565b905080600b8584815181106111df576111de613c8e565b5b60200260200101516040516111f49190613a53565b908152602001604051809103902060040160009054906101000a900463ffffffff1663ffffffff16600b86858151811061123157611230613c8e565b5b60200260200101516040516112469190613a53565b9081526020016040518091039020600501546112629190613b97565b61126c9190613bc8565b8361127791906139c1565b925050611437565b6000600b84838151811061129657611295613c8e565b5b60200260200101516040516112ab9190613a53565b908152602001604051809103902060030154600d60009054906101000a900463ffffffff1663ffffffff16600b8685815181106112eb576112ea613c8e565b5b60200260200101516040516113009190613a53565b9081526020016040518091039020600101544261131d919061398d565b6113279190613b97565b611331919061398d565b905080600b85848151811061134957611348613c8e565b5b602002602001015160405161135e9190613a53565b9081526020016040518091039020600301600082825461137e91906139c1565b9250508190555080600b85848151811061139b5761139a613c8e565b5b60200260200101516040516113b09190613a53565b908152602001604051809103902060040160009054906101000a900463ffffffff1663ffffffff16600b8685815181106113ed576113ec613c8e565b5b60200260200101516040516114029190613a53565b90815260200160405180910390206005015461141e9190613b97565b6114289190613bc8565b8361143391906139c1565b9250505b5b808061144390613cbd565b915050611041565b5080600460003373ffffffffffffffffffffffffffffffffffffffff1673ffffffffffffffffffffffffffffffffffffffff168152602001908152602001600020600082825461149b91906139c1565b925050819055505050565b600260009054906101000a900460ff1681565b600b836040516114c99190613a53565b908152602001604051809103902060060160009054906101000a900460ff1615611528576040517f08c379a000000000000000000000000000000000000000000000000000000000815260040161151f90613d51565b60405180910390fd5b81600460003373ffffffffffffffffffffffffffffffffffffffff1673ffffffffffffffffffffffffffffffffffffffff1681526020019081526020016000205410156115aa576040517f08c379a00000000000000000000000000000000000000000000000000000000081526004016115a190613dbd565b60405180910390fd5b81600460003373ffffffffffffffffffffffffffffffffffffffff1673ffffffffffffffffffffffffffffffffffffffff16815260200190815260200160002060008282546115f9919061398d565b92505081905550604051806101400160405280868152602001428152602001600d60009054906101000a900463ffffffff16866116369190613ddd565b63ffffffff164261164791906139c1565b8152602001600081526020018563ffffffff1681526020018381526020016001151581526020016000151581526020013373ffffffffffffffffffffffffffffffffffffffff1681526020018273ffffffffffffffffffffffffffffffffffffffff16815250600b846040516116bd9190613a53565b908152602001604051809103902060008201518160000190816116e09190613fc7565b5060208201518160010155604082015181600201556060820151816003015560808201518160040160006101000a81548163ffffffff021916908363ffffffff16021790555060a0820151816005015560c08201518160060160006101000a81548160ff02191690831515021790555060e08201518160060160016101000a81548160ff0219169083151502179055506101008201518160060160026101000a81548173ffffffffffffffffffffffffffffffffffffffff021916908373ffffffffffffffffffffffffffffffffffffffff1602179055506101208201518160070160006101000a81548173ffffffffffffffffffffffffffffffffffffffff021916908373ffffffffffffffffffffffffffffffffffffffff160217905550905050600c60008273ffffffffffffffffffffffffffffffffffffffff1673ffffffffffffffffffffffffffffffffffffffff168152602001908152602001600020839080600181540180825580915050600190039060005260206000200160009091909190915090816118749190613fc7565b505050505050565b60018160ff1603611a42576000600960003373ffffffffffffffffffffffffffffffffffffffff1673ffffffffffffffffffffffffffffffffffffffff1681526020019081526020016000205414611909576040517f08c379a0000000000000000000000000000000000000000000000000000000008152600401611900906140e5565b60405180910390fd5b600754600460003373ffffffffffffffffffffffffffffffffffffffff1673ffffffffffffffffffffffffffffffffffffffff16815260200190815260200160002054101561198d576040517f08c379a000000000000000000000000000000000000000000000000000000000815260040161198490613dbd565b60405180910390fd5b600754600460003373ffffffffffffffffffffffffffffffffffffffff1673ffffffffffffffffffffffffffffffffffffffff16815260200190815260200160002060008282546119de919061398d565b92505081905550600754600960003373ffffffffffffffffffffffffffffffffffffffff1673ffffffffffffffffffffffffffffffffffffffff1681526020019081526020016000206000828254611a3691906139c1565b92505081905550611c05565b60028160ff1603611c04576000600a60003373ffffffffffffffffffffffffffffffffffffffff1673ffffffffffffffffffffffffffffffffffffffff1681526020019081526020016000205414611acf576040517f08c379a0000000000000000000000000000000000000000000000000000000008152600401611ac6906140e5565b60405180910390fd5b600854600460003373ffffffffffffffffffffffffffffffffffffffff1673ffffffffffffffffffffffffffffffffffffffff168152602001908152602001600020541015611b53576040517f08c379a0000000000000000000000000000000000000000000000000000000008152600401611b4a90613dbd565b60405180910390fd5b600854600460003373ffffffffffffffffffffffffffffffffffffffff1673ffffffffffffffffffffffffffffffffffffffff1681526020019081526020016000206000828254611ba4919061398d565b92505081905550600854600a60003373ffffffffffffffffffffffffffffffffffffffff1673ffffffffffffffffffffffffffffffffffffffff1681526020019081526020016000206000828254611bfc91906139c1565b925050819055505b5b50565b6000600460008373ffffffffffffffffffffffffffffffffffffffff1673ffffffffffffffffffffffffffffffffffffffff168152602001908152602001600020549050919050565b6000806002600684604051611c669190613a53565b908152602001604051809103902060000160149054906101000a900460ff1660ff1603611d9e57600060096000600686604051611ca39190613a53565b908152602001604051809103902060000160009054906101000a900473ffffffffffffffffffffffffffffffffffffffff1673ffffffffffffffffffffffffffffffffffffffff1673ffffffffffffffffffffffffffffffffffffffff16815260200190815260200160002054116000600a6000600687604051611d279190613a53565b908152602001604051809103902060000160009054906101000a900473ffffffffffffffffffffffffffffffffffffffff1673ffffffffffffffffffffffffffffffffffffffff1673ffffffffffffffffffffffffffffffffffffffff168152602001908152602001600020541191509150611da6565b600080915091505b915091565b611db3612f92565b600b82604051611dc39190613a53565b908152602001604051809103902060405180610140016040529081600082018054611ded9061392d565b80601f0160208091040260200160405190810160405280929190818152602001828054611e199061392d565b8015611e665780601f10611e3b57610100808354040283529160200191611e66565b820191906000526020600020905b815481529060010190602001808311611e4957829003601f168201915b505050505081526020016001820154815260200160028201548152602001600382015481526020016004820160009054906101000a900463ffffffff1663ffffffff1663ffffffff168152602001600582015481526020016006820160009054906101000a900460ff161515151581526020016006820160019054906101000a900460ff161515151581526020016006820160029054906101000a900473ffffffffffffffffffffffffffffffffffffffff1673ffffffffffffffffffffffffffffffffffffffff1673ffffffffffffffffffffffffffffffffffffffff1681526020016007820160009054906101000a900473ffffffffffffffffffffffffffffffffffffffff1673ffffffffffffffffffffffffffffffffffffffff1673ffffffffffffffffffffffffffffffffffffffff16815250509050919050565b600073ffffffffffffffffffffffffffffffffffffffff168173ffffffffffffffffffffffffffffffffffffffff1603611fdf57600080fd5b6001600683604051611ff19190613a53565b908152602001604051809103902060000160149054906101000a900460ff1660ff160361207d57806006836040516120299190613a53565b908152602001604051809103902060000160006101000a81548173ffffffffffffffffffffffffffffffffffffffff021916908373ffffffffffffffffffffffffffffffffffffffff160217905550612157565b3373ffffffffffffffffffffffffffffffffffffffff166006836040516120a49190613a53565b908152602001604051809103902060000160009054906101000a900473ffffffffffffffffffffffffffffffffffffffff1673ffffffffffffffffffffffffffffffffffffffff16146120f657600080fd5b806006836040516121079190613a53565b908152602001604051809103902060000160006101000a81548173ffffffffffffffffffffffffffffffffffffffff021916908373ffffffffffffffffffffffffffffffffffffffff1602179055505b5050565b600073ffffffffffffffffffffffffffffffffffffffff166006826040516121839190613a53565b908152602001604051809103902060000160009054906101000a900473ffffffffffffffffffffffffffffffffffffffff1673ffffffffffffffffffffffffffffffffffffffff16146121d557600080fd5b6000600960003373ffffffffffffffffffffffffffffffffffffffff1673ffffffffffffffffffffffffffffffffffffffff16815260200190815260200160002054036122d95760405180604001604052803373ffffffffffffffffffffffffffffffffffffffff168152602001600160ff1681525060068260405161225b9190613a53565b908152602001604051809103902060008201518160000160006101000a81548173ffffffffffffffffffffffffffffffffffffffff021916908373ffffffffffffffffffffffffffffffffffffffff16021790555060208201518160000160146101000a81548160ff021916908360ff160217905550905050612392565b60405180604001604052803373ffffffffffffffffffffffffffffffffffffffff168152602001600260ff168152506006826040516123189190613a53565b908152602001604051809103902060008201518160000160006101000a81548173ffffffffffffffffffffffffffffffffffffffff021916908373ffffffffffffffffffffffffffffffffffffffff16021790555060208201518160000160146101000a81548160ff021916908360ff1602179055509050505b50565b600180546123a29061392d565b80601f01602080910402602001604051908101604052809291908181526020018280546123ce9061392d565b801561241b5780601f106123f05761010080835404028352916020019161241b565b820191906000526020600020905b8154815290600101906020018083116123fe57829003601f168201915b505050505081565b6000806006836040516124369190613a53565b908152602001604051809103902060000160009054906101000a900473ffffffffffffffffffffffffffffffffffffffff166006846040516124789190613a53565b908152602001604051809103902060000160149054906101000a900460ff1691509150915091565b600081600460003373ffffffffffffffffffffffffffffffffffffffff1673ffffffffffffffffffffffffffffffffffffffff1681526020019081526020016000205410156124ee57600080fd5b81600460003373ffffffffffffffffffffffffffffffffffffffff1673ffffffffffffffffffffffffffffffffffffffff168152602001908152602001600020600082825461253d919061398d565b9250508190555081600460008573ffffffffffffffffffffffffffffffffffffffff1673ffffffffffffffffffffffffffffffffffffffff168152602001908152602001600020600082825461259391906139c1565b925050819055508273ffffffffffffffffffffffffffffffffffffffff163373ffffffffffffffffffffffffffffffffffffffff167fddf252ad1be2c89b69c2b068fc378daa952ba7f163c4a11628f55a4df523b3ef846040516125f79190613203565b60405180910390a36001905092915050565b60018160ff160361273d576000600960003373ffffffffffffffffffffffffffffffffffffffff1673ffffffffffffffffffffffffffffffffffffffff168152602001908152602001600020541161266057600080fd5b600960003373ffffffffffffffffffffffffffffffffffffffff1673ffffffffffffffffffffffffffffffffffffffff16815260200190815260200160002054600460003373ffffffffffffffffffffffffffffffffffffffff1673ffffffffffffffffffffffffffffffffffffffff16815260200190815260200160002060008282546126ee91906139c1565b92505081905550600960003373ffffffffffffffffffffffffffffffffffffffff1673ffffffffffffffffffffffffffffffffffffffff1681526020019081526020016000206000905561286e565b60028160ff160361286d576000600a60003373ffffffffffffffffffffffffffffffffffffffff1673ffffffffffffffffffffffffffffffffffffffff168152602001908152602001600020541161279457600080fd5b600a60003373ffffffffffffffffffffffffffffffffffffffff1673ffffffffffffffffffffffffffffffffffffffff16815260200190815260200160002054600460003373ffffffffffffffffffffffffffffffffffffffff1673ffffffffffffffffffffffffffffffffffffffff168152602001908152602001600020600082825461282291906139c1565b92505081905550600a60003373ffffffffffffffffffffffffffffffffffffffff1673ffffffffffffffffffffffffffffffffffffffff168152602001908152602001600020600090555b5b50565b60085481565b60075481565b6000600560008473ffffffffffffffffffffffffffffffffffffffff1673ffffffffffffffffffffffffffffffffffffffff16815260200190815260200160002060008373ffffffffffffffffffffffffffffffffffffffff1673ffffffffffffffffffffffffffffffffffffffff16815260200190815260200160002054905092915050565b6000600b826040516129169190613a53565b908152602001604051809103902060060160009054906101000a900460ff169050919050565b600060018260ff1603612994576000600960003373ffffffffffffffffffffffffffffffffffffffff1673ffffffffffffffffffffffffffffffffffffffff16815260200190815260200160002054141590506129ef565b60028260ff16036129ea576000600a60003373ffffffffffffffffffffffffffffffffffffffff1673ffffffffffffffffffffffffffffffffffffffff16815260200190815260200160002054141590506129ef565b600090505b919050565b600080600a60003373ffffffffffffffffffffffffffffffffffffffff1673ffffffffffffffffffffffffffffffffffffffff1681526020019081526020016000205414612a455760009050612ec7565b6000600c60003373ffffffffffffffffffffffffffffffffffffffff1673ffffffffffffffffffffffffffffffffffffffff168152602001908152602001600020805480602002602001604051908101604052809291908181526020016000905b82821015612b52578382906000526020600020018054612ac59061392d565b80601f0160208091040260200160405190810160405280929190818152602001828054612af19061392d565b8015612b3e5780601f10612b1357610100808354040283529160200191612b3e565b820191906000526020600020905b815481529060010190602001808311612b2157829003601f168201915b505050505081526020019060010190612aa6565b5050505090506000805b8251811015612ec057600b838281518110612b7a57612b79613c8e565b5b6020026020010151604051612b8f9190613a53565b908152602001604051809103902060060160019054906101000a900460ff16612ead57600b838281518110612bc757612bc6613c8e565b5b6020026020010151604051612bdc9190613a53565b9081526020016040518091039020600201544210612d46576000600b848381518110612c0b57612c0a613c8e565b5b6020026020010151604051612c209190613a53565b908152602001604051809103902060030154600b858481518110612c4757612c46613c8e565b5b6020026020010151604051612c5c9190613a53565b908152602001604051809103902060040160009054906101000a900463ffffffff1663ffffffff16612c8e919061398d565b905080600b858481518110612ca657612ca5613c8e565b5b6020026020010151604051612cbb9190613a53565b908152602001604051809103902060040160009054906101000a900463ffffffff1663ffffffff16600b868581518110612cf857612cf7613c8e565b5b6020026020010151604051612d0d9190613a53565b908152602001604051809103902060050154612d299190613b97565b612d339190613bc8565b83612d3e91906139c1565b925050612eac565b6000600b848381518110612d5d57612d5c613c8e565b5b6020026020010151604051612d729190613a53565b908152602001604051809103902060030154600d60009054906101000a900463ffffffff1663ffffffff16600b868581518110612db257612db1613c8e565b5b6020026020010151604051612dc79190613a53565b90815260200160405180910390206001015442612de4919061398d565b612dee9190613b97565b612df8919061398d565b905080600b858481518110612e1057612e0f613c8e565b5b6020026020010151604051612e259190613a53565b908152602001604051809103902060040160009054906101000a900463ffffffff1663ffffffff16600b868581518110612e6257612e61613c8e565b5b6020026020010151604051612e779190613a53565b908152602001604051809103902060050154612e939190613b97565b612e9d9190613bc8565b83612ea891906139c1565b9250505b5b8080612eb890613cbd565b915050612b5c565b5080925050505b90565b6000600960003373ffffffffffffffffffffffffffffffffffffffff1673ffffffffffffffffffffffffffffffffffffffff1681526020019081526020016000205411612f1657600080fd5b6001600682604051612f289190613a53565b908152602001604051809103902060000160149054906101000a900460ff1660ff1614612f5457600080fd5b6002600682604051612f669190613a53565b908152602001604051809103902060000160146101000a81548160ff021916908360ff16021790555050565b60405180610140016040528060608152602001600081526020016000815260200160008152602001600063ffffffff16815260200160008152602001600015158152602001600015158152602001600073ffffffffffffffffffffffffffffffffffffffff168152602001600073ffffffffffffffffffffffffffffffffffffffff1681525090565b600081519050919050565b600082825260208201905092915050565b60005b8381101561305557808201518184015260208101905061303a565b83811115613064576000848401525b50505050565b6000601f19601f8301169050919050565b60006130868261301b565b6130908185613026565b93506130a0818560208601613037565b6130a98161306a565b840191505092915050565b600060208201905081810360008301526130ce818461307b565b905092915050565b6000604051905090565b600080fd5b600080fd5b600073ffffffffffffffffffffffffffffffffffffffff82169050919050565b6000613115826130ea565b9050919050565b6131258161310a565b811461313057600080fd5b50565b6000813590506131428161311c565b92915050565b6000819050919050565b61315b81613148565b811461316657600080fd5b50565b60008135905061317881613152565b92915050565b60008060408385031215613195576131946130e0565b5b60006131a385828601613133565b92505060206131b485828601613169565b9150509250929050565b60008115159050919050565b6131d3816131be565b82525050565b60006020820190506131ee60008301846131ca565b92915050565b6131fd81613148565b82525050565b600060208201905061321860008301846131f4565b92915050565b600060208284031215613234576132336130e0565b5b600061324284828501613133565b91505092915050565b600081519050919050565b600082825260208201905092915050565b6000819050602082019050919050565b600082825260208201905092915050565b60006132938261301b565b61329d8185613277565b93506132ad818560208601613037565b6132b68161306a565b840191505092915050565b60006132cd8383613288565b905092915050565b6000602082019050919050565b60006132ed8261324b565b6132f78185613256565b93508360208202850161330985613267565b8060005b85811015613345578484038952815161332685826132c1565b9450613331836132d5565b925060208a0199505060018101905061330d565b50829750879550505050505092915050565b6000602082019050818103600083015261337181846132e2565b905092915050565b600080600060608486031215613392576133916130e0565b5b60006133a086828701613133565b93505060206133b186828701613133565b92505060406133c286828701613169565b9150509250925092565b600080fd5b600080fd5b7f4e487b7100000000000000000000000000000000000000000000000000000000600052604160045260246000fd5b61340e8261306a565b810181811067ffffffffffffffff8211171561342d5761342c6133d6565b5b80604052505050565b60006134406130d6565b905061344c8282613405565b919050565b600067ffffffffffffffff82111561346c5761346b6133d6565b5b6134758261306a565b9050602081019050919050565b82818337600083830152505050565b60006134a461349f84613451565b613436565b9050828152602081018484840111156134c0576134bf6133d1565b5b6134cb848285613482565b509392505050565b600082601f8301126134e8576134e76133cc565b5b81356134f8848260208601613491565b91505092915050565b600060208284031215613517576135166130e0565b5b600082013567ffffffffffffffff811115613535576135346130e5565b5b613541848285016134d3565b91505092915050565b600060ff82169050919050565b6135608161354a565b82525050565b600060208201905061357b6000830184613557565b92915050565b600063ffffffff82169050919050565b61359a81613581565b81146135a557600080fd5b50565b6000813590506135b781613591565b92915050565b600080600080600060a086880312156135d9576135d86130e0565b5b600086013567ffffffffffffffff8111156135f7576135f66130e5565b5b613603888289016134d3565b9550506020613614888289016135a8565b945050604086013567ffffffffffffffff811115613635576136346130e5565b5b613641888289016134d3565b935050606061365288828901613169565b925050608061366388828901613133565b9150509295509295909350565b6136798161354a565b811461368457600080fd5b50565b60008135905061369681613670565b92915050565b6000602082840312156136b2576136b16130e0565b5b60006136c084828501613687565b91505092915050565b60006040820190506136de60008301856131ca565b6136eb60208301846131ca565b9392505050565b6136fb81613148565b82525050565b61370a81613581565b82525050565b613719816131be565b82525050565b6137288161310a565b82525050565b600061014083016000830151848203600086015261374c8282613288565b915050602083015161376160208601826136f2565b50604083015161377460408601826136f2565b50606083015161378760608601826136f2565b50608083015161379a6080860182613701565b5060a08301516137ad60a08601826136f2565b5060c08301516137c060c0860182613710565b5060e08301516137d360e0860182613710565b506101008301516137e861010086018261371f565b506101208301516137fd61012086018261371f565b508091505092915050565b60006020820190508181036000830152613822818461372e565b905092915050565b60008060408385031215613841576138406130e0565b5b600083013567ffffffffffffffff81111561385f5761385e6130e5565b5b61386b858286016134d3565b925050602061387c85828601613133565b9150509250929050565b61388f8161310a565b82525050565b60006040820190506138aa6000830185613886565b6138b76020830184613557565b9392505050565b600080604083850312156138d5576138d46130e0565b5b60006138e385828601613133565b92505060206138f485828601613133565b9150509250929050565b7f4e487b7100000000000000000000000000000000000000000000000000000000600052602260045260246000fd5b6000600282049050600182168061394557607f821691505b602082108103613958576139576138fe565b5b50919050565b7f4e487b7100000000000000000000000000000000000000000000000000000000600052601160045260246000fd5b600061399882613148565b91506139a383613148565b9250828210156139b6576139b561395e565b5b828203905092915050565b60006139cc82613148565b91506139d783613148565b9250827fffffffffffffffffffffffffffffffffffffffffffffffffffffffffffffffff03821115613a0c57613a0b61395e565b5b828201905092915050565b600081905092915050565b6000613a2d8261301b565b613a378185613a17565b9350613a47818560208601613037565b80840191505092915050565b6000613a5f8284613a22565b915081905092915050565b7f546865206f7264657220686173206265656e2077697468647261776e00000000600082015250565b6000613aa0601c83613026565b9150613aab82613a6a565b602082019050919050565b60006020820190508181036000830152613acf81613a93565b9050919050565b7f506c6561736520636f6e6669726d207468652077616c6c65742061646472657360008201527f732c2043616e206e6f7420776974686472617700000000000000000000000000602082015250565b6000613b32603383613026565b9150613b3d82613ad6565b604082019050919050565b60006020820190508181036000830152613b6181613b25565b9050919050565b7f4e487b7100000000000000000000000000000000000000000000000000000000600052601260045260246000fd5b6000613ba282613148565b9150613bad83613148565b925082613bbd57613bbc613b68565b5b828204905092915050565b6000613bd382613148565b9150613bde83613148565b9250817fffffffffffffffffffffffffffffffffffffffffffffffffffffffffffffffff0483118215151615613c1757613c1661395e565b5b828202905092915050565b7f4e6f74206465706f736974730000000000000000000000000000000000000000600082015250565b6000613c58600c83613026565b9150613c6382613c22565b602082019050919050565b60006020820190508181036000830152613c8781613c4b565b9050919050565b7f4e487b7100000000000000000000000000000000000000000000000000000000600052603260045260246000fd5b6000613cc882613148565b91507fffffffffffffffffffffffffffffffffffffffffffffffffffffffffffffffff8203613cfa57613cf961395e565b5b600182019050919050565b7f416c726561647920706169640000000000000000000000000000000000000000600082015250565b6000613d3b600c83613026565b9150613d4682613d05565b602082019050919050565b60006020820190508181036000830152613d6a81613d2e565b9050919050565b7f4e6f7420656e6f75676820435344000000000000000000000000000000000000600082015250565b6000613da7600e83613026565b9150613db282613d71565b602082019050919050565b60006020820190508181036000830152613dd681613d9a565b9050919050565b6000613de882613581565b9150613df383613581565b92508163ffffffff0483118215151615613e1057613e0f61395e565b5b828202905092915050565b60008190508160005260206000209050919050565b60006020601f8301049050919050565b600082821b905092915050565b600060088302613e7d7fffffffffffffffffffffffffffffffffffffffffffffffffffffffffffffffff82613e40565b613e878683613e40565b95508019841693508086168417925050509392505050565b6000819050919050565b6000613ec4613ebf613eba84613148565b613e9f565b613148565b9050919050565b6000819050919050565b613ede83613ea9565b613ef2613eea82613ecb565b848454613e4d565b825550505050565b600090565b613f07613efa565b613f12818484613ed5565b505050565b5b81811015613f3657613f2b600082613eff565b600181019050613f18565b5050565b601f821115613f7b57613f4c81613e1b565b613f5584613e30565b81016020851015613f64578190505b613f78613f7085613e30565b830182613f17565b50505b505050565b600082821c905092915050565b6000613f9e60001984600802613f80565b1980831691505092915050565b6000613fb78383613f8d565b9150826002028217905092915050565b613fd08261301b565b67ffffffffffffffff811115613fe957613fe86133d6565b5b613ff3825461392d565b613ffe828285613f3a565b600060209050601f831160018114614031576000841561401f578287015190505b6140298582613fab565b865550614091565b601f19841661403f86613e1b565b60005b8281101561406757848901518255600182019150602085019450602081019050614042565b868310156140845784890151614080601f891682613f8d565b8355505b6001600288020188555050505b505050505050565b7f416c7265616479207374616b6564000000000000000000000000000000000000600082015250565b60006140cf600e83613026565b91506140da82614099565b602082019050919050565b600060208201905081810360008301526140fe816140c2565b905091905056fea2646970667358221220d1870c12f44e1e699ee18d0dc9021ecc21b8ce63df1f10f89fd9b124c2ea0d0764736f6c634300080f0033",
  "linkReferences": {},
  "deployedLinkReferences": {}
}