{
  "_format": "hh-sol-artifact-1",
  "contractName": "CloudSlit",
  "sourceName": "contracts/CloudSlit.sol",
  "abi": [
    {
      "inputs": [],
      "stateMutability": "nonpayable",
      "type": "constructor"
    },
    {
      "anonymous": false,
      "inputs": [
        {
          "indexed": true,
          "internalType": "address",
          "name": "owner",
          "type": "address"
        },
        {
          "indexed": true,
          "internalType": "address",
          "name": "spender",
          "type": "address"
        },
        {
          "indexed": false,
          "internalType": "uint256",
          "name": "value",
          "type": "uint256"
        }
      ],
      "name": "Approval",
      "type": "event"
    },
    {
      "anonymous": false,
      "inputs": [
        {
          "indexed": true,
          "internalType": "address",
          "name": "from",
          "type": "address"
        },
        {
          "indexed": true,
          "internalType": "address",
          "name": "to",
          "type": "address"
        },
        {
          "indexed": false,
          "internalType": "uint256",
          "name": "value",
          "type": "uint256"
        }
      ],
      "name": "Transfer",
      "type": "event"
    },
    {
      "inputs": [
        {
          "internalType": "address",
          "name": "owner",
          "type": "address"
        },
        {
          "internalType": "address",
          "name": "spender",
          "type": "address"
        }
      ],
      "name": "allowance",
      "outputs": [
        {
          "internalType": "uint256",
          "name": "",
          "type": "uint256"
        }
      ],
      "stateMutability": "view",
      "type": "function"
    },
    {
      "inputs": [
        {
          "internalType": "address",
          "name": "spender",
          "type": "address"
        },
        {
          "internalType": "uint256",
          "name": "value",
          "type": "uint256"
        }
      ],
      "name": "approve",
      "outputs": [
        {
          "internalType": "bool",
          "name": "",
          "type": "bool"
        }
      ],
      "stateMutability": "nonpayable",
      "type": "function"
    },
    {
      "inputs": [
        {
          "internalType": "address",
          "name": "account",
          "type": "address"
        }
      ],
      "name": "balanceOf",
      "outputs": [
        {
          "internalType": "uint256",
          "name": "",
          "type": "uint256"
        }
      ],
      "stateMutability": "view",
      "type": "function"
    },
    {
      "inputs": [
        {
          "internalType": "string",
          "name": "uuid",
          "type": "string"
        }
      ],
      "name": "bindWallet",
      "outputs": [],
      "stateMutability": "nonpayable",
      "type": "function"
    },
    {
      "inputs": [
        {
          "internalType": "string",
          "name": "uuid",
          "type": "string"
        },
        {
          "internalType": "address",
          "name": "newWallet",
          "type": "address"
        }
      ],
      "name": "changeWallet",
      "outputs": [],
      "stateMutability": "nonpayable",
      "type": "function"
    },
    {
      "inputs": [
        {
          "internalType": "string",
          "name": "_orderId",
          "type": "string"
        }
      ],
      "name": "checkOrder",
      "outputs": [
        {
          "internalType": "bool",
          "name": "",
          "type": "bool"
        }
      ],
      "stateMutability": "view",
      "type": "function"
    },
    {
      "inputs": [
        {
          "internalType": "string",
          "name": "_name",
          "type": "string"
        },
        {
          "internalType": "uint32",
          "name": "_duration",
          "type": "uint32"
        },
        {
          "internalType": "string",
          "name": "_orderId",
          "type": "string"
        },
        {
          "internalType": "uint256",
          "name": "_price",
          "type": "uint256"
        },
        {
          "internalType": "address",
          "name": "_to",
          "type": "address"
        }
      ],
      "name": "clientOrder",
      "outputs": [],
      "stateMutability": "nonpayable",
      "type": "function"
    },
    {
      "inputs": [],
      "name": "decimals",
      "outputs": [
        {
          "internalType": "uint8",
          "name": "",
          "type": "uint8"
        }
      ],
      "stateMutability": "view",
      "type": "function"
    },
    {
      "inputs": [],
      "name": "fullnodeDepositAmount",
      "outputs": [
        {
          "internalType": "uint256",
          "name": "",
          "type": "uint256"
        }
      ],
      "stateMutability": "view",
      "type": "function"
    },
    {
      "inputs": [
        {
          "internalType": "address",
          "name": "from",
          "type": "address"
        }
      ],
      "name": "getPrivoderOrders",
      "outputs": [
        {
          "internalType": "string[]",
          "name": "",
          "type": "string[]"
        }
      ],
      "stateMutability": "view",
      "type": "function"
    },
    {
      "inputs": [
        {
          "internalType": "string",
          "name": "uuid",
          "type": "string"
        }
      ],
      "name": "getUserInfo",
      "outputs": [
        {
          "internalType": "bool",
          "name": "",
          "type": "bool"
        },
        {
          "internalType": "bool",
          "name": "",
          "type": "bool"
        }
      ],
      "stateMutability": "view",
      "type": "function"
    },
    {
      "inputs": [
        {
          "internalType": "string",
          "name": "uuid",
          "type": "string"
        }
      ],
      "name": "getWallet",
      "outputs": [
        {
          "internalType": "address",
          "name": "",
          "type": "address"
        },
        {
          "internalType": "uint8",
          "name": "",
          "type": "uint8"
        }
      ],
      "stateMutability": "view",
      "type": "function"
    },
    {
      "inputs": [
        {
          "internalType": "uint8",
          "name": "_type",
          "type": "uint8"
        }
      ],
      "name": "isDeposit",
      "outputs": [
        {
          "internalType": "bool",
          "name": "",
          "type": "bool"
        }
      ],
      "stateMutability": "view",
      "type": "function"
    },
    {
      "inputs": [],
      "name": "name",
      "outputs": [
        {
          "internalType": "string",
          "name": "",
          "type": "string"
        }
      ],
      "stateMutability": "view",
      "type": "function"
    },
    {
      "inputs": [],
      "name": "privoderDepositAmount",
      "outputs": [
        {
          "internalType": "uint256",
          "name": "",
          "type": "uint256"
        }
      ],
      "stateMutability": "view",
      "type": "function"
    },
    {
      "inputs": [
        {
          "internalType": "uint8",
          "name": "_type",
          "type": "uint8"
        }
      ],
      "name": "stake",
      "outputs": [],
      "stateMutability": "nonpayable",
      "type": "function"
    },
    {
      "inputs": [],
      "name": "symbol",
      "outputs": [
        {
          "internalType": "string",
          "name": "",
          "type": "string"
        }
      ],
      "stateMutability": "view",
      "type": "function"
    },
    {
      "inputs": [],
      "name": "totalSupply",
      "outputs": [
        {
          "internalType": "uint256",
          "name": "",
          "type": "uint256"
        }
      ],
      "stateMutability": "view",
      "type": "function"
    },
    {
      "inputs": [
        {
          "internalType": "address",
          "name": "to",
          "type": "address"
        },
        {
          "internalType": "uint256",
          "name": "value",
          "type": "uint256"
        }
      ],
      "name": "transfer",
      "outputs": [
        {
          "internalType": "bool",
          "name": "",
          "type": "bool"
        }
      ],
      "stateMutability": "nonpayable",
      "type": "function"
    },
    {
      "inputs": [
        {
          "internalType": "address",
          "name": "from",
          "type": "address"
        },
        {
          "internalType": "address",
          "name": "to",
          "type": "address"
        },
        {
          "internalType": "uint256",
          "name": "value",
          "type": "uint256"
        }
      ],
      "name": "transferFrom",
      "outputs": [
        {
          "internalType": "bool",
          "name": "",
          "type": "bool"
        }
      ],
      "stateMutability": "nonpayable",
      "type": "function"
    },
    {
      "inputs": [
        {
          "internalType": "string",
          "name": "uuid",
          "type": "string"
        }
      ],
      "name": "verifyWallet",
      "outputs": [],
      "stateMutability": "nonpayable",
      "type": "function"
    },
    {
      "inputs": [
        {
          "internalType": "uint8",
          "name": "_type",
          "type": "uint8"
        }
      ],
      "name": "withdraw",
      "outputs": [],
      "stateMutability": "nonpayable",
      "type": "function"
    },
    {
      "inputs": [],
      "name": "withdrawAllOrderTokens",
      "outputs": [],
      "stateMutability": "nonpayable",
      "type": "function"
    },
    {
      "inputs": [
        {
          "internalType": "string",
          "name": "_orderId",
          "type": "string"
        }
      ],
      "name": "withdrawOrderTokens",
      "outputs": [],
      "stateMutability": "nonpayable",
      "type": "function"
    }
  ],
  "bytecode": "0x60806040526040518060400160405280600d81526020017f436c6f7564536c69742044616f00000000000000000000000000000000000000815250600090816200004a9190620003b7565b506040518060400160405280600381526020017f435344000000000000000000000000000000000000000000000000000000000081525060019081620000919190620003b7565b506000600260006101000a81548160ff021916908360ff160217905550620f42406003556113886007556103e8600855603c600d60006101000a81548163ffffffff021916908363ffffffff160217905550348015620000f057600080fd5b50600354600460003373ffffffffffffffffffffffffffffffffffffffff1673ffffffffffffffffffffffffffffffffffffffff168152602001908152602001600020819055506200049e565b600081519050919050565b7f4e487b7100000000000000000000000000000000000000000000000000000000600052604160045260246000fd5b7f4e487b7100000000000000000000000000000000000000000000000000000000600052602260045260246000fd5b60006002820490506001821680620001bf57607f821691505b602082108103620001d557620001d462000177565b5b50919050565b60008190508160005260206000209050919050565b60006020601f8301049050919050565b600082821b905092915050565b6000600883026200023f7fffffffffffffffffffffffffffffffffffffffffffffffffffffffffffffffff8262000200565b6200024b868362000200565b95508019841693508086168417925050509392505050565b6000819050919050565b6000819050919050565b600062000298620002926200028c8462000263565b6200026d565b62000263565b9050919050565b6000819050919050565b620002b48362000277565b620002cc620002c3826200029f565b8484546200020d565b825550505050565b600090565b620002e3620002d4565b620002f0818484620002a9565b505050565b5b8181101562000318576200030c600082620002d9565b600181019050620002f6565b5050565b601f82111562000367576200033181620001db565b6200033c84620001f0565b810160208510156200034c578190505b620003646200035b85620001f0565b830182620002f5565b50505b505050565b600082821c905092915050565b60006200038c600019846008026200036c565b1980831691505092915050565b6000620003a7838362000379565b9150826002028217905092915050565b620003c2826200013d565b67ffffffffffffffff811115620003de57620003dd62000148565b5b620003ea8254620001a6565b620003f78282856200031c565b600060209050601f8311600181146200042f57600084156200041a578287015190505b62000426858262000399565b86555062000496565b601f1984166200043f86620001db565b60005b82811015620004695784890151825560018201915060208501945060208101905062000442565b8683101562000489578489015162000485601f89168262000379565b8355505b6001600288020188555050505b505050505050565b6137b480620004ae6000396000f3fe608060405234801561001057600080fd5b50600436106101585760003560e01c806387a858d2116100c3578063cd74c0a71161007c578063cd74c0a7146103d9578063d35b1ac2146103f7578063dd62ed3e14610415578063dd6887ed14610445578063f276b8aa14610475578063ffc2c9b7146104a557610158565b806387a858d2146103065780638ec012b91461032257806395d89b411461033e578063a4e2df661461035c578063a9059cbb1461038d578063c6ab5d90146103bd57610158565b806327a0b34a1161011557806327a0b34a14610245578063313ce5671461024f5780635c9abe111461026d578063604f21771461028957806370a08231146102a55780637c9b7fdd146102d557610158565b806306fdde031461015d578063095ea7b31461017b57806318160ddd146101ab578063183dd1cd146101c957806323b872dd146101f957806325cfedb514610229575b600080fd5b6101656104c1565b60405161017291906128a0565b60405180910390f35b6101956004803603810190610190919061296a565b61054f565b6040516101a291906129c5565b60405180910390f35b6101b3610641565b6040516101c091906129ef565b60405180910390f35b6101e360048036038101906101de9190612a0a565b610647565b6040516101f09190612b43565b60405180910390f35b610213600480360381019061020e9190612b65565b61075f565b60405161022091906129c5565b60405180910390f35b610243600480360381019061023e9190612ced565b6109e5565b005b61024d610e24565b005b6102576113ec565b6040516102649190612d52565b60405180910390f35b61028760048036038101906102829190612da9565b6113ff565b005b6102a3600480360381019061029e9190612e88565b6117c2565b005b6102bf60048036038101906102ba9190612a0a565b611b4e565b6040516102cc91906129ef565b60405180910390f35b6102ef60048036038101906102ea9190612ced565b611b97565b6040516102fd929190612eb5565b60405180910390f35b610320600480360381019061031b9190612ede565b611cf1565b005b61033c60048036038101906103379190612ced565b611ea6565b005b6103466120e0565b60405161035391906128a0565b60405180910390f35b61037660048036038101906103719190612ced565b61216e565b604051610384929190612f49565b60405180910390f35b6103a760048036038101906103a2919061296a565b6121eb565b6040516103b491906129c5565b60405180910390f35b6103d760048036038101906103d29190612e88565b612354565b005b6103e16125bc565b6040516103ee91906129ef565b60405180910390f35b6103ff6125c2565b60405161040c91906129ef565b60405180910390f35b61042f600480360381019061042a9190612f72565b6125c8565b60405161043c91906129ef565b60405180910390f35b61045f600480360381019061045a9190612ced565b61264f565b60405161046c91906129c5565b60405180910390f35b61048f600480360381019061048a9190612e88565b612687565b60405161049c91906129c5565b60405180910390f35b6104bf60048036038101906104ba9190612ced565b61273f565b005b600080546104ce90612fe1565b80601f01602080910402602001604051908101604052809291908181526020018280546104fa90612fe1565b80156105475780601f1061051c57610100808354040283529160200191610547565b820191906000526020600020905b81548152906001019060200180831161052a57829003601f168201915b505050505081565b600081600560003373ffffffffffffffffffffffffffffffffffffffff1673ffffffffffffffffffffffffffffffffffffffff16815260200190815260200160002060008573ffffffffffffffffffffffffffffffffffffffff1673ffffffffffffffffffffffffffffffffffffffff168152602001908152602001600020819055508273ffffffffffffffffffffffffffffffffffffffff163373ffffffffffffffffffffffffffffffffffffffff167f8c5be1e5ebec7d5bd14f71427d1e84f3dd0314c0f7b2291e5b200ac8c7c3b9258460405161062f91906129ef565b60405180910390a36001905092915050565b60035481565b6060600c60008373ffffffffffffffffffffffffffffffffffffffff1673ffffffffffffffffffffffffffffffffffffffff168152602001908152602001600020805480602002602001604051908101604052809291908181526020016000905b828210156107545783829060005260206000200180546106c790612fe1565b80601f01602080910402602001604051908101604052809291908181526020018280546106f390612fe1565b80156107405780601f1061071557610100808354040283529160200191610740565b820191906000526020600020905b81548152906001019060200180831161072357829003601f168201915b5050505050815260200190600101906106a8565b505050509050919050565b600081600460008673ffffffffffffffffffffffffffffffffffffffff1673ffffffffffffffffffffffffffffffffffffffff1681526020019081526020016000205410156107ad57600080fd5b81600560008673ffffffffffffffffffffffffffffffffffffffff1673ffffffffffffffffffffffffffffffffffffffff16815260200190815260200160002060003373ffffffffffffffffffffffffffffffffffffffff1673ffffffffffffffffffffffffffffffffffffffff16815260200190815260200160002054101561083657600080fd5b81600460008673ffffffffffffffffffffffffffffffffffffffff1673ffffffffffffffffffffffffffffffffffffffff16815260200190815260200160002060008282546108859190613041565b9250508190555081600560008673ffffffffffffffffffffffffffffffffffffffff1673ffffffffffffffffffffffffffffffffffffffff16815260200190815260200160002060003373ffffffffffffffffffffffffffffffffffffffff1673ffffffffffffffffffffffffffffffffffffffff16815260200190815260200160002060008282546109189190613041565b9250508190555081600460008573ffffffffffffffffffffffffffffffffffffffff1673ffffffffffffffffffffffffffffffffffffffff168152602001908152602001600020600082825461096e9190613075565b925050819055508273ffffffffffffffffffffffffffffffffffffffff168473ffffffffffffffffffffffffffffffffffffffff167fddf252ad1be2c89b69c2b068fc378daa952ba7f163c4a11628f55a4df523b3ef846040516109d291906129ef565b60405180910390a3600190509392505050565b600b816040516109f59190613107565b908152602001604051809103902060060160019054906101000a900460ff1615610a54576040517f08c379a0000000000000000000000000000000000000000000000000000000008152600401610a4b9061316a565b60405180910390fd5b3373ffffffffffffffffffffffffffffffffffffffff16600b82604051610a7b9190613107565b908152602001604051809103902060070160009054906101000a900473ffffffffffffffffffffffffffffffffffffffff1673ffffffffffffffffffffffffffffffffffffffff1614610b03576040517f08c379a0000000000000000000000000000000000000000000000000000000008152600401610afa906131fc565b60405180910390fd5b600b81604051610b139190613107565b9081526020016040518091039020600201544210610c9d576001600b82604051610b3d9190613107565b908152602001604051809103902060060160016101000a81548160ff0219169083151502179055506000600b82604051610b779190613107565b908152602001604051809103902060030154600b83604051610b999190613107565b908152602001604051809103902060040160009054906101000a900463ffffffff1663ffffffff16610bcb9190613041565b9050600081600b84604051610be09190613107565b908152602001604051809103902060040160009054906101000a900463ffffffff1663ffffffff16600b85604051610c189190613107565b908152602001604051809103902060050154610c34919061324b565b610c3e919061327c565b905080600460003373ffffffffffffffffffffffffffffffffffffffff1673ffffffffffffffffffffffffffffffffffffffff1681526020019081526020016000206000828254610c8f9190613075565b925050819055505050610e21565b6000600b82604051610caf9190613107565b908152602001604051809103902060030154600d60009054906101000a900463ffffffff1663ffffffff16600b84604051610cea9190613107565b90815260200160405180910390206001015442610d079190613041565b610d1191906132d6565b610d1b9190613041565b905080600b83604051610d2e9190613107565b90815260200160405180910390206003016000828254610d4e9190613075565b92505081905550600081600b84604051610d689190613107565b908152602001604051809103902060040160009054906101000a900463ffffffff1663ffffffff16600b85604051610da09190613107565b908152602001604051809103902060050154610dbc919061324b565b610dc6919061327c565b905080600460003373ffffffffffffffffffffffffffffffffffffffff1673ffffffffffffffffffffffffffffffffffffffff1681526020019081526020016000206000828254610e179190613075565b9250508190555050505b50565b6000600a60003373ffffffffffffffffffffffffffffffffffffffff1673ffffffffffffffffffffffffffffffffffffffff1681526020019081526020016000205403610e7057600080fd5b6000600c60003373ffffffffffffffffffffffffffffffffffffffff1673ffffffffffffffffffffffffffffffffffffffff168152602001908152602001600020805480602002602001604051908101604052809291908181526020016000905b82821015610f7d578382906000526020600020018054610ef090612fe1565b80601f0160208091040260200160405190810160405280929190818152602001828054610f1c90612fe1565b8015610f695780601f10610f3e57610100808354040283529160200191610f69565b820191906000526020600020905b815481529060010190602001808311610f4c57829003601f168201915b505050505081526020019060010190610ed1565b5050505090506000805b825181101561139157600b838281518110610fa557610fa4613307565b5b6020026020010151604051610fba9190613107565b908152602001604051809103902060060160019054906101000a900460ff1661137e57600b838281518110610ff257610ff1613307565b5b60200260200101516040516110079190613107565b90815260200160405180910390206002015442106111c5576001600b84838151811061103657611035613307565b5b602002602001015160405161104b9190613107565b908152602001604051809103902060060160016101000a81548160ff0219169083151502179055506000600b84838151811061108a57611089613307565b5b602002602001015160405161109f9190613107565b908152602001604051809103902060030154600b8584815181106110c6576110c5613307565b5b60200260200101516040516110db9190613107565b908152602001604051809103902060040160009054906101000a900463ffffffff1663ffffffff1661110d9190613041565b905080600b85848151811061112557611124613307565b5b602002602001015160405161113a9190613107565b908152602001604051809103902060040160009054906101000a900463ffffffff1663ffffffff16600b86858151811061117757611176613307565b5b602002602001015160405161118c9190613107565b9081526020016040518091039020600501546111a8919061324b565b6111b2919061327c565b836111bd9190613075565b92505061137d565b6000600b8483815181106111dc576111db613307565b5b60200260200101516040516111f19190613107565b908152602001604051809103902060030154600d60009054906101000a900463ffffffff1663ffffffff16600b86858151811061123157611230613307565b5b60200260200101516040516112469190613107565b908152602001604051809103902060010154426112639190613041565b61126d91906132d6565b6112779190613041565b905080600b85848151811061128f5761128e613307565b5b60200260200101516040516112a49190613107565b908152602001604051809103902060030160008282546112c49190613075565b9250508190555080600b8584815181106112e1576112e0613307565b5b60200260200101516040516112f69190613107565b908152602001604051809103902060040160009054906101000a900463ffffffff1663ffffffff16600b86858151811061133357611332613307565b5b60200260200101516040516113489190613107565b908152602001604051809103902060050154611364919061324b565b61136e919061327c565b836113799190613075565b9250505b5b808061138990613336565b915050610f87565b5080600460003373ffffffffffffffffffffffffffffffffffffffff1673ffffffffffffffffffffffffffffffffffffffff16815260200190815260200160002060008282546113e19190613075565b925050819055505050565b600260009054906101000a900460ff1681565b600b8360405161140f9190613107565b908152602001604051809103902060060160009054906101000a900460ff161561146e576040517f08c379a0000000000000000000000000000000000000000000000000000000008152600401611465906133ca565b60405180910390fd5b81600460003373ffffffffffffffffffffffffffffffffffffffff1673ffffffffffffffffffffffffffffffffffffffff1681526020019081526020016000205410156114f0576040517f08c379a00000000000000000000000000000000000000000000000000000000081526004016114e790613436565b60405180910390fd5b81600460003373ffffffffffffffffffffffffffffffffffffffff1673ffffffffffffffffffffffffffffffffffffffff168152602001908152602001600020600082825461153f9190613041565b92505081905550604051806101400160405280868152602001428152602001600d60009054906101000a900463ffffffff168661157c9190613456565b63ffffffff164261158d9190613075565b8152602001600081526020018563ffffffff1681526020018381526020016001151581526020016000151581526020013373ffffffffffffffffffffffffffffffffffffffff1681526020018273ffffffffffffffffffffffffffffffffffffffff16815250600b846040516116039190613107565b908152602001604051809103902060008201518160000190816116269190613640565b5060208201518160010155604082015181600201556060820151816003015560808201518160040160006101000a81548163ffffffff021916908363ffffffff16021790555060a0820151816005015560c08201518160060160006101000a81548160ff02191690831515021790555060e08201518160060160016101000a81548160ff0219169083151502179055506101008201518160060160026101000a81548173ffffffffffffffffffffffffffffffffffffffff021916908373ffffffffffffffffffffffffffffffffffffffff1602179055506101208201518160070160006101000a81548173ffffffffffffffffffffffffffffffffffffffff021916908373ffffffffffffffffffffffffffffffffffffffff160217905550905050600c60008273ffffffffffffffffffffffffffffffffffffffff1673ffffffffffffffffffffffffffffffffffffffff168152602001908152602001600020839080600181540180825580915050600190039060005260206000200160009091909190915090816117ba9190613640565b505050505050565b60018160ff1603611988576000600960003373ffffffffffffffffffffffffffffffffffffffff1673ffffffffffffffffffffffffffffffffffffffff168152602001908152602001600020541461184f576040517f08c379a00000000000000000000000000000000000000000000000000000000081526004016118469061375e565b60405180910390fd5b600754600460003373ffffffffffffffffffffffffffffffffffffffff1673ffffffffffffffffffffffffffffffffffffffff1681526020019081526020016000205410156118d3576040517f08c379a00000000000000000000000000000000000000000000000000000000081526004016118ca90613436565b60405180910390fd5b600754600460003373ffffffffffffffffffffffffffffffffffffffff1673ffffffffffffffffffffffffffffffffffffffff16815260200190815260200160002060008282546119249190613041565b92505081905550600754600960003373ffffffffffffffffffffffffffffffffffffffff1673ffffffffffffffffffffffffffffffffffffffff168152602001908152602001600020600082825461197c9190613075565b92505081905550611b4b565b60028160ff1603611b4a576000600a60003373ffffffffffffffffffffffffffffffffffffffff1673ffffffffffffffffffffffffffffffffffffffff1681526020019081526020016000205414611a15576040517f08c379a0000000000000000000000000000000000000000000000000000000008152600401611a0c9061375e565b60405180910390fd5b600854600460003373ffffffffffffffffffffffffffffffffffffffff1673ffffffffffffffffffffffffffffffffffffffff168152602001908152602001600020541015611a99576040517f08c379a0000000000000000000000000000000000000000000000000000000008152600401611a9090613436565b60405180910390fd5b600854600460003373ffffffffffffffffffffffffffffffffffffffff1673ffffffffffffffffffffffffffffffffffffffff1681526020019081526020016000206000828254611aea9190613041565b92505081905550600854600a60003373ffffffffffffffffffffffffffffffffffffffff1673ffffffffffffffffffffffffffffffffffffffff1681526020019081526020016000206000828254611b429190613075565b925050819055505b5b50565b6000600460008373ffffffffffffffffffffffffffffffffffffffff1673ffffffffffffffffffffffffffffffffffffffff168152602001908152602001600020549050919050565b6000806002600684604051611bac9190613107565b908152602001604051809103902060000160149054906101000a900460ff1660ff1603611ce457600060096000600686604051611be99190613107565b908152602001604051809103902060000160009054906101000a900473ffffffffffffffffffffffffffffffffffffffff1673ffffffffffffffffffffffffffffffffffffffff1673ffffffffffffffffffffffffffffffffffffffff16815260200190815260200160002054116000600a6000600687604051611c6d9190613107565b908152602001604051809103902060000160009054906101000a900473ffffffffffffffffffffffffffffffffffffffff1673ffffffffffffffffffffffffffffffffffffffff1673ffffffffffffffffffffffffffffffffffffffff168152602001908152602001600020541191509150611cec565b600080915091505b915091565b600073ffffffffffffffffffffffffffffffffffffffff168173ffffffffffffffffffffffffffffffffffffffff1603611d2a57600080fd5b6001600683604051611d3c9190613107565b908152602001604051809103902060000160149054906101000a900460ff1660ff1603611dc85780600683604051611d749190613107565b908152602001604051809103902060000160006101000a81548173ffffffffffffffffffffffffffffffffffffffff021916908373ffffffffffffffffffffffffffffffffffffffff160217905550611ea2565b3373ffffffffffffffffffffffffffffffffffffffff16600683604051611def9190613107565b908152602001604051809103902060000160009054906101000a900473ffffffffffffffffffffffffffffffffffffffff1673ffffffffffffffffffffffffffffffffffffffff1614611e4157600080fd5b80600683604051611e529190613107565b908152602001604051809103902060000160006101000a81548173ffffffffffffffffffffffffffffffffffffffff021916908373ffffffffffffffffffffffffffffffffffffffff1602179055505b5050565b600073ffffffffffffffffffffffffffffffffffffffff16600682604051611ece9190613107565b908152602001604051809103902060000160009054906101000a900473ffffffffffffffffffffffffffffffffffffffff1673ffffffffffffffffffffffffffffffffffffffff1614611f2057600080fd5b6000600960003373ffffffffffffffffffffffffffffffffffffffff1673ffffffffffffffffffffffffffffffffffffffff16815260200190815260200160002054036120245760405180604001604052803373ffffffffffffffffffffffffffffffffffffffff168152602001600160ff16815250600682604051611fa69190613107565b908152602001604051809103902060008201518160000160006101000a81548173ffffffffffffffffffffffffffffffffffffffff021916908373ffffffffffffffffffffffffffffffffffffffff16021790555060208201518160000160146101000a81548160ff021916908360ff1602179055509050506120dd565b60405180604001604052803373ffffffffffffffffffffffffffffffffffffffff168152602001600260ff168152506006826040516120639190613107565b908152602001604051809103902060008201518160000160006101000a81548173ffffffffffffffffffffffffffffffffffffffff021916908373ffffffffffffffffffffffffffffffffffffffff16021790555060208201518160000160146101000a81548160ff021916908360ff1602179055509050505b50565b600180546120ed90612fe1565b80601f016020809104026020016040519081016040528092919081815260200182805461211990612fe1565b80156121665780601f1061213b57610100808354040283529160200191612166565b820191906000526020600020905b81548152906001019060200180831161214957829003601f168201915b505050505081565b6000806006836040516121819190613107565b908152602001604051809103902060000160009054906101000a900473ffffffffffffffffffffffffffffffffffffffff166006846040516121c39190613107565b908152602001604051809103902060000160149054906101000a900460ff1691509150915091565b600081600460003373ffffffffffffffffffffffffffffffffffffffff1673ffffffffffffffffffffffffffffffffffffffff16815260200190815260200160002054101561223957600080fd5b81600460003373ffffffffffffffffffffffffffffffffffffffff1673ffffffffffffffffffffffffffffffffffffffff16815260200190815260200160002060008282546122889190613041565b9250508190555081600460008573ffffffffffffffffffffffffffffffffffffffff1673ffffffffffffffffffffffffffffffffffffffff16815260200190815260200160002060008282546122de9190613075565b925050819055508273ffffffffffffffffffffffffffffffffffffffff163373ffffffffffffffffffffffffffffffffffffffff167fddf252ad1be2c89b69c2b068fc378daa952ba7f163c4a11628f55a4df523b3ef8460405161234291906129ef565b60405180910390a36001905092915050565b60018160ff1603612488576000600960003373ffffffffffffffffffffffffffffffffffffffff1673ffffffffffffffffffffffffffffffffffffffff16815260200190815260200160002054116123ab57600080fd5b600960003373ffffffffffffffffffffffffffffffffffffffff1673ffffffffffffffffffffffffffffffffffffffff16815260200190815260200160002054600460003373ffffffffffffffffffffffffffffffffffffffff1673ffffffffffffffffffffffffffffffffffffffff16815260200190815260200160002060008282546124399190613075565b92505081905550600960003373ffffffffffffffffffffffffffffffffffffffff1673ffffffffffffffffffffffffffffffffffffffff168152602001908152602001600020600090556125b9565b60028160ff16036125b8576000600a60003373ffffffffffffffffffffffffffffffffffffffff1673ffffffffffffffffffffffffffffffffffffffff16815260200190815260200160002054116124df57600080fd5b600a60003373ffffffffffffffffffffffffffffffffffffffff1673ffffffffffffffffffffffffffffffffffffffff16815260200190815260200160002054600460003373ffffffffffffffffffffffffffffffffffffffff1673ffffffffffffffffffffffffffffffffffffffff168152602001908152602001600020600082825461256d9190613075565b92505081905550600a60003373ffffffffffffffffffffffffffffffffffffffff1673ffffffffffffffffffffffffffffffffffffffff168152602001908152602001600020600090555b5b50565b60085481565b60075481565b6000600560008473ffffffffffffffffffffffffffffffffffffffff1673ffffffffffffffffffffffffffffffffffffffff16815260200190815260200160002060008373ffffffffffffffffffffffffffffffffffffffff1673ffffffffffffffffffffffffffffffffffffffff16815260200190815260200160002054905092915050565b6000600b826040516126619190613107565b908152602001604051809103902060060160009054906101000a900460ff169050919050565b600060018260ff16036126df576000600960003373ffffffffffffffffffffffffffffffffffffffff1673ffffffffffffffffffffffffffffffffffffffff168152602001908152602001600020541415905061273a565b60028260ff1603612735576000600a60003373ffffffffffffffffffffffffffffffffffffffff1673ffffffffffffffffffffffffffffffffffffffff168152602001908152602001600020541415905061273a565b600090505b919050565b6000600960003373ffffffffffffffffffffffffffffffffffffffff1673ffffffffffffffffffffffffffffffffffffffff168152602001908152602001600020541161278b57600080fd5b600160068260405161279d9190613107565b908152602001604051809103902060000160149054906101000a900460ff1660ff16146127c957600080fd5b60026006826040516127db9190613107565b908152602001604051809103902060000160146101000a81548160ff021916908360ff16021790555050565b600081519050919050565b600082825260208201905092915050565b60005b83811015612841578082015181840152602081019050612826565b83811115612850576000848401525b50505050565b6000601f19601f8301169050919050565b600061287282612807565b61287c8185612812565b935061288c818560208601612823565b61289581612856565b840191505092915050565b600060208201905081810360008301526128ba8184612867565b905092915050565b6000604051905090565b600080fd5b600080fd5b600073ffffffffffffffffffffffffffffffffffffffff82169050919050565b6000612901826128d6565b9050919050565b612911816128f6565b811461291c57600080fd5b50565b60008135905061292e81612908565b92915050565b6000819050919050565b61294781612934565b811461295257600080fd5b50565b6000813590506129648161293e565b92915050565b60008060408385031215612981576129806128cc565b5b600061298f8582860161291f565b92505060206129a085828601612955565b9150509250929050565b60008115159050919050565b6129bf816129aa565b82525050565b60006020820190506129da60008301846129b6565b92915050565b6129e981612934565b82525050565b6000602082019050612a0460008301846129e0565b92915050565b600060208284031215612a2057612a1f6128cc565b5b6000612a2e8482850161291f565b91505092915050565b600081519050919050565b600082825260208201905092915050565b6000819050602082019050919050565b600082825260208201905092915050565b6000612a7f82612807565b612a898185612a63565b9350612a99818560208601612823565b612aa281612856565b840191505092915050565b6000612ab98383612a74565b905092915050565b6000602082019050919050565b6000612ad982612a37565b612ae38185612a42565b935083602082028501612af585612a53565b8060005b85811015612b315784840389528151612b128582612aad565b9450612b1d83612ac1565b925060208a01995050600181019050612af9565b50829750879550505050505092915050565b60006020820190508181036000830152612b5d8184612ace565b905092915050565b600080600060608486031215612b7e57612b7d6128cc565b5b6000612b8c8682870161291f565b9350506020612b9d8682870161291f565b9250506040612bae86828701612955565b9150509250925092565b600080fd5b600080fd5b7f4e487b7100000000000000000000000000000000000000000000000000000000600052604160045260246000fd5b612bfa82612856565b810181811067ffffffffffffffff82111715612c1957612c18612bc2565b5b80604052505050565b6000612c2c6128c2565b9050612c388282612bf1565b919050565b600067ffffffffffffffff821115612c5857612c57612bc2565b5b612c6182612856565b9050602081019050919050565b82818337600083830152505050565b6000612c90612c8b84612c3d565b612c22565b905082815260208101848484011115612cac57612cab612bbd565b5b612cb7848285612c6e565b509392505050565b600082601f830112612cd457612cd3612bb8565b5b8135612ce4848260208601612c7d565b91505092915050565b600060208284031215612d0357612d026128cc565b5b600082013567ffffffffffffffff811115612d2157612d206128d1565b5b612d2d84828501612cbf565b91505092915050565b600060ff82169050919050565b612d4c81612d36565b82525050565b6000602082019050612d676000830184612d43565b92915050565b600063ffffffff82169050919050565b612d8681612d6d565b8114612d9157600080fd5b50565b600081359050612da381612d7d565b92915050565b600080600080600060a08688031215612dc557612dc46128cc565b5b600086013567ffffffffffffffff811115612de357612de26128d1565b5b612def88828901612cbf565b9550506020612e0088828901612d94565b945050604086013567ffffffffffffffff811115612e2157612e206128d1565b5b612e2d88828901612cbf565b9350506060612e3e88828901612955565b9250506080612e4f8882890161291f565b9150509295509295909350565b612e6581612d36565b8114612e7057600080fd5b50565b600081359050612e8281612e5c565b92915050565b600060208284031215612e9e57612e9d6128cc565b5b6000612eac84828501612e73565b91505092915050565b6000604082019050612eca60008301856129b6565b612ed760208301846129b6565b9392505050565b60008060408385031215612ef557612ef46128cc565b5b600083013567ffffffffffffffff811115612f1357612f126128d1565b5b612f1f85828601612cbf565b9250506020612f308582860161291f565b9150509250929050565b612f43816128f6565b82525050565b6000604082019050612f5e6000830185612f3a565b612f6b6020830184612d43565b9392505050565b60008060408385031215612f8957612f886128cc565b5b6000612f978582860161291f565b9250506020612fa88582860161291f565b9150509250929050565b7f4e487b7100000000000000000000000000000000000000000000000000000000600052602260045260246000fd5b60006002820490506001821680612ff957607f821691505b60208210810361300c5761300b612fb2565b5b50919050565b7f4e487b7100000000000000000000000000000000000000000000000000000000600052601160045260246000fd5b600061304c82612934565b915061305783612934565b92508282101561306a57613069613012565b5b828203905092915050565b600061308082612934565b915061308b83612934565b9250827fffffffffffffffffffffffffffffffffffffffffffffffffffffffffffffffff038211156130c0576130bf613012565b5b828201905092915050565b600081905092915050565b60006130e182612807565b6130eb81856130cb565b93506130fb818560208601612823565b80840191505092915050565b600061311382846130d6565b915081905092915050565b7f546865206f7264657220686173206265656e2077697468647261776e00000000600082015250565b6000613154601c83612812565b915061315f8261311e565b602082019050919050565b6000602082019050818103600083015261318381613147565b9050919050565b7f506c6561736520636f6e6669726d207468652077616c6c65742061646472657360008201527f732c2043616e206e6f7420776974686472617700000000000000000000000000602082015250565b60006131e6603383612812565b91506131f18261318a565b604082019050919050565b60006020820190508181036000830152613215816131d9565b9050919050565b7f4e487b7100000000000000000000000000000000000000000000000000000000600052601260045260246000fd5b600061325682612934565b915061326183612934565b9250826132715761327061321c565b5b828204905092915050565b600061328782612934565b915061329283612934565b9250817fffffffffffffffffffffffffffffffffffffffffffffffffffffffffffffffff04831182151516156132cb576132ca613012565b5b828202905092915050565b60006132e182612934565b91506132ec83612934565b9250826132fc576132fb61321c565b5b828206905092915050565b7f4e487b7100000000000000000000000000000000000000000000000000000000600052603260045260246000fd5b600061334182612934565b91507fffffffffffffffffffffffffffffffffffffffffffffffffffffffffffffffff820361337357613372613012565b5b600182019050919050565b7f416c726561647920706169640000000000000000000000000000000000000000600082015250565b60006133b4600c83612812565b91506133bf8261337e565b602082019050919050565b600060208201905081810360008301526133e3816133a7565b9050919050565b7f4e6f7420656e6f75676820746f6b656e73000000000000000000000000000000600082015250565b6000613420601183612812565b915061342b826133ea565b602082019050919050565b6000602082019050818103600083015261344f81613413565b9050919050565b600061346182612d6d565b915061346c83612d6d565b92508163ffffffff048311821515161561348957613488613012565b5b828202905092915050565b60008190508160005260206000209050919050565b60006020601f8301049050919050565b600082821b905092915050565b6000600883026134f67fffffffffffffffffffffffffffffffffffffffffffffffffffffffffffffffff826134b9565b61350086836134b9565b95508019841693508086168417925050509392505050565b6000819050919050565b600061353d61353861353384612934565b613518565b612934565b9050919050565b6000819050919050565b61355783613522565b61356b61356382613544565b8484546134c6565b825550505050565b600090565b613580613573565b61358b81848461354e565b505050565b5b818110156135af576135a4600082613578565b600181019050613591565b5050565b601f8211156135f4576135c581613494565b6135ce846134a9565b810160208510156135dd578190505b6135f16135e9856134a9565b830182613590565b50505b505050565b600082821c905092915050565b6000613617600019846008026135f9565b1980831691505092915050565b60006136308383613606565b9150826002028217905092915050565b61364982612807565b67ffffffffffffffff81111561366257613661612bc2565b5b61366c8254612fe1565b6136778282856135b3565b600060209050601f8311600181146136aa5760008415613698578287015190505b6136a28582613624565b86555061370a565b601f1984166136b886613494565b60005b828110156136e0578489015182556001820191506020850194506020810190506136bb565b868310156136fd57848901516136f9601f891682613606565b8355505b6001600288020188555050505b505050505050565b7f416c7265616479207374616b6564000000000000000000000000000000000000600082015250565b6000613748600e83612812565b915061375382613712565b602082019050919050565b600060208201905081810360008301526137778161373b565b905091905056fea2646970667358221220f6b9c2e06d3f3639653ede95b11bbc4615fa87acbf46434b54451c09de14450864736f6c634300080f0033",
  "linkReferences": {},
  "deployedLinkReferences": {}
}