{
  "_format": "hh-sol-artifact-1",
  "contractName": "CloudSlit",
  "sourceName": "contracts/CloudSlit.sol",
  "abi": [
    {
      "inputs": [],
      "stateMutability": "nonpayable",
      "type": "constructor"
    },
    {
      "anonymous": false,
      "inputs": [
        {
          "indexed": true,
          "internalType": "address",
          "name": "owner",
          "type": "address"
        },
        {
          "indexed": true,
          "internalType": "address",
          "name": "spender",
          "type": "address"
        },
        {
          "indexed": false,
          "internalType": "uint256",
          "name": "value",
          "type": "uint256"
        }
      ],
      "name": "Approval",
      "type": "event"
    },
    {
      "anonymous": false,
      "inputs": [
        {
          "indexed": true,
          "internalType": "address",
          "name": "from",
          "type": "address"
        },
        {
          "indexed": true,
          "internalType": "address",
          "name": "to",
          "type": "address"
        },
        {
          "indexed": false,
          "internalType": "uint256",
          "name": "value",
          "type": "uint256"
        }
      ],
      "name": "Transfer",
      "type": "event"
    },
    {
      "inputs": [
        {
          "internalType": "address",
          "name": "owner",
          "type": "address"
        },
        {
          "internalType": "address",
          "name": "spender",
          "type": "address"
        }
      ],
      "name": "allowance",
      "outputs": [
        {
          "internalType": "uint256",
          "name": "",
          "type": "uint256"
        }
      ],
      "stateMutability": "view",
      "type": "function"
    },
    {
      "inputs": [
        {
          "internalType": "address",
          "name": "spender",
          "type": "address"
        },
        {
          "internalType": "uint256",
          "name": "value",
          "type": "uint256"
        }
      ],
      "name": "approve",
      "outputs": [
        {
          "internalType": "bool",
          "name": "",
          "type": "bool"
        }
      ],
      "stateMutability": "nonpayable",
      "type": "function"
    },
    {
      "inputs": [
        {
          "internalType": "address",
          "name": "account",
          "type": "address"
        }
      ],
      "name": "balanceOf",
      "outputs": [
        {
          "internalType": "uint256",
          "name": "",
          "type": "uint256"
        }
      ],
      "stateMutability": "view",
      "type": "function"
    },
    {
      "inputs": [
        {
          "internalType": "string",
          "name": "uuid",
          "type": "string"
        }
      ],
      "name": "bindWallet",
      "outputs": [],
      "stateMutability": "nonpayable",
      "type": "function"
    },
    {
      "inputs": [
        {
          "internalType": "string",
          "name": "uuid",
          "type": "string"
        },
        {
          "internalType": "address",
          "name": "newWallet",
          "type": "address"
        }
      ],
      "name": "changeWallet",
      "outputs": [],
      "stateMutability": "nonpayable",
      "type": "function"
    },
    {
      "inputs": [
        {
          "internalType": "string",
          "name": "_orderId",
          "type": "string"
        }
      ],
      "name": "checkOrder",
      "outputs": [
        {
          "internalType": "bool",
          "name": "",
          "type": "bool"
        }
      ],
      "stateMutability": "view",
      "type": "function"
    },
    {
      "inputs": [
        {
          "internalType": "string",
          "name": "_name",
          "type": "string"
        },
        {
          "internalType": "uint32",
          "name": "_duration",
          "type": "uint32"
        },
        {
          "internalType": "string",
          "name": "_orderId",
          "type": "string"
        },
        {
          "internalType": "uint256",
          "name": "_price",
          "type": "uint256"
        },
        {
          "internalType": "address",
          "name": "_to",
          "type": "address"
        }
      ],
      "name": "clientOrder",
      "outputs": [],
      "stateMutability": "nonpayable",
      "type": "function"
    },
    {
      "inputs": [],
      "name": "decimals",
      "outputs": [
        {
          "internalType": "uint8",
          "name": "",
          "type": "uint8"
        }
      ],
      "stateMutability": "view",
      "type": "function"
    },
    {
      "inputs": [],
      "name": "fullnodeDepositAmount",
      "outputs": [
        {
          "internalType": "uint256",
          "name": "",
          "type": "uint256"
        }
      ],
      "stateMutability": "view",
      "type": "function"
    },
    {
      "inputs": [],
      "name": "getAllOrderTokens",
      "outputs": [
        {
          "internalType": "uint256",
          "name": "",
          "type": "uint256"
        }
      ],
      "stateMutability": "view",
      "type": "function"
    },
    {
      "inputs": [
        {
          "internalType": "string",
          "name": "_orderId",
          "type": "string"
        }
      ],
      "name": "getOrdersInfo",
      "outputs": [
        {
          "components": [
            {
              "internalType": "string",
              "name": "name",
              "type": "string"
            },
            {
              "internalType": "uint256",
              "name": "startTime",
              "type": "uint256"
            },
            {
              "internalType": "uint256",
              "name": "endTime",
              "type": "uint256"
            },
            {
              "internalType": "uint256",
              "name": "withdrawDuration",
              "type": "uint256"
            },
            {
              "internalType": "uint32",
              "name": "duration",
              "type": "uint32"
            },
            {
              "internalType": "uint256",
              "name": "price",
              "type": "uint256"
            },
            {
              "internalType": "bool",
              "name": "used",
              "type": "bool"
            },
            {
              "internalType": "bool",
              "name": "withdraw",
              "type": "bool"
            },
            {
              "internalType": "address",
              "name": "payAddress",
              "type": "address"
            },
            {
              "internalType": "address",
              "name": "privateAddress",
              "type": "address"
            }
          ],
          "internalType": "struct CloudSlit.Order",
          "name": "",
          "type": "tuple"
        }
      ],
      "stateMutability": "view",
      "type": "function"
    },
    {
      "inputs": [
        {
          "internalType": "address",
          "name": "from",
          "type": "address"
        }
      ],
      "name": "getPrivoderOrders",
      "outputs": [
        {
          "internalType": "string[]",
          "name": "",
          "type": "string[]"
        }
      ],
      "stateMutability": "view",
      "type": "function"
    },
    {
      "inputs": [
        {
          "internalType": "string",
          "name": "uuid",
          "type": "string"
        }
      ],
      "name": "getUserInfo",
      "outputs": [
        {
          "internalType": "bool",
          "name": "",
          "type": "bool"
        },
        {
          "internalType": "bool",
          "name": "",
          "type": "bool"
        }
      ],
      "stateMutability": "view",
      "type": "function"
    },
    {
      "inputs": [
        {
          "internalType": "string",
          "name": "uuid",
          "type": "string"
        }
      ],
      "name": "getWallet",
      "outputs": [
        {
          "internalType": "address",
          "name": "",
          "type": "address"
        },
        {
          "internalType": "uint8",
          "name": "",
          "type": "uint8"
        }
      ],
      "stateMutability": "view",
      "type": "function"
    },
    {
      "inputs": [
        {
          "internalType": "uint8",
          "name": "_type",
          "type": "uint8"
        }
      ],
      "name": "isDeposit",
      "outputs": [
        {
          "internalType": "bool",
          "name": "",
          "type": "bool"
        }
      ],
      "stateMutability": "view",
      "type": "function"
    },
    {
      "inputs": [],
      "name": "name",
      "outputs": [
        {
          "internalType": "string",
          "name": "",
          "type": "string"
        }
      ],
      "stateMutability": "view",
      "type": "function"
    },
    {
      "inputs": [],
      "name": "privoderDepositAmount",
      "outputs": [
        {
          "internalType": "uint256",
          "name": "",
          "type": "uint256"
        }
      ],
      "stateMutability": "view",
      "type": "function"
    },
    {
      "inputs": [
        {
          "internalType": "uint8",
          "name": "_type",
          "type": "uint8"
        }
      ],
      "name": "stake",
      "outputs": [],
      "stateMutability": "nonpayable",
      "type": "function"
    },
    {
      "inputs": [],
      "name": "symbol",
      "outputs": [
        {
          "internalType": "string",
          "name": "",
          "type": "string"
        }
      ],
      "stateMutability": "view",
      "type": "function"
    },
    {
      "inputs": [],
      "name": "totalSupply",
      "outputs": [
        {
          "internalType": "uint256",
          "name": "",
          "type": "uint256"
        }
      ],
      "stateMutability": "view",
      "type": "function"
    },
    {
      "inputs": [
        {
          "internalType": "address",
          "name": "to",
          "type": "address"
        },
        {
          "internalType": "uint256",
          "name": "value",
          "type": "uint256"
        }
      ],
      "name": "transfer",
      "outputs": [
        {
          "internalType": "bool",
          "name": "",
          "type": "bool"
        }
      ],
      "stateMutability": "nonpayable",
      "type": "function"
    },
    {
      "inputs": [
        {
          "internalType": "address",
          "name": "from",
          "type": "address"
        },
        {
          "internalType": "address",
          "name": "to",
          "type": "address"
        },
        {
          "internalType": "uint256",
          "name": "value",
          "type": "uint256"
        }
      ],
      "name": "transferFrom",
      "outputs": [
        {
          "internalType": "bool",
          "name": "",
          "type": "bool"
        }
      ],
      "stateMutability": "nonpayable",
      "type": "function"
    },
    {
      "inputs": [
        {
          "internalType": "string",
          "name": "uuid",
          "type": "string"
        }
      ],
      "name": "verifyWallet",
      "outputs": [],
      "stateMutability": "nonpayable",
      "type": "function"
    },
    {
      "inputs": [
        {
          "internalType": "uint8",
          "name": "_type",
          "type": "uint8"
        }
      ],
      "name": "withdraw",
      "outputs": [],
      "stateMutability": "nonpayable",
      "type": "function"
    },
    {
      "inputs": [],
      "name": "withdrawAllOrderTokens",
      "outputs": [],
      "stateMutability": "nonpayable",
      "type": "function"
    },
    {
      "inputs": [
        {
          "internalType": "string",
          "name": "_orderId",
          "type": "string"
        }
      ],
      "name": "withdrawOrderTokens",
      "outputs": [],
      "stateMutability": "nonpayable",
      "type": "function"
    }
  ],
  "bytecode": "0x60806040526040518060400160405280600d81526020017f436c6f7564536c69742044616f00000000000000000000000000000000000000815250600090816200004a9190620003b8565b506040518060400160405280600381526020017f435344000000000000000000000000000000000000000000000000000000000081525060019081620000919190620003b8565b506000600260006101000a81548160ff021916908360ff160217905550620f42406003556113886007556103e8600855610e10600d60006101000a81548163ffffffff021916908363ffffffff160217905550348015620000f157600080fd5b50600354600460003373ffffffffffffffffffffffffffffffffffffffff1673ffffffffffffffffffffffffffffffffffffffff168152602001908152602001600020819055506200049f565b600081519050919050565b7f4e487b7100000000000000000000000000000000000000000000000000000000600052604160045260246000fd5b7f4e487b7100000000000000000000000000000000000000000000000000000000600052602260045260246000fd5b60006002820490506001821680620001c057607f821691505b602082108103620001d657620001d562000178565b5b50919050565b60008190508160005260206000209050919050565b60006020601f8301049050919050565b600082821b905092915050565b600060088302620002407fffffffffffffffffffffffffffffffffffffffffffffffffffffffffffffffff8262000201565b6200024c868362000201565b95508019841693508086168417925050509392505050565b6000819050919050565b6000819050919050565b600062000299620002936200028d8462000264565b6200026e565b62000264565b9050919050565b6000819050919050565b620002b58362000278565b620002cd620002c482620002a0565b8484546200020e565b825550505050565b600090565b620002e4620002d5565b620002f1818484620002aa565b505050565b5b8181101562000319576200030d600082620002da565b600181019050620002f7565b5050565b601f82111562000368576200033281620001dc565b6200033d84620001f1565b810160208510156200034d578190505b620003656200035c85620001f1565b830182620002f6565b50505b505050565b600082821c905092915050565b60006200038d600019846008026200036d565b1980831691505092915050565b6000620003a883836200037a565b9150826002028217905092915050565b620003c3826200013e565b67ffffffffffffffff811115620003df57620003de62000149565b5b620003eb8254620001a7565b620003f88282856200031d565b600060209050601f8311600181146200043057600084156200041b578287015190505b6200042785826200039a565b86555062000497565b601f1984166200044086620001dc565b60005b828110156200046a5784890151825560018201915060208501945060208101905062000443565b868310156200048a578489015162000486601f8916826200037a565b8355505b6001600288020188555050505b505050505050565b61416c80620004af6000396000f3fe608060405234801561001057600080fd5b506004361061018e5760003560e01c806387a858d2116100de578063cd74c0a711610097578063dd6887ed11610071578063dd6887ed146104ab578063f276b8aa146104db578063f3fbfc7b1461050b578063ffc2c9b7146105295761018e565b8063cd74c0a71461043f578063d35b1ac21461045d578063dd62ed3e1461047b5761018e565b806387a858d21461036c5780638ec012b91461038857806395d89b41146103a4578063a4e2df66146103c2578063a9059cbb146103f3578063c6ab5d90146104235761018e565b806327a0b34a1161014b578063604f217711610125578063604f2177146102bf57806370a08231146102db5780637c9b7fdd1461030b5780638291a0211461033c5761018e565b806327a0b34a1461027b578063313ce567146102855780635c9abe11146102a35761018e565b806306fdde0314610193578063095ea7b3146101b157806318160ddd146101e1578063183dd1cd146101ff57806323b872dd1461022f57806325cfedb51461025f575b600080fd5b61019b610545565b6040516101a891906130e5565b60405180910390f35b6101cb60048036038101906101c691906131af565b6105d3565b6040516101d8919061320a565b60405180910390f35b6101e96106c5565b6040516101f69190613234565b60405180910390f35b6102196004803603810190610214919061324f565b6106cb565b6040516102269190613388565b60405180910390f35b610249600480360381019061024491906133aa565b6107e3565b604051610256919061320a565b60405180910390f35b61027960048036038101906102749190613532565b610a69565b005b610283610ea8565b005b61028d6114a6565b60405161029a9190613597565b60405180910390f35b6102bd60048036038101906102b891906135ee565b6114b9565b005b6102d960048036038101906102d491906136cd565b61187c565b005b6102f560048036038101906102f0919061324f565b611c08565b6040516103029190613234565b60405180910390f35b61032560048036038101906103209190613532565b611c51565b6040516103339291906136fa565b60405180910390f35b61035660048036038101906103519190613532565b611dab565b6040516103639190613839565b60405180910390f35b6103866004803603810190610381919061385b565b611fa6565b005b6103a2600480360381019061039d9190613532565b61215b565b005b6103ac612395565b6040516103b991906130e5565b60405180910390f35b6103dc60048036038101906103d79190613532565b612423565b6040516103ea9291906138c6565b60405180910390f35b61040d600480360381019061040891906131af565b6124a0565b60405161041a919061320a565b60405180910390f35b61043d600480360381019061043891906136cd565b612609565b005b610447612871565b6040516104549190613234565b60405180910390f35b610465612877565b6040516104729190613234565b60405180910390f35b610495600480360381019061049091906138ef565b61287d565b6040516104a29190613234565b60405180910390f35b6104c560048036038101906104c09190613532565b612904565b6040516104d2919061320a565b60405180910390f35b6104f560048036038101906104f091906136cd565b61293c565b604051610502919061320a565b60405180910390f35b6105136129f4565b6040516105209190613234565b60405180910390f35b610543600480360381019061053e9190613532565b612efb565b005b600080546105529061395e565b80601f016020809104026020016040519081016040528092919081815260200182805461057e9061395e565b80156105cb5780601f106105a0576101008083540402835291602001916105cb565b820191906000526020600020905b8154815290600101906020018083116105ae57829003601f168201915b505050505081565b600081600560003373ffffffffffffffffffffffffffffffffffffffff1673ffffffffffffffffffffffffffffffffffffffff16815260200190815260200160002060008573ffffffffffffffffffffffffffffffffffffffff1673ffffffffffffffffffffffffffffffffffffffff168152602001908152602001600020819055508273ffffffffffffffffffffffffffffffffffffffff163373ffffffffffffffffffffffffffffffffffffffff167f8c5be1e5ebec7d5bd14f71427d1e84f3dd0314c0f7b2291e5b200ac8c7c3b925846040516106b39190613234565b60405180910390a36001905092915050565b60035481565b6060600c60008373ffffffffffffffffffffffffffffffffffffffff1673ffffffffffffffffffffffffffffffffffffffff168152602001908152602001600020805480602002602001604051908101604052809291908181526020016000905b828210156107d857838290600052602060002001805461074b9061395e565b80601f01602080910402602001604051908101604052809291908181526020018280546107779061395e565b80156107c45780601f10610799576101008083540402835291602001916107c4565b820191906000526020600020905b8154815290600101906020018083116107a757829003601f168201915b50505050508152602001906001019061072c565b505050509050919050565b600081600460008673ffffffffffffffffffffffffffffffffffffffff1673ffffffffffffffffffffffffffffffffffffffff16815260200190815260200160002054101561083157600080fd5b81600560008673ffffffffffffffffffffffffffffffffffffffff1673ffffffffffffffffffffffffffffffffffffffff16815260200190815260200160002060003373ffffffffffffffffffffffffffffffffffffffff1673ffffffffffffffffffffffffffffffffffffffff1681526020019081526020016000205410156108ba57600080fd5b81600460008673ffffffffffffffffffffffffffffffffffffffff1673ffffffffffffffffffffffffffffffffffffffff168152602001908152602001600020600082825461090991906139be565b9250508190555081600560008673ffffffffffffffffffffffffffffffffffffffff1673ffffffffffffffffffffffffffffffffffffffff16815260200190815260200160002060003373ffffffffffffffffffffffffffffffffffffffff1673ffffffffffffffffffffffffffffffffffffffff168152602001908152602001600020600082825461099c91906139be565b9250508190555081600460008573ffffffffffffffffffffffffffffffffffffffff1673ffffffffffffffffffffffffffffffffffffffff16815260200190815260200160002060008282546109f291906139f2565b925050819055508273ffffffffffffffffffffffffffffffffffffffff168473ffffffffffffffffffffffffffffffffffffffff167fddf252ad1be2c89b69c2b068fc378daa952ba7f163c4a11628f55a4df523b3ef84604051610a569190613234565b60405180910390a3600190509392505050565b600b81604051610a799190613a84565b908152602001604051809103902060060160019054906101000a900460ff1615610ad8576040517f08c379a0000000000000000000000000000000000000000000000000000000008152600401610acf90613ae7565b60405180910390fd5b3373ffffffffffffffffffffffffffffffffffffffff16600b82604051610aff9190613a84565b908152602001604051809103902060070160009054906101000a900473ffffffffffffffffffffffffffffffffffffffff1673ffffffffffffffffffffffffffffffffffffffff1614610b87576040517f08c379a0000000000000000000000000000000000000000000000000000000008152600401610b7e90613b79565b60405180910390fd5b600b81604051610b979190613a84565b9081526020016040518091039020600201544210610d21576001600b82604051610bc19190613a84565b908152602001604051809103902060060160016101000a81548160ff0219169083151502179055506000600b82604051610bfb9190613a84565b908152602001604051809103902060030154600b83604051610c1d9190613a84565b908152602001604051809103902060040160009054906101000a900463ffffffff1663ffffffff16610c4f91906139be565b9050600081600b84604051610c649190613a84565b908152602001604051809103902060040160009054906101000a900463ffffffff1663ffffffff16600b85604051610c9c9190613a84565b908152602001604051809103902060050154610cb89190613bc8565b610cc29190613bf9565b905080600460003373ffffffffffffffffffffffffffffffffffffffff1673ffffffffffffffffffffffffffffffffffffffff1681526020019081526020016000206000828254610d1391906139f2565b925050819055505050610ea5565b6000600b82604051610d339190613a84565b908152602001604051809103902060030154600d60009054906101000a900463ffffffff1663ffffffff16600b84604051610d6e9190613a84565b90815260200160405180910390206001015442610d8b91906139be565b610d959190613bc8565b610d9f91906139be565b905080600b83604051610db29190613a84565b90815260200160405180910390206003016000828254610dd291906139f2565b92505081905550600081600b84604051610dec9190613a84565b908152602001604051809103902060040160009054906101000a900463ffffffff1663ffffffff16600b85604051610e249190613a84565b908152602001604051809103902060050154610e409190613bc8565b610e4a9190613bf9565b905080600460003373ffffffffffffffffffffffffffffffffffffffff1673ffffffffffffffffffffffffffffffffffffffff1681526020019081526020016000206000828254610e9b91906139f2565b9250508190555050505b50565b6000600a60003373ffffffffffffffffffffffffffffffffffffffff1673ffffffffffffffffffffffffffffffffffffffff1681526020019081526020016000205403610f2a576040517f08c379a0000000000000000000000000000000000000000000000000000000008152600401610f2190613c9f565b60405180910390fd5b6000600c60003373ffffffffffffffffffffffffffffffffffffffff1673ffffffffffffffffffffffffffffffffffffffff168152602001908152602001600020805480602002602001604051908101604052809291908181526020016000905b82821015611037578382906000526020600020018054610faa9061395e565b80601f0160208091040260200160405190810160405280929190818152602001828054610fd69061395e565b80156110235780601f10610ff857610100808354040283529160200191611023565b820191906000526020600020905b81548152906001019060200180831161100657829003601f168201915b505050505081526020019060010190610f8b565b5050505090506000805b825181101561144b57600b83828151811061105f5761105e613cbf565b5b60200260200101516040516110749190613a84565b908152602001604051809103902060060160019054906101000a900460ff1661143857600b8382815181106110ac576110ab613cbf565b5b60200260200101516040516110c19190613a84565b908152602001604051809103902060020154421061127f576001600b8483815181106110f0576110ef613cbf565b5b60200260200101516040516111059190613a84565b908152602001604051809103902060060160016101000a81548160ff0219169083151502179055506000600b84838151811061114457611143613cbf565b5b60200260200101516040516111599190613a84565b908152602001604051809103902060030154600b8584815181106111805761117f613cbf565b5b60200260200101516040516111959190613a84565b908152602001604051809103902060040160009054906101000a900463ffffffff1663ffffffff166111c791906139be565b905080600b8584815181106111df576111de613cbf565b5b60200260200101516040516111f49190613a84565b908152602001604051809103902060040160009054906101000a900463ffffffff1663ffffffff16600b86858151811061123157611230613cbf565b5b60200260200101516040516112469190613a84565b9081526020016040518091039020600501546112629190613bc8565b61126c9190613bf9565b8361127791906139f2565b925050611437565b6000600b84838151811061129657611295613cbf565b5b60200260200101516040516112ab9190613a84565b908152602001604051809103902060030154600d60009054906101000a900463ffffffff1663ffffffff16600b8685815181106112eb576112ea613cbf565b5b60200260200101516040516113009190613a84565b9081526020016040518091039020600101544261131d91906139be565b6113279190613bc8565b61133191906139be565b905080600b85848151811061134957611348613cbf565b5b602002602001015160405161135e9190613a84565b9081526020016040518091039020600301600082825461137e91906139f2565b9250508190555080600b85848151811061139b5761139a613cbf565b5b60200260200101516040516113b09190613a84565b908152602001604051809103902060040160009054906101000a900463ffffffff1663ffffffff16600b8685815181106113ed576113ec613cbf565b5b60200260200101516040516114029190613a84565b90815260200160405180910390206005015461141e9190613bc8565b6114289190613bf9565b8361143391906139f2565b9250505b5b808061144390613cee565b915050611041565b5080600460003373ffffffffffffffffffffffffffffffffffffffff1673ffffffffffffffffffffffffffffffffffffffff168152602001908152602001600020600082825461149b91906139f2565b925050819055505050565b600260009054906101000a900460ff1681565b600b836040516114c99190613a84565b908152602001604051809103902060060160009054906101000a900460ff1615611528576040517f08c379a000000000000000000000000000000000000000000000000000000000815260040161151f90613d82565b60405180910390fd5b81600460003373ffffffffffffffffffffffffffffffffffffffff1673ffffffffffffffffffffffffffffffffffffffff1681526020019081526020016000205410156115aa576040517f08c379a00000000000000000000000000000000000000000000000000000000081526004016115a190613dee565b60405180910390fd5b81600460003373ffffffffffffffffffffffffffffffffffffffff1673ffffffffffffffffffffffffffffffffffffffff16815260200190815260200160002060008282546115f991906139be565b92505081905550604051806101400160405280868152602001428152602001600d60009054906101000a900463ffffffff16866116369190613e0e565b63ffffffff164261164791906139f2565b8152602001600081526020018563ffffffff1681526020018381526020016001151581526020016000151581526020013373ffffffffffffffffffffffffffffffffffffffff1681526020018273ffffffffffffffffffffffffffffffffffffffff16815250600b846040516116bd9190613a84565b908152602001604051809103902060008201518160000190816116e09190613ff8565b5060208201518160010155604082015181600201556060820151816003015560808201518160040160006101000a81548163ffffffff021916908363ffffffff16021790555060a0820151816005015560c08201518160060160006101000a81548160ff02191690831515021790555060e08201518160060160016101000a81548160ff0219169083151502179055506101008201518160060160026101000a81548173ffffffffffffffffffffffffffffffffffffffff021916908373ffffffffffffffffffffffffffffffffffffffff1602179055506101208201518160070160006101000a81548173ffffffffffffffffffffffffffffffffffffffff021916908373ffffffffffffffffffffffffffffffffffffffff160217905550905050600c60008273ffffffffffffffffffffffffffffffffffffffff1673ffffffffffffffffffffffffffffffffffffffff168152602001908152602001600020839080600181540180825580915050600190039060005260206000200160009091909190915090816118749190613ff8565b505050505050565b60018160ff1603611a42576000600960003373ffffffffffffffffffffffffffffffffffffffff1673ffffffffffffffffffffffffffffffffffffffff1681526020019081526020016000205414611909576040517f08c379a000000000000000000000000000000000000000000000000000000000815260040161190090614116565b60405180910390fd5b600754600460003373ffffffffffffffffffffffffffffffffffffffff1673ffffffffffffffffffffffffffffffffffffffff16815260200190815260200160002054101561198d576040517f08c379a000000000000000000000000000000000000000000000000000000000815260040161198490613dee565b60405180910390fd5b600754600460003373ffffffffffffffffffffffffffffffffffffffff1673ffffffffffffffffffffffffffffffffffffffff16815260200190815260200160002060008282546119de91906139be565b92505081905550600754600960003373ffffffffffffffffffffffffffffffffffffffff1673ffffffffffffffffffffffffffffffffffffffff1681526020019081526020016000206000828254611a3691906139f2565b92505081905550611c05565b60028160ff1603611c04576000600a60003373ffffffffffffffffffffffffffffffffffffffff1673ffffffffffffffffffffffffffffffffffffffff1681526020019081526020016000205414611acf576040517f08c379a0000000000000000000000000000000000000000000000000000000008152600401611ac690614116565b60405180910390fd5b600854600460003373ffffffffffffffffffffffffffffffffffffffff1673ffffffffffffffffffffffffffffffffffffffff168152602001908152602001600020541015611b53576040517f08c379a0000000000000000000000000000000000000000000000000000000008152600401611b4a90613dee565b60405180910390fd5b600854600460003373ffffffffffffffffffffffffffffffffffffffff1673ffffffffffffffffffffffffffffffffffffffff1681526020019081526020016000206000828254611ba491906139be565b92505081905550600854600a60003373ffffffffffffffffffffffffffffffffffffffff1673ffffffffffffffffffffffffffffffffffffffff1681526020019081526020016000206000828254611bfc91906139f2565b925050819055505b5b50565b6000600460008373ffffffffffffffffffffffffffffffffffffffff1673ffffffffffffffffffffffffffffffffffffffff168152602001908152602001600020549050919050565b6000806002600684604051611c669190613a84565b908152602001604051809103902060000160149054906101000a900460ff1660ff1603611d9e57600060096000600686604051611ca39190613a84565b908152602001604051809103902060000160009054906101000a900473ffffffffffffffffffffffffffffffffffffffff1673ffffffffffffffffffffffffffffffffffffffff1673ffffffffffffffffffffffffffffffffffffffff16815260200190815260200160002054116000600a6000600687604051611d279190613a84565b908152602001604051809103902060000160009054906101000a900473ffffffffffffffffffffffffffffffffffffffff1673ffffffffffffffffffffffffffffffffffffffff1673ffffffffffffffffffffffffffffffffffffffff168152602001908152602001600020541191509150611da6565b600080915091505b915091565b611db3612fc3565b600b82604051611dc39190613a84565b908152602001604051809103902060405180610140016040529081600082018054611ded9061395e565b80601f0160208091040260200160405190810160405280929190818152602001828054611e199061395e565b8015611e665780601f10611e3b57610100808354040283529160200191611e66565b820191906000526020600020905b815481529060010190602001808311611e4957829003601f168201915b505050505081526020016001820154815260200160028201548152602001600382015481526020016004820160009054906101000a900463ffffffff1663ffffffff1663ffffffff168152602001600582015481526020016006820160009054906101000a900460ff161515151581526020016006820160019054906101000a900460ff161515151581526020016006820160029054906101000a900473ffffffffffffffffffffffffffffffffffffffff1673ffffffffffffffffffffffffffffffffffffffff1673ffffffffffffffffffffffffffffffffffffffff1681526020016007820160009054906101000a900473ffffffffffffffffffffffffffffffffffffffff1673ffffffffffffffffffffffffffffffffffffffff1673ffffffffffffffffffffffffffffffffffffffff16815250509050919050565b600073ffffffffffffffffffffffffffffffffffffffff168173ffffffffffffffffffffffffffffffffffffffff1603611fdf57600080fd5b6001600683604051611ff19190613a84565b908152602001604051809103902060000160149054906101000a900460ff1660ff160361207d57806006836040516120299190613a84565b908152602001604051809103902060000160006101000a81548173ffffffffffffffffffffffffffffffffffffffff021916908373ffffffffffffffffffffffffffffffffffffffff160217905550612157565b3373ffffffffffffffffffffffffffffffffffffffff166006836040516120a49190613a84565b908152602001604051809103902060000160009054906101000a900473ffffffffffffffffffffffffffffffffffffffff1673ffffffffffffffffffffffffffffffffffffffff16146120f657600080fd5b806006836040516121079190613a84565b908152602001604051809103902060000160006101000a81548173ffffffffffffffffffffffffffffffffffffffff021916908373ffffffffffffffffffffffffffffffffffffffff1602179055505b5050565b600073ffffffffffffffffffffffffffffffffffffffff166006826040516121839190613a84565b908152602001604051809103902060000160009054906101000a900473ffffffffffffffffffffffffffffffffffffffff1673ffffffffffffffffffffffffffffffffffffffff16146121d557600080fd5b6000600960003373ffffffffffffffffffffffffffffffffffffffff1673ffffffffffffffffffffffffffffffffffffffff16815260200190815260200160002054036122d95760405180604001604052803373ffffffffffffffffffffffffffffffffffffffff168152602001600160ff1681525060068260405161225b9190613a84565b908152602001604051809103902060008201518160000160006101000a81548173ffffffffffffffffffffffffffffffffffffffff021916908373ffffffffffffffffffffffffffffffffffffffff16021790555060208201518160000160146101000a81548160ff021916908360ff160217905550905050612392565b60405180604001604052803373ffffffffffffffffffffffffffffffffffffffff168152602001600260ff168152506006826040516123189190613a84565b908152602001604051809103902060008201518160000160006101000a81548173ffffffffffffffffffffffffffffffffffffffff021916908373ffffffffffffffffffffffffffffffffffffffff16021790555060208201518160000160146101000a81548160ff021916908360ff1602179055509050505b50565b600180546123a29061395e565b80601f01602080910402602001604051908101604052809291908181526020018280546123ce9061395e565b801561241b5780601f106123f05761010080835404028352916020019161241b565b820191906000526020600020905b8154815290600101906020018083116123fe57829003601f168201915b505050505081565b6000806006836040516124369190613a84565b908152602001604051809103902060000160009054906101000a900473ffffffffffffffffffffffffffffffffffffffff166006846040516124789190613a84565b908152602001604051809103902060000160149054906101000a900460ff1691509150915091565b600081600460003373ffffffffffffffffffffffffffffffffffffffff1673ffffffffffffffffffffffffffffffffffffffff1681526020019081526020016000205410156124ee57600080fd5b81600460003373ffffffffffffffffffffffffffffffffffffffff1673ffffffffffffffffffffffffffffffffffffffff168152602001908152602001600020600082825461253d91906139be565b9250508190555081600460008573ffffffffffffffffffffffffffffffffffffffff1673ffffffffffffffffffffffffffffffffffffffff168152602001908152602001600020600082825461259391906139f2565b925050819055508273ffffffffffffffffffffffffffffffffffffffff163373ffffffffffffffffffffffffffffffffffffffff167fddf252ad1be2c89b69c2b068fc378daa952ba7f163c4a11628f55a4df523b3ef846040516125f79190613234565b60405180910390a36001905092915050565b60018160ff160361273d576000600960003373ffffffffffffffffffffffffffffffffffffffff1673ffffffffffffffffffffffffffffffffffffffff168152602001908152602001600020541161266057600080fd5b600960003373ffffffffffffffffffffffffffffffffffffffff1673ffffffffffffffffffffffffffffffffffffffff16815260200190815260200160002054600460003373ffffffffffffffffffffffffffffffffffffffff1673ffffffffffffffffffffffffffffffffffffffff16815260200190815260200160002060008282546126ee91906139f2565b92505081905550600960003373ffffffffffffffffffffffffffffffffffffffff1673ffffffffffffffffffffffffffffffffffffffff1681526020019081526020016000206000905561286e565b60028160ff160361286d576000600a60003373ffffffffffffffffffffffffffffffffffffffff1673ffffffffffffffffffffffffffffffffffffffff168152602001908152602001600020541161279457600080fd5b600a60003373ffffffffffffffffffffffffffffffffffffffff1673ffffffffffffffffffffffffffffffffffffffff16815260200190815260200160002054600460003373ffffffffffffffffffffffffffffffffffffffff1673ffffffffffffffffffffffffffffffffffffffff168152602001908152602001600020600082825461282291906139f2565b92505081905550600a60003373ffffffffffffffffffffffffffffffffffffffff1673ffffffffffffffffffffffffffffffffffffffff168152602001908152602001600020600090555b5b50565b60085481565b60075481565b6000600560008473ffffffffffffffffffffffffffffffffffffffff1673ffffffffffffffffffffffffffffffffffffffff16815260200190815260200160002060008373ffffffffffffffffffffffffffffffffffffffff1673ffffffffffffffffffffffffffffffffffffffff16815260200190815260200160002054905092915050565b6000600b826040516129169190613a84565b908152602001604051809103902060060160009054906101000a900460ff169050919050565b600060018260ff1603612994576000600960003373ffffffffffffffffffffffffffffffffffffffff1673ffffffffffffffffffffffffffffffffffffffff16815260200190815260200160002054141590506129ef565b60028260ff16036129ea576000600a60003373ffffffffffffffffffffffffffffffffffffffff1673ffffffffffffffffffffffffffffffffffffffff16815260200190815260200160002054141590506129ef565b600090505b919050565b600080600a60003373ffffffffffffffffffffffffffffffffffffffff1673ffffffffffffffffffffffffffffffffffffffff1681526020019081526020016000205403612a77576040517f08c379a0000000000000000000000000000000000000000000000000000000008152600401612a6e90613c9f565b60405180910390fd5b6000600c60003373ffffffffffffffffffffffffffffffffffffffff1673ffffffffffffffffffffffffffffffffffffffff168152602001908152602001600020805480602002602001604051908101604052809291908181526020016000905b82821015612b84578382906000526020600020018054612af79061395e565b80601f0160208091040260200160405190810160405280929190818152602001828054612b239061395e565b8015612b705780601f10612b4557610100808354040283529160200191612b70565b820191906000526020600020905b815481529060010190602001808311612b5357829003601f168201915b505050505081526020019060010190612ad8565b5050505090506000805b8251811015612ef257600b838281518110612bac57612bab613cbf565b5b6020026020010151604051612bc19190613a84565b908152602001604051809103902060060160019054906101000a900460ff16612edf57600b838281518110612bf957612bf8613cbf565b5b6020026020010151604051612c0e9190613a84565b9081526020016040518091039020600201544210612d78576000600b848381518110612c3d57612c3c613cbf565b5b6020026020010151604051612c529190613a84565b908152602001604051809103902060030154600b858481518110612c7957612c78613cbf565b5b6020026020010151604051612c8e9190613a84565b908152602001604051809103902060040160009054906101000a900463ffffffff1663ffffffff16612cc091906139be565b905080600b858481518110612cd857612cd7613cbf565b5b6020026020010151604051612ced9190613a84565b908152602001604051809103902060040160009054906101000a900463ffffffff1663ffffffff16600b868581518110612d2a57612d29613cbf565b5b6020026020010151604051612d3f9190613a84565b908152602001604051809103902060050154612d5b9190613bc8565b612d659190613bf9565b83612d7091906139f2565b925050612ede565b6000600b848381518110612d8f57612d8e613cbf565b5b6020026020010151604051612da49190613a84565b908152602001604051809103902060030154600d60009054906101000a900463ffffffff1663ffffffff16600b868581518110612de457612de3613cbf565b5b6020026020010151604051612df99190613a84565b90815260200160405180910390206001015442612e1691906139be565b612e209190613bc8565b612e2a91906139be565b905080600b858481518110612e4257612e41613cbf565b5b6020026020010151604051612e579190613a84565b908152602001604051809103902060040160009054906101000a900463ffffffff1663ffffffff16600b868581518110612e9457612e93613cbf565b5b6020026020010151604051612ea99190613a84565b908152602001604051809103902060050154612ec59190613bc8565b612ecf9190613bf9565b83612eda91906139f2565b9250505b5b8080612eea90613cee565b915050612b8e565b50809250505090565b6000600960003373ffffffffffffffffffffffffffffffffffffffff1673ffffffffffffffffffffffffffffffffffffffff1681526020019081526020016000205411612f4757600080fd5b6001600682604051612f599190613a84565b908152602001604051809103902060000160149054906101000a900460ff1660ff1614612f8557600080fd5b6002600682604051612f979190613a84565b908152602001604051809103902060000160146101000a81548160ff021916908360ff16021790555050565b60405180610140016040528060608152602001600081526020016000815260200160008152602001600063ffffffff16815260200160008152602001600015158152602001600015158152602001600073ffffffffffffffffffffffffffffffffffffffff168152602001600073ffffffffffffffffffffffffffffffffffffffff1681525090565b600081519050919050565b600082825260208201905092915050565b60005b8381101561308657808201518184015260208101905061306b565b83811115613095576000848401525b50505050565b6000601f19601f8301169050919050565b60006130b78261304c565b6130c18185613057565b93506130d1818560208601613068565b6130da8161309b565b840191505092915050565b600060208201905081810360008301526130ff81846130ac565b905092915050565b6000604051905090565b600080fd5b600080fd5b600073ffffffffffffffffffffffffffffffffffffffff82169050919050565b60006131468261311b565b9050919050565b6131568161313b565b811461316157600080fd5b50565b6000813590506131738161314d565b92915050565b6000819050919050565b61318c81613179565b811461319757600080fd5b50565b6000813590506131a981613183565b92915050565b600080604083850312156131c6576131c5613111565b5b60006131d485828601613164565b92505060206131e58582860161319a565b9150509250929050565b60008115159050919050565b613204816131ef565b82525050565b600060208201905061321f60008301846131fb565b92915050565b61322e81613179565b82525050565b60006020820190506132496000830184613225565b92915050565b60006020828403121561326557613264613111565b5b600061327384828501613164565b91505092915050565b600081519050919050565b600082825260208201905092915050565b6000819050602082019050919050565b600082825260208201905092915050565b60006132c48261304c565b6132ce81856132a8565b93506132de818560208601613068565b6132e78161309b565b840191505092915050565b60006132fe83836132b9565b905092915050565b6000602082019050919050565b600061331e8261327c565b6133288185613287565b93508360208202850161333a85613298565b8060005b85811015613376578484038952815161335785826132f2565b945061336283613306565b925060208a0199505060018101905061333e565b50829750879550505050505092915050565b600060208201905081810360008301526133a28184613313565b905092915050565b6000806000606084860312156133c3576133c2613111565b5b60006133d186828701613164565b93505060206133e286828701613164565b92505060406133f38682870161319a565b9150509250925092565b600080fd5b600080fd5b7f4e487b7100000000000000000000000000000000000000000000000000000000600052604160045260246000fd5b61343f8261309b565b810181811067ffffffffffffffff8211171561345e5761345d613407565b5b80604052505050565b6000613471613107565b905061347d8282613436565b919050565b600067ffffffffffffffff82111561349d5761349c613407565b5b6134a68261309b565b9050602081019050919050565b82818337600083830152505050565b60006134d56134d084613482565b613467565b9050828152602081018484840111156134f1576134f0613402565b5b6134fc8482856134b3565b509392505050565b600082601f830112613519576135186133fd565b5b81356135298482602086016134c2565b91505092915050565b60006020828403121561354857613547613111565b5b600082013567ffffffffffffffff81111561356657613565613116565b5b61357284828501613504565b91505092915050565b600060ff82169050919050565b6135918161357b565b82525050565b60006020820190506135ac6000830184613588565b92915050565b600063ffffffff82169050919050565b6135cb816135b2565b81146135d657600080fd5b50565b6000813590506135e8816135c2565b92915050565b600080600080600060a0868803121561360a57613609613111565b5b600086013567ffffffffffffffff81111561362857613627613116565b5b61363488828901613504565b9550506020613645888289016135d9565b945050604086013567ffffffffffffffff81111561366657613665613116565b5b61367288828901613504565b93505060606136838882890161319a565b925050608061369488828901613164565b9150509295509295909350565b6136aa8161357b565b81146136b557600080fd5b50565b6000813590506136c7816136a1565b92915050565b6000602082840312156136e3576136e2613111565b5b60006136f1848285016136b8565b91505092915050565b600060408201905061370f60008301856131fb565b61371c60208301846131fb565b9392505050565b61372c81613179565b82525050565b61373b816135b2565b82525050565b61374a816131ef565b82525050565b6137598161313b565b82525050565b600061014083016000830151848203600086015261377d82826132b9565b91505060208301516137926020860182613723565b5060408301516137a56040860182613723565b5060608301516137b86060860182613723565b5060808301516137cb6080860182613732565b5060a08301516137de60a0860182613723565b5060c08301516137f160c0860182613741565b5060e083015161380460e0860182613741565b50610100830151613819610100860182613750565b5061012083015161382e610120860182613750565b508091505092915050565b60006020820190508181036000830152613853818461375f565b905092915050565b6000806040838503121561387257613871613111565b5b600083013567ffffffffffffffff8111156138905761388f613116565b5b61389c85828601613504565b92505060206138ad85828601613164565b9150509250929050565b6138c08161313b565b82525050565b60006040820190506138db60008301856138b7565b6138e86020830184613588565b9392505050565b6000806040838503121561390657613905613111565b5b600061391485828601613164565b925050602061392585828601613164565b9150509250929050565b7f4e487b7100000000000000000000000000000000000000000000000000000000600052602260045260246000fd5b6000600282049050600182168061397657607f821691505b6020821081036139895761398861392f565b5b50919050565b7f4e487b7100000000000000000000000000000000000000000000000000000000600052601160045260246000fd5b60006139c982613179565b91506139d483613179565b9250828210156139e7576139e661398f565b5b828203905092915050565b60006139fd82613179565b9150613a0883613179565b9250827fffffffffffffffffffffffffffffffffffffffffffffffffffffffffffffffff03821115613a3d57613a3c61398f565b5b828201905092915050565b600081905092915050565b6000613a5e8261304c565b613a688185613a48565b9350613a78818560208601613068565b80840191505092915050565b6000613a908284613a53565b915081905092915050565b7f546865206f7264657220686173206265656e2077697468647261776e00000000600082015250565b6000613ad1601c83613057565b9150613adc82613a9b565b602082019050919050565b60006020820190508181036000830152613b0081613ac4565b9050919050565b7f506c6561736520636f6e6669726d207468652077616c6c65742061646472657360008201527f732c2043616e206e6f7420776974686472617700000000000000000000000000602082015250565b6000613b63603383613057565b9150613b6e82613b07565b604082019050919050565b60006020820190508181036000830152613b9281613b56565b9050919050565b7f4e487b7100000000000000000000000000000000000000000000000000000000600052601260045260246000fd5b6000613bd382613179565b9150613bde83613179565b925082613bee57613bed613b99565b5b828204905092915050565b6000613c0482613179565b9150613c0f83613179565b9250817fffffffffffffffffffffffffffffffffffffffffffffffffffffffffffffffff0483118215151615613c4857613c4761398f565b5b828202905092915050565b7f4e6f74206465706f736974730000000000000000000000000000000000000000600082015250565b6000613c89600c83613057565b9150613c9482613c53565b602082019050919050565b60006020820190508181036000830152613cb881613c7c565b9050919050565b7f4e487b7100000000000000000000000000000000000000000000000000000000600052603260045260246000fd5b6000613cf982613179565b91507fffffffffffffffffffffffffffffffffffffffffffffffffffffffffffffffff8203613d2b57613d2a61398f565b5b600182019050919050565b7f416c726561647920706169640000000000000000000000000000000000000000600082015250565b6000613d6c600c83613057565b9150613d7782613d36565b602082019050919050565b60006020820190508181036000830152613d9b81613d5f565b9050919050565b7f4e6f7420656e6f75676820435344000000000000000000000000000000000000600082015250565b6000613dd8600e83613057565b9150613de382613da2565b602082019050919050565b60006020820190508181036000830152613e0781613dcb565b9050919050565b6000613e19826135b2565b9150613e24836135b2565b92508163ffffffff0483118215151615613e4157613e4061398f565b5b828202905092915050565b60008190508160005260206000209050919050565b60006020601f8301049050919050565b600082821b905092915050565b600060088302613eae7fffffffffffffffffffffffffffffffffffffffffffffffffffffffffffffffff82613e71565b613eb88683613e71565b95508019841693508086168417925050509392505050565b6000819050919050565b6000613ef5613ef0613eeb84613179565b613ed0565b613179565b9050919050565b6000819050919050565b613f0f83613eda565b613f23613f1b82613efc565b848454613e7e565b825550505050565b600090565b613f38613f2b565b613f43818484613f06565b505050565b5b81811015613f6757613f5c600082613f30565b600181019050613f49565b5050565b601f821115613fac57613f7d81613e4c565b613f8684613e61565b81016020851015613f95578190505b613fa9613fa185613e61565b830182613f48565b50505b505050565b600082821c905092915050565b6000613fcf60001984600802613fb1565b1980831691505092915050565b6000613fe88383613fbe565b9150826002028217905092915050565b6140018261304c565b67ffffffffffffffff81111561401a57614019613407565b5b614024825461395e565b61402f828285613f6b565b600060209050601f8311600181146140625760008415614050578287015190505b61405a8582613fdc565b8655506140c2565b601f19841661407086613e4c565b60005b8281101561409857848901518255600182019150602085019450602081019050614073565b868310156140b557848901516140b1601f891682613fbe565b8355505b6001600288020188555050505b505050505050565b7f416c7265616479207374616b6564000000000000000000000000000000000000600082015250565b6000614100600e83613057565b915061410b826140ca565b602082019050919050565b6000602082019050818103600083015261412f816140f3565b905091905056fea2646970667358221220e748ef425d6e15807ac7b42c5629c4894a1ab6601821ad88fd3fd0b4fa6dd0f764736f6c634300080f0033",
  "linkReferences": {},
  "deployedLinkReferences": {}
}