{
  "_format": "hh-sol-artifact-1",
  "contractName": "CloudSlit",
  "sourceName": "contracts/CloudSlit.sol",
  "abi": [
    {
      "inputs": [],
      "stateMutability": "nonpayable",
      "type": "constructor"
    },
    {
      "anonymous": false,
      "inputs": [
        {
          "indexed": true,
          "internalType": "address",
          "name": "owner",
          "type": "address"
        },
        {
          "indexed": true,
          "internalType": "address",
          "name": "spender",
          "type": "address"
        },
        {
          "indexed": false,
          "internalType": "uint256",
          "name": "value",
          "type": "uint256"
        }
      ],
      "name": "Approval",
      "type": "event"
    },
    {
      "anonymous": false,
      "inputs": [
        {
          "indexed": true,
          "internalType": "address",
          "name": "from",
          "type": "address"
        },
        {
          "indexed": true,
          "internalType": "address",
          "name": "to",
          "type": "address"
        },
        {
          "indexed": false,
          "internalType": "uint256",
          "name": "value",
          "type": "uint256"
        }
      ],
      "name": "Transfer",
      "type": "event"
    },
    {
      "inputs": [
        {
          "internalType": "address",
          "name": "owner",
          "type": "address"
        },
        {
          "internalType": "address",
          "name": "spender",
          "type": "address"
        }
      ],
      "name": "allowance",
      "outputs": [
        {
          "internalType": "uint256",
          "name": "",
          "type": "uint256"
        }
      ],
      "stateMutability": "view",
      "type": "function"
    },
    {
      "inputs": [
        {
          "internalType": "address",
          "name": "spender",
          "type": "address"
        },
        {
          "internalType": "uint256",
          "name": "value",
          "type": "uint256"
        }
      ],
      "name": "approve",
      "outputs": [
        {
          "internalType": "bool",
          "name": "",
          "type": "bool"
        }
      ],
      "stateMutability": "nonpayable",
      "type": "function"
    },
    {
      "inputs": [
        {
          "internalType": "address",
          "name": "account",
          "type": "address"
        }
      ],
      "name": "balanceOf",
      "outputs": [
        {
          "internalType": "uint256",
          "name": "",
          "type": "uint256"
        }
      ],
      "stateMutability": "view",
      "type": "function"
    },
    {
      "inputs": [
        {
          "internalType": "string",
          "name": "uuid",
          "type": "string"
        }
      ],
      "name": "bindWallet",
      "outputs": [],
      "stateMutability": "nonpayable",
      "type": "function"
    },
    {
      "inputs": [
        {
          "internalType": "string",
          "name": "uuid",
          "type": "string"
        },
        {
          "internalType": "address",
          "name": "newWallet",
          "type": "address"
        }
      ],
      "name": "changeWallet",
      "outputs": [],
      "stateMutability": "nonpayable",
      "type": "function"
    },
    {
      "inputs": [
        {
          "internalType": "string",
          "name": "_orderId",
          "type": "string"
        }
      ],
      "name": "checkOrder",
      "outputs": [
        {
          "internalType": "bool",
          "name": "",
          "type": "bool"
        }
      ],
      "stateMutability": "view",
      "type": "function"
    },
    {
      "inputs": [
        {
          "internalType": "string",
          "name": "_name",
          "type": "string"
        },
        {
          "internalType": "uint32",
          "name": "_duration",
          "type": "uint32"
        },
        {
          "internalType": "string",
          "name": "_orderId",
          "type": "string"
        },
        {
          "internalType": "uint256",
          "name": "_price",
          "type": "uint256"
        }
      ],
      "name": "clientOrder",
      "outputs": [],
      "stateMutability": "nonpayable",
      "type": "function"
    },
    {
      "inputs": [],
      "name": "decimals",
      "outputs": [
        {
          "internalType": "uint8",
          "name": "",
          "type": "uint8"
        }
      ],
      "stateMutability": "view",
      "type": "function"
    },
    {
      "inputs": [],
      "name": "fullnodeDepositAmount",
      "outputs": [
        {
          "internalType": "uint256",
          "name": "",
          "type": "uint256"
        }
      ],
      "stateMutability": "view",
      "type": "function"
    },
    {
      "inputs": [
        {
          "internalType": "string",
          "name": "uuid",
          "type": "string"
        }
      ],
      "name": "getUserInfo",
      "outputs": [
        {
          "internalType": "bool",
          "name": "",
          "type": "bool"
        },
        {
          "internalType": "bool",
          "name": "",
          "type": "bool"
        }
      ],
      "stateMutability": "view",
      "type": "function"
    },
    {
      "inputs": [
        {
          "internalType": "string",
          "name": "uuid",
          "type": "string"
        }
      ],
      "name": "getWallet",
      "outputs": [
        {
          "internalType": "address",
          "name": "",
          "type": "address"
        },
        {
          "internalType": "uint8",
          "name": "",
          "type": "uint8"
        }
      ],
      "stateMutability": "view",
      "type": "function"
    },
    {
      "inputs": [
        {
          "internalType": "uint8",
          "name": "_type",
          "type": "uint8"
        }
      ],
      "name": "isDeposit",
      "outputs": [
        {
          "internalType": "bool",
          "name": "",
          "type": "bool"
        }
      ],
      "stateMutability": "view",
      "type": "function"
    },
    {
      "inputs": [],
      "name": "name",
      "outputs": [
        {
          "internalType": "string",
          "name": "",
          "type": "string"
        }
      ],
      "stateMutability": "view",
      "type": "function"
    },
    {
      "inputs": [],
      "name": "privoderDepositAmount",
      "outputs": [
        {
          "internalType": "uint256",
          "name": "",
          "type": "uint256"
        }
      ],
      "stateMutability": "view",
      "type": "function"
    },
    {
      "inputs": [
        {
          "internalType": "uint8",
          "name": "_type",
          "type": "uint8"
        }
      ],
      "name": "stake",
      "outputs": [],
      "stateMutability": "nonpayable",
      "type": "function"
    },
    {
      "inputs": [],
      "name": "symbol",
      "outputs": [
        {
          "internalType": "string",
          "name": "",
          "type": "string"
        }
      ],
      "stateMutability": "view",
      "type": "function"
    },
    {
      "inputs": [],
      "name": "totalSupply",
      "outputs": [
        {
          "internalType": "uint256",
          "name": "",
          "type": "uint256"
        }
      ],
      "stateMutability": "view",
      "type": "function"
    },
    {
      "inputs": [
        {
          "internalType": "address",
          "name": "to",
          "type": "address"
        },
        {
          "internalType": "uint256",
          "name": "value",
          "type": "uint256"
        }
      ],
      "name": "transfer",
      "outputs": [
        {
          "internalType": "bool",
          "name": "",
          "type": "bool"
        }
      ],
      "stateMutability": "nonpayable",
      "type": "function"
    },
    {
      "inputs": [
        {
          "internalType": "address",
          "name": "from",
          "type": "address"
        },
        {
          "internalType": "address",
          "name": "to",
          "type": "address"
        },
        {
          "internalType": "uint256",
          "name": "value",
          "type": "uint256"
        }
      ],
      "name": "transferFrom",
      "outputs": [
        {
          "internalType": "bool",
          "name": "",
          "type": "bool"
        }
      ],
      "stateMutability": "nonpayable",
      "type": "function"
    },
    {
      "inputs": [
        {
          "internalType": "string",
          "name": "uuid",
          "type": "string"
        }
      ],
      "name": "verifyWallet",
      "outputs": [],
      "stateMutability": "nonpayable",
      "type": "function"
    },
    {
      "inputs": [
        {
          "internalType": "uint8",
          "name": "_type",
          "type": "uint8"
        }
      ],
      "name": "withdraw",
      "outputs": [],
      "stateMutability": "nonpayable",
      "type": "function"
    },
    {
      "inputs": [],
      "name": "withdrawAllOrderTokens",
      "outputs": [],
      "stateMutability": "nonpayable",
      "type": "function"
    },
    {
      "inputs": [
        {
          "internalType": "string",
          "name": "_orderId",
          "type": "string"
        }
      ],
      "name": "withdrawOrderTokens",
      "outputs": [],
      "stateMutability": "nonpayable",
      "type": "function"
    }
  ],
  "bytecode": "0x60806040526040518060400160405280600d81526020017f436c6f7564536c69742044616f00000000000000000000000000000000000000815250600090816200004a919062000395565b506040518060400160405280600381526020017f43534400000000000000000000000000000000000000000000000000000000008152506001908162000091919062000395565b506000600260006101000a81548160ff021916908360ff160217905550620f42406003556113886007556103e8600855348015620000ce57600080fd5b50600354600460003373ffffffffffffffffffffffffffffffffffffffff1673ffffffffffffffffffffffffffffffffffffffff168152602001908152602001600020819055506200047c565b600081519050919050565b7f4e487b7100000000000000000000000000000000000000000000000000000000600052604160045260246000fd5b7f4e487b7100000000000000000000000000000000000000000000000000000000600052602260045260246000fd5b600060028204905060018216806200019d57607f821691505b602082108103620001b357620001b262000155565b5b50919050565b60008190508160005260206000209050919050565b60006020601f8301049050919050565b600082821b905092915050565b6000600883026200021d7fffffffffffffffffffffffffffffffffffffffffffffffffffffffffffffffff82620001de565b620002298683620001de565b95508019841693508086168417925050509392505050565b6000819050919050565b6000819050919050565b600062000276620002706200026a8462000241565b6200024b565b62000241565b9050919050565b6000819050919050565b620002928362000255565b620002aa620002a1826200027d565b848454620001eb565b825550505050565b600090565b620002c1620002b2565b620002ce81848462000287565b505050565b5b81811015620002f657620002ea600082620002b7565b600181019050620002d4565b5050565b601f82111562000345576200030f81620001b9565b6200031a84620001ce565b810160208510156200032a578190505b620003426200033985620001ce565b830182620002d3565b50505b505050565b600082821c905092915050565b60006200036a600019846008026200034a565b1980831691505092915050565b600062000385838362000357565b9150826002028217905092915050565b620003a0826200011b565b67ffffffffffffffff811115620003bc57620003bb62000126565b5b620003c8825462000184565b620003d5828285620002fa565b600060209050601f8311600181146200040d5760008415620003f8578287015190505b62000404858262000377565b86555062000474565b601f1984166200041d86620001b9565b60005b82811015620004475784890151825560018201915060208501945060208101905062000420565b8683101562000467578489015162000463601f89168262000357565b8355505b6001600288020188555050505b505050505050565b612a65806200048c6000396000f3fe608060405234801561001057600080fd5b506004361061014d5760003560e01c806387a858d2116100c3578063cd74c0a71161007c578063cd74c0a71461039e578063d35b1ac2146103bc578063dd62ed3e146103da578063dd6887ed1461040a578063f276b8aa1461043a578063ffc2c9b71461046a5761014d565b806387a858d2146102cb5780638ec012b9146102e757806395d89b4114610303578063a4e2df6614610321578063a9059cbb14610352578063c6ab5d90146103825761014d565b806327a0b34a1161011557806327a0b34a1461020a578063313ce567146102145780635c437c7a14610232578063604f21771461024e57806370a082311461026a5780637c9b7fdd1461029a5761014d565b806306fdde0314610152578063095ea7b31461017057806318160ddd146101a057806323b872dd146101be57806325cfedb5146101ee575b600080fd5b61015a610486565b6040516101679190611e60565b60405180910390f35b61018a60048036038101906101859190611f2a565b610514565b6040516101979190611f85565b60405180910390f35b6101a8610606565b6040516101b59190611faf565b60405180910390f35b6101d860048036038101906101d39190611fca565b61060c565b6040516101e59190611f85565b60405180910390f35b61020860048036038101906102039190612152565b610892565b005b6102126108cd565b005b61021c610a96565b60405161022991906121b7565b60405180910390f35b61024c6004803603810190610247919061220e565b610aa9565b005b610268600480360381019061026391906122d9565b610d8a565b005b610284600480360381019061027f9190612306565b611116565b6040516102919190611faf565b60405180910390f35b6102b460048036038101906102af9190612152565b61115f565b6040516102c2929190612333565b60405180910390f35b6102e560048036038101906102e0919061235c565b6112b1565b005b61030160048036038101906102fc9190612152565b611466565b005b61030b6116a0565b6040516103189190611e60565b60405180910390f35b61033b60048036038101906103369190612152565b61172e565b6040516103499291906123c7565b60405180910390f35b61036c60048036038101906103679190611f2a565b6117ab565b6040516103799190611f85565b60405180910390f35b61039c600480360381019061039791906122d9565b611914565b005b6103a6611b7c565b6040516103b39190611faf565b60405180910390f35b6103c4611b82565b6040516103d19190611faf565b60405180910390f35b6103f460048036038101906103ef91906123f0565b611b88565b6040516104019190611faf565b60405180910390f35b610424600480360381019061041f9190612152565b611c0f565b6040516104319190611f85565b60405180910390f35b610454600480360381019061044f91906122d9565b611c47565b6040516104619190611f85565b60405180910390f35b610484600480360381019061047f9190612152565b611cff565b005b600080546104939061245f565b80601f01602080910402602001604051908101604052809291908181526020018280546104bf9061245f565b801561050c5780601f106104e15761010080835404028352916020019161050c565b820191906000526020600020905b8154815290600101906020018083116104ef57829003601f168201915b505050505081565b600081600560003373ffffffffffffffffffffffffffffffffffffffff1673ffffffffffffffffffffffffffffffffffffffff16815260200190815260200160002060008573ffffffffffffffffffffffffffffffffffffffff1673ffffffffffffffffffffffffffffffffffffffff168152602001908152602001600020819055508273ffffffffffffffffffffffffffffffffffffffff163373ffffffffffffffffffffffffffffffffffffffff167f8c5be1e5ebec7d5bd14f71427d1e84f3dd0314c0f7b2291e5b200ac8c7c3b925846040516105f49190611faf565b60405180910390a36001905092915050565b60035481565b600081600460008673ffffffffffffffffffffffffffffffffffffffff1673ffffffffffffffffffffffffffffffffffffffff16815260200190815260200160002054101561065a57600080fd5b81600560008673ffffffffffffffffffffffffffffffffffffffff1673ffffffffffffffffffffffffffffffffffffffff16815260200190815260200160002060003373ffffffffffffffffffffffffffffffffffffffff1673ffffffffffffffffffffffffffffffffffffffff1681526020019081526020016000205410156106e357600080fd5b81600460008673ffffffffffffffffffffffffffffffffffffffff1673ffffffffffffffffffffffffffffffffffffffff168152602001908152602001600020600082825461073291906124bf565b9250508190555081600560008673ffffffffffffffffffffffffffffffffffffffff1673ffffffffffffffffffffffffffffffffffffffff16815260200190815260200160002060003373ffffffffffffffffffffffffffffffffffffffff1673ffffffffffffffffffffffffffffffffffffffff16815260200190815260200160002060008282546107c591906124bf565b9250508190555081600460008573ffffffffffffffffffffffffffffffffffffffff1673ffffffffffffffffffffffffffffffffffffffff168152602001908152602001600020600082825461081b91906124f3565b925050819055508273ffffffffffffffffffffffffffffffffffffffff168473ffffffffffffffffffffffffffffffffffffffff167fddf252ad1be2c89b69c2b068fc378daa952ba7f163c4a11628f55a4df523b3ef8460405161087f9190611faf565b60405180910390a3600190509392505050565b600b816040516108a29190612585565b908152602001604051809103902060060160009054906101000a900460ff166108ca57600080fd5b50565b6000600a60003373ffffffffffffffffffffffffffffffffffffffff1673ffffffffffffffffffffffffffffffffffffffff168152602001908152602001600020540361091957600080fd5b6000600c60003373ffffffffffffffffffffffffffffffffffffffff1673ffffffffffffffffffffffffffffffffffffffff168152602001908152602001600020805480602002602001604051908101604052809291908181526020016000905b82821015610a265783829060005260206000200180546109999061245f565b80601f01602080910402602001604051908101604052809291908181526020018280546109c59061245f565b8015610a125780601f106109e757610100808354040283529160200191610a12565b820191906000526020600020905b8154815290600101906020018083116109f557829003601f168201915b50505050508152602001906001019061097a565b50505050905060005b8151811015610a9257600b828281518110610a4d57610a4c61259c565b5b6020026020010151604051610a629190612585565b908152602001604051809103902060060160019054906101000a9050508080610a8a906125cb565b915050610a2f565b5050565b600260009054906101000a900460ff1681565b600b82604051610ab99190612585565b908152602001604051809103902060060160009054906101000a900460ff16610b17576040517f08c379a0000000000000000000000000000000000000000000000000000000008152600401610b0e9061265f565b60405180910390fd5b80600460003373ffffffffffffffffffffffffffffffffffffffff1673ffffffffffffffffffffffffffffffffffffffff168152602001908152602001600020541015610b99576040517f08c379a0000000000000000000000000000000000000000000000000000000008152600401610b90906126cb565b60405180910390fd5b80600460003373ffffffffffffffffffffffffffffffffffffffff1673ffffffffffffffffffffffffffffffffffffffff1681526020019081526020016000206000828254610be891906124bf565b925050819055506000610e109050604051806101200160405280868152602001428152602001828663ffffffff16610c2091906126eb565b42610c2b91906124f3565b8152602001600081526020018563ffffffff1681526020018381526020016001151581526020016000151581526020013373ffffffffffffffffffffffffffffffffffffffff16815250600b84604051610c859190612585565b90815260200160405180910390206000820151816000019081610ca891906128f1565b5060208201518160010155604082015181600201556060820151816003015560808201518160040160006101000a81548163ffffffff021916908363ffffffff16021790555060a0820151816005015560c08201518160060160006101000a81548160ff02191690831515021790555060e08201518160060160016101000a81548160ff0219169083151502179055506101008201518160060160026101000a81548173ffffffffffffffffffffffffffffffffffffffff021916908373ffffffffffffffffffffffffffffffffffffffff1602179055509050505050505050565b60018160ff1603610f50576000600960003373ffffffffffffffffffffffffffffffffffffffff1673ffffffffffffffffffffffffffffffffffffffff1681526020019081526020016000205414610e17576040517f08c379a0000000000000000000000000000000000000000000000000000000008152600401610e0e90612a0f565b60405180910390fd5b600754600460003373ffffffffffffffffffffffffffffffffffffffff1673ffffffffffffffffffffffffffffffffffffffff168152602001908152602001600020541015610e9b576040517f08c379a0000000000000000000000000000000000000000000000000000000008152600401610e92906126cb565b60405180910390fd5b600754600460003373ffffffffffffffffffffffffffffffffffffffff1673ffffffffffffffffffffffffffffffffffffffff1681526020019081526020016000206000828254610eec91906124bf565b92505081905550600754600960003373ffffffffffffffffffffffffffffffffffffffff1673ffffffffffffffffffffffffffffffffffffffff1681526020019081526020016000206000828254610f4491906124f3565b92505081905550611113565b60028160ff1603611112576000600a60003373ffffffffffffffffffffffffffffffffffffffff1673ffffffffffffffffffffffffffffffffffffffff1681526020019081526020016000205414610fdd576040517f08c379a0000000000000000000000000000000000000000000000000000000008152600401610fd490612a0f565b60405180910390fd5b600854600460003373ffffffffffffffffffffffffffffffffffffffff1673ffffffffffffffffffffffffffffffffffffffff168152602001908152602001600020541015611061576040517f08c379a0000000000000000000000000000000000000000000000000000000008152600401611058906126cb565b60405180910390fd5b600854600460003373ffffffffffffffffffffffffffffffffffffffff1673ffffffffffffffffffffffffffffffffffffffff16815260200190815260200160002060008282546110b291906124bf565b92505081905550600854600a60003373ffffffffffffffffffffffffffffffffffffffff1673ffffffffffffffffffffffffffffffffffffffff168152602001908152602001600020600082825461110a91906124f3565b925050819055505b5b50565b6000600460008373ffffffffffffffffffffffffffffffffffffffff1673ffffffffffffffffffffffffffffffffffffffff168152602001908152602001600020549050919050565b60008060026006846040516111749190612585565b908152602001604051809103902060000160149054906101000a900460ff1660ff16146111a057600080fd5b6000600960006006866040516111b69190612585565b908152602001604051809103902060000160009054906101000a900473ffffffffffffffffffffffffffffffffffffffff1673ffffffffffffffffffffffffffffffffffffffff1673ffffffffffffffffffffffffffffffffffffffff16815260200190815260200160002054116000600a600060068760405161123a9190612585565b908152602001604051809103902060000160009054906101000a900473ffffffffffffffffffffffffffffffffffffffff1673ffffffffffffffffffffffffffffffffffffffff1673ffffffffffffffffffffffffffffffffffffffff168152602001908152602001600020541191509150915091565b600073ffffffffffffffffffffffffffffffffffffffff168173ffffffffffffffffffffffffffffffffffffffff16036112ea57600080fd5b60016006836040516112fc9190612585565b908152602001604051809103902060000160149054906101000a900460ff1660ff160361138857806006836040516113349190612585565b908152602001604051809103902060000160006101000a81548173ffffffffffffffffffffffffffffffffffffffff021916908373ffffffffffffffffffffffffffffffffffffffff160217905550611462565b3373ffffffffffffffffffffffffffffffffffffffff166006836040516113af9190612585565b908152602001604051809103902060000160009054906101000a900473ffffffffffffffffffffffffffffffffffffffff1673ffffffffffffffffffffffffffffffffffffffff161461140157600080fd5b806006836040516114129190612585565b908152602001604051809103902060000160006101000a81548173ffffffffffffffffffffffffffffffffffffffff021916908373ffffffffffffffffffffffffffffffffffffffff1602179055505b5050565b600073ffffffffffffffffffffffffffffffffffffffff1660068260405161148e9190612585565b908152602001604051809103902060000160009054906101000a900473ffffffffffffffffffffffffffffffffffffffff1673ffffffffffffffffffffffffffffffffffffffff16146114e057600080fd5b6000600960003373ffffffffffffffffffffffffffffffffffffffff1673ffffffffffffffffffffffffffffffffffffffff16815260200190815260200160002054036115e45760405180604001604052803373ffffffffffffffffffffffffffffffffffffffff168152602001600160ff168152506006826040516115669190612585565b908152602001604051809103902060008201518160000160006101000a81548173ffffffffffffffffffffffffffffffffffffffff021916908373ffffffffffffffffffffffffffffffffffffffff16021790555060208201518160000160146101000a81548160ff021916908360ff16021790555090505061169d565b60405180604001604052803373ffffffffffffffffffffffffffffffffffffffff168152602001600260ff168152506006826040516116239190612585565b908152602001604051809103902060008201518160000160006101000a81548173ffffffffffffffffffffffffffffffffffffffff021916908373ffffffffffffffffffffffffffffffffffffffff16021790555060208201518160000160146101000a81548160ff021916908360ff1602179055509050505b50565b600180546116ad9061245f565b80601f01602080910402602001604051908101604052809291908181526020018280546116d99061245f565b80156117265780601f106116fb57610100808354040283529160200191611726565b820191906000526020600020905b81548152906001019060200180831161170957829003601f168201915b505050505081565b6000806006836040516117419190612585565b908152602001604051809103902060000160009054906101000a900473ffffffffffffffffffffffffffffffffffffffff166006846040516117839190612585565b908152602001604051809103902060000160149054906101000a900460ff1691509150915091565b600081600460003373ffffffffffffffffffffffffffffffffffffffff1673ffffffffffffffffffffffffffffffffffffffff1681526020019081526020016000205410156117f957600080fd5b81600460003373ffffffffffffffffffffffffffffffffffffffff1673ffffffffffffffffffffffffffffffffffffffff168152602001908152602001600020600082825461184891906124bf565b9250508190555081600460008573ffffffffffffffffffffffffffffffffffffffff1673ffffffffffffffffffffffffffffffffffffffff168152602001908152602001600020600082825461189e91906124f3565b925050819055508273ffffffffffffffffffffffffffffffffffffffff163373ffffffffffffffffffffffffffffffffffffffff167fddf252ad1be2c89b69c2b068fc378daa952ba7f163c4a11628f55a4df523b3ef846040516119029190611faf565b60405180910390a36001905092915050565b60018160ff1603611a48576000600960003373ffffffffffffffffffffffffffffffffffffffff1673ffffffffffffffffffffffffffffffffffffffff168152602001908152602001600020541161196b57600080fd5b600960003373ffffffffffffffffffffffffffffffffffffffff1673ffffffffffffffffffffffffffffffffffffffff16815260200190815260200160002054600460003373ffffffffffffffffffffffffffffffffffffffff1673ffffffffffffffffffffffffffffffffffffffff16815260200190815260200160002060008282546119f991906124f3565b92505081905550600960003373ffffffffffffffffffffffffffffffffffffffff1673ffffffffffffffffffffffffffffffffffffffff16815260200190815260200160002060009055611b79565b60028160ff1603611b78576000600a60003373ffffffffffffffffffffffffffffffffffffffff1673ffffffffffffffffffffffffffffffffffffffff1681526020019081526020016000205411611a9f57600080fd5b600a60003373ffffffffffffffffffffffffffffffffffffffff1673ffffffffffffffffffffffffffffffffffffffff16815260200190815260200160002054600460003373ffffffffffffffffffffffffffffffffffffffff1673ffffffffffffffffffffffffffffffffffffffff1681526020019081526020016000206000828254611b2d91906124f3565b92505081905550600a60003373ffffffffffffffffffffffffffffffffffffffff1673ffffffffffffffffffffffffffffffffffffffff168152602001908152602001600020600090555b5b50565b60085481565b60075481565b6000600560008473ffffffffffffffffffffffffffffffffffffffff1673ffffffffffffffffffffffffffffffffffffffff16815260200190815260200160002060008373ffffffffffffffffffffffffffffffffffffffff1673ffffffffffffffffffffffffffffffffffffffff16815260200190815260200160002054905092915050565b6000600b82604051611c219190612585565b908152602001604051809103902060060160009054906101000a900460ff169050919050565b600060018260ff1603611c9f576000600960003373ffffffffffffffffffffffffffffffffffffffff1673ffffffffffffffffffffffffffffffffffffffff1681526020019081526020016000205414159050611cfa565b60028260ff1603611cf5576000600a60003373ffffffffffffffffffffffffffffffffffffffff1673ffffffffffffffffffffffffffffffffffffffff1681526020019081526020016000205414159050611cfa565b600090505b919050565b6000600960003373ffffffffffffffffffffffffffffffffffffffff1673ffffffffffffffffffffffffffffffffffffffff1681526020019081526020016000205411611d4b57600080fd5b6001600682604051611d5d9190612585565b908152602001604051809103902060000160149054906101000a900460ff1660ff1614611d8957600080fd5b6002600682604051611d9b9190612585565b908152602001604051809103902060000160146101000a81548160ff021916908360ff16021790555050565b600081519050919050565b600082825260208201905092915050565b60005b83811015611e01578082015181840152602081019050611de6565b83811115611e10576000848401525b50505050565b6000601f19601f8301169050919050565b6000611e3282611dc7565b611e3c8185611dd2565b9350611e4c818560208601611de3565b611e5581611e16565b840191505092915050565b60006020820190508181036000830152611e7a8184611e27565b905092915050565b6000604051905090565b600080fd5b600080fd5b600073ffffffffffffffffffffffffffffffffffffffff82169050919050565b6000611ec182611e96565b9050919050565b611ed181611eb6565b8114611edc57600080fd5b50565b600081359050611eee81611ec8565b92915050565b6000819050919050565b611f0781611ef4565b8114611f1257600080fd5b50565b600081359050611f2481611efe565b92915050565b60008060408385031215611f4157611f40611e8c565b5b6000611f4f85828601611edf565b9250506020611f6085828601611f15565b9150509250929050565b60008115159050919050565b611f7f81611f6a565b82525050565b6000602082019050611f9a6000830184611f76565b92915050565b611fa981611ef4565b82525050565b6000602082019050611fc46000830184611fa0565b92915050565b600080600060608486031215611fe357611fe2611e8c565b5b6000611ff186828701611edf565b935050602061200286828701611edf565b925050604061201386828701611f15565b9150509250925092565b600080fd5b600080fd5b7f4e487b7100000000000000000000000000000000000000000000000000000000600052604160045260246000fd5b61205f82611e16565b810181811067ffffffffffffffff8211171561207e5761207d612027565b5b80604052505050565b6000612091611e82565b905061209d8282612056565b919050565b600067ffffffffffffffff8211156120bd576120bc612027565b5b6120c682611e16565b9050602081019050919050565b82818337600083830152505050565b60006120f56120f0846120a2565b612087565b90508281526020810184848401111561211157612110612022565b5b61211c8482856120d3565b509392505050565b600082601f8301126121395761213861201d565b5b81356121498482602086016120e2565b91505092915050565b60006020828403121561216857612167611e8c565b5b600082013567ffffffffffffffff81111561218657612185611e91565b5b61219284828501612124565b91505092915050565b600060ff82169050919050565b6121b18161219b565b82525050565b60006020820190506121cc60008301846121a8565b92915050565b600063ffffffff82169050919050565b6121eb816121d2565b81146121f657600080fd5b50565b600081359050612208816121e2565b92915050565b6000806000806080858703121561222857612227611e8c565b5b600085013567ffffffffffffffff81111561224657612245611e91565b5b61225287828801612124565b9450506020612263878288016121f9565b935050604085013567ffffffffffffffff81111561228457612283611e91565b5b61229087828801612124565b92505060606122a187828801611f15565b91505092959194509250565b6122b68161219b565b81146122c157600080fd5b50565b6000813590506122d3816122ad565b92915050565b6000602082840312156122ef576122ee611e8c565b5b60006122fd848285016122c4565b91505092915050565b60006020828403121561231c5761231b611e8c565b5b600061232a84828501611edf565b91505092915050565b60006040820190506123486000830185611f76565b6123556020830184611f76565b9392505050565b6000806040838503121561237357612372611e8c565b5b600083013567ffffffffffffffff81111561239157612390611e91565b5b61239d85828601612124565b92505060206123ae85828601611edf565b9150509250929050565b6123c181611eb6565b82525050565b60006040820190506123dc60008301856123b8565b6123e960208301846121a8565b9392505050565b6000806040838503121561240757612406611e8c565b5b600061241585828601611edf565b925050602061242685828601611edf565b9150509250929050565b7f4e487b7100000000000000000000000000000000000000000000000000000000600052602260045260246000fd5b6000600282049050600182168061247757607f821691505b60208210810361248a57612489612430565b5b50919050565b7f4e487b7100000000000000000000000000000000000000000000000000000000600052601160045260246000fd5b60006124ca82611ef4565b91506124d583611ef4565b9250828210156124e8576124e7612490565b5b828203905092915050565b60006124fe82611ef4565b915061250983611ef4565b9250827fffffffffffffffffffffffffffffffffffffffffffffffffffffffffffffffff0382111561253e5761253d612490565b5b828201905092915050565b600081905092915050565b600061255f82611dc7565b6125698185612549565b9350612579818560208601611de3565b80840191505092915050565b60006125918284612554565b915081905092915050565b7f4e487b7100000000000000000000000000000000000000000000000000000000600052603260045260246000fd5b60006125d682611ef4565b91507fffffffffffffffffffffffffffffffffffffffffffffffffffffffffffffffff820361260857612607612490565b5b600182019050919050565b7f416c726561647920706169640000000000000000000000000000000000000000600082015250565b6000612649600c83611dd2565b915061265482612613565b602082019050919050565b600060208201905081810360008301526126788161263c565b9050919050565b7f4e6f7420656e6f75676820746f6b656e73000000000000000000000000000000600082015250565b60006126b5601183611dd2565b91506126c08261267f565b602082019050919050565b600060208201905081810360008301526126e4816126a8565b9050919050565b60006126f682611ef4565b915061270183611ef4565b9250817fffffffffffffffffffffffffffffffffffffffffffffffffffffffffffffffff048311821515161561273a57612739612490565b5b828202905092915050565b60008190508160005260206000209050919050565b60006020601f8301049050919050565b600082821b905092915050565b6000600883026127a77fffffffffffffffffffffffffffffffffffffffffffffffffffffffffffffffff8261276a565b6127b1868361276a565b95508019841693508086168417925050509392505050565b6000819050919050565b60006127ee6127e96127e484611ef4565b6127c9565b611ef4565b9050919050565b6000819050919050565b612808836127d3565b61281c612814826127f5565b848454612777565b825550505050565b600090565b612831612824565b61283c8184846127ff565b505050565b5b8181101561286057612855600082612829565b600181019050612842565b5050565b601f8211156128a55761287681612745565b61287f8461275a565b8101602085101561288e578190505b6128a261289a8561275a565b830182612841565b50505b505050565b600082821c905092915050565b60006128c8600019846008026128aa565b1980831691505092915050565b60006128e183836128b7565b9150826002028217905092915050565b6128fa82611dc7565b67ffffffffffffffff81111561291357612912612027565b5b61291d825461245f565b612928828285612864565b600060209050601f83116001811461295b5760008415612949578287015190505b61295385826128d5565b8655506129bb565b601f19841661296986612745565b60005b828110156129915784890151825560018201915060208501945060208101905061296c565b868310156129ae57848901516129aa601f8916826128b7565b8355505b6001600288020188555050505b505050505050565b7f416c7265616479207374616b6564000000000000000000000000000000000000600082015250565b60006129f9600e83611dd2565b9150612a04826129c3565b602082019050919050565b60006020820190508181036000830152612a28816129ec565b905091905056fea26469706673582212200fcbab4783264046b1868ef08e3ae0ddc4dd7f58097db726404fcb24522601e564736f6c634300080f0033",
  "linkReferences": {},
  "deployedLinkReferences": {}
}