{
  "_format": "hh-sol-artifact-1",
  "contractName": "ERC20",
  "sourceName": "contracts/Erc20.sol",
  "abi": [
    {
      "anonymous": false,
      "inputs": [
        {
          "indexed": true,
          "internalType": "address",
          "name": "owner",
          "type": "address"
        },
        {
          "indexed": true,
          "internalType": "address",
          "name": "spender",
          "type": "address"
        },
        {
          "indexed": false,
          "internalType": "uint256",
          "name": "value",
          "type": "uint256"
        }
      ],
      "name": "Approval",
      "type": "event"
    },
    {
      "anonymous": false,
      "inputs": [
        {
          "indexed": true,
          "internalType": "address",
          "name": "from",
          "type": "address"
        },
        {
          "indexed": true,
          "internalType": "address",
          "name": "to",
          "type": "address"
        },
        {
          "indexed": false,
          "internalType": "uint256",
          "name": "value",
          "type": "uint256"
        }
      ],
      "name": "Transfer",
      "type": "event"
    },
    {
      "inputs": [
        {
          "internalType": "address",
          "name": "owner",
          "type": "address"
        },
        {
          "internalType": "address",
          "name": "spender",
          "type": "address"
        }
      ],
      "name": "allowance",
      "outputs": [
        {
          "internalType": "uint256",
          "name": "",
          "type": "uint256"
        }
      ],
      "stateMutability": "view",
      "type": "function"
    },
    {
      "inputs": [
        {
          "internalType": "address",
          "name": "spender",
          "type": "address"
        },
        {
          "internalType": "uint256",
          "name": "value",
          "type": "uint256"
        }
      ],
      "name": "approve",
      "outputs": [
        {
          "internalType": "bool",
          "name": "",
          "type": "bool"
        }
      ],
      "stateMutability": "nonpayable",
      "type": "function"
    },
    {
      "inputs": [
        {
          "internalType": "address",
          "name": "account",
          "type": "address"
        }
      ],
      "name": "balanceOf",
      "outputs": [
        {
          "internalType": "uint256",
          "name": "",
          "type": "uint256"
        }
      ],
      "stateMutability": "view",
      "type": "function"
    },
    {
      "inputs": [],
      "name": "decimals",
      "outputs": [
        {
          "internalType": "uint8",
          "name": "",
          "type": "uint8"
        }
      ],
      "stateMutability": "view",
      "type": "function"
    },
    {
      "inputs": [],
      "name": "name",
      "outputs": [
        {
          "internalType": "string",
          "name": "",
          "type": "string"
        }
      ],
      "stateMutability": "view",
      "type": "function"
    },
    {
      "inputs": [],
      "name": "symbol",
      "outputs": [
        {
          "internalType": "string",
          "name": "",
          "type": "string"
        }
      ],
      "stateMutability": "view",
      "type": "function"
    },
    {
      "inputs": [],
      "name": "totalSupply",
      "outputs": [
        {
          "internalType": "uint256",
          "name": "",
          "type": "uint256"
        }
      ],
      "stateMutability": "view",
      "type": "function"
    },
    {
      "inputs": [
        {
          "internalType": "address",
          "name": "to",
          "type": "address"
        },
        {
          "internalType": "uint256",
          "name": "amount",
          "type": "uint256"
        }
      ],
      "name": "transfer",
      "outputs": [
        {
          "internalType": "bool",
          "name": "",
          "type": "bool"
        }
      ],
      "stateMutability": "nonpayable",
      "type": "function"
    }
  ],
  "bytecode": "0x60806040526040518060400160405280600d81526020017f436c6f7564536c69742044616f00000000000000000000000000000000000000815250600090816200004a91906200033c565b506040518060400160405280600381526020017f4353440000000000000000000000000000000000000000000000000000000000815250600190816200009191906200033c565b506012600360006101000a81548160ff021916908360ff160217905550348015620000bb57600080fd5b5062000423565b600081519050919050565b7f4e487b7100000000000000000000000000000000000000000000000000000000600052604160045260246000fd5b7f4e487b7100000000000000000000000000000000000000000000000000000000600052602260045260246000fd5b600060028204905060018216806200014457607f821691505b6020821081036200015a5762000159620000fc565b5b50919050565b60008190508160005260206000209050919050565b60006020601f8301049050919050565b600082821b905092915050565b600060088302620001c47fffffffffffffffffffffffffffffffffffffffffffffffffffffffffffffffff8262000185565b620001d0868362000185565b95508019841693508086168417925050509392505050565b6000819050919050565b6000819050919050565b60006200021d620002176200021184620001e8565b620001f2565b620001e8565b9050919050565b6000819050919050565b6200023983620001fc565b62000251620002488262000224565b84845462000192565b825550505050565b600090565b6200026862000259565b620002758184846200022e565b505050565b5b818110156200029d57620002916000826200025e565b6001810190506200027b565b5050565b601f821115620002ec57620002b68162000160565b620002c18462000175565b81016020851015620002d1578190505b620002e9620002e08562000175565b8301826200027a565b50505b505050565b600082821c905092915050565b60006200031160001984600802620002f1565b1980831691505092915050565b60006200032c8383620002fe565b9150826002028217905092915050565b6200034782620000c2565b67ffffffffffffffff811115620003635762000362620000cd565b5b6200036f82546200012b565b6200037c828285620002a1565b600060209050601f831160018114620003b457600084156200039f578287015190505b620003ab85826200031e565b8655506200041b565b601f198416620003c48662000160565b60005b82811015620003ee57848901518255600182019150602085019450602081019050620003c7565b868310156200040e57848901516200040a601f891682620002fe565b8355505b6001600288020188555050505b505050505050565b610cde80620004336000396000f3fe608060405234801561001057600080fd5b50600436106100885760003560e01c806370a082311161005b57806370a082311461011757806395d89b4114610147578063a9059cbb14610165578063dd62ed3e1461019557610088565b806306fdde031461008d578063095ea7b3146100ab57806318160ddd146100db578063313ce567146100f9575b600080fd5b6100956101c5565b6040516100a29190610790565b60405180910390f35b6100c560048036038101906100c0919061084b565b610253565b6040516100d291906108a6565b60405180910390f35b6100e36102e0565b6040516100f091906108d0565b60405180910390f35b6101016102e6565b60405161010e9190610907565b60405180910390f35b610131600480360381019061012c9190610922565b6102f9565b60405161013e91906108d0565b60405180910390f35b61014f610342565b60405161015c9190610790565b60405180910390f35b61017f600480360381019061017a919061084b565b6103d0565b60405161018c91906108a6565b60405180910390f35b6101af60048036038101906101aa919061094f565b610469565b6040516101bc91906108d0565b60405180910390f35b600080546101d2906109be565b80601f01602080910402602001604051908101604052809291908181526020018280546101fe906109be565b801561024b5780601f106102205761010080835404028352916020019161024b565b820191906000526020600020905b81548152906001019060200180831161022e57829003601f168201915b505050505081565b600081600560003373ffffffffffffffffffffffffffffffffffffffff1673ffffffffffffffffffffffffffffffffffffffff16815260200190815260200160002060008573ffffffffffffffffffffffffffffffffffffffff1673ffffffffffffffffffffffffffffffffffffffff168152602001908152602001600020819055506001905092915050565b60025481565b600360009054906101000a900460ff1681565b6000600460008373ffffffffffffffffffffffffffffffffffffffff1673ffffffffffffffffffffffffffffffffffffffff168152602001908152602001600020549050919050565b6001805461034f906109be565b80601f016020809104026020016040519081016040528092919081815260200182805461037b906109be565b80156103c85780601f1061039d576101008083540402835291602001916103c8565b820191906000526020600020905b8154815290600101906020018083116103ab57829003601f168201915b505050505081565b600081600460003373ffffffffffffffffffffffffffffffffffffffff1673ffffffffffffffffffffffffffffffffffffffff168152602001908152602001600020541015610454576040517f08c379a000000000000000000000000000000000000000000000000000000000815260040161044b90610a3b565b60405180910390fd5b61045f3384846104f0565b6001905092915050565b6000600560008473ffffffffffffffffffffffffffffffffffffffff1673ffffffffffffffffffffffffffffffffffffffff16815260200190815260200160002060008373ffffffffffffffffffffffffffffffffffffffff1673ffffffffffffffffffffffffffffffffffffffff16815260200190815260200160002054905092915050565b600073ffffffffffffffffffffffffffffffffffffffff168373ffffffffffffffffffffffffffffffffffffffff160361055f576040517f08c379a000000000000000000000000000000000000000000000000000000000815260040161055690610acd565b60405180910390fd5b600073ffffffffffffffffffffffffffffffffffffffff168273ffffffffffffffffffffffffffffffffffffffff16036105ce576040517f08c379a00000000000000000000000000000000000000000000000000000000081526004016105c590610b5f565b60405180910390fd5b6000600460008573ffffffffffffffffffffffffffffffffffffffff1673ffffffffffffffffffffffffffffffffffffffff16815260200190815260200160002054905081811015610655576040517f08c379a000000000000000000000000000000000000000000000000000000000815260040161064c90610bf1565b60405180910390fd5b81816106619190610c40565b600460008673ffffffffffffffffffffffffffffffffffffffff1673ffffffffffffffffffffffffffffffffffffffff1681526020019081526020016000208190555081600460008573ffffffffffffffffffffffffffffffffffffffff1673ffffffffffffffffffffffffffffffffffffffff16815260200190815260200160002060008282546106f39190610c74565b9250508190555050505050565b600081519050919050565b600082825260208201905092915050565b60005b8381101561073a57808201518184015260208101905061071f565b60008484015250505050565b6000601f19601f8301169050919050565b600061076282610700565b61076c818561070b565b935061077c81856020860161071c565b61078581610746565b840191505092915050565b600060208201905081810360008301526107aa8184610757565b905092915050565b600080fd5b600073ffffffffffffffffffffffffffffffffffffffff82169050919050565b60006107e2826107b7565b9050919050565b6107f2816107d7565b81146107fd57600080fd5b50565b60008135905061080f816107e9565b92915050565b6000819050919050565b61082881610815565b811461083357600080fd5b50565b6000813590506108458161081f565b92915050565b60008060408385031215610862576108616107b2565b5b600061087085828601610800565b925050602061088185828601610836565b9150509250929050565b60008115159050919050565b6108a08161088b565b82525050565b60006020820190506108bb6000830184610897565b92915050565b6108ca81610815565b82525050565b60006020820190506108e560008301846108c1565b92915050565b600060ff82169050919050565b610901816108eb565b82525050565b600060208201905061091c60008301846108f8565b92915050565b600060208284031215610938576109376107b2565b5b600061094684828501610800565b91505092915050565b60008060408385031215610966576109656107b2565b5b600061097485828601610800565b925050602061098585828601610800565b9150509250929050565b7f4e487b7100000000000000000000000000000000000000000000000000000000600052602260045260246000fd5b600060028204905060018216806109d657607f821691505b6020821081036109e9576109e861098f565b5b50919050565b7f4e6f7420656e6f75676820746f6b656e73000000000000000000000000000000600082015250565b6000610a2560118361070b565b9150610a30826109ef565b602082019050919050565b60006020820190508181036000830152610a5481610a18565b9050919050565b7f45524332303a207472616e736665722066726f6d20746865207a65726f20616460008201527f6472657373000000000000000000000000000000000000000000000000000000602082015250565b6000610ab760258361070b565b9150610ac282610a5b565b604082019050919050565b60006020820190508181036000830152610ae681610aaa565b9050919050565b7f45524332303a207472616e7366657220746f20746865207a65726f206164647260008201527f6573730000000000000000000000000000000000000000000000000000000000602082015250565b6000610b4960238361070b565b9150610b5482610aed565b604082019050919050565b60006020820190508181036000830152610b7881610b3c565b9050919050565b7f45524332303a207472616e7366657220616d6f756e742065786365656473206260008201527f616c616e63650000000000000000000000000000000000000000000000000000602082015250565b6000610bdb60268361070b565b9150610be682610b7f565b604082019050919050565b60006020820190508181036000830152610c0a81610bce565b9050919050565b7f4e487b7100000000000000000000000000000000000000000000000000000000600052601160045260246000fd5b6000610c4b82610815565b9150610c5683610815565b9250828203905081811115610c6e57610c6d610c11565b5b92915050565b6000610c7f82610815565b9150610c8a83610815565b9250828201905080821115610ca257610ca1610c11565b5b9291505056fea2646970667358221220ec70ecdd02ff02642bba26d2760261c830ef407e1d18bb1b2203ea630de7f60364736f6c63430008110033",
  "linkReferences": {},
  "deployedLinkReferences": {}
}