{
  "_format": "hh-sol-artifact-1",
  "contractName": "Token",
  "sourceName": "contracts/Token.sol",
  "abi": [
    {
      "inputs": [],
      "stateMutability": "nonpayable",
      "type": "constructor"
    },
    {
      "anonymous": false,
      "inputs": [
        {
          "indexed": true,
          "internalType": "address",
          "name": "owner",
          "type": "address"
        },
        {
          "indexed": true,
          "internalType": "address",
          "name": "spender",
          "type": "address"
        },
        {
          "indexed": false,
          "internalType": "uint256",
          "name": "value",
          "type": "uint256"
        }
      ],
      "name": "Approval",
      "type": "event"
    },
    {
      "anonymous": false,
      "inputs": [
        {
          "indexed": true,
          "internalType": "address",
          "name": "from",
          "type": "address"
        },
        {
          "indexed": true,
          "internalType": "address",
          "name": "to",
          "type": "address"
        },
        {
          "indexed": false,
          "internalType": "uint256",
          "name": "value",
          "type": "uint256"
        }
      ],
      "name": "Transfer",
      "type": "event"
    },
    {
      "inputs": [
        {
          "internalType": "address",
          "name": "owner",
          "type": "address"
        },
        {
          "internalType": "address",
          "name": "spender",
          "type": "address"
        }
      ],
      "name": "allowance",
      "outputs": [
        {
          "internalType": "uint256",
          "name": "",
          "type": "uint256"
        }
      ],
      "stateMutability": "view",
      "type": "function"
    },
    {
      "inputs": [
        {
          "internalType": "address",
          "name": "spender",
          "type": "address"
        },
        {
          "internalType": "uint256",
          "name": "value",
          "type": "uint256"
        }
      ],
      "name": "approve",
      "outputs": [
        {
          "internalType": "bool",
          "name": "",
          "type": "bool"
        }
      ],
      "stateMutability": "nonpayable",
      "type": "function"
    },
    {
      "inputs": [
        {
          "internalType": "address",
          "name": "account",
          "type": "address"
        }
      ],
      "name": "balanceOf",
      "outputs": [
        {
          "internalType": "uint256",
          "name": "",
          "type": "uint256"
        }
      ],
      "stateMutability": "view",
      "type": "function"
    },
    {
      "inputs": [
        {
          "internalType": "string",
          "name": "orderId",
          "type": "string"
        }
      ],
      "name": "checkOrder",
      "outputs": [
        {
          "internalType": "bool",
          "name": "",
          "type": "bool"
        }
      ],
      "stateMutability": "view",
      "type": "function"
    },
    {
      "inputs": [
        {
          "internalType": "string",
          "name": "orderId",
          "type": "string"
        },
        {
          "internalType": "uint256",
          "name": "_orderPrice",
          "type": "uint256"
        }
      ],
      "name": "clientOrder",
      "outputs": [],
      "stateMutability": "nonpayable",
      "type": "function"
    },
    {
      "inputs": [],
      "name": "decimals",
      "outputs": [
        {
          "internalType": "uint8",
          "name": "",
          "type": "uint8"
        }
      ],
      "stateMutability": "view",
      "type": "function"
    },
    {
      "inputs": [
        {
          "internalType": "uint8",
          "name": "_type",
          "type": "uint8"
        }
      ],
      "name": "deposit",
      "outputs": [],
      "stateMutability": "nonpayable",
      "type": "function"
    },
    {
      "inputs": [],
      "name": "fullnodeDepositAmount",
      "outputs": [
        {
          "internalType": "uint256",
          "name": "",
          "type": "uint256"
        }
      ],
      "stateMutability": "view",
      "type": "function"
    },
    {
      "inputs": [
        {
          "internalType": "uint8",
          "name": "_type",
          "type": "uint8"
        }
      ],
      "name": "isDeposit",
      "outputs": [
        {
          "internalType": "bool",
          "name": "",
          "type": "bool"
        }
      ],
      "stateMutability": "view",
      "type": "function"
    },
    {
      "inputs": [],
      "name": "name",
      "outputs": [
        {
          "internalType": "string",
          "name": "",
          "type": "string"
        }
      ],
      "stateMutability": "view",
      "type": "function"
    },
    {
      "inputs": [],
      "name": "privoderDepositAmount",
      "outputs": [
        {
          "internalType": "uint256",
          "name": "",
          "type": "uint256"
        }
      ],
      "stateMutability": "view",
      "type": "function"
    },
    {
      "inputs": [],
      "name": "symbol",
      "outputs": [
        {
          "internalType": "string",
          "name": "",
          "type": "string"
        }
      ],
      "stateMutability": "view",
      "type": "function"
    },
    {
      "inputs": [],
      "name": "totalSupply",
      "outputs": [
        {
          "internalType": "uint256",
          "name": "",
          "type": "uint256"
        }
      ],
      "stateMutability": "view",
      "type": "function"
    },
    {
      "inputs": [
        {
          "internalType": "address",
          "name": "to",
          "type": "address"
        },
        {
          "internalType": "uint256",
          "name": "value",
          "type": "uint256"
        }
      ],
      "name": "transfer",
      "outputs": [
        {
          "internalType": "bool",
          "name": "",
          "type": "bool"
        }
      ],
      "stateMutability": "nonpayable",
      "type": "function"
    },
    {
      "inputs": [
        {
          "internalType": "address",
          "name": "from",
          "type": "address"
        },
        {
          "internalType": "address",
          "name": "to",
          "type": "address"
        },
        {
          "internalType": "uint256",
          "name": "value",
          "type": "uint256"
        }
      ],
      "name": "transferFrom",
      "outputs": [
        {
          "internalType": "bool",
          "name": "",
          "type": "bool"
        }
      ],
      "stateMutability": "nonpayable",
      "type": "function"
    },
    {
      "inputs": [
        {
          "internalType": "uint8",
          "name": "_type",
          "type": "uint8"
        }
      ],
      "name": "withdraw",
      "outputs": [],
      "stateMutability": "nonpayable",
      "type": "function"
    }
  ],
  "bytecode": "0x60806040526040518060400160405280600d81526020017f436c6f7564536c69742044616f00000000000000000000000000000000000000815250600090816200004a919062000395565b506040518060400160405280600381526020017f43534400000000000000000000000000000000000000000000000000000000008152506001908162000091919062000395565b506000600260006101000a81548160ff021916908360ff160217905550620f42406003556113886006556103e8600755348015620000ce57600080fd5b50600354600460003373ffffffffffffffffffffffffffffffffffffffff1673ffffffffffffffffffffffffffffffffffffffff168152602001908152602001600020819055506200047c565b600081519050919050565b7f4e487b7100000000000000000000000000000000000000000000000000000000600052604160045260246000fd5b7f4e487b7100000000000000000000000000000000000000000000000000000000600052602260045260246000fd5b600060028204905060018216806200019d57607f821691505b602082108103620001b357620001b262000155565b5b50919050565b60008190508160005260206000209050919050565b60006020601f8301049050919050565b600082821b905092915050565b6000600883026200021d7fffffffffffffffffffffffffffffffffffffffffffffffffffffffffffffffff82620001de565b620002298683620001de565b95508019841693508086168417925050509392505050565b6000819050919050565b6000819050919050565b600062000276620002706200026a8462000241565b6200024b565b62000241565b9050919050565b6000819050919050565b620002928362000255565b620002aa620002a1826200027d565b848454620001eb565b825550505050565b600090565b620002c1620002b2565b620002ce81848462000287565b505050565b5b81811015620002f657620002ea600082620002b7565b600181019050620002d4565b5050565b601f82111562000345576200030f81620001b9565b6200031a84620001ce565b810160208510156200032a578190505b620003426200033985620001ce565b830182620002d3565b50505b505050565b600082821c905092915050565b60006200036a600019846008026200034a565b1980831691505092915050565b600062000385838362000357565b9150826002028217905092915050565b620003a0826200011b565b67ffffffffffffffff811115620003bc57620003bb62000126565b5b620003c8825462000184565b620003d5828285620002fa565b600060209050601f8311600181146200040d5760008415620003f8578287015190505b62000404858262000377565b86555062000474565b601f1984166200041d86620001b9565b60005b82811015620004475784890151825560018201915060208501945060208101905062000420565b8683101562000467578489015162000463601f89168262000357565b8355505b6001600288020188555050505b505050505050565b6119a6806200048c6000396000f3fe608060405234801561001057600080fd5b50600436106101005760003560e01c8063a9059cbb11610097578063dd62ed3e11610066578063dd62ed3e146102b1578063dd6887ed146102e1578063ebe41b7314610311578063f276b8aa1461032d57610100565b8063a9059cbb14610229578063c6ab5d9014610259578063cd74c0a714610275578063d35b1ac21461029357610100565b806323b872dd116100d357806323b872dd1461018d578063313ce567146101bd57806370a08231146101db57806395d89b411461020b57610100565b806306fdde0314610105578063095ea7b31461012357806318160ddd146101535780631b00543714610171575b600080fd5b61010d61035d565b60405161011a91906112be565b60405180910390f35b61013d60048036038101906101389190611388565b6103eb565b60405161014a91906113e3565b60405180910390f35b61015b6104dd565b604051610168919061140d565b60405180910390f35b61018b6004803603810190610186919061155d565b6104e3565b005b6101a760048036038101906101a291906115b9565b6105e2565b6040516101b491906113e3565b60405180910390f35b6101c5610868565b6040516101d29190611628565b60405180910390f35b6101f560048036038101906101f09190611643565b61087b565b604051610202919061140d565b60405180910390f35b6102136108c4565b60405161022091906112be565b60405180910390f35b610243600480360381019061023e9190611388565b610952565b60405161025091906113e3565b60405180910390f35b610273600480360381019061026e919061169c565b610abb565b005b61027d610d23565b60405161028a919061140d565b60405180910390f35b61029b610d29565b6040516102a8919061140d565b60405180910390f35b6102cb60048036038101906102c691906116c9565b610d2f565b6040516102d8919061140d565b60405180910390f35b6102fb60048036038101906102f69190611709565b610db6565b60405161030891906113e3565b60405180910390f35b61032b6004803603810190610326919061169c565b610de1565b005b6103476004803603810190610342919061169c565b61116d565b60405161035491906113e3565b60405180910390f35b6000805461036a90611781565b80601f016020809104026020016040519081016040528092919081815260200182805461039690611781565b80156103e35780601f106103b8576101008083540402835291602001916103e3565b820191906000526020600020905b8154815290600101906020018083116103c657829003601f168201915b505050505081565b600081600560003373ffffffffffffffffffffffffffffffffffffffff1673ffffffffffffffffffffffffffffffffffffffff16815260200190815260200160002060008573ffffffffffffffffffffffffffffffffffffffff1673ffffffffffffffffffffffffffffffffffffffff168152602001908152602001600020819055508273ffffffffffffffffffffffffffffffffffffffff163373ffffffffffffffffffffffffffffffffffffffff167f8c5be1e5ebec7d5bd14f71427d1e84f3dd0314c0f7b2291e5b200ac8c7c3b925846040516104cb919061140d565b60405180910390a36001905092915050565b60035481565b80600460003373ffffffffffffffffffffffffffffffffffffffff1673ffffffffffffffffffffffffffffffffffffffff168152602001908152602001600020541015610565576040517f08c379a000000000000000000000000000000000000000000000000000000000815260040161055c906117fe565b60405180910390fd5b80600460003373ffffffffffffffffffffffffffffffffffffffff1673ffffffffffffffffffffffffffffffffffffffff16815260200190815260200160002060008282546105b4919061184d565b9250508190555080600a836040516105cc91906118bd565b9081526020016040518091039020819055505050565b600081600460008673ffffffffffffffffffffffffffffffffffffffff1673ffffffffffffffffffffffffffffffffffffffff16815260200190815260200160002054101561063057600080fd5b81600560008673ffffffffffffffffffffffffffffffffffffffff1673ffffffffffffffffffffffffffffffffffffffff16815260200190815260200160002060003373ffffffffffffffffffffffffffffffffffffffff1673ffffffffffffffffffffffffffffffffffffffff1681526020019081526020016000205410156106b957600080fd5b81600460008673ffffffffffffffffffffffffffffffffffffffff1673ffffffffffffffffffffffffffffffffffffffff1681526020019081526020016000206000828254610708919061184d565b9250508190555081600560008673ffffffffffffffffffffffffffffffffffffffff1673ffffffffffffffffffffffffffffffffffffffff16815260200190815260200160002060003373ffffffffffffffffffffffffffffffffffffffff1673ffffffffffffffffffffffffffffffffffffffff168152602001908152602001600020600082825461079b919061184d565b9250508190555081600460008573ffffffffffffffffffffffffffffffffffffffff1673ffffffffffffffffffffffffffffffffffffffff16815260200190815260200160002060008282546107f191906118d4565b925050819055508273ffffffffffffffffffffffffffffffffffffffff168473ffffffffffffffffffffffffffffffffffffffff167fddf252ad1be2c89b69c2b068fc378daa952ba7f163c4a11628f55a4df523b3ef84604051610855919061140d565b60405180910390a3600190509392505050565b600260009054906101000a900460ff1681565b6000600460008373ffffffffffffffffffffffffffffffffffffffff1673ffffffffffffffffffffffffffffffffffffffff168152602001908152602001600020549050919050565b600180546108d190611781565b80601f01602080910402602001604051908101604052809291908181526020018280546108fd90611781565b801561094a5780601f1061091f5761010080835404028352916020019161094a565b820191906000526020600020905b81548152906001019060200180831161092d57829003601f168201915b505050505081565b600081600460003373ffffffffffffffffffffffffffffffffffffffff1673ffffffffffffffffffffffffffffffffffffffff1681526020019081526020016000205410156109a057600080fd5b81600460003373ffffffffffffffffffffffffffffffffffffffff1673ffffffffffffffffffffffffffffffffffffffff16815260200190815260200160002060008282546109ef919061184d565b9250508190555081600460008573ffffffffffffffffffffffffffffffffffffffff1673ffffffffffffffffffffffffffffffffffffffff1681526020019081526020016000206000828254610a4591906118d4565b925050819055508273ffffffffffffffffffffffffffffffffffffffff163373ffffffffffffffffffffffffffffffffffffffff167fddf252ad1be2c89b69c2b068fc378daa952ba7f163c4a11628f55a4df523b3ef84604051610aa9919061140d565b60405180910390a36001905092915050565b60018160ff1603610bef576000600860003373ffffffffffffffffffffffffffffffffffffffff1673ffffffffffffffffffffffffffffffffffffffff1681526020019081526020016000205411610b1257600080fd5b600860003373ffffffffffffffffffffffffffffffffffffffff1673ffffffffffffffffffffffffffffffffffffffff16815260200190815260200160002054600460003373ffffffffffffffffffffffffffffffffffffffff1673ffffffffffffffffffffffffffffffffffffffff1681526020019081526020016000206000828254610ba091906118d4565b92505081905550600860003373ffffffffffffffffffffffffffffffffffffffff1673ffffffffffffffffffffffffffffffffffffffff16815260200190815260200160002060009055610d20565b60028160ff1603610d1f576000600960003373ffffffffffffffffffffffffffffffffffffffff1673ffffffffffffffffffffffffffffffffffffffff1681526020019081526020016000205411610c4657600080fd5b600960003373ffffffffffffffffffffffffffffffffffffffff1673ffffffffffffffffffffffffffffffffffffffff16815260200190815260200160002054600460003373ffffffffffffffffffffffffffffffffffffffff1673ffffffffffffffffffffffffffffffffffffffff1681526020019081526020016000206000828254610cd491906118d4565b92505081905550600960003373ffffffffffffffffffffffffffffffffffffffff1673ffffffffffffffffffffffffffffffffffffffff168152602001908152602001600020600090555b5b50565b60075481565b60065481565b6000600560008473ffffffffffffffffffffffffffffffffffffffff1673ffffffffffffffffffffffffffffffffffffffff16815260200190815260200160002060008373ffffffffffffffffffffffffffffffffffffffff1673ffffffffffffffffffffffffffffffffffffffff16815260200190815260200160002054905092915050565b600080600a83604051610dc991906118bd565b90815260200160405180910390205414159050919050565b60018160ff1603610fa7576000600860003373ffffffffffffffffffffffffffffffffffffffff1673ffffffffffffffffffffffffffffffffffffffff1681526020019081526020016000205414610e6e576040517f08c379a0000000000000000000000000000000000000000000000000000000008152600401610e6590611950565b60405180910390fd5b600654600460003373ffffffffffffffffffffffffffffffffffffffff1673ffffffffffffffffffffffffffffffffffffffff168152602001908152602001600020541015610ef2576040517f08c379a0000000000000000000000000000000000000000000000000000000008152600401610ee9906117fe565b60405180910390fd5b600654600460003373ffffffffffffffffffffffffffffffffffffffff1673ffffffffffffffffffffffffffffffffffffffff1681526020019081526020016000206000828254610f43919061184d565b92505081905550600654600860003373ffffffffffffffffffffffffffffffffffffffff1673ffffffffffffffffffffffffffffffffffffffff1681526020019081526020016000206000828254610f9b91906118d4565b9250508190555061116a565b60028160ff1603611169576000600960003373ffffffffffffffffffffffffffffffffffffffff1673ffffffffffffffffffffffffffffffffffffffff1681526020019081526020016000205414611034576040517f08c379a000000000000000000000000000000000000000000000000000000000815260040161102b90611950565b60405180910390fd5b600754600460003373ffffffffffffffffffffffffffffffffffffffff1673ffffffffffffffffffffffffffffffffffffffff1681526020019081526020016000205410156110b8576040517f08c379a00000000000000000000000000000000000000000000000000000000081526004016110af906117fe565b60405180910390fd5b600754600460003373ffffffffffffffffffffffffffffffffffffffff1673ffffffffffffffffffffffffffffffffffffffff1681526020019081526020016000206000828254611109919061184d565b92505081905550600754600960003373ffffffffffffffffffffffffffffffffffffffff1673ffffffffffffffffffffffffffffffffffffffff168152602001908152602001600020600082825461116191906118d4565b925050819055505b5b50565b600060018260ff16036111c5576000600860003373ffffffffffffffffffffffffffffffffffffffff1673ffffffffffffffffffffffffffffffffffffffff1681526020019081526020016000205414159050611220565b60028260ff160361121b576000600960003373ffffffffffffffffffffffffffffffffffffffff1673ffffffffffffffffffffffffffffffffffffffff1681526020019081526020016000205414159050611220565b600090505b919050565b600081519050919050565b600082825260208201905092915050565b60005b8381101561125f578082015181840152602081019050611244565b8381111561126e576000848401525b50505050565b6000601f19601f8301169050919050565b600061129082611225565b61129a8185611230565b93506112aa818560208601611241565b6112b381611274565b840191505092915050565b600060208201905081810360008301526112d88184611285565b905092915050565b6000604051905090565b600080fd5b600080fd5b600073ffffffffffffffffffffffffffffffffffffffff82169050919050565b600061131f826112f4565b9050919050565b61132f81611314565b811461133a57600080fd5b50565b60008135905061134c81611326565b92915050565b6000819050919050565b61136581611352565b811461137057600080fd5b50565b6000813590506113828161135c565b92915050565b6000806040838503121561139f5761139e6112ea565b5b60006113ad8582860161133d565b92505060206113be85828601611373565b9150509250929050565b60008115159050919050565b6113dd816113c8565b82525050565b60006020820190506113f860008301846113d4565b92915050565b61140781611352565b82525050565b600060208201905061142260008301846113fe565b92915050565b600080fd5b600080fd5b7f4e487b7100000000000000000000000000000000000000000000000000000000600052604160045260246000fd5b61146a82611274565b810181811067ffffffffffffffff8211171561148957611488611432565b5b80604052505050565b600061149c6112e0565b90506114a88282611461565b919050565b600067ffffffffffffffff8211156114c8576114c7611432565b5b6114d182611274565b9050602081019050919050565b82818337600083830152505050565b60006115006114fb846114ad565b611492565b90508281526020810184848401111561151c5761151b61142d565b5b6115278482856114de565b509392505050565b600082601f83011261154457611543611428565b5b81356115548482602086016114ed565b91505092915050565b60008060408385031215611574576115736112ea565b5b600083013567ffffffffffffffff811115611592576115916112ef565b5b61159e8582860161152f565b92505060206115af85828601611373565b9150509250929050565b6000806000606084860312156115d2576115d16112ea565b5b60006115e08682870161133d565b93505060206115f18682870161133d565b925050604061160286828701611373565b9150509250925092565b600060ff82169050919050565b6116228161160c565b82525050565b600060208201905061163d6000830184611619565b92915050565b600060208284031215611659576116586112ea565b5b60006116678482850161133d565b91505092915050565b6116798161160c565b811461168457600080fd5b50565b60008135905061169681611670565b92915050565b6000602082840312156116b2576116b16112ea565b5b60006116c084828501611687565b91505092915050565b600080604083850312156116e0576116df6112ea565b5b60006116ee8582860161133d565b92505060206116ff8582860161133d565b9150509250929050565b60006020828403121561171f5761171e6112ea565b5b600082013567ffffffffffffffff81111561173d5761173c6112ef565b5b6117498482850161152f565b91505092915050565b7f4e487b7100000000000000000000000000000000000000000000000000000000600052602260045260246000fd5b6000600282049050600182168061179957607f821691505b6020821081036117ac576117ab611752565b5b50919050565b7f4e6f7420656e6f75676820746f6b656e73000000000000000000000000000000600082015250565b60006117e8601183611230565b91506117f3826117b2565b602082019050919050565b60006020820190508181036000830152611817816117db565b9050919050565b7f4e487b7100000000000000000000000000000000000000000000000000000000600052601160045260246000fd5b600061185882611352565b915061186383611352565b9250828210156118765761187561181e565b5b828203905092915050565b600081905092915050565b600061189782611225565b6118a18185611881565b93506118b1818560208601611241565b80840191505092915050565b60006118c9828461188c565b915081905092915050565b60006118df82611352565b91506118ea83611352565b9250827fffffffffffffffffffffffffffffffffffffffffffffffffffffffffffffffff0382111561191f5761191e61181e565b5b828201905092915050565b50565b600061193a600083611230565b91506119458261192a565b600082019050919050565b600060208201905081810360008301526119698161192d565b905091905056fea264697066735822122089d905ebc33431a7deace1b823061a52d19ad8b0d8c70fd09b33082626d0499464736f6c634300080f0033",
  "linkReferences": {},
  "deployedLinkReferences": {}
}