{
  "_format": "hh-sol-artifact-1",
  "contractName": "Token",
  "sourceName": "contracts/Token.sol",
  "abi": [
    {
      "inputs": [],
      "stateMutability": "nonpayable",
      "type": "constructor"
    },
    {
      "anonymous": false,
      "inputs": [
        {
          "indexed": true,
          "internalType": "address",
          "name": "owner",
          "type": "address"
        },
        {
          "indexed": true,
          "internalType": "address",
          "name": "spender",
          "type": "address"
        },
        {
          "indexed": false,
          "internalType": "uint256",
          "name": "value",
          "type": "uint256"
        }
      ],
      "name": "Approval",
      "type": "event"
    },
    {
      "anonymous": false,
      "inputs": [
        {
          "indexed": true,
          "internalType": "address",
          "name": "from",
          "type": "address"
        },
        {
          "indexed": true,
          "internalType": "address",
          "name": "to",
          "type": "address"
        },
        {
          "indexed": false,
          "internalType": "uint256",
          "name": "value",
          "type": "uint256"
        }
      ],
      "name": "Transfer",
      "type": "event"
    },
    {
      "inputs": [
        {
          "internalType": "address",
          "name": "owner",
          "type": "address"
        },
        {
          "internalType": "address",
          "name": "spender",
          "type": "address"
        }
      ],
      "name": "allowance",
      "outputs": [
        {
          "internalType": "uint256",
          "name": "",
          "type": "uint256"
        }
      ],
      "stateMutability": "view",
      "type": "function"
    },
    {
      "inputs": [
        {
          "internalType": "address",
          "name": "spender",
          "type": "address"
        },
        {
          "internalType": "uint256",
          "name": "value",
          "type": "uint256"
        }
      ],
      "name": "approve",
      "outputs": [
        {
          "internalType": "bool",
          "name": "",
          "type": "bool"
        }
      ],
      "stateMutability": "nonpayable",
      "type": "function"
    },
    {
      "inputs": [
        {
          "internalType": "address",
          "name": "account",
          "type": "address"
        }
      ],
      "name": "balanceOf",
      "outputs": [
        {
          "internalType": "uint256",
          "name": "",
          "type": "uint256"
        }
      ],
      "stateMutability": "view",
      "type": "function"
    },
    {
      "inputs": [
        {
          "internalType": "string",
          "name": "orderId",
          "type": "string"
        }
      ],
      "name": "checkOrder",
      "outputs": [
        {
          "internalType": "bool",
          "name": "",
          "type": "bool"
        }
      ],
      "stateMutability": "view",
      "type": "function"
    },
    {
      "inputs": [
        {
          "internalType": "string",
          "name": "orderId",
          "type": "string"
        },
        {
          "internalType": "uint256",
          "name": "_orderPrice",
          "type": "uint256"
        }
      ],
      "name": "clientOrder",
      "outputs": [],
      "stateMutability": "nonpayable",
      "type": "function"
    },
    {
      "inputs": [],
      "name": "decimals",
      "outputs": [
        {
          "internalType": "uint8",
          "name": "",
          "type": "uint8"
        }
      ],
      "stateMutability": "view",
      "type": "function"
    },
    {
      "inputs": [],
      "name": "fullnodeDepositAmount",
      "outputs": [
        {
          "internalType": "uint256",
          "name": "",
          "type": "uint256"
        }
      ],
      "stateMutability": "view",
      "type": "function"
    },
    {
      "inputs": [
        {
          "internalType": "uint8",
          "name": "_type",
          "type": "uint8"
        }
      ],
      "name": "isDeposit",
      "outputs": [
        {
          "internalType": "bool",
          "name": "",
          "type": "bool"
        }
      ],
      "stateMutability": "view",
      "type": "function"
    },
    {
      "inputs": [],
      "name": "name",
      "outputs": [
        {
          "internalType": "string",
          "name": "",
          "type": "string"
        }
      ],
      "stateMutability": "view",
      "type": "function"
    },
    {
      "inputs": [],
      "name": "privoderDepositAmount",
      "outputs": [
        {
          "internalType": "uint256",
          "name": "",
          "type": "uint256"
        }
      ],
      "stateMutability": "view",
      "type": "function"
    },
    {
      "inputs": [
        {
          "internalType": "uint8",
          "name": "_type",
          "type": "uint8"
        }
      ],
      "name": "stake",
      "outputs": [],
      "stateMutability": "nonpayable",
      "type": "function"
    },
    {
      "inputs": [],
      "name": "symbol",
      "outputs": [
        {
          "internalType": "string",
          "name": "",
          "type": "string"
        }
      ],
      "stateMutability": "view",
      "type": "function"
    },
    {
      "inputs": [],
      "name": "totalSupply",
      "outputs": [
        {
          "internalType": "uint256",
          "name": "",
          "type": "uint256"
        }
      ],
      "stateMutability": "view",
      "type": "function"
    },
    {
      "inputs": [
        {
          "internalType": "address",
          "name": "to",
          "type": "address"
        },
        {
          "internalType": "uint256",
          "name": "value",
          "type": "uint256"
        }
      ],
      "name": "transfer",
      "outputs": [
        {
          "internalType": "bool",
          "name": "",
          "type": "bool"
        }
      ],
      "stateMutability": "nonpayable",
      "type": "function"
    },
    {
      "inputs": [
        {
          "internalType": "address",
          "name": "from",
          "type": "address"
        },
        {
          "internalType": "address",
          "name": "to",
          "type": "address"
        },
        {
          "internalType": "uint256",
          "name": "value",
          "type": "uint256"
        }
      ],
      "name": "transferFrom",
      "outputs": [
        {
          "internalType": "bool",
          "name": "",
          "type": "bool"
        }
      ],
      "stateMutability": "nonpayable",
      "type": "function"
    },
    {
      "inputs": [
        {
          "internalType": "uint8",
          "name": "_type",
          "type": "uint8"
        }
      ],
      "name": "withdraw",
      "outputs": [],
      "stateMutability": "nonpayable",
      "type": "function"
    }
  ],
  "bytecode": "0x60806040526040518060400160405280600d81526020017f436c6f7564536c69742044616f00000000000000000000000000000000000000815250600090816200004a919062000395565b506040518060400160405280600381526020017f43534400000000000000000000000000000000000000000000000000000000008152506001908162000091919062000395565b506000600260006101000a81548160ff021916908360ff160217905550620f42406003556113886006556103e8600755348015620000ce57600080fd5b50600354600460003373ffffffffffffffffffffffffffffffffffffffff1673ffffffffffffffffffffffffffffffffffffffff168152602001908152602001600020819055506200047c565b600081519050919050565b7f4e487b7100000000000000000000000000000000000000000000000000000000600052604160045260246000fd5b7f4e487b7100000000000000000000000000000000000000000000000000000000600052602260045260246000fd5b600060028204905060018216806200019d57607f821691505b602082108103620001b357620001b262000155565b5b50919050565b60008190508160005260206000209050919050565b60006020601f8301049050919050565b600082821b905092915050565b6000600883026200021d7fffffffffffffffffffffffffffffffffffffffffffffffffffffffffffffffff82620001de565b620002298683620001de565b95508019841693508086168417925050509392505050565b6000819050919050565b6000819050919050565b600062000276620002706200026a8462000241565b6200024b565b62000241565b9050919050565b6000819050919050565b620002928362000255565b620002aa620002a1826200027d565b848454620001eb565b825550505050565b600090565b620002c1620002b2565b620002ce81848462000287565b505050565b5b81811015620002f657620002ea600082620002b7565b600181019050620002d4565b5050565b601f82111562000345576200030f81620001b9565b6200031a84620001ce565b810160208510156200032a578190505b620003426200033985620001ce565b830182620002d3565b50505b505050565b600082821c905092915050565b60006200036a600019846008026200034a565b1980831691505092915050565b600062000385838362000357565b9150826002028217905092915050565b620003a0826200011b565b67ffffffffffffffff811115620003bc57620003bb62000126565b5b620003c8825462000184565b620003d5828285620002fa565b600060209050601f8311600181146200040d5760008415620003f8578287015190505b62000404858262000377565b86555062000474565b601f1984166200041d86620001b9565b60005b82811015620004475784890151825560018201915060208501945060208101905062000420565b8683101562000467578489015162000463601f89168262000357565b8355505b6001600288020188555050505b505050505050565b611a73806200048c6000396000f3fe608060405234801561001057600080fd5b50600436106101005760003560e01c806395d89b4111610097578063d35b1ac211610066578063d35b1ac2146102af578063dd62ed3e146102cd578063dd6887ed146102fd578063f276b8aa1461032d57610100565b806395d89b4114610227578063a9059cbb14610245578063c6ab5d9014610275578063cd74c0a71461029157610100565b806323b872dd116100d357806323b872dd1461018d578063313ce567146101bd578063604f2177146101db57806370a08231146101f757610100565b806306fdde0314610105578063095ea7b31461012357806318160ddd146101535780631b00543714610171575b600080fd5b61010d61035d565b60405161011a919061131f565b60405180910390f35b61013d600480360381019061013891906113e9565b6103eb565b60405161014a9190611444565b60405180910390f35b61015b6104dd565b604051610168919061146e565b60405180910390f35b61018b600480360381019061018691906115be565b6104e3565b005b6101a760048036038101906101a2919061161a565b610643565b6040516101b49190611444565b60405180910390f35b6101c56108c9565b6040516101d29190611689565b60405180910390f35b6101f560048036038101906101f091906116d0565b6108dc565b005b610211600480360381019061020c91906116fd565b610c68565b60405161021e919061146e565b60405180910390f35b61022f610cb1565b60405161023c919061131f565b60405180910390f35b61025f600480360381019061025a91906113e9565b610d3f565b60405161026c9190611444565b60405180910390f35b61028f600480360381019061028a91906116d0565b610ea8565b005b610299611110565b6040516102a6919061146e565b60405180910390f35b6102b7611116565b6040516102c4919061146e565b60405180910390f35b6102e760048036038101906102e2919061172a565b61111c565b6040516102f4919061146e565b60405180910390f35b6103176004803603810190610312919061176a565b6111a3565b6040516103249190611444565b60405180910390f35b610347600480360381019061034291906116d0565b6111ce565b6040516103549190611444565b60405180910390f35b6000805461036a906117e2565b80601f0160208091040260200160405190810160405280929190818152602001828054610396906117e2565b80156103e35780601f106103b8576101008083540402835291602001916103e3565b820191906000526020600020905b8154815290600101906020018083116103c657829003601f168201915b505050505081565b600081600560003373ffffffffffffffffffffffffffffffffffffffff1673ffffffffffffffffffffffffffffffffffffffff16815260200190815260200160002060008573ffffffffffffffffffffffffffffffffffffffff1673ffffffffffffffffffffffffffffffffffffffff168152602001908152602001600020819055508273ffffffffffffffffffffffffffffffffffffffff163373ffffffffffffffffffffffffffffffffffffffff167f8c5be1e5ebec7d5bd14f71427d1e84f3dd0314c0f7b2291e5b200ac8c7c3b925846040516104cb919061146e565b60405180910390a36001905092915050565b60035481565b6000600a836040516104f5919061184f565b90815260200160405180910390205411610544576040517f08c379a000000000000000000000000000000000000000000000000000000000815260040161053b906118b2565b60405180910390fd5b80600460003373ffffffffffffffffffffffffffffffffffffffff1673ffffffffffffffffffffffffffffffffffffffff1681526020019081526020016000205410156105c6576040517f08c379a00000000000000000000000000000000000000000000000000000000081526004016105bd9061191e565b60405180910390fd5b80600460003373ffffffffffffffffffffffffffffffffffffffff1673ffffffffffffffffffffffffffffffffffffffff1681526020019081526020016000206000828254610615919061196d565b9250508190555080600a8360405161062d919061184f565b9081526020016040518091039020819055505050565b600081600460008673ffffffffffffffffffffffffffffffffffffffff1673ffffffffffffffffffffffffffffffffffffffff16815260200190815260200160002054101561069157600080fd5b81600560008673ffffffffffffffffffffffffffffffffffffffff1673ffffffffffffffffffffffffffffffffffffffff16815260200190815260200160002060003373ffffffffffffffffffffffffffffffffffffffff1673ffffffffffffffffffffffffffffffffffffffff16815260200190815260200160002054101561071a57600080fd5b81600460008673ffffffffffffffffffffffffffffffffffffffff1673ffffffffffffffffffffffffffffffffffffffff1681526020019081526020016000206000828254610769919061196d565b9250508190555081600560008673ffffffffffffffffffffffffffffffffffffffff1673ffffffffffffffffffffffffffffffffffffffff16815260200190815260200160002060003373ffffffffffffffffffffffffffffffffffffffff1673ffffffffffffffffffffffffffffffffffffffff16815260200190815260200160002060008282546107fc919061196d565b9250508190555081600460008573ffffffffffffffffffffffffffffffffffffffff1673ffffffffffffffffffffffffffffffffffffffff168152602001908152602001600020600082825461085291906119a1565b925050819055508273ffffffffffffffffffffffffffffffffffffffff168473ffffffffffffffffffffffffffffffffffffffff167fddf252ad1be2c89b69c2b068fc378daa952ba7f163c4a11628f55a4df523b3ef846040516108b6919061146e565b60405180910390a3600190509392505050565b600260009054906101000a900460ff1681565b60018160ff1603610aa2576000600860003373ffffffffffffffffffffffffffffffffffffffff1673ffffffffffffffffffffffffffffffffffffffff1681526020019081526020016000205414610969576040517f08c379a000000000000000000000000000000000000000000000000000000000815260040161096090611a1d565b60405180910390fd5b600654600460003373ffffffffffffffffffffffffffffffffffffffff1673ffffffffffffffffffffffffffffffffffffffff1681526020019081526020016000205410156109ed576040517f08c379a00000000000000000000000000000000000000000000000000000000081526004016109e49061191e565b60405180910390fd5b600654600460003373ffffffffffffffffffffffffffffffffffffffff1673ffffffffffffffffffffffffffffffffffffffff1681526020019081526020016000206000828254610a3e919061196d565b92505081905550600654600860003373ffffffffffffffffffffffffffffffffffffffff1673ffffffffffffffffffffffffffffffffffffffff1681526020019081526020016000206000828254610a9691906119a1565b92505081905550610c65565b60028160ff1603610c64576000600960003373ffffffffffffffffffffffffffffffffffffffff1673ffffffffffffffffffffffffffffffffffffffff1681526020019081526020016000205414610b2f576040517f08c379a0000000000000000000000000000000000000000000000000000000008152600401610b2690611a1d565b60405180910390fd5b600754600460003373ffffffffffffffffffffffffffffffffffffffff1673ffffffffffffffffffffffffffffffffffffffff168152602001908152602001600020541015610bb3576040517f08c379a0000000000000000000000000000000000000000000000000000000008152600401610baa9061191e565b60405180910390fd5b600754600460003373ffffffffffffffffffffffffffffffffffffffff1673ffffffffffffffffffffffffffffffffffffffff1681526020019081526020016000206000828254610c04919061196d565b92505081905550600754600960003373ffffffffffffffffffffffffffffffffffffffff1673ffffffffffffffffffffffffffffffffffffffff1681526020019081526020016000206000828254610c5c91906119a1565b925050819055505b5b50565b6000600460008373ffffffffffffffffffffffffffffffffffffffff1673ffffffffffffffffffffffffffffffffffffffff168152602001908152602001600020549050919050565b60018054610cbe906117e2565b80601f0160208091040260200160405190810160405280929190818152602001828054610cea906117e2565b8015610d375780601f10610d0c57610100808354040283529160200191610d37565b820191906000526020600020905b815481529060010190602001808311610d1a57829003601f168201915b505050505081565b600081600460003373ffffffffffffffffffffffffffffffffffffffff1673ffffffffffffffffffffffffffffffffffffffff168152602001908152602001600020541015610d8d57600080fd5b81600460003373ffffffffffffffffffffffffffffffffffffffff1673ffffffffffffffffffffffffffffffffffffffff1681526020019081526020016000206000828254610ddc919061196d565b9250508190555081600460008573ffffffffffffffffffffffffffffffffffffffff1673ffffffffffffffffffffffffffffffffffffffff1681526020019081526020016000206000828254610e3291906119a1565b925050819055508273ffffffffffffffffffffffffffffffffffffffff163373ffffffffffffffffffffffffffffffffffffffff167fddf252ad1be2c89b69c2b068fc378daa952ba7f163c4a11628f55a4df523b3ef84604051610e96919061146e565b60405180910390a36001905092915050565b60018160ff1603610fdc576000600860003373ffffffffffffffffffffffffffffffffffffffff1673ffffffffffffffffffffffffffffffffffffffff1681526020019081526020016000205411610eff57600080fd5b600860003373ffffffffffffffffffffffffffffffffffffffff1673ffffffffffffffffffffffffffffffffffffffff16815260200190815260200160002054600460003373ffffffffffffffffffffffffffffffffffffffff1673ffffffffffffffffffffffffffffffffffffffff1681526020019081526020016000206000828254610f8d91906119a1565b92505081905550600860003373ffffffffffffffffffffffffffffffffffffffff1673ffffffffffffffffffffffffffffffffffffffff1681526020019081526020016000206000905561110d565b60028160ff160361110c576000600960003373ffffffffffffffffffffffffffffffffffffffff1673ffffffffffffffffffffffffffffffffffffffff168152602001908152602001600020541161103357600080fd5b600960003373ffffffffffffffffffffffffffffffffffffffff1673ffffffffffffffffffffffffffffffffffffffff16815260200190815260200160002054600460003373ffffffffffffffffffffffffffffffffffffffff1673ffffffffffffffffffffffffffffffffffffffff16815260200190815260200160002060008282546110c191906119a1565b92505081905550600960003373ffffffffffffffffffffffffffffffffffffffff1673ffffffffffffffffffffffffffffffffffffffff168152602001908152602001600020600090555b5b50565b60075481565b60065481565b6000600560008473ffffffffffffffffffffffffffffffffffffffff1673ffffffffffffffffffffffffffffffffffffffff16815260200190815260200160002060008373ffffffffffffffffffffffffffffffffffffffff1673ffffffffffffffffffffffffffffffffffffffff16815260200190815260200160002054905092915050565b600080600a836040516111b6919061184f565b90815260200160405180910390205414159050919050565b600060018260ff1603611226576000600860003373ffffffffffffffffffffffffffffffffffffffff1673ffffffffffffffffffffffffffffffffffffffff1681526020019081526020016000205414159050611281565b60028260ff160361127c576000600960003373ffffffffffffffffffffffffffffffffffffffff1673ffffffffffffffffffffffffffffffffffffffff1681526020019081526020016000205414159050611281565b600090505b919050565b600081519050919050565b600082825260208201905092915050565b60005b838110156112c05780820151818401526020810190506112a5565b838111156112cf576000848401525b50505050565b6000601f19601f8301169050919050565b60006112f182611286565b6112fb8185611291565b935061130b8185602086016112a2565b611314816112d5565b840191505092915050565b6000602082019050818103600083015261133981846112e6565b905092915050565b6000604051905090565b600080fd5b600080fd5b600073ffffffffffffffffffffffffffffffffffffffff82169050919050565b600061138082611355565b9050919050565b61139081611375565b811461139b57600080fd5b50565b6000813590506113ad81611387565b92915050565b6000819050919050565b6113c6816113b3565b81146113d157600080fd5b50565b6000813590506113e3816113bd565b92915050565b60008060408385031215611400576113ff61134b565b5b600061140e8582860161139e565b925050602061141f858286016113d4565b9150509250929050565b60008115159050919050565b61143e81611429565b82525050565b60006020820190506114596000830184611435565b92915050565b611468816113b3565b82525050565b6000602082019050611483600083018461145f565b92915050565b600080fd5b600080fd5b7f4e487b7100000000000000000000000000000000000000000000000000000000600052604160045260246000fd5b6114cb826112d5565b810181811067ffffffffffffffff821117156114ea576114e9611493565b5b80604052505050565b60006114fd611341565b905061150982826114c2565b919050565b600067ffffffffffffffff82111561152957611528611493565b5b611532826112d5565b9050602081019050919050565b82818337600083830152505050565b600061156161155c8461150e565b6114f3565b90508281526020810184848401111561157d5761157c61148e565b5b61158884828561153f565b509392505050565b600082601f8301126115a5576115a4611489565b5b81356115b584826020860161154e565b91505092915050565b600080604083850312156115d5576115d461134b565b5b600083013567ffffffffffffffff8111156115f3576115f2611350565b5b6115ff85828601611590565b9250506020611610858286016113d4565b9150509250929050565b6000806000606084860312156116335761163261134b565b5b60006116418682870161139e565b93505060206116528682870161139e565b9250506040611663868287016113d4565b9150509250925092565b600060ff82169050919050565b6116838161166d565b82525050565b600060208201905061169e600083018461167a565b92915050565b6116ad8161166d565b81146116b857600080fd5b50565b6000813590506116ca816116a4565b92915050565b6000602082840312156116e6576116e561134b565b5b60006116f4848285016116bb565b91505092915050565b6000602082840312156117135761171261134b565b5b60006117218482850161139e565b91505092915050565b600080604083850312156117415761174061134b565b5b600061174f8582860161139e565b92505060206117608582860161139e565b9150509250929050565b6000602082840312156117805761177f61134b565b5b600082013567ffffffffffffffff81111561179e5761179d611350565b5b6117aa84828501611590565b91505092915050565b7f4e487b7100000000000000000000000000000000000000000000000000000000600052602260045260246000fd5b600060028204905060018216806117fa57607f821691505b60208210810361180d5761180c6117b3565b5b50919050565b600081905092915050565b600061182982611286565b6118338185611813565b93506118438185602086016112a2565b80840191505092915050565b600061185b828461181e565b915081905092915050565b7f416c726561647920706169640000000000000000000000000000000000000000600082015250565b600061189c600c83611291565b91506118a782611866565b602082019050919050565b600060208201905081810360008301526118cb8161188f565b9050919050565b7f4e6f7420656e6f75676820746f6b656e73000000000000000000000000000000600082015250565b6000611908601183611291565b9150611913826118d2565b602082019050919050565b60006020820190508181036000830152611937816118fb565b9050919050565b7f4e487b7100000000000000000000000000000000000000000000000000000000600052601160045260246000fd5b6000611978826113b3565b9150611983836113b3565b9250828210156119965761199561193e565b5b828203905092915050565b60006119ac826113b3565b91506119b7836113b3565b9250827fffffffffffffffffffffffffffffffffffffffffffffffffffffffffffffffff038211156119ec576119eb61193e565b5b828201905092915050565b50565b6000611a07600083611291565b9150611a12826119f7565b600082019050919050565b60006020820190508181036000830152611a36816119fa565b905091905056fea26469706673582212206c7b4221e7cee48d937b308ef53c9663c7f19c36b9b0b65394b478040331e3ad64736f6c634300080f0033",
  "linkReferences": {},
  "deployedLinkReferences": {}
}