{
  "_format": "hh-sol-artifact-1",
  "contractName": "FlowShieldDao",
  "sourceName": "contracts/FlowShieldDao.sol",
  "abi": [
    {
      "inputs": [],
      "stateMutability": "nonpayable",
      "type": "constructor"
    },
    {
      "anonymous": false,
      "inputs": [
        {
          "indexed": true,
          "internalType": "address",
          "name": "owner",
          "type": "address"
        },
        {
          "indexed": true,
          "internalType": "address",
          "name": "spender",
          "type": "address"
        },
        {
          "indexed": false,
          "internalType": "uint256",
          "name": "value",
          "type": "uint256"
        }
      ],
      "name": "Approval",
      "type": "event"
    },
    {
      "anonymous": false,
      "inputs": [
        {
          "indexed": true,
          "internalType": "address",
          "name": "previousOwner",
          "type": "address"
        },
        {
          "indexed": true,
          "internalType": "address",
          "name": "newOwner",
          "type": "address"
        }
      ],
      "name": "OwnershipTransferred",
      "type": "event"
    },
    {
      "anonymous": false,
      "inputs": [
        {
          "indexed": true,
          "internalType": "address",
          "name": "from",
          "type": "address"
        },
        {
          "indexed": true,
          "internalType": "address",
          "name": "to",
          "type": "address"
        },
        {
          "indexed": false,
          "internalType": "uint256",
          "name": "value",
          "type": "uint256"
        }
      ],
      "name": "Transfer",
      "type": "event"
    },
    {
      "inputs": [],
      "name": "_fullnodeDepositAmount",
      "outputs": [
        {
          "internalType": "uint256",
          "name": "",
          "type": "uint256"
        }
      ],
      "stateMutability": "view",
      "type": "function"
    },
    {
      "inputs": [],
      "name": "_privoderDepositAmount",
      "outputs": [
        {
          "internalType": "uint256",
          "name": "",
          "type": "uint256"
        }
      ],
      "stateMutability": "view",
      "type": "function"
    },
    {
      "inputs": [
        {
          "internalType": "address",
          "name": "owner",
          "type": "address"
        },
        {
          "internalType": "address",
          "name": "spender",
          "type": "address"
        }
      ],
      "name": "allowance",
      "outputs": [
        {
          "internalType": "uint256",
          "name": "",
          "type": "uint256"
        }
      ],
      "stateMutability": "view",
      "type": "function"
    },
    {
      "inputs": [
        {
          "internalType": "address",
          "name": "spender",
          "type": "address"
        },
        {
          "internalType": "uint256",
          "name": "amount",
          "type": "uint256"
        }
      ],
      "name": "approve",
      "outputs": [
        {
          "internalType": "bool",
          "name": "",
          "type": "bool"
        }
      ],
      "stateMutability": "nonpayable",
      "type": "function"
    },
    {
      "inputs": [
        {
          "internalType": "address",
          "name": "account",
          "type": "address"
        }
      ],
      "name": "balanceOf",
      "outputs": [
        {
          "internalType": "uint256",
          "name": "",
          "type": "uint256"
        }
      ],
      "stateMutability": "view",
      "type": "function"
    },
    {
      "inputs": [
        {
          "internalType": "string",
          "name": "uuid",
          "type": "string"
        }
      ],
      "name": "bindWallet",
      "outputs": [],
      "stateMutability": "nonpayable",
      "type": "function"
    },
    {
      "inputs": [
        {
          "internalType": "string",
          "name": "uuid",
          "type": "string"
        },
        {
          "internalType": "address",
          "name": "newWallet",
          "type": "address"
        }
      ],
      "name": "changeWallet",
      "outputs": [],
      "stateMutability": "nonpayable",
      "type": "function"
    },
    {
      "inputs": [
        {
          "internalType": "string",
          "name": "orderId",
          "type": "string"
        }
      ],
      "name": "checkOrder",
      "outputs": [
        {
          "internalType": "bool",
          "name": "",
          "type": "bool"
        }
      ],
      "stateMutability": "view",
      "type": "function"
    },
    {
      "inputs": [
        {
          "internalType": "string",
          "name": "name",
          "type": "string"
        },
        {
          "internalType": "uint32",
          "name": "duration",
          "type": "uint32"
        },
        {
          "internalType": "string",
          "name": "orderId",
          "type": "string"
        },
        {
          "internalType": "uint256",
          "name": "amount",
          "type": "uint256"
        },
        {
          "internalType": "address",
          "name": "to",
          "type": "address"
        }
      ],
      "name": "clientOrder",
      "outputs": [],
      "stateMutability": "nonpayable",
      "type": "function"
    },
    {
      "inputs": [],
      "name": "decimals",
      "outputs": [
        {
          "internalType": "uint8",
          "name": "",
          "type": "uint8"
        }
      ],
      "stateMutability": "view",
      "type": "function"
    },
    {
      "inputs": [
        {
          "internalType": "address",
          "name": "spender",
          "type": "address"
        },
        {
          "internalType": "uint256",
          "name": "subtractedValue",
          "type": "uint256"
        }
      ],
      "name": "decreaseAllowance",
      "outputs": [
        {
          "internalType": "bool",
          "name": "",
          "type": "bool"
        }
      ],
      "stateMutability": "nonpayable",
      "type": "function"
    },
    {
      "inputs": [],
      "name": "getAllOrderTokens",
      "outputs": [
        {
          "internalType": "uint256",
          "name": "",
          "type": "uint256"
        }
      ],
      "stateMutability": "view",
      "type": "function"
    },
    {
      "inputs": [
        {
          "internalType": "address",
          "name": "walletAddress",
          "type": "address"
        }
      ],
      "name": "getDeposit",
      "outputs": [
        {
          "internalType": "uint256",
          "name": "",
          "type": "uint256"
        },
        {
          "internalType": "uint256",
          "name": "",
          "type": "uint256"
        }
      ],
      "stateMutability": "view",
      "type": "function"
    },
    {
      "inputs": [
        {
          "internalType": "string",
          "name": "orderId",
          "type": "string"
        }
      ],
      "name": "getOrdersInfo",
      "outputs": [
        {
          "components": [
            {
              "internalType": "string",
              "name": "name",
              "type": "string"
            },
            {
              "internalType": "uint256",
              "name": "startTime",
              "type": "uint256"
            },
            {
              "internalType": "uint256",
              "name": "endTime",
              "type": "uint256"
            },
            {
              "internalType": "uint256",
              "name": "withdrawDuration",
              "type": "uint256"
            },
            {
              "internalType": "uint32",
              "name": "duration",
              "type": "uint32"
            },
            {
              "internalType": "uint256",
              "name": "amount",
              "type": "uint256"
            },
            {
              "internalType": "bool",
              "name": "used",
              "type": "bool"
            },
            {
              "internalType": "bool",
              "name": "withdraw",
              "type": "bool"
            },
            {
              "internalType": "address",
              "name": "payAddress",
              "type": "address"
            },
            {
              "internalType": "address",
              "name": "privoderAddress",
              "type": "address"
            }
          ],
          "internalType": "struct FlowShieldDao.order",
          "name": "",
          "type": "tuple"
        }
      ],
      "stateMutability": "view",
      "type": "function"
    },
    {
      "inputs": [
        {
          "internalType": "address",
          "name": "from",
          "type": "address"
        }
      ],
      "name": "getPrivoderOrders",
      "outputs": [
        {
          "internalType": "string[]",
          "name": "",
          "type": "string[]"
        }
      ],
      "stateMutability": "view",
      "type": "function"
    },
    {
      "inputs": [
        {
          "internalType": "string",
          "name": "uuid",
          "type": "string"
        }
      ],
      "name": "getUserInfo",
      "outputs": [
        {
          "internalType": "bool",
          "name": "",
          "type": "bool"
        },
        {
          "internalType": "bool",
          "name": "",
          "type": "bool"
        }
      ],
      "stateMutability": "view",
      "type": "function"
    },
    {
      "inputs": [
        {
          "internalType": "string",
          "name": "uuid",
          "type": "string"
        }
      ],
      "name": "getWallet",
      "outputs": [
        {
          "internalType": "address",
          "name": "",
          "type": "address"
        },
        {
          "internalType": "uint8",
          "name": "",
          "type": "uint8"
        }
      ],
      "stateMutability": "view",
      "type": "function"
    },
    {
      "inputs": [
        {
          "internalType": "address",
          "name": "spender",
          "type": "address"
        },
        {
          "internalType": "uint256",
          "name": "addedValue",
          "type": "uint256"
        }
      ],
      "name": "increaseAllowance",
      "outputs": [
        {
          "internalType": "bool",
          "name": "",
          "type": "bool"
        }
      ],
      "stateMutability": "nonpayable",
      "type": "function"
    },
    {
      "inputs": [
        {
          "internalType": "uint8",
          "name": "_type",
          "type": "uint8"
        }
      ],
      "name": "isDeposit",
      "outputs": [
        {
          "internalType": "bool",
          "name": "",
          "type": "bool"
        }
      ],
      "stateMutability": "view",
      "type": "function"
    },
    {
      "inputs": [],
      "name": "name",
      "outputs": [
        {
          "internalType": "string",
          "name": "",
          "type": "string"
        }
      ],
      "stateMutability": "view",
      "type": "function"
    },
    {
      "inputs": [],
      "name": "owner",
      "outputs": [
        {
          "internalType": "address",
          "name": "",
          "type": "address"
        }
      ],
      "stateMutability": "view",
      "type": "function"
    },
    {
      "inputs": [],
      "name": "renounceOwnership",
      "outputs": [],
      "stateMutability": "nonpayable",
      "type": "function"
    },
    {
      "inputs": [
        {
          "internalType": "uint8",
          "name": "_type",
          "type": "uint8"
        }
      ],
      "name": "stake",
      "outputs": [],
      "stateMutability": "nonpayable",
      "type": "function"
    },
    {
      "inputs": [
        {
          "internalType": "uint8",
          "name": "_type",
          "type": "uint8"
        },
        {
          "internalType": "address",
          "name": "walletAddress",
          "type": "address"
        },
        {
          "internalType": "uint256",
          "name": "amount",
          "type": "uint256"
        }
      ],
      "name": "stakeAmount",
      "outputs": [],
      "stateMutability": "nonpayable",
      "type": "function"
    },
    {
      "inputs": [],
      "name": "symbol",
      "outputs": [
        {
          "internalType": "string",
          "name": "",
          "type": "string"
        }
      ],
      "stateMutability": "view",
      "type": "function"
    },
    {
      "inputs": [],
      "name": "totalSupply",
      "outputs": [
        {
          "internalType": "uint256",
          "name": "",
          "type": "uint256"
        }
      ],
      "stateMutability": "view",
      "type": "function"
    },
    {
      "inputs": [
        {
          "internalType": "address",
          "name": "to",
          "type": "address"
        },
        {
          "internalType": "uint256",
          "name": "amount",
          "type": "uint256"
        }
      ],
      "name": "transfer",
      "outputs": [
        {
          "internalType": "bool",
          "name": "",
          "type": "bool"
        }
      ],
      "stateMutability": "nonpayable",
      "type": "function"
    },
    {
      "inputs": [
        {
          "internalType": "address",
          "name": "from",
          "type": "address"
        },
        {
          "internalType": "address",
          "name": "to",
          "type": "address"
        },
        {
          "internalType": "uint256",
          "name": "amount",
          "type": "uint256"
        }
      ],
      "name": "transferFrom",
      "outputs": [
        {
          "internalType": "bool",
          "name": "",
          "type": "bool"
        }
      ],
      "stateMutability": "nonpayable",
      "type": "function"
    },
    {
      "inputs": [
        {
          "internalType": "address",
          "name": "newOwner",
          "type": "address"
        }
      ],
      "name": "transferOwnership",
      "outputs": [],
      "stateMutability": "nonpayable",
      "type": "function"
    },
    {
      "inputs": [
        {
          "internalType": "string",
          "name": "uuid",
          "type": "string"
        }
      ],
      "name": "unbindWallet",
      "outputs": [],
      "stateMutability": "nonpayable",
      "type": "function"
    },
    {
      "inputs": [
        {
          "internalType": "string",
          "name": "uuid",
          "type": "string"
        }
      ],
      "name": "verifyWallet",
      "outputs": [],
      "stateMutability": "nonpayable",
      "type": "function"
    },
    {
      "inputs": [
        {
          "internalType": "uint8",
          "name": "_type",
          "type": "uint8"
        }
      ],
      "name": "withdraw",
      "outputs": [],
      "stateMutability": "nonpayable",
      "type": "function"
    },
    {
      "inputs": [],
      "name": "withdrawAllOrderTokens",
      "outputs": [],
      "stateMutability": "nonpayable",
      "type": "function"
    },
    {
      "inputs": [
        {
          "internalType": "string",
          "name": "orderId",
          "type": "string"
        }
      ],
      "name": "withdrawOrderTokens",
      "outputs": [],
      "stateMutability": "nonpayable",
      "type": "function"
    }
  ],
  "bytecode": "0x60806040523480156200001157600080fd5b506040518060400160405280600e81526020017f466c6f77536869656c642044616f0000000000000000000000000000000000008152506040518060400160405280600381526020017f465344000000000000000000000000000000000000000000000000000000000081525081600390816200008f91906200065b565b508060049081620000a191906200065b565b505050620000c4620000b86200019360201b60201c565b6200019b60201b60201c565b6200010433620000d96200026160201b60201c565b600a620000e79190620008d2565b6305f5e100620000f8919062000923565b6200026a60201b60201c565b620001146200026160201b60201c565b600a620001229190620008d2565b61138862000131919062000923565b600781905550620001476200026160201b60201c565b600a620001559190620008d2565b6103e862000164919062000923565b600881905550610e10600960006101000a81548163ffffffff021916908363ffffffff16021790555062000a5a565b600033905090565b6000600560009054906101000a900473ffffffffffffffffffffffffffffffffffffffff16905081600560006101000a81548173ffffffffffffffffffffffffffffffffffffffff021916908373ffffffffffffffffffffffffffffffffffffffff1602179055508173ffffffffffffffffffffffffffffffffffffffff168173ffffffffffffffffffffffffffffffffffffffff167f8be0079c531659141344cd1fd0a4f28419497f9722a3daafe3b4186f6b6457e060405160405180910390a35050565b60006012905090565b600073ffffffffffffffffffffffffffffffffffffffff168273ffffffffffffffffffffffffffffffffffffffff1603620002dc576040517f08c379a0000000000000000000000000000000000000000000000000000000008152600401620002d390620009cf565b60405180910390fd5b620002f060008383620003d760201b60201c565b8060026000828254620003049190620009f1565b92505081905550806000808473ffffffffffffffffffffffffffffffffffffffff1673ffffffffffffffffffffffffffffffffffffffff168152602001908152602001600020600082825401925050819055508173ffffffffffffffffffffffffffffffffffffffff16600073ffffffffffffffffffffffffffffffffffffffff167fddf252ad1be2c89b69c2b068fc378daa952ba7f163c4a11628f55a4df523b3ef83604051620003b7919062000a3d565b60405180910390a3620003d360008383620003dc60201b60201c565b5050565b505050565b505050565b600081519050919050565b7f4e487b7100000000000000000000000000000000000000000000000000000000600052604160045260246000fd5b7f4e487b7100000000000000000000000000000000000000000000000000000000600052602260045260246000fd5b600060028204905060018216806200046357607f821691505b6020821081036200047957620004786200041b565b5b50919050565b60008190508160005260206000209050919050565b60006020601f8301049050919050565b600082821b905092915050565b600060088302620004e37fffffffffffffffffffffffffffffffffffffffffffffffffffffffffffffffff82620004a4565b620004ef8683620004a4565b95508019841693508086168417925050509392505050565b6000819050919050565b6000819050919050565b60006200053c62000536620005308462000507565b62000511565b62000507565b9050919050565b6000819050919050565b62000558836200051b565b62000570620005678262000543565b848454620004b1565b825550505050565b600090565b6200058762000578565b620005948184846200054d565b505050565b5b81811015620005bc57620005b06000826200057d565b6001810190506200059a565b5050565b601f8211156200060b57620005d5816200047f565b620005e08462000494565b81016020851015620005f0578190505b62000608620005ff8562000494565b83018262000599565b50505b505050565b600082821c905092915050565b6000620006306000198460080262000610565b1980831691505092915050565b60006200064b83836200061d565b9150826002028217905092915050565b6200066682620003e1565b67ffffffffffffffff811115620006825762000681620003ec565b5b6200068e82546200044a565b6200069b828285620005c0565b600060209050601f831160018114620006d35760008415620006be578287015190505b620006ca85826200063d565b8655506200073a565b601f198416620006e3866200047f565b60005b828110156200070d57848901518255600182019150602085019450602081019050620006e6565b868310156200072d578489015162000729601f8916826200061d565b8355505b6001600288020188555050505b505050505050565b7f4e487b7100000000000000000000000000000000000000000000000000000000600052601160045260246000fd5b60008160011c9050919050565b6000808291508390505b6001851115620007d057808604811115620007a857620007a762000742565b5b6001851615620007b85780820291505b8081029050620007c88562000771565b945062000788565b94509492505050565b600082620007eb5760019050620008be565b81620007fb5760009050620008be565b81600181146200081457600281146200081f5762000855565b6001915050620008be565b60ff84111562000834576200083362000742565b5b8360020a9150848211156200084e576200084d62000742565b5b50620008be565b5060208310610133831016604e8410600b84101617156200088f5782820a90508381111562000889576200088862000742565b5b620008be565b6200089e84848460016200077e565b92509050818404811115620008b857620008b762000742565b5b81810290505b9392505050565b600060ff82169050919050565b6000620008df8262000507565b9150620008ec83620008c5565b92506200091b7fffffffffffffffffffffffffffffffffffffffffffffffffffffffffffffffff8484620007d9565b905092915050565b6000620009308262000507565b91506200093d8362000507565b92508282026200094d8162000507565b9150828204841483151762000967576200096662000742565b5b5092915050565b600082825260208201905092915050565b7f45524332303a206d696e7420746f20746865207a65726f206164647265737300600082015250565b6000620009b7601f836200096e565b9150620009c4826200097f565b602082019050919050565b60006020820190508181036000830152620009ea81620009a8565b9050919050565b6000620009fe8262000507565b915062000a0b8362000507565b925082820190508082111562000a265762000a2562000742565b5b92915050565b62000a378162000507565b82525050565b600060208201905062000a54600083018462000a2c565b92915050565b614af48062000a6a6000396000f3fe608060405234801561001057600080fd5b50600436106102065760003560e01c80638da5cb5b1161011a578063c6ab5d90116100ad578063e1254fba1161007c578063e1254fba14610613578063f276b8aa14610644578063f2fde38b14610674578063f3fbfc7b14610690578063ffc2c9b7146106ae57610206565b8063c6ab5d901461057b578063d19e485614610597578063dd62ed3e146105b3578063dd6887ed146105e357610206565b8063a457c2d7116100e9578063a457c2d7146104cc578063a4e2df66146104fc578063a9059cbb1461052d578063c5bc91e81461055d57610206565b80638da5cb5b146104565780638ec012b91461047457806395d89b4114610490578063a23c7c14146104ae57610206565b8063395093511161019d57806370a082311161016c57806370a082311461039f578063715018a6146103cf5780637c9b7fdd146103d95780638291a0211461040a57806387a858d21461043a57610206565b8063395093511461031b5780635c9abe111461034b5780635e3ae06e14610367578063604f21771461038357610206565b806323b872dd116101d957806323b872dd146102a757806325cfedb5146102d757806327a0b34a146102f3578063313ce567146102fd57610206565b806306fdde031461020b578063095ea7b31461022957806318160ddd14610259578063183dd1cd14610277575b600080fd5b6102136106ca565b604051610220919061353b565b60405180910390f35b610243600480360381019061023e9190613605565b61075c565b6040516102509190613660565b60405180910390f35b61026161077f565b60405161026e919061368a565b60405180910390f35b610291600480360381019061028c91906136a5565b610789565b60405161029e91906137de565b60405180910390f35b6102c160048036038101906102bc9190613800565b6108a1565b6040516102ce9190613660565b60405180910390f35b6102f160048036038101906102ec9190613988565b6108d0565b005b6102fb610c7b565b005b61030561122f565b60405161031291906139ed565b60405180910390f35b61033560048036038101906103309190613605565b611238565b6040516103429190613660565b60405180910390f35b61036560048036038101906103609190613a44565b61126f565b005b610381600480360381019061037c9190613b23565b6115b0565b005b61039d60048036038101906103989190613b76565b61172a565b005b6103b960048036038101906103b491906136a5565b6119b2565b6040516103c6919061368a565b60405180910390f35b6103d76119fa565b005b6103f360048036038101906103ee9190613988565b611a0e565b604051610401929190613ba3565b60405180910390f35b610424600480360381019061041f9190613988565b611b68565b6040516104319190613ce2565b60405180910390f35b610454600480360381019061044f9190613d04565b611d63565b005b61045e611f18565b60405161046b9190613d6f565b60405180910390f35b61048e60048036038101906104899190613988565b611f42565b005b61049861217c565b6040516104a5919061353b565b60405180910390f35b6104b661220e565b6040516104c3919061368a565b60405180910390f35b6104e660048036038101906104e19190613605565b612214565b6040516104f39190613660565b60405180910390f35b61051660048036038101906105119190613988565b61228b565b604051610524929190613d8a565b60405180910390f35b61054760048036038101906105429190613605565b612308565b6040516105549190613660565b60405180910390f35b61056561232b565b604051610572919061368a565b60405180910390f35b61059560048036038101906105909190613b76565b612331565b005b6105b160048036038101906105ac9190613988565b612505565b005b6105cd60048036038101906105c89190613db3565b6125dd565b6040516105da919061368a565b60405180910390f35b6105fd60048036038101906105f89190613988565b612664565b60405161060a9190613660565b60405180910390f35b61062d600480360381019061062891906136a5565b61269c565b60405161063b929190613df3565b60405180910390f35b61065e60048036038101906106599190613b76565b612728565b60405161066b9190613660565b60405180910390f35b61068e600480360381019061068991906136a5565b6127e0565b005b610698612863565b6040516106a5919061368a565b60405180910390f35b6106c860048036038101906106c39190613988565b612d39565b005b6060600380546106d990613e4b565b80601f016020809104026020016040519081016040528092919081815260200182805461070590613e4b565b80156107525780601f1061072757610100808354040283529160200191610752565b820191906000526020600020905b81548152906001019060200180831161073557829003601f168201915b5050505050905090565b600080610767612e01565b9050610774818585612e09565b600191505092915050565b6000600254905090565b6060600d60008373ffffffffffffffffffffffffffffffffffffffff1673ffffffffffffffffffffffffffffffffffffffff168152602001908152602001600020805480602002602001604051908101604052809291908181526020016000905b8282101561089657838290600052602060002001805461080990613e4b565b80601f016020809104026020016040519081016040528092919081815260200182805461083590613e4b565b80156108825780601f1061085757610100808354040283529160200191610882565b820191906000526020600020905b81548152906001019060200180831161086557829003601f168201915b5050505050815260200190600101906107ea565b505050509050919050565b6000806108ac612e01565b90506108b9858285612fd2565b6108c485858561305e565b60019150509392505050565b600c816040516108e09190613eb8565b908152602001604051809103902060060160019054906101000a900460ff161561093f576040517f08c379a000000000000000000000000000000000000000000000000000000000815260040161093690613f1b565b60405180910390fd5b3373ffffffffffffffffffffffffffffffffffffffff16600c826040516109669190613eb8565b908152602001604051809103902060070160009054906101000a900473ffffffffffffffffffffffffffffffffffffffff1673ffffffffffffffffffffffffffffffffffffffff16146109ee576040517f08c379a00000000000000000000000000000000000000000000000000000000081526004016109e590613fad565b60405180910390fd5b600c816040516109fe9190613eb8565b9081526020016040518091039020600201544210610b3e576001600c82604051610a289190613eb8565b908152602001604051809103902060060160016101000a81548160ff0219169083151502179055506000600c82604051610a629190613eb8565b908152602001604051809103902060030154600c83604051610a849190613eb8565b908152602001604051809103902060040160009054906101000a900463ffffffff1663ffffffff16610ab69190613ffc565b9050600081600c84604051610acb9190613eb8565b908152602001604051809103902060040160009054906101000a900463ffffffff1663ffffffff16600c85604051610b039190613eb8565b908152602001604051809103902060050154610b1f919061405f565b610b299190614090565b9050610b363033836108a1565b505050610c78565b6000600c82604051610b509190613eb8565b908152602001604051809103902060030154600960009054906101000a900463ffffffff1663ffffffff16600c84604051610b8b9190613eb8565b90815260200160405180910390206001015442610ba89190613ffc565b610bb2919061405f565b610bbc9190613ffc565b905080600c83604051610bcf9190613eb8565b90815260200160405180910390206003016000828254610bef91906140d2565b92505081905550600081600c84604051610c099190613eb8565b908152602001604051809103902060040160009054906101000a900463ffffffff1663ffffffff16600c85604051610c419190613eb8565b908152602001604051809103902060050154610c5d919061405f565b610c679190614090565b9050610c743033836108a1565b5050505b50565b6000600b60003373ffffffffffffffffffffffffffffffffffffffff1673ffffffffffffffffffffffffffffffffffffffff1681526020019081526020016000205403610cfd576040517f08c379a0000000000000000000000000000000000000000000000000000000008152600401610cf490614152565b60405180910390fd5b6000600d60003373ffffffffffffffffffffffffffffffffffffffff1673ffffffffffffffffffffffffffffffffffffffff168152602001908152602001600020805480602002602001604051908101604052809291908181526020016000905b82821015610e0a578382906000526020600020018054610d7d90613e4b565b80601f0160208091040260200160405190810160405280929190818152602001828054610da990613e4b565b8015610df65780601f10610dcb57610100808354040283529160200191610df6565b820191906000526020600020905b815481529060010190602001808311610dd957829003601f168201915b505050505081526020019060010190610d5e565b5050505090506000805b825181101561121e57600c838281518110610e3257610e31614172565b5b6020026020010151604051610e479190613eb8565b908152602001604051809103902060060160019054906101000a900460ff1661120b57600c838281518110610e7f57610e7e614172565b5b6020026020010151604051610e949190613eb8565b9081526020016040518091039020600201544210611052576001600c848381518110610ec357610ec2614172565b5b6020026020010151604051610ed89190613eb8565b908152602001604051809103902060060160016101000a81548160ff0219169083151502179055506000600c848381518110610f1757610f16614172565b5b6020026020010151604051610f2c9190613eb8565b908152602001604051809103902060030154600c858481518110610f5357610f52614172565b5b6020026020010151604051610f689190613eb8565b908152602001604051809103902060040160009054906101000a900463ffffffff1663ffffffff16610f9a9190613ffc565b905080600c858481518110610fb257610fb1614172565b5b6020026020010151604051610fc79190613eb8565b908152602001604051809103902060040160009054906101000a900463ffffffff1663ffffffff16600c86858151811061100457611003614172565b5b60200260200101516040516110199190613eb8565b908152602001604051809103902060050154611035919061405f565b61103f9190614090565b8361104a91906140d2565b92505061120a565b6000600c84838151811061106957611068614172565b5b602002602001015160405161107e9190613eb8565b908152602001604051809103902060030154600960009054906101000a900463ffffffff1663ffffffff16600c8685815181106110be576110bd614172565b5b60200260200101516040516110d39190613eb8565b908152602001604051809103902060010154426110f09190613ffc565b6110fa919061405f565b6111049190613ffc565b905080600c85848151811061111c5761111b614172565b5b60200260200101516040516111319190613eb8565b9081526020016040518091039020600301600082825461115191906140d2565b9250508190555080600c85848151811061116e5761116d614172565b5b60200260200101516040516111839190613eb8565b908152602001604051809103902060040160009054906101000a900463ffffffff1663ffffffff16600c8685815181106111c0576111bf614172565b5b60200260200101516040516111d59190613eb8565b9081526020016040518091039020600501546111f1919061405f565b6111fb9190614090565b8361120691906140d2565b9250505b5b8080611216906141a1565b915050610e14565b5061122a3033836108a1565b505050565b60006012905090565b600080611243612e01565b905061126481858561125585896125dd565b61125f91906140d2565b612e09565b600191505092915050565b600c8360405161127f9190613eb8565b908152602001604051809103902060060160009054906101000a900460ff16156112de576040517f08c379a00000000000000000000000000000000000000000000000000000000081526004016112d590614235565b60405180910390fd5b816112e8336119b2565b1015611329576040517f08c379a0000000000000000000000000000000000000000000000000000000008152600401611320906142a1565b60405180910390fd5b6113333083612308565b50604051806101400160405280868152602001428152602001600960009054906101000a900463ffffffff168661136a91906142c1565b63ffffffff164261137b91906140d2565b8152602001600081526020018563ffffffff1681526020018381526020016001151581526020016000151581526020013373ffffffffffffffffffffffffffffffffffffffff1681526020018273ffffffffffffffffffffffffffffffffffffffff16815250600c846040516113f19190613eb8565b9081526020016040518091039020600082015181600001908161141491906144aa565b5060208201518160010155604082015181600201556060820151816003015560808201518160040160006101000a81548163ffffffff021916908363ffffffff16021790555060a0820151816005015560c08201518160060160006101000a81548160ff02191690831515021790555060e08201518160060160016101000a81548160ff0219169083151502179055506101008201518160060160026101000a81548173ffffffffffffffffffffffffffffffffffffffff021916908373ffffffffffffffffffffffffffffffffffffffff1602179055506101208201518160070160006101000a81548173ffffffffffffffffffffffffffffffffffffffff021916908373ffffffffffffffffffffffffffffffffffffffff160217905550905050600d60008273ffffffffffffffffffffffffffffffffffffffff1673ffffffffffffffffffffffffffffffffffffffff168152602001908152602001600020839080600181540180825580915050600190039060005260206000200160009091909190915090816115a891906144aa565b505050505050565b60018360ff160361166c57806115c5336119b2565b1015611606576040517f08c379a00000000000000000000000000000000000000000000000000000000081526004016115fd906142a1565b60405180910390fd5b6116103082612308565b5080600a60008473ffffffffffffffffffffffffffffffffffffffff1673ffffffffffffffffffffffffffffffffffffffff168152602001908152602001600020600082825461166091906140d2565b92505081905550611725565b60028360ff16036117245780611681336119b2565b10156116c2576040517f08c379a00000000000000000000000000000000000000000000000000000000081526004016116b9906142a1565b60405180910390fd5b6116cc3082612308565b5080600b60008473ffffffffffffffffffffffffffffffffffffffff1673ffffffffffffffffffffffffffffffffffffffff168152602001908152602001600020600082825461171c91906140d2565b925050819055505b5b505050565b60018160ff160361186e576000600a60003373ffffffffffffffffffffffffffffffffffffffff1673ffffffffffffffffffffffffffffffffffffffff16815260200190815260200160002054146117b7576040517f08c379a00000000000000000000000000000000000000000000000000000000081526004016117ae906145c8565b60405180910390fd5b6007546117c3336119b2565b1015611804576040517f08c379a00000000000000000000000000000000000000000000000000000000081526004016117fb906142a1565b60405180910390fd5b61181030600754612308565b50600754600a60003373ffffffffffffffffffffffffffffffffffffffff1673ffffffffffffffffffffffffffffffffffffffff168152602001908152602001600020600082825461186291906140d2565b925050819055506119af565b60028160ff16036119ae576000600b60003373ffffffffffffffffffffffffffffffffffffffff1673ffffffffffffffffffffffffffffffffffffffff16815260200190815260200160002054146118fb576040517f08c379a00000000000000000000000000000000000000000000000000000000081526004016118f2906145c8565b60405180910390fd5b600854611907336119b2565b1015611948576040517f08c379a000000000000000000000000000000000000000000000000000000000815260040161193f906142a1565b60405180910390fd5b61195430600854612308565b50600854600b60003373ffffffffffffffffffffffffffffffffffffffff1673ffffffffffffffffffffffffffffffffffffffff16815260200190815260200160002060008282546119a691906140d2565b925050819055505b5b50565b60008060008373ffffffffffffffffffffffffffffffffffffffff1673ffffffffffffffffffffffffffffffffffffffff168152602001908152602001600020549050919050565b611a026132d4565b611a0c6000613352565b565b6000806002600684604051611a239190613eb8565b908152602001604051809103902060000160149054906101000a900460ff1660ff1603611b5b576000600a6000600686604051611a609190613eb8565b908152602001604051809103902060000160009054906101000a900473ffffffffffffffffffffffffffffffffffffffff1673ffffffffffffffffffffffffffffffffffffffff1673ffffffffffffffffffffffffffffffffffffffff16815260200190815260200160002054116000600b6000600687604051611ae49190613eb8565b908152602001604051809103902060000160009054906101000a900473ffffffffffffffffffffffffffffffffffffffff1673ffffffffffffffffffffffffffffffffffffffff1673ffffffffffffffffffffffffffffffffffffffff168152602001908152602001600020541191509150611b63565b600080915091505b915091565b611b70613422565b600c82604051611b809190613eb8565b908152602001604051809103902060405180610140016040529081600082018054611baa90613e4b565b80601f0160208091040260200160405190810160405280929190818152602001828054611bd690613e4b565b8015611c235780601f10611bf857610100808354040283529160200191611c23565b820191906000526020600020905b815481529060010190602001808311611c0657829003601f168201915b505050505081526020016001820154815260200160028201548152602001600382015481526020016004820160009054906101000a900463ffffffff1663ffffffff1663ffffffff168152602001600582015481526020016006820160009054906101000a900460ff161515151581526020016006820160019054906101000a900460ff161515151581526020016006820160029054906101000a900473ffffffffffffffffffffffffffffffffffffffff1673ffffffffffffffffffffffffffffffffffffffff1673ffffffffffffffffffffffffffffffffffffffff1681526020016007820160009054906101000a900473ffffffffffffffffffffffffffffffffffffffff1673ffffffffffffffffffffffffffffffffffffffff1673ffffffffffffffffffffffffffffffffffffffff16815250509050919050565b600073ffffffffffffffffffffffffffffffffffffffff168173ffffffffffffffffffffffffffffffffffffffff1603611d9c57600080fd5b6001600683604051611dae9190613eb8565b908152602001604051809103902060000160149054906101000a900460ff1660ff1603611e3a5780600683604051611de69190613eb8565b908152602001604051809103902060000160006101000a81548173ffffffffffffffffffffffffffffffffffffffff021916908373ffffffffffffffffffffffffffffffffffffffff160217905550611f14565b3373ffffffffffffffffffffffffffffffffffffffff16600683604051611e619190613eb8565b908152602001604051809103902060000160009054906101000a900473ffffffffffffffffffffffffffffffffffffffff1673ffffffffffffffffffffffffffffffffffffffff1614611eb357600080fd5b80600683604051611ec49190613eb8565b908152602001604051809103902060000160006101000a81548173ffffffffffffffffffffffffffffffffffffffff021916908373ffffffffffffffffffffffffffffffffffffffff1602179055505b5050565b6000600560009054906101000a900473ffffffffffffffffffffffffffffffffffffffff16905090565b600073ffffffffffffffffffffffffffffffffffffffff16600682604051611f6a9190613eb8565b908152602001604051809103902060000160009054906101000a900473ffffffffffffffffffffffffffffffffffffffff1673ffffffffffffffffffffffffffffffffffffffff1614611fbc57600080fd5b6000600a60003373ffffffffffffffffffffffffffffffffffffffff1673ffffffffffffffffffffffffffffffffffffffff16815260200190815260200160002054036120c05760405180604001604052803373ffffffffffffffffffffffffffffffffffffffff168152602001600160ff168152506006826040516120429190613eb8565b908152602001604051809103902060008201518160000160006101000a81548173ffffffffffffffffffffffffffffffffffffffff021916908373ffffffffffffffffffffffffffffffffffffffff16021790555060208201518160000160146101000a81548160ff021916908360ff160217905550905050612179565b60405180604001604052803373ffffffffffffffffffffffffffffffffffffffff168152602001600260ff168152506006826040516120ff9190613eb8565b908152602001604051809103902060008201518160000160006101000a81548173ffffffffffffffffffffffffffffffffffffffff021916908373ffffffffffffffffffffffffffffffffffffffff16021790555060208201518160000160146101000a81548160ff021916908360ff1602179055509050505b50565b60606004805461218b90613e4b565b80601f01602080910402602001604051908101604052809291908181526020018280546121b790613e4b565b80156122045780601f106121d957610100808354040283529160200191612204565b820191906000526020600020905b8154815290600101906020018083116121e757829003601f168201915b5050505050905090565b60075481565b60008061221f612e01565b9050600061222d82866125dd565b905083811015612272576040517f08c379a00000000000000000000000000000000000000000000000000000000081526004016122699061465a565b60405180910390fd5b61227f8286868403612e09565b60019250505092915050565b60008060068360405161229e9190613eb8565b908152602001604051809103902060000160009054906101000a900473ffffffffffffffffffffffffffffffffffffffff166006846040516122e09190613eb8565b908152602001604051809103902060000160149054906101000a900460ff1691509150915091565b600080612313612e01565b905061232081858561305e565b600191505092915050565b60085481565b60018160ff160361241b576000600a60003373ffffffffffffffffffffffffffffffffffffffff1673ffffffffffffffffffffffffffffffffffffffff168152602001908152602001600020541161238857600080fd5b6123d23033600a60003373ffffffffffffffffffffffffffffffffffffffff1673ffffffffffffffffffffffffffffffffffffffff168152602001908152602001600020546108a1565b50600a60003373ffffffffffffffffffffffffffffffffffffffff1673ffffffffffffffffffffffffffffffffffffffff16815260200190815260200160002060009055612502565b60028160ff1603612501576000600b60003373ffffffffffffffffffffffffffffffffffffffff1673ffffffffffffffffffffffffffffffffffffffff168152602001908152602001600020541161247257600080fd5b6124bc3033600b60003373ffffffffffffffffffffffffffffffffffffffff1673ffffffffffffffffffffffffffffffffffffffff168152602001908152602001600020546108a1565b50600b60003373ffffffffffffffffffffffffffffffffffffffff1673ffffffffffffffffffffffffffffffffffffffff168152602001908152602001600020600090555b5b50565b3373ffffffffffffffffffffffffffffffffffffffff1660068260405161252c9190613eb8565b908152602001604051809103902060000160009054906101000a900473ffffffffffffffffffffffffffffffffffffffff1673ffffffffffffffffffffffffffffffffffffffff161461257e57600080fd5b60068160405161258e9190613eb8565b9081526020016040518091039020600080820160006101000a81549073ffffffffffffffffffffffffffffffffffffffff02191690556000820160146101000a81549060ff0219169055505050565b6000600160008473ffffffffffffffffffffffffffffffffffffffff1673ffffffffffffffffffffffffffffffffffffffff16815260200190815260200160002060008373ffffffffffffffffffffffffffffffffffffffff1673ffffffffffffffffffffffffffffffffffffffff16815260200190815260200160002054905092915050565b6000600c826040516126769190613eb8565b908152602001604051809103902060060160009054906101000a900460ff169050919050565b600080600a60008473ffffffffffffffffffffffffffffffffffffffff1673ffffffffffffffffffffffffffffffffffffffff16815260200190815260200160002054600b60008573ffffffffffffffffffffffffffffffffffffffff1673ffffffffffffffffffffffffffffffffffffffff1681526020019081526020016000205491509150915091565b600060018260ff1603612780576000600a60003373ffffffffffffffffffffffffffffffffffffffff1673ffffffffffffffffffffffffffffffffffffffff16815260200190815260200160002054141590506127db565b60028260ff16036127d6576000600b60003373ffffffffffffffffffffffffffffffffffffffff1673ffffffffffffffffffffffffffffffffffffffff16815260200190815260200160002054141590506127db565b600090505b919050565b6127e86132d4565b600073ffffffffffffffffffffffffffffffffffffffff168173ffffffffffffffffffffffffffffffffffffffff1603612857576040517f08c379a000000000000000000000000000000000000000000000000000000000815260040161284e906146ec565b60405180910390fd5b61286081613352565b50565b600080600b60003373ffffffffffffffffffffffffffffffffffffffff1673ffffffffffffffffffffffffffffffffffffffff16815260200190815260200160002054036128b45760009050612d36565b6000600d60003373ffffffffffffffffffffffffffffffffffffffff1673ffffffffffffffffffffffffffffffffffffffff168152602001908152602001600020805480602002602001604051908101604052809291908181526020016000905b828210156129c157838290600052602060002001805461293490613e4b565b80601f016020809104026020016040519081016040528092919081815260200182805461296090613e4b565b80156129ad5780601f10612982576101008083540402835291602001916129ad565b820191906000526020600020905b81548152906001019060200180831161299057829003601f168201915b505050505081526020019060010190612915565b5050505090506000805b8251811015612d2f57600c8382815181106129e9576129e8614172565b5b60200260200101516040516129fe9190613eb8565b908152602001604051809103902060060160019054906101000a900460ff16612d1c57600c838281518110612a3657612a35614172565b5b6020026020010151604051612a4b9190613eb8565b9081526020016040518091039020600201544210612bb5576000600c848381518110612a7a57612a79614172565b5b6020026020010151604051612a8f9190613eb8565b908152602001604051809103902060030154600c858481518110612ab657612ab5614172565b5b6020026020010151604051612acb9190613eb8565b908152602001604051809103902060040160009054906101000a900463ffffffff1663ffffffff16612afd9190613ffc565b905080600c858481518110612b1557612b14614172565b5b6020026020010151604051612b2a9190613eb8565b908152602001604051809103902060040160009054906101000a900463ffffffff1663ffffffff16600c868581518110612b6757612b66614172565b5b6020026020010151604051612b7c9190613eb8565b908152602001604051809103902060050154612b98919061405f565b612ba29190614090565b83612bad91906140d2565b925050612d1b565b6000600c848381518110612bcc57612bcb614172565b5b6020026020010151604051612be19190613eb8565b908152602001604051809103902060030154600960009054906101000a900463ffffffff1663ffffffff16600c868581518110612c2157612c20614172565b5b6020026020010151604051612c369190613eb8565b90815260200160405180910390206001015442612c539190613ffc565b612c5d919061405f565b612c679190613ffc565b905080600c858481518110612c7f57612c7e614172565b5b6020026020010151604051612c949190613eb8565b908152602001604051809103902060040160009054906101000a900463ffffffff1663ffffffff16600c868581518110612cd157612cd0614172565b5b6020026020010151604051612ce69190613eb8565b908152602001604051809103902060050154612d02919061405f565b612d0c9190614090565b83612d1791906140d2565b9250505b5b8080612d27906141a1565b9150506129cb565b5080925050505b90565b6000600a60003373ffffffffffffffffffffffffffffffffffffffff1673ffffffffffffffffffffffffffffffffffffffff1681526020019081526020016000205411612d8557600080fd5b6001600682604051612d979190613eb8565b908152602001604051809103902060000160149054906101000a900460ff1660ff1614612dc357600080fd5b6002600682604051612dd59190613eb8565b908152602001604051809103902060000160146101000a81548160ff021916908360ff16021790555050565b600033905090565b600073ffffffffffffffffffffffffffffffffffffffff168373ffffffffffffffffffffffffffffffffffffffff1603612e78576040517f08c379a0000000000000000000000000000000000000000000000000000000008152600401612e6f9061477e565b60405180910390fd5b600073ffffffffffffffffffffffffffffffffffffffff168273ffffffffffffffffffffffffffffffffffffffff1603612ee7576040517f08c379a0000000000000000000000000000000000000000000000000000000008152600401612ede90614810565b60405180910390fd5b80600160008573ffffffffffffffffffffffffffffffffffffffff1673ffffffffffffffffffffffffffffffffffffffff16815260200190815260200160002060008473ffffffffffffffffffffffffffffffffffffffff1673ffffffffffffffffffffffffffffffffffffffff168152602001908152602001600020819055508173ffffffffffffffffffffffffffffffffffffffff168373ffffffffffffffffffffffffffffffffffffffff167f8c5be1e5ebec7d5bd14f71427d1e84f3dd0314c0f7b2291e5b200ac8c7c3b92583604051612fc5919061368a565b60405180910390a3505050565b6000612fde84846125dd565b90507fffffffffffffffffffffffffffffffffffffffffffffffffffffffffffffffff8114613058578181101561304a576040517f08c379a00000000000000000000000000000000000000000000000000000000081526004016130419061487c565b60405180910390fd5b6130578484848403612e09565b5b50505050565b600073ffffffffffffffffffffffffffffffffffffffff168373ffffffffffffffffffffffffffffffffffffffff16036130cd576040517f08c379a00000000000000000000000000000000000000000000000000000000081526004016130c49061490e565b60405180910390fd5b600073ffffffffffffffffffffffffffffffffffffffff168273ffffffffffffffffffffffffffffffffffffffff160361313c576040517f08c379a0000000000000000000000000000000000000000000000000000000008152600401613133906149a0565b60405180910390fd5b613147838383613418565b60008060008573ffffffffffffffffffffffffffffffffffffffff1673ffffffffffffffffffffffffffffffffffffffff168152602001908152602001600020549050818110156131cd576040517f08c379a00000000000000000000000000000000000000000000000000000000081526004016131c490614a32565b60405180910390fd5b8181036000808673ffffffffffffffffffffffffffffffffffffffff1673ffffffffffffffffffffffffffffffffffffffff16815260200190815260200160002081905550816000808573ffffffffffffffffffffffffffffffffffffffff1673ffffffffffffffffffffffffffffffffffffffff168152602001908152602001600020600082825401925050819055508273ffffffffffffffffffffffffffffffffffffffff168473ffffffffffffffffffffffffffffffffffffffff167fddf252ad1be2c89b69c2b068fc378daa952ba7f163c4a11628f55a4df523b3ef846040516132bb919061368a565b60405180910390a36132ce84848461341d565b50505050565b6132dc612e01565b73ffffffffffffffffffffffffffffffffffffffff166132fa611f18565b73ffffffffffffffffffffffffffffffffffffffff1614613350576040517f08c379a000000000000000000000000000000000000000000000000000000000815260040161334790614a9e565b60405180910390fd5b565b6000600560009054906101000a900473ffffffffffffffffffffffffffffffffffffffff16905081600560006101000a81548173ffffffffffffffffffffffffffffffffffffffff021916908373ffffffffffffffffffffffffffffffffffffffff1602179055508173ffffffffffffffffffffffffffffffffffffffff168173ffffffffffffffffffffffffffffffffffffffff167f8be0079c531659141344cd1fd0a4f28419497f9722a3daafe3b4186f6b6457e060405160405180910390a35050565b505050565b505050565b60405180610140016040528060608152602001600081526020016000815260200160008152602001600063ffffffff16815260200160008152602001600015158152602001600015158152602001600073ffffffffffffffffffffffffffffffffffffffff168152602001600073ffffffffffffffffffffffffffffffffffffffff1681525090565b600081519050919050565b600082825260208201905092915050565b60005b838110156134e55780820151818401526020810190506134ca565b60008484015250505050565b6000601f19601f8301169050919050565b600061350d826134ab565b61351781856134b6565b93506135278185602086016134c7565b613530816134f1565b840191505092915050565b600060208201905081810360008301526135558184613502565b905092915050565b6000604051905090565b600080fd5b600080fd5b600073ffffffffffffffffffffffffffffffffffffffff82169050919050565b600061359c82613571565b9050919050565b6135ac81613591565b81146135b757600080fd5b50565b6000813590506135c9816135a3565b92915050565b6000819050919050565b6135e2816135cf565b81146135ed57600080fd5b50565b6000813590506135ff816135d9565b92915050565b6000806040838503121561361c5761361b613567565b5b600061362a858286016135ba565b925050602061363b858286016135f0565b9150509250929050565b60008115159050919050565b61365a81613645565b82525050565b60006020820190506136756000830184613651565b92915050565b613684816135cf565b82525050565b600060208201905061369f600083018461367b565b92915050565b6000602082840312156136bb576136ba613567565b5b60006136c9848285016135ba565b91505092915050565b600081519050919050565b600082825260208201905092915050565b6000819050602082019050919050565b600082825260208201905092915050565b600061371a826134ab565b61372481856136fe565b93506137348185602086016134c7565b61373d816134f1565b840191505092915050565b6000613754838361370f565b905092915050565b6000602082019050919050565b6000613774826136d2565b61377e81856136dd565b935083602082028501613790856136ee565b8060005b858110156137cc57848403895281516137ad8582613748565b94506137b88361375c565b925060208a01995050600181019050613794565b50829750879550505050505092915050565b600060208201905081810360008301526137f88184613769565b905092915050565b60008060006060848603121561381957613818613567565b5b6000613827868287016135ba565b9350506020613838868287016135ba565b9250506040613849868287016135f0565b9150509250925092565b600080fd5b600080fd5b7f4e487b7100000000000000000000000000000000000000000000000000000000600052604160045260246000fd5b613895826134f1565b810181811067ffffffffffffffff821117156138b4576138b361385d565b5b80604052505050565b60006138c761355d565b90506138d3828261388c565b919050565b600067ffffffffffffffff8211156138f3576138f261385d565b5b6138fc826134f1565b9050602081019050919050565b82818337600083830152505050565b600061392b613926846138d8565b6138bd565b90508281526020810184848401111561394757613946613858565b5b613952848285613909565b509392505050565b600082601f83011261396f5761396e613853565b5b813561397f848260208601613918565b91505092915050565b60006020828403121561399e5761399d613567565b5b600082013567ffffffffffffffff8111156139bc576139bb61356c565b5b6139c88482850161395a565b91505092915050565b600060ff82169050919050565b6139e7816139d1565b82525050565b6000602082019050613a0260008301846139de565b92915050565b600063ffffffff82169050919050565b613a2181613a08565b8114613a2c57600080fd5b50565b600081359050613a3e81613a18565b92915050565b600080600080600060a08688031215613a6057613a5f613567565b5b600086013567ffffffffffffffff811115613a7e57613a7d61356c565b5b613a8a8882890161395a565b9550506020613a9b88828901613a2f565b945050604086013567ffffffffffffffff811115613abc57613abb61356c565b5b613ac88882890161395a565b9350506060613ad9888289016135f0565b9250506080613aea888289016135ba565b9150509295509295909350565b613b00816139d1565b8114613b0b57600080fd5b50565b600081359050613b1d81613af7565b92915050565b600080600060608486031215613b3c57613b3b613567565b5b6000613b4a86828701613b0e565b9350506020613b5b868287016135ba565b9250506040613b6c868287016135f0565b9150509250925092565b600060208284031215613b8c57613b8b613567565b5b6000613b9a84828501613b0e565b91505092915050565b6000604082019050613bb86000830185613651565b613bc56020830184613651565b9392505050565b613bd5816135cf565b82525050565b613be481613a08565b82525050565b613bf381613645565b82525050565b613c0281613591565b82525050565b6000610140830160008301518482036000860152613c26828261370f565b9150506020830151613c3b6020860182613bcc565b506040830151613c4e6040860182613bcc565b506060830151613c616060860182613bcc565b506080830151613c746080860182613bdb565b5060a0830151613c8760a0860182613bcc565b5060c0830151613c9a60c0860182613bea565b5060e0830151613cad60e0860182613bea565b50610100830151613cc2610100860182613bf9565b50610120830151613cd7610120860182613bf9565b508091505092915050565b60006020820190508181036000830152613cfc8184613c08565b905092915050565b60008060408385031215613d1b57613d1a613567565b5b600083013567ffffffffffffffff811115613d3957613d3861356c565b5b613d458582860161395a565b9250506020613d56858286016135ba565b9150509250929050565b613d6981613591565b82525050565b6000602082019050613d846000830184613d60565b92915050565b6000604082019050613d9f6000830185613d60565b613dac60208301846139de565b9392505050565b60008060408385031215613dca57613dc9613567565b5b6000613dd8858286016135ba565b9250506020613de9858286016135ba565b9150509250929050565b6000604082019050613e08600083018561367b565b613e15602083018461367b565b9392505050565b7f4e487b7100000000000000000000000000000000000000000000000000000000600052602260045260246000fd5b60006002820490506001821680613e6357607f821691505b602082108103613e7657613e75613e1c565b5b50919050565b600081905092915050565b6000613e92826134ab565b613e9c8185613e7c565b9350613eac8185602086016134c7565b80840191505092915050565b6000613ec48284613e87565b915081905092915050565b7f546865206f7264657220686173206265656e2077697468647261776e00000000600082015250565b6000613f05601c836134b6565b9150613f1082613ecf565b602082019050919050565b60006020820190508181036000830152613f3481613ef8565b9050919050565b7f506c6561736520636f6e6669726d207468652077616c6c65742061646472657360008201527f732c2043616e206e6f7420776974686472617700000000000000000000000000602082015250565b6000613f976033836134b6565b9150613fa282613f3b565b604082019050919050565b60006020820190508181036000830152613fc681613f8a565b9050919050565b7f4e487b7100000000000000000000000000000000000000000000000000000000600052601160045260246000fd5b6000614007826135cf565b9150614012836135cf565b925082820390508181111561402a57614029613fcd565b5b92915050565b7f4e487b7100000000000000000000000000000000000000000000000000000000600052601260045260246000fd5b600061406a826135cf565b9150614075836135cf565b92508261408557614084614030565b5b828204905092915050565b600061409b826135cf565b91506140a6836135cf565b92508282026140b4816135cf565b915082820484148315176140cb576140ca613fcd565b5b5092915050565b60006140dd826135cf565b91506140e8836135cf565b9250828201905080821115614100576140ff613fcd565b5b92915050565b7f4e6f74206465706f736974730000000000000000000000000000000000000000600082015250565b600061413c600c836134b6565b915061414782614106565b602082019050919050565b6000602082019050818103600083015261416b8161412f565b9050919050565b7f4e487b7100000000000000000000000000000000000000000000000000000000600052603260045260246000fd5b60006141ac826135cf565b91507fffffffffffffffffffffffffffffffffffffffffffffffffffffffffffffffff82036141de576141dd613fcd565b5b600182019050919050565b7f416c726561647920706169640000000000000000000000000000000000000000600082015250565b600061421f600c836134b6565b915061422a826141e9565b602082019050919050565b6000602082019050818103600083015261424e81614212565b9050919050565b7f4e6f7420656e6f75676820435344000000000000000000000000000000000000600082015250565b600061428b600e836134b6565b915061429682614255565b602082019050919050565b600060208201905081810360008301526142ba8161427e565b9050919050565b60006142cc82613a08565b91506142d783613a08565b92508282026142e581613a08565b91508082146142f7576142f6613fcd565b5b5092915050565b60008190508160005260206000209050919050565b60006020601f8301049050919050565b600082821b905092915050565b6000600883026143607fffffffffffffffffffffffffffffffffffffffffffffffffffffffffffffffff82614323565b61436a8683614323565b95508019841693508086168417925050509392505050565b6000819050919050565b60006143a76143a261439d846135cf565b614382565b6135cf565b9050919050565b6000819050919050565b6143c18361438c565b6143d56143cd826143ae565b848454614330565b825550505050565b600090565b6143ea6143dd565b6143f58184846143b8565b505050565b5b818110156144195761440e6000826143e2565b6001810190506143fb565b5050565b601f82111561445e5761442f816142fe565b61443884614313565b81016020851015614447578190505b61445b61445385614313565b8301826143fa565b50505b505050565b600082821c905092915050565b600061448160001984600802614463565b1980831691505092915050565b600061449a8383614470565b9150826002028217905092915050565b6144b3826134ab565b67ffffffffffffffff8111156144cc576144cb61385d565b5b6144d68254613e4b565b6144e182828561441d565b600060209050601f8311600181146145145760008415614502578287015190505b61450c858261448e565b865550614574565b601f198416614522866142fe565b60005b8281101561454a57848901518255600182019150602085019450602081019050614525565b868310156145675784890151614563601f891682614470565b8355505b6001600288020188555050505b505050505050565b7f416c7265616479207374616b6564000000000000000000000000000000000000600082015250565b60006145b2600e836134b6565b91506145bd8261457c565b602082019050919050565b600060208201905081810360008301526145e1816145a5565b9050919050565b7f45524332303a2064656372656173656420616c6c6f77616e63652062656c6f7760008201527f207a65726f000000000000000000000000000000000000000000000000000000602082015250565b60006146446025836134b6565b915061464f826145e8565b604082019050919050565b6000602082019050818103600083015261467381614637565b9050919050565b7f4f776e61626c653a206e6577206f776e657220697320746865207a65726f206160008201527f6464726573730000000000000000000000000000000000000000000000000000602082015250565b60006146d66026836134b6565b91506146e18261467a565b604082019050919050565b60006020820190508181036000830152614705816146c9565b9050919050565b7f45524332303a20617070726f76652066726f6d20746865207a65726f2061646460008201527f7265737300000000000000000000000000000000000000000000000000000000602082015250565b60006147686024836134b6565b91506147738261470c565b604082019050919050565b600060208201905081810360008301526147978161475b565b9050919050565b7f45524332303a20617070726f766520746f20746865207a65726f20616464726560008201527f7373000000000000000000000000000000000000000000000000000000000000602082015250565b60006147fa6022836134b6565b91506148058261479e565b604082019050919050565b60006020820190508181036000830152614829816147ed565b9050919050565b7f45524332303a20696e73756666696369656e7420616c6c6f77616e6365000000600082015250565b6000614866601d836134b6565b915061487182614830565b602082019050919050565b6000602082019050818103600083015261489581614859565b9050919050565b7f45524332303a207472616e736665722066726f6d20746865207a65726f20616460008201527f6472657373000000000000000000000000000000000000000000000000000000602082015250565b60006148f86025836134b6565b91506149038261489c565b604082019050919050565b60006020820190508181036000830152614927816148eb565b9050919050565b7f45524332303a207472616e7366657220746f20746865207a65726f206164647260008201527f6573730000000000000000000000000000000000000000000000000000000000602082015250565b600061498a6023836134b6565b91506149958261492e565b604082019050919050565b600060208201905081810360008301526149b98161497d565b9050919050565b7f45524332303a207472616e7366657220616d6f756e742065786365656473206260008201527f616c616e63650000000000000000000000000000000000000000000000000000602082015250565b6000614a1c6026836134b6565b9150614a27826149c0565b604082019050919050565b60006020820190508181036000830152614a4b81614a0f565b9050919050565b7f4f776e61626c653a2063616c6c6572206973206e6f7420746865206f776e6572600082015250565b6000614a886020836134b6565b9150614a9382614a52565b602082019050919050565b60006020820190508181036000830152614ab781614a7b565b905091905056fea2646970667358221220268c599cbd6c57894c69ec114e79757d8b8514c9093f6ee4c6d7a96490f1310e64736f6c63430008110033",
  "linkReferences": {},
  "deployedLinkReferences": {}
}