{
  "_format": "hh-sol-artifact-1",
  "contractName": "CloudSlitDao",
  "sourceName": "contracts/CloudSlitDao.sol",
  "abi": [
    {
      "inputs": [],
      "stateMutability": "nonpayable",
      "type": "constructor"
    },
    {
      "anonymous": false,
      "inputs": [
        {
          "indexed": true,
          "internalType": "address",
          "name": "owner",
          "type": "address"
        },
        {
          "indexed": true,
          "internalType": "address",
          "name": "spender",
          "type": "address"
        },
        {
          "indexed": false,
          "internalType": "uint256",
          "name": "value",
          "type": "uint256"
        }
      ],
      "name": "Approval",
      "type": "event"
    },
    {
      "anonymous": false,
      "inputs": [
        {
          "indexed": false,
          "internalType": "uint8",
          "name": "version",
          "type": "uint8"
        }
      ],
      "name": "Initialized",
      "type": "event"
    },
    {
      "anonymous": false,
      "inputs": [
        {
          "indexed": true,
          "internalType": "address",
          "name": "previousOwner",
          "type": "address"
        },
        {
          "indexed": true,
          "internalType": "address",
          "name": "newOwner",
          "type": "address"
        }
      ],
      "name": "OwnershipTransferred",
      "type": "event"
    },
    {
      "anonymous": false,
      "inputs": [
        {
          "indexed": true,
          "internalType": "address",
          "name": "from",
          "type": "address"
        },
        {
          "indexed": true,
          "internalType": "address",
          "name": "to",
          "type": "address"
        },
        {
          "indexed": false,
          "internalType": "uint256",
          "name": "value",
          "type": "uint256"
        }
      ],
      "name": "Transfer",
      "type": "event"
    },
    {
      "inputs": [],
      "name": "_fullnodeDepositAmount",
      "outputs": [
        {
          "internalType": "uint256",
          "name": "",
          "type": "uint256"
        }
      ],
      "stateMutability": "view",
      "type": "function"
    },
    {
      "inputs": [],
      "name": "_privoderDepositAmount",
      "outputs": [
        {
          "internalType": "uint256",
          "name": "",
          "type": "uint256"
        }
      ],
      "stateMutability": "view",
      "type": "function"
    },
    {
      "inputs": [
        {
          "internalType": "address",
          "name": "owner",
          "type": "address"
        },
        {
          "internalType": "address",
          "name": "spender",
          "type": "address"
        }
      ],
      "name": "allowance",
      "outputs": [
        {
          "internalType": "uint256",
          "name": "",
          "type": "uint256"
        }
      ],
      "stateMutability": "view",
      "type": "function"
    },
    {
      "inputs": [
        {
          "internalType": "address",
          "name": "spender",
          "type": "address"
        },
        {
          "internalType": "uint256",
          "name": "amount",
          "type": "uint256"
        }
      ],
      "name": "approve",
      "outputs": [
        {
          "internalType": "bool",
          "name": "",
          "type": "bool"
        }
      ],
      "stateMutability": "nonpayable",
      "type": "function"
    },
    {
      "inputs": [
        {
          "internalType": "address",
          "name": "account",
          "type": "address"
        }
      ],
      "name": "balanceOf",
      "outputs": [
        {
          "internalType": "uint256",
          "name": "",
          "type": "uint256"
        }
      ],
      "stateMutability": "view",
      "type": "function"
    },
    {
      "inputs": [
        {
          "internalType": "string",
          "name": "uuid",
          "type": "string"
        }
      ],
      "name": "bindWallet",
      "outputs": [],
      "stateMutability": "nonpayable",
      "type": "function"
    },
    {
      "inputs": [
        {
          "internalType": "uint256",
          "name": "amount",
          "type": "uint256"
        }
      ],
      "name": "burn",
      "outputs": [],
      "stateMutability": "nonpayable",
      "type": "function"
    },
    {
      "inputs": [
        {
          "internalType": "address",
          "name": "account",
          "type": "address"
        },
        {
          "internalType": "uint256",
          "name": "amount",
          "type": "uint256"
        }
      ],
      "name": "burnFrom",
      "outputs": [],
      "stateMutability": "nonpayable",
      "type": "function"
    },
    {
      "inputs": [
        {
          "internalType": "string",
          "name": "uuid",
          "type": "string"
        },
        {
          "internalType": "address",
          "name": "newWallet",
          "type": "address"
        }
      ],
      "name": "changeWallet",
      "outputs": [],
      "stateMutability": "nonpayable",
      "type": "function"
    },
    {
      "inputs": [
        {
          "internalType": "string",
          "name": "orderId",
          "type": "string"
        }
      ],
      "name": "checkOrder",
      "outputs": [
        {
          "internalType": "bool",
          "name": "",
          "type": "bool"
        }
      ],
      "stateMutability": "view",
      "type": "function"
    },
    {
      "inputs": [
        {
          "internalType": "string",
          "name": "name",
          "type": "string"
        },
        {
          "internalType": "uint32",
          "name": "duration",
          "type": "uint32"
        },
        {
          "internalType": "string",
          "name": "orderId",
          "type": "string"
        },
        {
          "internalType": "uint256",
          "name": "price",
          "type": "uint256"
        },
        {
          "internalType": "address",
          "name": "to",
          "type": "address"
        }
      ],
      "name": "clientOrder",
      "outputs": [],
      "stateMutability": "nonpayable",
      "type": "function"
    },
    {
      "inputs": [],
      "name": "decimals",
      "outputs": [
        {
          "internalType": "uint8",
          "name": "",
          "type": "uint8"
        }
      ],
      "stateMutability": "view",
      "type": "function"
    },
    {
      "inputs": [
        {
          "internalType": "address",
          "name": "spender",
          "type": "address"
        },
        {
          "internalType": "uint256",
          "name": "subtractedValue",
          "type": "uint256"
        }
      ],
      "name": "decreaseAllowance",
      "outputs": [
        {
          "internalType": "bool",
          "name": "",
          "type": "bool"
        }
      ],
      "stateMutability": "nonpayable",
      "type": "function"
    },
    {
      "inputs": [],
      "name": "getAllOrderTokens",
      "outputs": [
        {
          "internalType": "uint256",
          "name": "",
          "type": "uint256"
        }
      ],
      "stateMutability": "view",
      "type": "function"
    },
    {
      "inputs": [
        {
          "internalType": "string",
          "name": "uuid",
          "type": "string"
        }
      ],
      "name": "getUserInfo",
      "outputs": [
        {
          "internalType": "bool",
          "name": "",
          "type": "bool"
        },
        {
          "internalType": "bool",
          "name": "",
          "type": "bool"
        }
      ],
      "stateMutability": "view",
      "type": "function"
    },
    {
      "inputs": [
        {
          "internalType": "string",
          "name": "uuid",
          "type": "string"
        }
      ],
      "name": "getWallet",
      "outputs": [
        {
          "internalType": "address",
          "name": "",
          "type": "address"
        },
        {
          "internalType": "uint8",
          "name": "",
          "type": "uint8"
        }
      ],
      "stateMutability": "view",
      "type": "function"
    },
    {
      "inputs": [
        {
          "internalType": "string",
          "name": "orderId",
          "type": "string"
        }
      ],
      "name": "get_ordersInfo",
      "outputs": [
        {
          "components": [
            {
              "internalType": "string",
              "name": "name",
              "type": "string"
            },
            {
              "internalType": "uint256",
              "name": "startTime",
              "type": "uint256"
            },
            {
              "internalType": "uint256",
              "name": "endTime",
              "type": "uint256"
            },
            {
              "internalType": "uint256",
              "name": "withdrawDuration",
              "type": "uint256"
            },
            {
              "internalType": "uint32",
              "name": "duration",
              "type": "uint32"
            },
            {
              "internalType": "uint256",
              "name": "price",
              "type": "uint256"
            },
            {
              "internalType": "bool",
              "name": "used",
              "type": "bool"
            },
            {
              "internalType": "bool",
              "name": "withdraw",
              "type": "bool"
            },
            {
              "internalType": "address",
              "name": "payAddress",
              "type": "address"
            },
            {
              "internalType": "address",
              "name": "privoderAddress",
              "type": "address"
            }
          ],
          "internalType": "struct CloudSlitDao.Order",
          "name": "",
          "type": "tuple"
        }
      ],
      "stateMutability": "view",
      "type": "function"
    },
    {
      "inputs": [
        {
          "internalType": "address",
          "name": "from",
          "type": "address"
        }
      ],
      "name": "get_privoderOrders",
      "outputs": [
        {
          "internalType": "string[]",
          "name": "",
          "type": "string[]"
        }
      ],
      "stateMutability": "view",
      "type": "function"
    },
    {
      "inputs": [
        {
          "internalType": "address",
          "name": "spender",
          "type": "address"
        },
        {
          "internalType": "uint256",
          "name": "addedValue",
          "type": "uint256"
        }
      ],
      "name": "increaseAllowance",
      "outputs": [
        {
          "internalType": "bool",
          "name": "",
          "type": "bool"
        }
      ],
      "stateMutability": "nonpayable",
      "type": "function"
    },
    {
      "inputs": [],
      "name": "initialize",
      "outputs": [],
      "stateMutability": "nonpayable",
      "type": "function"
    },
    {
      "inputs": [
        {
          "internalType": "uint8",
          "name": "_type",
          "type": "uint8"
        }
      ],
      "name": "isDeposit",
      "outputs": [
        {
          "internalType": "bool",
          "name": "",
          "type": "bool"
        }
      ],
      "stateMutability": "view",
      "type": "function"
    },
    {
      "inputs": [],
      "name": "name",
      "outputs": [
        {
          "internalType": "string",
          "name": "",
          "type": "string"
        }
      ],
      "stateMutability": "view",
      "type": "function"
    },
    {
      "inputs": [],
      "name": "owner",
      "outputs": [
        {
          "internalType": "address",
          "name": "",
          "type": "address"
        }
      ],
      "stateMutability": "view",
      "type": "function"
    },
    {
      "inputs": [],
      "name": "renounceOwnership",
      "outputs": [],
      "stateMutability": "nonpayable",
      "type": "function"
    },
    {
      "inputs": [
        {
          "internalType": "uint8",
          "name": "_type",
          "type": "uint8"
        }
      ],
      "name": "stake",
      "outputs": [],
      "stateMutability": "nonpayable",
      "type": "function"
    },
    {
      "inputs": [],
      "name": "symbol",
      "outputs": [
        {
          "internalType": "string",
          "name": "",
          "type": "string"
        }
      ],
      "stateMutability": "view",
      "type": "function"
    },
    {
      "inputs": [],
      "name": "totalSupply",
      "outputs": [
        {
          "internalType": "uint256",
          "name": "",
          "type": "uint256"
        }
      ],
      "stateMutability": "view",
      "type": "function"
    },
    {
      "inputs": [
        {
          "internalType": "address",
          "name": "to",
          "type": "address"
        },
        {
          "internalType": "uint256",
          "name": "amount",
          "type": "uint256"
        }
      ],
      "name": "transfer",
      "outputs": [
        {
          "internalType": "bool",
          "name": "",
          "type": "bool"
        }
      ],
      "stateMutability": "nonpayable",
      "type": "function"
    },
    {
      "inputs": [
        {
          "internalType": "address",
          "name": "from",
          "type": "address"
        },
        {
          "internalType": "address",
          "name": "to",
          "type": "address"
        },
        {
          "internalType": "uint256",
          "name": "amount",
          "type": "uint256"
        }
      ],
      "name": "transferFrom",
      "outputs": [
        {
          "internalType": "bool",
          "name": "",
          "type": "bool"
        }
      ],
      "stateMutability": "nonpayable",
      "type": "function"
    },
    {
      "inputs": [
        {
          "internalType": "address",
          "name": "newOwner",
          "type": "address"
        }
      ],
      "name": "transferOwnership",
      "outputs": [],
      "stateMutability": "nonpayable",
      "type": "function"
    },
    {
      "inputs": [
        {
          "internalType": "string",
          "name": "uuid",
          "type": "string"
        }
      ],
      "name": "unbindWallet",
      "outputs": [],
      "stateMutability": "nonpayable",
      "type": "function"
    },
    {
      "inputs": [
        {
          "internalType": "string",
          "name": "uuid",
          "type": "string"
        }
      ],
      "name": "verifyWallet",
      "outputs": [],
      "stateMutability": "nonpayable",
      "type": "function"
    },
    {
      "inputs": [
        {
          "internalType": "uint8",
          "name": "_type",
          "type": "uint8"
        }
      ],
      "name": "withdraw",
      "outputs": [],
      "stateMutability": "nonpayable",
      "type": "function"
    },
    {
      "inputs": [],
      "name": "withdrawAllOrderTokens",
      "outputs": [],
      "stateMutability": "nonpayable",
      "type": "function"
    },
    {
      "inputs": [
        {
          "internalType": "string",
          "name": "orderId",
          "type": "string"
        }
      ],
      "name": "withdrawOrderTokens",
      "outputs": [],
      "stateMutability": "nonpayable",
      "type": "function"
    }
  ],
  "bytecode": "0x60806040523480156200001157600080fd5b50620000226200002860201b60201c565b620001d3565b600060019054906101000a900460ff16156200007b576040517f08c379a0000000000000000000000000000000000000000000000000000000008152600401620000729062000176565b60405180910390fd5b60ff801660008054906101000a900460ff1660ff161015620000ed5760ff6000806101000a81548160ff021916908360ff1602179055507f7f26b83ff96e1f2b6a682f133852f6798a09c465da95921460cefb384740249860ff604051620000e49190620001b6565b60405180910390a15b565b600082825260208201905092915050565b7f496e697469616c697a61626c653a20636f6e747261637420697320696e69746960008201527f616c697a696e6700000000000000000000000000000000000000000000000000602082015250565b60006200015e602783620000ef565b91506200016b8262000100565b604082019050919050565b6000602082019050818103600083015262000191816200014f565b9050919050565b600060ff82169050919050565b620001b08162000198565b82525050565b6000602082019050620001cd6000830184620001a5565b92915050565b61553480620001e36000396000f3fe608060405234801561001057600080fd5b50600436106102115760003560e01c806387a858d211610125578063c6ab5d90116100ad578063df7bbb5a1161007c578063df7bbb5a14610614578063f276b8aa14610644578063f2fde38b14610674578063f3fbfc7b14610690578063ffc2c9b7146106ae57610211565b8063c6ab5d901461057c578063d19e485614610598578063dd62ed3e146105b4578063dd6887ed146105e457610211565b8063a23c7c14116100f4578063a23c7c14146104af578063a457c2d7146104cd578063a4e2df66146104fd578063a9059cbb1461052e578063c5bc91e81461055e57610211565b806387a858d21461043b5780638da5cb5b146104575780638ec012b91461047557806395d89b411461049157610211565b806339509351116101a857806370a082311161017757806370a08231146103aa578063715018a6146103da57806379cc6790146103e45780637c9b7fdd146104005780638129fc1c1461043157610211565b8063395093511461032657806342966c68146103565780635c9abe1114610372578063604f21771461038e57610211565b806323b872dd116101e457806323b872dd146102b257806325cfedb5146102e257806327a0b34a146102fe578063313ce5671461030857610211565b806306fdde0314610216578063095ea7b31461023457806318160ddd1461026457806319d5678414610282575b600080fd5b61021e6106ca565b60405161022b9190613b07565b60405180910390f35b61024e60048036038101906102499190613bd1565b61075c565b60405161025b9190613c2c565b60405180910390f35b61026c61077f565b6040516102799190613c56565b60405180910390f35b61029c60048036038101906102979190613c71565b610789565b6040516102a99190613daa565b60405180910390f35b6102cc60048036038101906102c79190613dcc565b6108a1565b6040516102d99190613c2c565b60405180910390f35b6102fc60048036038101906102f79190613f54565b6108d0565b005b610306610c79565b005b61031061122c565b60405161031d9190613fb9565b60405180910390f35b610340600480360381019061033b9190613bd1565b611235565b60405161034d9190613c2c565b60405180910390f35b610370600480360381019061036b9190613fd4565b61126c565b005b61038c6004803603810190610387919061403d565b611280565b005b6103a860048036038101906103a3919061411c565b6115c1565b005b6103c460048036038101906103bf9190613c71565b611849565b6040516103d19190613c56565b60405180910390f35b6103e2611892565b005b6103fe60048036038101906103f99190613bd1565b6118a6565b005b61041a60048036038101906104159190613f54565b6118c6565b604051610428929190614149565b60405180910390f35b610439611a20565b005b61045560048036038101906104509190614172565b611c77565b005b61045f611e2c565b60405161046c91906141dd565b60405180910390f35b61048f600480360381019061048a9190613f54565b611e56565b005b610499612090565b6040516104a69190613b07565b60405180910390f35b6104b7612122565b6040516104c49190613c56565b60405180910390f35b6104e760048036038101906104e29190613bd1565b612128565b6040516104f49190613c2c565b60405180910390f35b61051760048036038101906105129190613f54565b61219f565b6040516105259291906141f8565b60405180910390f35b61054860048036038101906105439190613bd1565b61221c565b6040516105559190613c2c565b60405180910390f35b61056661223f565b6040516105739190613c56565b60405180910390f35b6105966004803603810190610591919061411c565b612245565b005b6105b260048036038101906105ad9190613f54565b612417565b005b6105ce60048036038101906105c99190614221565b6124ef565b6040516105db9190613c56565b60405180910390f35b6105fe60048036038101906105f99190613f54565b612576565b60405161060b9190613c2c565b60405180910390f35b61062e60048036038101906106299190613f54565b6125ae565b60405161063b9190614377565b60405180910390f35b61065e6004803603810190610659919061411c565b6127a9565b60405161066b9190613c2c565b60405180910390f35b61068e60048036038101906106899190613c71565b612861565b005b6106986128e4565b6040516106a59190613c56565b60405180910390f35b6106c860048036038101906106c39190613f54565b612dba565b005b6060603680546106d9906143c8565b80601f0160208091040260200160405190810160405280929190818152602001828054610705906143c8565b80156107525780601f1061072757610100808354040283529160200191610752565b820191906000526020600020905b81548152906001019060200180831161073557829003601f168201915b5050505050905090565b600080610767612e82565b9050610774818585612e8a565b600191505092915050565b6000603554905090565b606060d060008373ffffffffffffffffffffffffffffffffffffffff1673ffffffffffffffffffffffffffffffffffffffff168152602001908152602001600020805480602002602001604051908101604052809291908181526020016000905b82821015610896578382906000526020600020018054610809906143c8565b80601f0160208091040260200160405190810160405280929190818152602001828054610835906143c8565b80156108825780601f1061085757610100808354040283529160200191610882565b820191906000526020600020905b81548152906001019060200180831161086557829003601f168201915b5050505050815260200190600101906107ea565b505050509050919050565b6000806108ac612e82565b90506108b9858285613053565b6108c48585856130df565b60019150509392505050565b60cf816040516108e09190614435565b908152602001604051809103902060060160019054906101000a900460ff161561093f576040517f08c379a000000000000000000000000000000000000000000000000000000000815260040161093690614498565b60405180910390fd5b3373ffffffffffffffffffffffffffffffffffffffff1660cf826040516109669190614435565b908152602001604051809103902060070160009054906101000a900473ffffffffffffffffffffffffffffffffffffffff1673ffffffffffffffffffffffffffffffffffffffff16146109ee576040517f08c379a00000000000000000000000000000000000000000000000000000000081526004016109e59061452a565b60405180910390fd5b60cf816040516109fe9190614435565b9081526020016040518091039020600201544210610b3d57600160cf82604051610a289190614435565b908152602001604051809103902060060160016101000a81548160ff021916908315150217905550600060cf82604051610a629190614435565b90815260200160405180910390206003015460cf83604051610a849190614435565b908152602001604051809103902060040160009054906101000a900463ffffffff1663ffffffff16610ab69190614579565b905060008160cf84604051610acb9190614435565b908152602001604051809103902060040160009054906101000a900463ffffffff1663ffffffff1660cf85604051610b039190614435565b908152602001604051809103902060050154610b1f91906145dc565b610b29919061460d565b9050610b363033836130df565b5050610c76565b600060cf82604051610b4f9190614435565b90815260200160405180910390206003015460cc60009054906101000a900463ffffffff1663ffffffff1660cf84604051610b8a9190614435565b90815260200160405180910390206001015442610ba79190614579565b610bb191906145dc565b610bbb9190614579565b90508060cf83604051610bce9190614435565b90815260200160405180910390206003016000828254610bee9190614667565b9250508190555060008160cf84604051610c089190614435565b908152602001604051809103902060040160009054906101000a900463ffffffff1663ffffffff1660cf85604051610c409190614435565b908152602001604051809103902060050154610c5c91906145dc565b610c66919061460d565b9050610c733033836130df565b50505b50565b600060ce60003373ffffffffffffffffffffffffffffffffffffffff1673ffffffffffffffffffffffffffffffffffffffff1681526020019081526020016000205403610cfb576040517f08c379a0000000000000000000000000000000000000000000000000000000008152600401610cf290614709565b60405180910390fd5b600060d060003373ffffffffffffffffffffffffffffffffffffffff1673ffffffffffffffffffffffffffffffffffffffff168152602001908152602001600020805480602002602001604051908101604052809291908181526020016000905b82821015610e08578382906000526020600020018054610d7b906143c8565b80601f0160208091040260200160405190810160405280929190818152602001828054610da7906143c8565b8015610df45780601f10610dc957610100808354040283529160200191610df4565b820191906000526020600020905b815481529060010190602001808311610dd757829003601f168201915b505050505081526020019060010190610d5c565b5050505090506000805b825181101561121c5760cf838281518110610e3057610e2f614729565b5b6020026020010151604051610e459190614435565b908152602001604051809103902060060160019054906101000a900460ff166112095760cf838281518110610e7d57610e7c614729565b5b6020026020010151604051610e929190614435565b908152602001604051809103902060020154421061105057600160cf848381518110610ec157610ec0614729565b5b6020026020010151604051610ed69190614435565b908152602001604051809103902060060160016101000a81548160ff021916908315150217905550600060cf848381518110610f1557610f14614729565b5b6020026020010151604051610f2a9190614435565b90815260200160405180910390206003015460cf858481518110610f5157610f50614729565b5b6020026020010151604051610f669190614435565b908152602001604051809103902060040160009054906101000a900463ffffffff1663ffffffff16610f989190614579565b90508060cf858481518110610fb057610faf614729565b5b6020026020010151604051610fc59190614435565b908152602001604051809103902060040160009054906101000a900463ffffffff1663ffffffff1660cf86858151811061100257611001614729565b5b60200260200101516040516110179190614435565b90815260200160405180910390206005015461103391906145dc565b61103d919061460d565b836110489190614667565b925050611208565b600060cf84838151811061106757611066614729565b5b602002602001015160405161107c9190614435565b90815260200160405180910390206003015460cc60009054906101000a900463ffffffff1663ffffffff1660cf8685815181106110bc576110bb614729565b5b60200260200101516040516110d19190614435565b908152602001604051809103902060010154426110ee9190614579565b6110f891906145dc565b6111029190614579565b90508060cf85848151811061111a57611119614729565b5b602002602001015160405161112f9190614435565b9081526020016040518091039020600301600082825461114f9190614667565b925050819055508060cf85848151811061116c5761116b614729565b5b60200260200101516040516111819190614435565b908152602001604051809103902060040160009054906101000a900463ffffffff1663ffffffff1660cf8685815181106111be576111bd614729565b5b60200260200101516040516111d39190614435565b9081526020016040518091039020600501546111ef91906145dc565b6111f9919061460d565b836112049190614667565b9250505b5b808061121490614758565b915050610e12565b506112283033836130df565b5050565b60006012905090565b600080611240612e82565b905061126181858561125285896124ef565b61125c9190614667565b612e8a565b600191505092915050565b61127d611277612e82565b82613361565b50565b60cf836040516112909190614435565b908152602001604051809103902060060160009054906101000a900460ff16156112ef576040517f08c379a00000000000000000000000000000000000000000000000000000000081526004016112e6906147ec565b60405180910390fd5b816112f933611849565b101561133a576040517f08c379a000000000000000000000000000000000000000000000000000000000815260040161133190614858565b60405180910390fd5b6113453330846130df565b60405180610140016040528086815260200142815260200160cc60009054906101000a900463ffffffff168661137b9190614878565b63ffffffff164261138c9190614667565b8152602001600081526020018563ffffffff1681526020018381526020016001151581526020016000151581526020013373ffffffffffffffffffffffffffffffffffffffff1681526020018273ffffffffffffffffffffffffffffffffffffffff1681525060cf846040516114029190614435565b908152602001604051809103902060008201518160000190816114259190614a62565b5060208201518160010155604082015181600201556060820151816003015560808201518160040160006101000a81548163ffffffff021916908363ffffffff16021790555060a0820151816005015560c08201518160060160006101000a81548160ff02191690831515021790555060e08201518160060160016101000a81548160ff0219169083151502179055506101008201518160060160026101000a81548173ffffffffffffffffffffffffffffffffffffffff021916908373ffffffffffffffffffffffffffffffffffffffff1602179055506101208201518160070160006101000a81548173ffffffffffffffffffffffffffffffffffffffff021916908373ffffffffffffffffffffffffffffffffffffffff16021790555090505060d060008273ffffffffffffffffffffffffffffffffffffffff1673ffffffffffffffffffffffffffffffffffffffff168152602001908152602001600020839080600181540180825580915050600190039060005260206000200160009091909190915090816115b99190614a62565b505050505050565b60018160ff160361170557600060cd60003373ffffffffffffffffffffffffffffffffffffffff1673ffffffffffffffffffffffffffffffffffffffff168152602001908152602001600020541461164e576040517f08c379a000000000000000000000000000000000000000000000000000000000815260040161164590614b80565b60405180910390fd5b60ca5461165a33611849565b101561169b576040517f08c379a000000000000000000000000000000000000000000000000000000000815260040161169290614858565b60405180910390fd5b6116a8333060ca546130df565b60ca5460cd60003373ffffffffffffffffffffffffffffffffffffffff1673ffffffffffffffffffffffffffffffffffffffff16815260200190815260200160002060008282546116f99190614667565b92505081905550611846565b60028160ff160361184557600060ce60003373ffffffffffffffffffffffffffffffffffffffff1673ffffffffffffffffffffffffffffffffffffffff1681526020019081526020016000205414611792576040517f08c379a000000000000000000000000000000000000000000000000000000000815260040161178990614b80565b60405180910390fd5b60cb5461179e33611849565b10156117df576040517f08c379a00000000000000000000000000000000000000000000000000000000081526004016117d690614858565b60405180910390fd5b6117ec333060cb546130df565b60cb5460ce60003373ffffffffffffffffffffffffffffffffffffffff1673ffffffffffffffffffffffffffffffffffffffff168152602001908152602001600020600082825461183d9190614667565b925050819055505b5b50565b6000603360008373ffffffffffffffffffffffffffffffffffffffff1673ffffffffffffffffffffffffffffffffffffffff168152602001908152602001600020549050919050565b61189a613539565b6118a460006135b7565b565b6118b8826118b2612e82565b83613053565b6118c28282613361565b5050565b600080600260c9846040516118db9190614435565b908152602001604051809103902060000160149054906101000a900460ff1660ff1603611a1357600060cd600060c9866040516119189190614435565b908152602001604051809103902060000160009054906101000a900473ffffffffffffffffffffffffffffffffffffffff1673ffffffffffffffffffffffffffffffffffffffff1673ffffffffffffffffffffffffffffffffffffffff1681526020019081526020016000205411600060ce600060c98760405161199c9190614435565b908152602001604051809103902060000160009054906101000a900473ffffffffffffffffffffffffffffffffffffffff1673ffffffffffffffffffffffffffffffffffffffff1673ffffffffffffffffffffffffffffffffffffffff168152602001908152602001600020541191509150611a1b565b600080915091505b915091565b60008060019054906101000a900460ff16159050808015611a515750600160008054906101000a900460ff1660ff16105b80611a7e5750611a603061367d565b158015611a7d5750600160008054906101000a900460ff1660ff16145b5b611abd576040517f08c379a0000000000000000000000000000000000000000000000000000000008152600401611ab490614c12565b60405180910390fd5b60016000806101000a81548160ff021916908360ff1602179055508015611afa576001600060016101000a81548160ff0219169083151502179055505b611b6e6040518060400160405280600d81526020017f436c6f7564536c69742044616f000000000000000000000000000000000000008152506040518060400160405280600381526020017f43534400000000000000000000000000000000000000000000000000000000008152506136a0565b611b766136fd565b611b7e61374e565b611baa33611b8a61122c565b600a611b969190614d65565b6305f5e100611ba5919061460d565b6137a7565b611bb261122c565b600a611bbe9190614d65565b611388611bcb919061460d565b60ca81905550611bd961122c565b600a611be59190614d65565b6103e8611bf2919061460d565b60cb81905550610e1060cc60006101000a81548163ffffffff021916908363ffffffff1602179055508015611c745760008060016101000a81548160ff0219169083151502179055507f7f26b83ff96e1f2b6a682f133852f6798a09c465da95921460cefb38474024986001604051611c6b9190614deb565b60405180910390a15b50565b600073ffffffffffffffffffffffffffffffffffffffff168173ffffffffffffffffffffffffffffffffffffffff1603611cb057600080fd5b600160c983604051611cc29190614435565b908152602001604051809103902060000160149054906101000a900460ff1660ff1603611d4e578060c983604051611cfa9190614435565b908152602001604051809103902060000160006101000a81548173ffffffffffffffffffffffffffffffffffffffff021916908373ffffffffffffffffffffffffffffffffffffffff160217905550611e28565b3373ffffffffffffffffffffffffffffffffffffffff1660c983604051611d759190614435565b908152602001604051809103902060000160009054906101000a900473ffffffffffffffffffffffffffffffffffffffff1673ffffffffffffffffffffffffffffffffffffffff1614611dc757600080fd5b8060c983604051611dd89190614435565b908152602001604051809103902060000160006101000a81548173ffffffffffffffffffffffffffffffffffffffff021916908373ffffffffffffffffffffffffffffffffffffffff1602179055505b5050565b6000609760009054906101000a900473ffffffffffffffffffffffffffffffffffffffff16905090565b600073ffffffffffffffffffffffffffffffffffffffff1660c982604051611e7e9190614435565b908152602001604051809103902060000160009054906101000a900473ffffffffffffffffffffffffffffffffffffffff1673ffffffffffffffffffffffffffffffffffffffff1614611ed057600080fd5b600060cd60003373ffffffffffffffffffffffffffffffffffffffff1673ffffffffffffffffffffffffffffffffffffffff1681526020019081526020016000205403611fd45760405180604001604052803373ffffffffffffffffffffffffffffffffffffffff168152602001600160ff1681525060c982604051611f569190614435565b908152602001604051809103902060008201518160000160006101000a81548173ffffffffffffffffffffffffffffffffffffffff021916908373ffffffffffffffffffffffffffffffffffffffff16021790555060208201518160000160146101000a81548160ff021916908360ff16021790555090505061208d565b60405180604001604052803373ffffffffffffffffffffffffffffffffffffffff168152602001600260ff1681525060c9826040516120139190614435565b908152602001604051809103902060008201518160000160006101000a81548173ffffffffffffffffffffffffffffffffffffffff021916908373ffffffffffffffffffffffffffffffffffffffff16021790555060208201518160000160146101000a81548160ff021916908360ff1602179055509050505b50565b60606037805461209f906143c8565b80601f01602080910402602001604051908101604052809291908181526020018280546120cb906143c8565b80156121185780601f106120ed57610100808354040283529160200191612118565b820191906000526020600020905b8154815290600101906020018083116120fb57829003601f168201915b5050505050905090565b60ca5481565b600080612133612e82565b9050600061214182866124ef565b905083811015612186576040517f08c379a000000000000000000000000000000000000000000000000000000000815260040161217d90614e78565b60405180910390fd5b6121938286868403612e8a565b60019250505092915050565b60008060c9836040516121b29190614435565b908152602001604051809103902060000160009054906101000a900473ffffffffffffffffffffffffffffffffffffffff1660c9846040516121f49190614435565b908152602001604051809103902060000160149054906101000a900460ff1691509150915091565b600080612227612e82565b90506122348185856130df565b600191505092915050565b60cb5481565b60018160ff160361232e57600060cd60003373ffffffffffffffffffffffffffffffffffffffff1673ffffffffffffffffffffffffffffffffffffffff168152602001908152602001600020541161229c57600080fd5b6122e6303360cd60003373ffffffffffffffffffffffffffffffffffffffff1673ffffffffffffffffffffffffffffffffffffffff168152602001908152602001600020546130df565b60cd60003373ffffffffffffffffffffffffffffffffffffffff1673ffffffffffffffffffffffffffffffffffffffff16815260200190815260200160002060009055612414565b60028160ff160361241357600060ce60003373ffffffffffffffffffffffffffffffffffffffff1673ffffffffffffffffffffffffffffffffffffffff168152602001908152602001600020541161238557600080fd5b6123cf303360ce60003373ffffffffffffffffffffffffffffffffffffffff1673ffffffffffffffffffffffffffffffffffffffff168152602001908152602001600020546130df565b60ce60003373ffffffffffffffffffffffffffffffffffffffff1673ffffffffffffffffffffffffffffffffffffffff168152602001908152602001600020600090555b5b50565b3373ffffffffffffffffffffffffffffffffffffffff1660c98260405161243e9190614435565b908152602001604051809103902060000160009054906101000a900473ffffffffffffffffffffffffffffffffffffffff1673ffffffffffffffffffffffffffffffffffffffff161461249057600080fd5b60c9816040516124a09190614435565b9081526020016040518091039020600080820160006101000a81549073ffffffffffffffffffffffffffffffffffffffff02191690556000820160146101000a81549060ff0219169055505050565b6000603460008473ffffffffffffffffffffffffffffffffffffffff1673ffffffffffffffffffffffffffffffffffffffff16815260200190815260200160002060008373ffffffffffffffffffffffffffffffffffffffff1673ffffffffffffffffffffffffffffffffffffffff16815260200190815260200160002054905092915050565b600060cf826040516125889190614435565b908152602001604051809103902060060160009054906101000a900460ff169050919050565b6125b66139e5565b60cf826040516125c69190614435565b9081526020016040518091039020604051806101400160405290816000820180546125f0906143c8565b80601f016020809104026020016040519081016040528092919081815260200182805461261c906143c8565b80156126695780601f1061263e57610100808354040283529160200191612669565b820191906000526020600020905b81548152906001019060200180831161264c57829003601f168201915b505050505081526020016001820154815260200160028201548152602001600382015481526020016004820160009054906101000a900463ffffffff1663ffffffff1663ffffffff168152602001600582015481526020016006820160009054906101000a900460ff161515151581526020016006820160019054906101000a900460ff161515151581526020016006820160029054906101000a900473ffffffffffffffffffffffffffffffffffffffff1673ffffffffffffffffffffffffffffffffffffffff1673ffffffffffffffffffffffffffffffffffffffff1681526020016007820160009054906101000a900473ffffffffffffffffffffffffffffffffffffffff1673ffffffffffffffffffffffffffffffffffffffff1673ffffffffffffffffffffffffffffffffffffffff16815250509050919050565b600060018260ff160361280157600060cd60003373ffffffffffffffffffffffffffffffffffffffff1673ffffffffffffffffffffffffffffffffffffffff168152602001908152602001600020541415905061285c565b60028260ff160361285757600060ce60003373ffffffffffffffffffffffffffffffffffffffff1673ffffffffffffffffffffffffffffffffffffffff168152602001908152602001600020541415905061285c565b600090505b919050565b612869613539565b600073ffffffffffffffffffffffffffffffffffffffff168173ffffffffffffffffffffffffffffffffffffffff16036128d8576040517f08c379a00000000000000000000000000000000000000000000000000000000081526004016128cf90614f0a565b60405180910390fd5b6128e1816135b7565b50565b60008060ce60003373ffffffffffffffffffffffffffffffffffffffff1673ffffffffffffffffffffffffffffffffffffffff16815260200190815260200160002054036129355760009050612db7565b600060d060003373ffffffffffffffffffffffffffffffffffffffff1673ffffffffffffffffffffffffffffffffffffffff168152602001908152602001600020805480602002602001604051908101604052809291908181526020016000905b82821015612a425783829060005260206000200180546129b5906143c8565b80601f01602080910402602001604051908101604052809291908181526020018280546129e1906143c8565b8015612a2e5780601f10612a0357610100808354040283529160200191612a2e565b820191906000526020600020905b815481529060010190602001808311612a1157829003601f168201915b505050505081526020019060010190612996565b5050505090506000805b8251811015612db05760cf838281518110612a6a57612a69614729565b5b6020026020010151604051612a7f9190614435565b908152602001604051809103902060060160019054906101000a900460ff16612d9d5760cf838281518110612ab757612ab6614729565b5b6020026020010151604051612acc9190614435565b9081526020016040518091039020600201544210612c3657600060cf848381518110612afb57612afa614729565b5b6020026020010151604051612b109190614435565b90815260200160405180910390206003015460cf858481518110612b3757612b36614729565b5b6020026020010151604051612b4c9190614435565b908152602001604051809103902060040160009054906101000a900463ffffffff1663ffffffff16612b7e9190614579565b90508060cf858481518110612b9657612b95614729565b5b6020026020010151604051612bab9190614435565b908152602001604051809103902060040160009054906101000a900463ffffffff1663ffffffff1660cf868581518110612be857612be7614729565b5b6020026020010151604051612bfd9190614435565b908152602001604051809103902060050154612c1991906145dc565b612c23919061460d565b83612c2e9190614667565b925050612d9c565b600060cf848381518110612c4d57612c4c614729565b5b6020026020010151604051612c629190614435565b90815260200160405180910390206003015460cc60009054906101000a900463ffffffff1663ffffffff1660cf868581518110612ca257612ca1614729565b5b6020026020010151604051612cb79190614435565b90815260200160405180910390206001015442612cd49190614579565b612cde91906145dc565b612ce89190614579565b90508060cf858481518110612d0057612cff614729565b5b6020026020010151604051612d159190614435565b908152602001604051809103902060040160009054906101000a900463ffffffff1663ffffffff1660cf868581518110612d5257612d51614729565b5b6020026020010151604051612d679190614435565b908152602001604051809103902060050154612d8391906145dc565b612d8d919061460d565b83612d989190614667565b9250505b5b8080612da890614758565b915050612a4c565b5080925050505b90565b600060cd60003373ffffffffffffffffffffffffffffffffffffffff1673ffffffffffffffffffffffffffffffffffffffff1681526020019081526020016000205411612e0657600080fd5b600160c982604051612e189190614435565b908152602001604051809103902060000160149054906101000a900460ff1660ff1614612e4457600080fd5b600260c982604051612e569190614435565b908152602001604051809103902060000160146101000a81548160ff021916908360ff16021790555050565b600033905090565b600073ffffffffffffffffffffffffffffffffffffffff168373ffffffffffffffffffffffffffffffffffffffff1603612ef9576040517f08c379a0000000000000000000000000000000000000000000000000000000008152600401612ef090614f9c565b60405180910390fd5b600073ffffffffffffffffffffffffffffffffffffffff168273ffffffffffffffffffffffffffffffffffffffff1603612f68576040517f08c379a0000000000000000000000000000000000000000000000000000000008152600401612f5f9061502e565b60405180910390fd5b80603460008573ffffffffffffffffffffffffffffffffffffffff1673ffffffffffffffffffffffffffffffffffffffff16815260200190815260200160002060008473ffffffffffffffffffffffffffffffffffffffff1673ffffffffffffffffffffffffffffffffffffffff168152602001908152602001600020819055508173ffffffffffffffffffffffffffffffffffffffff168373ffffffffffffffffffffffffffffffffffffffff167f8c5be1e5ebec7d5bd14f71427d1e84f3dd0314c0f7b2291e5b200ac8c7c3b925836040516130469190613c56565b60405180910390a3505050565b600061305f84846124ef565b90507fffffffffffffffffffffffffffffffffffffffffffffffffffffffffffffffff81146130d957818110156130cb576040517f08c379a00000000000000000000000000000000000000000000000000000000081526004016130c29061509a565b60405180910390fd5b6130d88484848403612e8a565b5b50505050565b600073ffffffffffffffffffffffffffffffffffffffff168373ffffffffffffffffffffffffffffffffffffffff160361314e576040517f08c379a00000000000000000000000000000000000000000000000000000000081526004016131459061512c565b60405180910390fd5b600073ffffffffffffffffffffffffffffffffffffffff168273ffffffffffffffffffffffffffffffffffffffff16036131bd576040517f08c379a00000000000000000000000000000000000000000000000000000000081526004016131b4906151be565b60405180910390fd5b6131c8838383613907565b6000603360008573ffffffffffffffffffffffffffffffffffffffff1673ffffffffffffffffffffffffffffffffffffffff1681526020019081526020016000205490508181101561324f576040517f08c379a000000000000000000000000000000000000000000000000000000000815260040161324690615250565b60405180910390fd5b818103603360008673ffffffffffffffffffffffffffffffffffffffff1673ffffffffffffffffffffffffffffffffffffffff1681526020019081526020016000208190555081603360008573ffffffffffffffffffffffffffffffffffffffff1673ffffffffffffffffffffffffffffffffffffffff16815260200190815260200160002060008282546132e49190614667565b925050819055508273ffffffffffffffffffffffffffffffffffffffff168473ffffffffffffffffffffffffffffffffffffffff167fddf252ad1be2c89b69c2b068fc378daa952ba7f163c4a11628f55a4df523b3ef846040516133489190613c56565b60405180910390a361335b84848461390c565b50505050565b600073ffffffffffffffffffffffffffffffffffffffff168273ffffffffffffffffffffffffffffffffffffffff16036133d0576040517f08c379a00000000000000000000000000000000000000000000000000000000081526004016133c7906152e2565b60405180910390fd5b6133dc82600083613907565b6000603360008473ffffffffffffffffffffffffffffffffffffffff1673ffffffffffffffffffffffffffffffffffffffff16815260200190815260200160002054905081811015613463576040517f08c379a000000000000000000000000000000000000000000000000000000000815260040161345a90615374565b60405180910390fd5b818103603360008573ffffffffffffffffffffffffffffffffffffffff1673ffffffffffffffffffffffffffffffffffffffff1681526020019081526020016000208190555081603560008282546134bb9190614579565b92505081905550600073ffffffffffffffffffffffffffffffffffffffff168373ffffffffffffffffffffffffffffffffffffffff167fddf252ad1be2c89b69c2b068fc378daa952ba7f163c4a11628f55a4df523b3ef846040516135209190613c56565b60405180910390a36135348360008461390c565b505050565b613541612e82565b73ffffffffffffffffffffffffffffffffffffffff1661355f611e2c565b73ffffffffffffffffffffffffffffffffffffffff16146135b5576040517f08c379a00000000000000000000000000000000000000000000000000000000081526004016135ac906153e0565b60405180910390fd5b565b6000609760009054906101000a900473ffffffffffffffffffffffffffffffffffffffff16905081609760006101000a81548173ffffffffffffffffffffffffffffffffffffffff021916908373ffffffffffffffffffffffffffffffffffffffff1602179055508173ffffffffffffffffffffffffffffffffffffffff168173ffffffffffffffffffffffffffffffffffffffff167f8be0079c531659141344cd1fd0a4f28419497f9722a3daafe3b4186f6b6457e060405160405180910390a35050565b6000808273ffffffffffffffffffffffffffffffffffffffff163b119050919050565b600060019054906101000a900460ff166136ef576040517f08c379a00000000000000000000000000000000000000000000000000000000081526004016136e690615472565b60405180910390fd5b6136f98282613911565b5050565b600060019054906101000a900460ff1661374c576040517f08c379a000000000000000000000000000000000000000000000000000000000815260040161374390615472565b60405180910390fd5b565b600060019054906101000a900460ff1661379d576040517f08c379a000000000000000000000000000000000000000000000000000000000815260040161379490615472565b60405180910390fd5b6137a5613984565b565b600073ffffffffffffffffffffffffffffffffffffffff168273ffffffffffffffffffffffffffffffffffffffff1603613816576040517f08c379a000000000000000000000000000000000000000000000000000000000815260040161380d906154de565b60405180910390fd5b61382260008383613907565b80603560008282546138349190614667565b9250508190555080603360008473ffffffffffffffffffffffffffffffffffffffff1673ffffffffffffffffffffffffffffffffffffffff168152602001908152602001600020600082825461388a9190614667565b925050819055508173ffffffffffffffffffffffffffffffffffffffff16600073ffffffffffffffffffffffffffffffffffffffff167fddf252ad1be2c89b69c2b068fc378daa952ba7f163c4a11628f55a4df523b3ef836040516138ef9190613c56565b60405180910390a36139036000838361390c565b5050565b505050565b505050565b600060019054906101000a900460ff16613960576040517f08c379a000000000000000000000000000000000000000000000000000000000815260040161395790615472565b60405180910390fd5b816036908161396f9190614a62565b50806037908161397f9190614a62565b505050565b600060019054906101000a900460ff166139d3576040517f08c379a00000000000000000000000000000000000000000000000000000000081526004016139ca90615472565b60405180910390fd5b6139e36139de612e82565b6135b7565b565b60405180610140016040528060608152602001600081526020016000815260200160008152602001600063ffffffff16815260200160008152602001600015158152602001600015158152602001600073ffffffffffffffffffffffffffffffffffffffff168152602001600073ffffffffffffffffffffffffffffffffffffffff1681525090565b600081519050919050565b600082825260208201905092915050565b60005b83811015613aa8578082015181840152602081019050613a8d565b83811115613ab7576000848401525b50505050565b6000601f19601f8301169050919050565b6000613ad982613a6e565b613ae38185613a79565b9350613af3818560208601613a8a565b613afc81613abd565b840191505092915050565b60006020820190508181036000830152613b218184613ace565b905092915050565b6000604051905090565b600080fd5b600080fd5b600073ffffffffffffffffffffffffffffffffffffffff82169050919050565b6000613b6882613b3d565b9050919050565b613b7881613b5d565b8114613b8357600080fd5b50565b600081359050613b9581613b6f565b92915050565b6000819050919050565b613bae81613b9b565b8114613bb957600080fd5b50565b600081359050613bcb81613ba5565b92915050565b60008060408385031215613be857613be7613b33565b5b6000613bf685828601613b86565b9250506020613c0785828601613bbc565b9150509250929050565b60008115159050919050565b613c2681613c11565b82525050565b6000602082019050613c416000830184613c1d565b92915050565b613c5081613b9b565b82525050565b6000602082019050613c6b6000830184613c47565b92915050565b600060208284031215613c8757613c86613b33565b5b6000613c9584828501613b86565b91505092915050565b600081519050919050565b600082825260208201905092915050565b6000819050602082019050919050565b600082825260208201905092915050565b6000613ce682613a6e565b613cf08185613cca565b9350613d00818560208601613a8a565b613d0981613abd565b840191505092915050565b6000613d208383613cdb565b905092915050565b6000602082019050919050565b6000613d4082613c9e565b613d4a8185613ca9565b935083602082028501613d5c85613cba565b8060005b85811015613d985784840389528151613d798582613d14565b9450613d8483613d28565b925060208a01995050600181019050613d60565b50829750879550505050505092915050565b60006020820190508181036000830152613dc48184613d35565b905092915050565b600080600060608486031215613de557613de4613b33565b5b6000613df386828701613b86565b9350506020613e0486828701613b86565b9250506040613e1586828701613bbc565b9150509250925092565b600080fd5b600080fd5b7f4e487b7100000000000000000000000000000000000000000000000000000000600052604160045260246000fd5b613e6182613abd565b810181811067ffffffffffffffff82111715613e8057613e7f613e29565b5b80604052505050565b6000613e93613b29565b9050613e9f8282613e58565b919050565b600067ffffffffffffffff821115613ebf57613ebe613e29565b5b613ec882613abd565b9050602081019050919050565b82818337600083830152505050565b6000613ef7613ef284613ea4565b613e89565b905082815260208101848484011115613f1357613f12613e24565b5b613f1e848285613ed5565b509392505050565b600082601f830112613f3b57613f3a613e1f565b5b8135613f4b848260208601613ee4565b91505092915050565b600060208284031215613f6a57613f69613b33565b5b600082013567ffffffffffffffff811115613f8857613f87613b38565b5b613f9484828501613f26565b91505092915050565b600060ff82169050919050565b613fb381613f9d565b82525050565b6000602082019050613fce6000830184613faa565b92915050565b600060208284031215613fea57613fe9613b33565b5b6000613ff884828501613bbc565b91505092915050565b600063ffffffff82169050919050565b61401a81614001565b811461402557600080fd5b50565b60008135905061403781614011565b92915050565b600080600080600060a0868803121561405957614058613b33565b5b600086013567ffffffffffffffff81111561407757614076613b38565b5b61408388828901613f26565b955050602061409488828901614028565b945050604086013567ffffffffffffffff8111156140b5576140b4613b38565b5b6140c188828901613f26565b93505060606140d288828901613bbc565b92505060806140e388828901613b86565b9150509295509295909350565b6140f981613f9d565b811461410457600080fd5b50565b600081359050614116816140f0565b92915050565b60006020828403121561413257614131613b33565b5b600061414084828501614107565b91505092915050565b600060408201905061415e6000830185613c1d565b61416b6020830184613c1d565b9392505050565b6000806040838503121561418957614188613b33565b5b600083013567ffffffffffffffff8111156141a7576141a6613b38565b5b6141b385828601613f26565b92505060206141c485828601613b86565b9150509250929050565b6141d781613b5d565b82525050565b60006020820190506141f260008301846141ce565b92915050565b600060408201905061420d60008301856141ce565b61421a6020830184613faa565b9392505050565b6000806040838503121561423857614237613b33565b5b600061424685828601613b86565b925050602061425785828601613b86565b9150509250929050565b61426a81613b9b565b82525050565b61427981614001565b82525050565b61428881613c11565b82525050565b61429781613b5d565b82525050565b60006101408301600083015184820360008601526142bb8282613cdb565b91505060208301516142d06020860182614261565b5060408301516142e36040860182614261565b5060608301516142f66060860182614261565b5060808301516143096080860182614270565b5060a083015161431c60a0860182614261565b5060c083015161432f60c086018261427f565b5060e083015161434260e086018261427f565b5061010083015161435761010086018261428e565b5061012083015161436c61012086018261428e565b508091505092915050565b60006020820190508181036000830152614391818461429d565b905092915050565b7f4e487b7100000000000000000000000000000000000000000000000000000000600052602260045260246000fd5b600060028204905060018216806143e057607f821691505b6020821081036143f3576143f2614399565b5b50919050565b600081905092915050565b600061440f82613a6e565b61441981856143f9565b9350614429818560208601613a8a565b80840191505092915050565b60006144418284614404565b915081905092915050565b7f546865206f7264657220686173206265656e2077697468647261776e00000000600082015250565b6000614482601c83613a79565b915061448d8261444c565b602082019050919050565b600060208201905081810360008301526144b181614475565b9050919050565b7f506c6561736520636f6e6669726d207468652077616c6c65742061646472657360008201527f732c2043616e206e6f7420776974686472617700000000000000000000000000602082015250565b6000614514603383613a79565b915061451f826144b8565b604082019050919050565b6000602082019050818103600083015261454381614507565b9050919050565b7f4e487b7100000000000000000000000000000000000000000000000000000000600052601160045260246000fd5b600061458482613b9b565b915061458f83613b9b565b9250828210156145a2576145a161454a565b5b828203905092915050565b7f4e487b7100000000000000000000000000000000000000000000000000000000600052601260045260246000fd5b60006145e782613b9b565b91506145f283613b9b565b925082614602576146016145ad565b5b828204905092915050565b600061461882613b9b565b915061462383613b9b565b9250817fffffffffffffffffffffffffffffffffffffffffffffffffffffffffffffffff048311821515161561465c5761465b61454a565b5b828202905092915050565b600061467282613b9b565b915061467d83613b9b565b9250827fffffffffffffffffffffffffffffffffffffffffffffffffffffffffffffffff038211156146b2576146b161454a565b5b828201905092915050565b7f4e6f74206465706f736974730000000000000000000000000000000000000000600082015250565b60006146f3600c83613a79565b91506146fe826146bd565b602082019050919050565b60006020820190508181036000830152614722816146e6565b9050919050565b7f4e487b7100000000000000000000000000000000000000000000000000000000600052603260045260246000fd5b600061476382613b9b565b91507fffffffffffffffffffffffffffffffffffffffffffffffffffffffffffffffff82036147955761479461454a565b5b600182019050919050565b7f416c726561647920706169640000000000000000000000000000000000000000600082015250565b60006147d6600c83613a79565b91506147e1826147a0565b602082019050919050565b60006020820190508181036000830152614805816147c9565b9050919050565b7f4e6f7420656e6f75676820435344000000000000000000000000000000000000600082015250565b6000614842600e83613a79565b915061484d8261480c565b602082019050919050565b6000602082019050818103600083015261487181614835565b9050919050565b600061488382614001565b915061488e83614001565b92508163ffffffff04831182151516156148ab576148aa61454a565b5b828202905092915050565b60008190508160005260206000209050919050565b60006020601f8301049050919050565b600082821b905092915050565b6000600883026149187fffffffffffffffffffffffffffffffffffffffffffffffffffffffffffffffff826148db565b61492286836148db565b95508019841693508086168417925050509392505050565b6000819050919050565b600061495f61495a61495584613b9b565b61493a565b613b9b565b9050919050565b6000819050919050565b61497983614944565b61498d61498582614966565b8484546148e8565b825550505050565b600090565b6149a2614995565b6149ad818484614970565b505050565b5b818110156149d1576149c660008261499a565b6001810190506149b3565b5050565b601f821115614a16576149e7816148b6565b6149f0846148cb565b810160208510156149ff578190505b614a13614a0b856148cb565b8301826149b2565b50505b505050565b600082821c905092915050565b6000614a3960001984600802614a1b565b1980831691505092915050565b6000614a528383614a28565b9150826002028217905092915050565b614a6b82613a6e565b67ffffffffffffffff811115614a8457614a83613e29565b5b614a8e82546143c8565b614a998282856149d5565b600060209050601f831160018114614acc5760008415614aba578287015190505b614ac48582614a46565b865550614b2c565b601f198416614ada866148b6565b60005b82811015614b0257848901518255600182019150602085019450602081019050614add565b86831015614b1f5784890151614b1b601f891682614a28565b8355505b6001600288020188555050505b505050505050565b7f416c7265616479207374616b6564000000000000000000000000000000000000600082015250565b6000614b6a600e83613a79565b9150614b7582614b34565b602082019050919050565b60006020820190508181036000830152614b9981614b5d565b9050919050565b7f496e697469616c697a61626c653a20636f6e747261637420697320616c72656160008201527f647920696e697469616c697a6564000000000000000000000000000000000000602082015250565b6000614bfc602e83613a79565b9150614c0782614ba0565b604082019050919050565b60006020820190508181036000830152614c2b81614bef565b9050919050565b60008160011c9050919050565b6000808291508390505b6001851115614c8957808604811115614c6557614c6461454a565b5b6001851615614c745780820291505b8081029050614c8285614c32565b9450614c49565b94509492505050565b600082614ca25760019050614d5e565b81614cb05760009050614d5e565b8160018114614cc65760028114614cd057614cff565b6001915050614d5e565b60ff841115614ce257614ce161454a565b5b8360020a915084821115614cf957614cf861454a565b5b50614d5e565b5060208310610133831016604e8410600b8410161715614d345782820a905083811115614d2f57614d2e61454a565b5b614d5e565b614d418484846001614c3f565b92509050818404811115614d5857614d5761454a565b5b81810290505b9392505050565b6000614d7082613b9b565b9150614d7b83613f9d565b9250614da87fffffffffffffffffffffffffffffffffffffffffffffffffffffffffffffffff8484614c92565b905092915050565b6000819050919050565b6000614dd5614dd0614dcb84614db0565b61493a565b613f9d565b9050919050565b614de581614dba565b82525050565b6000602082019050614e006000830184614ddc565b92915050565b7f45524332303a2064656372656173656420616c6c6f77616e63652062656c6f7760008201527f207a65726f000000000000000000000000000000000000000000000000000000602082015250565b6000614e62602583613a79565b9150614e6d82614e06565b604082019050919050565b60006020820190508181036000830152614e9181614e55565b9050919050565b7f4f776e61626c653a206e6577206f776e657220697320746865207a65726f206160008201527f6464726573730000000000000000000000000000000000000000000000000000602082015250565b6000614ef4602683613a79565b9150614eff82614e98565b604082019050919050565b60006020820190508181036000830152614f2381614ee7565b9050919050565b7f45524332303a20617070726f76652066726f6d20746865207a65726f2061646460008201527f7265737300000000000000000000000000000000000000000000000000000000602082015250565b6000614f86602483613a79565b9150614f9182614f2a565b604082019050919050565b60006020820190508181036000830152614fb581614f79565b9050919050565b7f45524332303a20617070726f766520746f20746865207a65726f20616464726560008201527f7373000000000000000000000000000000000000000000000000000000000000602082015250565b6000615018602283613a79565b915061502382614fbc565b604082019050919050565b600060208201905081810360008301526150478161500b565b9050919050565b7f45524332303a20696e73756666696369656e7420616c6c6f77616e6365000000600082015250565b6000615084601d83613a79565b915061508f8261504e565b602082019050919050565b600060208201905081810360008301526150b381615077565b9050919050565b7f45524332303a207472616e736665722066726f6d20746865207a65726f20616460008201527f6472657373000000000000000000000000000000000000000000000000000000602082015250565b6000615116602583613a79565b9150615121826150ba565b604082019050919050565b6000602082019050818103600083015261514581615109565b9050919050565b7f45524332303a207472616e7366657220746f20746865207a65726f206164647260008201527f6573730000000000000000000000000000000000000000000000000000000000602082015250565b60006151a8602383613a79565b91506151b38261514c565b604082019050919050565b600060208201905081810360008301526151d78161519b565b9050919050565b7f45524332303a207472616e7366657220616d6f756e742065786365656473206260008201527f616c616e63650000000000000000000000000000000000000000000000000000602082015250565b600061523a602683613a79565b9150615245826151de565b604082019050919050565b600060208201905081810360008301526152698161522d565b9050919050565b7f45524332303a206275726e2066726f6d20746865207a65726f2061646472657360008201527f7300000000000000000000000000000000000000000000000000000000000000602082015250565b60006152cc602183613a79565b91506152d782615270565b604082019050919050565b600060208201905081810360008301526152fb816152bf565b9050919050565b7f45524332303a206275726e20616d6f756e7420657863656564732062616c616e60008201527f6365000000000000000000000000000000000000000000000000000000000000602082015250565b600061535e602283613a79565b915061536982615302565b604082019050919050565b6000602082019050818103600083015261538d81615351565b9050919050565b7f4f776e61626c653a2063616c6c6572206973206e6f7420746865206f776e6572600082015250565b60006153ca602083613a79565b91506153d582615394565b602082019050919050565b600060208201905081810360008301526153f9816153bd565b9050919050565b7f496e697469616c697a61626c653a20636f6e7472616374206973206e6f74206960008201527f6e697469616c697a696e67000000000000000000000000000000000000000000602082015250565b600061545c602b83613a79565b915061546782615400565b604082019050919050565b6000602082019050818103600083015261548b8161544f565b9050919050565b7f45524332303a206d696e7420746f20746865207a65726f206164647265737300600082015250565b60006154c8601f83613a79565b91506154d382615492565b602082019050919050565b600060208201905081810360008301526154f7816154bb565b905091905056fea2646970667358221220ccb696e250009af5c342537de13764874048b40c7d7b560ecd7603db3dff786764736f6c634300080f0033",
  "linkReferences": {},
  "deployedLinkReferences": {}
}