{
  "_format": "hh-sol-artifact-1",
  "contractName": "CloudSlitDao",
  "sourceName": "contracts/CloudSlitDao.sol",
  "abi": [
    {
      "inputs": [],
      "stateMutability": "nonpayable",
      "type": "constructor"
    },
    {
      "anonymous": false,
      "inputs": [
        {
          "indexed": true,
          "internalType": "address",
          "name": "owner",
          "type": "address"
        },
        {
          "indexed": true,
          "internalType": "address",
          "name": "spender",
          "type": "address"
        },
        {
          "indexed": false,
          "internalType": "uint256",
          "name": "value",
          "type": "uint256"
        }
      ],
      "name": "Approval",
      "type": "event"
    },
    {
      "anonymous": false,
      "inputs": [
        {
          "indexed": true,
          "internalType": "address",
          "name": "from",
          "type": "address"
        },
        {
          "indexed": true,
          "internalType": "address",
          "name": "to",
          "type": "address"
        },
        {
          "indexed": false,
          "internalType": "uint256",
          "name": "value",
          "type": "uint256"
        }
      ],
      "name": "Transfer",
      "type": "event"
    },
    {
      "inputs": [],
      "name": "_fullnodeDepositAmount",
      "outputs": [
        {
          "internalType": "uint256",
          "name": "",
          "type": "uint256"
        }
      ],
      "stateMutability": "view",
      "type": "function"
    },
    {
      "inputs": [],
      "name": "_privoderDepositAmount",
      "outputs": [
        {
          "internalType": "uint256",
          "name": "",
          "type": "uint256"
        }
      ],
      "stateMutability": "view",
      "type": "function"
    },
    {
      "inputs": [
        {
          "internalType": "address",
          "name": "owner",
          "type": "address"
        },
        {
          "internalType": "address",
          "name": "spender",
          "type": "address"
        }
      ],
      "name": "allowance",
      "outputs": [
        {
          "internalType": "uint256",
          "name": "",
          "type": "uint256"
        }
      ],
      "stateMutability": "view",
      "type": "function"
    },
    {
      "inputs": [
        {
          "internalType": "address",
          "name": "spender",
          "type": "address"
        },
        {
          "internalType": "uint256",
          "name": "value",
          "type": "uint256"
        }
      ],
      "name": "approve",
      "outputs": [
        {
          "internalType": "bool",
          "name": "",
          "type": "bool"
        }
      ],
      "stateMutability": "nonpayable",
      "type": "function"
    },
    {
      "inputs": [
        {
          "internalType": "address",
          "name": "account",
          "type": "address"
        }
      ],
      "name": "balanceOf",
      "outputs": [
        {
          "internalType": "uint256",
          "name": "",
          "type": "uint256"
        }
      ],
      "stateMutability": "view",
      "type": "function"
    },
    {
      "inputs": [
        {
          "internalType": "string",
          "name": "uuid",
          "type": "string"
        }
      ],
      "name": "bindWallet",
      "outputs": [],
      "stateMutability": "nonpayable",
      "type": "function"
    },
    {
      "inputs": [
        {
          "internalType": "string",
          "name": "uuid",
          "type": "string"
        },
        {
          "internalType": "address",
          "name": "newWallet",
          "type": "address"
        }
      ],
      "name": "changeWallet",
      "outputs": [],
      "stateMutability": "nonpayable",
      "type": "function"
    },
    {
      "inputs": [
        {
          "internalType": "string",
          "name": "orderId",
          "type": "string"
        }
      ],
      "name": "checkOrder",
      "outputs": [
        {
          "internalType": "bool",
          "name": "",
          "type": "bool"
        }
      ],
      "stateMutability": "view",
      "type": "function"
    },
    {
      "inputs": [
        {
          "internalType": "string",
          "name": "name",
          "type": "string"
        },
        {
          "internalType": "uint32",
          "name": "duration",
          "type": "uint32"
        },
        {
          "internalType": "string",
          "name": "orderId",
          "type": "string"
        },
        {
          "internalType": "uint256",
          "name": "amount",
          "type": "uint256"
        },
        {
          "internalType": "address",
          "name": "to",
          "type": "address"
        }
      ],
      "name": "clientOrder",
      "outputs": [],
      "stateMutability": "nonpayable",
      "type": "function"
    },
    {
      "inputs": [],
      "name": "decimals",
      "outputs": [
        {
          "internalType": "uint8",
          "name": "",
          "type": "uint8"
        }
      ],
      "stateMutability": "view",
      "type": "function"
    },
    {
      "inputs": [],
      "name": "getAllOrderTokens",
      "outputs": [
        {
          "internalType": "uint256",
          "name": "",
          "type": "uint256"
        }
      ],
      "stateMutability": "view",
      "type": "function"
    },
    {
      "inputs": [
        {
          "internalType": "address",
          "name": "walletAddress",
          "type": "address"
        }
      ],
      "name": "getDeposit",
      "outputs": [
        {
          "internalType": "uint256",
          "name": "",
          "type": "uint256"
        },
        {
          "internalType": "uint256",
          "name": "",
          "type": "uint256"
        }
      ],
      "stateMutability": "view",
      "type": "function"
    },
    {
      "inputs": [
        {
          "internalType": "string",
          "name": "orderId",
          "type": "string"
        }
      ],
      "name": "getOrdersInfo",
      "outputs": [
        {
          "components": [
            {
              "internalType": "string",
              "name": "name",
              "type": "string"
            },
            {
              "internalType": "uint256",
              "name": "startTime",
              "type": "uint256"
            },
            {
              "internalType": "uint256",
              "name": "endTime",
              "type": "uint256"
            },
            {
              "internalType": "uint256",
              "name": "withdrawDuration",
              "type": "uint256"
            },
            {
              "internalType": "uint32",
              "name": "duration",
              "type": "uint32"
            },
            {
              "internalType": "uint256",
              "name": "amount",
              "type": "uint256"
            },
            {
              "internalType": "bool",
              "name": "used",
              "type": "bool"
            },
            {
              "internalType": "bool",
              "name": "withdraw",
              "type": "bool"
            },
            {
              "internalType": "address",
              "name": "payAddress",
              "type": "address"
            },
            {
              "internalType": "address",
              "name": "privoderAddress",
              "type": "address"
            }
          ],
          "internalType": "struct CloudSlitDao.Order",
          "name": "",
          "type": "tuple"
        }
      ],
      "stateMutability": "view",
      "type": "function"
    },
    {
      "inputs": [
        {
          "internalType": "address",
          "name": "from",
          "type": "address"
        }
      ],
      "name": "getPrivoderOrders",
      "outputs": [
        {
          "internalType": "string[]",
          "name": "",
          "type": "string[]"
        }
      ],
      "stateMutability": "view",
      "type": "function"
    },
    {
      "inputs": [
        {
          "internalType": "string",
          "name": "uuid",
          "type": "string"
        }
      ],
      "name": "getUserInfo",
      "outputs": [
        {
          "internalType": "bool",
          "name": "",
          "type": "bool"
        },
        {
          "internalType": "bool",
          "name": "",
          "type": "bool"
        }
      ],
      "stateMutability": "view",
      "type": "function"
    },
    {
      "inputs": [
        {
          "internalType": "string",
          "name": "uuid",
          "type": "string"
        }
      ],
      "name": "getWallet",
      "outputs": [
        {
          "internalType": "address",
          "name": "",
          "type": "address"
        },
        {
          "internalType": "uint8",
          "name": "",
          "type": "uint8"
        }
      ],
      "stateMutability": "view",
      "type": "function"
    },
    {
      "inputs": [
        {
          "internalType": "uint8",
          "name": "_type",
          "type": "uint8"
        }
      ],
      "name": "isDeposit",
      "outputs": [
        {
          "internalType": "bool",
          "name": "",
          "type": "bool"
        }
      ],
      "stateMutability": "view",
      "type": "function"
    },
    {
      "inputs": [],
      "name": "name",
      "outputs": [
        {
          "internalType": "string",
          "name": "",
          "type": "string"
        }
      ],
      "stateMutability": "view",
      "type": "function"
    },
    {
      "inputs": [
        {
          "internalType": "uint8",
          "name": "_type",
          "type": "uint8"
        },
        {
          "internalType": "uint256",
          "name": "amount",
          "type": "uint256"
        }
      ],
      "name": "stake",
      "outputs": [],
      "stateMutability": "nonpayable",
      "type": "function"
    },
    {
      "inputs": [],
      "name": "symbol",
      "outputs": [
        {
          "internalType": "string",
          "name": "",
          "type": "string"
        }
      ],
      "stateMutability": "view",
      "type": "function"
    },
    {
      "inputs": [],
      "name": "totalSupply",
      "outputs": [
        {
          "internalType": "uint256",
          "name": "",
          "type": "uint256"
        }
      ],
      "stateMutability": "view",
      "type": "function"
    },
    {
      "inputs": [
        {
          "internalType": "address",
          "name": "to",
          "type": "address"
        },
        {
          "internalType": "uint256",
          "name": "amount",
          "type": "uint256"
        }
      ],
      "name": "transfer",
      "outputs": [
        {
          "internalType": "bool",
          "name": "",
          "type": "bool"
        }
      ],
      "stateMutability": "nonpayable",
      "type": "function"
    },
    {
      "inputs": [
        {
          "internalType": "string",
          "name": "uuid",
          "type": "string"
        }
      ],
      "name": "unbindWallet",
      "outputs": [],
      "stateMutability": "nonpayable",
      "type": "function"
    },
    {
      "inputs": [
        {
          "internalType": "string",
          "name": "uuid",
          "type": "string"
        }
      ],
      "name": "verifyWallet",
      "outputs": [],
      "stateMutability": "nonpayable",
      "type": "function"
    },
    {
      "inputs": [
        {
          "internalType": "uint8",
          "name": "_type",
          "type": "uint8"
        }
      ],
      "name": "withdraw",
      "outputs": [],
      "stateMutability": "nonpayable",
      "type": "function"
    },
    {
      "inputs": [],
      "name": "withdrawAllOrderTokens",
      "outputs": [],
      "stateMutability": "nonpayable",
      "type": "function"
    },
    {
      "inputs": [
        {
          "internalType": "string",
          "name": "orderId",
          "type": "string"
        }
      ],
      "name": "withdrawOrderTokens",
      "outputs": [],
      "stateMutability": "nonpayable",
      "type": "function"
    }
  ],
  "bytecode": "0x60806040526040518060400160405280600d81526020017f436c6f7564536c69742044616f00000000000000000000000000000000000000815250600090816200004a9190620004ee565b506040518060400160405280600381526020017f435344000000000000000000000000000000000000000000000000000000000081525060019081620000919190620004ee565b506012600360006101000a81548160ff021916908360ff160217905550348015620000bb57600080fd5b50620000fc33600360009054906101000a900460ff16600a620000df919062000765565b6305f5e100620000f09190620007b6565b6200018b60201b60201c565b600360009054906101000a900460ff16600a6200011a919062000765565b611388620001299190620007b6565b600781905550600360009054906101000a900460ff16600a6200014d919062000765565b6103e86200015c9190620007b6565b600881905550610e10600960006101000a81548163ffffffff021916908363ffffffff160217905550620008bf565b600073ffffffffffffffffffffffffffffffffffffffff168273ffffffffffffffffffffffffffffffffffffffff1603620001fd576040517f08c379a0000000000000000000000000000000000000000000000000000000008152600401620001f49062000862565b60405180910390fd5b806002600082825462000211919062000884565b9250508190555080600460008473ffffffffffffffffffffffffffffffffffffffff1673ffffffffffffffffffffffffffffffffffffffff168152602001908152602001600020600082825462000269919062000884565b925050819055505050565b600081519050919050565b7f4e487b7100000000000000000000000000000000000000000000000000000000600052604160045260246000fd5b7f4e487b7100000000000000000000000000000000000000000000000000000000600052602260045260246000fd5b60006002820490506001821680620002f657607f821691505b6020821081036200030c576200030b620002ae565b5b50919050565b60008190508160005260206000209050919050565b60006020601f8301049050919050565b600082821b905092915050565b600060088302620003767fffffffffffffffffffffffffffffffffffffffffffffffffffffffffffffffff8262000337565b62000382868362000337565b95508019841693508086168417925050509392505050565b6000819050919050565b6000819050919050565b6000620003cf620003c9620003c3846200039a565b620003a4565b6200039a565b9050919050565b6000819050919050565b620003eb83620003ae565b62000403620003fa82620003d6565b84845462000344565b825550505050565b600090565b6200041a6200040b565b62000427818484620003e0565b505050565b5b818110156200044f576200044360008262000410565b6001810190506200042d565b5050565b601f8211156200049e57620004688162000312565b620004738462000327565b8101602085101562000483578190505b6200049b620004928562000327565b8301826200042c565b50505b505050565b600082821c905092915050565b6000620004c360001984600802620004a3565b1980831691505092915050565b6000620004de8383620004b0565b9150826002028217905092915050565b620004f98262000274565b67ffffffffffffffff8111156200051557620005146200027f565b5b620005218254620002dd565b6200052e82828562000453565b600060209050601f83116001811462000566576000841562000551578287015190505b6200055d8582620004d0565b865550620005cd565b601f198416620005768662000312565b60005b82811015620005a05784890151825560018201915060208501945060208101905062000579565b86831015620005c05784890151620005bc601f891682620004b0565b8355505b6001600288020188555050505b505050505050565b7f4e487b7100000000000000000000000000000000000000000000000000000000600052601160045260246000fd5b60008160011c9050919050565b6000808291508390505b600185111562000663578086048111156200063b576200063a620005d5565b5b60018516156200064b5780820291505b80810290506200065b8562000604565b94506200061b565b94509492505050565b6000826200067e576001905062000751565b816200068e576000905062000751565b8160018114620006a75760028114620006b257620006e8565b600191505062000751565b60ff841115620006c757620006c6620005d5565b5b8360020a915084821115620006e157620006e0620005d5565b5b5062000751565b5060208310610133831016604e8410600b8410161715620007225782820a9050838111156200071c576200071b620005d5565b5b62000751565b62000731848484600162000611565b925090508184048111156200074b576200074a620005d5565b5b81810290505b9392505050565b600060ff82169050919050565b600062000772826200039a565b91506200077f8362000758565b9250620007ae7fffffffffffffffffffffffffffffffffffffffffffffffffffffffffffffffff84846200066c565b905092915050565b6000620007c3826200039a565b9150620007d0836200039a565b9250828202620007e0816200039a565b91508282048414831517620007fa57620007f9620005d5565b5b5092915050565b600082825260208201905092915050565b7f45524332303a206d696e7420746f20746865207a65726f206164647265737300600082015250565b60006200084a601f8362000801565b9150620008578262000812565b602082019050919050565b600060208201905081810360008301526200087d816200083b565b9050919050565b600062000891826200039a565b91506200089e836200039a565b9250828201905080821115620008b957620008b8620005d5565b5b92915050565b61401880620008cf6000396000f3fe608060405234801561001057600080fd5b50600436106101a95760003560e01c806395d89b41116100f9578063dd62ed3e11610097578063e1254fba11610071578063e1254fba146104e2578063f276b8aa14610513578063f3fbfc7b14610543578063ffc2c9b714610561576101a9565b8063dd62ed3e14610466578063dd6887ed14610496578063dd752e55146104c6576101a9565b8063a9059cbb116100d3578063a9059cbb146103e0578063c5bc91e814610410578063c6ab5d901461042e578063d19e48561461044a576101a9565b806395d89b4114610373578063a23c7c1414610391578063a4e2df66146103af576101a9565b8063313ce567116101665780637c9b7fdd116101405780637c9b7fdd146102da5780638291a0211461030b57806387a858d21461033b5780638ec012b914610357576101a9565b8063313ce567146102705780635c9abe111461028e57806370a08231146102aa576101a9565b806306fdde03146101ae578063095ea7b3146101cc57806318160ddd146101fc578063183dd1cd1461021a57806325cfedb51461024a57806327a0b34a14610266575b600080fd5b6101b661057d565b6040516101c39190612d94565b60405180910390f35b6101e660048036038101906101e19190612e5e565b61060b565b6040516101f39190612eb9565b60405180910390f35b610204610698565b6040516102119190612ee3565b60405180910390f35b610234600480360381019061022f9190612efe565b61069e565b6040516102419190613037565b60405180910390f35b610264600480360381019061025f919061318e565b6107b6565b005b61026e610b5f565b005b610278611112565b60405161028591906131f3565b60405180910390f35b6102a860048036038101906102a3919061324a565b611125565b005b6102c460048036038101906102bf9190612efe565b611466565b6040516102d19190612ee3565b60405180910390f35b6102f460048036038101906102ef919061318e565b6114af565b6040516103029291906132fd565b60405180910390f35b6103256004803603810190610320919061318e565b611609565b604051610332919061343c565b60405180910390f35b6103556004803603810190610350919061345e565b611804565b005b610371600480360381019061036c919061318e565b6119b9565b005b61037b611bf3565b6040516103889190612d94565b60405180910390f35b610399611c81565b6040516103a69190612ee3565b60405180910390f35b6103c960048036038101906103c4919061318e565b611c87565b6040516103d79291906134c9565b60405180910390f35b6103fa60048036038101906103f59190612e5e565b611d04565b6040516104079190612eb9565b60405180910390f35b610418611d9d565b6040516104259190612ee3565b60405180910390f35b6104486004803603810190610443919061351e565b611da3565b005b610464600480360381019061045f919061318e565b611f75565b005b610480600480360381019061047b919061354b565b61204d565b60405161048d9190612ee3565b60405180910390f35b6104b060048036038101906104ab919061318e565b6120d4565b6040516104bd9190612eb9565b60405180910390f35b6104e060048036038101906104db919061358b565b61210c565b005b6104fc60048036038101906104f79190612efe565b612389565b60405161050a9291906135cb565b60405180910390f35b61052d6004803603810190610528919061351e565b612415565b60405161053a9190612eb9565b60405180910390f35b61054b6124cd565b6040516105589190612ee3565b60405180910390f35b61057b6004803603810190610576919061318e565b6129a3565b005b6000805461058a90613623565b80601f01602080910402602001604051908101604052809291908181526020018280546105b690613623565b80156106035780601f106105d857610100808354040283529160200191610603565b820191906000526020600020905b8154815290600101906020018083116105e657829003601f168201915b505050505081565b600081600560003373ffffffffffffffffffffffffffffffffffffffff1673ffffffffffffffffffffffffffffffffffffffff16815260200190815260200160002060008573ffffffffffffffffffffffffffffffffffffffff1673ffffffffffffffffffffffffffffffffffffffff168152602001908152602001600020819055506001905092915050565b60025481565b6060600d60008373ffffffffffffffffffffffffffffffffffffffff1673ffffffffffffffffffffffffffffffffffffffff168152602001908152602001600020805480602002602001604051908101604052809291908181526020016000905b828210156107ab57838290600052602060002001805461071e90613623565b80601f016020809104026020016040519081016040528092919081815260200182805461074a90613623565b80156107975780601f1061076c57610100808354040283529160200191610797565b820191906000526020600020905b81548152906001019060200180831161077a57829003601f168201915b5050505050815260200190600101906106ff565b505050509050919050565b600c816040516107c69190613690565b908152602001604051809103902060060160019054906101000a900460ff1615610825576040517f08c379a000000000000000000000000000000000000000000000000000000000815260040161081c906136f3565b60405180910390fd5b3373ffffffffffffffffffffffffffffffffffffffff16600c8260405161084c9190613690565b908152602001604051809103902060070160009054906101000a900473ffffffffffffffffffffffffffffffffffffffff1673ffffffffffffffffffffffffffffffffffffffff16146108d4576040517f08c379a00000000000000000000000000000000000000000000000000000000081526004016108cb90613785565b60405180910390fd5b600c816040516108e49190613690565b9081526020016040518091039020600201544210610a23576001600c8260405161090e9190613690565b908152602001604051809103902060060160016101000a81548160ff0219169083151502179055506000600c826040516109489190613690565b908152602001604051809103902060030154600c8360405161096a9190613690565b908152602001604051809103902060040160009054906101000a900463ffffffff1663ffffffff1661099c91906137d4565b9050600081600c846040516109b19190613690565b908152602001604051809103902060040160009054906101000a900463ffffffff1663ffffffff16600c856040516109e99190613690565b908152602001604051809103902060050154610a059190613837565b610a0f9190613868565b9050610a1c303383612a6b565b5050610b5c565b6000600c82604051610a359190613690565b908152602001604051809103902060030154600960009054906101000a900463ffffffff1663ffffffff16600c84604051610a709190613690565b90815260200160405180910390206001015442610a8d91906137d4565b610a979190613837565b610aa191906137d4565b905080600c83604051610ab49190613690565b90815260200160405180910390206003016000828254610ad491906138aa565b92505081905550600081600c84604051610aee9190613690565b908152602001604051809103902060040160009054906101000a900463ffffffff1663ffffffff16600c85604051610b269190613690565b908152602001604051809103902060050154610b429190613837565b610b4c9190613868565b9050610b59303383612a6b565b50505b50565b6000600b60003373ffffffffffffffffffffffffffffffffffffffff1673ffffffffffffffffffffffffffffffffffffffff1681526020019081526020016000205403610be1576040517f08c379a0000000000000000000000000000000000000000000000000000000008152600401610bd89061392a565b60405180910390fd5b6000600d60003373ffffffffffffffffffffffffffffffffffffffff1673ffffffffffffffffffffffffffffffffffffffff168152602001908152602001600020805480602002602001604051908101604052809291908181526020016000905b82821015610cee578382906000526020600020018054610c6190613623565b80601f0160208091040260200160405190810160405280929190818152602001828054610c8d90613623565b8015610cda5780601f10610caf57610100808354040283529160200191610cda565b820191906000526020600020905b815481529060010190602001808311610cbd57829003601f168201915b505050505081526020019060010190610c42565b5050505090506000805b825181101561110257600c838281518110610d1657610d1561394a565b5b6020026020010151604051610d2b9190613690565b908152602001604051809103902060060160019054906101000a900460ff166110ef57600c838281518110610d6357610d6261394a565b5b6020026020010151604051610d789190613690565b9081526020016040518091039020600201544210610f36576001600c848381518110610da757610da661394a565b5b6020026020010151604051610dbc9190613690565b908152602001604051809103902060060160016101000a81548160ff0219169083151502179055506000600c848381518110610dfb57610dfa61394a565b5b6020026020010151604051610e109190613690565b908152602001604051809103902060030154600c858481518110610e3757610e3661394a565b5b6020026020010151604051610e4c9190613690565b908152602001604051809103902060040160009054906101000a900463ffffffff1663ffffffff16610e7e91906137d4565b905080600c858481518110610e9657610e9561394a565b5b6020026020010151604051610eab9190613690565b908152602001604051809103902060040160009054906101000a900463ffffffff1663ffffffff16600c868581518110610ee857610ee761394a565b5b6020026020010151604051610efd9190613690565b908152602001604051809103902060050154610f199190613837565b610f239190613868565b83610f2e91906138aa565b9250506110ee565b6000600c848381518110610f4d57610f4c61394a565b5b6020026020010151604051610f629190613690565b908152602001604051809103902060030154600960009054906101000a900463ffffffff1663ffffffff16600c868581518110610fa257610fa161394a565b5b6020026020010151604051610fb79190613690565b90815260200160405180910390206001015442610fd491906137d4565b610fde9190613837565b610fe891906137d4565b905080600c85848151811061100057610fff61394a565b5b60200260200101516040516110159190613690565b9081526020016040518091039020600301600082825461103591906138aa565b9250508190555080600c8584815181106110525761105161394a565b5b60200260200101516040516110679190613690565b908152602001604051809103902060040160009054906101000a900463ffffffff1663ffffffff16600c8685815181106110a4576110a361394a565b5b60200260200101516040516110b99190613690565b9081526020016040518091039020600501546110d59190613837565b6110df9190613868565b836110ea91906138aa565b9250505b5b80806110fa90613979565b915050610cf8565b5061110e303383612a6b565b5050565b600360009054906101000a900460ff1681565b600c836040516111359190613690565b908152602001604051809103902060060160009054906101000a900460ff1615611194576040517f08c379a000000000000000000000000000000000000000000000000000000000815260040161118b90613a0d565b60405180910390fd5b8161119e33611466565b10156111df576040517f08c379a00000000000000000000000000000000000000000000000000000000081526004016111d690613a79565b60405180910390fd5b6111ea333084612a6b565b604051806101400160405280868152602001428152602001600960009054906101000a900463ffffffff16866112209190613a99565b63ffffffff164261123191906138aa565b8152602001600081526020018563ffffffff1681526020018381526020016001151581526020016000151581526020013373ffffffffffffffffffffffffffffffffffffffff1681526020018273ffffffffffffffffffffffffffffffffffffffff16815250600c846040516112a79190613690565b908152602001604051809103902060008201518160000190816112ca9190613c82565b5060208201518160010155604082015181600201556060820151816003015560808201518160040160006101000a81548163ffffffff021916908363ffffffff16021790555060a0820151816005015560c08201518160060160006101000a81548160ff02191690831515021790555060e08201518160060160016101000a81548160ff0219169083151502179055506101008201518160060160026101000a81548173ffffffffffffffffffffffffffffffffffffffff021916908373ffffffffffffffffffffffffffffffffffffffff1602179055506101208201518160070160006101000a81548173ffffffffffffffffffffffffffffffffffffffff021916908373ffffffffffffffffffffffffffffffffffffffff160217905550905050600d60008273ffffffffffffffffffffffffffffffffffffffff1673ffffffffffffffffffffffffffffffffffffffff1681526020019081526020016000208390806001815401808255809150506001900390600052602060002001600090919091909150908161145e9190613c82565b505050505050565b6000600460008373ffffffffffffffffffffffffffffffffffffffff1673ffffffffffffffffffffffffffffffffffffffff168152602001908152602001600020549050919050565b60008060026006846040516114c49190613690565b908152602001604051809103902060000160149054906101000a900460ff1660ff16036115fc576000600a60006006866040516115019190613690565b908152602001604051809103902060000160009054906101000a900473ffffffffffffffffffffffffffffffffffffffff1673ffffffffffffffffffffffffffffffffffffffff1673ffffffffffffffffffffffffffffffffffffffff16815260200190815260200160002054116000600b60006006876040516115859190613690565b908152602001604051809103902060000160009054906101000a900473ffffffffffffffffffffffffffffffffffffffff1673ffffffffffffffffffffffffffffffffffffffff1673ffffffffffffffffffffffffffffffffffffffff168152602001908152602001600020541191509150611604565b600080915091505b915091565b611611612c7b565b600c826040516116219190613690565b90815260200160405180910390206040518061014001604052908160008201805461164b90613623565b80601f016020809104026020016040519081016040528092919081815260200182805461167790613623565b80156116c45780601f10611699576101008083540402835291602001916116c4565b820191906000526020600020905b8154815290600101906020018083116116a757829003601f168201915b505050505081526020016001820154815260200160028201548152602001600382015481526020016004820160009054906101000a900463ffffffff1663ffffffff1663ffffffff168152602001600582015481526020016006820160009054906101000a900460ff161515151581526020016006820160019054906101000a900460ff161515151581526020016006820160029054906101000a900473ffffffffffffffffffffffffffffffffffffffff1673ffffffffffffffffffffffffffffffffffffffff1673ffffffffffffffffffffffffffffffffffffffff1681526020016007820160009054906101000a900473ffffffffffffffffffffffffffffffffffffffff1673ffffffffffffffffffffffffffffffffffffffff1673ffffffffffffffffffffffffffffffffffffffff16815250509050919050565b600073ffffffffffffffffffffffffffffffffffffffff168173ffffffffffffffffffffffffffffffffffffffff160361183d57600080fd5b600160068360405161184f9190613690565b908152602001604051809103902060000160149054906101000a900460ff1660ff16036118db57806006836040516118879190613690565b908152602001604051809103902060000160006101000a81548173ffffffffffffffffffffffffffffffffffffffff021916908373ffffffffffffffffffffffffffffffffffffffff1602179055506119b5565b3373ffffffffffffffffffffffffffffffffffffffff166006836040516119029190613690565b908152602001604051809103902060000160009054906101000a900473ffffffffffffffffffffffffffffffffffffffff1673ffffffffffffffffffffffffffffffffffffffff161461195457600080fd5b806006836040516119659190613690565b908152602001604051809103902060000160006101000a81548173ffffffffffffffffffffffffffffffffffffffff021916908373ffffffffffffffffffffffffffffffffffffffff1602179055505b5050565b600073ffffffffffffffffffffffffffffffffffffffff166006826040516119e19190613690565b908152602001604051809103902060000160009054906101000a900473ffffffffffffffffffffffffffffffffffffffff1673ffffffffffffffffffffffffffffffffffffffff1614611a3357600080fd5b6000600a60003373ffffffffffffffffffffffffffffffffffffffff1673ffffffffffffffffffffffffffffffffffffffff1681526020019081526020016000205403611b375760405180604001604052803373ffffffffffffffffffffffffffffffffffffffff168152602001600160ff16815250600682604051611ab99190613690565b908152602001604051809103902060008201518160000160006101000a81548173ffffffffffffffffffffffffffffffffffffffff021916908373ffffffffffffffffffffffffffffffffffffffff16021790555060208201518160000160146101000a81548160ff021916908360ff160217905550905050611bf0565b60405180604001604052803373ffffffffffffffffffffffffffffffffffffffff168152602001600260ff16815250600682604051611b769190613690565b908152602001604051809103902060008201518160000160006101000a81548173ffffffffffffffffffffffffffffffffffffffff021916908373ffffffffffffffffffffffffffffffffffffffff16021790555060208201518160000160146101000a81548160ff021916908360ff1602179055509050505b50565b60018054611c0090613623565b80601f0160208091040260200160405190810160405280929190818152602001828054611c2c90613623565b8015611c795780601f10611c4e57610100808354040283529160200191611c79565b820191906000526020600020905b815481529060010190602001808311611c5c57829003601f168201915b505050505081565b60075481565b600080600683604051611c9a9190613690565b908152602001604051809103902060000160009054906101000a900473ffffffffffffffffffffffffffffffffffffffff16600684604051611cdc9190613690565b908152602001604051809103902060000160149054906101000a900460ff1691509150915091565b600081600460003373ffffffffffffffffffffffffffffffffffffffff1673ffffffffffffffffffffffffffffffffffffffff168152602001908152602001600020541015611d88576040517f08c379a0000000000000000000000000000000000000000000000000000000008152600401611d7f90613da0565b60405180910390fd5b611d93338484612a6b565b6001905092915050565b60085481565b60018160ff1603611e8c576000600a60003373ffffffffffffffffffffffffffffffffffffffff1673ffffffffffffffffffffffffffffffffffffffff1681526020019081526020016000205411611dfa57600080fd5b611e443033600a60003373ffffffffffffffffffffffffffffffffffffffff1673ffffffffffffffffffffffffffffffffffffffff16815260200190815260200160002054612a6b565b600a60003373ffffffffffffffffffffffffffffffffffffffff1673ffffffffffffffffffffffffffffffffffffffff16815260200190815260200160002060009055611f72565b60028160ff1603611f71576000600b60003373ffffffffffffffffffffffffffffffffffffffff1673ffffffffffffffffffffffffffffffffffffffff1681526020019081526020016000205411611ee357600080fd5b611f2d3033600b60003373ffffffffffffffffffffffffffffffffffffffff1673ffffffffffffffffffffffffffffffffffffffff16815260200190815260200160002054612a6b565b600b60003373ffffffffffffffffffffffffffffffffffffffff1673ffffffffffffffffffffffffffffffffffffffff168152602001908152602001600020600090555b5b50565b3373ffffffffffffffffffffffffffffffffffffffff16600682604051611f9c9190613690565b908152602001604051809103902060000160009054906101000a900473ffffffffffffffffffffffffffffffffffffffff1673ffffffffffffffffffffffffffffffffffffffff1614611fee57600080fd5b600681604051611ffe9190613690565b9081526020016040518091039020600080820160006101000a81549073ffffffffffffffffffffffffffffffffffffffff02191690556000820160146101000a81549060ff0219169055505050565b6000600560008473ffffffffffffffffffffffffffffffffffffffff1673ffffffffffffffffffffffffffffffffffffffff16815260200190815260200160002060008373ffffffffffffffffffffffffffffffffffffffff1673ffffffffffffffffffffffffffffffffffffffff16815260200190815260200160002054905092915050565b6000600c826040516120e69190613690565b908152602001604051809103902060060160009054906101000a900460ff169050919050565b60018260ff160361224a576000600a60003373ffffffffffffffffffffffffffffffffffffffff1673ffffffffffffffffffffffffffffffffffffffff1681526020019081526020016000205414612199576040517f08c379a000000000000000000000000000000000000000000000000000000000815260040161219090613e0c565b60405180910390fd5b806121a333611466565b10156121e4576040517f08c379a00000000000000000000000000000000000000000000000000000000081526004016121db90613a79565b60405180910390fd5b6121ef333083612a6b565b80600a60003373ffffffffffffffffffffffffffffffffffffffff1673ffffffffffffffffffffffffffffffffffffffff168152602001908152602001600020600082825461223e91906138aa565b92505081905550612385565b60028260ff1603612384576000600b60003373ffffffffffffffffffffffffffffffffffffffff1673ffffffffffffffffffffffffffffffffffffffff16815260200190815260200160002054146122d7576040517f08c379a00000000000000000000000000000000000000000000000000000000081526004016122ce90613e0c565b60405180910390fd5b806122e133611466565b1015612322576040517f08c379a000000000000000000000000000000000000000000000000000000000815260040161231990613a79565b60405180910390fd5b61232d333083612a6b565b80600b60003373ffffffffffffffffffffffffffffffffffffffff1673ffffffffffffffffffffffffffffffffffffffff168152602001908152602001600020600082825461237c91906138aa565b925050819055505b5b5050565b600080600a60008473ffffffffffffffffffffffffffffffffffffffff1673ffffffffffffffffffffffffffffffffffffffff16815260200190815260200160002054600b60008573ffffffffffffffffffffffffffffffffffffffff1673ffffffffffffffffffffffffffffffffffffffff1681526020019081526020016000205491509150915091565b600060018260ff160361246d576000600a60003373ffffffffffffffffffffffffffffffffffffffff1673ffffffffffffffffffffffffffffffffffffffff16815260200190815260200160002054141590506124c8565b60028260ff16036124c3576000600b60003373ffffffffffffffffffffffffffffffffffffffff1673ffffffffffffffffffffffffffffffffffffffff16815260200190815260200160002054141590506124c8565b600090505b919050565b600080600b60003373ffffffffffffffffffffffffffffffffffffffff1673ffffffffffffffffffffffffffffffffffffffff168152602001908152602001600020540361251e57600090506129a0565b6000600d60003373ffffffffffffffffffffffffffffffffffffffff1673ffffffffffffffffffffffffffffffffffffffff168152602001908152602001600020805480602002602001604051908101604052809291908181526020016000905b8282101561262b57838290600052602060002001805461259e90613623565b80601f01602080910402602001604051908101604052809291908181526020018280546125ca90613623565b80156126175780601f106125ec57610100808354040283529160200191612617565b820191906000526020600020905b8154815290600101906020018083116125fa57829003601f168201915b50505050508152602001906001019061257f565b5050505090506000805b825181101561299957600c8382815181106126535761265261394a565b5b60200260200101516040516126689190613690565b908152602001604051809103902060060160019054906101000a900460ff1661298657600c8382815181106126a05761269f61394a565b5b60200260200101516040516126b59190613690565b908152602001604051809103902060020154421061281f576000600c8483815181106126e4576126e361394a565b5b60200260200101516040516126f99190613690565b908152602001604051809103902060030154600c8584815181106127205761271f61394a565b5b60200260200101516040516127359190613690565b908152602001604051809103902060040160009054906101000a900463ffffffff1663ffffffff1661276791906137d4565b905080600c85848151811061277f5761277e61394a565b5b60200260200101516040516127949190613690565b908152602001604051809103902060040160009054906101000a900463ffffffff1663ffffffff16600c8685815181106127d1576127d061394a565b5b60200260200101516040516127e69190613690565b9081526020016040518091039020600501546128029190613837565b61280c9190613868565b8361281791906138aa565b925050612985565b6000600c8483815181106128365761283561394a565b5b602002602001015160405161284b9190613690565b908152602001604051809103902060030154600960009054906101000a900463ffffffff1663ffffffff16600c86858151811061288b5761288a61394a565b5b60200260200101516040516128a09190613690565b908152602001604051809103902060010154426128bd91906137d4565b6128c79190613837565b6128d191906137d4565b905080600c8584815181106128e9576128e861394a565b5b60200260200101516040516128fe9190613690565b908152602001604051809103902060040160009054906101000a900463ffffffff1663ffffffff16600c86858151811061293b5761293a61394a565b5b60200260200101516040516129509190613690565b90815260200160405180910390206005015461296c9190613837565b6129769190613868565b8361298191906138aa565b9250505b5b808061299190613979565b915050612635565b5080925050505b90565b6000600a60003373ffffffffffffffffffffffffffffffffffffffff1673ffffffffffffffffffffffffffffffffffffffff16815260200190815260200160002054116129ef57600080fd5b6001600682604051612a019190613690565b908152602001604051809103902060000160149054906101000a900460ff1660ff1614612a2d57600080fd5b6002600682604051612a3f9190613690565b908152602001604051809103902060000160146101000a81548160ff021916908360ff16021790555050565b600073ffffffffffffffffffffffffffffffffffffffff168373ffffffffffffffffffffffffffffffffffffffff1603612ada576040517f08c379a0000000000000000000000000000000000000000000000000000000008152600401612ad190613e9e565b60405180910390fd5b600073ffffffffffffffffffffffffffffffffffffffff168273ffffffffffffffffffffffffffffffffffffffff1603612b49576040517f08c379a0000000000000000000000000000000000000000000000000000000008152600401612b4090613f30565b60405180910390fd5b6000600460008573ffffffffffffffffffffffffffffffffffffffff1673ffffffffffffffffffffffffffffffffffffffff16815260200190815260200160002054905081811015612bd0576040517f08c379a0000000000000000000000000000000000000000000000000000000008152600401612bc790613fc2565b60405180910390fd5b8181612bdc91906137d4565b600460008673ffffffffffffffffffffffffffffffffffffffff1673ffffffffffffffffffffffffffffffffffffffff1681526020019081526020016000208190555081600460008573ffffffffffffffffffffffffffffffffffffffff1673ffffffffffffffffffffffffffffffffffffffff1681526020019081526020016000206000828254612c6e91906138aa565b9250508190555050505050565b60405180610140016040528060608152602001600081526020016000815260200160008152602001600063ffffffff16815260200160008152602001600015158152602001600015158152602001600073ffffffffffffffffffffffffffffffffffffffff168152602001600073ffffffffffffffffffffffffffffffffffffffff1681525090565b600081519050919050565b600082825260208201905092915050565b60005b83811015612d3e578082015181840152602081019050612d23565b60008484015250505050565b6000601f19601f8301169050919050565b6000612d6682612d04565b612d708185612d0f565b9350612d80818560208601612d20565b612d8981612d4a565b840191505092915050565b60006020820190508181036000830152612dae8184612d5b565b905092915050565b6000604051905090565b600080fd5b600080fd5b600073ffffffffffffffffffffffffffffffffffffffff82169050919050565b6000612df582612dca565b9050919050565b612e0581612dea565b8114612e1057600080fd5b50565b600081359050612e2281612dfc565b92915050565b6000819050919050565b612e3b81612e28565b8114612e4657600080fd5b50565b600081359050612e5881612e32565b92915050565b60008060408385031215612e7557612e74612dc0565b5b6000612e8385828601612e13565b9250506020612e9485828601612e49565b9150509250929050565b60008115159050919050565b612eb381612e9e565b82525050565b6000602082019050612ece6000830184612eaa565b92915050565b612edd81612e28565b82525050565b6000602082019050612ef86000830184612ed4565b92915050565b600060208284031215612f1457612f13612dc0565b5b6000612f2284828501612e13565b91505092915050565b600081519050919050565b600082825260208201905092915050565b6000819050602082019050919050565b600082825260208201905092915050565b6000612f7382612d04565b612f7d8185612f57565b9350612f8d818560208601612d20565b612f9681612d4a565b840191505092915050565b6000612fad8383612f68565b905092915050565b6000602082019050919050565b6000612fcd82612f2b565b612fd78185612f36565b935083602082028501612fe985612f47565b8060005b8581101561302557848403895281516130068582612fa1565b945061301183612fb5565b925060208a01995050600181019050612fed565b50829750879550505050505092915050565b600060208201905081810360008301526130518184612fc2565b905092915050565b600080fd5b600080fd5b7f4e487b7100000000000000000000000000000000000000000000000000000000600052604160045260246000fd5b61309b82612d4a565b810181811067ffffffffffffffff821117156130ba576130b9613063565b5b80604052505050565b60006130cd612db6565b90506130d98282613092565b919050565b600067ffffffffffffffff8211156130f9576130f8613063565b5b61310282612d4a565b9050602081019050919050565b82818337600083830152505050565b600061313161312c846130de565b6130c3565b90508281526020810184848401111561314d5761314c61305e565b5b61315884828561310f565b509392505050565b600082601f83011261317557613174613059565b5b813561318584826020860161311e565b91505092915050565b6000602082840312156131a4576131a3612dc0565b5b600082013567ffffffffffffffff8111156131c2576131c1612dc5565b5b6131ce84828501613160565b91505092915050565b600060ff82169050919050565b6131ed816131d7565b82525050565b600060208201905061320860008301846131e4565b92915050565b600063ffffffff82169050919050565b6132278161320e565b811461323257600080fd5b50565b6000813590506132448161321e565b92915050565b600080600080600060a0868803121561326657613265612dc0565b5b600086013567ffffffffffffffff81111561328457613283612dc5565b5b61329088828901613160565b95505060206132a188828901613235565b945050604086013567ffffffffffffffff8111156132c2576132c1612dc5565b5b6132ce88828901613160565b93505060606132df88828901612e49565b92505060806132f088828901612e13565b9150509295509295909350565b60006040820190506133126000830185612eaa565b61331f6020830184612eaa565b9392505050565b61332f81612e28565b82525050565b61333e8161320e565b82525050565b61334d81612e9e565b82525050565b61335c81612dea565b82525050565b60006101408301600083015184820360008601526133808282612f68565b91505060208301516133956020860182613326565b5060408301516133a86040860182613326565b5060608301516133bb6060860182613326565b5060808301516133ce6080860182613335565b5060a08301516133e160a0860182613326565b5060c08301516133f460c0860182613344565b5060e083015161340760e0860182613344565b5061010083015161341c610100860182613353565b50610120830151613431610120860182613353565b508091505092915050565b600060208201905081810360008301526134568184613362565b905092915050565b6000806040838503121561347557613474612dc0565b5b600083013567ffffffffffffffff81111561349357613492612dc5565b5b61349f85828601613160565b92505060206134b085828601612e13565b9150509250929050565b6134c381612dea565b82525050565b60006040820190506134de60008301856134ba565b6134eb60208301846131e4565b9392505050565b6134fb816131d7565b811461350657600080fd5b50565b600081359050613518816134f2565b92915050565b60006020828403121561353457613533612dc0565b5b600061354284828501613509565b91505092915050565b6000806040838503121561356257613561612dc0565b5b600061357085828601612e13565b925050602061358185828601612e13565b9150509250929050565b600080604083850312156135a2576135a1612dc0565b5b60006135b085828601613509565b92505060206135c185828601612e49565b9150509250929050565b60006040820190506135e06000830185612ed4565b6135ed6020830184612ed4565b9392505050565b7f4e487b7100000000000000000000000000000000000000000000000000000000600052602260045260246000fd5b6000600282049050600182168061363b57607f821691505b60208210810361364e5761364d6135f4565b5b50919050565b600081905092915050565b600061366a82612d04565b6136748185613654565b9350613684818560208601612d20565b80840191505092915050565b600061369c828461365f565b915081905092915050565b7f546865206f7264657220686173206265656e2077697468647261776e00000000600082015250565b60006136dd601c83612d0f565b91506136e8826136a7565b602082019050919050565b6000602082019050818103600083015261370c816136d0565b9050919050565b7f506c6561736520636f6e6669726d207468652077616c6c65742061646472657360008201527f732c2043616e206e6f7420776974686472617700000000000000000000000000602082015250565b600061376f603383612d0f565b915061377a82613713565b604082019050919050565b6000602082019050818103600083015261379e81613762565b9050919050565b7f4e487b7100000000000000000000000000000000000000000000000000000000600052601160045260246000fd5b60006137df82612e28565b91506137ea83612e28565b9250828203905081811115613802576138016137a5565b5b92915050565b7f4e487b7100000000000000000000000000000000000000000000000000000000600052601260045260246000fd5b600061384282612e28565b915061384d83612e28565b92508261385d5761385c613808565b5b828204905092915050565b600061387382612e28565b915061387e83612e28565b925082820261388c81612e28565b915082820484148315176138a3576138a26137a5565b5b5092915050565b60006138b582612e28565b91506138c083612e28565b92508282019050808211156138d8576138d76137a5565b5b92915050565b7f4e6f74206465706f736974730000000000000000000000000000000000000000600082015250565b6000613914600c83612d0f565b915061391f826138de565b602082019050919050565b6000602082019050818103600083015261394381613907565b9050919050565b7f4e487b7100000000000000000000000000000000000000000000000000000000600052603260045260246000fd5b600061398482612e28565b91507fffffffffffffffffffffffffffffffffffffffffffffffffffffffffffffffff82036139b6576139b56137a5565b5b600182019050919050565b7f416c726561647920706169640000000000000000000000000000000000000000600082015250565b60006139f7600c83612d0f565b9150613a02826139c1565b602082019050919050565b60006020820190508181036000830152613a26816139ea565b9050919050565b7f4e6f7420656e6f75676820435344000000000000000000000000000000000000600082015250565b6000613a63600e83612d0f565b9150613a6e82613a2d565b602082019050919050565b60006020820190508181036000830152613a9281613a56565b9050919050565b6000613aa48261320e565b9150613aaf8361320e565b9250828202613abd8161320e565b9150808214613acf57613ace6137a5565b5b5092915050565b60008190508160005260206000209050919050565b60006020601f8301049050919050565b600082821b905092915050565b600060088302613b387fffffffffffffffffffffffffffffffffffffffffffffffffffffffffffffffff82613afb565b613b428683613afb565b95508019841693508086168417925050509392505050565b6000819050919050565b6000613b7f613b7a613b7584612e28565b613b5a565b612e28565b9050919050565b6000819050919050565b613b9983613b64565b613bad613ba582613b86565b848454613b08565b825550505050565b600090565b613bc2613bb5565b613bcd818484613b90565b505050565b5b81811015613bf157613be6600082613bba565b600181019050613bd3565b5050565b601f821115613c3657613c0781613ad6565b613c1084613aeb565b81016020851015613c1f578190505b613c33613c2b85613aeb565b830182613bd2565b50505b505050565b600082821c905092915050565b6000613c5960001984600802613c3b565b1980831691505092915050565b6000613c728383613c48565b9150826002028217905092915050565b613c8b82612d04565b67ffffffffffffffff811115613ca457613ca3613063565b5b613cae8254613623565b613cb9828285613bf5565b600060209050601f831160018114613cec5760008415613cda578287015190505b613ce48582613c66565b865550613d4c565b601f198416613cfa86613ad6565b60005b82811015613d2257848901518255600182019150602085019450602081019050613cfd565b86831015613d3f5784890151613d3b601f891682613c48565b8355505b6001600288020188555050505b505050505050565b7f4e6f7420656e6f75676820746f6b656e73000000000000000000000000000000600082015250565b6000613d8a601183612d0f565b9150613d9582613d54565b602082019050919050565b60006020820190508181036000830152613db981613d7d565b9050919050565b7f416c7265616479207374616b6564000000000000000000000000000000000000600082015250565b6000613df6600e83612d0f565b9150613e0182613dc0565b602082019050919050565b60006020820190508181036000830152613e2581613de9565b9050919050565b7f45524332303a207472616e736665722066726f6d20746865207a65726f20616460008201527f6472657373000000000000000000000000000000000000000000000000000000602082015250565b6000613e88602583612d0f565b9150613e9382613e2c565b604082019050919050565b60006020820190508181036000830152613eb781613e7b565b9050919050565b7f45524332303a207472616e7366657220746f20746865207a65726f206164647260008201527f6573730000000000000000000000000000000000000000000000000000000000602082015250565b6000613f1a602383612d0f565b9150613f2582613ebe565b604082019050919050565b60006020820190508181036000830152613f4981613f0d565b9050919050565b7f45524332303a207472616e7366657220616d6f756e742065786365656473206260008201527f616c616e63650000000000000000000000000000000000000000000000000000602082015250565b6000613fac602683612d0f565b9150613fb782613f50565b604082019050919050565b60006020820190508181036000830152613fdb81613f9f565b905091905056fea2646970667358221220452ed44c161f766b757d7e85d19a6fc2608f384ee46d608fac115b57c2127b7e64736f6c63430008110033",
  "linkReferences": {},
  "deployedLinkReferences": {}
}