{"contracts/CloudSlitDao.sol":{"CloudSlitDao":{"abi":[{"inputs":[],"stateMutability":"nonpayable","type":"constructor"},{"anonymous":false,"inputs":[{"indexed":true,"internalType":"address","name":"owner","type":"address"},{"indexed":true,"internalType":"address","name":"spender","type":"address"},{"indexed":false,"internalType":"uint256","name":"value","type":"uint256"}],"name":"Approval","type":"event"},{"anonymous":false,"inputs":[{"indexed":true,"internalType":"address","name":"from","type":"address"},{"indexed":true,"internalType":"address","name":"to","type":"address"},{"indexed":false,"internalType":"uint256","name":"value","type":"uint256"}],"name":"Transfer","type":"event"},{"inputs":[],"name":"_fullnodeDepositAmount","outputs":[{"internalType":"uint256","name":"","type":"uint256"}],"stateMutability":"view","type":"function"},{"inputs":[],"name":"_privoderDepositAmount","outputs":[{"internalType":"uint256","name":"","type":"uint256"}],"stateMutability":"view","type":"function"},{"inputs":[{"internalType":"address","name":"owner","type":"address"},{"internalType":"address","name":"spender","type":"address"}],"name":"allowance","outputs":[{"internalType":"uint256","name":"","type":"uint256"}],"stateMutability":"view","type":"function"},{"inputs":[{"internalType":"address","name":"spender","type":"address"},{"internalType":"uint256","name":"value","type":"uint256"}],"name":"approve","outputs":[{"internalType":"bool","name":"","type":"bool"}],"stateMutability":"nonpayable","type":"function"},{"inputs":[{"internalType":"address","name":"account","type":"address"}],"name":"balanceOf","outputs":[{"internalType":"uint256","name":"","type":"uint256"}],"stateMutability":"view","type":"function"},{"inputs":[{"internalType":"string","name":"uuid","type":"string"}],"name":"bindWallet","outputs":[],"stateMutability":"nonpayable","type":"function"},{"inputs":[{"internalType":"string","name":"uuid","type":"string"},{"internalType":"address","name":"newWallet","type":"address"}],"name":"changeWallet","outputs":[],"stateMutability":"nonpayable","type":"function"},{"inputs":[{"internalType":"string","name":"orderId","type":"string"}],"name":"checkOrder","outputs":[{"internalType":"bool","name":"","type":"bool"}],"stateMutability":"view","type":"function"},{"inputs":[{"internalType":"string","name":"name","type":"string"},{"internalType":"uint32","name":"duration","type":"uint32"},{"internalType":"string","name":"orderId","type":"string"},{"internalType":"uint256","name":"amount","type":"uint256"},{"internalType":"address","name":"to","type":"address"}],"name":"clientOrder","outputs":[],"stateMutability":"nonpayable","type":"function"},{"inputs":[],"name":"decimals","outputs":[{"internalType":"uint8","name":"","type":"uint8"}],"stateMutability":"view","type":"function"},{"inputs":[],"name":"getAllOrderTokens","outputs":[{"internalType":"uint256","name":"","type":"uint256"}],"stateMutability":"view","type":"function"},{"inputs":[{"internalType":"address","name":"walletAddress","type":"address"}],"name":"getDeposit","outputs":[{"internalType":"uint256","name":"","type":"uint256"},{"internalType":"uint256","name":"","type":"uint256"}],"stateMutability":"view","type":"function"},{"inputs":[{"internalType":"string","name":"orderId","type":"string"}],"name":"getOrdersInfo","outputs":[{"components":[{"internalType":"string","name":"name","type":"string"},{"internalType":"uint256","name":"startTime","type":"uint256"},{"internalType":"uint256","name":"endTime","type":"uint256"},{"internalType":"uint256","name":"withdrawDuration","type":"uint256"},{"internalType":"uint32","name":"duration","type":"uint32"},{"internalType":"uint256","name":"amount","type":"uint256"},{"internalType":"bool","name":"used","type":"bool"},{"internalType":"bool","name":"withdraw","type":"bool"},{"internalType":"address","name":"payAddress","type":"address"},{"internalType":"address","name":"privoderAddress","type":"address"}],"internalType":"struct CloudSlitDao.Order","name":"","type":"tuple"}],"stateMutability":"view","type":"function"},{"inputs":[{"internalType":"address","name":"from","type":"address"}],"name":"getPrivoderOrders","outputs":[{"internalType":"string[]","name":"","type":"string[]"}],"stateMutability":"view","type":"function"},{"inputs":[{"internalType":"string","name":"uuid","type":"string"}],"name":"getUserInfo","outputs":[{"internalType":"bool","name":"","type":"bool"},{"internalType":"bool","name":"","type":"bool"}],"stateMutability":"view","type":"function"},{"inputs":[{"internalType":"string","name":"uuid","type":"string"}],"name":"getWallet","outputs":[{"internalType":"address","name":"","type":"address"},{"internalType":"uint8","name":"","type":"uint8"}],"stateMutability":"view","type":"function"},{"inputs":[{"internalType":"uint8","name":"_type","type":"uint8"}],"name":"isDeposit","outputs":[{"internalType":"bool","name":"","type":"bool"}],"stateMutability":"view","type":"function"},{"inputs":[],"name":"name","outputs":[{"internalType":"string","name":"","type":"string"}],"stateMutability":"view","type":"function"},{"inputs":[{"internalType":"uint8","name":"_type","type":"uint8"}],"name":"stake","outputs":[],"stateMutability":"nonpayable","type":"function"},{"inputs":[{"internalType":"uint8","name":"_type","type":"uint8"},{"internalType":"address","name":"walletAddress","type":"address"},{"internalType":"uint256","name":"amount","type":"uint256"}],"name":"stakeAmount","outputs":[],"stateMutability":"nonpayable","type":"function"},{"inputs":[],"name":"symbol","outputs":[{"internalType":"string","name":"","type":"string"}],"stateMutability":"view","type":"function"},{"inputs":[],"name":"totalSupply","outputs":[{"internalType":"uint256","name":"","type":"uint256"}],"stateMutability":"view","type":"function"},{"inputs":[{"internalType":"address","name":"to","type":"address"},{"internalType":"uint256","name":"amount","type":"uint256"}],"name":"transfer","outputs":[{"internalType":"bool","name":"","type":"bool"}],"stateMutability":"nonpayable","type":"function"},{"inputs":[{"internalType":"string","name":"uuid","type":"string"}],"name":"unbindWallet","outputs":[],"stateMutability":"nonpayable","type":"function"},{"inputs":[{"internalType":"string","name":"uuid","type":"string"}],"name":"verifyWallet","outputs":[],"stateMutability":"nonpayable","type":"function"},{"inputs":[{"internalType":"uint8","name":"_type","type":"uint8"}],"name":"withdraw","outputs":[],"stateMutability":"nonpayable","type":"function"},{"inputs":[],"name":"withdrawAllOrderTokens","outputs":[],"stateMutability":"nonpayable","type":"function"},{"inputs":[{"internalType":"string","name":"orderId","type":"string"}],"name":"withdrawOrderTokens","outputs":[],"stateMutability":"nonpayable","type":"function"}],"devdoc":{"kind":"dev","methods":{"constructor":{"custom:oz-upgrades-unsafe-allow":"constructor"}},"version":1},"evm":{"bytecode":{"linkReferences":{},"object":"60806040526040518060400160405280600d81526020017f436c6f7564536c69742044616f00000000000000000000000000000000000000815250600090816200004a9190620004ee565b506040518060400160405280600381526020017f435344000000000000000000000000000000000000000000000000000000000081525060019081620000919190620004ee565b506012600360006101000a81548160ff021916908360ff160217905550348015620000bb57600080fd5b50620000fc33600360009054906101000a900460ff16600a620000df919062000765565b6305f5e100620000f09190620007b6565b6200018b60201b60201c565b600360009054906101000a900460ff16600a6200011a919062000765565b611388620001299190620007b6565b600781905550600360009054906101000a900460ff16600a6200014d919062000765565b6103e86200015c9190620007b6565b600881905550610e10600960006101000a81548163ffffffff021916908363ffffffff160217905550620008bf565b600073ffffffffffffffffffffffffffffffffffffffff168273ffffffffffffffffffffffffffffffffffffffff1603620001fd576040517f08c379a0000000000000000000000000000000000000000000000000000000008152600401620001f49062000862565b60405180910390fd5b806002600082825462000211919062000884565b9250508190555080600460008473ffffffffffffffffffffffffffffffffffffffff1673ffffffffffffffffffffffffffffffffffffffff168152602001908152602001600020600082825462000269919062000884565b925050819055505050565b600081519050919050565b7f4e487b7100000000000000000000000000000000000000000000000000000000600052604160045260246000fd5b7f4e487b7100000000000000000000000000000000000000000000000000000000600052602260045260246000fd5b60006002820490506001821680620002f657607f821691505b6020821081036200030c576200030b620002ae565b5b50919050565b60008190508160005260206000209050919050565b60006020601f8301049050919050565b600082821b905092915050565b600060088302620003767fffffffffffffffffffffffffffffffffffffffffffffffffffffffffffffffff8262000337565b62000382868362000337565b95508019841693508086168417925050509392505050565b6000819050919050565b6000819050919050565b6000620003cf620003c9620003c3846200039a565b620003a4565b6200039a565b9050919050565b6000819050919050565b620003eb83620003ae565b62000403620003fa82620003d6565b84845462000344565b825550505050565b600090565b6200041a6200040b565b62000427818484620003e0565b505050565b5b818110156200044f576200044360008262000410565b6001810190506200042d565b5050565b601f8211156200049e57620004688162000312565b620004738462000327565b8101602085101562000483578190505b6200049b620004928562000327565b8301826200042c565b50505b505050565b600082821c905092915050565b6000620004c360001984600802620004a3565b1980831691505092915050565b6000620004de8383620004b0565b9150826002028217905092915050565b620004f98262000274565b67ffffffffffffffff8111156200051557620005146200027f565b5b620005218254620002dd565b6200052e82828562000453565b600060209050601f83116001811462000566576000841562000551578287015190505b6200055d8582620004d0565b865550620005cd565b601f198416620005768662000312565b60005b82811015620005a05784890151825560018201915060208501945060208101905062000579565b86831015620005c05784890151620005bc601f891682620004b0565b8355505b6001600288020188555050505b505050505050565b7f4e487b7100000000000000000000000000000000000000000000000000000000600052601160045260246000fd5b60008160011c9050919050565b6000808291508390505b600185111562000663578086048111156200063b576200063a620005d5565b5b60018516156200064b5780820291505b80810290506200065b8562000604565b94506200061b565b94509492505050565b6000826200067e576001905062000751565b816200068e576000905062000751565b8160018114620006a75760028114620006b257620006e8565b600191505062000751565b60ff841115620006c757620006c6620005d5565b5b8360020a915084821115620006e157620006e0620005d5565b5b5062000751565b5060208310610133831016604e8410600b8410161715620007225782820a9050838111156200071c576200071b620005d5565b5b62000751565b62000731848484600162000611565b925090508184048111156200074b576200074a620005d5565b5b81810290505b9392505050565b600060ff82169050919050565b600062000772826200039a565b91506200077f8362000758565b9250620007ae7fffffffffffffffffffffffffffffffffffffffffffffffffffffffffffffffff84846200066c565b905092915050565b6000620007c3826200039a565b9150620007d0836200039a565b9250828202620007e0816200039a565b91508282048414831517620007fa57620007f9620005d5565b5b5092915050565b600082825260208201905092915050565b7f45524332303a206d696e7420746f20746865207a65726f206164647265737300600082015250565b60006200084a601f8362000801565b9150620008578262000812565b602082019050919050565b600060208201905081810360008301526200087d816200083b565b9050919050565b600062000891826200039a565b91506200089e836200039a565b9250828201905080821115620008b957620008b8620005d5565b5b92915050565b6141e780620008cf6000396000f3fe608060405234801561001057600080fd5b50600436106101c45760003560e01c80638ec012b9116100f9578063d19e485611610097578063e1254fba11610071578063e1254fba14610519578063f276b8aa1461054a578063f3fbfc7b1461057a578063ffc2c9b714610598576101c4565b8063d19e48561461049d578063dd62ed3e146104b9578063dd6887ed146104e9576101c4565b8063a4e2df66116100d3578063a4e2df6614610402578063a9059cbb14610433578063c5bc91e814610463578063c6ab5d9014610481576101c4565b80638ec012b9146103aa57806395d89b41146103c6578063a23c7c14146103e4576101c4565b80635c9abe111161016657806370a082311161014057806370a08231146102fd5780637c9b7fdd1461032d5780638291a0211461035e57806387a858d21461038e576101c4565b80635c9abe11146102a95780635e3ae06e146102c5578063604f2177146102e1576101c4565b8063183dd1cd116101a2578063183dd1cd1461023557806325cfedb51461026557806327a0b34a14610281578063313ce5671461028b576101c4565b806306fdde03146101c9578063095ea7b3146101e757806318160ddd14610217575b600080fd5b6101d16105b4565b6040516101de9190612f50565b60405180910390f35b61020160048036038101906101fc919061301a565b610642565b60405161020e9190613075565b60405180910390f35b61021f6106cf565b60405161022c919061309f565b60405180910390f35b61024f600480360381019061024a91906130ba565b6106d5565b60405161025c91906131f3565b60405180910390f35b61027f600480360381019061027a919061334a565b6107ed565b005b610289610b96565b005b610293611149565b6040516102a091906133af565b60405180910390f35b6102c360048036038101906102be9190613406565b61115c565b005b6102df60048036038101906102da91906134e5565b61149d565b005b6102fb60048036038101906102f69190613538565b611617565b005b610317600480360381019061031291906130ba565b61189f565b604051610324919061309f565b60405180910390f35b6103476004803603810190610342919061334a565b6118e8565b604051610355929190613565565b60405180910390f35b6103786004803603810190610373919061334a565b611a42565b60405161038591906136a4565b60405180910390f35b6103a860048036038101906103a391906136c6565b611c3d565b005b6103c460048036038101906103bf919061334a565b611df2565b005b6103ce61202c565b6040516103db9190612f50565b60405180910390f35b6103ec6120ba565b6040516103f9919061309f565b60405180910390f35b61041c6004803603810190610417919061334a565b6120c0565b60405161042a929190613731565b60405180910390f35b61044d6004803603810190610448919061301a565b61213d565b60405161045a9190613075565b60405180910390f35b61046b6121d6565b604051610478919061309f565b60405180910390f35b61049b60048036038101906104969190613538565b6121dc565b005b6104b760048036038101906104b2919061334a565b6123ae565b005b6104d360048036038101906104ce919061375a565b612486565b6040516104e0919061309f565b60405180910390f35b61050360048036038101906104fe919061334a565b61250d565b6040516105109190613075565b60405180910390f35b610533600480360381019061052e91906130ba565b612545565b60405161054192919061379a565b60405180910390f35b610564600480360381019061055f9190613538565b6125d1565b6040516105719190613075565b60405180910390f35b610582612689565b60405161058f919061309f565b60405180910390f35b6105b260048036038101906105ad919061334a565b612b5f565b005b600080546105c1906137f2565b80601f01602080910402602001604051908101604052809291908181526020018280546105ed906137f2565b801561063a5780601f1061060f5761010080835404028352916020019161063a565b820191906000526020600020905b81548152906001019060200180831161061d57829003601f168201915b505050505081565b600081600560003373ffffffffffffffffffffffffffffffffffffffff1673ffffffffffffffffffffffffffffffffffffffff16815260200190815260200160002060008573ffffffffffffffffffffffffffffffffffffffff1673ffffffffffffffffffffffffffffffffffffffff168152602001908152602001600020819055506001905092915050565b60025481565b6060600d60008373ffffffffffffffffffffffffffffffffffffffff1673ffffffffffffffffffffffffffffffffffffffff168152602001908152602001600020805480602002602001604051908101604052809291908181526020016000905b828210156107e2578382906000526020600020018054610755906137f2565b80601f0160208091040260200160405190810160405280929190818152602001828054610781906137f2565b80156107ce5780601f106107a3576101008083540402835291602001916107ce565b820191906000526020600020905b8154815290600101906020018083116107b157829003601f168201915b505050505081526020019060010190610736565b505050509050919050565b600c816040516107fd919061385f565b908152602001604051809103902060060160019054906101000a900460ff161561085c576040517f08c379a0000000000000000000000000000000000000000000000000000000008152600401610853906138c2565b60405180910390fd5b3373ffffffffffffffffffffffffffffffffffffffff16600c82604051610883919061385f565b908152602001604051809103902060070160009054906101000a900473ffffffffffffffffffffffffffffffffffffffff1673ffffffffffffffffffffffffffffffffffffffff161461090b576040517f08c379a000000000000000000000000000000000000000000000000000000000815260040161090290613954565b60405180910390fd5b600c8160405161091b919061385f565b9081526020016040518091039020600201544210610a5a576001600c82604051610945919061385f565b908152602001604051809103902060060160016101000a81548160ff0219169083151502179055506000600c8260405161097f919061385f565b908152602001604051809103902060030154600c836040516109a1919061385f565b908152602001604051809103902060040160009054906101000a900463ffffffff1663ffffffff166109d391906139a3565b9050600081600c846040516109e8919061385f565b908152602001604051809103902060040160009054906101000a900463ffffffff1663ffffffff16600c85604051610a20919061385f565b908152602001604051809103902060050154610a3c9190613a06565b610a469190613a37565b9050610a53303383612c27565b5050610b93565b6000600c82604051610a6c919061385f565b908152602001604051809103902060030154600960009054906101000a900463ffffffff1663ffffffff16600c84604051610aa7919061385f565b90815260200160405180910390206001015442610ac491906139a3565b610ace9190613a06565b610ad891906139a3565b905080600c83604051610aeb919061385f565b90815260200160405180910390206003016000828254610b0b9190613a79565b92505081905550600081600c84604051610b25919061385f565b908152602001604051809103902060040160009054906101000a900463ffffffff1663ffffffff16600c85604051610b5d919061385f565b908152602001604051809103902060050154610b799190613a06565b610b839190613a37565b9050610b90303383612c27565b50505b50565b6000600b60003373ffffffffffffffffffffffffffffffffffffffff1673ffffffffffffffffffffffffffffffffffffffff1681526020019081526020016000205403610c18576040517f08c379a0000000000000000000000000000000000000000000000000000000008152600401610c0f90613af9565b60405180910390fd5b6000600d60003373ffffffffffffffffffffffffffffffffffffffff1673ffffffffffffffffffffffffffffffffffffffff168152602001908152602001600020805480602002602001604051908101604052809291908181526020016000905b82821015610d25578382906000526020600020018054610c98906137f2565b80601f0160208091040260200160405190810160405280929190818152602001828054610cc4906137f2565b8015610d115780601f10610ce657610100808354040283529160200191610d11565b820191906000526020600020905b815481529060010190602001808311610cf457829003601f168201915b505050505081526020019060010190610c79565b5050505090506000805b825181101561113957600c838281518110610d4d57610d4c613b19565b5b6020026020010151604051610d62919061385f565b908152602001604051809103902060060160019054906101000a900460ff1661112657600c838281518110610d9a57610d99613b19565b5b6020026020010151604051610daf919061385f565b9081526020016040518091039020600201544210610f6d576001600c848381518110610dde57610ddd613b19565b5b6020026020010151604051610df3919061385f565b908152602001604051809103902060060160016101000a81548160ff0219169083151502179055506000600c848381518110610e3257610e31613b19565b5b6020026020010151604051610e47919061385f565b908152602001604051809103902060030154600c858481518110610e6e57610e6d613b19565b5b6020026020010151604051610e83919061385f565b908152602001604051809103902060040160009054906101000a900463ffffffff1663ffffffff16610eb591906139a3565b905080600c858481518110610ecd57610ecc613b19565b5b6020026020010151604051610ee2919061385f565b908152602001604051809103902060040160009054906101000a900463ffffffff1663ffffffff16600c868581518110610f1f57610f1e613b19565b5b6020026020010151604051610f34919061385f565b908152602001604051809103902060050154610f509190613a06565b610f5a9190613a37565b83610f659190613a79565b925050611125565b6000600c848381518110610f8457610f83613b19565b5b6020026020010151604051610f99919061385f565b908152602001604051809103902060030154600960009054906101000a900463ffffffff1663ffffffff16600c868581518110610fd957610fd8613b19565b5b6020026020010151604051610fee919061385f565b9081526020016040518091039020600101544261100b91906139a3565b6110159190613a06565b61101f91906139a3565b905080600c85848151811061103757611036613b19565b5b602002602001015160405161104c919061385f565b9081526020016040518091039020600301600082825461106c9190613a79565b9250508190555080600c85848151811061108957611088613b19565b5b602002602001015160405161109e919061385f565b908152602001604051809103902060040160009054906101000a900463ffffffff1663ffffffff16600c8685815181106110db576110da613b19565b5b60200260200101516040516110f0919061385f565b90815260200160405180910390206005015461110c9190613a06565b6111169190613a37565b836111219190613a79565b9250505b5b808061113190613b48565b915050610d2f565b50611145303383612c27565b5050565b600360009054906101000a900460ff1681565b600c8360405161116c919061385f565b908152602001604051809103902060060160009054906101000a900460ff16156111cb576040517f08c379a00000000000000000000000000000000000000000000000000000000081526004016111c290613bdc565b60405180910390fd5b816111d53361189f565b1015611216576040517f08c379a000000000000000000000000000000000000000000000000000000000815260040161120d90613c48565b60405180910390fd5b611221333084612c27565b604051806101400160405280868152602001428152602001600960009054906101000a900463ffffffff16866112579190613c68565b63ffffffff16426112689190613a79565b8152602001600081526020018563ffffffff1681526020018381526020016001151581526020016000151581526020013373ffffffffffffffffffffffffffffffffffffffff1681526020018273ffffffffffffffffffffffffffffffffffffffff16815250600c846040516112de919061385f565b908152602001604051809103902060008201518160000190816113019190613e51565b5060208201518160010155604082015181600201556060820151816003015560808201518160040160006101000a81548163ffffffff021916908363ffffffff16021790555060a0820151816005015560c08201518160060160006101000a81548160ff02191690831515021790555060e08201518160060160016101000a81548160ff0219169083151502179055506101008201518160060160026101000a81548173ffffffffffffffffffffffffffffffffffffffff021916908373ffffffffffffffffffffffffffffffffffffffff1602179055506101208201518160070160006101000a81548173ffffffffffffffffffffffffffffffffffffffff021916908373ffffffffffffffffffffffffffffffffffffffff160217905550905050600d60008273ffffffffffffffffffffffffffffffffffffffff1673ffffffffffffffffffffffffffffffffffffffff168152602001908152602001600020839080600181540180825580915050600190039060005260206000200160009091909190915090816114959190613e51565b505050505050565b60018360ff160361155957806114b23361189f565b10156114f3576040517f08c379a00000000000000000000000000000000000000000000000000000000081526004016114ea90613c48565b60405180910390fd5b6114fe333083612c27565b80600a60008473ffffffffffffffffffffffffffffffffffffffff1673ffffffffffffffffffffffffffffffffffffffff168152602001908152602001600020600082825461154d9190613a79565b92505081905550611612565b60028360ff1603611611578061156e3361189f565b10156115af576040517f08c379a00000000000000000000000000000000000000000000000000000000081526004016115a690613c48565b60405180910390fd5b6115ba333083612c27565b80600b60008473ffffffffffffffffffffffffffffffffffffffff1673ffffffffffffffffffffffffffffffffffffffff16815260200190815260200160002060008282546116099190613a79565b925050819055505b5b505050565b60018160ff160361175b576000600a60003373ffffffffffffffffffffffffffffffffffffffff1673ffffffffffffffffffffffffffffffffffffffff16815260200190815260200160002054146116a4576040517f08c379a000000000000000000000000000000000000000000000000000000000815260040161169b90613f6f565b60405180910390fd5b6007546116b03361189f565b10156116f1576040517f08c379a00000000000000000000000000000000000000000000000000000000081526004016116e890613c48565b60405180910390fd5b6116fe3330600754612c27565b600754600a60003373ffffffffffffffffffffffffffffffffffffffff1673ffffffffffffffffffffffffffffffffffffffff168152602001908152602001600020600082825461174f9190613a79565b9250508190555061189c565b60028160ff160361189b576000600b60003373ffffffffffffffffffffffffffffffffffffffff1673ffffffffffffffffffffffffffffffffffffffff16815260200190815260200160002054146117e8576040517f08c379a00000000000000000000000000000000000000000000000000000000081526004016117df90613f6f565b60405180910390fd5b6008546117f43361189f565b1015611835576040517f08c379a000000000000000000000000000000000000000000000000000000000815260040161182c90613c48565b60405180910390fd5b6118423330600854612c27565b600854600b60003373ffffffffffffffffffffffffffffffffffffffff1673ffffffffffffffffffffffffffffffffffffffff16815260200190815260200160002060008282546118939190613a79565b925050819055505b5b50565b6000600460008373ffffffffffffffffffffffffffffffffffffffff1673ffffffffffffffffffffffffffffffffffffffff168152602001908152602001600020549050919050565b60008060026006846040516118fd919061385f565b908152602001604051809103902060000160149054906101000a900460ff1660ff1603611a35576000600a600060068660405161193a919061385f565b908152602001604051809103902060000160009054906101000a900473ffffffffffffffffffffffffffffffffffffffff1673ffffffffffffffffffffffffffffffffffffffff1673ffffffffffffffffffffffffffffffffffffffff16815260200190815260200160002054116000600b60006006876040516119be919061385f565b908152602001604051809103902060000160009054906101000a900473ffffffffffffffffffffffffffffffffffffffff1673ffffffffffffffffffffffffffffffffffffffff1673ffffffffffffffffffffffffffffffffffffffff168152602001908152602001600020541191509150611a3d565b600080915091505b915091565b611a4a612e37565b600c82604051611a5a919061385f565b908152602001604051809103902060405180610140016040529081600082018054611a84906137f2565b80601f0160208091040260200160405190810160405280929190818152602001828054611ab0906137f2565b8015611afd5780601f10611ad257610100808354040283529160200191611afd565b820191906000526020600020905b815481529060010190602001808311611ae057829003601f168201915b505050505081526020016001820154815260200160028201548152602001600382015481526020016004820160009054906101000a900463ffffffff1663ffffffff1663ffffffff168152602001600582015481526020016006820160009054906101000a900460ff161515151581526020016006820160019054906101000a900460ff161515151581526020016006820160029054906101000a900473ffffffffffffffffffffffffffffffffffffffff1673ffffffffffffffffffffffffffffffffffffffff1673ffffffffffffffffffffffffffffffffffffffff1681526020016007820160009054906101000a900473ffffffffffffffffffffffffffffffffffffffff1673ffffffffffffffffffffffffffffffffffffffff1673ffffffffffffffffffffffffffffffffffffffff16815250509050919050565b600073ffffffffffffffffffffffffffffffffffffffff168173ffffffffffffffffffffffffffffffffffffffff1603611c7657600080fd5b6001600683604051611c88919061385f565b908152602001604051809103902060000160149054906101000a900460ff1660ff1603611d145780600683604051611cc0919061385f565b908152602001604051809103902060000160006101000a81548173ffffffffffffffffffffffffffffffffffffffff021916908373ffffffffffffffffffffffffffffffffffffffff160217905550611dee565b3373ffffffffffffffffffffffffffffffffffffffff16600683604051611d3b919061385f565b908152602001604051809103902060000160009054906101000a900473ffffffffffffffffffffffffffffffffffffffff1673ffffffffffffffffffffffffffffffffffffffff1614611d8d57600080fd5b80600683604051611d9e919061385f565b908152602001604051809103902060000160006101000a81548173ffffffffffffffffffffffffffffffffffffffff021916908373ffffffffffffffffffffffffffffffffffffffff1602179055505b5050565b600073ffffffffffffffffffffffffffffffffffffffff16600682604051611e1a919061385f565b908152602001604051809103902060000160009054906101000a900473ffffffffffffffffffffffffffffffffffffffff1673ffffffffffffffffffffffffffffffffffffffff1614611e6c57600080fd5b6000600a60003373ffffffffffffffffffffffffffffffffffffffff1673ffffffffffffffffffffffffffffffffffffffff1681526020019081526020016000205403611f705760405180604001604052803373ffffffffffffffffffffffffffffffffffffffff168152602001600160ff16815250600682604051611ef2919061385f565b908152602001604051809103902060008201518160000160006101000a81548173ffffffffffffffffffffffffffffffffffffffff021916908373ffffffffffffffffffffffffffffffffffffffff16021790555060208201518160000160146101000a81548160ff021916908360ff160217905550905050612029565b60405180604001604052803373ffffffffffffffffffffffffffffffffffffffff168152602001600260ff16815250600682604051611faf919061385f565b908152602001604051809103902060008201518160000160006101000a81548173ffffffffffffffffffffffffffffffffffffffff021916908373ffffffffffffffffffffffffffffffffffffffff16021790555060208201518160000160146101000a81548160ff021916908360ff1602179055509050505b50565b60018054612039906137f2565b80601f0160208091040260200160405190810160405280929190818152602001828054612065906137f2565b80156120b25780601f10612087576101008083540402835291602001916120b2565b820191906000526020600020905b81548152906001019060200180831161209557829003601f168201915b505050505081565b60075481565b6000806006836040516120d3919061385f565b908152602001604051809103902060000160009054906101000a900473ffffffffffffffffffffffffffffffffffffffff16600684604051612115919061385f565b908152602001604051809103902060000160149054906101000a900460ff1691509150915091565b600081600460003373ffffffffffffffffffffffffffffffffffffffff1673ffffffffffffffffffffffffffffffffffffffff1681526020019081526020016000205410156121c1576040517f08c379a00000000000000000000000000000000000000000000000000000000081526004016121b890613fdb565b60405180910390fd5b6121cc338484612c27565b6001905092915050565b60085481565b60018160ff16036122c5576000600a60003373ffffffffffffffffffffffffffffffffffffffff1673ffffffffffffffffffffffffffffffffffffffff168152602001908152602001600020541161223357600080fd5b61227d3033600a60003373ffffffffffffffffffffffffffffffffffffffff1673ffffffffffffffffffffffffffffffffffffffff16815260200190815260200160002054612c27565b600a60003373ffffffffffffffffffffffffffffffffffffffff1673ffffffffffffffffffffffffffffffffffffffff168152602001908152602001600020600090556123ab565b60028160ff16036123aa576000600b60003373ffffffffffffffffffffffffffffffffffffffff1673ffffffffffffffffffffffffffffffffffffffff168152602001908152602001600020541161231c57600080fd5b6123663033600b60003373ffffffffffffffffffffffffffffffffffffffff1673ffffffffffffffffffffffffffffffffffffffff16815260200190815260200160002054612c27565b600b60003373ffffffffffffffffffffffffffffffffffffffff1673ffffffffffffffffffffffffffffffffffffffff168152602001908152602001600020600090555b5b50565b3373ffffffffffffffffffffffffffffffffffffffff166006826040516123d5919061385f565b908152602001604051809103902060000160009054906101000a900473ffffffffffffffffffffffffffffffffffffffff1673ffffffffffffffffffffffffffffffffffffffff161461242757600080fd5b600681604051612437919061385f565b9081526020016040518091039020600080820160006101000a81549073ffffffffffffffffffffffffffffffffffffffff02191690556000820160146101000a81549060ff0219169055505050565b6000600560008473ffffffffffffffffffffffffffffffffffffffff1673ffffffffffffffffffffffffffffffffffffffff16815260200190815260200160002060008373ffffffffffffffffffffffffffffffffffffffff1673ffffffffffffffffffffffffffffffffffffffff16815260200190815260200160002054905092915050565b6000600c8260405161251f919061385f565b908152602001604051809103902060060160009054906101000a900460ff169050919050565b600080600a60008473ffffffffffffffffffffffffffffffffffffffff1673ffffffffffffffffffffffffffffffffffffffff16815260200190815260200160002054600b60008573ffffffffffffffffffffffffffffffffffffffff1673ffffffffffffffffffffffffffffffffffffffff1681526020019081526020016000205491509150915091565b600060018260ff1603612629576000600a60003373ffffffffffffffffffffffffffffffffffffffff1673ffffffffffffffffffffffffffffffffffffffff1681526020019081526020016000205414159050612684565b60028260ff160361267f576000600b60003373ffffffffffffffffffffffffffffffffffffffff1673ffffffffffffffffffffffffffffffffffffffff1681526020019081526020016000205414159050612684565b600090505b919050565b600080600b60003373ffffffffffffffffffffffffffffffffffffffff1673ffffffffffffffffffffffffffffffffffffffff16815260200190815260200160002054036126da5760009050612b5c565b6000600d60003373ffffffffffffffffffffffffffffffffffffffff1673ffffffffffffffffffffffffffffffffffffffff168152602001908152602001600020805480602002602001604051908101604052809291908181526020016000905b828210156127e757838290600052602060002001805461275a906137f2565b80601f0160208091040260200160405190810160405280929190818152602001828054612786906137f2565b80156127d35780601f106127a8576101008083540402835291602001916127d3565b820191906000526020600020905b8154815290600101906020018083116127b657829003601f168201915b50505050508152602001906001019061273b565b5050505090506000805b8251811015612b5557600c83828151811061280f5761280e613b19565b5b6020026020010151604051612824919061385f565b908152602001604051809103902060060160019054906101000a900460ff16612b4257600c83828151811061285c5761285b613b19565b5b6020026020010151604051612871919061385f565b90815260200160405180910390206002015442106129db576000600c8483815181106128a05761289f613b19565b5b60200260200101516040516128b5919061385f565b908152602001604051809103902060030154600c8584815181106128dc576128db613b19565b5b60200260200101516040516128f1919061385f565b908152602001604051809103902060040160009054906101000a900463ffffffff1663ffffffff1661292391906139a3565b905080600c85848151811061293b5761293a613b19565b5b6020026020010151604051612950919061385f565b908152602001604051809103902060040160009054906101000a900463ffffffff1663ffffffff16600c86858151811061298d5761298c613b19565b5b60200260200101516040516129a2919061385f565b9081526020016040518091039020600501546129be9190613a06565b6129c89190613a37565b836129d39190613a79565b925050612b41565b6000600c8483815181106129f2576129f1613b19565b5b6020026020010151604051612a07919061385f565b908152602001604051809103902060030154600960009054906101000a900463ffffffff1663ffffffff16600c868581518110612a4757612a46613b19565b5b6020026020010151604051612a5c919061385f565b90815260200160405180910390206001015442612a7991906139a3565b612a839190613a06565b612a8d91906139a3565b905080600c858481518110612aa557612aa4613b19565b5b6020026020010151604051612aba919061385f565b908152602001604051809103902060040160009054906101000a900463ffffffff1663ffffffff16600c868581518110612af757612af6613b19565b5b6020026020010151604051612b0c919061385f565b908152602001604051809103902060050154612b289190613a06565b612b329190613a37565b83612b3d9190613a79565b9250505b5b8080612b4d90613b48565b9150506127f1565b5080925050505b90565b6000600a60003373ffffffffffffffffffffffffffffffffffffffff1673ffffffffffffffffffffffffffffffffffffffff1681526020019081526020016000205411612bab57600080fd5b6001600682604051612bbd919061385f565b908152602001604051809103902060000160149054906101000a900460ff1660ff1614612be957600080fd5b6002600682604051612bfb919061385f565b908152602001604051809103902060000160146101000a81548160ff021916908360ff16021790555050565b600073ffffffffffffffffffffffffffffffffffffffff168373ffffffffffffffffffffffffffffffffffffffff1603612c96576040517f08c379a0000000000000000000000000000000000000000000000000000000008152600401612c8d9061406d565b60405180910390fd5b600073ffffffffffffffffffffffffffffffffffffffff168273ffffffffffffffffffffffffffffffffffffffff1603612d05576040517f08c379a0000000000000000000000000000000000000000000000000000000008152600401612cfc906140ff565b60405180910390fd5b6000600460008573ffffffffffffffffffffffffffffffffffffffff1673ffffffffffffffffffffffffffffffffffffffff16815260200190815260200160002054905081811015612d8c576040517f08c379a0000000000000000000000000000000000000000000000000000000008152600401612d8390614191565b60405180910390fd5b8181612d9891906139a3565b600460008673ffffffffffffffffffffffffffffffffffffffff1673ffffffffffffffffffffffffffffffffffffffff1681526020019081526020016000208190555081600460008573ffffffffffffffffffffffffffffffffffffffff1673ffffffffffffffffffffffffffffffffffffffff1681526020019081526020016000206000828254612e2a9190613a79565b9250508190555050505050565b60405180610140016040528060608152602001600081526020016000815260200160008152602001600063ffffffff16815260200160008152602001600015158152602001600015158152602001600073ffffffffffffffffffffffffffffffffffffffff168152602001600073ffffffffffffffffffffffffffffffffffffffff1681525090565b600081519050919050565b600082825260208201905092915050565b60005b83811015612efa578082015181840152602081019050612edf565b60008484015250505050565b6000601f19601f8301169050919050565b6000612f2282612ec0565b612f2c8185612ecb565b9350612f3c818560208601612edc565b612f4581612f06565b840191505092915050565b60006020820190508181036000830152612f6a8184612f17565b905092915050565b6000604051905090565b600080fd5b600080fd5b600073ffffffffffffffffffffffffffffffffffffffff82169050919050565b6000612fb182612f86565b9050919050565b612fc181612fa6565b8114612fcc57600080fd5b50565b600081359050612fde81612fb8565b92915050565b6000819050919050565b612ff781612fe4565b811461300257600080fd5b50565b60008135905061301481612fee565b92915050565b6000806040838503121561303157613030612f7c565b5b600061303f85828601612fcf565b925050602061305085828601613005565b9150509250929050565b60008115159050919050565b61306f8161305a565b82525050565b600060208201905061308a6000830184613066565b92915050565b61309981612fe4565b82525050565b60006020820190506130b46000830184613090565b92915050565b6000602082840312156130d0576130cf612f7c565b5b60006130de84828501612fcf565b91505092915050565b600081519050919050565b600082825260208201905092915050565b6000819050602082019050919050565b600082825260208201905092915050565b600061312f82612ec0565b6131398185613113565b9350613149818560208601612edc565b61315281612f06565b840191505092915050565b60006131698383613124565b905092915050565b6000602082019050919050565b6000613189826130e7565b61319381856130f2565b9350836020820285016131a585613103565b8060005b858110156131e157848403895281516131c2858261315d565b94506131cd83613171565b925060208a019950506001810190506131a9565b50829750879550505050505092915050565b6000602082019050818103600083015261320d818461317e565b905092915050565b600080fd5b600080fd5b7f4e487b7100000000000000000000000000000000000000000000000000000000600052604160045260246000fd5b61325782612f06565b810181811067ffffffffffffffff821117156132765761327561321f565b5b80604052505050565b6000613289612f72565b9050613295828261324e565b919050565b600067ffffffffffffffff8211156132b5576132b461321f565b5b6132be82612f06565b9050602081019050919050565b82818337600083830152505050565b60006132ed6132e88461329a565b61327f565b9050828152602081018484840111156133095761330861321a565b5b6133148482856132cb565b509392505050565b600082601f83011261333157613330613215565b5b81356133418482602086016132da565b91505092915050565b6000602082840312156133605761335f612f7c565b5b600082013567ffffffffffffffff81111561337e5761337d612f81565b5b61338a8482850161331c565b91505092915050565b600060ff82169050919050565b6133a981613393565b82525050565b60006020820190506133c460008301846133a0565b92915050565b600063ffffffff82169050919050565b6133e3816133ca565b81146133ee57600080fd5b50565b600081359050613400816133da565b92915050565b600080600080600060a0868803121561342257613421612f7c565b5b600086013567ffffffffffffffff8111156134405761343f612f81565b5b61344c8882890161331c565b955050602061345d888289016133f1565b945050604086013567ffffffffffffffff81111561347e5761347d612f81565b5b61348a8882890161331c565b935050606061349b88828901613005565b92505060806134ac88828901612fcf565b9150509295509295909350565b6134c281613393565b81146134cd57600080fd5b50565b6000813590506134df816134b9565b92915050565b6000806000606084860312156134fe576134fd612f7c565b5b600061350c868287016134d0565b935050602061351d86828701612fcf565b925050604061352e86828701613005565b9150509250925092565b60006020828403121561354e5761354d612f7c565b5b600061355c848285016134d0565b91505092915050565b600060408201905061357a6000830185613066565b6135876020830184613066565b9392505050565b61359781612fe4565b82525050565b6135a6816133ca565b82525050565b6135b58161305a565b82525050565b6135c481612fa6565b82525050565b60006101408301600083015184820360008601526135e88282613124565b91505060208301516135fd602086018261358e565b506040830151613610604086018261358e565b506060830151613623606086018261358e565b506080830151613636608086018261359d565b5060a083015161364960a086018261358e565b5060c083015161365c60c08601826135ac565b5060e083015161366f60e08601826135ac565b506101008301516136846101008601826135bb565b506101208301516136996101208601826135bb565b508091505092915050565b600060208201905081810360008301526136be81846135ca565b905092915050565b600080604083850312156136dd576136dc612f7c565b5b600083013567ffffffffffffffff8111156136fb576136fa612f81565b5b6137078582860161331c565b925050602061371885828601612fcf565b9150509250929050565b61372b81612fa6565b82525050565b60006040820190506137466000830185613722565b61375360208301846133a0565b9392505050565b6000806040838503121561377157613770612f7c565b5b600061377f85828601612fcf565b925050602061379085828601612fcf565b9150509250929050565b60006040820190506137af6000830185613090565b6137bc6020830184613090565b9392505050565b7f4e487b7100000000000000000000000000000000000000000000000000000000600052602260045260246000fd5b6000600282049050600182168061380a57607f821691505b60208210810361381d5761381c6137c3565b5b50919050565b600081905092915050565b600061383982612ec0565b6138438185613823565b9350613853818560208601612edc565b80840191505092915050565b600061386b828461382e565b915081905092915050565b7f546865206f7264657220686173206265656e2077697468647261776e00000000600082015250565b60006138ac601c83612ecb565b91506138b782613876565b602082019050919050565b600060208201905081810360008301526138db8161389f565b9050919050565b7f506c6561736520636f6e6669726d207468652077616c6c65742061646472657360008201527f732c2043616e206e6f7420776974686472617700000000000000000000000000602082015250565b600061393e603383612ecb565b9150613949826138e2565b604082019050919050565b6000602082019050818103600083015261396d81613931565b9050919050565b7f4e487b7100000000000000000000000000000000000000000000000000000000600052601160045260246000fd5b60006139ae82612fe4565b91506139b983612fe4565b92508282039050818111156139d1576139d0613974565b5b92915050565b7f4e487b7100000000000000000000000000000000000000000000000000000000600052601260045260246000fd5b6000613a1182612fe4565b9150613a1c83612fe4565b925082613a2c57613a2b6139d7565b5b828204905092915050565b6000613a4282612fe4565b9150613a4d83612fe4565b9250828202613a5b81612fe4565b91508282048414831517613a7257613a71613974565b5b5092915050565b6000613a8482612fe4565b9150613a8f83612fe4565b9250828201905080821115613aa757613aa6613974565b5b92915050565b7f4e6f74206465706f736974730000000000000000000000000000000000000000600082015250565b6000613ae3600c83612ecb565b9150613aee82613aad565b602082019050919050565b60006020820190508181036000830152613b1281613ad6565b9050919050565b7f4e487b7100000000000000000000000000000000000000000000000000000000600052603260045260246000fd5b6000613b5382612fe4565b91507fffffffffffffffffffffffffffffffffffffffffffffffffffffffffffffffff8203613b8557613b84613974565b5b600182019050919050565b7f416c726561647920706169640000000000000000000000000000000000000000600082015250565b6000613bc6600c83612ecb565b9150613bd182613b90565b602082019050919050565b60006020820190508181036000830152613bf581613bb9565b9050919050565b7f4e6f7420656e6f75676820435344000000000000000000000000000000000000600082015250565b6000613c32600e83612ecb565b9150613c3d82613bfc565b602082019050919050565b60006020820190508181036000830152613c6181613c25565b9050919050565b6000613c73826133ca565b9150613c7e836133ca565b9250828202613c8c816133ca565b9150808214613c9e57613c9d613974565b5b5092915050565b60008190508160005260206000209050919050565b60006020601f8301049050919050565b600082821b905092915050565b600060088302613d077fffffffffffffffffffffffffffffffffffffffffffffffffffffffffffffffff82613cca565b613d118683613cca565b95508019841693508086168417925050509392505050565b6000819050919050565b6000613d4e613d49613d4484612fe4565b613d29565b612fe4565b9050919050565b6000819050919050565b613d6883613d33565b613d7c613d7482613d55565b848454613cd7565b825550505050565b600090565b613d91613d84565b613d9c818484613d5f565b505050565b5b81811015613dc057613db5600082613d89565b600181019050613da2565b5050565b601f821115613e0557613dd681613ca5565b613ddf84613cba565b81016020851015613dee578190505b613e02613dfa85613cba565b830182613da1565b50505b505050565b600082821c905092915050565b6000613e2860001984600802613e0a565b1980831691505092915050565b6000613e418383613e17565b9150826002028217905092915050565b613e5a82612ec0565b67ffffffffffffffff811115613e7357613e7261321f565b5b613e7d82546137f2565b613e88828285613dc4565b600060209050601f831160018114613ebb5760008415613ea9578287015190505b613eb38582613e35565b865550613f1b565b601f198416613ec986613ca5565b60005b82811015613ef157848901518255600182019150602085019450602081019050613ecc565b86831015613f0e5784890151613f0a601f891682613e17565b8355505b6001600288020188555050505b505050505050565b7f416c7265616479207374616b6564000000000000000000000000000000000000600082015250565b6000613f59600e83612ecb565b9150613f6482613f23565b602082019050919050565b60006020820190508181036000830152613f8881613f4c565b9050919050565b7f4e6f7420656e6f75676820746f6b656e73000000000000000000000000000000600082015250565b6000613fc5601183612ecb565b9150613fd082613f8f565b602082019050919050565b60006020820190508181036000830152613ff481613fb8565b9050919050565b7f45524332303a207472616e736665722066726f6d20746865207a65726f20616460008201527f6472657373000000000000000000000000000000000000000000000000000000602082015250565b6000614057602583612ecb565b915061406282613ffb565b604082019050919050565b600060208201905081810360008301526140868161404a565b9050919050565b7f45524332303a207472616e7366657220746f20746865207a65726f206164647260008201527f6573730000000000000000000000000000000000000000000000000000000000602082015250565b60006140e9602383612ecb565b91506140f48261408d565b604082019050919050565b60006020820190508181036000830152614118816140dc565b9050919050565b7f45524332303a207472616e7366657220616d6f756e742065786365656473206260008201527f616c616e63650000000000000000000000000000000000000000000000000000602082015250565b600061417b602683612ecb565b91506141868261411f565b604082019050919050565b600060208201905081810360008301526141aa8161416e565b905091905056fea2646970667358221220c5174fa97aa9a5c41c4f2a7557bf03d35d60badb3637c8e5da1ba3f384a8aa1b64736f6c63430008110033","opcodes":"PUSH1 0x80 PUSH1 0x40 MSTORE PUSH1 0x40 MLOAD DUP1 PUSH1 0x40 ADD PUSH1 0x40 MSTORE DUP1 PUSH1 0xD DUP2 MSTORE PUSH1 0x20 ADD PUSH32 0x436C6F7564536C69742044616F00000000000000000000000000000000000000 DUP2 MSTORE POP PUSH1 0x0 SWAP1 DUP2 PUSH3 0x4A SWAP2 SWAP1 PUSH3 0x4EE JUMP JUMPDEST POP PUSH1 0x40 MLOAD DUP1 PUSH1 0x40 ADD PUSH1 0x40 MSTORE DUP1 PUSH1 0x3 DUP2 MSTORE PUSH1 0x20 ADD PUSH32 0x4353440000000000000000000000000000000000000000000000000000000000 DUP2 MSTORE POP PUSH1 0x1 SWAP1 DUP2 PUSH3 0x91 SWAP2 SWAP1 PUSH3 0x4EE JUMP JUMPDEST POP PUSH1 0x12 PUSH1 0x3 PUSH1 0x0 PUSH2 0x100 EXP DUP2 SLOAD DUP2 PUSH1 0xFF MUL NOT AND SWAP1 DUP4 PUSH1 0xFF AND MUL OR SWAP1 SSTORE POP CALLVALUE DUP1 ISZERO PUSH3 0xBB JUMPI PUSH1 0x0 DUP1 REVERT JUMPDEST POP PUSH3 0xFC CALLER PUSH1 0x3 PUSH1 0x0 SWAP1 SLOAD SWAP1 PUSH2 0x100 EXP SWAP1 DIV PUSH1 0xFF AND PUSH1 0xA PUSH3 0xDF SWAP2 SWAP1 PUSH3 0x765 JUMP JUMPDEST PUSH4 0x5F5E100 PUSH3 0xF0 SWAP2 SWAP1 PUSH3 0x7B6 JUMP JUMPDEST PUSH3 0x18B PUSH1 0x20 SHL PUSH1 0x20 SHR JUMP JUMPDEST PUSH1 0x3 PUSH1 0x0 SWAP1 SLOAD SWAP1 PUSH2 0x100 EXP SWAP1 DIV PUSH1 0xFF AND PUSH1 0xA PUSH3 0x11A SWAP2 SWAP1 PUSH3 0x765 JUMP JUMPDEST PUSH2 0x1388 PUSH3 0x129 SWAP2 SWAP1 PUSH3 0x7B6 JUMP JUMPDEST PUSH1 0x7 DUP2 SWAP1 SSTORE POP PUSH1 0x3 PUSH1 0x0 SWAP1 SLOAD SWAP1 PUSH2 0x100 EXP SWAP1 DIV PUSH1 0xFF AND PUSH1 0xA PUSH3 0x14D SWAP2 SWAP1 PUSH3 0x765 JUMP JUMPDEST PUSH2 0x3E8 PUSH3 0x15C SWAP2 SWAP1 PUSH3 0x7B6 JUMP JUMPDEST PUSH1 0x8 DUP2 SWAP1 SSTORE POP PUSH2 0xE10 PUSH1 0x9 PUSH1 0x0 PUSH2 0x100 EXP DUP2 SLOAD DUP2 PUSH4 0xFFFFFFFF MUL NOT AND SWAP1 DUP4 PUSH4 0xFFFFFFFF AND MUL OR SWAP1 SSTORE POP PUSH3 0x8BF JUMP JUMPDEST PUSH1 0x0 PUSH20 0xFFFFFFFFFFFFFFFFFFFFFFFFFFFFFFFFFFFFFFFF AND DUP3 PUSH20 0xFFFFFFFFFFFFFFFFFFFFFFFFFFFFFFFFFFFFFFFF AND SUB PUSH3 0x1FD JUMPI PUSH1 0x40 MLOAD PUSH32 0x8C379A000000000000000000000000000000000000000000000000000000000 DUP2 MSTORE PUSH1 0x4 ADD PUSH3 0x1F4 SWAP1 PUSH3 0x862 JUMP JUMPDEST PUSH1 0x40 MLOAD DUP1 SWAP2 SUB SWAP1 REVERT JUMPDEST DUP1 PUSH1 0x2 PUSH1 0x0 DUP3 DUP3 SLOAD PUSH3 0x211 SWAP2 SWAP1 PUSH3 0x884 JUMP JUMPDEST SWAP3 POP POP DUP2 SWAP1 SSTORE POP DUP1 PUSH1 0x4 PUSH1 0x0 DUP5 PUSH20 0xFFFFFFFFFFFFFFFFFFFFFFFFFFFFFFFFFFFFFFFF AND PUSH20 0xFFFFFFFFFFFFFFFFFFFFFFFFFFFFFFFFFFFFFFFF AND DUP2 MSTORE PUSH1 0x20 ADD SWAP1 DUP2 MSTORE PUSH1 0x20 ADD PUSH1 0x0 KECCAK256 PUSH1 0x0 DUP3 DUP3 SLOAD PUSH3 0x269 SWAP2 SWAP1 PUSH3 0x884 JUMP JUMPDEST SWAP3 POP POP DUP2 SWAP1 SSTORE POP POP POP JUMP JUMPDEST PUSH1 0x0 DUP2 MLOAD SWAP1 POP SWAP2 SWAP1 POP JUMP JUMPDEST PUSH32 0x4E487B7100000000000000000000000000000000000000000000000000000000 PUSH1 0x0 MSTORE PUSH1 0x41 PUSH1 0x4 MSTORE PUSH1 0x24 PUSH1 0x0 REVERT JUMPDEST PUSH32 0x4E487B7100000000000000000000000000000000000000000000000000000000 PUSH1 0x0 MSTORE PUSH1 0x22 PUSH1 0x4 MSTORE PUSH1 0x24 PUSH1 0x0 REVERT JUMPDEST PUSH1 0x0 PUSH1 0x2 DUP3 DIV SWAP1 POP PUSH1 0x1 DUP3 AND DUP1 PUSH3 0x2F6 JUMPI PUSH1 0x7F DUP3 AND SWAP2 POP JUMPDEST PUSH1 0x20 DUP3 LT DUP2 SUB PUSH3 0x30C JUMPI PUSH3 0x30B PUSH3 0x2AE JUMP JUMPDEST JUMPDEST POP SWAP2 SWAP1 POP JUMP JUMPDEST PUSH1 0x0 DUP2 SWAP1 POP DUP2 PUSH1 0x0 MSTORE PUSH1 0x20 PUSH1 0x0 KECCAK256 SWAP1 POP SWAP2 SWAP1 POP JUMP JUMPDEST PUSH1 0x0 PUSH1 0x20 PUSH1 0x1F DUP4 ADD DIV SWAP1 POP SWAP2 SWAP1 POP JUMP JUMPDEST PUSH1 0x0 DUP3 DUP3 SHL SWAP1 POP SWAP3 SWAP2 POP POP JUMP JUMPDEST PUSH1 0x0 PUSH1 0x8 DUP4 MUL PUSH3 0x376 PUSH32 0xFFFFFFFFFFFFFFFFFFFFFFFFFFFFFFFFFFFFFFFFFFFFFFFFFFFFFFFFFFFFFFFF DUP3 PUSH3 0x337 JUMP JUMPDEST PUSH3 0x382 DUP7 DUP4 PUSH3 0x337 JUMP JUMPDEST SWAP6 POP DUP1 NOT DUP5 AND SWAP4 POP DUP1 DUP7 AND DUP5 OR SWAP3 POP POP POP SWAP4 SWAP3 POP POP POP JUMP JUMPDEST PUSH1 0x0 DUP2 SWAP1 POP SWAP2 SWAP1 POP JUMP JUMPDEST PUSH1 0x0 DUP2 SWAP1 POP SWAP2 SWAP1 POP JUMP JUMPDEST PUSH1 0x0 PUSH3 0x3CF PUSH3 0x3C9 PUSH3 0x3C3 DUP5 PUSH3 0x39A JUMP JUMPDEST PUSH3 0x3A4 JUMP JUMPDEST PUSH3 0x39A JUMP JUMPDEST SWAP1 POP SWAP2 SWAP1 POP JUMP JUMPDEST PUSH1 0x0 DUP2 SWAP1 POP SWAP2 SWAP1 POP JUMP JUMPDEST PUSH3 0x3EB DUP4 PUSH3 0x3AE JUMP JUMPDEST PUSH3 0x403 PUSH3 0x3FA DUP3 PUSH3 0x3D6 JUMP JUMPDEST DUP5 DUP5 SLOAD PUSH3 0x344 JUMP JUMPDEST DUP3 SSTORE POP POP POP POP JUMP JUMPDEST PUSH1 0x0 SWAP1 JUMP JUMPDEST PUSH3 0x41A PUSH3 0x40B JUMP JUMPDEST PUSH3 0x427 DUP2 DUP5 DUP5 PUSH3 0x3E0 JUMP JUMPDEST POP POP POP JUMP JUMPDEST JUMPDEST DUP2 DUP2 LT ISZERO PUSH3 0x44F JUMPI PUSH3 0x443 PUSH1 0x0 DUP3 PUSH3 0x410 JUMP JUMPDEST PUSH1 0x1 DUP2 ADD SWAP1 POP PUSH3 0x42D JUMP JUMPDEST POP POP JUMP JUMPDEST PUSH1 0x1F DUP3 GT ISZERO PUSH3 0x49E JUMPI PUSH3 0x468 DUP2 PUSH3 0x312 JUMP JUMPDEST PUSH3 0x473 DUP5 PUSH3 0x327 JUMP JUMPDEST DUP2 ADD PUSH1 0x20 DUP6 LT ISZERO PUSH3 0x483 JUMPI DUP2 SWAP1 POP JUMPDEST PUSH3 0x49B PUSH3 0x492 DUP6 PUSH3 0x327 JUMP JUMPDEST DUP4 ADD DUP3 PUSH3 0x42C JUMP JUMPDEST POP POP JUMPDEST POP POP POP JUMP JUMPDEST PUSH1 0x0 DUP3 DUP3 SHR SWAP1 POP SWAP3 SWAP2 POP POP JUMP JUMPDEST PUSH1 0x0 PUSH3 0x4C3 PUSH1 0x0 NOT DUP5 PUSH1 0x8 MUL PUSH3 0x4A3 JUMP JUMPDEST NOT DUP1 DUP4 AND SWAP2 POP POP SWAP3 SWAP2 POP POP JUMP JUMPDEST PUSH1 0x0 PUSH3 0x4DE DUP4 DUP4 PUSH3 0x4B0 JUMP JUMPDEST SWAP2 POP DUP3 PUSH1 0x2 MUL DUP3 OR SWAP1 POP SWAP3 SWAP2 POP POP JUMP JUMPDEST PUSH3 0x4F9 DUP3 PUSH3 0x274 JUMP JUMPDEST PUSH8 0xFFFFFFFFFFFFFFFF DUP2 GT ISZERO PUSH3 0x515 JUMPI PUSH3 0x514 PUSH3 0x27F JUMP JUMPDEST JUMPDEST PUSH3 0x521 DUP3 SLOAD PUSH3 0x2DD JUMP JUMPDEST PUSH3 0x52E DUP3 DUP3 DUP6 PUSH3 0x453 JUMP JUMPDEST PUSH1 0x0 PUSH1 0x20 SWAP1 POP PUSH1 0x1F DUP4 GT PUSH1 0x1 DUP2 EQ PUSH3 0x566 JUMPI PUSH1 0x0 DUP5 ISZERO PUSH3 0x551 JUMPI DUP3 DUP8 ADD MLOAD SWAP1 POP JUMPDEST PUSH3 0x55D DUP6 DUP3 PUSH3 0x4D0 JUMP JUMPDEST DUP7 SSTORE POP PUSH3 0x5CD JUMP JUMPDEST PUSH1 0x1F NOT DUP5 AND PUSH3 0x576 DUP7 PUSH3 0x312 JUMP JUMPDEST PUSH1 0x0 JUMPDEST DUP3 DUP2 LT ISZERO PUSH3 0x5A0 JUMPI DUP5 DUP10 ADD MLOAD DUP3 SSTORE PUSH1 0x1 DUP3 ADD SWAP2 POP PUSH1 0x20 DUP6 ADD SWAP5 POP PUSH1 0x20 DUP2 ADD SWAP1 POP PUSH3 0x579 JUMP JUMPDEST DUP7 DUP4 LT ISZERO PUSH3 0x5C0 JUMPI DUP5 DUP10 ADD MLOAD PUSH3 0x5BC PUSH1 0x1F DUP10 AND DUP3 PUSH3 0x4B0 JUMP JUMPDEST DUP4 SSTORE POP JUMPDEST PUSH1 0x1 PUSH1 0x2 DUP9 MUL ADD DUP9 SSTORE POP POP POP JUMPDEST POP POP POP POP POP POP JUMP JUMPDEST PUSH32 0x4E487B7100000000000000000000000000000000000000000000000000000000 PUSH1 0x0 MSTORE PUSH1 0x11 PUSH1 0x4 MSTORE PUSH1 0x24 PUSH1 0x0 REVERT JUMPDEST PUSH1 0x0 DUP2 PUSH1 0x1 SHR SWAP1 POP SWAP2 SWAP1 POP JUMP JUMPDEST PUSH1 0x0 DUP1 DUP3 SWAP2 POP DUP4 SWAP1 POP JUMPDEST PUSH1 0x1 DUP6 GT ISZERO PUSH3 0x663 JUMPI DUP1 DUP7 DIV DUP2 GT ISZERO PUSH3 0x63B JUMPI PUSH3 0x63A PUSH3 0x5D5 JUMP JUMPDEST JUMPDEST PUSH1 0x1 DUP6 AND ISZERO PUSH3 0x64B JUMPI DUP1 DUP3 MUL SWAP2 POP JUMPDEST DUP1 DUP2 MUL SWAP1 POP PUSH3 0x65B DUP6 PUSH3 0x604 JUMP JUMPDEST SWAP5 POP PUSH3 0x61B JUMP JUMPDEST SWAP5 POP SWAP5 SWAP3 POP POP POP JUMP JUMPDEST PUSH1 0x0 DUP3 PUSH3 0x67E JUMPI PUSH1 0x1 SWAP1 POP PUSH3 0x751 JUMP JUMPDEST DUP2 PUSH3 0x68E JUMPI PUSH1 0x0 SWAP1 POP PUSH3 0x751 JUMP JUMPDEST DUP2 PUSH1 0x1 DUP2 EQ PUSH3 0x6A7 JUMPI PUSH1 0x2 DUP2 EQ PUSH3 0x6B2 JUMPI PUSH3 0x6E8 JUMP JUMPDEST PUSH1 0x1 SWAP2 POP POP PUSH3 0x751 JUMP JUMPDEST PUSH1 0xFF DUP5 GT ISZERO PUSH3 0x6C7 JUMPI PUSH3 0x6C6 PUSH3 0x5D5 JUMP JUMPDEST JUMPDEST DUP4 PUSH1 0x2 EXP SWAP2 POP DUP5 DUP3 GT ISZERO PUSH3 0x6E1 JUMPI PUSH3 0x6E0 PUSH3 0x5D5 JUMP JUMPDEST JUMPDEST POP PUSH3 0x751 JUMP JUMPDEST POP PUSH1 0x20 DUP4 LT PUSH2 0x133 DUP4 LT AND PUSH1 0x4E DUP5 LT PUSH1 0xB DUP5 LT AND OR ISZERO PUSH3 0x722 JUMPI DUP3 DUP3 EXP SWAP1 POP DUP4 DUP2 GT ISZERO PUSH3 0x71C JUMPI PUSH3 0x71B PUSH3 0x5D5 JUMP JUMPDEST JUMPDEST PUSH3 0x751 JUMP JUMPDEST PUSH3 0x731 DUP5 DUP5 DUP5 PUSH1 0x1 PUSH3 0x611 JUMP JUMPDEST SWAP3 POP SWAP1 POP DUP2 DUP5 DIV DUP2 GT ISZERO PUSH3 0x74B JUMPI PUSH3 0x74A PUSH3 0x5D5 JUMP JUMPDEST JUMPDEST DUP2 DUP2 MUL SWAP1 POP JUMPDEST SWAP4 SWAP3 POP POP POP JUMP JUMPDEST PUSH1 0x0 PUSH1 0xFF DUP3 AND SWAP1 POP SWAP2 SWAP1 POP JUMP JUMPDEST PUSH1 0x0 PUSH3 0x772 DUP3 PUSH3 0x39A JUMP JUMPDEST SWAP2 POP PUSH3 0x77F DUP4 PUSH3 0x758 JUMP JUMPDEST SWAP3 POP PUSH3 0x7AE PUSH32 0xFFFFFFFFFFFFFFFFFFFFFFFFFFFFFFFFFFFFFFFFFFFFFFFFFFFFFFFFFFFFFFFF DUP5 DUP5 PUSH3 0x66C JUMP JUMPDEST SWAP1 POP SWAP3 SWAP2 POP POP JUMP JUMPDEST PUSH1 0x0 PUSH3 0x7C3 DUP3 PUSH3 0x39A JUMP JUMPDEST SWAP2 POP PUSH3 0x7D0 DUP4 PUSH3 0x39A JUMP JUMPDEST SWAP3 POP DUP3 DUP3 MUL PUSH3 0x7E0 DUP2 PUSH3 0x39A JUMP JUMPDEST SWAP2 POP DUP3 DUP3 DIV DUP5 EQ DUP4 ISZERO OR PUSH3 0x7FA JUMPI PUSH3 0x7F9 PUSH3 0x5D5 JUMP JUMPDEST JUMPDEST POP SWAP3 SWAP2 POP POP JUMP JUMPDEST PUSH1 0x0 DUP3 DUP3 MSTORE PUSH1 0x20 DUP3 ADD SWAP1 POP SWAP3 SWAP2 POP POP JUMP JUMPDEST PUSH32 0x45524332303A206D696E7420746F20746865207A65726F206164647265737300 PUSH1 0x0 DUP3 ADD MSTORE POP JUMP JUMPDEST PUSH1 0x0 PUSH3 0x84A PUSH1 0x1F DUP4 PUSH3 0x801 JUMP JUMPDEST SWAP2 POP PUSH3 0x857 DUP3 PUSH3 0x812 JUMP JUMPDEST PUSH1 0x20 DUP3 ADD SWAP1 POP SWAP2 SWAP1 POP JUMP JUMPDEST PUSH1 0x0 PUSH1 0x20 DUP3 ADD SWAP1 POP DUP2 DUP2 SUB PUSH1 0x0 DUP4 ADD MSTORE PUSH3 0x87D DUP2 PUSH3 0x83B JUMP JUMPDEST SWAP1 POP SWAP2 SWAP1 POP JUMP JUMPDEST PUSH1 0x0 PUSH3 0x891 DUP3 PUSH3 0x39A JUMP JUMPDEST SWAP2 POP PUSH3 0x89E DUP4 PUSH3 0x39A JUMP JUMPDEST SWAP3 POP DUP3 DUP3 ADD SWAP1 POP DUP1 DUP3 GT ISZERO PUSH3 0x8B9 JUMPI PUSH3 0x8B8 PUSH3 0x5D5 JUMP JUMPDEST JUMPDEST SWAP3 SWAP2 POP POP JUMP JUMPDEST PUSH2 0x41E7 DUP1 PUSH3 0x8CF PUSH1 0x0 CODECOPY PUSH1 0x0 RETURN INVALID PUSH1 0x80 PUSH1 0x40 MSTORE CALLVALUE DUP1 ISZERO PUSH2 0x10 JUMPI PUSH1 0x0 DUP1 REVERT JUMPDEST POP PUSH1 0x4 CALLDATASIZE LT PUSH2 0x1C4 JUMPI PUSH1 0x0 CALLDATALOAD PUSH1 0xE0 SHR DUP1 PUSH4 0x8EC012B9 GT PUSH2 0xF9 JUMPI DUP1 PUSH4 0xD19E4856 GT PUSH2 0x97 JUMPI DUP1 PUSH4 0xE1254FBA GT PUSH2 0x71 JUMPI DUP1 PUSH4 0xE1254FBA EQ PUSH2 0x519 JUMPI DUP1 PUSH4 0xF276B8AA EQ PUSH2 0x54A JUMPI DUP1 PUSH4 0xF3FBFC7B EQ PUSH2 0x57A JUMPI DUP1 PUSH4 0xFFC2C9B7 EQ PUSH2 0x598 JUMPI PUSH2 0x1C4 JUMP JUMPDEST DUP1 PUSH4 0xD19E4856 EQ PUSH2 0x49D JUMPI DUP1 PUSH4 0xDD62ED3E EQ PUSH2 0x4B9 JUMPI DUP1 PUSH4 0xDD6887ED EQ PUSH2 0x4E9 JUMPI PUSH2 0x1C4 JUMP JUMPDEST DUP1 PUSH4 0xA4E2DF66 GT PUSH2 0xD3 JUMPI DUP1 PUSH4 0xA4E2DF66 EQ PUSH2 0x402 JUMPI DUP1 PUSH4 0xA9059CBB EQ PUSH2 0x433 JUMPI DUP1 PUSH4 0xC5BC91E8 EQ PUSH2 0x463 JUMPI DUP1 PUSH4 0xC6AB5D90 EQ PUSH2 0x481 JUMPI PUSH2 0x1C4 JUMP JUMPDEST DUP1 PUSH4 0x8EC012B9 EQ PUSH2 0x3AA JUMPI DUP1 PUSH4 0x95D89B41 EQ PUSH2 0x3C6 JUMPI DUP1 PUSH4 0xA23C7C14 EQ PUSH2 0x3E4 JUMPI PUSH2 0x1C4 JUMP JUMPDEST DUP1 PUSH4 0x5C9ABE11 GT PUSH2 0x166 JUMPI DUP1 PUSH4 0x70A08231 GT PUSH2 0x140 JUMPI DUP1 PUSH4 0x70A08231 EQ PUSH2 0x2FD JUMPI DUP1 PUSH4 0x7C9B7FDD EQ PUSH2 0x32D JUMPI DUP1 PUSH4 0x8291A021 EQ PUSH2 0x35E JUMPI DUP1 PUSH4 0x87A858D2 EQ PUSH2 0x38E JUMPI PUSH2 0x1C4 JUMP JUMPDEST DUP1 PUSH4 0x5C9ABE11 EQ PUSH2 0x2A9 JUMPI DUP1 PUSH4 0x5E3AE06E EQ PUSH2 0x2C5 JUMPI DUP1 PUSH4 0x604F2177 EQ PUSH2 0x2E1 JUMPI PUSH2 0x1C4 JUMP JUMPDEST DUP1 PUSH4 0x183DD1CD GT PUSH2 0x1A2 JUMPI DUP1 PUSH4 0x183DD1CD EQ PUSH2 0x235 JUMPI DUP1 PUSH4 0x25CFEDB5 EQ PUSH2 0x265 JUMPI DUP1 PUSH4 0x27A0B34A EQ PUSH2 0x281 JUMPI DUP1 PUSH4 0x313CE567 EQ PUSH2 0x28B JUMPI PUSH2 0x1C4 JUMP JUMPDEST DUP1 PUSH4 0x6FDDE03 EQ PUSH2 0x1C9 JUMPI DUP1 PUSH4 0x95EA7B3 EQ PUSH2 0x1E7 JUMPI DUP1 PUSH4 0x18160DDD EQ PUSH2 0x217 JUMPI JUMPDEST PUSH1 0x0 DUP1 REVERT JUMPDEST PUSH2 0x1D1 PUSH2 0x5B4 JUMP JUMPDEST PUSH1 0x40 MLOAD PUSH2 0x1DE SWAP2 SWAP1 PUSH2 0x2F50 JUMP JUMPDEST PUSH1 0x40 MLOAD DUP1 SWAP2 SUB SWAP1 RETURN JUMPDEST PUSH2 0x201 PUSH1 0x4 DUP1 CALLDATASIZE SUB DUP2 ADD SWAP1 PUSH2 0x1FC SWAP2 SWAP1 PUSH2 0x301A JUMP JUMPDEST PUSH2 0x642 JUMP JUMPDEST PUSH1 0x40 MLOAD PUSH2 0x20E SWAP2 SWAP1 PUSH2 0x3075 JUMP JUMPDEST PUSH1 0x40 MLOAD DUP1 SWAP2 SUB SWAP1 RETURN JUMPDEST PUSH2 0x21F PUSH2 0x6CF JUMP JUMPDEST PUSH1 0x40 MLOAD PUSH2 0x22C SWAP2 SWAP1 PUSH2 0x309F JUMP JUMPDEST PUSH1 0x40 MLOAD DUP1 SWAP2 SUB SWAP1 RETURN JUMPDEST PUSH2 0x24F PUSH1 0x4 DUP1 CALLDATASIZE SUB DUP2 ADD SWAP1 PUSH2 0x24A SWAP2 SWAP1 PUSH2 0x30BA JUMP JUMPDEST PUSH2 0x6D5 JUMP JUMPDEST PUSH1 0x40 MLOAD PUSH2 0x25C SWAP2 SWAP1 PUSH2 0x31F3 JUMP JUMPDEST PUSH1 0x40 MLOAD DUP1 SWAP2 SUB SWAP1 RETURN JUMPDEST PUSH2 0x27F PUSH1 0x4 DUP1 CALLDATASIZE SUB DUP2 ADD SWAP1 PUSH2 0x27A SWAP2 SWAP1 PUSH2 0x334A JUMP JUMPDEST PUSH2 0x7ED JUMP JUMPDEST STOP JUMPDEST PUSH2 0x289 PUSH2 0xB96 JUMP JUMPDEST STOP JUMPDEST PUSH2 0x293 PUSH2 0x1149 JUMP JUMPDEST PUSH1 0x40 MLOAD PUSH2 0x2A0 SWAP2 SWAP1 PUSH2 0x33AF JUMP JUMPDEST PUSH1 0x40 MLOAD DUP1 SWAP2 SUB SWAP1 RETURN JUMPDEST PUSH2 0x2C3 PUSH1 0x4 DUP1 CALLDATASIZE SUB DUP2 ADD SWAP1 PUSH2 0x2BE SWAP2 SWAP1 PUSH2 0x3406 JUMP JUMPDEST PUSH2 0x115C JUMP JUMPDEST STOP JUMPDEST PUSH2 0x2DF PUSH1 0x4 DUP1 CALLDATASIZE SUB DUP2 ADD SWAP1 PUSH2 0x2DA SWAP2 SWAP1 PUSH2 0x34E5 JUMP JUMPDEST PUSH2 0x149D JUMP JUMPDEST STOP JUMPDEST PUSH2 0x2FB PUSH1 0x4 DUP1 CALLDATASIZE SUB DUP2 ADD SWAP1 PUSH2 0x2F6 SWAP2 SWAP1 PUSH2 0x3538 JUMP JUMPDEST PUSH2 0x1617 JUMP JUMPDEST STOP JUMPDEST PUSH2 0x317 PUSH1 0x4 DUP1 CALLDATASIZE SUB DUP2 ADD SWAP1 PUSH2 0x312 SWAP2 SWAP1 PUSH2 0x30BA JUMP JUMPDEST PUSH2 0x189F JUMP JUMPDEST PUSH1 0x40 MLOAD PUSH2 0x324 SWAP2 SWAP1 PUSH2 0x309F JUMP JUMPDEST PUSH1 0x40 MLOAD DUP1 SWAP2 SUB SWAP1 RETURN JUMPDEST PUSH2 0x347 PUSH1 0x4 DUP1 CALLDATASIZE SUB DUP2 ADD SWAP1 PUSH2 0x342 SWAP2 SWAP1 PUSH2 0x334A JUMP JUMPDEST PUSH2 0x18E8 JUMP JUMPDEST PUSH1 0x40 MLOAD PUSH2 0x355 SWAP3 SWAP2 SWAP1 PUSH2 0x3565 JUMP JUMPDEST PUSH1 0x40 MLOAD DUP1 SWAP2 SUB SWAP1 RETURN JUMPDEST PUSH2 0x378 PUSH1 0x4 DUP1 CALLDATASIZE SUB DUP2 ADD SWAP1 PUSH2 0x373 SWAP2 SWAP1 PUSH2 0x334A JUMP JUMPDEST PUSH2 0x1A42 JUMP JUMPDEST PUSH1 0x40 MLOAD PUSH2 0x385 SWAP2 SWAP1 PUSH2 0x36A4 JUMP JUMPDEST PUSH1 0x40 MLOAD DUP1 SWAP2 SUB SWAP1 RETURN JUMPDEST PUSH2 0x3A8 PUSH1 0x4 DUP1 CALLDATASIZE SUB DUP2 ADD SWAP1 PUSH2 0x3A3 SWAP2 SWAP1 PUSH2 0x36C6 JUMP JUMPDEST PUSH2 0x1C3D JUMP JUMPDEST STOP JUMPDEST PUSH2 0x3C4 PUSH1 0x4 DUP1 CALLDATASIZE SUB DUP2 ADD SWAP1 PUSH2 0x3BF SWAP2 SWAP1 PUSH2 0x334A JUMP JUMPDEST PUSH2 0x1DF2 JUMP JUMPDEST STOP JUMPDEST PUSH2 0x3CE PUSH2 0x202C JUMP JUMPDEST PUSH1 0x40 MLOAD PUSH2 0x3DB SWAP2 SWAP1 PUSH2 0x2F50 JUMP JUMPDEST PUSH1 0x40 MLOAD DUP1 SWAP2 SUB SWAP1 RETURN JUMPDEST PUSH2 0x3EC PUSH2 0x20BA JUMP JUMPDEST PUSH1 0x40 MLOAD PUSH2 0x3F9 SWAP2 SWAP1 PUSH2 0x309F JUMP JUMPDEST PUSH1 0x40 MLOAD DUP1 SWAP2 SUB SWAP1 RETURN JUMPDEST PUSH2 0x41C PUSH1 0x4 DUP1 CALLDATASIZE SUB DUP2 ADD SWAP1 PUSH2 0x417 SWAP2 SWAP1 PUSH2 0x334A JUMP JUMPDEST PUSH2 0x20C0 JUMP JUMPDEST PUSH1 0x40 MLOAD PUSH2 0x42A SWAP3 SWAP2 SWAP1 PUSH2 0x3731 JUMP JUMPDEST PUSH1 0x40 MLOAD DUP1 SWAP2 SUB SWAP1 RETURN JUMPDEST PUSH2 0x44D PUSH1 0x4 DUP1 CALLDATASIZE SUB DUP2 ADD SWAP1 PUSH2 0x448 SWAP2 SWAP1 PUSH2 0x301A JUMP JUMPDEST PUSH2 0x213D JUMP JUMPDEST PUSH1 0x40 MLOAD PUSH2 0x45A SWAP2 SWAP1 PUSH2 0x3075 JUMP JUMPDEST PUSH1 0x40 MLOAD DUP1 SWAP2 SUB SWAP1 RETURN JUMPDEST PUSH2 0x46B PUSH2 0x21D6 JUMP JUMPDEST PUSH1 0x40 MLOAD PUSH2 0x478 SWAP2 SWAP1 PUSH2 0x309F JUMP JUMPDEST PUSH1 0x40 MLOAD DUP1 SWAP2 SUB SWAP1 RETURN JUMPDEST PUSH2 0x49B PUSH1 0x4 DUP1 CALLDATASIZE SUB DUP2 ADD SWAP1 PUSH2 0x496 SWAP2 SWAP1 PUSH2 0x3538 JUMP JUMPDEST PUSH2 0x21DC JUMP JUMPDEST STOP JUMPDEST PUSH2 0x4B7 PUSH1 0x4 DUP1 CALLDATASIZE SUB DUP2 ADD SWAP1 PUSH2 0x4B2 SWAP2 SWAP1 PUSH2 0x334A JUMP JUMPDEST PUSH2 0x23AE JUMP JUMPDEST STOP JUMPDEST PUSH2 0x4D3 PUSH1 0x4 DUP1 CALLDATASIZE SUB DUP2 ADD SWAP1 PUSH2 0x4CE SWAP2 SWAP1 PUSH2 0x375A JUMP JUMPDEST PUSH2 0x2486 JUMP JUMPDEST PUSH1 0x40 MLOAD PUSH2 0x4E0 SWAP2 SWAP1 PUSH2 0x309F JUMP JUMPDEST PUSH1 0x40 MLOAD DUP1 SWAP2 SUB SWAP1 RETURN JUMPDEST PUSH2 0x503 PUSH1 0x4 DUP1 CALLDATASIZE SUB DUP2 ADD SWAP1 PUSH2 0x4FE SWAP2 SWAP1 PUSH2 0x334A JUMP JUMPDEST PUSH2 0x250D JUMP JUMPDEST PUSH1 0x40 MLOAD PUSH2 0x510 SWAP2 SWAP1 PUSH2 0x3075 JUMP JUMPDEST PUSH1 0x40 MLOAD DUP1 SWAP2 SUB SWAP1 RETURN JUMPDEST PUSH2 0x533 PUSH1 0x4 DUP1 CALLDATASIZE SUB DUP2 ADD SWAP1 PUSH2 0x52E SWAP2 SWAP1 PUSH2 0x30BA JUMP JUMPDEST PUSH2 0x2545 JUMP JUMPDEST PUSH1 0x40 MLOAD PUSH2 0x541 SWAP3 SWAP2 SWAP1 PUSH2 0x379A JUMP JUMPDEST PUSH1 0x40 MLOAD DUP1 SWAP2 SUB SWAP1 RETURN JUMPDEST PUSH2 0x564 PUSH1 0x4 DUP1 CALLDATASIZE SUB DUP2 ADD SWAP1 PUSH2 0x55F SWAP2 SWAP1 PUSH2 0x3538 JUMP JUMPDEST PUSH2 0x25D1 JUMP JUMPDEST PUSH1 0x40 MLOAD PUSH2 0x571 SWAP2 SWAP1 PUSH2 0x3075 JUMP JUMPDEST PUSH1 0x40 MLOAD DUP1 SWAP2 SUB SWAP1 RETURN JUMPDEST PUSH2 0x582 PUSH2 0x2689 JUMP JUMPDEST PUSH1 0x40 MLOAD PUSH2 0x58F SWAP2 SWAP1 PUSH2 0x309F JUMP JUMPDEST PUSH1 0x40 MLOAD DUP1 SWAP2 SUB SWAP1 RETURN JUMPDEST PUSH2 0x5B2 PUSH1 0x4 DUP1 CALLDATASIZE SUB DUP2 ADD SWAP1 PUSH2 0x5AD SWAP2 SWAP1 PUSH2 0x334A JUMP JUMPDEST PUSH2 0x2B5F JUMP JUMPDEST STOP JUMPDEST PUSH1 0x0 DUP1 SLOAD PUSH2 0x5C1 SWAP1 PUSH2 0x37F2 JUMP JUMPDEST DUP1 PUSH1 0x1F ADD PUSH1 0x20 DUP1 SWAP2 DIV MUL PUSH1 0x20 ADD PUSH1 0x40 MLOAD SWAP1 DUP2 ADD PUSH1 0x40 MSTORE DUP1 SWAP3 SWAP2 SWAP1 DUP2 DUP2 MSTORE PUSH1 0x20 ADD DUP3 DUP1 SLOAD PUSH2 0x5ED SWAP1 PUSH2 0x37F2 JUMP JUMPDEST DUP1 ISZERO PUSH2 0x63A JUMPI DUP1 PUSH1 0x1F LT PUSH2 0x60F JUMPI PUSH2 0x100 DUP1 DUP4 SLOAD DIV MUL DUP4 MSTORE SWAP2 PUSH1 0x20 ADD SWAP2 PUSH2 0x63A JUMP JUMPDEST DUP3 ADD SWAP2 SWAP1 PUSH1 0x0 MSTORE PUSH1 0x20 PUSH1 0x0 KECCAK256 SWAP1 JUMPDEST DUP2 SLOAD DUP2 MSTORE SWAP1 PUSH1 0x1 ADD SWAP1 PUSH1 0x20 ADD DUP1 DUP4 GT PUSH2 0x61D JUMPI DUP3 SWAP1 SUB PUSH1 0x1F AND DUP3 ADD SWAP2 JUMPDEST POP POP POP POP POP DUP2 JUMP JUMPDEST PUSH1 0x0 DUP2 PUSH1 0x5 PUSH1 0x0 CALLER PUSH20 0xFFFFFFFFFFFFFFFFFFFFFFFFFFFFFFFFFFFFFFFF AND PUSH20 0xFFFFFFFFFFFFFFFFFFFFFFFFFFFFFFFFFFFFFFFF AND DUP2 MSTORE PUSH1 0x20 ADD SWAP1 DUP2 MSTORE PUSH1 0x20 ADD PUSH1 0x0 KECCAK256 PUSH1 0x0 DUP6 PUSH20 0xFFFFFFFFFFFFFFFFFFFFFFFFFFFFFFFFFFFFFFFF AND PUSH20 0xFFFFFFFFFFFFFFFFFFFFFFFFFFFFFFFFFFFFFFFF AND DUP2 MSTORE PUSH1 0x20 ADD SWAP1 DUP2 MSTORE PUSH1 0x20 ADD PUSH1 0x0 KECCAK256 DUP2 SWAP1 SSTORE POP PUSH1 0x1 SWAP1 POP SWAP3 SWAP2 POP POP JUMP JUMPDEST PUSH1 0x2 SLOAD DUP2 JUMP JUMPDEST PUSH1 0x60 PUSH1 0xD PUSH1 0x0 DUP4 PUSH20 0xFFFFFFFFFFFFFFFFFFFFFFFFFFFFFFFFFFFFFFFF AND PUSH20 0xFFFFFFFFFFFFFFFFFFFFFFFFFFFFFFFFFFFFFFFF AND DUP2 MSTORE PUSH1 0x20 ADD SWAP1 DUP2 MSTORE PUSH1 0x20 ADD PUSH1 0x0 KECCAK256 DUP1 SLOAD DUP1 PUSH1 0x20 MUL PUSH1 0x20 ADD PUSH1 0x40 MLOAD SWAP1 DUP2 ADD PUSH1 0x40 MSTORE DUP1 SWAP3 SWAP2 SWAP1 DUP2 DUP2 MSTORE PUSH1 0x20 ADD PUSH1 0x0 SWAP1 JUMPDEST DUP3 DUP3 LT ISZERO PUSH2 0x7E2 JUMPI DUP4 DUP3 SWAP1 PUSH1 0x0 MSTORE PUSH1 0x20 PUSH1 0x0 KECCAK256 ADD DUP1 SLOAD PUSH2 0x755 SWAP1 PUSH2 0x37F2 JUMP JUMPDEST DUP1 PUSH1 0x1F ADD PUSH1 0x20 DUP1 SWAP2 DIV MUL PUSH1 0x20 ADD PUSH1 0x40 MLOAD SWAP1 DUP2 ADD PUSH1 0x40 MSTORE DUP1 SWAP3 SWAP2 SWAP1 DUP2 DUP2 MSTORE PUSH1 0x20 ADD DUP3 DUP1 SLOAD PUSH2 0x781 SWAP1 PUSH2 0x37F2 JUMP JUMPDEST DUP1 ISZERO PUSH2 0x7CE JUMPI DUP1 PUSH1 0x1F LT PUSH2 0x7A3 JUMPI PUSH2 0x100 DUP1 DUP4 SLOAD DIV MUL DUP4 MSTORE SWAP2 PUSH1 0x20 ADD SWAP2 PUSH2 0x7CE JUMP JUMPDEST DUP3 ADD SWAP2 SWAP1 PUSH1 0x0 MSTORE PUSH1 0x20 PUSH1 0x0 KECCAK256 SWAP1 JUMPDEST DUP2 SLOAD DUP2 MSTORE SWAP1 PUSH1 0x1 ADD SWAP1 PUSH1 0x20 ADD DUP1 DUP4 GT PUSH2 0x7B1 JUMPI DUP3 SWAP1 SUB PUSH1 0x1F AND DUP3 ADD SWAP2 JUMPDEST POP POP POP POP POP DUP2 MSTORE PUSH1 0x20 ADD SWAP1 PUSH1 0x1 ADD SWAP1 PUSH2 0x736 JUMP JUMPDEST POP POP POP POP SWAP1 POP SWAP2 SWAP1 POP JUMP JUMPDEST PUSH1 0xC DUP2 PUSH1 0x40 MLOAD PUSH2 0x7FD SWAP2 SWAP1 PUSH2 0x385F JUMP JUMPDEST SWAP1 DUP2 MSTORE PUSH1 0x20 ADD PUSH1 0x40 MLOAD DUP1 SWAP2 SUB SWAP1 KECCAK256 PUSH1 0x6 ADD PUSH1 0x1 SWAP1 SLOAD SWAP1 PUSH2 0x100 EXP SWAP1 DIV PUSH1 0xFF AND ISZERO PUSH2 0x85C JUMPI PUSH1 0x40 MLOAD PUSH32 0x8C379A000000000000000000000000000000000000000000000000000000000 DUP2 MSTORE PUSH1 0x4 ADD PUSH2 0x853 SWAP1 PUSH2 0x38C2 JUMP JUMPDEST PUSH1 0x40 MLOAD DUP1 SWAP2 SUB SWAP1 REVERT JUMPDEST CALLER PUSH20 0xFFFFFFFFFFFFFFFFFFFFFFFFFFFFFFFFFFFFFFFF AND PUSH1 0xC DUP3 PUSH1 0x40 MLOAD PUSH2 0x883 SWAP2 SWAP1 PUSH2 0x385F JUMP JUMPDEST SWAP1 DUP2 MSTORE PUSH1 0x20 ADD PUSH1 0x40 MLOAD DUP1 SWAP2 SUB SWAP1 KECCAK256 PUSH1 0x7 ADD PUSH1 0x0 SWAP1 SLOAD SWAP1 PUSH2 0x100 EXP SWAP1 DIV PUSH20 0xFFFFFFFFFFFFFFFFFFFFFFFFFFFFFFFFFFFFFFFF AND PUSH20 0xFFFFFFFFFFFFFFFFFFFFFFFFFFFFFFFFFFFFFFFF AND EQ PUSH2 0x90B JUMPI PUSH1 0x40 MLOAD PUSH32 0x8C379A000000000000000000000000000000000000000000000000000000000 DUP2 MSTORE PUSH1 0x4 ADD PUSH2 0x902 SWAP1 PUSH2 0x3954 JUMP JUMPDEST PUSH1 0x40 MLOAD DUP1 SWAP2 SUB SWAP1 REVERT JUMPDEST PUSH1 0xC DUP2 PUSH1 0x40 MLOAD PUSH2 0x91B SWAP2 SWAP1 PUSH2 0x385F JUMP JUMPDEST SWAP1 DUP2 MSTORE PUSH1 0x20 ADD PUSH1 0x40 MLOAD DUP1 SWAP2 SUB SWAP1 KECCAK256 PUSH1 0x2 ADD SLOAD TIMESTAMP LT PUSH2 0xA5A JUMPI PUSH1 0x1 PUSH1 0xC DUP3 PUSH1 0x40 MLOAD PUSH2 0x945 SWAP2 SWAP1 PUSH2 0x385F JUMP JUMPDEST SWAP1 DUP2 MSTORE PUSH1 0x20 ADD PUSH1 0x40 MLOAD DUP1 SWAP2 SUB SWAP1 KECCAK256 PUSH1 0x6 ADD PUSH1 0x1 PUSH2 0x100 EXP DUP2 SLOAD DUP2 PUSH1 0xFF MUL NOT AND SWAP1 DUP4 ISZERO ISZERO MUL OR SWAP1 SSTORE POP PUSH1 0x0 PUSH1 0xC DUP3 PUSH1 0x40 MLOAD PUSH2 0x97F SWAP2 SWAP1 PUSH2 0x385F JUMP JUMPDEST SWAP1 DUP2 MSTORE PUSH1 0x20 ADD PUSH1 0x40 MLOAD DUP1 SWAP2 SUB SWAP1 KECCAK256 PUSH1 0x3 ADD SLOAD PUSH1 0xC DUP4 PUSH1 0x40 MLOAD PUSH2 0x9A1 SWAP2 SWAP1 PUSH2 0x385F JUMP JUMPDEST SWAP1 DUP2 MSTORE PUSH1 0x20 ADD PUSH1 0x40 MLOAD DUP1 SWAP2 SUB SWAP1 KECCAK256 PUSH1 0x4 ADD PUSH1 0x0 SWAP1 SLOAD SWAP1 PUSH2 0x100 EXP SWAP1 DIV PUSH4 0xFFFFFFFF AND PUSH4 0xFFFFFFFF AND PUSH2 0x9D3 SWAP2 SWAP1 PUSH2 0x39A3 JUMP JUMPDEST SWAP1 POP PUSH1 0x0 DUP2 PUSH1 0xC DUP5 PUSH1 0x40 MLOAD PUSH2 0x9E8 SWAP2 SWAP1 PUSH2 0x385F JUMP JUMPDEST SWAP1 DUP2 MSTORE PUSH1 0x20 ADD PUSH1 0x40 MLOAD DUP1 SWAP2 SUB SWAP1 KECCAK256 PUSH1 0x4 ADD PUSH1 0x0 SWAP1 SLOAD SWAP1 PUSH2 0x100 EXP SWAP1 DIV PUSH4 0xFFFFFFFF AND PUSH4 0xFFFFFFFF AND PUSH1 0xC DUP6 PUSH1 0x40 MLOAD PUSH2 0xA20 SWAP2 SWAP1 PUSH2 0x385F JUMP JUMPDEST SWAP1 DUP2 MSTORE PUSH1 0x20 ADD PUSH1 0x40 MLOAD DUP1 SWAP2 SUB SWAP1 KECCAK256 PUSH1 0x5 ADD SLOAD PUSH2 0xA3C SWAP2 SWAP1 PUSH2 0x3A06 JUMP JUMPDEST PUSH2 0xA46 SWAP2 SWAP1 PUSH2 0x3A37 JUMP JUMPDEST SWAP1 POP PUSH2 0xA53 ADDRESS CALLER DUP4 PUSH2 0x2C27 JUMP JUMPDEST POP POP PUSH2 0xB93 JUMP JUMPDEST PUSH1 0x0 PUSH1 0xC DUP3 PUSH1 0x40 MLOAD PUSH2 0xA6C SWAP2 SWAP1 PUSH2 0x385F JUMP JUMPDEST SWAP1 DUP2 MSTORE PUSH1 0x20 ADD PUSH1 0x40 MLOAD DUP1 SWAP2 SUB SWAP1 KECCAK256 PUSH1 0x3 ADD SLOAD PUSH1 0x9 PUSH1 0x0 SWAP1 SLOAD SWAP1 PUSH2 0x100 EXP SWAP1 DIV PUSH4 0xFFFFFFFF AND PUSH4 0xFFFFFFFF AND PUSH1 0xC DUP5 PUSH1 0x40 MLOAD PUSH2 0xAA7 SWAP2 SWAP1 PUSH2 0x385F JUMP JUMPDEST SWAP1 DUP2 MSTORE PUSH1 0x20 ADD PUSH1 0x40 MLOAD DUP1 SWAP2 SUB SWAP1 KECCAK256 PUSH1 0x1 ADD SLOAD TIMESTAMP PUSH2 0xAC4 SWAP2 SWAP1 PUSH2 0x39A3 JUMP JUMPDEST PUSH2 0xACE SWAP2 SWAP1 PUSH2 0x3A06 JUMP JUMPDEST PUSH2 0xAD8 SWAP2 SWAP1 PUSH2 0x39A3 JUMP JUMPDEST SWAP1 POP DUP1 PUSH1 0xC DUP4 PUSH1 0x40 MLOAD PUSH2 0xAEB SWAP2 SWAP1 PUSH2 0x385F JUMP JUMPDEST SWAP1 DUP2 MSTORE PUSH1 0x20 ADD PUSH1 0x40 MLOAD DUP1 SWAP2 SUB SWAP1 KECCAK256 PUSH1 0x3 ADD PUSH1 0x0 DUP3 DUP3 SLOAD PUSH2 0xB0B SWAP2 SWAP1 PUSH2 0x3A79 JUMP JUMPDEST SWAP3 POP POP DUP2 SWAP1 SSTORE POP PUSH1 0x0 DUP2 PUSH1 0xC DUP5 PUSH1 0x40 MLOAD PUSH2 0xB25 SWAP2 SWAP1 PUSH2 0x385F JUMP JUMPDEST SWAP1 DUP2 MSTORE PUSH1 0x20 ADD PUSH1 0x40 MLOAD DUP1 SWAP2 SUB SWAP1 KECCAK256 PUSH1 0x4 ADD PUSH1 0x0 SWAP1 SLOAD SWAP1 PUSH2 0x100 EXP SWAP1 DIV PUSH4 0xFFFFFFFF AND PUSH4 0xFFFFFFFF AND PUSH1 0xC DUP6 PUSH1 0x40 MLOAD PUSH2 0xB5D SWAP2 SWAP1 PUSH2 0x385F JUMP JUMPDEST SWAP1 DUP2 MSTORE PUSH1 0x20 ADD PUSH1 0x40 MLOAD DUP1 SWAP2 SUB SWAP1 KECCAK256 PUSH1 0x5 ADD SLOAD PUSH2 0xB79 SWAP2 SWAP1 PUSH2 0x3A06 JUMP JUMPDEST PUSH2 0xB83 SWAP2 SWAP1 PUSH2 0x3A37 JUMP JUMPDEST SWAP1 POP PUSH2 0xB90 ADDRESS CALLER DUP4 PUSH2 0x2C27 JUMP JUMPDEST POP POP JUMPDEST POP JUMP JUMPDEST PUSH1 0x0 PUSH1 0xB PUSH1 0x0 CALLER PUSH20 0xFFFFFFFFFFFFFFFFFFFFFFFFFFFFFFFFFFFFFFFF AND PUSH20 0xFFFFFFFFFFFFFFFFFFFFFFFFFFFFFFFFFFFFFFFF AND DUP2 MSTORE PUSH1 0x20 ADD SWAP1 DUP2 MSTORE PUSH1 0x20 ADD PUSH1 0x0 KECCAK256 SLOAD SUB PUSH2 0xC18 JUMPI PUSH1 0x40 MLOAD PUSH32 0x8C379A000000000000000000000000000000000000000000000000000000000 DUP2 MSTORE PUSH1 0x4 ADD PUSH2 0xC0F SWAP1 PUSH2 0x3AF9 JUMP JUMPDEST PUSH1 0x40 MLOAD DUP1 SWAP2 SUB SWAP1 REVERT JUMPDEST PUSH1 0x0 PUSH1 0xD PUSH1 0x0 CALLER PUSH20 0xFFFFFFFFFFFFFFFFFFFFFFFFFFFFFFFFFFFFFFFF AND PUSH20 0xFFFFFFFFFFFFFFFFFFFFFFFFFFFFFFFFFFFFFFFF AND DUP2 MSTORE PUSH1 0x20 ADD SWAP1 DUP2 MSTORE PUSH1 0x20 ADD PUSH1 0x0 KECCAK256 DUP1 SLOAD DUP1 PUSH1 0x20 MUL PUSH1 0x20 ADD PUSH1 0x40 MLOAD SWAP1 DUP2 ADD PUSH1 0x40 MSTORE DUP1 SWAP3 SWAP2 SWAP1 DUP2 DUP2 MSTORE PUSH1 0x20 ADD PUSH1 0x0 SWAP1 JUMPDEST DUP3 DUP3 LT ISZERO PUSH2 0xD25 JUMPI DUP4 DUP3 SWAP1 PUSH1 0x0 MSTORE PUSH1 0x20 PUSH1 0x0 KECCAK256 ADD DUP1 SLOAD PUSH2 0xC98 SWAP1 PUSH2 0x37F2 JUMP JUMPDEST DUP1 PUSH1 0x1F ADD PUSH1 0x20 DUP1 SWAP2 DIV MUL PUSH1 0x20 ADD PUSH1 0x40 MLOAD SWAP1 DUP2 ADD PUSH1 0x40 MSTORE DUP1 SWAP3 SWAP2 SWAP1 DUP2 DUP2 MSTORE PUSH1 0x20 ADD DUP3 DUP1 SLOAD PUSH2 0xCC4 SWAP1 PUSH2 0x37F2 JUMP JUMPDEST DUP1 ISZERO PUSH2 0xD11 JUMPI DUP1 PUSH1 0x1F LT PUSH2 0xCE6 JUMPI PUSH2 0x100 DUP1 DUP4 SLOAD DIV MUL DUP4 MSTORE SWAP2 PUSH1 0x20 ADD SWAP2 PUSH2 0xD11 JUMP JUMPDEST DUP3 ADD SWAP2 SWAP1 PUSH1 0x0 MSTORE PUSH1 0x20 PUSH1 0x0 KECCAK256 SWAP1 JUMPDEST DUP2 SLOAD DUP2 MSTORE SWAP1 PUSH1 0x1 ADD SWAP1 PUSH1 0x20 ADD DUP1 DUP4 GT PUSH2 0xCF4 JUMPI DUP3 SWAP1 SUB PUSH1 0x1F AND DUP3 ADD SWAP2 JUMPDEST POP POP POP POP POP DUP2 MSTORE PUSH1 0x20 ADD SWAP1 PUSH1 0x1 ADD SWAP1 PUSH2 0xC79 JUMP JUMPDEST POP POP POP POP SWAP1 POP PUSH1 0x0 DUP1 JUMPDEST DUP3 MLOAD DUP2 LT ISZERO PUSH2 0x1139 JUMPI PUSH1 0xC DUP4 DUP3 DUP2 MLOAD DUP2 LT PUSH2 0xD4D JUMPI PUSH2 0xD4C PUSH2 0x3B19 JUMP JUMPDEST JUMPDEST PUSH1 0x20 MUL PUSH1 0x20 ADD ADD MLOAD PUSH1 0x40 MLOAD PUSH2 0xD62 SWAP2 SWAP1 PUSH2 0x385F JUMP JUMPDEST SWAP1 DUP2 MSTORE PUSH1 0x20 ADD PUSH1 0x40 MLOAD DUP1 SWAP2 SUB SWAP1 KECCAK256 PUSH1 0x6 ADD PUSH1 0x1 SWAP1 SLOAD SWAP1 PUSH2 0x100 EXP SWAP1 DIV PUSH1 0xFF AND PUSH2 0x1126 JUMPI PUSH1 0xC DUP4 DUP3 DUP2 MLOAD DUP2 LT PUSH2 0xD9A JUMPI PUSH2 0xD99 PUSH2 0x3B19 JUMP JUMPDEST JUMPDEST PUSH1 0x20 MUL PUSH1 0x20 ADD ADD MLOAD PUSH1 0x40 MLOAD PUSH2 0xDAF SWAP2 SWAP1 PUSH2 0x385F JUMP JUMPDEST SWAP1 DUP2 MSTORE PUSH1 0x20 ADD PUSH1 0x40 MLOAD DUP1 SWAP2 SUB SWAP1 KECCAK256 PUSH1 0x2 ADD SLOAD TIMESTAMP LT PUSH2 0xF6D JUMPI PUSH1 0x1 PUSH1 0xC DUP5 DUP4 DUP2 MLOAD DUP2 LT PUSH2 0xDDE JUMPI PUSH2 0xDDD PUSH2 0x3B19 JUMP JUMPDEST JUMPDEST PUSH1 0x20 MUL PUSH1 0x20 ADD ADD MLOAD PUSH1 0x40 MLOAD PUSH2 0xDF3 SWAP2 SWAP1 PUSH2 0x385F JUMP JUMPDEST SWAP1 DUP2 MSTORE PUSH1 0x20 ADD PUSH1 0x40 MLOAD DUP1 SWAP2 SUB SWAP1 KECCAK256 PUSH1 0x6 ADD PUSH1 0x1 PUSH2 0x100 EXP DUP2 SLOAD DUP2 PUSH1 0xFF MUL NOT AND SWAP1 DUP4 ISZERO ISZERO MUL OR SWAP1 SSTORE POP PUSH1 0x0 PUSH1 0xC DUP5 DUP4 DUP2 MLOAD DUP2 LT PUSH2 0xE32 JUMPI PUSH2 0xE31 PUSH2 0x3B19 JUMP JUMPDEST JUMPDEST PUSH1 0x20 MUL PUSH1 0x20 ADD ADD MLOAD PUSH1 0x40 MLOAD PUSH2 0xE47 SWAP2 SWAP1 PUSH2 0x385F JUMP JUMPDEST SWAP1 DUP2 MSTORE PUSH1 0x20 ADD PUSH1 0x40 MLOAD DUP1 SWAP2 SUB SWAP1 KECCAK256 PUSH1 0x3 ADD SLOAD PUSH1 0xC DUP6 DUP5 DUP2 MLOAD DUP2 LT PUSH2 0xE6E JUMPI PUSH2 0xE6D PUSH2 0x3B19 JUMP JUMPDEST JUMPDEST PUSH1 0x20 MUL PUSH1 0x20 ADD ADD MLOAD PUSH1 0x40 MLOAD PUSH2 0xE83 SWAP2 SWAP1 PUSH2 0x385F JUMP JUMPDEST SWAP1 DUP2 MSTORE PUSH1 0x20 ADD PUSH1 0x40 MLOAD DUP1 SWAP2 SUB SWAP1 KECCAK256 PUSH1 0x4 ADD PUSH1 0x0 SWAP1 SLOAD SWAP1 PUSH2 0x100 EXP SWAP1 DIV PUSH4 0xFFFFFFFF AND PUSH4 0xFFFFFFFF AND PUSH2 0xEB5 SWAP2 SWAP1 PUSH2 0x39A3 JUMP JUMPDEST SWAP1 POP DUP1 PUSH1 0xC DUP6 DUP5 DUP2 MLOAD DUP2 LT PUSH2 0xECD JUMPI PUSH2 0xECC PUSH2 0x3B19 JUMP JUMPDEST JUMPDEST PUSH1 0x20 MUL PUSH1 0x20 ADD ADD MLOAD PUSH1 0x40 MLOAD PUSH2 0xEE2 SWAP2 SWAP1 PUSH2 0x385F JUMP JUMPDEST SWAP1 DUP2 MSTORE PUSH1 0x20 ADD PUSH1 0x40 MLOAD DUP1 SWAP2 SUB SWAP1 KECCAK256 PUSH1 0x4 ADD PUSH1 0x0 SWAP1 SLOAD SWAP1 PUSH2 0x100 EXP SWAP1 DIV PUSH4 0xFFFFFFFF AND PUSH4 0xFFFFFFFF AND PUSH1 0xC DUP7 DUP6 DUP2 MLOAD DUP2 LT PUSH2 0xF1F JUMPI PUSH2 0xF1E PUSH2 0x3B19 JUMP JUMPDEST JUMPDEST PUSH1 0x20 MUL PUSH1 0x20 ADD ADD MLOAD PUSH1 0x40 MLOAD PUSH2 0xF34 SWAP2 SWAP1 PUSH2 0x385F JUMP JUMPDEST SWAP1 DUP2 MSTORE PUSH1 0x20 ADD PUSH1 0x40 MLOAD DUP1 SWAP2 SUB SWAP1 KECCAK256 PUSH1 0x5 ADD SLOAD PUSH2 0xF50 SWAP2 SWAP1 PUSH2 0x3A06 JUMP JUMPDEST PUSH2 0xF5A SWAP2 SWAP1 PUSH2 0x3A37 JUMP JUMPDEST DUP4 PUSH2 0xF65 SWAP2 SWAP1 PUSH2 0x3A79 JUMP JUMPDEST SWAP3 POP POP PUSH2 0x1125 JUMP JUMPDEST PUSH1 0x0 PUSH1 0xC DUP5 DUP4 DUP2 MLOAD DUP2 LT PUSH2 0xF84 JUMPI PUSH2 0xF83 PUSH2 0x3B19 JUMP JUMPDEST JUMPDEST PUSH1 0x20 MUL PUSH1 0x20 ADD ADD MLOAD PUSH1 0x40 MLOAD PUSH2 0xF99 SWAP2 SWAP1 PUSH2 0x385F JUMP JUMPDEST SWAP1 DUP2 MSTORE PUSH1 0x20 ADD PUSH1 0x40 MLOAD DUP1 SWAP2 SUB SWAP1 KECCAK256 PUSH1 0x3 ADD SLOAD PUSH1 0x9 PUSH1 0x0 SWAP1 SLOAD SWAP1 PUSH2 0x100 EXP SWAP1 DIV PUSH4 0xFFFFFFFF AND PUSH4 0xFFFFFFFF AND PUSH1 0xC DUP7 DUP6 DUP2 MLOAD DUP2 LT PUSH2 0xFD9 JUMPI PUSH2 0xFD8 PUSH2 0x3B19 JUMP JUMPDEST JUMPDEST PUSH1 0x20 MUL PUSH1 0x20 ADD ADD MLOAD PUSH1 0x40 MLOAD PUSH2 0xFEE SWAP2 SWAP1 PUSH2 0x385F JUMP JUMPDEST SWAP1 DUP2 MSTORE PUSH1 0x20 ADD PUSH1 0x40 MLOAD DUP1 SWAP2 SUB SWAP1 KECCAK256 PUSH1 0x1 ADD SLOAD TIMESTAMP PUSH2 0x100B SWAP2 SWAP1 PUSH2 0x39A3 JUMP JUMPDEST PUSH2 0x1015 SWAP2 SWAP1 PUSH2 0x3A06 JUMP JUMPDEST PUSH2 0x101F SWAP2 SWAP1 PUSH2 0x39A3 JUMP JUMPDEST SWAP1 POP DUP1 PUSH1 0xC DUP6 DUP5 DUP2 MLOAD DUP2 LT PUSH2 0x1037 JUMPI PUSH2 0x1036 PUSH2 0x3B19 JUMP JUMPDEST JUMPDEST PUSH1 0x20 MUL PUSH1 0x20 ADD ADD MLOAD PUSH1 0x40 MLOAD PUSH2 0x104C SWAP2 SWAP1 PUSH2 0x385F JUMP JUMPDEST SWAP1 DUP2 MSTORE PUSH1 0x20 ADD PUSH1 0x40 MLOAD DUP1 SWAP2 SUB SWAP1 KECCAK256 PUSH1 0x3 ADD PUSH1 0x0 DUP3 DUP3 SLOAD PUSH2 0x106C SWAP2 SWAP1 PUSH2 0x3A79 JUMP JUMPDEST SWAP3 POP POP DUP2 SWAP1 SSTORE POP DUP1 PUSH1 0xC DUP6 DUP5 DUP2 MLOAD DUP2 LT PUSH2 0x1089 JUMPI PUSH2 0x1088 PUSH2 0x3B19 JUMP JUMPDEST JUMPDEST PUSH1 0x20 MUL PUSH1 0x20 ADD ADD MLOAD PUSH1 0x40 MLOAD PUSH2 0x109E SWAP2 SWAP1 PUSH2 0x385F JUMP JUMPDEST SWAP1 DUP2 MSTORE PUSH1 0x20 ADD PUSH1 0x40 MLOAD DUP1 SWAP2 SUB SWAP1 KECCAK256 PUSH1 0x4 ADD PUSH1 0x0 SWAP1 SLOAD SWAP1 PUSH2 0x100 EXP SWAP1 DIV PUSH4 0xFFFFFFFF AND PUSH4 0xFFFFFFFF AND PUSH1 0xC DUP7 DUP6 DUP2 MLOAD DUP2 LT PUSH2 0x10DB JUMPI PUSH2 0x10DA PUSH2 0x3B19 JUMP JUMPDEST JUMPDEST PUSH1 0x20 MUL PUSH1 0x20 ADD ADD MLOAD PUSH1 0x40 MLOAD PUSH2 0x10F0 SWAP2 SWAP1 PUSH2 0x385F JUMP JUMPDEST SWAP1 DUP2 MSTORE PUSH1 0x20 ADD PUSH1 0x40 MLOAD DUP1 SWAP2 SUB SWAP1 KECCAK256 PUSH1 0x5 ADD SLOAD PUSH2 0x110C SWAP2 SWAP1 PUSH2 0x3A06 JUMP JUMPDEST PUSH2 0x1116 SWAP2 SWAP1 PUSH2 0x3A37 JUMP JUMPDEST DUP4 PUSH2 0x1121 SWAP2 SWAP1 PUSH2 0x3A79 JUMP JUMPDEST SWAP3 POP POP JUMPDEST JUMPDEST DUP1 DUP1 PUSH2 0x1131 SWAP1 PUSH2 0x3B48 JUMP JUMPDEST SWAP2 POP POP PUSH2 0xD2F JUMP JUMPDEST POP PUSH2 0x1145 ADDRESS CALLER DUP4 PUSH2 0x2C27 JUMP JUMPDEST POP POP JUMP JUMPDEST PUSH1 0x3 PUSH1 0x0 SWAP1 SLOAD SWAP1 PUSH2 0x100 EXP SWAP1 DIV PUSH1 0xFF AND DUP2 JUMP JUMPDEST PUSH1 0xC DUP4 PUSH1 0x40 MLOAD PUSH2 0x116C SWAP2 SWAP1 PUSH2 0x385F JUMP JUMPDEST SWAP1 DUP2 MSTORE PUSH1 0x20 ADD PUSH1 0x40 MLOAD DUP1 SWAP2 SUB SWAP1 KECCAK256 PUSH1 0x6 ADD PUSH1 0x0 SWAP1 SLOAD SWAP1 PUSH2 0x100 EXP SWAP1 DIV PUSH1 0xFF AND ISZERO PUSH2 0x11CB JUMPI PUSH1 0x40 MLOAD PUSH32 0x8C379A000000000000000000000000000000000000000000000000000000000 DUP2 MSTORE PUSH1 0x4 ADD PUSH2 0x11C2 SWAP1 PUSH2 0x3BDC JUMP JUMPDEST PUSH1 0x40 MLOAD DUP1 SWAP2 SUB SWAP1 REVERT JUMPDEST DUP2 PUSH2 0x11D5 CALLER PUSH2 0x189F JUMP JUMPDEST LT ISZERO PUSH2 0x1216 JUMPI PUSH1 0x40 MLOAD PUSH32 0x8C379A000000000000000000000000000000000000000000000000000000000 DUP2 MSTORE PUSH1 0x4 ADD PUSH2 0x120D SWAP1 PUSH2 0x3C48 JUMP JUMPDEST PUSH1 0x40 MLOAD DUP1 SWAP2 SUB SWAP1 REVERT JUMPDEST PUSH2 0x1221 CALLER ADDRESS DUP5 PUSH2 0x2C27 JUMP JUMPDEST PUSH1 0x40 MLOAD DUP1 PUSH2 0x140 ADD PUSH1 0x40 MSTORE DUP1 DUP7 DUP2 MSTORE PUSH1 0x20 ADD TIMESTAMP DUP2 MSTORE PUSH1 0x20 ADD PUSH1 0x9 PUSH1 0x0 SWAP1 SLOAD SWAP1 PUSH2 0x100 EXP SWAP1 DIV PUSH4 0xFFFFFFFF AND DUP7 PUSH2 0x1257 SWAP2 SWAP1 PUSH2 0x3C68 JUMP JUMPDEST PUSH4 0xFFFFFFFF AND TIMESTAMP PUSH2 0x1268 SWAP2 SWAP1 PUSH2 0x3A79 JUMP JUMPDEST DUP2 MSTORE PUSH1 0x20 ADD PUSH1 0x0 DUP2 MSTORE PUSH1 0x20 ADD DUP6 PUSH4 0xFFFFFFFF AND DUP2 MSTORE PUSH1 0x20 ADD DUP4 DUP2 MSTORE PUSH1 0x20 ADD PUSH1 0x1 ISZERO ISZERO DUP2 MSTORE PUSH1 0x20 ADD PUSH1 0x0 ISZERO ISZERO DUP2 MSTORE PUSH1 0x20 ADD CALLER PUSH20 0xFFFFFFFFFFFFFFFFFFFFFFFFFFFFFFFFFFFFFFFF AND DUP2 MSTORE PUSH1 0x20 ADD DUP3 PUSH20 0xFFFFFFFFFFFFFFFFFFFFFFFFFFFFFFFFFFFFFFFF AND DUP2 MSTORE POP PUSH1 0xC DUP5 PUSH1 0x40 MLOAD PUSH2 0x12DE SWAP2 SWAP1 PUSH2 0x385F JUMP JUMPDEST SWAP1 DUP2 MSTORE PUSH1 0x20 ADD PUSH1 0x40 MLOAD DUP1 SWAP2 SUB SWAP1 KECCAK256 PUSH1 0x0 DUP3 ADD MLOAD DUP2 PUSH1 0x0 ADD SWAP1 DUP2 PUSH2 0x1301 SWAP2 SWAP1 PUSH2 0x3E51 JUMP JUMPDEST POP PUSH1 0x20 DUP3 ADD MLOAD DUP2 PUSH1 0x1 ADD SSTORE PUSH1 0x40 DUP3 ADD MLOAD DUP2 PUSH1 0x2 ADD SSTORE PUSH1 0x60 DUP3 ADD MLOAD DUP2 PUSH1 0x3 ADD SSTORE PUSH1 0x80 DUP3 ADD MLOAD DUP2 PUSH1 0x4 ADD PUSH1 0x0 PUSH2 0x100 EXP DUP2 SLOAD DUP2 PUSH4 0xFFFFFFFF MUL NOT AND SWAP1 DUP4 PUSH4 0xFFFFFFFF AND MUL OR SWAP1 SSTORE POP PUSH1 0xA0 DUP3 ADD MLOAD DUP2 PUSH1 0x5 ADD SSTORE PUSH1 0xC0 DUP3 ADD MLOAD DUP2 PUSH1 0x6 ADD PUSH1 0x0 PUSH2 0x100 EXP DUP2 SLOAD DUP2 PUSH1 0xFF MUL NOT AND SWAP1 DUP4 ISZERO ISZERO MUL OR SWAP1 SSTORE POP PUSH1 0xE0 DUP3 ADD MLOAD DUP2 PUSH1 0x6 ADD PUSH1 0x1 PUSH2 0x100 EXP DUP2 SLOAD DUP2 PUSH1 0xFF MUL NOT AND SWAP1 DUP4 ISZERO ISZERO MUL OR SWAP1 SSTORE POP PUSH2 0x100 DUP3 ADD MLOAD DUP2 PUSH1 0x6 ADD PUSH1 0x2 PUSH2 0x100 EXP DUP2 SLOAD DUP2 PUSH20 0xFFFFFFFFFFFFFFFFFFFFFFFFFFFFFFFFFFFFFFFF MUL NOT AND SWAP1 DUP4 PUSH20 0xFFFFFFFFFFFFFFFFFFFFFFFFFFFFFFFFFFFFFFFF AND MUL OR SWAP1 SSTORE POP PUSH2 0x120 DUP3 ADD MLOAD DUP2 PUSH1 0x7 ADD PUSH1 0x0 PUSH2 0x100 EXP DUP2 SLOAD DUP2 PUSH20 0xFFFFFFFFFFFFFFFFFFFFFFFFFFFFFFFFFFFFFFFF MUL NOT AND SWAP1 DUP4 PUSH20 0xFFFFFFFFFFFFFFFFFFFFFFFFFFFFFFFFFFFFFFFF AND MUL OR SWAP1 SSTORE POP SWAP1 POP POP PUSH1 0xD PUSH1 0x0 DUP3 PUSH20 0xFFFFFFFFFFFFFFFFFFFFFFFFFFFFFFFFFFFFFFFF AND PUSH20 0xFFFFFFFFFFFFFFFFFFFFFFFFFFFFFFFFFFFFFFFF AND DUP2 MSTORE PUSH1 0x20 ADD SWAP1 DUP2 MSTORE PUSH1 0x20 ADD PUSH1 0x0 KECCAK256 DUP4 SWAP1 DUP1 PUSH1 0x1 DUP2 SLOAD ADD DUP1 DUP3 SSTORE DUP1 SWAP2 POP POP PUSH1 0x1 SWAP1 SUB SWAP1 PUSH1 0x0 MSTORE PUSH1 0x20 PUSH1 0x0 KECCAK256 ADD PUSH1 0x0 SWAP1 SWAP2 SWAP1 SWAP2 SWAP1 SWAP2 POP SWAP1 DUP2 PUSH2 0x1495 SWAP2 SWAP1 PUSH2 0x3E51 JUMP JUMPDEST POP POP POP POP POP POP JUMP JUMPDEST PUSH1 0x1 DUP4 PUSH1 0xFF AND SUB PUSH2 0x1559 JUMPI DUP1 PUSH2 0x14B2 CALLER PUSH2 0x189F JUMP JUMPDEST LT ISZERO PUSH2 0x14F3 JUMPI PUSH1 0x40 MLOAD PUSH32 0x8C379A000000000000000000000000000000000000000000000000000000000 DUP2 MSTORE PUSH1 0x4 ADD PUSH2 0x14EA SWAP1 PUSH2 0x3C48 JUMP JUMPDEST PUSH1 0x40 MLOAD DUP1 SWAP2 SUB SWAP1 REVERT JUMPDEST PUSH2 0x14FE CALLER ADDRESS DUP4 PUSH2 0x2C27 JUMP JUMPDEST DUP1 PUSH1 0xA PUSH1 0x0 DUP5 PUSH20 0xFFFFFFFFFFFFFFFFFFFFFFFFFFFFFFFFFFFFFFFF AND PUSH20 0xFFFFFFFFFFFFFFFFFFFFFFFFFFFFFFFFFFFFFFFF AND DUP2 MSTORE PUSH1 0x20 ADD SWAP1 DUP2 MSTORE PUSH1 0x20 ADD PUSH1 0x0 KECCAK256 PUSH1 0x0 DUP3 DUP3 SLOAD PUSH2 0x154D SWAP2 SWAP1 PUSH2 0x3A79 JUMP JUMPDEST SWAP3 POP POP DUP2 SWAP1 SSTORE POP PUSH2 0x1612 JUMP JUMPDEST PUSH1 0x2 DUP4 PUSH1 0xFF AND SUB PUSH2 0x1611 JUMPI DUP1 PUSH2 0x156E CALLER PUSH2 0x189F JUMP JUMPDEST LT ISZERO PUSH2 0x15AF JUMPI PUSH1 0x40 MLOAD PUSH32 0x8C379A000000000000000000000000000000000000000000000000000000000 DUP2 MSTORE PUSH1 0x4 ADD PUSH2 0x15A6 SWAP1 PUSH2 0x3C48 JUMP JUMPDEST PUSH1 0x40 MLOAD DUP1 SWAP2 SUB SWAP1 REVERT JUMPDEST PUSH2 0x15BA CALLER ADDRESS DUP4 PUSH2 0x2C27 JUMP JUMPDEST DUP1 PUSH1 0xB PUSH1 0x0 DUP5 PUSH20 0xFFFFFFFFFFFFFFFFFFFFFFFFFFFFFFFFFFFFFFFF AND PUSH20 0xFFFFFFFFFFFFFFFFFFFFFFFFFFFFFFFFFFFFFFFF AND DUP2 MSTORE PUSH1 0x20 ADD SWAP1 DUP2 MSTORE PUSH1 0x20 ADD PUSH1 0x0 KECCAK256 PUSH1 0x0 DUP3 DUP3 SLOAD PUSH2 0x1609 SWAP2 SWAP1 PUSH2 0x3A79 JUMP JUMPDEST SWAP3 POP POP DUP2 SWAP1 SSTORE POP JUMPDEST JUMPDEST POP POP POP JUMP JUMPDEST PUSH1 0x1 DUP2 PUSH1 0xFF AND SUB PUSH2 0x175B JUMPI PUSH1 0x0 PUSH1 0xA PUSH1 0x0 CALLER PUSH20 0xFFFFFFFFFFFFFFFFFFFFFFFFFFFFFFFFFFFFFFFF AND PUSH20 0xFFFFFFFFFFFFFFFFFFFFFFFFFFFFFFFFFFFFFFFF AND DUP2 MSTORE PUSH1 0x20 ADD SWAP1 DUP2 MSTORE PUSH1 0x20 ADD PUSH1 0x0 KECCAK256 SLOAD EQ PUSH2 0x16A4 JUMPI PUSH1 0x40 MLOAD PUSH32 0x8C379A000000000000000000000000000000000000000000000000000000000 DUP2 MSTORE PUSH1 0x4 ADD PUSH2 0x169B SWAP1 PUSH2 0x3F6F JUMP JUMPDEST PUSH1 0x40 MLOAD DUP1 SWAP2 SUB SWAP1 REVERT JUMPDEST PUSH1 0x7 SLOAD PUSH2 0x16B0 CALLER PUSH2 0x189F JUMP JUMPDEST LT ISZERO PUSH2 0x16F1 JUMPI PUSH1 0x40 MLOAD PUSH32 0x8C379A000000000000000000000000000000000000000000000000000000000 DUP2 MSTORE PUSH1 0x4 ADD PUSH2 0x16E8 SWAP1 PUSH2 0x3C48 JUMP JUMPDEST PUSH1 0x40 MLOAD DUP1 SWAP2 SUB SWAP1 REVERT JUMPDEST PUSH2 0x16FE CALLER ADDRESS PUSH1 0x7 SLOAD PUSH2 0x2C27 JUMP JUMPDEST PUSH1 0x7 SLOAD PUSH1 0xA PUSH1 0x0 CALLER PUSH20 0xFFFFFFFFFFFFFFFFFFFFFFFFFFFFFFFFFFFFFFFF AND PUSH20 0xFFFFFFFFFFFFFFFFFFFFFFFFFFFFFFFFFFFFFFFF AND DUP2 MSTORE PUSH1 0x20 ADD SWAP1 DUP2 MSTORE PUSH1 0x20 ADD PUSH1 0x0 KECCAK256 PUSH1 0x0 DUP3 DUP3 SLOAD PUSH2 0x174F SWAP2 SWAP1 PUSH2 0x3A79 JUMP JUMPDEST SWAP3 POP POP DUP2 SWAP1 SSTORE POP PUSH2 0x189C JUMP JUMPDEST PUSH1 0x2 DUP2 PUSH1 0xFF AND SUB PUSH2 0x189B JUMPI PUSH1 0x0 PUSH1 0xB PUSH1 0x0 CALLER PUSH20 0xFFFFFFFFFFFFFFFFFFFFFFFFFFFFFFFFFFFFFFFF AND PUSH20 0xFFFFFFFFFFFFFFFFFFFFFFFFFFFFFFFFFFFFFFFF AND DUP2 MSTORE PUSH1 0x20 ADD SWAP1 DUP2 MSTORE PUSH1 0x20 ADD PUSH1 0x0 KECCAK256 SLOAD EQ PUSH2 0x17E8 JUMPI PUSH1 0x40 MLOAD PUSH32 0x8C379A000000000000000000000000000000000000000000000000000000000 DUP2 MSTORE PUSH1 0x4 ADD PUSH2 0x17DF SWAP1 PUSH2 0x3F6F JUMP JUMPDEST PUSH1 0x40 MLOAD DUP1 SWAP2 SUB SWAP1 REVERT JUMPDEST PUSH1 0x8 SLOAD PUSH2 0x17F4 CALLER PUSH2 0x189F JUMP JUMPDEST LT ISZERO PUSH2 0x1835 JUMPI PUSH1 0x40 MLOAD PUSH32 0x8C379A000000000000000000000000000000000000000000000000000000000 DUP2 MSTORE PUSH1 0x4 ADD PUSH2 0x182C SWAP1 PUSH2 0x3C48 JUMP JUMPDEST PUSH1 0x40 MLOAD DUP1 SWAP2 SUB SWAP1 REVERT JUMPDEST PUSH2 0x1842 CALLER ADDRESS PUSH1 0x8 SLOAD PUSH2 0x2C27 JUMP JUMPDEST PUSH1 0x8 SLOAD PUSH1 0xB PUSH1 0x0 CALLER PUSH20 0xFFFFFFFFFFFFFFFFFFFFFFFFFFFFFFFFFFFFFFFF AND PUSH20 0xFFFFFFFFFFFFFFFFFFFFFFFFFFFFFFFFFFFFFFFF AND DUP2 MSTORE PUSH1 0x20 ADD SWAP1 DUP2 MSTORE PUSH1 0x20 ADD PUSH1 0x0 KECCAK256 PUSH1 0x0 DUP3 DUP3 SLOAD PUSH2 0x1893 SWAP2 SWAP1 PUSH2 0x3A79 JUMP JUMPDEST SWAP3 POP POP DUP2 SWAP1 SSTORE POP JUMPDEST JUMPDEST POP JUMP JUMPDEST PUSH1 0x0 PUSH1 0x4 PUSH1 0x0 DUP4 PUSH20 0xFFFFFFFFFFFFFFFFFFFFFFFFFFFFFFFFFFFFFFFF AND PUSH20 0xFFFFFFFFFFFFFFFFFFFFFFFFFFFFFFFFFFFFFFFF AND DUP2 MSTORE PUSH1 0x20 ADD SWAP1 DUP2 MSTORE PUSH1 0x20 ADD PUSH1 0x0 KECCAK256 SLOAD SWAP1 POP SWAP2 SWAP1 POP JUMP JUMPDEST PUSH1 0x0 DUP1 PUSH1 0x2 PUSH1 0x6 DUP5 PUSH1 0x40 MLOAD PUSH2 0x18FD SWAP2 SWAP1 PUSH2 0x385F JUMP JUMPDEST SWAP1 DUP2 MSTORE PUSH1 0x20 ADD PUSH1 0x40 MLOAD DUP1 SWAP2 SUB SWAP1 KECCAK256 PUSH1 0x0 ADD PUSH1 0x14 SWAP1 SLOAD SWAP1 PUSH2 0x100 EXP SWAP1 DIV PUSH1 0xFF AND PUSH1 0xFF AND SUB PUSH2 0x1A35 JUMPI PUSH1 0x0 PUSH1 0xA PUSH1 0x0 PUSH1 0x6 DUP7 PUSH1 0x40 MLOAD PUSH2 0x193A SWAP2 SWAP1 PUSH2 0x385F JUMP JUMPDEST SWAP1 DUP2 MSTORE PUSH1 0x20 ADD PUSH1 0x40 MLOAD DUP1 SWAP2 SUB SWAP1 KECCAK256 PUSH1 0x0 ADD PUSH1 0x0 SWAP1 SLOAD SWAP1 PUSH2 0x100 EXP SWAP1 DIV PUSH20 0xFFFFFFFFFFFFFFFFFFFFFFFFFFFFFFFFFFFFFFFF AND PUSH20 0xFFFFFFFFFFFFFFFFFFFFFFFFFFFFFFFFFFFFFFFF AND PUSH20 0xFFFFFFFFFFFFFFFFFFFFFFFFFFFFFFFFFFFFFFFF AND DUP2 MSTORE PUSH1 0x20 ADD SWAP1 DUP2 MSTORE PUSH1 0x20 ADD PUSH1 0x0 KECCAK256 SLOAD GT PUSH1 0x0 PUSH1 0xB PUSH1 0x0 PUSH1 0x6 DUP8 PUSH1 0x40 MLOAD PUSH2 0x19BE SWAP2 SWAP1 PUSH2 0x385F JUMP JUMPDEST SWAP1 DUP2 MSTORE PUSH1 0x20 ADD PUSH1 0x40 MLOAD DUP1 SWAP2 SUB SWAP1 KECCAK256 PUSH1 0x0 ADD PUSH1 0x0 SWAP1 SLOAD SWAP1 PUSH2 0x100 EXP SWAP1 DIV PUSH20 0xFFFFFFFFFFFFFFFFFFFFFFFFFFFFFFFFFFFFFFFF AND PUSH20 0xFFFFFFFFFFFFFFFFFFFFFFFFFFFFFFFFFFFFFFFF AND PUSH20 0xFFFFFFFFFFFFFFFFFFFFFFFFFFFFFFFFFFFFFFFF AND DUP2 MSTORE PUSH1 0x20 ADD SWAP1 DUP2 MSTORE PUSH1 0x20 ADD PUSH1 0x0 KECCAK256 SLOAD GT SWAP2 POP SWAP2 POP PUSH2 0x1A3D JUMP JUMPDEST PUSH1 0x0 DUP1 SWAP2 POP SWAP2 POP JUMPDEST SWAP2 POP SWAP2 JUMP JUMPDEST PUSH2 0x1A4A PUSH2 0x2E37 JUMP JUMPDEST PUSH1 0xC DUP3 PUSH1 0x40 MLOAD PUSH2 0x1A5A SWAP2 SWAP1 PUSH2 0x385F JUMP JUMPDEST SWAP1 DUP2 MSTORE PUSH1 0x20 ADD PUSH1 0x40 MLOAD DUP1 SWAP2 SUB SWAP1 KECCAK256 PUSH1 0x40 MLOAD DUP1 PUSH2 0x140 ADD PUSH1 0x40 MSTORE SWAP1 DUP2 PUSH1 0x0 DUP3 ADD DUP1 SLOAD PUSH2 0x1A84 SWAP1 PUSH2 0x37F2 JUMP JUMPDEST DUP1 PUSH1 0x1F ADD PUSH1 0x20 DUP1 SWAP2 DIV MUL PUSH1 0x20 ADD PUSH1 0x40 MLOAD SWAP1 DUP2 ADD PUSH1 0x40 MSTORE DUP1 SWAP3 SWAP2 SWAP1 DUP2 DUP2 MSTORE PUSH1 0x20 ADD DUP3 DUP1 SLOAD PUSH2 0x1AB0 SWAP1 PUSH2 0x37F2 JUMP JUMPDEST DUP1 ISZERO PUSH2 0x1AFD JUMPI DUP1 PUSH1 0x1F LT PUSH2 0x1AD2 JUMPI PUSH2 0x100 DUP1 DUP4 SLOAD DIV MUL DUP4 MSTORE SWAP2 PUSH1 0x20 ADD SWAP2 PUSH2 0x1AFD JUMP JUMPDEST DUP3 ADD SWAP2 SWAP1 PUSH1 0x0 MSTORE PUSH1 0x20 PUSH1 0x0 KECCAK256 SWAP1 JUMPDEST DUP2 SLOAD DUP2 MSTORE SWAP1 PUSH1 0x1 ADD SWAP1 PUSH1 0x20 ADD DUP1 DUP4 GT PUSH2 0x1AE0 JUMPI DUP3 SWAP1 SUB PUSH1 0x1F AND DUP3 ADD SWAP2 JUMPDEST POP POP POP POP POP DUP2 MSTORE PUSH1 0x20 ADD PUSH1 0x1 DUP3 ADD SLOAD DUP2 MSTORE PUSH1 0x20 ADD PUSH1 0x2 DUP3 ADD SLOAD DUP2 MSTORE PUSH1 0x20 ADD PUSH1 0x3 DUP3 ADD SLOAD DUP2 MSTORE PUSH1 0x20 ADD PUSH1 0x4 DUP3 ADD PUSH1 0x0 SWAP1 SLOAD SWAP1 PUSH2 0x100 EXP SWAP1 DIV PUSH4 0xFFFFFFFF AND PUSH4 0xFFFFFFFF AND PUSH4 0xFFFFFFFF AND DUP2 MSTORE PUSH1 0x20 ADD PUSH1 0x5 DUP3 ADD SLOAD DUP2 MSTORE PUSH1 0x20 ADD PUSH1 0x6 DUP3 ADD PUSH1 0x0 SWAP1 SLOAD SWAP1 PUSH2 0x100 EXP SWAP1 DIV PUSH1 0xFF AND ISZERO ISZERO ISZERO ISZERO DUP2 MSTORE PUSH1 0x20 ADD PUSH1 0x6 DUP3 ADD PUSH1 0x1 SWAP1 SLOAD SWAP1 PUSH2 0x100 EXP SWAP1 DIV PUSH1 0xFF AND ISZERO ISZERO ISZERO ISZERO DUP2 MSTORE PUSH1 0x20 ADD PUSH1 0x6 DUP3 ADD PUSH1 0x2 SWAP1 SLOAD SWAP1 PUSH2 0x100 EXP SWAP1 DIV PUSH20 0xFFFFFFFFFFFFFFFFFFFFFFFFFFFFFFFFFFFFFFFF AND PUSH20 0xFFFFFFFFFFFFFFFFFFFFFFFFFFFFFFFFFFFFFFFF AND PUSH20 0xFFFFFFFFFFFFFFFFFFFFFFFFFFFFFFFFFFFFFFFF AND DUP2 MSTORE PUSH1 0x20 ADD PUSH1 0x7 DUP3 ADD PUSH1 0x0 SWAP1 SLOAD SWAP1 PUSH2 0x100 EXP SWAP1 DIV PUSH20 0xFFFFFFFFFFFFFFFFFFFFFFFFFFFFFFFFFFFFFFFF AND PUSH20 0xFFFFFFFFFFFFFFFFFFFFFFFFFFFFFFFFFFFFFFFF AND PUSH20 0xFFFFFFFFFFFFFFFFFFFFFFFFFFFFFFFFFFFFFFFF AND DUP2 MSTORE POP POP SWAP1 POP SWAP2 SWAP1 POP JUMP JUMPDEST PUSH1 0x0 PUSH20 0xFFFFFFFFFFFFFFFFFFFFFFFFFFFFFFFFFFFFFFFF AND DUP2 PUSH20 0xFFFFFFFFFFFFFFFFFFFFFFFFFFFFFFFFFFFFFFFF AND SUB PUSH2 0x1C76 JUMPI PUSH1 0x0 DUP1 REVERT JUMPDEST PUSH1 0x1 PUSH1 0x6 DUP4 PUSH1 0x40 MLOAD PUSH2 0x1C88 SWAP2 SWAP1 PUSH2 0x385F JUMP JUMPDEST SWAP1 DUP2 MSTORE PUSH1 0x20 ADD PUSH1 0x40 MLOAD DUP1 SWAP2 SUB SWAP1 KECCAK256 PUSH1 0x0 ADD PUSH1 0x14 SWAP1 SLOAD SWAP1 PUSH2 0x100 EXP SWAP1 DIV PUSH1 0xFF AND PUSH1 0xFF AND SUB PUSH2 0x1D14 JUMPI DUP1 PUSH1 0x6 DUP4 PUSH1 0x40 MLOAD PUSH2 0x1CC0 SWAP2 SWAP1 PUSH2 0x385F JUMP JUMPDEST SWAP1 DUP2 MSTORE PUSH1 0x20 ADD PUSH1 0x40 MLOAD DUP1 SWAP2 SUB SWAP1 KECCAK256 PUSH1 0x0 ADD PUSH1 0x0 PUSH2 0x100 EXP DUP2 SLOAD DUP2 PUSH20 0xFFFFFFFFFFFFFFFFFFFFFFFFFFFFFFFFFFFFFFFF MUL NOT AND SWAP1 DUP4 PUSH20 0xFFFFFFFFFFFFFFFFFFFFFFFFFFFFFFFFFFFFFFFF AND MUL OR SWAP1 SSTORE POP PUSH2 0x1DEE JUMP JUMPDEST CALLER PUSH20 0xFFFFFFFFFFFFFFFFFFFFFFFFFFFFFFFFFFFFFFFF AND PUSH1 0x6 DUP4 PUSH1 0x40 MLOAD PUSH2 0x1D3B SWAP2 SWAP1 PUSH2 0x385F JUMP JUMPDEST SWAP1 DUP2 MSTORE PUSH1 0x20 ADD PUSH1 0x40 MLOAD DUP1 SWAP2 SUB SWAP1 KECCAK256 PUSH1 0x0 ADD PUSH1 0x0 SWAP1 SLOAD SWAP1 PUSH2 0x100 EXP SWAP1 DIV PUSH20 0xFFFFFFFFFFFFFFFFFFFFFFFFFFFFFFFFFFFFFFFF AND PUSH20 0xFFFFFFFFFFFFFFFFFFFFFFFFFFFFFFFFFFFFFFFF AND EQ PUSH2 0x1D8D JUMPI PUSH1 0x0 DUP1 REVERT JUMPDEST DUP1 PUSH1 0x6 DUP4 PUSH1 0x40 MLOAD PUSH2 0x1D9E SWAP2 SWAP1 PUSH2 0x385F JUMP JUMPDEST SWAP1 DUP2 MSTORE PUSH1 0x20 ADD PUSH1 0x40 MLOAD DUP1 SWAP2 SUB SWAP1 KECCAK256 PUSH1 0x0 ADD PUSH1 0x0 PUSH2 0x100 EXP DUP2 SLOAD DUP2 PUSH20 0xFFFFFFFFFFFFFFFFFFFFFFFFFFFFFFFFFFFFFFFF MUL NOT AND SWAP1 DUP4 PUSH20 0xFFFFFFFFFFFFFFFFFFFFFFFFFFFFFFFFFFFFFFFF AND MUL OR SWAP1 SSTORE POP JUMPDEST POP POP JUMP JUMPDEST PUSH1 0x0 PUSH20 0xFFFFFFFFFFFFFFFFFFFFFFFFFFFFFFFFFFFFFFFF AND PUSH1 0x6 DUP3 PUSH1 0x40 MLOAD PUSH2 0x1E1A SWAP2 SWAP1 PUSH2 0x385F JUMP JUMPDEST SWAP1 DUP2 MSTORE PUSH1 0x20 ADD PUSH1 0x40 MLOAD DUP1 SWAP2 SUB SWAP1 KECCAK256 PUSH1 0x0 ADD PUSH1 0x0 SWAP1 SLOAD SWAP1 PUSH2 0x100 EXP SWAP1 DIV PUSH20 0xFFFFFFFFFFFFFFFFFFFFFFFFFFFFFFFFFFFFFFFF AND PUSH20 0xFFFFFFFFFFFFFFFFFFFFFFFFFFFFFFFFFFFFFFFF AND EQ PUSH2 0x1E6C JUMPI PUSH1 0x0 DUP1 REVERT JUMPDEST PUSH1 0x0 PUSH1 0xA PUSH1 0x0 CALLER PUSH20 0xFFFFFFFFFFFFFFFFFFFFFFFFFFFFFFFFFFFFFFFF AND PUSH20 0xFFFFFFFFFFFFFFFFFFFFFFFFFFFFFFFFFFFFFFFF AND DUP2 MSTORE PUSH1 0x20 ADD SWAP1 DUP2 MSTORE PUSH1 0x20 ADD PUSH1 0x0 KECCAK256 SLOAD SUB PUSH2 0x1F70 JUMPI PUSH1 0x40 MLOAD DUP1 PUSH1 0x40 ADD PUSH1 0x40 MSTORE DUP1 CALLER PUSH20 0xFFFFFFFFFFFFFFFFFFFFFFFFFFFFFFFFFFFFFFFF AND DUP2 MSTORE PUSH1 0x20 ADD PUSH1 0x1 PUSH1 0xFF AND DUP2 MSTORE POP PUSH1 0x6 DUP3 PUSH1 0x40 MLOAD PUSH2 0x1EF2 SWAP2 SWAP1 PUSH2 0x385F JUMP JUMPDEST SWAP1 DUP2 MSTORE PUSH1 0x20 ADD PUSH1 0x40 MLOAD DUP1 SWAP2 SUB SWAP1 KECCAK256 PUSH1 0x0 DUP3 ADD MLOAD DUP2 PUSH1 0x0 ADD PUSH1 0x0 PUSH2 0x100 EXP DUP2 SLOAD DUP2 PUSH20 0xFFFFFFFFFFFFFFFFFFFFFFFFFFFFFFFFFFFFFFFF MUL NOT AND SWAP1 DUP4 PUSH20 0xFFFFFFFFFFFFFFFFFFFFFFFFFFFFFFFFFFFFFFFF AND MUL OR SWAP1 SSTORE POP PUSH1 0x20 DUP3 ADD MLOAD DUP2 PUSH1 0x0 ADD PUSH1 0x14 PUSH2 0x100 EXP DUP2 SLOAD DUP2 PUSH1 0xFF MUL NOT AND SWAP1 DUP4 PUSH1 0xFF AND MUL OR SWAP1 SSTORE POP SWAP1 POP POP PUSH2 0x2029 JUMP JUMPDEST PUSH1 0x40 MLOAD DUP1 PUSH1 0x40 ADD PUSH1 0x40 MSTORE DUP1 CALLER PUSH20 0xFFFFFFFFFFFFFFFFFFFFFFFFFFFFFFFFFFFFFFFF AND DUP2 MSTORE PUSH1 0x20 ADD PUSH1 0x2 PUSH1 0xFF AND DUP2 MSTORE POP PUSH1 0x6 DUP3 PUSH1 0x40 MLOAD PUSH2 0x1FAF SWAP2 SWAP1 PUSH2 0x385F JUMP JUMPDEST SWAP1 DUP2 MSTORE PUSH1 0x20 ADD PUSH1 0x40 MLOAD DUP1 SWAP2 SUB SWAP1 KECCAK256 PUSH1 0x0 DUP3 ADD MLOAD DUP2 PUSH1 0x0 ADD PUSH1 0x0 PUSH2 0x100 EXP DUP2 SLOAD DUP2 PUSH20 0xFFFFFFFFFFFFFFFFFFFFFFFFFFFFFFFFFFFFFFFF MUL NOT AND SWAP1 DUP4 PUSH20 0xFFFFFFFFFFFFFFFFFFFFFFFFFFFFFFFFFFFFFFFF AND MUL OR SWAP1 SSTORE POP PUSH1 0x20 DUP3 ADD MLOAD DUP2 PUSH1 0x0 ADD PUSH1 0x14 PUSH2 0x100 EXP DUP2 SLOAD DUP2 PUSH1 0xFF MUL NOT AND SWAP1 DUP4 PUSH1 0xFF AND MUL OR SWAP1 SSTORE POP SWAP1 POP POP JUMPDEST POP JUMP JUMPDEST PUSH1 0x1 DUP1 SLOAD PUSH2 0x2039 SWAP1 PUSH2 0x37F2 JUMP JUMPDEST DUP1 PUSH1 0x1F ADD PUSH1 0x20 DUP1 SWAP2 DIV MUL PUSH1 0x20 ADD PUSH1 0x40 MLOAD SWAP1 DUP2 ADD PUSH1 0x40 MSTORE DUP1 SWAP3 SWAP2 SWAP1 DUP2 DUP2 MSTORE PUSH1 0x20 ADD DUP3 DUP1 SLOAD PUSH2 0x2065 SWAP1 PUSH2 0x37F2 JUMP JUMPDEST DUP1 ISZERO PUSH2 0x20B2 JUMPI DUP1 PUSH1 0x1F LT PUSH2 0x2087 JUMPI PUSH2 0x100 DUP1 DUP4 SLOAD DIV MUL DUP4 MSTORE SWAP2 PUSH1 0x20 ADD SWAP2 PUSH2 0x20B2 JUMP JUMPDEST DUP3 ADD SWAP2 SWAP1 PUSH1 0x0 MSTORE PUSH1 0x20 PUSH1 0x0 KECCAK256 SWAP1 JUMPDEST DUP2 SLOAD DUP2 MSTORE SWAP1 PUSH1 0x1 ADD SWAP1 PUSH1 0x20 ADD DUP1 DUP4 GT PUSH2 0x2095 JUMPI DUP3 SWAP1 SUB PUSH1 0x1F AND DUP3 ADD SWAP2 JUMPDEST POP POP POP POP POP DUP2 JUMP JUMPDEST PUSH1 0x7 SLOAD DUP2 JUMP JUMPDEST PUSH1 0x0 DUP1 PUSH1 0x6 DUP4 PUSH1 0x40 MLOAD PUSH2 0x20D3 SWAP2 SWAP1 PUSH2 0x385F JUMP JUMPDEST SWAP1 DUP2 MSTORE PUSH1 0x20 ADD PUSH1 0x40 MLOAD DUP1 SWAP2 SUB SWAP1 KECCAK256 PUSH1 0x0 ADD PUSH1 0x0 SWAP1 SLOAD SWAP1 PUSH2 0x100 EXP SWAP1 DIV PUSH20 0xFFFFFFFFFFFFFFFFFFFFFFFFFFFFFFFFFFFFFFFF AND PUSH1 0x6 DUP5 PUSH1 0x40 MLOAD PUSH2 0x2115 SWAP2 SWAP1 PUSH2 0x385F JUMP JUMPDEST SWAP1 DUP2 MSTORE PUSH1 0x20 ADD PUSH1 0x40 MLOAD DUP1 SWAP2 SUB SWAP1 KECCAK256 PUSH1 0x0 ADD PUSH1 0x14 SWAP1 SLOAD SWAP1 PUSH2 0x100 EXP SWAP1 DIV PUSH1 0xFF AND SWAP2 POP SWAP2 POP SWAP2 POP SWAP2 JUMP JUMPDEST PUSH1 0x0 DUP2 PUSH1 0x4 PUSH1 0x0 CALLER PUSH20 0xFFFFFFFFFFFFFFFFFFFFFFFFFFFFFFFFFFFFFFFF AND PUSH20 0xFFFFFFFFFFFFFFFFFFFFFFFFFFFFFFFFFFFFFFFF AND DUP2 MSTORE PUSH1 0x20 ADD SWAP1 DUP2 MSTORE PUSH1 0x20 ADD PUSH1 0x0 KECCAK256 SLOAD LT ISZERO PUSH2 0x21C1 JUMPI PUSH1 0x40 MLOAD PUSH32 0x8C379A000000000000000000000000000000000000000000000000000000000 DUP2 MSTORE PUSH1 0x4 ADD PUSH2 0x21B8 SWAP1 PUSH2 0x3FDB JUMP JUMPDEST PUSH1 0x40 MLOAD DUP1 SWAP2 SUB SWAP1 REVERT JUMPDEST PUSH2 0x21CC CALLER DUP5 DUP5 PUSH2 0x2C27 JUMP JUMPDEST PUSH1 0x1 SWAP1 POP SWAP3 SWAP2 POP POP JUMP JUMPDEST PUSH1 0x8 SLOAD DUP2 JUMP JUMPDEST PUSH1 0x1 DUP2 PUSH1 0xFF AND SUB PUSH2 0x22C5 JUMPI PUSH1 0x0 PUSH1 0xA PUSH1 0x0 CALLER PUSH20 0xFFFFFFFFFFFFFFFFFFFFFFFFFFFFFFFFFFFFFFFF AND PUSH20 0xFFFFFFFFFFFFFFFFFFFFFFFFFFFFFFFFFFFFFFFF AND DUP2 MSTORE PUSH1 0x20 ADD SWAP1 DUP2 MSTORE PUSH1 0x20 ADD PUSH1 0x0 KECCAK256 SLOAD GT PUSH2 0x2233 JUMPI PUSH1 0x0 DUP1 REVERT JUMPDEST PUSH2 0x227D ADDRESS CALLER PUSH1 0xA PUSH1 0x0 CALLER PUSH20 0xFFFFFFFFFFFFFFFFFFFFFFFFFFFFFFFFFFFFFFFF AND PUSH20 0xFFFFFFFFFFFFFFFFFFFFFFFFFFFFFFFFFFFFFFFF AND DUP2 MSTORE PUSH1 0x20 ADD SWAP1 DUP2 MSTORE PUSH1 0x20 ADD PUSH1 0x0 KECCAK256 SLOAD PUSH2 0x2C27 JUMP JUMPDEST PUSH1 0xA PUSH1 0x0 CALLER PUSH20 0xFFFFFFFFFFFFFFFFFFFFFFFFFFFFFFFFFFFFFFFF AND PUSH20 0xFFFFFFFFFFFFFFFFFFFFFFFFFFFFFFFFFFFFFFFF AND DUP2 MSTORE PUSH1 0x20 ADD SWAP1 DUP2 MSTORE PUSH1 0x20 ADD PUSH1 0x0 KECCAK256 PUSH1 0x0 SWAP1 SSTORE PUSH2 0x23AB JUMP JUMPDEST PUSH1 0x2 DUP2 PUSH1 0xFF AND SUB PUSH2 0x23AA JUMPI PUSH1 0x0 PUSH1 0xB PUSH1 0x0 CALLER PUSH20 0xFFFFFFFFFFFFFFFFFFFFFFFFFFFFFFFFFFFFFFFF AND PUSH20 0xFFFFFFFFFFFFFFFFFFFFFFFFFFFFFFFFFFFFFFFF AND DUP2 MSTORE PUSH1 0x20 ADD SWAP1 DUP2 MSTORE PUSH1 0x20 ADD PUSH1 0x0 KECCAK256 SLOAD GT PUSH2 0x231C JUMPI PUSH1 0x0 DUP1 REVERT JUMPDEST PUSH2 0x2366 ADDRESS CALLER PUSH1 0xB PUSH1 0x0 CALLER PUSH20 0xFFFFFFFFFFFFFFFFFFFFFFFFFFFFFFFFFFFFFFFF AND PUSH20 0xFFFFFFFFFFFFFFFFFFFFFFFFFFFFFFFFFFFFFFFF AND DUP2 MSTORE PUSH1 0x20 ADD SWAP1 DUP2 MSTORE PUSH1 0x20 ADD PUSH1 0x0 KECCAK256 SLOAD PUSH2 0x2C27 JUMP JUMPDEST PUSH1 0xB PUSH1 0x0 CALLER PUSH20 0xFFFFFFFFFFFFFFFFFFFFFFFFFFFFFFFFFFFFFFFF AND PUSH20 0xFFFFFFFFFFFFFFFFFFFFFFFFFFFFFFFFFFFFFFFF AND DUP2 MSTORE PUSH1 0x20 ADD SWAP1 DUP2 MSTORE PUSH1 0x20 ADD PUSH1 0x0 KECCAK256 PUSH1 0x0 SWAP1 SSTORE JUMPDEST JUMPDEST POP JUMP JUMPDEST CALLER PUSH20 0xFFFFFFFFFFFFFFFFFFFFFFFFFFFFFFFFFFFFFFFF AND PUSH1 0x6 DUP3 PUSH1 0x40 MLOAD PUSH2 0x23D5 SWAP2 SWAP1 PUSH2 0x385F JUMP JUMPDEST SWAP1 DUP2 MSTORE PUSH1 0x20 ADD PUSH1 0x40 MLOAD DUP1 SWAP2 SUB SWAP1 KECCAK256 PUSH1 0x0 ADD PUSH1 0x0 SWAP1 SLOAD SWAP1 PUSH2 0x100 EXP SWAP1 DIV PUSH20 0xFFFFFFFFFFFFFFFFFFFFFFFFFFFFFFFFFFFFFFFF AND PUSH20 0xFFFFFFFFFFFFFFFFFFFFFFFFFFFFFFFFFFFFFFFF AND EQ PUSH2 0x2427 JUMPI PUSH1 0x0 DUP1 REVERT JUMPDEST PUSH1 0x6 DUP2 PUSH1 0x40 MLOAD PUSH2 0x2437 SWAP2 SWAP1 PUSH2 0x385F JUMP JUMPDEST SWAP1 DUP2 MSTORE PUSH1 0x20 ADD PUSH1 0x40 MLOAD DUP1 SWAP2 SUB SWAP1 KECCAK256 PUSH1 0x0 DUP1 DUP3 ADD PUSH1 0x0 PUSH2 0x100 EXP DUP2 SLOAD SWAP1 PUSH20 0xFFFFFFFFFFFFFFFFFFFFFFFFFFFFFFFFFFFFFFFF MUL NOT AND SWAP1 SSTORE PUSH1 0x0 DUP3 ADD PUSH1 0x14 PUSH2 0x100 EXP DUP2 SLOAD SWAP1 PUSH1 0xFF MUL NOT AND SWAP1 SSTORE POP POP POP JUMP JUMPDEST PUSH1 0x0 PUSH1 0x5 PUSH1 0x0 DUP5 PUSH20 0xFFFFFFFFFFFFFFFFFFFFFFFFFFFFFFFFFFFFFFFF AND PUSH20 0xFFFFFFFFFFFFFFFFFFFFFFFFFFFFFFFFFFFFFFFF AND DUP2 MSTORE PUSH1 0x20 ADD SWAP1 DUP2 MSTORE PUSH1 0x20 ADD PUSH1 0x0 KECCAK256 PUSH1 0x0 DUP4 PUSH20 0xFFFFFFFFFFFFFFFFFFFFFFFFFFFFFFFFFFFFFFFF AND PUSH20 0xFFFFFFFFFFFFFFFFFFFFFFFFFFFFFFFFFFFFFFFF AND DUP2 MSTORE PUSH1 0x20 ADD SWAP1 DUP2 MSTORE PUSH1 0x20 ADD PUSH1 0x0 KECCAK256 SLOAD SWAP1 POP SWAP3 SWAP2 POP POP JUMP JUMPDEST PUSH1 0x0 PUSH1 0xC DUP3 PUSH1 0x40 MLOAD PUSH2 0x251F SWAP2 SWAP1 PUSH2 0x385F JUMP JUMPDEST SWAP1 DUP2 MSTORE PUSH1 0x20 ADD PUSH1 0x40 MLOAD DUP1 SWAP2 SUB SWAP1 KECCAK256 PUSH1 0x6 ADD PUSH1 0x0 SWAP1 SLOAD SWAP1 PUSH2 0x100 EXP SWAP1 DIV PUSH1 0xFF AND SWAP1 POP SWAP2 SWAP1 POP JUMP JUMPDEST PUSH1 0x0 DUP1 PUSH1 0xA PUSH1 0x0 DUP5 PUSH20 0xFFFFFFFFFFFFFFFFFFFFFFFFFFFFFFFFFFFFFFFF AND PUSH20 0xFFFFFFFFFFFFFFFFFFFFFFFFFFFFFFFFFFFFFFFF AND DUP2 MSTORE PUSH1 0x20 ADD SWAP1 DUP2 MSTORE PUSH1 0x20 ADD PUSH1 0x0 KECCAK256 SLOAD PUSH1 0xB PUSH1 0x0 DUP6 PUSH20 0xFFFFFFFFFFFFFFFFFFFFFFFFFFFFFFFFFFFFFFFF AND PUSH20 0xFFFFFFFFFFFFFFFFFFFFFFFFFFFFFFFFFFFFFFFF AND DUP2 MSTORE PUSH1 0x20 ADD SWAP1 DUP2 MSTORE PUSH1 0x20 ADD PUSH1 0x0 KECCAK256 SLOAD SWAP2 POP SWAP2 POP SWAP2 POP SWAP2 JUMP JUMPDEST PUSH1 0x0 PUSH1 0x1 DUP3 PUSH1 0xFF AND SUB PUSH2 0x2629 JUMPI PUSH1 0x0 PUSH1 0xA PUSH1 0x0 CALLER PUSH20 0xFFFFFFFFFFFFFFFFFFFFFFFFFFFFFFFFFFFFFFFF AND PUSH20 0xFFFFFFFFFFFFFFFFFFFFFFFFFFFFFFFFFFFFFFFF AND DUP2 MSTORE PUSH1 0x20 ADD SWAP1 DUP2 MSTORE PUSH1 0x20 ADD PUSH1 0x0 KECCAK256 SLOAD EQ ISZERO SWAP1 POP PUSH2 0x2684 JUMP JUMPDEST PUSH1 0x2 DUP3 PUSH1 0xFF AND SUB PUSH2 0x267F JUMPI PUSH1 0x0 PUSH1 0xB PUSH1 0x0 CALLER PUSH20 0xFFFFFFFFFFFFFFFFFFFFFFFFFFFFFFFFFFFFFFFF AND PUSH20 0xFFFFFFFFFFFFFFFFFFFFFFFFFFFFFFFFFFFFFFFF AND DUP2 MSTORE PUSH1 0x20 ADD SWAP1 DUP2 MSTORE PUSH1 0x20 ADD PUSH1 0x0 KECCAK256 SLOAD EQ ISZERO SWAP1 POP PUSH2 0x2684 JUMP JUMPDEST PUSH1 0x0 SWAP1 POP JUMPDEST SWAP2 SWAP1 POP JUMP JUMPDEST PUSH1 0x0 DUP1 PUSH1 0xB PUSH1 0x0 CALLER PUSH20 0xFFFFFFFFFFFFFFFFFFFFFFFFFFFFFFFFFFFFFFFF AND PUSH20 0xFFFFFFFFFFFFFFFFFFFFFFFFFFFFFFFFFFFFFFFF AND DUP2 MSTORE PUSH1 0x20 ADD SWAP1 DUP2 MSTORE PUSH1 0x20 ADD PUSH1 0x0 KECCAK256 SLOAD SUB PUSH2 0x26DA JUMPI PUSH1 0x0 SWAP1 POP PUSH2 0x2B5C JUMP JUMPDEST PUSH1 0x0 PUSH1 0xD PUSH1 0x0 CALLER PUSH20 0xFFFFFFFFFFFFFFFFFFFFFFFFFFFFFFFFFFFFFFFF AND PUSH20 0xFFFFFFFFFFFFFFFFFFFFFFFFFFFFFFFFFFFFFFFF AND DUP2 MSTORE PUSH1 0x20 ADD SWAP1 DUP2 MSTORE PUSH1 0x20 ADD PUSH1 0x0 KECCAK256 DUP1 SLOAD DUP1 PUSH1 0x20 MUL PUSH1 0x20 ADD PUSH1 0x40 MLOAD SWAP1 DUP2 ADD PUSH1 0x40 MSTORE DUP1 SWAP3 SWAP2 SWAP1 DUP2 DUP2 MSTORE PUSH1 0x20 ADD PUSH1 0x0 SWAP1 JUMPDEST DUP3 DUP3 LT ISZERO PUSH2 0x27E7 JUMPI DUP4 DUP3 SWAP1 PUSH1 0x0 MSTORE PUSH1 0x20 PUSH1 0x0 KECCAK256 ADD DUP1 SLOAD PUSH2 0x275A SWAP1 PUSH2 0x37F2 JUMP JUMPDEST DUP1 PUSH1 0x1F ADD PUSH1 0x20 DUP1 SWAP2 DIV MUL PUSH1 0x20 ADD PUSH1 0x40 MLOAD SWAP1 DUP2 ADD PUSH1 0x40 MSTORE DUP1 SWAP3 SWAP2 SWAP1 DUP2 DUP2 MSTORE PUSH1 0x20 ADD DUP3 DUP1 SLOAD PUSH2 0x2786 SWAP1 PUSH2 0x37F2 JUMP JUMPDEST DUP1 ISZERO PUSH2 0x27D3 JUMPI DUP1 PUSH1 0x1F LT PUSH2 0x27A8 JUMPI PUSH2 0x100 DUP1 DUP4 SLOAD DIV MUL DUP4 MSTORE SWAP2 PUSH1 0x20 ADD SWAP2 PUSH2 0x27D3 JUMP JUMPDEST DUP3 ADD SWAP2 SWAP1 PUSH1 0x0 MSTORE PUSH1 0x20 PUSH1 0x0 KECCAK256 SWAP1 JUMPDEST DUP2 SLOAD DUP2 MSTORE SWAP1 PUSH1 0x1 ADD SWAP1 PUSH1 0x20 ADD DUP1 DUP4 GT PUSH2 0x27B6 JUMPI DUP3 SWAP1 SUB PUSH1 0x1F AND DUP3 ADD SWAP2 JUMPDEST POP POP POP POP POP DUP2 MSTORE PUSH1 0x20 ADD SWAP1 PUSH1 0x1 ADD SWAP1 PUSH2 0x273B JUMP JUMPDEST POP POP POP POP SWAP1 POP PUSH1 0x0 DUP1 JUMPDEST DUP3 MLOAD DUP2 LT ISZERO PUSH2 0x2B55 JUMPI PUSH1 0xC DUP4 DUP3 DUP2 MLOAD DUP2 LT PUSH2 0x280F JUMPI PUSH2 0x280E PUSH2 0x3B19 JUMP JUMPDEST JUMPDEST PUSH1 0x20 MUL PUSH1 0x20 ADD ADD MLOAD PUSH1 0x40 MLOAD PUSH2 0x2824 SWAP2 SWAP1 PUSH2 0x385F JUMP JUMPDEST SWAP1 DUP2 MSTORE PUSH1 0x20 ADD PUSH1 0x40 MLOAD DUP1 SWAP2 SUB SWAP1 KECCAK256 PUSH1 0x6 ADD PUSH1 0x1 SWAP1 SLOAD SWAP1 PUSH2 0x100 EXP SWAP1 DIV PUSH1 0xFF AND PUSH2 0x2B42 JUMPI PUSH1 0xC DUP4 DUP3 DUP2 MLOAD DUP2 LT PUSH2 0x285C JUMPI PUSH2 0x285B PUSH2 0x3B19 JUMP JUMPDEST JUMPDEST PUSH1 0x20 MUL PUSH1 0x20 ADD ADD MLOAD PUSH1 0x40 MLOAD PUSH2 0x2871 SWAP2 SWAP1 PUSH2 0x385F JUMP JUMPDEST SWAP1 DUP2 MSTORE PUSH1 0x20 ADD PUSH1 0x40 MLOAD DUP1 SWAP2 SUB SWAP1 KECCAK256 PUSH1 0x2 ADD SLOAD TIMESTAMP LT PUSH2 0x29DB JUMPI PUSH1 0x0 PUSH1 0xC DUP5 DUP4 DUP2 MLOAD DUP2 LT PUSH2 0x28A0 JUMPI PUSH2 0x289F PUSH2 0x3B19 JUMP JUMPDEST JUMPDEST PUSH1 0x20 MUL PUSH1 0x20 ADD ADD MLOAD PUSH1 0x40 MLOAD PUSH2 0x28B5 SWAP2 SWAP1 PUSH2 0x385F JUMP JUMPDEST SWAP1 DUP2 MSTORE PUSH1 0x20 ADD PUSH1 0x40 MLOAD DUP1 SWAP2 SUB SWAP1 KECCAK256 PUSH1 0x3 ADD SLOAD PUSH1 0xC DUP6 DUP5 DUP2 MLOAD DUP2 LT PUSH2 0x28DC JUMPI PUSH2 0x28DB PUSH2 0x3B19 JUMP JUMPDEST JUMPDEST PUSH1 0x20 MUL PUSH1 0x20 ADD ADD MLOAD PUSH1 0x40 MLOAD PUSH2 0x28F1 SWAP2 SWAP1 PUSH2 0x385F JUMP JUMPDEST SWAP1 DUP2 MSTORE PUSH1 0x20 ADD PUSH1 0x40 MLOAD DUP1 SWAP2 SUB SWAP1 KECCAK256 PUSH1 0x4 ADD PUSH1 0x0 SWAP1 SLOAD SWAP1 PUSH2 0x100 EXP SWAP1 DIV PUSH4 0xFFFFFFFF AND PUSH4 0xFFFFFFFF AND PUSH2 0x2923 SWAP2 SWAP1 PUSH2 0x39A3 JUMP JUMPDEST SWAP1 POP DUP1 PUSH1 0xC DUP6 DUP5 DUP2 MLOAD DUP2 LT PUSH2 0x293B JUMPI PUSH2 0x293A PUSH2 0x3B19 JUMP JUMPDEST JUMPDEST PUSH1 0x20 MUL PUSH1 0x20 ADD ADD MLOAD PUSH1 0x40 MLOAD PUSH2 0x2950 SWAP2 SWAP1 PUSH2 0x385F JUMP JUMPDEST SWAP1 DUP2 MSTORE PUSH1 0x20 ADD PUSH1 0x40 MLOAD DUP1 SWAP2 SUB SWAP1 KECCAK256 PUSH1 0x4 ADD PUSH1 0x0 SWAP1 SLOAD SWAP1 PUSH2 0x100 EXP SWAP1 DIV PUSH4 0xFFFFFFFF AND PUSH4 0xFFFFFFFF AND PUSH1 0xC DUP7 DUP6 DUP2 MLOAD DUP2 LT PUSH2 0x298D JUMPI PUSH2 0x298C PUSH2 0x3B19 JUMP JUMPDEST JUMPDEST PUSH1 0x20 MUL PUSH1 0x20 ADD ADD MLOAD PUSH1 0x40 MLOAD PUSH2 0x29A2 SWAP2 SWAP1 PUSH2 0x385F JUMP JUMPDEST SWAP1 DUP2 MSTORE PUSH1 0x20 ADD PUSH1 0x40 MLOAD DUP1 SWAP2 SUB SWAP1 KECCAK256 PUSH1 0x5 ADD SLOAD PUSH2 0x29BE SWAP2 SWAP1 PUSH2 0x3A06 JUMP JUMPDEST PUSH2 0x29C8 SWAP2 SWAP1 PUSH2 0x3A37 JUMP JUMPDEST DUP4 PUSH2 0x29D3 SWAP2 SWAP1 PUSH2 0x3A79 JUMP JUMPDEST SWAP3 POP POP PUSH2 0x2B41 JUMP JUMPDEST PUSH1 0x0 PUSH1 0xC DUP5 DUP4 DUP2 MLOAD DUP2 LT PUSH2 0x29F2 JUMPI PUSH2 0x29F1 PUSH2 0x3B19 JUMP JUMPDEST JUMPDEST PUSH1 0x20 MUL PUSH1 0x20 ADD ADD MLOAD PUSH1 0x40 MLOAD PUSH2 0x2A07 SWAP2 SWAP1 PUSH2 0x385F JUMP JUMPDEST SWAP1 DUP2 MSTORE PUSH1 0x20 ADD PUSH1 0x40 MLOAD DUP1 SWAP2 SUB SWAP1 KECCAK256 PUSH1 0x3 ADD SLOAD PUSH1 0x9 PUSH1 0x0 SWAP1 SLOAD SWAP1 PUSH2 0x100 EXP SWAP1 DIV PUSH4 0xFFFFFFFF AND PUSH4 0xFFFFFFFF AND PUSH1 0xC DUP7 DUP6 DUP2 MLOAD DUP2 LT PUSH2 0x2A47 JUMPI PUSH2 0x2A46 PUSH2 0x3B19 JUMP JUMPDEST JUMPDEST PUSH1 0x20 MUL PUSH1 0x20 ADD ADD MLOAD PUSH1 0x40 MLOAD PUSH2 0x2A5C SWAP2 SWAP1 PUSH2 0x385F JUMP JUMPDEST SWAP1 DUP2 MSTORE PUSH1 0x20 ADD PUSH1 0x40 MLOAD DUP1 SWAP2 SUB SWAP1 KECCAK256 PUSH1 0x1 ADD SLOAD TIMESTAMP PUSH2 0x2A79 SWAP2 SWAP1 PUSH2 0x39A3 JUMP JUMPDEST PUSH2 0x2A83 SWAP2 SWAP1 PUSH2 0x3A06 JUMP JUMPDEST PUSH2 0x2A8D SWAP2 SWAP1 PUSH2 0x39A3 JUMP JUMPDEST SWAP1 POP DUP1 PUSH1 0xC DUP6 DUP5 DUP2 MLOAD DUP2 LT PUSH2 0x2AA5 JUMPI PUSH2 0x2AA4 PUSH2 0x3B19 JUMP JUMPDEST JUMPDEST PUSH1 0x20 MUL PUSH1 0x20 ADD ADD MLOAD PUSH1 0x40 MLOAD PUSH2 0x2ABA SWAP2 SWAP1 PUSH2 0x385F JUMP JUMPDEST SWAP1 DUP2 MSTORE PUSH1 0x20 ADD PUSH1 0x40 MLOAD DUP1 SWAP2 SUB SWAP1 KECCAK256 PUSH1 0x4 ADD PUSH1 0x0 SWAP1 SLOAD SWAP1 PUSH2 0x100 EXP SWAP1 DIV PUSH4 0xFFFFFFFF AND PUSH4 0xFFFFFFFF AND PUSH1 0xC DUP7 DUP6 DUP2 MLOAD DUP2 LT PUSH2 0x2AF7 JUMPI PUSH2 0x2AF6 PUSH2 0x3B19 JUMP JUMPDEST JUMPDEST PUSH1 0x20 MUL PUSH1 0x20 ADD ADD MLOAD PUSH1 0x40 MLOAD PUSH2 0x2B0C SWAP2 SWAP1 PUSH2 0x385F JUMP JUMPDEST SWAP1 DUP2 MSTORE PUSH1 0x20 ADD PUSH1 0x40 MLOAD DUP1 SWAP2 SUB SWAP1 KECCAK256 PUSH1 0x5 ADD SLOAD PUSH2 0x2B28 SWAP2 SWAP1 PUSH2 0x3A06 JUMP JUMPDEST PUSH2 0x2B32 SWAP2 SWAP1 PUSH2 0x3A37 JUMP JUMPDEST DUP4 PUSH2 0x2B3D SWAP2 SWAP1 PUSH2 0x3A79 JUMP JUMPDEST SWAP3 POP POP JUMPDEST JUMPDEST DUP1 DUP1 PUSH2 0x2B4D SWAP1 PUSH2 0x3B48 JUMP JUMPDEST SWAP2 POP POP PUSH2 0x27F1 JUMP JUMPDEST POP DUP1 SWAP3 POP POP POP JUMPDEST SWAP1 JUMP JUMPDEST PUSH1 0x0 PUSH1 0xA PUSH1 0x0 CALLER PUSH20 0xFFFFFFFFFFFFFFFFFFFFFFFFFFFFFFFFFFFFFFFF AND PUSH20 0xFFFFFFFFFFFFFFFFFFFFFFFFFFFFFFFFFFFFFFFF AND DUP2 MSTORE PUSH1 0x20 ADD SWAP1 DUP2 MSTORE PUSH1 0x20 ADD PUSH1 0x0 KECCAK256 SLOAD GT PUSH2 0x2BAB JUMPI PUSH1 0x0 DUP1 REVERT JUMPDEST PUSH1 0x1 PUSH1 0x6 DUP3 PUSH1 0x40 MLOAD PUSH2 0x2BBD SWAP2 SWAP1 PUSH2 0x385F JUMP JUMPDEST SWAP1 DUP2 MSTORE PUSH1 0x20 ADD PUSH1 0x40 MLOAD DUP1 SWAP2 SUB SWAP1 KECCAK256 PUSH1 0x0 ADD PUSH1 0x14 SWAP1 SLOAD SWAP1 PUSH2 0x100 EXP SWAP1 DIV PUSH1 0xFF AND PUSH1 0xFF AND EQ PUSH2 0x2BE9 JUMPI PUSH1 0x0 DUP1 REVERT JUMPDEST PUSH1 0x2 PUSH1 0x6 DUP3 PUSH1 0x40 MLOAD PUSH2 0x2BFB SWAP2 SWAP1 PUSH2 0x385F JUMP JUMPDEST SWAP1 DUP2 MSTORE PUSH1 0x20 ADD PUSH1 0x40 MLOAD DUP1 SWAP2 SUB SWAP1 KECCAK256 PUSH1 0x0 ADD PUSH1 0x14 PUSH2 0x100 EXP DUP2 SLOAD DUP2 PUSH1 0xFF MUL NOT AND SWAP1 DUP4 PUSH1 0xFF AND MUL OR SWAP1 SSTORE POP POP JUMP JUMPDEST PUSH1 0x0 PUSH20 0xFFFFFFFFFFFFFFFFFFFFFFFFFFFFFFFFFFFFFFFF AND DUP4 PUSH20 0xFFFFFFFFFFFFFFFFFFFFFFFFFFFFFFFFFFFFFFFF AND SUB PUSH2 0x2C96 JUMPI PUSH1 0x40 MLOAD PUSH32 0x8C379A000000000000000000000000000000000000000000000000000000000 DUP2 MSTORE PUSH1 0x4 ADD PUSH2 0x2C8D SWAP1 PUSH2 0x406D JUMP JUMPDEST PUSH1 0x40 MLOAD DUP1 SWAP2 SUB SWAP1 REVERT JUMPDEST PUSH1 0x0 PUSH20 0xFFFFFFFFFFFFFFFFFFFFFFFFFFFFFFFFFFFFFFFF AND DUP3 PUSH20 0xFFFFFFFFFFFFFFFFFFFFFFFFFFFFFFFFFFFFFFFF AND SUB PUSH2 0x2D05 JUMPI PUSH1 0x40 MLOAD PUSH32 0x8C379A000000000000000000000000000000000000000000000000000000000 DUP2 MSTORE PUSH1 0x4 ADD PUSH2 0x2CFC SWAP1 PUSH2 0x40FF JUMP JUMPDEST PUSH1 0x40 MLOAD DUP1 SWAP2 SUB SWAP1 REVERT JUMPDEST PUSH1 0x0 PUSH1 0x4 PUSH1 0x0 DUP6 PUSH20 0xFFFFFFFFFFFFFFFFFFFFFFFFFFFFFFFFFFFFFFFF AND PUSH20 0xFFFFFFFFFFFFFFFFFFFFFFFFFFFFFFFFFFFFFFFF AND DUP2 MSTORE PUSH1 0x20 ADD SWAP1 DUP2 MSTORE PUSH1 0x20 ADD PUSH1 0x0 KECCAK256 SLOAD SWAP1 POP DUP2 DUP2 LT ISZERO PUSH2 0x2D8C JUMPI PUSH1 0x40 MLOAD PUSH32 0x8C379A000000000000000000000000000000000000000000000000000000000 DUP2 MSTORE PUSH1 0x4 ADD PUSH2 0x2D83 SWAP1 PUSH2 0x4191 JUMP JUMPDEST PUSH1 0x40 MLOAD DUP1 SWAP2 SUB SWAP1 REVERT JUMPDEST DUP2 DUP2 PUSH2 0x2D98 SWAP2 SWAP1 PUSH2 0x39A3 JUMP JUMPDEST PUSH1 0x4 PUSH1 0x0 DUP7 PUSH20 0xFFFFFFFFFFFFFFFFFFFFFFFFFFFFFFFFFFFFFFFF AND PUSH20 0xFFFFFFFFFFFFFFFFFFFFFFFFFFFFFFFFFFFFFFFF AND DUP2 MSTORE PUSH1 0x20 ADD SWAP1 DUP2 MSTORE PUSH1 0x20 ADD PUSH1 0x0 KECCAK256 DUP2 SWAP1 SSTORE POP DUP2 PUSH1 0x4 PUSH1 0x0 DUP6 PUSH20 0xFFFFFFFFFFFFFFFFFFFFFFFFFFFFFFFFFFFFFFFF AND PUSH20 0xFFFFFFFFFFFFFFFFFFFFFFFFFFFFFFFFFFFFFFFF AND DUP2 MSTORE PUSH1 0x20 ADD SWAP1 DUP2 MSTORE PUSH1 0x20 ADD PUSH1 0x0 KECCAK256 PUSH1 0x0 DUP3 DUP3 SLOAD PUSH2 0x2E2A SWAP2 SWAP1 PUSH2 0x3A79 JUMP JUMPDEST SWAP3 POP POP DUP2 SWAP1 SSTORE POP POP POP POP POP JUMP JUMPDEST PUSH1 0x40 MLOAD DUP1 PUSH2 0x140 ADD PUSH1 0x40 MSTORE DUP1 PUSH1 0x60 DUP2 MSTORE PUSH1 0x20 ADD PUSH1 0x0 DUP2 MSTORE PUSH1 0x20 ADD PUSH1 0x0 DUP2 MSTORE PUSH1 0x20 ADD PUSH1 0x0 DUP2 MSTORE PUSH1 0x20 ADD PUSH1 0x0 PUSH4 0xFFFFFFFF AND DUP2 MSTORE PUSH1 0x20 ADD PUSH1 0x0 DUP2 MSTORE PUSH1 0x20 ADD PUSH1 0x0 ISZERO ISZERO DUP2 MSTORE PUSH1 0x20 ADD PUSH1 0x0 ISZERO ISZERO DUP2 MSTORE PUSH1 0x20 ADD PUSH1 0x0 PUSH20 0xFFFFFFFFFFFFFFFFFFFFFFFFFFFFFFFFFFFFFFFF AND DUP2 MSTORE PUSH1 0x20 ADD PUSH1 0x0 PUSH20 0xFFFFFFFFFFFFFFFFFFFFFFFFFFFFFFFFFFFFFFFF AND DUP2 MSTORE POP SWAP1 JUMP JUMPDEST PUSH1 0x0 DUP2 MLOAD SWAP1 POP SWAP2 SWAP1 POP JUMP JUMPDEST PUSH1 0x0 DUP3 DUP3 MSTORE PUSH1 0x20 DUP3 ADD SWAP1 POP SWAP3 SWAP2 POP POP JUMP JUMPDEST PUSH1 0x0 JUMPDEST DUP4 DUP2 LT ISZERO PUSH2 0x2EFA JUMPI DUP1 DUP3 ADD MLOAD DUP2 DUP5 ADD MSTORE PUSH1 0x20 DUP2 ADD SWAP1 POP PUSH2 0x2EDF JUMP JUMPDEST PUSH1 0x0 DUP5 DUP5 ADD MSTORE POP POP POP POP JUMP JUMPDEST PUSH1 0x0 PUSH1 0x1F NOT PUSH1 0x1F DUP4 ADD AND SWAP1 POP SWAP2 SWAP1 POP JUMP JUMPDEST PUSH1 0x0 PUSH2 0x2F22 DUP3 PUSH2 0x2EC0 JUMP JUMPDEST PUSH2 0x2F2C DUP2 DUP6 PUSH2 0x2ECB JUMP JUMPDEST SWAP4 POP PUSH2 0x2F3C DUP2 DUP6 PUSH1 0x20 DUP7 ADD PUSH2 0x2EDC JUMP JUMPDEST PUSH2 0x2F45 DUP2 PUSH2 0x2F06 JUMP JUMPDEST DUP5 ADD SWAP2 POP POP SWAP3 SWAP2 POP POP JUMP JUMPDEST PUSH1 0x0 PUSH1 0x20 DUP3 ADD SWAP1 POP DUP2 DUP2 SUB PUSH1 0x0 DUP4 ADD MSTORE PUSH2 0x2F6A DUP2 DUP5 PUSH2 0x2F17 JUMP JUMPDEST SWAP1 POP SWAP3 SWAP2 POP POP JUMP JUMPDEST PUSH1 0x0 PUSH1 0x40 MLOAD SWAP1 POP SWAP1 JUMP JUMPDEST PUSH1 0x0 DUP1 REVERT JUMPDEST PUSH1 0x0 DUP1 REVERT JUMPDEST PUSH1 0x0 PUSH20 0xFFFFFFFFFFFFFFFFFFFFFFFFFFFFFFFFFFFFFFFF DUP3 AND SWAP1 POP SWAP2 SWAP1 POP JUMP JUMPDEST PUSH1 0x0 PUSH2 0x2FB1 DUP3 PUSH2 0x2F86 JUMP JUMPDEST SWAP1 POP SWAP2 SWAP1 POP JUMP JUMPDEST PUSH2 0x2FC1 DUP2 PUSH2 0x2FA6 JUMP JUMPDEST DUP2 EQ PUSH2 0x2FCC JUMPI PUSH1 0x0 DUP1 REVERT JUMPDEST POP JUMP JUMPDEST PUSH1 0x0 DUP2 CALLDATALOAD SWAP1 POP PUSH2 0x2FDE DUP2 PUSH2 0x2FB8 JUMP JUMPDEST SWAP3 SWAP2 POP POP JUMP JUMPDEST PUSH1 0x0 DUP2 SWAP1 POP SWAP2 SWAP1 POP JUMP JUMPDEST PUSH2 0x2FF7 DUP2 PUSH2 0x2FE4 JUMP JUMPDEST DUP2 EQ PUSH2 0x3002 JUMPI PUSH1 0x0 DUP1 REVERT JUMPDEST POP JUMP JUMPDEST PUSH1 0x0 DUP2 CALLDATALOAD SWAP1 POP PUSH2 0x3014 DUP2 PUSH2 0x2FEE JUMP JUMPDEST SWAP3 SWAP2 POP POP JUMP JUMPDEST PUSH1 0x0 DUP1 PUSH1 0x40 DUP4 DUP6 SUB SLT ISZERO PUSH2 0x3031 JUMPI PUSH2 0x3030 PUSH2 0x2F7C JUMP JUMPDEST JUMPDEST PUSH1 0x0 PUSH2 0x303F DUP6 DUP3 DUP7 ADD PUSH2 0x2FCF JUMP JUMPDEST SWAP3 POP POP PUSH1 0x20 PUSH2 0x3050 DUP6 DUP3 DUP7 ADD PUSH2 0x3005 JUMP JUMPDEST SWAP2 POP POP SWAP3 POP SWAP3 SWAP1 POP JUMP JUMPDEST PUSH1 0x0 DUP2 ISZERO ISZERO SWAP1 POP SWAP2 SWAP1 POP JUMP JUMPDEST PUSH2 0x306F DUP2 PUSH2 0x305A JUMP JUMPDEST DUP3 MSTORE POP POP JUMP JUMPDEST PUSH1 0x0 PUSH1 0x20 DUP3 ADD SWAP1 POP PUSH2 0x308A PUSH1 0x0 DUP4 ADD DUP5 PUSH2 0x3066 JUMP JUMPDEST SWAP3 SWAP2 POP POP JUMP JUMPDEST PUSH2 0x3099 DUP2 PUSH2 0x2FE4 JUMP JUMPDEST DUP3 MSTORE POP POP JUMP JUMPDEST PUSH1 0x0 PUSH1 0x20 DUP3 ADD SWAP1 POP PUSH2 0x30B4 PUSH1 0x0 DUP4 ADD DUP5 PUSH2 0x3090 JUMP JUMPDEST SWAP3 SWAP2 POP POP JUMP JUMPDEST PUSH1 0x0 PUSH1 0x20 DUP3 DUP5 SUB SLT ISZERO PUSH2 0x30D0 JUMPI PUSH2 0x30CF PUSH2 0x2F7C JUMP JUMPDEST JUMPDEST PUSH1 0x0 PUSH2 0x30DE DUP5 DUP3 DUP6 ADD PUSH2 0x2FCF JUMP JUMPDEST SWAP2 POP POP SWAP3 SWAP2 POP POP JUMP JUMPDEST PUSH1 0x0 DUP2 MLOAD SWAP1 POP SWAP2 SWAP1 POP JUMP JUMPDEST PUSH1 0x0 DUP3 DUP3 MSTORE PUSH1 0x20 DUP3 ADD SWAP1 POP SWAP3 SWAP2 POP POP JUMP JUMPDEST PUSH1 0x0 DUP2 SWAP1 POP PUSH1 0x20 DUP3 ADD SWAP1 POP SWAP2 SWAP1 POP JUMP JUMPDEST PUSH1 0x0 DUP3 DUP3 MSTORE PUSH1 0x20 DUP3 ADD SWAP1 POP SWAP3 SWAP2 POP POP JUMP JUMPDEST PUSH1 0x0 PUSH2 0x312F DUP3 PUSH2 0x2EC0 JUMP JUMPDEST PUSH2 0x3139 DUP2 DUP6 PUSH2 0x3113 JUMP JUMPDEST SWAP4 POP PUSH2 0x3149 DUP2 DUP6 PUSH1 0x20 DUP7 ADD PUSH2 0x2EDC JUMP JUMPDEST PUSH2 0x3152 DUP2 PUSH2 0x2F06 JUMP JUMPDEST DUP5 ADD SWAP2 POP POP SWAP3 SWAP2 POP POP JUMP JUMPDEST PUSH1 0x0 PUSH2 0x3169 DUP4 DUP4 PUSH2 0x3124 JUMP JUMPDEST SWAP1 POP SWAP3 SWAP2 POP POP JUMP JUMPDEST PUSH1 0x0 PUSH1 0x20 DUP3 ADD SWAP1 POP SWAP2 SWAP1 POP JUMP JUMPDEST PUSH1 0x0 PUSH2 0x3189 DUP3 PUSH2 0x30E7 JUMP JUMPDEST PUSH2 0x3193 DUP2 DUP6 PUSH2 0x30F2 JUMP JUMPDEST SWAP4 POP DUP4 PUSH1 0x20 DUP3 MUL DUP6 ADD PUSH2 0x31A5 DUP6 PUSH2 0x3103 JUMP JUMPDEST DUP1 PUSH1 0x0 JUMPDEST DUP6 DUP2 LT ISZERO PUSH2 0x31E1 JUMPI DUP5 DUP5 SUB DUP10 MSTORE DUP2 MLOAD PUSH2 0x31C2 DUP6 DUP3 PUSH2 0x315D JUMP JUMPDEST SWAP5 POP PUSH2 0x31CD DUP4 PUSH2 0x3171 JUMP JUMPDEST SWAP3 POP PUSH1 0x20 DUP11 ADD SWAP10 POP POP PUSH1 0x1 DUP2 ADD SWAP1 POP PUSH2 0x31A9 JUMP JUMPDEST POP DUP3 SWAP8 POP DUP8 SWAP6 POP POP POP POP POP POP SWAP3 SWAP2 POP POP JUMP JUMPDEST PUSH1 0x0 PUSH1 0x20 DUP3 ADD SWAP1 POP DUP2 DUP2 SUB PUSH1 0x0 DUP4 ADD MSTORE PUSH2 0x320D DUP2 DUP5 PUSH2 0x317E JUMP JUMPDEST SWAP1 POP SWAP3 SWAP2 POP POP JUMP JUMPDEST PUSH1 0x0 DUP1 REVERT JUMPDEST PUSH1 0x0 DUP1 REVERT JUMPDEST PUSH32 0x4E487B7100000000000000000000000000000000000000000000000000000000 PUSH1 0x0 MSTORE PUSH1 0x41 PUSH1 0x4 MSTORE PUSH1 0x24 PUSH1 0x0 REVERT JUMPDEST PUSH2 0x3257 DUP3 PUSH2 0x2F06 JUMP JUMPDEST DUP2 ADD DUP2 DUP2 LT PUSH8 0xFFFFFFFFFFFFFFFF DUP3 GT OR ISZERO PUSH2 0x3276 JUMPI PUSH2 0x3275 PUSH2 0x321F JUMP JUMPDEST JUMPDEST DUP1 PUSH1 0x40 MSTORE POP POP POP JUMP JUMPDEST PUSH1 0x0 PUSH2 0x3289 PUSH2 0x2F72 JUMP JUMPDEST SWAP1 POP PUSH2 0x3295 DUP3 DUP3 PUSH2 0x324E JUMP JUMPDEST SWAP2 SWAP1 POP JUMP JUMPDEST PUSH1 0x0 PUSH8 0xFFFFFFFFFFFFFFFF DUP3 GT ISZERO PUSH2 0x32B5 JUMPI PUSH2 0x32B4 PUSH2 0x321F JUMP JUMPDEST JUMPDEST PUSH2 0x32BE DUP3 PUSH2 0x2F06 JUMP JUMPDEST SWAP1 POP PUSH1 0x20 DUP2 ADD SWAP1 POP SWAP2 SWAP1 POP JUMP JUMPDEST DUP3 DUP2 DUP4 CALLDATACOPY PUSH1 0x0 DUP4 DUP4 ADD MSTORE POP POP POP JUMP JUMPDEST PUSH1 0x0 PUSH2 0x32ED PUSH2 0x32E8 DUP5 PUSH2 0x329A JUMP JUMPDEST PUSH2 0x327F JUMP JUMPDEST SWAP1 POP DUP3 DUP2 MSTORE PUSH1 0x20 DUP2 ADD DUP5 DUP5 DUP5 ADD GT ISZERO PUSH2 0x3309 JUMPI PUSH2 0x3308 PUSH2 0x321A JUMP JUMPDEST JUMPDEST PUSH2 0x3314 DUP5 DUP3 DUP6 PUSH2 0x32CB JUMP JUMPDEST POP SWAP4 SWAP3 POP POP POP JUMP JUMPDEST PUSH1 0x0 DUP3 PUSH1 0x1F DUP4 ADD SLT PUSH2 0x3331 JUMPI PUSH2 0x3330 PUSH2 0x3215 JUMP JUMPDEST JUMPDEST DUP2 CALLDATALOAD PUSH2 0x3341 DUP5 DUP3 PUSH1 0x20 DUP7 ADD PUSH2 0x32DA JUMP JUMPDEST SWAP2 POP POP SWAP3 SWAP2 POP POP JUMP JUMPDEST PUSH1 0x0 PUSH1 0x20 DUP3 DUP5 SUB SLT ISZERO PUSH2 0x3360 JUMPI PUSH2 0x335F PUSH2 0x2F7C JUMP JUMPDEST JUMPDEST PUSH1 0x0 DUP3 ADD CALLDATALOAD PUSH8 0xFFFFFFFFFFFFFFFF DUP2 GT ISZERO PUSH2 0x337E JUMPI PUSH2 0x337D PUSH2 0x2F81 JUMP JUMPDEST JUMPDEST PUSH2 0x338A DUP5 DUP3 DUP6 ADD PUSH2 0x331C JUMP JUMPDEST SWAP2 POP POP SWAP3 SWAP2 POP POP JUMP JUMPDEST PUSH1 0x0 PUSH1 0xFF DUP3 AND SWAP1 POP SWAP2 SWAP1 POP JUMP JUMPDEST PUSH2 0x33A9 DUP2 PUSH2 0x3393 JUMP JUMPDEST DUP3 MSTORE POP POP JUMP JUMPDEST PUSH1 0x0 PUSH1 0x20 DUP3 ADD SWAP1 POP PUSH2 0x33C4 PUSH1 0x0 DUP4 ADD DUP5 PUSH2 0x33A0 JUMP JUMPDEST SWAP3 SWAP2 POP POP JUMP JUMPDEST PUSH1 0x0 PUSH4 0xFFFFFFFF DUP3 AND SWAP1 POP SWAP2 SWAP1 POP JUMP JUMPDEST PUSH2 0x33E3 DUP2 PUSH2 0x33CA JUMP JUMPDEST DUP2 EQ PUSH2 0x33EE JUMPI PUSH1 0x0 DUP1 REVERT JUMPDEST POP JUMP JUMPDEST PUSH1 0x0 DUP2 CALLDATALOAD SWAP1 POP PUSH2 0x3400 DUP2 PUSH2 0x33DA JUMP JUMPDEST SWAP3 SWAP2 POP POP JUMP JUMPDEST PUSH1 0x0 DUP1 PUSH1 0x0 DUP1 PUSH1 0x0 PUSH1 0xA0 DUP7 DUP9 SUB SLT ISZERO PUSH2 0x3422 JUMPI PUSH2 0x3421 PUSH2 0x2F7C JUMP JUMPDEST JUMPDEST PUSH1 0x0 DUP7 ADD CALLDATALOAD PUSH8 0xFFFFFFFFFFFFFFFF DUP2 GT ISZERO PUSH2 0x3440 JUMPI PUSH2 0x343F PUSH2 0x2F81 JUMP JUMPDEST JUMPDEST PUSH2 0x344C DUP9 DUP3 DUP10 ADD PUSH2 0x331C JUMP JUMPDEST SWAP6 POP POP PUSH1 0x20 PUSH2 0x345D DUP9 DUP3 DUP10 ADD PUSH2 0x33F1 JUMP JUMPDEST SWAP5 POP POP PUSH1 0x40 DUP7 ADD CALLDATALOAD PUSH8 0xFFFFFFFFFFFFFFFF DUP2 GT ISZERO PUSH2 0x347E JUMPI PUSH2 0x347D PUSH2 0x2F81 JUMP JUMPDEST JUMPDEST PUSH2 0x348A DUP9 DUP3 DUP10 ADD PUSH2 0x331C JUMP JUMPDEST SWAP4 POP POP PUSH1 0x60 PUSH2 0x349B DUP9 DUP3 DUP10 ADD PUSH2 0x3005 JUMP JUMPDEST SWAP3 POP POP PUSH1 0x80 PUSH2 0x34AC DUP9 DUP3 DUP10 ADD PUSH2 0x2FCF JUMP JUMPDEST SWAP2 POP POP SWAP3 SWAP6 POP SWAP3 SWAP6 SWAP1 SWAP4 POP JUMP JUMPDEST PUSH2 0x34C2 DUP2 PUSH2 0x3393 JUMP JUMPDEST DUP2 EQ PUSH2 0x34CD JUMPI PUSH1 0x0 DUP1 REVERT JUMPDEST POP JUMP JUMPDEST PUSH1 0x0 DUP2 CALLDATALOAD SWAP1 POP PUSH2 0x34DF DUP2 PUSH2 0x34B9 JUMP JUMPDEST SWAP3 SWAP2 POP POP JUMP JUMPDEST PUSH1 0x0 DUP1 PUSH1 0x0 PUSH1 0x60 DUP5 DUP7 SUB SLT ISZERO PUSH2 0x34FE JUMPI PUSH2 0x34FD PUSH2 0x2F7C JUMP JUMPDEST JUMPDEST PUSH1 0x0 PUSH2 0x350C DUP7 DUP3 DUP8 ADD PUSH2 0x34D0 JUMP JUMPDEST SWAP4 POP POP PUSH1 0x20 PUSH2 0x351D DUP7 DUP3 DUP8 ADD PUSH2 0x2FCF JUMP JUMPDEST SWAP3 POP POP PUSH1 0x40 PUSH2 0x352E DUP7 DUP3 DUP8 ADD PUSH2 0x3005 JUMP JUMPDEST SWAP2 POP POP SWAP3 POP SWAP3 POP SWAP3 JUMP JUMPDEST PUSH1 0x0 PUSH1 0x20 DUP3 DUP5 SUB SLT ISZERO PUSH2 0x354E JUMPI PUSH2 0x354D PUSH2 0x2F7C JUMP JUMPDEST JUMPDEST PUSH1 0x0 PUSH2 0x355C DUP5 DUP3 DUP6 ADD PUSH2 0x34D0 JUMP JUMPDEST SWAP2 POP POP SWAP3 SWAP2 POP POP JUMP JUMPDEST PUSH1 0x0 PUSH1 0x40 DUP3 ADD SWAP1 POP PUSH2 0x357A PUSH1 0x0 DUP4 ADD DUP6 PUSH2 0x3066 JUMP JUMPDEST PUSH2 0x3587 PUSH1 0x20 DUP4 ADD DUP5 PUSH2 0x3066 JUMP JUMPDEST SWAP4 SWAP3 POP POP POP JUMP JUMPDEST PUSH2 0x3597 DUP2 PUSH2 0x2FE4 JUMP JUMPDEST DUP3 MSTORE POP POP JUMP JUMPDEST PUSH2 0x35A6 DUP2 PUSH2 0x33CA JUMP JUMPDEST DUP3 MSTORE POP POP JUMP JUMPDEST PUSH2 0x35B5 DUP2 PUSH2 0x305A JUMP JUMPDEST DUP3 MSTORE POP POP JUMP JUMPDEST PUSH2 0x35C4 DUP2 PUSH2 0x2FA6 JUMP JUMPDEST DUP3 MSTORE POP POP JUMP JUMPDEST PUSH1 0x0 PUSH2 0x140 DUP4 ADD PUSH1 0x0 DUP4 ADD MLOAD DUP5 DUP3 SUB PUSH1 0x0 DUP7 ADD MSTORE PUSH2 0x35E8 DUP3 DUP3 PUSH2 0x3124 JUMP JUMPDEST SWAP2 POP POP PUSH1 0x20 DUP4 ADD MLOAD PUSH2 0x35FD PUSH1 0x20 DUP7 ADD DUP3 PUSH2 0x358E JUMP JUMPDEST POP PUSH1 0x40 DUP4 ADD MLOAD PUSH2 0x3610 PUSH1 0x40 DUP7 ADD DUP3 PUSH2 0x358E JUMP JUMPDEST POP PUSH1 0x60 DUP4 ADD MLOAD PUSH2 0x3623 PUSH1 0x60 DUP7 ADD DUP3 PUSH2 0x358E JUMP JUMPDEST POP PUSH1 0x80 DUP4 ADD MLOAD PUSH2 0x3636 PUSH1 0x80 DUP7 ADD DUP3 PUSH2 0x359D JUMP JUMPDEST POP PUSH1 0xA0 DUP4 ADD MLOAD PUSH2 0x3649 PUSH1 0xA0 DUP7 ADD DUP3 PUSH2 0x358E JUMP JUMPDEST POP PUSH1 0xC0 DUP4 ADD MLOAD PUSH2 0x365C PUSH1 0xC0 DUP7 ADD DUP3 PUSH2 0x35AC JUMP JUMPDEST POP PUSH1 0xE0 DUP4 ADD MLOAD PUSH2 0x366F PUSH1 0xE0 DUP7 ADD DUP3 PUSH2 0x35AC JUMP JUMPDEST POP PUSH2 0x100 DUP4 ADD MLOAD PUSH2 0x3684 PUSH2 0x100 DUP7 ADD DUP3 PUSH2 0x35BB JUMP JUMPDEST POP PUSH2 0x120 DUP4 ADD MLOAD PUSH2 0x3699 PUSH2 0x120 DUP7 ADD DUP3 PUSH2 0x35BB JUMP JUMPDEST POP DUP1 SWAP2 POP POP SWAP3 SWAP2 POP POP JUMP JUMPDEST PUSH1 0x0 PUSH1 0x20 DUP3 ADD SWAP1 POP DUP2 DUP2 SUB PUSH1 0x0 DUP4 ADD MSTORE PUSH2 0x36BE DUP2 DUP5 PUSH2 0x35CA JUMP JUMPDEST SWAP1 POP SWAP3 SWAP2 POP POP JUMP JUMPDEST PUSH1 0x0 DUP1 PUSH1 0x40 DUP4 DUP6 SUB SLT ISZERO PUSH2 0x36DD JUMPI PUSH2 0x36DC PUSH2 0x2F7C JUMP JUMPDEST JUMPDEST PUSH1 0x0 DUP4 ADD CALLDATALOAD PUSH8 0xFFFFFFFFFFFFFFFF DUP2 GT ISZERO PUSH2 0x36FB JUMPI PUSH2 0x36FA PUSH2 0x2F81 JUMP JUMPDEST JUMPDEST PUSH2 0x3707 DUP6 DUP3 DUP7 ADD PUSH2 0x331C JUMP JUMPDEST SWAP3 POP POP PUSH1 0x20 PUSH2 0x3718 DUP6 DUP3 DUP7 ADD PUSH2 0x2FCF JUMP JUMPDEST SWAP2 POP POP SWAP3 POP SWAP3 SWAP1 POP JUMP JUMPDEST PUSH2 0x372B DUP2 PUSH2 0x2FA6 JUMP JUMPDEST DUP3 MSTORE POP POP JUMP JUMPDEST PUSH1 0x0 PUSH1 0x40 DUP3 ADD SWAP1 POP PUSH2 0x3746 PUSH1 0x0 DUP4 ADD DUP6 PUSH2 0x3722 JUMP JUMPDEST PUSH2 0x3753 PUSH1 0x20 DUP4 ADD DUP5 PUSH2 0x33A0 JUMP JUMPDEST SWAP4 SWAP3 POP POP POP JUMP JUMPDEST PUSH1 0x0 DUP1 PUSH1 0x40 DUP4 DUP6 SUB SLT ISZERO PUSH2 0x3771 JUMPI PUSH2 0x3770 PUSH2 0x2F7C JUMP JUMPDEST JUMPDEST PUSH1 0x0 PUSH2 0x377F DUP6 DUP3 DUP7 ADD PUSH2 0x2FCF JUMP JUMPDEST SWAP3 POP POP PUSH1 0x20 PUSH2 0x3790 DUP6 DUP3 DUP7 ADD PUSH2 0x2FCF JUMP JUMPDEST SWAP2 POP POP SWAP3 POP SWAP3 SWAP1 POP JUMP JUMPDEST PUSH1 0x0 PUSH1 0x40 DUP3 ADD SWAP1 POP PUSH2 0x37AF PUSH1 0x0 DUP4 ADD DUP6 PUSH2 0x3090 JUMP JUMPDEST PUSH2 0x37BC PUSH1 0x20 DUP4 ADD DUP5 PUSH2 0x3090 JUMP JUMPDEST SWAP4 SWAP3 POP POP POP JUMP JUMPDEST PUSH32 0x4E487B7100000000000000000000000000000000000000000000000000000000 PUSH1 0x0 MSTORE PUSH1 0x22 PUSH1 0x4 MSTORE PUSH1 0x24 PUSH1 0x0 REVERT JUMPDEST PUSH1 0x0 PUSH1 0x2 DUP3 DIV SWAP1 POP PUSH1 0x1 DUP3 AND DUP1 PUSH2 0x380A JUMPI PUSH1 0x7F DUP3 AND SWAP2 POP JUMPDEST PUSH1 0x20 DUP3 LT DUP2 SUB PUSH2 0x381D JUMPI PUSH2 0x381C PUSH2 0x37C3 JUMP JUMPDEST JUMPDEST POP SWAP2 SWAP1 POP JUMP JUMPDEST PUSH1 0x0 DUP2 SWAP1 POP SWAP3 SWAP2 POP POP JUMP JUMPDEST PUSH1 0x0 PUSH2 0x3839 DUP3 PUSH2 0x2EC0 JUMP JUMPDEST PUSH2 0x3843 DUP2 DUP6 PUSH2 0x3823 JUMP JUMPDEST SWAP4 POP PUSH2 0x3853 DUP2 DUP6 PUSH1 0x20 DUP7 ADD PUSH2 0x2EDC JUMP JUMPDEST DUP1 DUP5 ADD SWAP2 POP POP SWAP3 SWAP2 POP POP JUMP JUMPDEST PUSH1 0x0 PUSH2 0x386B DUP3 DUP5 PUSH2 0x382E JUMP JUMPDEST SWAP2 POP DUP2 SWAP1 POP SWAP3 SWAP2 POP POP JUMP JUMPDEST PUSH32 0x546865206F7264657220686173206265656E2077697468647261776E00000000 PUSH1 0x0 DUP3 ADD MSTORE POP JUMP JUMPDEST PUSH1 0x0 PUSH2 0x38AC PUSH1 0x1C DUP4 PUSH2 0x2ECB JUMP JUMPDEST SWAP2 POP PUSH2 0x38B7 DUP3 PUSH2 0x3876 JUMP JUMPDEST PUSH1 0x20 DUP3 ADD SWAP1 POP SWAP2 SWAP1 POP JUMP JUMPDEST PUSH1 0x0 PUSH1 0x20 DUP3 ADD SWAP1 POP DUP2 DUP2 SUB PUSH1 0x0 DUP4 ADD MSTORE PUSH2 0x38DB DUP2 PUSH2 0x389F JUMP JUMPDEST SWAP1 POP SWAP2 SWAP1 POP JUMP JUMPDEST PUSH32 0x506C6561736520636F6E6669726D207468652077616C6C657420616464726573 PUSH1 0x0 DUP3 ADD MSTORE PUSH32 0x732C2043616E206E6F7420776974686472617700000000000000000000000000 PUSH1 0x20 DUP3 ADD MSTORE POP JUMP JUMPDEST PUSH1 0x0 PUSH2 0x393E PUSH1 0x33 DUP4 PUSH2 0x2ECB JUMP JUMPDEST SWAP2 POP PUSH2 0x3949 DUP3 PUSH2 0x38E2 JUMP JUMPDEST PUSH1 0x40 DUP3 ADD SWAP1 POP SWAP2 SWAP1 POP JUMP JUMPDEST PUSH1 0x0 PUSH1 0x20 DUP3 ADD SWAP1 POP DUP2 DUP2 SUB PUSH1 0x0 DUP4 ADD MSTORE PUSH2 0x396D DUP2 PUSH2 0x3931 JUMP JUMPDEST SWAP1 POP SWAP2 SWAP1 POP JUMP JUMPDEST PUSH32 0x4E487B7100000000000000000000000000000000000000000000000000000000 PUSH1 0x0 MSTORE PUSH1 0x11 PUSH1 0x4 MSTORE PUSH1 0x24 PUSH1 0x0 REVERT JUMPDEST PUSH1 0x0 PUSH2 0x39AE DUP3 PUSH2 0x2FE4 JUMP JUMPDEST SWAP2 POP PUSH2 0x39B9 DUP4 PUSH2 0x2FE4 JUMP JUMPDEST SWAP3 POP DUP3 DUP3 SUB SWAP1 POP DUP2 DUP2 GT ISZERO PUSH2 0x39D1 JUMPI PUSH2 0x39D0 PUSH2 0x3974 JUMP JUMPDEST JUMPDEST SWAP3 SWAP2 POP POP JUMP JUMPDEST PUSH32 0x4E487B7100000000000000000000000000000000000000000000000000000000 PUSH1 0x0 MSTORE PUSH1 0x12 PUSH1 0x4 MSTORE PUSH1 0x24 PUSH1 0x0 REVERT JUMPDEST PUSH1 0x0 PUSH2 0x3A11 DUP3 PUSH2 0x2FE4 JUMP JUMPDEST SWAP2 POP PUSH2 0x3A1C DUP4 PUSH2 0x2FE4 JUMP JUMPDEST SWAP3 POP DUP3 PUSH2 0x3A2C JUMPI PUSH2 0x3A2B PUSH2 0x39D7 JUMP JUMPDEST JUMPDEST DUP3 DUP3 DIV SWAP1 POP SWAP3 SWAP2 POP POP JUMP JUMPDEST PUSH1 0x0 PUSH2 0x3A42 DUP3 PUSH2 0x2FE4 JUMP JUMPDEST SWAP2 POP PUSH2 0x3A4D DUP4 PUSH2 0x2FE4 JUMP JUMPDEST SWAP3 POP DUP3 DUP3 MUL PUSH2 0x3A5B DUP2 PUSH2 0x2FE4 JUMP JUMPDEST SWAP2 POP DUP3 DUP3 DIV DUP5 EQ DUP4 ISZERO OR PUSH2 0x3A72 JUMPI PUSH2 0x3A71 PUSH2 0x3974 JUMP JUMPDEST JUMPDEST POP SWAP3 SWAP2 POP POP JUMP JUMPDEST PUSH1 0x0 PUSH2 0x3A84 DUP3 PUSH2 0x2FE4 JUMP JUMPDEST SWAP2 POP PUSH2 0x3A8F DUP4 PUSH2 0x2FE4 JUMP JUMPDEST SWAP3 POP DUP3 DUP3 ADD SWAP1 POP DUP1 DUP3 GT ISZERO PUSH2 0x3AA7 JUMPI PUSH2 0x3AA6 PUSH2 0x3974 JUMP JUMPDEST JUMPDEST SWAP3 SWAP2 POP POP JUMP JUMPDEST PUSH32 0x4E6F74206465706F736974730000000000000000000000000000000000000000 PUSH1 0x0 DUP3 ADD MSTORE POP JUMP JUMPDEST PUSH1 0x0 PUSH2 0x3AE3 PUSH1 0xC DUP4 PUSH2 0x2ECB JUMP JUMPDEST SWAP2 POP PUSH2 0x3AEE DUP3 PUSH2 0x3AAD JUMP JUMPDEST PUSH1 0x20 DUP3 ADD SWAP1 POP SWAP2 SWAP1 POP JUMP JUMPDEST PUSH1 0x0 PUSH1 0x20 DUP3 ADD SWAP1 POP DUP2 DUP2 SUB PUSH1 0x0 DUP4 ADD MSTORE PUSH2 0x3B12 DUP2 PUSH2 0x3AD6 JUMP JUMPDEST SWAP1 POP SWAP2 SWAP1 POP JUMP JUMPDEST PUSH32 0x4E487B7100000000000000000000000000000000000000000000000000000000 PUSH1 0x0 MSTORE PUSH1 0x32 PUSH1 0x4 MSTORE PUSH1 0x24 PUSH1 0x0 REVERT JUMPDEST PUSH1 0x0 PUSH2 0x3B53 DUP3 PUSH2 0x2FE4 JUMP JUMPDEST SWAP2 POP PUSH32 0xFFFFFFFFFFFFFFFFFFFFFFFFFFFFFFFFFFFFFFFFFFFFFFFFFFFFFFFFFFFFFFFF DUP3 SUB PUSH2 0x3B85 JUMPI PUSH2 0x3B84 PUSH2 0x3974 JUMP JUMPDEST JUMPDEST PUSH1 0x1 DUP3 ADD SWAP1 POP SWAP2 SWAP1 POP JUMP JUMPDEST PUSH32 0x416C726561647920706169640000000000000000000000000000000000000000 PUSH1 0x0 DUP3 ADD MSTORE POP JUMP JUMPDEST PUSH1 0x0 PUSH2 0x3BC6 PUSH1 0xC DUP4 PUSH2 0x2ECB JUMP JUMPDEST SWAP2 POP PUSH2 0x3BD1 DUP3 PUSH2 0x3B90 JUMP JUMPDEST PUSH1 0x20 DUP3 ADD SWAP1 POP SWAP2 SWAP1 POP JUMP JUMPDEST PUSH1 0x0 PUSH1 0x20 DUP3 ADD SWAP1 POP DUP2 DUP2 SUB PUSH1 0x0 DUP4 ADD MSTORE PUSH2 0x3BF5 DUP2 PUSH2 0x3BB9 JUMP JUMPDEST SWAP1 POP SWAP2 SWAP1 POP JUMP JUMPDEST PUSH32 0x4E6F7420656E6F75676820435344000000000000000000000000000000000000 PUSH1 0x0 DUP3 ADD MSTORE POP JUMP JUMPDEST PUSH1 0x0 PUSH2 0x3C32 PUSH1 0xE DUP4 PUSH2 0x2ECB JUMP JUMPDEST SWAP2 POP PUSH2 0x3C3D DUP3 PUSH2 0x3BFC JUMP JUMPDEST PUSH1 0x20 DUP3 ADD SWAP1 POP SWAP2 SWAP1 POP JUMP JUMPDEST PUSH1 0x0 PUSH1 0x20 DUP3 ADD SWAP1 POP DUP2 DUP2 SUB PUSH1 0x0 DUP4 ADD MSTORE PUSH2 0x3C61 DUP2 PUSH2 0x3C25 JUMP JUMPDEST SWAP1 POP SWAP2 SWAP1 POP JUMP JUMPDEST PUSH1 0x0 PUSH2 0x3C73 DUP3 PUSH2 0x33CA JUMP JUMPDEST SWAP2 POP PUSH2 0x3C7E DUP4 PUSH2 0x33CA JUMP JUMPDEST SWAP3 POP DUP3 DUP3 MUL PUSH2 0x3C8C DUP2 PUSH2 0x33CA JUMP JUMPDEST SWAP2 POP DUP1 DUP3 EQ PUSH2 0x3C9E JUMPI PUSH2 0x3C9D PUSH2 0x3974 JUMP JUMPDEST JUMPDEST POP SWAP3 SWAP2 POP POP JUMP JUMPDEST PUSH1 0x0 DUP2 SWAP1 POP DUP2 PUSH1 0x0 MSTORE PUSH1 0x20 PUSH1 0x0 KECCAK256 SWAP1 POP SWAP2 SWAP1 POP JUMP JUMPDEST PUSH1 0x0 PUSH1 0x20 PUSH1 0x1F DUP4 ADD DIV SWAP1 POP SWAP2 SWAP1 POP JUMP JUMPDEST PUSH1 0x0 DUP3 DUP3 SHL SWAP1 POP SWAP3 SWAP2 POP POP JUMP JUMPDEST PUSH1 0x0 PUSH1 0x8 DUP4 MUL PUSH2 0x3D07 PUSH32 0xFFFFFFFFFFFFFFFFFFFFFFFFFFFFFFFFFFFFFFFFFFFFFFFFFFFFFFFFFFFFFFFF DUP3 PUSH2 0x3CCA JUMP JUMPDEST PUSH2 0x3D11 DUP7 DUP4 PUSH2 0x3CCA JUMP JUMPDEST SWAP6 POP DUP1 NOT DUP5 AND SWAP4 POP DUP1 DUP7 AND DUP5 OR SWAP3 POP POP POP SWAP4 SWAP3 POP POP POP JUMP JUMPDEST PUSH1 0x0 DUP2 SWAP1 POP SWAP2 SWAP1 POP JUMP JUMPDEST PUSH1 0x0 PUSH2 0x3D4E PUSH2 0x3D49 PUSH2 0x3D44 DUP5 PUSH2 0x2FE4 JUMP JUMPDEST PUSH2 0x3D29 JUMP JUMPDEST PUSH2 0x2FE4 JUMP JUMPDEST SWAP1 POP SWAP2 SWAP1 POP JUMP JUMPDEST PUSH1 0x0 DUP2 SWAP1 POP SWAP2 SWAP1 POP JUMP JUMPDEST PUSH2 0x3D68 DUP4 PUSH2 0x3D33 JUMP JUMPDEST PUSH2 0x3D7C PUSH2 0x3D74 DUP3 PUSH2 0x3D55 JUMP JUMPDEST DUP5 DUP5 SLOAD PUSH2 0x3CD7 JUMP JUMPDEST DUP3 SSTORE POP POP POP POP JUMP JUMPDEST PUSH1 0x0 SWAP1 JUMP JUMPDEST PUSH2 0x3D91 PUSH2 0x3D84 JUMP JUMPDEST PUSH2 0x3D9C DUP2 DUP5 DUP5 PUSH2 0x3D5F JUMP JUMPDEST POP POP POP JUMP JUMPDEST JUMPDEST DUP2 DUP2 LT ISZERO PUSH2 0x3DC0 JUMPI PUSH2 0x3DB5 PUSH1 0x0 DUP3 PUSH2 0x3D89 JUMP JUMPDEST PUSH1 0x1 DUP2 ADD SWAP1 POP PUSH2 0x3DA2 JUMP JUMPDEST POP POP JUMP JUMPDEST PUSH1 0x1F DUP3 GT ISZERO PUSH2 0x3E05 JUMPI PUSH2 0x3DD6 DUP2 PUSH2 0x3CA5 JUMP JUMPDEST PUSH2 0x3DDF DUP5 PUSH2 0x3CBA JUMP JUMPDEST DUP2 ADD PUSH1 0x20 DUP6 LT ISZERO PUSH2 0x3DEE JUMPI DUP2 SWAP1 POP JUMPDEST PUSH2 0x3E02 PUSH2 0x3DFA DUP6 PUSH2 0x3CBA JUMP JUMPDEST DUP4 ADD DUP3 PUSH2 0x3DA1 JUMP JUMPDEST POP POP JUMPDEST POP POP POP JUMP JUMPDEST PUSH1 0x0 DUP3 DUP3 SHR SWAP1 POP SWAP3 SWAP2 POP POP JUMP JUMPDEST PUSH1 0x0 PUSH2 0x3E28 PUSH1 0x0 NOT DUP5 PUSH1 0x8 MUL PUSH2 0x3E0A JUMP JUMPDEST NOT DUP1 DUP4 AND SWAP2 POP POP SWAP3 SWAP2 POP POP JUMP JUMPDEST PUSH1 0x0 PUSH2 0x3E41 DUP4 DUP4 PUSH2 0x3E17 JUMP JUMPDEST SWAP2 POP DUP3 PUSH1 0x2 MUL DUP3 OR SWAP1 POP SWAP3 SWAP2 POP POP JUMP JUMPDEST PUSH2 0x3E5A DUP3 PUSH2 0x2EC0 JUMP JUMPDEST PUSH8 0xFFFFFFFFFFFFFFFF DUP2 GT ISZERO PUSH2 0x3E73 JUMPI PUSH2 0x3E72 PUSH2 0x321F JUMP JUMPDEST JUMPDEST PUSH2 0x3E7D DUP3 SLOAD PUSH2 0x37F2 JUMP JUMPDEST PUSH2 0x3E88 DUP3 DUP3 DUP6 PUSH2 0x3DC4 JUMP JUMPDEST PUSH1 0x0 PUSH1 0x20 SWAP1 POP PUSH1 0x1F DUP4 GT PUSH1 0x1 DUP2 EQ PUSH2 0x3EBB JUMPI PUSH1 0x0 DUP5 ISZERO PUSH2 0x3EA9 JUMPI DUP3 DUP8 ADD MLOAD SWAP1 POP JUMPDEST PUSH2 0x3EB3 DUP6 DUP3 PUSH2 0x3E35 JUMP JUMPDEST DUP7 SSTORE POP PUSH2 0x3F1B JUMP JUMPDEST PUSH1 0x1F NOT DUP5 AND PUSH2 0x3EC9 DUP7 PUSH2 0x3CA5 JUMP JUMPDEST PUSH1 0x0 JUMPDEST DUP3 DUP2 LT ISZERO PUSH2 0x3EF1 JUMPI DUP5 DUP10 ADD MLOAD DUP3 SSTORE PUSH1 0x1 DUP3 ADD SWAP2 POP PUSH1 0x20 DUP6 ADD SWAP5 POP PUSH1 0x20 DUP2 ADD SWAP1 POP PUSH2 0x3ECC JUMP JUMPDEST DUP7 DUP4 LT ISZERO PUSH2 0x3F0E JUMPI DUP5 DUP10 ADD MLOAD PUSH2 0x3F0A PUSH1 0x1F DUP10 AND DUP3 PUSH2 0x3E17 JUMP JUMPDEST DUP4 SSTORE POP JUMPDEST PUSH1 0x1 PUSH1 0x2 DUP9 MUL ADD DUP9 SSTORE POP POP POP JUMPDEST POP POP POP POP POP POP JUMP JUMPDEST PUSH32 0x416C7265616479207374616B6564000000000000000000000000000000000000 PUSH1 0x0 DUP3 ADD MSTORE POP JUMP JUMPDEST PUSH1 0x0 PUSH2 0x3F59 PUSH1 0xE DUP4 PUSH2 0x2ECB JUMP JUMPDEST SWAP2 POP PUSH2 0x3F64 DUP3 PUSH2 0x3F23 JUMP JUMPDEST PUSH1 0x20 DUP3 ADD SWAP1 POP SWAP2 SWAP1 POP JUMP JUMPDEST PUSH1 0x0 PUSH1 0x20 DUP3 ADD SWAP1 POP DUP2 DUP2 SUB PUSH1 0x0 DUP4 ADD MSTORE PUSH2 0x3F88 DUP2 PUSH2 0x3F4C JUMP JUMPDEST SWAP1 POP SWAP2 SWAP1 POP JUMP JUMPDEST PUSH32 0x4E6F7420656E6F75676820746F6B656E73000000000000000000000000000000 PUSH1 0x0 DUP3 ADD MSTORE POP JUMP JUMPDEST PUSH1 0x0 PUSH2 0x3FC5 PUSH1 0x11 DUP4 PUSH2 0x2ECB JUMP JUMPDEST SWAP2 POP PUSH2 0x3FD0 DUP3 PUSH2 0x3F8F JUMP JUMPDEST PUSH1 0x20 DUP3 ADD SWAP1 POP SWAP2 SWAP1 POP JUMP JUMPDEST PUSH1 0x0 PUSH1 0x20 DUP3 ADD SWAP1 POP DUP2 DUP2 SUB PUSH1 0x0 DUP4 ADD MSTORE PUSH2 0x3FF4 DUP2 PUSH2 0x3FB8 JUMP JUMPDEST SWAP1 POP SWAP2 SWAP1 POP JUMP JUMPDEST PUSH32 0x45524332303A207472616E736665722066726F6D20746865207A65726F206164 PUSH1 0x0 DUP3 ADD MSTORE PUSH32 0x6472657373000000000000000000000000000000000000000000000000000000 PUSH1 0x20 DUP3 ADD MSTORE POP JUMP JUMPDEST PUSH1 0x0 PUSH2 0x4057 PUSH1 0x25 DUP4 PUSH2 0x2ECB JUMP JUMPDEST SWAP2 POP PUSH2 0x4062 DUP3 PUSH2 0x3FFB JUMP JUMPDEST PUSH1 0x40 DUP3 ADD SWAP1 POP SWAP2 SWAP1 POP JUMP JUMPDEST PUSH1 0x0 PUSH1 0x20 DUP3 ADD SWAP1 POP DUP2 DUP2 SUB PUSH1 0x0 DUP4 ADD MSTORE PUSH2 0x4086 DUP2 PUSH2 0x404A JUMP JUMPDEST SWAP1 POP SWAP2 SWAP1 POP JUMP JUMPDEST PUSH32 0x45524332303A207472616E7366657220746F20746865207A65726F2061646472 PUSH1 0x0 DUP3 ADD MSTORE PUSH32 0x6573730000000000000000000000000000000000000000000000000000000000 PUSH1 0x20 DUP3 ADD MSTORE POP JUMP JUMPDEST PUSH1 0x0 PUSH2 0x40E9 PUSH1 0x23 DUP4 PUSH2 0x2ECB JUMP JUMPDEST SWAP2 POP PUSH2 0x40F4 DUP3 PUSH2 0x408D JUMP JUMPDEST PUSH1 0x40 DUP3 ADD SWAP1 POP SWAP2 SWAP1 POP JUMP JUMPDEST PUSH1 0x0 PUSH1 0x20 DUP3 ADD SWAP1 POP DUP2 DUP2 SUB PUSH1 0x0 DUP4 ADD MSTORE PUSH2 0x4118 DUP2 PUSH2 0x40DC JUMP JUMPDEST SWAP1 POP SWAP2 SWAP1 POP JUMP JUMPDEST PUSH32 0x45524332303A207472616E7366657220616D6F756E7420657863656564732062 PUSH1 0x0 DUP3 ADD MSTORE PUSH32 0x616C616E63650000000000000000000000000000000000000000000000000000 PUSH1 0x20 DUP3 ADD MSTORE POP JUMP JUMPDEST PUSH1 0x0 PUSH2 0x417B PUSH1 0x26 DUP4 PUSH2 0x2ECB JUMP JUMPDEST SWAP2 POP PUSH2 0x4186 DUP3 PUSH2 0x411F JUMP JUMPDEST PUSH1 0x40 DUP3 ADD SWAP1 POP SWAP2 SWAP1 POP JUMP JUMPDEST PUSH1 0x0 PUSH1 0x20 DUP3 ADD SWAP1 POP DUP2 DUP2 SUB PUSH1 0x0 DUP4 ADD MSTORE PUSH2 0x41AA DUP2 PUSH2 0x416E JUMP JUMPDEST SWAP1 POP SWAP2 SWAP1 POP JUMP INVALID LOG2 PUSH5 0x6970667358 0x22 SLT KECCAK256 0xC5 OR 0x4F 0xA9 PUSH27 0xA9A5C41C4F2A7557BF03D35D60BADB3637C8E5DA1BA3F384A8AA1B PUSH5 0x736F6C6343 STOP ADDMOD GT STOP CALLER "},"gasEstimates":{"creation":{"codeDepositCost":"3374200","executionCost":"infinite","totalCost":"infinite"},"external":{"_fullnodeDepositAmount()":"2519","_privoderDepositAmount()":"2518","allowance(address,address)":"infinite","approve(address,uint256)":"23192","balanceOf(address)":"2886","bindWallet(string)":"infinite","changeWallet(string,address)":"infinite","checkOrder(string)":"infinite","clientOrder(string,uint32,string,uint256,address)":"infinite","decimals()":"2583","getAllOrderTokens()":"infinite","getDeposit(address)":"infinite","getOrdersInfo(string)":"infinite","getPrivoderOrders(address)":"infinite","getUserInfo(string)":"infinite","getWallet(string)":"infinite","isDeposit(uint8)":"2947","name()":"infinite","stake(uint8)":"infinite","stakeAmount(uint8,address,uint256)":"infinite","symbol()":"infinite","totalSupply()":"2520","transfer(address,uint256)":"infinite","unbindWallet(string)":"infinite","verifyWallet(string)":"infinite","withdraw(uint8)":"infinite","withdrawAllOrderTokens()":"infinite","withdrawOrderTokens(string)":"infinite"}},"methodIdentifiers":{"_fullnodeDepositAmount()":"a23c7c14","_privoderDepositAmount()":"c5bc91e8","allowance(address,address)":"dd62ed3e","approve(address,uint256)":"095ea7b3","balanceOf(address)":"70a08231","bindWallet(string)":"8ec012b9","changeWallet(string,address)":"87a858d2","checkOrder(string)":"dd6887ed","clientOrder(string,uint32,string,uint256,address)":"5c9abe11","decimals()":"313ce567","getAllOrderTokens()":"f3fbfc7b","getDeposit(address)":"e1254fba","getOrdersInfo(string)":"8291a021","getPrivoderOrders(address)":"183dd1cd","getUserInfo(string)":"7c9b7fdd","getWallet(string)":"a4e2df66","isDeposit(uint8)":"f276b8aa","name()":"06fdde03","stake(uint8)":"604f2177","stakeAmount(uint8,address,uint256)":"5e3ae06e","symbol()":"95d89b41","totalSupply()":"18160ddd","transfer(address,uint256)":"a9059cbb","unbindWallet(string)":"d19e4856","verifyWallet(string)":"ffc2c9b7","withdraw(uint8)":"c6ab5d90","withdrawAllOrderTokens()":"27a0b34a","withdrawOrderTokens(string)":"25cfedb5"}},"storageLayout":{"storage":[{"astId":1152,"contract":"contracts/CloudSlitDao.sol:CloudSlitDao","label":"name","offset":0,"slot":"0","type":"t_string_storage"},{"astId":1155,"contract":"contracts/CloudSlitDao.sol:CloudSlitDao","label":"symbol","offset":0,"slot":"1","type":"t_string_storage"},{"astId":1157,"contract":"contracts/CloudSlitDao.sol:CloudSlitDao","label":"totalSupply","offset":0,"slot":"2","type":"t_uint256"},{"astId":1160,"contract":"contracts/CloudSlitDao.sol:CloudSlitDao","label":"decimals","offset":0,"slot":"3","type":"t_uint8"},{"astId":1164,"contract":"contracts/CloudSlitDao.sol:CloudSlitDao","label":"balances","offset":0,"slot":"4","type":"t_mapping(t_address,t_uint256)"},{"astId":1170,"contract":"contracts/CloudSlitDao.sol:CloudSlitDao","label":"allowances","offset":0,"slot":"5","type":"t_mapping(t_address,t_mapping(t_address,t_uint256))"},{"astId":35,"contract":"contracts/CloudSlitDao.sol:CloudSlitDao","label":"userWallets","offset":0,"slot":"6","type":"t_mapping(t_string_memory_ptr,t_struct(userWallet)9_storage)"},{"astId":37,"contract":"contracts/CloudSlitDao.sol:CloudSlitDao","label":"_fullnodeDepositAmount","offset":0,"slot":"7","type":"t_uint256"},{"astId":39,"contract":"contracts/CloudSlitDao.sol:CloudSlitDao","label":"_privoderDepositAmount","offset":0,"slot":"8","type":"t_uint256"},{"astId":41,"contract":"contracts/CloudSlitDao.sol:CloudSlitDao","label":"_durationUnit","offset":0,"slot":"9","type":"t_uint32"},{"astId":45,"contract":"contracts/CloudSlitDao.sol:CloudSlitDao","label":"_fullnodeDeposits","offset":0,"slot":"10","type":"t_mapping(t_address,t_uint256)"},{"astId":49,"contract":"contracts/CloudSlitDao.sol:CloudSlitDao","label":"_privoderDeposits","offset":0,"slot":"11","type":"t_mapping(t_address,t_uint256)"},{"astId":54,"contract":"contracts/CloudSlitDao.sol:CloudSlitDao","label":"_orders","offset":0,"slot":"12","type":"t_mapping(t_string_memory_ptr,t_struct(Order)30_storage)"},{"astId":59,"contract":"contracts/CloudSlitDao.sol:CloudSlitDao","label":"_privoderOrders","offset":0,"slot":"13","type":"t_mapping(t_address,t_array(t_string_storage)dyn_storage)"}],"types":{"t_address":{"encoding":"inplace","label":"address","numberOfBytes":"20"},"t_array(t_string_storage)dyn_storage":{"base":"t_string_storage","encoding":"dynamic_array","label":"string[]","numberOfBytes":"32"},"t_bool":{"encoding":"inplace","label":"bool","numberOfBytes":"1"},"t_mapping(t_address,t_array(t_string_storage)dyn_storage)":{"encoding":"mapping","key":"t_address","label":"mapping(address => string[])","numberOfBytes":"32","value":"t_array(t_string_storage)dyn_storage"},"t_mapping(t_address,t_mapping(t_address,t_uint256))":{"encoding":"mapping","key":"t_address","label":"mapping(address => mapping(address => uint256))","numberOfBytes":"32","value":"t_mapping(t_address,t_uint256)"},"t_mapping(t_address,t_uint256)":{"encoding":"mapping","key":"t_address","label":"mapping(address => uint256)","numberOfBytes":"32","value":"t_uint256"},"t_mapping(t_string_memory_ptr,t_struct(Order)30_storage)":{"encoding":"mapping","key":"t_string_memory_ptr","label":"mapping(string => struct CloudSlitDao.Order)","numberOfBytes":"32","value":"t_struct(Order)30_storage"},"t_mapping(t_string_memory_ptr,t_struct(userWallet)9_storage)":{"encoding":"mapping","key":"t_string_memory_ptr","label":"mapping(string => struct CloudSlitDao.userWallet)","numberOfBytes":"32","value":"t_struct(userWallet)9_storage"},"t_string_memory_ptr":{"encoding":"bytes","label":"string","numberOfBytes":"32"},"t_string_storage":{"encoding":"bytes","label":"string","numberOfBytes":"32"},"t_struct(Order)30_storage":{"encoding":"inplace","label":"struct CloudSlitDao.Order","members":[{"astId":11,"contract":"contracts/CloudSlitDao.sol:CloudSlitDao","label":"name","offset":0,"slot":"0","type":"t_string_storage"},{"astId":13,"contract":"contracts/CloudSlitDao.sol:CloudSlitDao","label":"startTime","offset":0,"slot":"1","type":"t_uint256"},{"astId":15,"contract":"contracts/CloudSlitDao.sol:CloudSlitDao","label":"endTime","offset":0,"slot":"2","type":"t_uint256"},{"astId":17,"contract":"contracts/CloudSlitDao.sol:CloudSlitDao","label":"withdrawDuration","offset":0,"slot":"3","type":"t_uint256"},{"astId":19,"contract":"contracts/CloudSlitDao.sol:CloudSlitDao","label":"duration","offset":0,"slot":"4","type":"t_uint32"},{"astId":21,"contract":"contracts/CloudSlitDao.sol:CloudSlitDao","label":"amount","offset":0,"slot":"5","type":"t_uint256"},{"astId":23,"contract":"contracts/CloudSlitDao.sol:CloudSlitDao","label":"used","offset":0,"slot":"6","type":"t_bool"},{"astId":25,"contract":"contracts/CloudSlitDao.sol:CloudSlitDao","label":"withdraw","offset":1,"slot":"6","type":"t_bool"},{"astId":27,"contract":"contracts/CloudSlitDao.sol:CloudSlitDao","label":"payAddress","offset":2,"slot":"6","type":"t_address"},{"astId":29,"contract":"contracts/CloudSlitDao.sol:CloudSlitDao","label":"privoderAddress","offset":0,"slot":"7","type":"t_address"}],"numberOfBytes":"256"},"t_struct(userWallet)9_storage":{"encoding":"inplace","label":"struct CloudSlitDao.userWallet","members":[{"astId":6,"contract":"contracts/CloudSlitDao.sol:CloudSlitDao","label":"user","offset":0,"slot":"0","type":"t_address"},{"astId":8,"contract":"contracts/CloudSlitDao.sol:CloudSlitDao","label":"status","offset":20,"slot":"0","type":"t_uint8"}],"numberOfBytes":"32"},"t_uint256":{"encoding":"inplace","label":"uint256","numberOfBytes":"32"},"t_uint32":{"encoding":"inplace","label":"uint32","numberOfBytes":"4"},"t_uint8":{"encoding":"inplace","label":"uint8","numberOfBytes":"1"}}},"userdoc":{"kind":"user","methods":{},"version":1}}}}