{"contracts/CloudSlitDao.sol":{"CloudSlitDao":{"abi":[{"inputs":[],"stateMutability":"nonpayable","type":"constructor"},{"anonymous":false,"inputs":[{"indexed":true,"internalType":"address","name":"owner","type":"address"},{"indexed":true,"internalType":"address","name":"spender","type":"address"},{"indexed":false,"internalType":"uint256","name":"value","type":"uint256"}],"name":"Approval","type":"event"},{"anonymous":false,"inputs":[{"indexed":true,"internalType":"address","name":"from","type":"address"},{"indexed":true,"internalType":"address","name":"to","type":"address"},{"indexed":false,"internalType":"uint256","name":"value","type":"uint256"}],"name":"Transfer","type":"event"},{"inputs":[],"name":"_fullnodeDepositAmount","outputs":[{"internalType":"uint256","name":"","type":"uint256"}],"stateMutability":"view","type":"function"},{"inputs":[],"name":"_privoderDepositAmount","outputs":[{"internalType":"uint256","name":"","type":"uint256"}],"stateMutability":"view","type":"function"},{"inputs":[{"internalType":"address","name":"owner","type":"address"},{"internalType":"address","name":"spender","type":"address"}],"name":"allowance","outputs":[{"internalType":"uint256","name":"","type":"uint256"}],"stateMutability":"view","type":"function"},{"inputs":[{"internalType":"address","name":"spender","type":"address"},{"internalType":"uint256","name":"value","type":"uint256"}],"name":"approve","outputs":[{"internalType":"bool","name":"","type":"bool"}],"stateMutability":"nonpayable","type":"function"},{"inputs":[{"internalType":"address","name":"account","type":"address"}],"name":"balanceOf","outputs":[{"internalType":"uint256","name":"","type":"uint256"}],"stateMutability":"view","type":"function"},{"inputs":[{"internalType":"string","name":"uuid","type":"string"}],"name":"bindWallet","outputs":[],"stateMutability":"nonpayable","type":"function"},{"inputs":[{"internalType":"string","name":"uuid","type":"string"},{"internalType":"address","name":"newWallet","type":"address"}],"name":"changeWallet","outputs":[],"stateMutability":"nonpayable","type":"function"},{"inputs":[{"internalType":"string","name":"orderId","type":"string"}],"name":"checkOrder","outputs":[{"internalType":"bool","name":"","type":"bool"}],"stateMutability":"view","type":"function"},{"inputs":[{"internalType":"string","name":"name","type":"string"},{"internalType":"uint32","name":"duration","type":"uint32"},{"internalType":"string","name":"orderId","type":"string"},{"internalType":"uint256","name":"price","type":"uint256"},{"internalType":"address","name":"to","type":"address"}],"name":"clientOrder","outputs":[],"stateMutability":"nonpayable","type":"function"},{"inputs":[],"name":"decimals","outputs":[{"internalType":"uint8","name":"","type":"uint8"}],"stateMutability":"view","type":"function"},{"inputs":[],"name":"getAllOrderTokens","outputs":[{"internalType":"uint256","name":"","type":"uint256"}],"stateMutability":"view","type":"function"},{"inputs":[{"internalType":"string","name":"orderId","type":"string"}],"name":"getOrdersInfo","outputs":[{"components":[{"internalType":"string","name":"name","type":"string"},{"internalType":"uint256","name":"startTime","type":"uint256"},{"internalType":"uint256","name":"endTime","type":"uint256"},{"internalType":"uint256","name":"withdrawDuration","type":"uint256"},{"internalType":"uint32","name":"duration","type":"uint32"},{"internalType":"uint256","name":"price","type":"uint256"},{"internalType":"bool","name":"used","type":"bool"},{"internalType":"bool","name":"withdraw","type":"bool"},{"internalType":"address","name":"payAddress","type":"address"},{"internalType":"address","name":"privoderAddress","type":"address"}],"internalType":"struct CloudSlitDao.Order","name":"","type":"tuple"}],"stateMutability":"view","type":"function"},{"inputs":[{"internalType":"address","name":"from","type":"address"}],"name":"getPrivoderOrders","outputs":[{"internalType":"string[]","name":"","type":"string[]"}],"stateMutability":"view","type":"function"},{"inputs":[{"internalType":"string","name":"uuid","type":"string"}],"name":"getUserInfo","outputs":[{"internalType":"bool","name":"","type":"bool"},{"internalType":"bool","name":"","type":"bool"}],"stateMutability":"view","type":"function"},{"inputs":[{"internalType":"string","name":"uuid","type":"string"}],"name":"getWallet","outputs":[{"internalType":"address","name":"","type":"address"},{"internalType":"uint8","name":"","type":"uint8"}],"stateMutability":"view","type":"function"},{"inputs":[{"internalType":"uint8","name":"_type","type":"uint8"}],"name":"isDeposit","outputs":[{"internalType":"bool","name":"","type":"bool"}],"stateMutability":"view","type":"function"},{"inputs":[],"name":"name","outputs":[{"internalType":"string","name":"","type":"string"}],"stateMutability":"view","type":"function"},{"inputs":[{"internalType":"uint8","name":"_type","type":"uint8"}],"name":"stake","outputs":[],"stateMutability":"nonpayable","type":"function"},{"inputs":[],"name":"symbol","outputs":[{"internalType":"string","name":"","type":"string"}],"stateMutability":"view","type":"function"},{"inputs":[],"name":"totalSupply","outputs":[{"internalType":"uint256","name":"","type":"uint256"}],"stateMutability":"view","type":"function"},{"inputs":[{"internalType":"address","name":"to","type":"address"},{"internalType":"uint256","name":"amount","type":"uint256"}],"name":"transfer","outputs":[{"internalType":"bool","name":"","type":"bool"}],"stateMutability":"nonpayable","type":"function"},{"inputs":[{"internalType":"string","name":"uuid","type":"string"}],"name":"unbindWallet","outputs":[],"stateMutability":"nonpayable","type":"function"},{"inputs":[{"internalType":"string","name":"uuid","type":"string"}],"name":"verifyWallet","outputs":[],"stateMutability":"nonpayable","type":"function"},{"inputs":[{"internalType":"uint8","name":"_type","type":"uint8"}],"name":"withdraw","outputs":[],"stateMutability":"nonpayable","type":"function"},{"inputs":[],"name":"withdrawAllOrderTokens","outputs":[],"stateMutability":"nonpayable","type":"function"},{"inputs":[{"internalType":"string","name":"orderId","type":"string"}],"name":"withdrawOrderTokens","outputs":[],"stateMutability":"nonpayable","type":"function"}],"devdoc":{"kind":"dev","methods":{"constructor":{"custom:oz-upgrades-unsafe-allow":"constructor"}},"version":1},"evm":{"bytecode":{"linkReferences":{},"object":"60806040526040518060400160405280600d81526020017f436c6f7564536c69742044616f00000000000000000000000000000000000000815250600090816200004a9190620004ee565b506040518060400160405280600381526020017f435344000000000000000000000000000000000000000000000000000000000081525060019081620000919190620004ee565b506012600360006101000a81548160ff021916908360ff160217905550348015620000bb57600080fd5b50620000fc33600360009054906101000a900460ff16600a620000df919062000765565b6305f5e100620000f09190620007b6565b6200018b60201b60201c565b600360009054906101000a900460ff16600a6200011a919062000765565b611388620001299190620007b6565b600781905550600360009054906101000a900460ff16600a6200014d919062000765565b6103e86200015c9190620007b6565b600881905550610e10600960006101000a81548163ffffffff021916908363ffffffff160217905550620008bf565b600073ffffffffffffffffffffffffffffffffffffffff168273ffffffffffffffffffffffffffffffffffffffff1603620001fd576040517f08c379a0000000000000000000000000000000000000000000000000000000008152600401620001f49062000862565b60405180910390fd5b806002600082825462000211919062000884565b9250508190555080600460008473ffffffffffffffffffffffffffffffffffffffff1673ffffffffffffffffffffffffffffffffffffffff168152602001908152602001600020600082825462000269919062000884565b925050819055505050565b600081519050919050565b7f4e487b7100000000000000000000000000000000000000000000000000000000600052604160045260246000fd5b7f4e487b7100000000000000000000000000000000000000000000000000000000600052602260045260246000fd5b60006002820490506001821680620002f657607f821691505b6020821081036200030c576200030b620002ae565b5b50919050565b60008190508160005260206000209050919050565b60006020601f8301049050919050565b600082821b905092915050565b600060088302620003767fffffffffffffffffffffffffffffffffffffffffffffffffffffffffffffffff8262000337565b62000382868362000337565b95508019841693508086168417925050509392505050565b6000819050919050565b6000819050919050565b6000620003cf620003c9620003c3846200039a565b620003a4565b6200039a565b9050919050565b6000819050919050565b620003eb83620003ae565b62000403620003fa82620003d6565b84845462000344565b825550505050565b600090565b6200041a6200040b565b62000427818484620003e0565b505050565b5b818110156200044f576200044360008262000410565b6001810190506200042d565b5050565b601f8211156200049e57620004688162000312565b620004738462000327565b8101602085101562000483578190505b6200049b620004928562000327565b8301826200042c565b50505b505050565b600082821c905092915050565b6000620004c360001984600802620004a3565b1980831691505092915050565b6000620004de8383620004b0565b9150826002028217905092915050565b620004f98262000274565b67ffffffffffffffff8111156200051557620005146200027f565b5b620005218254620002dd565b6200052e82828562000453565b600060209050601f83116001811462000566576000841562000551578287015190505b6200055d8582620004d0565b865550620005cd565b601f198416620005768662000312565b60005b82811015620005a05784890151825560018201915060208501945060208101905062000579565b86831015620005c05784890151620005bc601f891682620004b0565b8355505b6001600288020188555050505b505050505050565b7f4e487b7100000000000000000000000000000000000000000000000000000000600052601160045260246000fd5b60008160011c9050919050565b6000808291508390505b600185111562000663578086048111156200063b576200063a620005d5565b5b60018516156200064b5780820291505b80810290506200065b8562000604565b94506200061b565b94509492505050565b6000826200067e576001905062000751565b816200068e576000905062000751565b8160018114620006a75760028114620006b257620006e8565b600191505062000751565b60ff841115620006c757620006c6620005d5565b5b8360020a915084821115620006e157620006e0620005d5565b5b5062000751565b5060208310610133831016604e8410600b8410161715620007225782820a9050838111156200071c576200071b620005d5565b5b62000751565b62000731848484600162000611565b925090508184048111156200074b576200074a620005d5565b5b81810290505b9392505050565b600060ff82169050919050565b600062000772826200039a565b91506200077f8362000758565b9250620007ae7fffffffffffffffffffffffffffffffffffffffffffffffffffffffffffffffff84846200066c565b905092915050565b6000620007c3826200039a565b9150620007d0836200039a565b9250828202620007e0816200039a565b91508282048414831517620007fa57620007f9620005d5565b5b5092915050565b600082825260208201905092915050565b7f45524332303a206d696e7420746f20746865207a65726f206164647265737300600082015250565b60006200084a601f8362000801565b9150620008578262000812565b602082019050919050565b600060208201905081810360008301526200087d816200083b565b9050919050565b600062000891826200039a565b91506200089e836200039a565b9250828201905080821115620008b957620008b8620005d5565b5b92915050565b613ee280620008cf6000396000f3fe608060405234801561001057600080fd5b506004361061018e5760003560e01c80638ec012b9116100de578063c6ab5d9011610097578063dd6887ed11610071578063dd6887ed14610497578063f276b8aa146104c7578063f3fbfc7b146104f7578063ffc2c9b7146105155761018e565b8063c6ab5d901461042f578063d19e48561461044b578063dd62ed3e146104675761018e565b80638ec012b91461035857806395d89b4114610374578063a23c7c1414610392578063a4e2df66146103b0578063a9059cbb146103e1578063c5bc91e8146104115761018e565b8063313ce5671161014b57806370a082311161012557806370a08231146102ab5780637c9b7fdd146102db5780638291a0211461030c57806387a858d21461033c5761018e565b8063313ce567146102555780635c9abe1114610273578063604f21771461028f5761018e565b806306fdde0314610193578063095ea7b3146101b157806318160ddd146101e1578063183dd1cd146101ff57806325cfedb51461022f57806327a0b34a1461024b575b600080fd5b61019b610531565b6040516101a89190612cc7565b60405180910390f35b6101cb60048036038101906101c69190612d91565b6105bf565b6040516101d89190612dec565b60405180910390f35b6101e961064c565b6040516101f69190612e16565b60405180910390f35b61021960048036038101906102149190612e31565b610652565b6040516102269190612f6a565b60405180910390f35b610249600480360381019061024491906130c1565b61076a565b005b610253610b13565b005b61025d6110c6565b60405161026a9190613126565b60405180910390f35b61028d6004803603810190610288919061317d565b6110d9565b005b6102a960048036038101906102a4919061325c565b61141a565b005b6102c560048036038101906102c09190612e31565b6116a2565b6040516102d29190612e16565b60405180910390f35b6102f560048036038101906102f091906130c1565b6116eb565b604051610303929190613289565b60405180910390f35b610326600480360381019061032191906130c1565b611845565b60405161033391906133c8565b60405180910390f35b610356600480360381019061035191906133ea565b611a40565b005b610372600480360381019061036d91906130c1565b611bf5565b005b61037c611e2f565b6040516103899190612cc7565b60405180910390f35b61039a611ebd565b6040516103a79190612e16565b60405180910390f35b6103ca60048036038101906103c591906130c1565b611ec3565b6040516103d8929190613455565b60405180910390f35b6103fb60048036038101906103f69190612d91565b611f40565b6040516104089190612dec565b60405180910390f35b610419611fd9565b6040516104269190612e16565b60405180910390f35b6104496004803603810190610444919061325c565b611fdf565b005b610465600480360381019061046091906130c1565b6121b1565b005b610481600480360381019061047c919061347e565b612289565b60405161048e9190612e16565b60405180910390f35b6104b160048036038101906104ac91906130c1565b612310565b6040516104be9190612dec565b60405180910390f35b6104e160048036038101906104dc919061325c565b612348565b6040516104ee9190612dec565b60405180910390f35b6104ff612400565b60405161050c9190612e16565b60405180910390f35b61052f600480360381019061052a91906130c1565b6128d6565b005b6000805461053e906134ed565b80601f016020809104026020016040519081016040528092919081815260200182805461056a906134ed565b80156105b75780601f1061058c576101008083540402835291602001916105b7565b820191906000526020600020905b81548152906001019060200180831161059a57829003601f168201915b505050505081565b600081600560003373ffffffffffffffffffffffffffffffffffffffff1673ffffffffffffffffffffffffffffffffffffffff16815260200190815260200160002060008573ffffffffffffffffffffffffffffffffffffffff1673ffffffffffffffffffffffffffffffffffffffff168152602001908152602001600020819055506001905092915050565b60025481565b6060600d60008373ffffffffffffffffffffffffffffffffffffffff1673ffffffffffffffffffffffffffffffffffffffff168152602001908152602001600020805480602002602001604051908101604052809291908181526020016000905b8282101561075f5783829060005260206000200180546106d2906134ed565b80601f01602080910402602001604051908101604052809291908181526020018280546106fe906134ed565b801561074b5780601f106107205761010080835404028352916020019161074b565b820191906000526020600020905b81548152906001019060200180831161072e57829003601f168201915b5050505050815260200190600101906106b3565b505050509050919050565b600c8160405161077a919061355a565b908152602001604051809103902060060160019054906101000a900460ff16156107d9576040517f08c379a00000000000000000000000000000000000000000000000000000000081526004016107d0906135bd565b60405180910390fd5b3373ffffffffffffffffffffffffffffffffffffffff16600c82604051610800919061355a565b908152602001604051809103902060070160009054906101000a900473ffffffffffffffffffffffffffffffffffffffff1673ffffffffffffffffffffffffffffffffffffffff1614610888576040517f08c379a000000000000000000000000000000000000000000000000000000000815260040161087f9061364f565b60405180910390fd5b600c81604051610898919061355a565b90815260200160405180910390206002015442106109d7576001600c826040516108c2919061355a565b908152602001604051809103902060060160016101000a81548160ff0219169083151502179055506000600c826040516108fc919061355a565b908152602001604051809103902060030154600c8360405161091e919061355a565b908152602001604051809103902060040160009054906101000a900463ffffffff1663ffffffff16610950919061369e565b9050600081600c84604051610965919061355a565b908152602001604051809103902060040160009054906101000a900463ffffffff1663ffffffff16600c8560405161099d919061355a565b9081526020016040518091039020600501546109b99190613701565b6109c39190613732565b90506109d030338361299e565b5050610b10565b6000600c826040516109e9919061355a565b908152602001604051809103902060030154600960009054906101000a900463ffffffff1663ffffffff16600c84604051610a24919061355a565b90815260200160405180910390206001015442610a41919061369e565b610a4b9190613701565b610a55919061369e565b905080600c83604051610a68919061355a565b90815260200160405180910390206003016000828254610a889190613774565b92505081905550600081600c84604051610aa2919061355a565b908152602001604051809103902060040160009054906101000a900463ffffffff1663ffffffff16600c85604051610ada919061355a565b908152602001604051809103902060050154610af69190613701565b610b009190613732565b9050610b0d30338361299e565b50505b50565b6000600b60003373ffffffffffffffffffffffffffffffffffffffff1673ffffffffffffffffffffffffffffffffffffffff1681526020019081526020016000205403610b95576040517f08c379a0000000000000000000000000000000000000000000000000000000008152600401610b8c906137f4565b60405180910390fd5b6000600d60003373ffffffffffffffffffffffffffffffffffffffff1673ffffffffffffffffffffffffffffffffffffffff168152602001908152602001600020805480602002602001604051908101604052809291908181526020016000905b82821015610ca2578382906000526020600020018054610c15906134ed565b80601f0160208091040260200160405190810160405280929190818152602001828054610c41906134ed565b8015610c8e5780601f10610c6357610100808354040283529160200191610c8e565b820191906000526020600020905b815481529060010190602001808311610c7157829003601f168201915b505050505081526020019060010190610bf6565b5050505090506000805b82518110156110b657600c838281518110610cca57610cc9613814565b5b6020026020010151604051610cdf919061355a565b908152602001604051809103902060060160019054906101000a900460ff166110a357600c838281518110610d1757610d16613814565b5b6020026020010151604051610d2c919061355a565b9081526020016040518091039020600201544210610eea576001600c848381518110610d5b57610d5a613814565b5b6020026020010151604051610d70919061355a565b908152602001604051809103902060060160016101000a81548160ff0219169083151502179055506000600c848381518110610daf57610dae613814565b5b6020026020010151604051610dc4919061355a565b908152602001604051809103902060030154600c858481518110610deb57610dea613814565b5b6020026020010151604051610e00919061355a565b908152602001604051809103902060040160009054906101000a900463ffffffff1663ffffffff16610e32919061369e565b905080600c858481518110610e4a57610e49613814565b5b6020026020010151604051610e5f919061355a565b908152602001604051809103902060040160009054906101000a900463ffffffff1663ffffffff16600c868581518110610e9c57610e9b613814565b5b6020026020010151604051610eb1919061355a565b908152602001604051809103902060050154610ecd9190613701565b610ed79190613732565b83610ee29190613774565b9250506110a2565b6000600c848381518110610f0157610f00613814565b5b6020026020010151604051610f16919061355a565b908152602001604051809103902060030154600960009054906101000a900463ffffffff1663ffffffff16600c868581518110610f5657610f55613814565b5b6020026020010151604051610f6b919061355a565b90815260200160405180910390206001015442610f88919061369e565b610f929190613701565b610f9c919061369e565b905080600c858481518110610fb457610fb3613814565b5b6020026020010151604051610fc9919061355a565b90815260200160405180910390206003016000828254610fe99190613774565b9250508190555080600c85848151811061100657611005613814565b5b602002602001015160405161101b919061355a565b908152602001604051809103902060040160009054906101000a900463ffffffff1663ffffffff16600c86858151811061105857611057613814565b5b602002602001015160405161106d919061355a565b9081526020016040518091039020600501546110899190613701565b6110939190613732565b8361109e9190613774565b9250505b5b80806110ae90613843565b915050610cac565b506110c230338361299e565b5050565b600360009054906101000a900460ff1681565b600c836040516110e9919061355a565b908152602001604051809103902060060160009054906101000a900460ff1615611148576040517f08c379a000000000000000000000000000000000000000000000000000000000815260040161113f906138d7565b60405180910390fd5b81611152336116a2565b1015611193576040517f08c379a000000000000000000000000000000000000000000000000000000000815260040161118a90613943565b60405180910390fd5b61119e33308461299e565b604051806101400160405280868152602001428152602001600960009054906101000a900463ffffffff16866111d49190613963565b63ffffffff16426111e59190613774565b8152602001600081526020018563ffffffff1681526020018381526020016001151581526020016000151581526020013373ffffffffffffffffffffffffffffffffffffffff1681526020018273ffffffffffffffffffffffffffffffffffffffff16815250600c8460405161125b919061355a565b9081526020016040518091039020600082015181600001908161127e9190613b4c565b5060208201518160010155604082015181600201556060820151816003015560808201518160040160006101000a81548163ffffffff021916908363ffffffff16021790555060a0820151816005015560c08201518160060160006101000a81548160ff02191690831515021790555060e08201518160060160016101000a81548160ff0219169083151502179055506101008201518160060160026101000a81548173ffffffffffffffffffffffffffffffffffffffff021916908373ffffffffffffffffffffffffffffffffffffffff1602179055506101208201518160070160006101000a81548173ffffffffffffffffffffffffffffffffffffffff021916908373ffffffffffffffffffffffffffffffffffffffff160217905550905050600d60008273ffffffffffffffffffffffffffffffffffffffff1673ffffffffffffffffffffffffffffffffffffffff168152602001908152602001600020839080600181540180825580915050600190039060005260206000200160009091909190915090816114129190613b4c565b505050505050565b60018160ff160361155e576000600a60003373ffffffffffffffffffffffffffffffffffffffff1673ffffffffffffffffffffffffffffffffffffffff16815260200190815260200160002054146114a7576040517f08c379a000000000000000000000000000000000000000000000000000000000815260040161149e90613c6a565b60405180910390fd5b6007546114b3336116a2565b10156114f4576040517f08c379a00000000000000000000000000000000000000000000000000000000081526004016114eb90613943565b60405180910390fd5b611501333060075461299e565b600754600a60003373ffffffffffffffffffffffffffffffffffffffff1673ffffffffffffffffffffffffffffffffffffffff16815260200190815260200160002060008282546115529190613774565b9250508190555061169f565b60028160ff160361169e576000600b60003373ffffffffffffffffffffffffffffffffffffffff1673ffffffffffffffffffffffffffffffffffffffff16815260200190815260200160002054146115eb576040517f08c379a00000000000000000000000000000000000000000000000000000000081526004016115e290613c6a565b60405180910390fd5b6008546115f7336116a2565b1015611638576040517f08c379a000000000000000000000000000000000000000000000000000000000815260040161162f90613943565b60405180910390fd5b611645333060085461299e565b600854600b60003373ffffffffffffffffffffffffffffffffffffffff1673ffffffffffffffffffffffffffffffffffffffff16815260200190815260200160002060008282546116969190613774565b925050819055505b5b50565b6000600460008373ffffffffffffffffffffffffffffffffffffffff1673ffffffffffffffffffffffffffffffffffffffff168152602001908152602001600020549050919050565b6000806002600684604051611700919061355a565b908152602001604051809103902060000160149054906101000a900460ff1660ff1603611838576000600a600060068660405161173d919061355a565b908152602001604051809103902060000160009054906101000a900473ffffffffffffffffffffffffffffffffffffffff1673ffffffffffffffffffffffffffffffffffffffff1673ffffffffffffffffffffffffffffffffffffffff16815260200190815260200160002054116000600b60006006876040516117c1919061355a565b908152602001604051809103902060000160009054906101000a900473ffffffffffffffffffffffffffffffffffffffff1673ffffffffffffffffffffffffffffffffffffffff1673ffffffffffffffffffffffffffffffffffffffff168152602001908152602001600020541191509150611840565b600080915091505b915091565b61184d612bae565b600c8260405161185d919061355a565b908152602001604051809103902060405180610140016040529081600082018054611887906134ed565b80601f01602080910402602001604051908101604052809291908181526020018280546118b3906134ed565b80156119005780601f106118d557610100808354040283529160200191611900565b820191906000526020600020905b8154815290600101906020018083116118e357829003601f168201915b505050505081526020016001820154815260200160028201548152602001600382015481526020016004820160009054906101000a900463ffffffff1663ffffffff1663ffffffff168152602001600582015481526020016006820160009054906101000a900460ff161515151581526020016006820160019054906101000a900460ff161515151581526020016006820160029054906101000a900473ffffffffffffffffffffffffffffffffffffffff1673ffffffffffffffffffffffffffffffffffffffff1673ffffffffffffffffffffffffffffffffffffffff1681526020016007820160009054906101000a900473ffffffffffffffffffffffffffffffffffffffff1673ffffffffffffffffffffffffffffffffffffffff1673ffffffffffffffffffffffffffffffffffffffff16815250509050919050565b600073ffffffffffffffffffffffffffffffffffffffff168173ffffffffffffffffffffffffffffffffffffffff1603611a7957600080fd5b6001600683604051611a8b919061355a565b908152602001604051809103902060000160149054906101000a900460ff1660ff1603611b175780600683604051611ac3919061355a565b908152602001604051809103902060000160006101000a81548173ffffffffffffffffffffffffffffffffffffffff021916908373ffffffffffffffffffffffffffffffffffffffff160217905550611bf1565b3373ffffffffffffffffffffffffffffffffffffffff16600683604051611b3e919061355a565b908152602001604051809103902060000160009054906101000a900473ffffffffffffffffffffffffffffffffffffffff1673ffffffffffffffffffffffffffffffffffffffff1614611b9057600080fd5b80600683604051611ba1919061355a565b908152602001604051809103902060000160006101000a81548173ffffffffffffffffffffffffffffffffffffffff021916908373ffffffffffffffffffffffffffffffffffffffff1602179055505b5050565b600073ffffffffffffffffffffffffffffffffffffffff16600682604051611c1d919061355a565b908152602001604051809103902060000160009054906101000a900473ffffffffffffffffffffffffffffffffffffffff1673ffffffffffffffffffffffffffffffffffffffff1614611c6f57600080fd5b6000600a60003373ffffffffffffffffffffffffffffffffffffffff1673ffffffffffffffffffffffffffffffffffffffff1681526020019081526020016000205403611d735760405180604001604052803373ffffffffffffffffffffffffffffffffffffffff168152602001600160ff16815250600682604051611cf5919061355a565b908152602001604051809103902060008201518160000160006101000a81548173ffffffffffffffffffffffffffffffffffffffff021916908373ffffffffffffffffffffffffffffffffffffffff16021790555060208201518160000160146101000a81548160ff021916908360ff160217905550905050611e2c565b60405180604001604052803373ffffffffffffffffffffffffffffffffffffffff168152602001600260ff16815250600682604051611db2919061355a565b908152602001604051809103902060008201518160000160006101000a81548173ffffffffffffffffffffffffffffffffffffffff021916908373ffffffffffffffffffffffffffffffffffffffff16021790555060208201518160000160146101000a81548160ff021916908360ff1602179055509050505b50565b60018054611e3c906134ed565b80601f0160208091040260200160405190810160405280929190818152602001828054611e68906134ed565b8015611eb55780601f10611e8a57610100808354040283529160200191611eb5565b820191906000526020600020905b815481529060010190602001808311611e9857829003601f168201915b505050505081565b60075481565b600080600683604051611ed6919061355a565b908152602001604051809103902060000160009054906101000a900473ffffffffffffffffffffffffffffffffffffffff16600684604051611f18919061355a565b908152602001604051809103902060000160149054906101000a900460ff1691509150915091565b600081600460003373ffffffffffffffffffffffffffffffffffffffff1673ffffffffffffffffffffffffffffffffffffffff168152602001908152602001600020541015611fc4576040517f08c379a0000000000000000000000000000000000000000000000000000000008152600401611fbb90613cd6565b60405180910390fd5b611fcf33848461299e565b6001905092915050565b60085481565b60018160ff16036120c8576000600a60003373ffffffffffffffffffffffffffffffffffffffff1673ffffffffffffffffffffffffffffffffffffffff168152602001908152602001600020541161203657600080fd5b6120803033600a60003373ffffffffffffffffffffffffffffffffffffffff1673ffffffffffffffffffffffffffffffffffffffff1681526020019081526020016000205461299e565b600a60003373ffffffffffffffffffffffffffffffffffffffff1673ffffffffffffffffffffffffffffffffffffffff168152602001908152602001600020600090556121ae565b60028160ff16036121ad576000600b60003373ffffffffffffffffffffffffffffffffffffffff1673ffffffffffffffffffffffffffffffffffffffff168152602001908152602001600020541161211f57600080fd5b6121693033600b60003373ffffffffffffffffffffffffffffffffffffffff1673ffffffffffffffffffffffffffffffffffffffff1681526020019081526020016000205461299e565b600b60003373ffffffffffffffffffffffffffffffffffffffff1673ffffffffffffffffffffffffffffffffffffffff168152602001908152602001600020600090555b5b50565b3373ffffffffffffffffffffffffffffffffffffffff166006826040516121d8919061355a565b908152602001604051809103902060000160009054906101000a900473ffffffffffffffffffffffffffffffffffffffff1673ffffffffffffffffffffffffffffffffffffffff161461222a57600080fd5b60068160405161223a919061355a565b9081526020016040518091039020600080820160006101000a81549073ffffffffffffffffffffffffffffffffffffffff02191690556000820160146101000a81549060ff0219169055505050565b6000600560008473ffffffffffffffffffffffffffffffffffffffff1673ffffffffffffffffffffffffffffffffffffffff16815260200190815260200160002060008373ffffffffffffffffffffffffffffffffffffffff1673ffffffffffffffffffffffffffffffffffffffff16815260200190815260200160002054905092915050565b6000600c82604051612322919061355a565b908152602001604051809103902060060160009054906101000a900460ff169050919050565b600060018260ff16036123a0576000600a60003373ffffffffffffffffffffffffffffffffffffffff1673ffffffffffffffffffffffffffffffffffffffff16815260200190815260200160002054141590506123fb565b60028260ff16036123f6576000600b60003373ffffffffffffffffffffffffffffffffffffffff1673ffffffffffffffffffffffffffffffffffffffff16815260200190815260200160002054141590506123fb565b600090505b919050565b600080600b60003373ffffffffffffffffffffffffffffffffffffffff1673ffffffffffffffffffffffffffffffffffffffff168152602001908152602001600020540361245157600090506128d3565b6000600d60003373ffffffffffffffffffffffffffffffffffffffff1673ffffffffffffffffffffffffffffffffffffffff168152602001908152602001600020805480602002602001604051908101604052809291908181526020016000905b8282101561255e5783829060005260206000200180546124d1906134ed565b80601f01602080910402602001604051908101604052809291908181526020018280546124fd906134ed565b801561254a5780601f1061251f5761010080835404028352916020019161254a565b820191906000526020600020905b81548152906001019060200180831161252d57829003601f168201915b5050505050815260200190600101906124b2565b5050505090506000805b82518110156128cc57600c83828151811061258657612585613814565b5b602002602001015160405161259b919061355a565b908152602001604051809103902060060160019054906101000a900460ff166128b957600c8382815181106125d3576125d2613814565b5b60200260200101516040516125e8919061355a565b9081526020016040518091039020600201544210612752576000600c84838151811061261757612616613814565b5b602002602001015160405161262c919061355a565b908152602001604051809103902060030154600c85848151811061265357612652613814565b5b6020026020010151604051612668919061355a565b908152602001604051809103902060040160009054906101000a900463ffffffff1663ffffffff1661269a919061369e565b905080600c8584815181106126b2576126b1613814565b5b60200260200101516040516126c7919061355a565b908152602001604051809103902060040160009054906101000a900463ffffffff1663ffffffff16600c86858151811061270457612703613814565b5b6020026020010151604051612719919061355a565b9081526020016040518091039020600501546127359190613701565b61273f9190613732565b8361274a9190613774565b9250506128b8565b6000600c84838151811061276957612768613814565b5b602002602001015160405161277e919061355a565b908152602001604051809103902060030154600960009054906101000a900463ffffffff1663ffffffff16600c8685815181106127be576127bd613814565b5b60200260200101516040516127d3919061355a565b908152602001604051809103902060010154426127f0919061369e565b6127fa9190613701565b612804919061369e565b905080600c85848151811061281c5761281b613814565b5b6020026020010151604051612831919061355a565b908152602001604051809103902060040160009054906101000a900463ffffffff1663ffffffff16600c86858151811061286e5761286d613814565b5b6020026020010151604051612883919061355a565b90815260200160405180910390206005015461289f9190613701565b6128a99190613732565b836128b49190613774565b9250505b5b80806128c490613843565b915050612568565b5080925050505b90565b6000600a60003373ffffffffffffffffffffffffffffffffffffffff1673ffffffffffffffffffffffffffffffffffffffff168152602001908152602001600020541161292257600080fd5b6001600682604051612934919061355a565b908152602001604051809103902060000160149054906101000a900460ff1660ff161461296057600080fd5b6002600682604051612972919061355a565b908152602001604051809103902060000160146101000a81548160ff021916908360ff16021790555050565b600073ffffffffffffffffffffffffffffffffffffffff168373ffffffffffffffffffffffffffffffffffffffff1603612a0d576040517f08c379a0000000000000000000000000000000000000000000000000000000008152600401612a0490613d68565b60405180910390fd5b600073ffffffffffffffffffffffffffffffffffffffff168273ffffffffffffffffffffffffffffffffffffffff1603612a7c576040517f08c379a0000000000000000000000000000000000000000000000000000000008152600401612a7390613dfa565b60405180910390fd5b6000600460008573ffffffffffffffffffffffffffffffffffffffff1673ffffffffffffffffffffffffffffffffffffffff16815260200190815260200160002054905081811015612b03576040517f08c379a0000000000000000000000000000000000000000000000000000000008152600401612afa90613e8c565b60405180910390fd5b8181612b0f919061369e565b600460008673ffffffffffffffffffffffffffffffffffffffff1673ffffffffffffffffffffffffffffffffffffffff1681526020019081526020016000208190555081600460008573ffffffffffffffffffffffffffffffffffffffff1673ffffffffffffffffffffffffffffffffffffffff1681526020019081526020016000206000828254612ba19190613774565b9250508190555050505050565b60405180610140016040528060608152602001600081526020016000815260200160008152602001600063ffffffff16815260200160008152602001600015158152602001600015158152602001600073ffffffffffffffffffffffffffffffffffffffff168152602001600073ffffffffffffffffffffffffffffffffffffffff1681525090565b600081519050919050565b600082825260208201905092915050565b60005b83811015612c71578082015181840152602081019050612c56565b60008484015250505050565b6000601f19601f8301169050919050565b6000612c9982612c37565b612ca38185612c42565b9350612cb3818560208601612c53565b612cbc81612c7d565b840191505092915050565b60006020820190508181036000830152612ce18184612c8e565b905092915050565b6000604051905090565b600080fd5b600080fd5b600073ffffffffffffffffffffffffffffffffffffffff82169050919050565b6000612d2882612cfd565b9050919050565b612d3881612d1d565b8114612d4357600080fd5b50565b600081359050612d5581612d2f565b92915050565b6000819050919050565b612d6e81612d5b565b8114612d7957600080fd5b50565b600081359050612d8b81612d65565b92915050565b60008060408385031215612da857612da7612cf3565b5b6000612db685828601612d46565b9250506020612dc785828601612d7c565b9150509250929050565b60008115159050919050565b612de681612dd1565b82525050565b6000602082019050612e016000830184612ddd565b92915050565b612e1081612d5b565b82525050565b6000602082019050612e2b6000830184612e07565b92915050565b600060208284031215612e4757612e46612cf3565b5b6000612e5584828501612d46565b91505092915050565b600081519050919050565b600082825260208201905092915050565b6000819050602082019050919050565b600082825260208201905092915050565b6000612ea682612c37565b612eb08185612e8a565b9350612ec0818560208601612c53565b612ec981612c7d565b840191505092915050565b6000612ee08383612e9b565b905092915050565b6000602082019050919050565b6000612f0082612e5e565b612f0a8185612e69565b935083602082028501612f1c85612e7a565b8060005b85811015612f585784840389528151612f398582612ed4565b9450612f4483612ee8565b925060208a01995050600181019050612f20565b50829750879550505050505092915050565b60006020820190508181036000830152612f848184612ef5565b905092915050565b600080fd5b600080fd5b7f4e487b7100000000000000000000000000000000000000000000000000000000600052604160045260246000fd5b612fce82612c7d565b810181811067ffffffffffffffff82111715612fed57612fec612f96565b5b80604052505050565b6000613000612ce9565b905061300c8282612fc5565b919050565b600067ffffffffffffffff82111561302c5761302b612f96565b5b61303582612c7d565b9050602081019050919050565b82818337600083830152505050565b600061306461305f84613011565b612ff6565b9050828152602081018484840111156130805761307f612f91565b5b61308b848285613042565b509392505050565b600082601f8301126130a8576130a7612f8c565b5b81356130b8848260208601613051565b91505092915050565b6000602082840312156130d7576130d6612cf3565b5b600082013567ffffffffffffffff8111156130f5576130f4612cf8565b5b61310184828501613093565b91505092915050565b600060ff82169050919050565b6131208161310a565b82525050565b600060208201905061313b6000830184613117565b92915050565b600063ffffffff82169050919050565b61315a81613141565b811461316557600080fd5b50565b60008135905061317781613151565b92915050565b600080600080600060a0868803121561319957613198612cf3565b5b600086013567ffffffffffffffff8111156131b7576131b6612cf8565b5b6131c388828901613093565b95505060206131d488828901613168565b945050604086013567ffffffffffffffff8111156131f5576131f4612cf8565b5b61320188828901613093565b935050606061321288828901612d7c565b925050608061322388828901612d46565b9150509295509295909350565b6132398161310a565b811461324457600080fd5b50565b60008135905061325681613230565b92915050565b60006020828403121561327257613271612cf3565b5b600061328084828501613247565b91505092915050565b600060408201905061329e6000830185612ddd565b6132ab6020830184612ddd565b9392505050565b6132bb81612d5b565b82525050565b6132ca81613141565b82525050565b6132d981612dd1565b82525050565b6132e881612d1d565b82525050565b600061014083016000830151848203600086015261330c8282612e9b565b915050602083015161332160208601826132b2565b50604083015161333460408601826132b2565b50606083015161334760608601826132b2565b50608083015161335a60808601826132c1565b5060a083015161336d60a08601826132b2565b5060c083015161338060c08601826132d0565b5060e083015161339360e08601826132d0565b506101008301516133a86101008601826132df565b506101208301516133bd6101208601826132df565b508091505092915050565b600060208201905081810360008301526133e281846132ee565b905092915050565b6000806040838503121561340157613400612cf3565b5b600083013567ffffffffffffffff81111561341f5761341e612cf8565b5b61342b85828601613093565b925050602061343c85828601612d46565b9150509250929050565b61344f81612d1d565b82525050565b600060408201905061346a6000830185613446565b6134776020830184613117565b9392505050565b6000806040838503121561349557613494612cf3565b5b60006134a385828601612d46565b92505060206134b485828601612d46565b9150509250929050565b7f4e487b7100000000000000000000000000000000000000000000000000000000600052602260045260246000fd5b6000600282049050600182168061350557607f821691505b602082108103613518576135176134be565b5b50919050565b600081905092915050565b600061353482612c37565b61353e818561351e565b935061354e818560208601612c53565b80840191505092915050565b60006135668284613529565b915081905092915050565b7f546865206f7264657220686173206265656e2077697468647261776e00000000600082015250565b60006135a7601c83612c42565b91506135b282613571565b602082019050919050565b600060208201905081810360008301526135d68161359a565b9050919050565b7f506c6561736520636f6e6669726d207468652077616c6c65742061646472657360008201527f732c2043616e206e6f7420776974686472617700000000000000000000000000602082015250565b6000613639603383612c42565b9150613644826135dd565b604082019050919050565b600060208201905081810360008301526136688161362c565b9050919050565b7f4e487b7100000000000000000000000000000000000000000000000000000000600052601160045260246000fd5b60006136a982612d5b565b91506136b483612d5b565b92508282039050818111156136cc576136cb61366f565b5b92915050565b7f4e487b7100000000000000000000000000000000000000000000000000000000600052601260045260246000fd5b600061370c82612d5b565b915061371783612d5b565b925082613727576137266136d2565b5b828204905092915050565b600061373d82612d5b565b915061374883612d5b565b925082820261375681612d5b565b9150828204841483151761376d5761376c61366f565b5b5092915050565b600061377f82612d5b565b915061378a83612d5b565b92508282019050808211156137a2576137a161366f565b5b92915050565b7f4e6f74206465706f736974730000000000000000000000000000000000000000600082015250565b60006137de600c83612c42565b91506137e9826137a8565b602082019050919050565b6000602082019050818103600083015261380d816137d1565b9050919050565b7f4e487b7100000000000000000000000000000000000000000000000000000000600052603260045260246000fd5b600061384e82612d5b565b91507fffffffffffffffffffffffffffffffffffffffffffffffffffffffffffffffff82036138805761387f61366f565b5b600182019050919050565b7f416c726561647920706169640000000000000000000000000000000000000000600082015250565b60006138c1600c83612c42565b91506138cc8261388b565b602082019050919050565b600060208201905081810360008301526138f0816138b4565b9050919050565b7f4e6f7420656e6f75676820435344000000000000000000000000000000000000600082015250565b600061392d600e83612c42565b9150613938826138f7565b602082019050919050565b6000602082019050818103600083015261395c81613920565b9050919050565b600061396e82613141565b915061397983613141565b925082820261398781613141565b91508082146139995761399861366f565b5b5092915050565b60008190508160005260206000209050919050565b60006020601f8301049050919050565b600082821b905092915050565b600060088302613a027fffffffffffffffffffffffffffffffffffffffffffffffffffffffffffffffff826139c5565b613a0c86836139c5565b95508019841693508086168417925050509392505050565b6000819050919050565b6000613a49613a44613a3f84612d5b565b613a24565b612d5b565b9050919050565b6000819050919050565b613a6383613a2e565b613a77613a6f82613a50565b8484546139d2565b825550505050565b600090565b613a8c613a7f565b613a97818484613a5a565b505050565b5b81811015613abb57613ab0600082613a84565b600181019050613a9d565b5050565b601f821115613b0057613ad1816139a0565b613ada846139b5565b81016020851015613ae9578190505b613afd613af5856139b5565b830182613a9c565b50505b505050565b600082821c905092915050565b6000613b2360001984600802613b05565b1980831691505092915050565b6000613b3c8383613b12565b9150826002028217905092915050565b613b5582612c37565b67ffffffffffffffff811115613b6e57613b6d612f96565b5b613b7882546134ed565b613b83828285613abf565b600060209050601f831160018114613bb65760008415613ba4578287015190505b613bae8582613b30565b865550613c16565b601f198416613bc4866139a0565b60005b82811015613bec57848901518255600182019150602085019450602081019050613bc7565b86831015613c095784890151613c05601f891682613b12565b8355505b6001600288020188555050505b505050505050565b7f416c7265616479207374616b6564000000000000000000000000000000000000600082015250565b6000613c54600e83612c42565b9150613c5f82613c1e565b602082019050919050565b60006020820190508181036000830152613c8381613c47565b9050919050565b7f4e6f7420656e6f75676820746f6b656e73000000000000000000000000000000600082015250565b6000613cc0601183612c42565b9150613ccb82613c8a565b602082019050919050565b60006020820190508181036000830152613cef81613cb3565b9050919050565b7f45524332303a207472616e736665722066726f6d20746865207a65726f20616460008201527f6472657373000000000000000000000000000000000000000000000000000000602082015250565b6000613d52602583612c42565b9150613d5d82613cf6565b604082019050919050565b60006020820190508181036000830152613d8181613d45565b9050919050565b7f45524332303a207472616e7366657220746f20746865207a65726f206164647260008201527f6573730000000000000000000000000000000000000000000000000000000000602082015250565b6000613de4602383612c42565b9150613def82613d88565b604082019050919050565b60006020820190508181036000830152613e1381613dd7565b9050919050565b7f45524332303a207472616e7366657220616d6f756e742065786365656473206260008201527f616c616e63650000000000000000000000000000000000000000000000000000602082015250565b6000613e76602683612c42565b9150613e8182613e1a565b604082019050919050565b60006020820190508181036000830152613ea581613e69565b905091905056fea2646970667358221220d44d5a033a1dcef4178bef743ecb289ceb3c0f573f06e312c5cf0a4eb95b08f264736f6c63430008110033","opcodes":"PUSH1 0x80 PUSH1 0x40 MSTORE PUSH1 0x40 MLOAD DUP1 PUSH1 0x40 ADD PUSH1 0x40 MSTORE DUP1 PUSH1 0xD DUP2 MSTORE PUSH1 0x20 ADD PUSH32 0x436C6F7564536C69742044616F00000000000000000000000000000000000000 DUP2 MSTORE POP PUSH1 0x0 SWAP1 DUP2 PUSH3 0x4A SWAP2 SWAP1 PUSH3 0x4EE JUMP JUMPDEST POP PUSH1 0x40 MLOAD DUP1 PUSH1 0x40 ADD PUSH1 0x40 MSTORE DUP1 PUSH1 0x3 DUP2 MSTORE PUSH1 0x20 ADD PUSH32 0x4353440000000000000000000000000000000000000000000000000000000000 DUP2 MSTORE POP PUSH1 0x1 SWAP1 DUP2 PUSH3 0x91 SWAP2 SWAP1 PUSH3 0x4EE JUMP JUMPDEST POP PUSH1 0x12 PUSH1 0x3 PUSH1 0x0 PUSH2 0x100 EXP DUP2 SLOAD DUP2 PUSH1 0xFF MUL NOT AND SWAP1 DUP4 PUSH1 0xFF AND MUL OR SWAP1 SSTORE POP CALLVALUE DUP1 ISZERO PUSH3 0xBB JUMPI PUSH1 0x0 DUP1 REVERT JUMPDEST POP PUSH3 0xFC CALLER PUSH1 0x3 PUSH1 0x0 SWAP1 SLOAD SWAP1 PUSH2 0x100 EXP SWAP1 DIV PUSH1 0xFF AND PUSH1 0xA PUSH3 0xDF SWAP2 SWAP1 PUSH3 0x765 JUMP JUMPDEST PUSH4 0x5F5E100 PUSH3 0xF0 SWAP2 SWAP1 PUSH3 0x7B6 JUMP JUMPDEST PUSH3 0x18B PUSH1 0x20 SHL PUSH1 0x20 SHR JUMP JUMPDEST PUSH1 0x3 PUSH1 0x0 SWAP1 SLOAD SWAP1 PUSH2 0x100 EXP SWAP1 DIV PUSH1 0xFF AND PUSH1 0xA PUSH3 0x11A SWAP2 SWAP1 PUSH3 0x765 JUMP JUMPDEST PUSH2 0x1388 PUSH3 0x129 SWAP2 SWAP1 PUSH3 0x7B6 JUMP JUMPDEST PUSH1 0x7 DUP2 SWAP1 SSTORE POP PUSH1 0x3 PUSH1 0x0 SWAP1 SLOAD SWAP1 PUSH2 0x100 EXP SWAP1 DIV PUSH1 0xFF AND PUSH1 0xA PUSH3 0x14D SWAP2 SWAP1 PUSH3 0x765 JUMP JUMPDEST PUSH2 0x3E8 PUSH3 0x15C SWAP2 SWAP1 PUSH3 0x7B6 JUMP JUMPDEST PUSH1 0x8 DUP2 SWAP1 SSTORE POP PUSH2 0xE10 PUSH1 0x9 PUSH1 0x0 PUSH2 0x100 EXP DUP2 SLOAD DUP2 PUSH4 0xFFFFFFFF MUL NOT AND SWAP1 DUP4 PUSH4 0xFFFFFFFF AND MUL OR SWAP1 SSTORE POP PUSH3 0x8BF JUMP JUMPDEST PUSH1 0x0 PUSH20 0xFFFFFFFFFFFFFFFFFFFFFFFFFFFFFFFFFFFFFFFF AND DUP3 PUSH20 0xFFFFFFFFFFFFFFFFFFFFFFFFFFFFFFFFFFFFFFFF AND SUB PUSH3 0x1FD JUMPI PUSH1 0x40 MLOAD PUSH32 0x8C379A000000000000000000000000000000000000000000000000000000000 DUP2 MSTORE PUSH1 0x4 ADD PUSH3 0x1F4 SWAP1 PUSH3 0x862 JUMP JUMPDEST PUSH1 0x40 MLOAD DUP1 SWAP2 SUB SWAP1 REVERT JUMPDEST DUP1 PUSH1 0x2 PUSH1 0x0 DUP3 DUP3 SLOAD PUSH3 0x211 SWAP2 SWAP1 PUSH3 0x884 JUMP JUMPDEST SWAP3 POP POP DUP2 SWAP1 SSTORE POP DUP1 PUSH1 0x4 PUSH1 0x0 DUP5 PUSH20 0xFFFFFFFFFFFFFFFFFFFFFFFFFFFFFFFFFFFFFFFF AND PUSH20 0xFFFFFFFFFFFFFFFFFFFFFFFFFFFFFFFFFFFFFFFF AND DUP2 MSTORE PUSH1 0x20 ADD SWAP1 DUP2 MSTORE PUSH1 0x20 ADD PUSH1 0x0 KECCAK256 PUSH1 0x0 DUP3 DUP3 SLOAD PUSH3 0x269 SWAP2 SWAP1 PUSH3 0x884 JUMP JUMPDEST SWAP3 POP POP DUP2 SWAP1 SSTORE POP POP POP JUMP JUMPDEST PUSH1 0x0 DUP2 MLOAD SWAP1 POP SWAP2 SWAP1 POP JUMP JUMPDEST PUSH32 0x4E487B7100000000000000000000000000000000000000000000000000000000 PUSH1 0x0 MSTORE PUSH1 0x41 PUSH1 0x4 MSTORE PUSH1 0x24 PUSH1 0x0 REVERT JUMPDEST PUSH32 0x4E487B7100000000000000000000000000000000000000000000000000000000 PUSH1 0x0 MSTORE PUSH1 0x22 PUSH1 0x4 MSTORE PUSH1 0x24 PUSH1 0x0 REVERT JUMPDEST PUSH1 0x0 PUSH1 0x2 DUP3 DIV SWAP1 POP PUSH1 0x1 DUP3 AND DUP1 PUSH3 0x2F6 JUMPI PUSH1 0x7F DUP3 AND SWAP2 POP JUMPDEST PUSH1 0x20 DUP3 LT DUP2 SUB PUSH3 0x30C JUMPI PUSH3 0x30B PUSH3 0x2AE JUMP JUMPDEST JUMPDEST POP SWAP2 SWAP1 POP JUMP JUMPDEST PUSH1 0x0 DUP2 SWAP1 POP DUP2 PUSH1 0x0 MSTORE PUSH1 0x20 PUSH1 0x0 KECCAK256 SWAP1 POP SWAP2 SWAP1 POP JUMP JUMPDEST PUSH1 0x0 PUSH1 0x20 PUSH1 0x1F DUP4 ADD DIV SWAP1 POP SWAP2 SWAP1 POP JUMP JUMPDEST PUSH1 0x0 DUP3 DUP3 SHL SWAP1 POP SWAP3 SWAP2 POP POP JUMP JUMPDEST PUSH1 0x0 PUSH1 0x8 DUP4 MUL PUSH3 0x376 PUSH32 0xFFFFFFFFFFFFFFFFFFFFFFFFFFFFFFFFFFFFFFFFFFFFFFFFFFFFFFFFFFFFFFFF DUP3 PUSH3 0x337 JUMP JUMPDEST PUSH3 0x382 DUP7 DUP4 PUSH3 0x337 JUMP JUMPDEST SWAP6 POP DUP1 NOT DUP5 AND SWAP4 POP DUP1 DUP7 AND DUP5 OR SWAP3 POP POP POP SWAP4 SWAP3 POP POP POP JUMP JUMPDEST PUSH1 0x0 DUP2 SWAP1 POP SWAP2 SWAP1 POP JUMP JUMPDEST PUSH1 0x0 DUP2 SWAP1 POP SWAP2 SWAP1 POP JUMP JUMPDEST PUSH1 0x0 PUSH3 0x3CF PUSH3 0x3C9 PUSH3 0x3C3 DUP5 PUSH3 0x39A JUMP JUMPDEST PUSH3 0x3A4 JUMP JUMPDEST PUSH3 0x39A JUMP JUMPDEST SWAP1 POP SWAP2 SWAP1 POP JUMP JUMPDEST PUSH1 0x0 DUP2 SWAP1 POP SWAP2 SWAP1 POP JUMP JUMPDEST PUSH3 0x3EB DUP4 PUSH3 0x3AE JUMP JUMPDEST PUSH3 0x403 PUSH3 0x3FA DUP3 PUSH3 0x3D6 JUMP JUMPDEST DUP5 DUP5 SLOAD PUSH3 0x344 JUMP JUMPDEST DUP3 SSTORE POP POP POP POP JUMP JUMPDEST PUSH1 0x0 SWAP1 JUMP JUMPDEST PUSH3 0x41A PUSH3 0x40B JUMP JUMPDEST PUSH3 0x427 DUP2 DUP5 DUP5 PUSH3 0x3E0 JUMP JUMPDEST POP POP POP JUMP JUMPDEST JUMPDEST DUP2 DUP2 LT ISZERO PUSH3 0x44F JUMPI PUSH3 0x443 PUSH1 0x0 DUP3 PUSH3 0x410 JUMP JUMPDEST PUSH1 0x1 DUP2 ADD SWAP1 POP PUSH3 0x42D JUMP JUMPDEST POP POP JUMP JUMPDEST PUSH1 0x1F DUP3 GT ISZERO PUSH3 0x49E JUMPI PUSH3 0x468 DUP2 PUSH3 0x312 JUMP JUMPDEST PUSH3 0x473 DUP5 PUSH3 0x327 JUMP JUMPDEST DUP2 ADD PUSH1 0x20 DUP6 LT ISZERO PUSH3 0x483 JUMPI DUP2 SWAP1 POP JUMPDEST PUSH3 0x49B PUSH3 0x492 DUP6 PUSH3 0x327 JUMP JUMPDEST DUP4 ADD DUP3 PUSH3 0x42C JUMP JUMPDEST POP POP JUMPDEST POP POP POP JUMP JUMPDEST PUSH1 0x0 DUP3 DUP3 SHR SWAP1 POP SWAP3 SWAP2 POP POP JUMP JUMPDEST PUSH1 0x0 PUSH3 0x4C3 PUSH1 0x0 NOT DUP5 PUSH1 0x8 MUL PUSH3 0x4A3 JUMP JUMPDEST NOT DUP1 DUP4 AND SWAP2 POP POP SWAP3 SWAP2 POP POP JUMP JUMPDEST PUSH1 0x0 PUSH3 0x4DE DUP4 DUP4 PUSH3 0x4B0 JUMP JUMPDEST SWAP2 POP DUP3 PUSH1 0x2 MUL DUP3 OR SWAP1 POP SWAP3 SWAP2 POP POP JUMP JUMPDEST PUSH3 0x4F9 DUP3 PUSH3 0x274 JUMP JUMPDEST PUSH8 0xFFFFFFFFFFFFFFFF DUP2 GT ISZERO PUSH3 0x515 JUMPI PUSH3 0x514 PUSH3 0x27F JUMP JUMPDEST JUMPDEST PUSH3 0x521 DUP3 SLOAD PUSH3 0x2DD JUMP JUMPDEST PUSH3 0x52E DUP3 DUP3 DUP6 PUSH3 0x453 JUMP JUMPDEST PUSH1 0x0 PUSH1 0x20 SWAP1 POP PUSH1 0x1F DUP4 GT PUSH1 0x1 DUP2 EQ PUSH3 0x566 JUMPI PUSH1 0x0 DUP5 ISZERO PUSH3 0x551 JUMPI DUP3 DUP8 ADD MLOAD SWAP1 POP JUMPDEST PUSH3 0x55D DUP6 DUP3 PUSH3 0x4D0 JUMP JUMPDEST DUP7 SSTORE POP PUSH3 0x5CD JUMP JUMPDEST PUSH1 0x1F NOT DUP5 AND PUSH3 0x576 DUP7 PUSH3 0x312 JUMP JUMPDEST PUSH1 0x0 JUMPDEST DUP3 DUP2 LT ISZERO PUSH3 0x5A0 JUMPI DUP5 DUP10 ADD MLOAD DUP3 SSTORE PUSH1 0x1 DUP3 ADD SWAP2 POP PUSH1 0x20 DUP6 ADD SWAP5 POP PUSH1 0x20 DUP2 ADD SWAP1 POP PUSH3 0x579 JUMP JUMPDEST DUP7 DUP4 LT ISZERO PUSH3 0x5C0 JUMPI DUP5 DUP10 ADD MLOAD PUSH3 0x5BC PUSH1 0x1F DUP10 AND DUP3 PUSH3 0x4B0 JUMP JUMPDEST DUP4 SSTORE POP JUMPDEST PUSH1 0x1 PUSH1 0x2 DUP9 MUL ADD DUP9 SSTORE POP POP POP JUMPDEST POP POP POP POP POP POP JUMP JUMPDEST PUSH32 0x4E487B7100000000000000000000000000000000000000000000000000000000 PUSH1 0x0 MSTORE PUSH1 0x11 PUSH1 0x4 MSTORE PUSH1 0x24 PUSH1 0x0 REVERT JUMPDEST PUSH1 0x0 DUP2 PUSH1 0x1 SHR SWAP1 POP SWAP2 SWAP1 POP JUMP JUMPDEST PUSH1 0x0 DUP1 DUP3 SWAP2 POP DUP4 SWAP1 POP JUMPDEST PUSH1 0x1 DUP6 GT ISZERO PUSH3 0x663 JUMPI DUP1 DUP7 DIV DUP2 GT ISZERO PUSH3 0x63B JUMPI PUSH3 0x63A PUSH3 0x5D5 JUMP JUMPDEST JUMPDEST PUSH1 0x1 DUP6 AND ISZERO PUSH3 0x64B JUMPI DUP1 DUP3 MUL SWAP2 POP JUMPDEST DUP1 DUP2 MUL SWAP1 POP PUSH3 0x65B DUP6 PUSH3 0x604 JUMP JUMPDEST SWAP5 POP PUSH3 0x61B JUMP JUMPDEST SWAP5 POP SWAP5 SWAP3 POP POP POP JUMP JUMPDEST PUSH1 0x0 DUP3 PUSH3 0x67E JUMPI PUSH1 0x1 SWAP1 POP PUSH3 0x751 JUMP JUMPDEST DUP2 PUSH3 0x68E JUMPI PUSH1 0x0 SWAP1 POP PUSH3 0x751 JUMP JUMPDEST DUP2 PUSH1 0x1 DUP2 EQ PUSH3 0x6A7 JUMPI PUSH1 0x2 DUP2 EQ PUSH3 0x6B2 JUMPI PUSH3 0x6E8 JUMP JUMPDEST PUSH1 0x1 SWAP2 POP POP PUSH3 0x751 JUMP JUMPDEST PUSH1 0xFF DUP5 GT ISZERO PUSH3 0x6C7 JUMPI PUSH3 0x6C6 PUSH3 0x5D5 JUMP JUMPDEST JUMPDEST DUP4 PUSH1 0x2 EXP SWAP2 POP DUP5 DUP3 GT ISZERO PUSH3 0x6E1 JUMPI PUSH3 0x6E0 PUSH3 0x5D5 JUMP JUMPDEST JUMPDEST POP PUSH3 0x751 JUMP JUMPDEST POP PUSH1 0x20 DUP4 LT PUSH2 0x133 DUP4 LT AND PUSH1 0x4E DUP5 LT PUSH1 0xB DUP5 LT AND OR ISZERO PUSH3 0x722 JUMPI DUP3 DUP3 EXP SWAP1 POP DUP4 DUP2 GT ISZERO PUSH3 0x71C JUMPI PUSH3 0x71B PUSH3 0x5D5 JUMP JUMPDEST JUMPDEST PUSH3 0x751 JUMP JUMPDEST PUSH3 0x731 DUP5 DUP5 DUP5 PUSH1 0x1 PUSH3 0x611 JUMP JUMPDEST SWAP3 POP SWAP1 POP DUP2 DUP5 DIV DUP2 GT ISZERO PUSH3 0x74B JUMPI PUSH3 0x74A PUSH3 0x5D5 JUMP JUMPDEST JUMPDEST DUP2 DUP2 MUL SWAP1 POP JUMPDEST SWAP4 SWAP3 POP POP POP JUMP JUMPDEST PUSH1 0x0 PUSH1 0xFF DUP3 AND SWAP1 POP SWAP2 SWAP1 POP JUMP JUMPDEST PUSH1 0x0 PUSH3 0x772 DUP3 PUSH3 0x39A JUMP JUMPDEST SWAP2 POP PUSH3 0x77F DUP4 PUSH3 0x758 JUMP JUMPDEST SWAP3 POP PUSH3 0x7AE PUSH32 0xFFFFFFFFFFFFFFFFFFFFFFFFFFFFFFFFFFFFFFFFFFFFFFFFFFFFFFFFFFFFFFFF DUP5 DUP5 PUSH3 0x66C JUMP JUMPDEST SWAP1 POP SWAP3 SWAP2 POP POP JUMP JUMPDEST PUSH1 0x0 PUSH3 0x7C3 DUP3 PUSH3 0x39A JUMP JUMPDEST SWAP2 POP PUSH3 0x7D0 DUP4 PUSH3 0x39A JUMP JUMPDEST SWAP3 POP DUP3 DUP3 MUL PUSH3 0x7E0 DUP2 PUSH3 0x39A JUMP JUMPDEST SWAP2 POP DUP3 DUP3 DIV DUP5 EQ DUP4 ISZERO OR PUSH3 0x7FA JUMPI PUSH3 0x7F9 PUSH3 0x5D5 JUMP JUMPDEST JUMPDEST POP SWAP3 SWAP2 POP POP JUMP JUMPDEST PUSH1 0x0 DUP3 DUP3 MSTORE PUSH1 0x20 DUP3 ADD SWAP1 POP SWAP3 SWAP2 POP POP JUMP JUMPDEST PUSH32 0x45524332303A206D696E7420746F20746865207A65726F206164647265737300 PUSH1 0x0 DUP3 ADD MSTORE POP JUMP JUMPDEST PUSH1 0x0 PUSH3 0x84A PUSH1 0x1F DUP4 PUSH3 0x801 JUMP JUMPDEST SWAP2 POP PUSH3 0x857 DUP3 PUSH3 0x812 JUMP JUMPDEST PUSH1 0x20 DUP3 ADD SWAP1 POP SWAP2 SWAP1 POP JUMP JUMPDEST PUSH1 0x0 PUSH1 0x20 DUP3 ADD SWAP1 POP DUP2 DUP2 SUB PUSH1 0x0 DUP4 ADD MSTORE PUSH3 0x87D DUP2 PUSH3 0x83B JUMP JUMPDEST SWAP1 POP SWAP2 SWAP1 POP JUMP JUMPDEST PUSH1 0x0 PUSH3 0x891 DUP3 PUSH3 0x39A JUMP JUMPDEST SWAP2 POP PUSH3 0x89E DUP4 PUSH3 0x39A JUMP JUMPDEST SWAP3 POP DUP3 DUP3 ADD SWAP1 POP DUP1 DUP3 GT ISZERO PUSH3 0x8B9 JUMPI PUSH3 0x8B8 PUSH3 0x5D5 JUMP JUMPDEST JUMPDEST SWAP3 SWAP2 POP POP JUMP JUMPDEST PUSH2 0x3EE2 DUP1 PUSH3 0x8CF PUSH1 0x0 CODECOPY PUSH1 0x0 RETURN INVALID PUSH1 0x80 PUSH1 0x40 MSTORE CALLVALUE DUP1 ISZERO PUSH2 0x10 JUMPI PUSH1 0x0 DUP1 REVERT JUMPDEST POP PUSH1 0x4 CALLDATASIZE LT PUSH2 0x18E JUMPI PUSH1 0x0 CALLDATALOAD PUSH1 0xE0 SHR DUP1 PUSH4 0x8EC012B9 GT PUSH2 0xDE JUMPI DUP1 PUSH4 0xC6AB5D90 GT PUSH2 0x97 JUMPI DUP1 PUSH4 0xDD6887ED GT PUSH2 0x71 JUMPI DUP1 PUSH4 0xDD6887ED EQ PUSH2 0x497 JUMPI DUP1 PUSH4 0xF276B8AA EQ PUSH2 0x4C7 JUMPI DUP1 PUSH4 0xF3FBFC7B EQ PUSH2 0x4F7 JUMPI DUP1 PUSH4 0xFFC2C9B7 EQ PUSH2 0x515 JUMPI PUSH2 0x18E JUMP JUMPDEST DUP1 PUSH4 0xC6AB5D90 EQ PUSH2 0x42F JUMPI DUP1 PUSH4 0xD19E4856 EQ PUSH2 0x44B JUMPI DUP1 PUSH4 0xDD62ED3E EQ PUSH2 0x467 JUMPI PUSH2 0x18E JUMP JUMPDEST DUP1 PUSH4 0x8EC012B9 EQ PUSH2 0x358 JUMPI DUP1 PUSH4 0x95D89B41 EQ PUSH2 0x374 JUMPI DUP1 PUSH4 0xA23C7C14 EQ PUSH2 0x392 JUMPI DUP1 PUSH4 0xA4E2DF66 EQ PUSH2 0x3B0 JUMPI DUP1 PUSH4 0xA9059CBB EQ PUSH2 0x3E1 JUMPI DUP1 PUSH4 0xC5BC91E8 EQ PUSH2 0x411 JUMPI PUSH2 0x18E JUMP JUMPDEST DUP1 PUSH4 0x313CE567 GT PUSH2 0x14B JUMPI DUP1 PUSH4 0x70A08231 GT PUSH2 0x125 JUMPI DUP1 PUSH4 0x70A08231 EQ PUSH2 0x2AB JUMPI DUP1 PUSH4 0x7C9B7FDD EQ PUSH2 0x2DB JUMPI DUP1 PUSH4 0x8291A021 EQ PUSH2 0x30C JUMPI DUP1 PUSH4 0x87A858D2 EQ PUSH2 0x33C JUMPI PUSH2 0x18E JUMP JUMPDEST DUP1 PUSH4 0x313CE567 EQ PUSH2 0x255 JUMPI DUP1 PUSH4 0x5C9ABE11 EQ PUSH2 0x273 JUMPI DUP1 PUSH4 0x604F2177 EQ PUSH2 0x28F JUMPI PUSH2 0x18E JUMP JUMPDEST DUP1 PUSH4 0x6FDDE03 EQ PUSH2 0x193 JUMPI DUP1 PUSH4 0x95EA7B3 EQ PUSH2 0x1B1 JUMPI DUP1 PUSH4 0x18160DDD EQ PUSH2 0x1E1 JUMPI DUP1 PUSH4 0x183DD1CD EQ PUSH2 0x1FF JUMPI DUP1 PUSH4 0x25CFEDB5 EQ PUSH2 0x22F JUMPI DUP1 PUSH4 0x27A0B34A EQ PUSH2 0x24B JUMPI JUMPDEST PUSH1 0x0 DUP1 REVERT JUMPDEST PUSH2 0x19B PUSH2 0x531 JUMP JUMPDEST PUSH1 0x40 MLOAD PUSH2 0x1A8 SWAP2 SWAP1 PUSH2 0x2CC7 JUMP JUMPDEST PUSH1 0x40 MLOAD DUP1 SWAP2 SUB SWAP1 RETURN JUMPDEST PUSH2 0x1CB PUSH1 0x4 DUP1 CALLDATASIZE SUB DUP2 ADD SWAP1 PUSH2 0x1C6 SWAP2 SWAP1 PUSH2 0x2D91 JUMP JUMPDEST PUSH2 0x5BF JUMP JUMPDEST PUSH1 0x40 MLOAD PUSH2 0x1D8 SWAP2 SWAP1 PUSH2 0x2DEC JUMP JUMPDEST PUSH1 0x40 MLOAD DUP1 SWAP2 SUB SWAP1 RETURN JUMPDEST PUSH2 0x1E9 PUSH2 0x64C JUMP JUMPDEST PUSH1 0x40 MLOAD PUSH2 0x1F6 SWAP2 SWAP1 PUSH2 0x2E16 JUMP JUMPDEST PUSH1 0x40 MLOAD DUP1 SWAP2 SUB SWAP1 RETURN JUMPDEST PUSH2 0x219 PUSH1 0x4 DUP1 CALLDATASIZE SUB DUP2 ADD SWAP1 PUSH2 0x214 SWAP2 SWAP1 PUSH2 0x2E31 JUMP JUMPDEST PUSH2 0x652 JUMP JUMPDEST PUSH1 0x40 MLOAD PUSH2 0x226 SWAP2 SWAP1 PUSH2 0x2F6A JUMP JUMPDEST PUSH1 0x40 MLOAD DUP1 SWAP2 SUB SWAP1 RETURN JUMPDEST PUSH2 0x249 PUSH1 0x4 DUP1 CALLDATASIZE SUB DUP2 ADD SWAP1 PUSH2 0x244 SWAP2 SWAP1 PUSH2 0x30C1 JUMP JUMPDEST PUSH2 0x76A JUMP JUMPDEST STOP JUMPDEST PUSH2 0x253 PUSH2 0xB13 JUMP JUMPDEST STOP JUMPDEST PUSH2 0x25D PUSH2 0x10C6 JUMP JUMPDEST PUSH1 0x40 MLOAD PUSH2 0x26A SWAP2 SWAP1 PUSH2 0x3126 JUMP JUMPDEST PUSH1 0x40 MLOAD DUP1 SWAP2 SUB SWAP1 RETURN JUMPDEST PUSH2 0x28D PUSH1 0x4 DUP1 CALLDATASIZE SUB DUP2 ADD SWAP1 PUSH2 0x288 SWAP2 SWAP1 PUSH2 0x317D JUMP JUMPDEST PUSH2 0x10D9 JUMP JUMPDEST STOP JUMPDEST PUSH2 0x2A9 PUSH1 0x4 DUP1 CALLDATASIZE SUB DUP2 ADD SWAP1 PUSH2 0x2A4 SWAP2 SWAP1 PUSH2 0x325C JUMP JUMPDEST PUSH2 0x141A JUMP JUMPDEST STOP JUMPDEST PUSH2 0x2C5 PUSH1 0x4 DUP1 CALLDATASIZE SUB DUP2 ADD SWAP1 PUSH2 0x2C0 SWAP2 SWAP1 PUSH2 0x2E31 JUMP JUMPDEST PUSH2 0x16A2 JUMP JUMPDEST PUSH1 0x40 MLOAD PUSH2 0x2D2 SWAP2 SWAP1 PUSH2 0x2E16 JUMP JUMPDEST PUSH1 0x40 MLOAD DUP1 SWAP2 SUB SWAP1 RETURN JUMPDEST PUSH2 0x2F5 PUSH1 0x4 DUP1 CALLDATASIZE SUB DUP2 ADD SWAP1 PUSH2 0x2F0 SWAP2 SWAP1 PUSH2 0x30C1 JUMP JUMPDEST PUSH2 0x16EB JUMP JUMPDEST PUSH1 0x40 MLOAD PUSH2 0x303 SWAP3 SWAP2 SWAP1 PUSH2 0x3289 JUMP JUMPDEST PUSH1 0x40 MLOAD DUP1 SWAP2 SUB SWAP1 RETURN JUMPDEST PUSH2 0x326 PUSH1 0x4 DUP1 CALLDATASIZE SUB DUP2 ADD SWAP1 PUSH2 0x321 SWAP2 SWAP1 PUSH2 0x30C1 JUMP JUMPDEST PUSH2 0x1845 JUMP JUMPDEST PUSH1 0x40 MLOAD PUSH2 0x333 SWAP2 SWAP1 PUSH2 0x33C8 JUMP JUMPDEST PUSH1 0x40 MLOAD DUP1 SWAP2 SUB SWAP1 RETURN JUMPDEST PUSH2 0x356 PUSH1 0x4 DUP1 CALLDATASIZE SUB DUP2 ADD SWAP1 PUSH2 0x351 SWAP2 SWAP1 PUSH2 0x33EA JUMP JUMPDEST PUSH2 0x1A40 JUMP JUMPDEST STOP JUMPDEST PUSH2 0x372 PUSH1 0x4 DUP1 CALLDATASIZE SUB DUP2 ADD SWAP1 PUSH2 0x36D SWAP2 SWAP1 PUSH2 0x30C1 JUMP JUMPDEST PUSH2 0x1BF5 JUMP JUMPDEST STOP JUMPDEST PUSH2 0x37C PUSH2 0x1E2F JUMP JUMPDEST PUSH1 0x40 MLOAD PUSH2 0x389 SWAP2 SWAP1 PUSH2 0x2CC7 JUMP JUMPDEST PUSH1 0x40 MLOAD DUP1 SWAP2 SUB SWAP1 RETURN JUMPDEST PUSH2 0x39A PUSH2 0x1EBD JUMP JUMPDEST PUSH1 0x40 MLOAD PUSH2 0x3A7 SWAP2 SWAP1 PUSH2 0x2E16 JUMP JUMPDEST PUSH1 0x40 MLOAD DUP1 SWAP2 SUB SWAP1 RETURN JUMPDEST PUSH2 0x3CA PUSH1 0x4 DUP1 CALLDATASIZE SUB DUP2 ADD SWAP1 PUSH2 0x3C5 SWAP2 SWAP1 PUSH2 0x30C1 JUMP JUMPDEST PUSH2 0x1EC3 JUMP JUMPDEST PUSH1 0x40 MLOAD PUSH2 0x3D8 SWAP3 SWAP2 SWAP1 PUSH2 0x3455 JUMP JUMPDEST PUSH1 0x40 MLOAD DUP1 SWAP2 SUB SWAP1 RETURN JUMPDEST PUSH2 0x3FB PUSH1 0x4 DUP1 CALLDATASIZE SUB DUP2 ADD SWAP1 PUSH2 0x3F6 SWAP2 SWAP1 PUSH2 0x2D91 JUMP JUMPDEST PUSH2 0x1F40 JUMP JUMPDEST PUSH1 0x40 MLOAD PUSH2 0x408 SWAP2 SWAP1 PUSH2 0x2DEC JUMP JUMPDEST PUSH1 0x40 MLOAD DUP1 SWAP2 SUB SWAP1 RETURN JUMPDEST PUSH2 0x419 PUSH2 0x1FD9 JUMP JUMPDEST PUSH1 0x40 MLOAD PUSH2 0x426 SWAP2 SWAP1 PUSH2 0x2E16 JUMP JUMPDEST PUSH1 0x40 MLOAD DUP1 SWAP2 SUB SWAP1 RETURN JUMPDEST PUSH2 0x449 PUSH1 0x4 DUP1 CALLDATASIZE SUB DUP2 ADD SWAP1 PUSH2 0x444 SWAP2 SWAP1 PUSH2 0x325C JUMP JUMPDEST PUSH2 0x1FDF JUMP JUMPDEST STOP JUMPDEST PUSH2 0x465 PUSH1 0x4 DUP1 CALLDATASIZE SUB DUP2 ADD SWAP1 PUSH2 0x460 SWAP2 SWAP1 PUSH2 0x30C1 JUMP JUMPDEST PUSH2 0x21B1 JUMP JUMPDEST STOP JUMPDEST PUSH2 0x481 PUSH1 0x4 DUP1 CALLDATASIZE SUB DUP2 ADD SWAP1 PUSH2 0x47C SWAP2 SWAP1 PUSH2 0x347E JUMP JUMPDEST PUSH2 0x2289 JUMP JUMPDEST PUSH1 0x40 MLOAD PUSH2 0x48E SWAP2 SWAP1 PUSH2 0x2E16 JUMP JUMPDEST PUSH1 0x40 MLOAD DUP1 SWAP2 SUB SWAP1 RETURN JUMPDEST PUSH2 0x4B1 PUSH1 0x4 DUP1 CALLDATASIZE SUB DUP2 ADD SWAP1 PUSH2 0x4AC SWAP2 SWAP1 PUSH2 0x30C1 JUMP JUMPDEST PUSH2 0x2310 JUMP JUMPDEST PUSH1 0x40 MLOAD PUSH2 0x4BE SWAP2 SWAP1 PUSH2 0x2DEC JUMP JUMPDEST PUSH1 0x40 MLOAD DUP1 SWAP2 SUB SWAP1 RETURN JUMPDEST PUSH2 0x4E1 PUSH1 0x4 DUP1 CALLDATASIZE SUB DUP2 ADD SWAP1 PUSH2 0x4DC SWAP2 SWAP1 PUSH2 0x325C JUMP JUMPDEST PUSH2 0x2348 JUMP JUMPDEST PUSH1 0x40 MLOAD PUSH2 0x4EE SWAP2 SWAP1 PUSH2 0x2DEC JUMP JUMPDEST PUSH1 0x40 MLOAD DUP1 SWAP2 SUB SWAP1 RETURN JUMPDEST PUSH2 0x4FF PUSH2 0x2400 JUMP JUMPDEST PUSH1 0x40 MLOAD PUSH2 0x50C SWAP2 SWAP1 PUSH2 0x2E16 JUMP JUMPDEST PUSH1 0x40 MLOAD DUP1 SWAP2 SUB SWAP1 RETURN JUMPDEST PUSH2 0x52F PUSH1 0x4 DUP1 CALLDATASIZE SUB DUP2 ADD SWAP1 PUSH2 0x52A SWAP2 SWAP1 PUSH2 0x30C1 JUMP JUMPDEST PUSH2 0x28D6 JUMP JUMPDEST STOP JUMPDEST PUSH1 0x0 DUP1 SLOAD PUSH2 0x53E SWAP1 PUSH2 0x34ED JUMP JUMPDEST DUP1 PUSH1 0x1F ADD PUSH1 0x20 DUP1 SWAP2 DIV MUL PUSH1 0x20 ADD PUSH1 0x40 MLOAD SWAP1 DUP2 ADD PUSH1 0x40 MSTORE DUP1 SWAP3 SWAP2 SWAP1 DUP2 DUP2 MSTORE PUSH1 0x20 ADD DUP3 DUP1 SLOAD PUSH2 0x56A SWAP1 PUSH2 0x34ED JUMP JUMPDEST DUP1 ISZERO PUSH2 0x5B7 JUMPI DUP1 PUSH1 0x1F LT PUSH2 0x58C JUMPI PUSH2 0x100 DUP1 DUP4 SLOAD DIV MUL DUP4 MSTORE SWAP2 PUSH1 0x20 ADD SWAP2 PUSH2 0x5B7 JUMP JUMPDEST DUP3 ADD SWAP2 SWAP1 PUSH1 0x0 MSTORE PUSH1 0x20 PUSH1 0x0 KECCAK256 SWAP1 JUMPDEST DUP2 SLOAD DUP2 MSTORE SWAP1 PUSH1 0x1 ADD SWAP1 PUSH1 0x20 ADD DUP1 DUP4 GT PUSH2 0x59A JUMPI DUP3 SWAP1 SUB PUSH1 0x1F AND DUP3 ADD SWAP2 JUMPDEST POP POP POP POP POP DUP2 JUMP JUMPDEST PUSH1 0x0 DUP2 PUSH1 0x5 PUSH1 0x0 CALLER PUSH20 0xFFFFFFFFFFFFFFFFFFFFFFFFFFFFFFFFFFFFFFFF AND PUSH20 0xFFFFFFFFFFFFFFFFFFFFFFFFFFFFFFFFFFFFFFFF AND DUP2 MSTORE PUSH1 0x20 ADD SWAP1 DUP2 MSTORE PUSH1 0x20 ADD PUSH1 0x0 KECCAK256 PUSH1 0x0 DUP6 PUSH20 0xFFFFFFFFFFFFFFFFFFFFFFFFFFFFFFFFFFFFFFFF AND PUSH20 0xFFFFFFFFFFFFFFFFFFFFFFFFFFFFFFFFFFFFFFFF AND DUP2 MSTORE PUSH1 0x20 ADD SWAP1 DUP2 MSTORE PUSH1 0x20 ADD PUSH1 0x0 KECCAK256 DUP2 SWAP1 SSTORE POP PUSH1 0x1 SWAP1 POP SWAP3 SWAP2 POP POP JUMP JUMPDEST PUSH1 0x2 SLOAD DUP2 JUMP JUMPDEST PUSH1 0x60 PUSH1 0xD PUSH1 0x0 DUP4 PUSH20 0xFFFFFFFFFFFFFFFFFFFFFFFFFFFFFFFFFFFFFFFF AND PUSH20 0xFFFFFFFFFFFFFFFFFFFFFFFFFFFFFFFFFFFFFFFF AND DUP2 MSTORE PUSH1 0x20 ADD SWAP1 DUP2 MSTORE PUSH1 0x20 ADD PUSH1 0x0 KECCAK256 DUP1 SLOAD DUP1 PUSH1 0x20 MUL PUSH1 0x20 ADD PUSH1 0x40 MLOAD SWAP1 DUP2 ADD PUSH1 0x40 MSTORE DUP1 SWAP3 SWAP2 SWAP1 DUP2 DUP2 MSTORE PUSH1 0x20 ADD PUSH1 0x0 SWAP1 JUMPDEST DUP3 DUP3 LT ISZERO PUSH2 0x75F JUMPI DUP4 DUP3 SWAP1 PUSH1 0x0 MSTORE PUSH1 0x20 PUSH1 0x0 KECCAK256 ADD DUP1 SLOAD PUSH2 0x6D2 SWAP1 PUSH2 0x34ED JUMP JUMPDEST DUP1 PUSH1 0x1F ADD PUSH1 0x20 DUP1 SWAP2 DIV MUL PUSH1 0x20 ADD PUSH1 0x40 MLOAD SWAP1 DUP2 ADD PUSH1 0x40 MSTORE DUP1 SWAP3 SWAP2 SWAP1 DUP2 DUP2 MSTORE PUSH1 0x20 ADD DUP3 DUP1 SLOAD PUSH2 0x6FE SWAP1 PUSH2 0x34ED JUMP JUMPDEST DUP1 ISZERO PUSH2 0x74B JUMPI DUP1 PUSH1 0x1F LT PUSH2 0x720 JUMPI PUSH2 0x100 DUP1 DUP4 SLOAD DIV MUL DUP4 MSTORE SWAP2 PUSH1 0x20 ADD SWAP2 PUSH2 0x74B JUMP JUMPDEST DUP3 ADD SWAP2 SWAP1 PUSH1 0x0 MSTORE PUSH1 0x20 PUSH1 0x0 KECCAK256 SWAP1 JUMPDEST DUP2 SLOAD DUP2 MSTORE SWAP1 PUSH1 0x1 ADD SWAP1 PUSH1 0x20 ADD DUP1 DUP4 GT PUSH2 0x72E JUMPI DUP3 SWAP1 SUB PUSH1 0x1F AND DUP3 ADD SWAP2 JUMPDEST POP POP POP POP POP DUP2 MSTORE PUSH1 0x20 ADD SWAP1 PUSH1 0x1 ADD SWAP1 PUSH2 0x6B3 JUMP JUMPDEST POP POP POP POP SWAP1 POP SWAP2 SWAP1 POP JUMP JUMPDEST PUSH1 0xC DUP2 PUSH1 0x40 MLOAD PUSH2 0x77A SWAP2 SWAP1 PUSH2 0x355A JUMP JUMPDEST SWAP1 DUP2 MSTORE PUSH1 0x20 ADD PUSH1 0x40 MLOAD DUP1 SWAP2 SUB SWAP1 KECCAK256 PUSH1 0x6 ADD PUSH1 0x1 SWAP1 SLOAD SWAP1 PUSH2 0x100 EXP SWAP1 DIV PUSH1 0xFF AND ISZERO PUSH2 0x7D9 JUMPI PUSH1 0x40 MLOAD PUSH32 0x8C379A000000000000000000000000000000000000000000000000000000000 DUP2 MSTORE PUSH1 0x4 ADD PUSH2 0x7D0 SWAP1 PUSH2 0x35BD JUMP JUMPDEST PUSH1 0x40 MLOAD DUP1 SWAP2 SUB SWAP1 REVERT JUMPDEST CALLER PUSH20 0xFFFFFFFFFFFFFFFFFFFFFFFFFFFFFFFFFFFFFFFF AND PUSH1 0xC DUP3 PUSH1 0x40 MLOAD PUSH2 0x800 SWAP2 SWAP1 PUSH2 0x355A JUMP JUMPDEST SWAP1 DUP2 MSTORE PUSH1 0x20 ADD PUSH1 0x40 MLOAD DUP1 SWAP2 SUB SWAP1 KECCAK256 PUSH1 0x7 ADD PUSH1 0x0 SWAP1 SLOAD SWAP1 PUSH2 0x100 EXP SWAP1 DIV PUSH20 0xFFFFFFFFFFFFFFFFFFFFFFFFFFFFFFFFFFFFFFFF AND PUSH20 0xFFFFFFFFFFFFFFFFFFFFFFFFFFFFFFFFFFFFFFFF AND EQ PUSH2 0x888 JUMPI PUSH1 0x40 MLOAD PUSH32 0x8C379A000000000000000000000000000000000000000000000000000000000 DUP2 MSTORE PUSH1 0x4 ADD PUSH2 0x87F SWAP1 PUSH2 0x364F JUMP JUMPDEST PUSH1 0x40 MLOAD DUP1 SWAP2 SUB SWAP1 REVERT JUMPDEST PUSH1 0xC DUP2 PUSH1 0x40 MLOAD PUSH2 0x898 SWAP2 SWAP1 PUSH2 0x355A JUMP JUMPDEST SWAP1 DUP2 MSTORE PUSH1 0x20 ADD PUSH1 0x40 MLOAD DUP1 SWAP2 SUB SWAP1 KECCAK256 PUSH1 0x2 ADD SLOAD TIMESTAMP LT PUSH2 0x9D7 JUMPI PUSH1 0x1 PUSH1 0xC DUP3 PUSH1 0x40 MLOAD PUSH2 0x8C2 SWAP2 SWAP1 PUSH2 0x355A JUMP JUMPDEST SWAP1 DUP2 MSTORE PUSH1 0x20 ADD PUSH1 0x40 MLOAD DUP1 SWAP2 SUB SWAP1 KECCAK256 PUSH1 0x6 ADD PUSH1 0x1 PUSH2 0x100 EXP DUP2 SLOAD DUP2 PUSH1 0xFF MUL NOT AND SWAP1 DUP4 ISZERO ISZERO MUL OR SWAP1 SSTORE POP PUSH1 0x0 PUSH1 0xC DUP3 PUSH1 0x40 MLOAD PUSH2 0x8FC SWAP2 SWAP1 PUSH2 0x355A JUMP JUMPDEST SWAP1 DUP2 MSTORE PUSH1 0x20 ADD PUSH1 0x40 MLOAD DUP1 SWAP2 SUB SWAP1 KECCAK256 PUSH1 0x3 ADD SLOAD PUSH1 0xC DUP4 PUSH1 0x40 MLOAD PUSH2 0x91E SWAP2 SWAP1 PUSH2 0x355A JUMP JUMPDEST SWAP1 DUP2 MSTORE PUSH1 0x20 ADD PUSH1 0x40 MLOAD DUP1 SWAP2 SUB SWAP1 KECCAK256 PUSH1 0x4 ADD PUSH1 0x0 SWAP1 SLOAD SWAP1 PUSH2 0x100 EXP SWAP1 DIV PUSH4 0xFFFFFFFF AND PUSH4 0xFFFFFFFF AND PUSH2 0x950 SWAP2 SWAP1 PUSH2 0x369E JUMP JUMPDEST SWAP1 POP PUSH1 0x0 DUP2 PUSH1 0xC DUP5 PUSH1 0x40 MLOAD PUSH2 0x965 SWAP2 SWAP1 PUSH2 0x355A JUMP JUMPDEST SWAP1 DUP2 MSTORE PUSH1 0x20 ADD PUSH1 0x40 MLOAD DUP1 SWAP2 SUB SWAP1 KECCAK256 PUSH1 0x4 ADD PUSH1 0x0 SWAP1 SLOAD SWAP1 PUSH2 0x100 EXP SWAP1 DIV PUSH4 0xFFFFFFFF AND PUSH4 0xFFFFFFFF AND PUSH1 0xC DUP6 PUSH1 0x40 MLOAD PUSH2 0x99D SWAP2 SWAP1 PUSH2 0x355A JUMP JUMPDEST SWAP1 DUP2 MSTORE PUSH1 0x20 ADD PUSH1 0x40 MLOAD DUP1 SWAP2 SUB SWAP1 KECCAK256 PUSH1 0x5 ADD SLOAD PUSH2 0x9B9 SWAP2 SWAP1 PUSH2 0x3701 JUMP JUMPDEST PUSH2 0x9C3 SWAP2 SWAP1 PUSH2 0x3732 JUMP JUMPDEST SWAP1 POP PUSH2 0x9D0 ADDRESS CALLER DUP4 PUSH2 0x299E JUMP JUMPDEST POP POP PUSH2 0xB10 JUMP JUMPDEST PUSH1 0x0 PUSH1 0xC DUP3 PUSH1 0x40 MLOAD PUSH2 0x9E9 SWAP2 SWAP1 PUSH2 0x355A JUMP JUMPDEST SWAP1 DUP2 MSTORE PUSH1 0x20 ADD PUSH1 0x40 MLOAD DUP1 SWAP2 SUB SWAP1 KECCAK256 PUSH1 0x3 ADD SLOAD PUSH1 0x9 PUSH1 0x0 SWAP1 SLOAD SWAP1 PUSH2 0x100 EXP SWAP1 DIV PUSH4 0xFFFFFFFF AND PUSH4 0xFFFFFFFF AND PUSH1 0xC DUP5 PUSH1 0x40 MLOAD PUSH2 0xA24 SWAP2 SWAP1 PUSH2 0x355A JUMP JUMPDEST SWAP1 DUP2 MSTORE PUSH1 0x20 ADD PUSH1 0x40 MLOAD DUP1 SWAP2 SUB SWAP1 KECCAK256 PUSH1 0x1 ADD SLOAD TIMESTAMP PUSH2 0xA41 SWAP2 SWAP1 PUSH2 0x369E JUMP JUMPDEST PUSH2 0xA4B SWAP2 SWAP1 PUSH2 0x3701 JUMP JUMPDEST PUSH2 0xA55 SWAP2 SWAP1 PUSH2 0x369E JUMP JUMPDEST SWAP1 POP DUP1 PUSH1 0xC DUP4 PUSH1 0x40 MLOAD PUSH2 0xA68 SWAP2 SWAP1 PUSH2 0x355A JUMP JUMPDEST SWAP1 DUP2 MSTORE PUSH1 0x20 ADD PUSH1 0x40 MLOAD DUP1 SWAP2 SUB SWAP1 KECCAK256 PUSH1 0x3 ADD PUSH1 0x0 DUP3 DUP3 SLOAD PUSH2 0xA88 SWAP2 SWAP1 PUSH2 0x3774 JUMP JUMPDEST SWAP3 POP POP DUP2 SWAP1 SSTORE POP PUSH1 0x0 DUP2 PUSH1 0xC DUP5 PUSH1 0x40 MLOAD PUSH2 0xAA2 SWAP2 SWAP1 PUSH2 0x355A JUMP JUMPDEST SWAP1 DUP2 MSTORE PUSH1 0x20 ADD PUSH1 0x40 MLOAD DUP1 SWAP2 SUB SWAP1 KECCAK256 PUSH1 0x4 ADD PUSH1 0x0 SWAP1 SLOAD SWAP1 PUSH2 0x100 EXP SWAP1 DIV PUSH4 0xFFFFFFFF AND PUSH4 0xFFFFFFFF AND PUSH1 0xC DUP6 PUSH1 0x40 MLOAD PUSH2 0xADA SWAP2 SWAP1 PUSH2 0x355A JUMP JUMPDEST SWAP1 DUP2 MSTORE PUSH1 0x20 ADD PUSH1 0x40 MLOAD DUP1 SWAP2 SUB SWAP1 KECCAK256 PUSH1 0x5 ADD SLOAD PUSH2 0xAF6 SWAP2 SWAP1 PUSH2 0x3701 JUMP JUMPDEST PUSH2 0xB00 SWAP2 SWAP1 PUSH2 0x3732 JUMP JUMPDEST SWAP1 POP PUSH2 0xB0D ADDRESS CALLER DUP4 PUSH2 0x299E JUMP JUMPDEST POP POP JUMPDEST POP JUMP JUMPDEST PUSH1 0x0 PUSH1 0xB PUSH1 0x0 CALLER PUSH20 0xFFFFFFFFFFFFFFFFFFFFFFFFFFFFFFFFFFFFFFFF AND PUSH20 0xFFFFFFFFFFFFFFFFFFFFFFFFFFFFFFFFFFFFFFFF AND DUP2 MSTORE PUSH1 0x20 ADD SWAP1 DUP2 MSTORE PUSH1 0x20 ADD PUSH1 0x0 KECCAK256 SLOAD SUB PUSH2 0xB95 JUMPI PUSH1 0x40 MLOAD PUSH32 0x8C379A000000000000000000000000000000000000000000000000000000000 DUP2 MSTORE PUSH1 0x4 ADD PUSH2 0xB8C SWAP1 PUSH2 0x37F4 JUMP JUMPDEST PUSH1 0x40 MLOAD DUP1 SWAP2 SUB SWAP1 REVERT JUMPDEST PUSH1 0x0 PUSH1 0xD PUSH1 0x0 CALLER PUSH20 0xFFFFFFFFFFFFFFFFFFFFFFFFFFFFFFFFFFFFFFFF AND PUSH20 0xFFFFFFFFFFFFFFFFFFFFFFFFFFFFFFFFFFFFFFFF AND DUP2 MSTORE PUSH1 0x20 ADD SWAP1 DUP2 MSTORE PUSH1 0x20 ADD PUSH1 0x0 KECCAK256 DUP1 SLOAD DUP1 PUSH1 0x20 MUL PUSH1 0x20 ADD PUSH1 0x40 MLOAD SWAP1 DUP2 ADD PUSH1 0x40 MSTORE DUP1 SWAP3 SWAP2 SWAP1 DUP2 DUP2 MSTORE PUSH1 0x20 ADD PUSH1 0x0 SWAP1 JUMPDEST DUP3 DUP3 LT ISZERO PUSH2 0xCA2 JUMPI DUP4 DUP3 SWAP1 PUSH1 0x0 MSTORE PUSH1 0x20 PUSH1 0x0 KECCAK256 ADD DUP1 SLOAD PUSH2 0xC15 SWAP1 PUSH2 0x34ED JUMP JUMPDEST DUP1 PUSH1 0x1F ADD PUSH1 0x20 DUP1 SWAP2 DIV MUL PUSH1 0x20 ADD PUSH1 0x40 MLOAD SWAP1 DUP2 ADD PUSH1 0x40 MSTORE DUP1 SWAP3 SWAP2 SWAP1 DUP2 DUP2 MSTORE PUSH1 0x20 ADD DUP3 DUP1 SLOAD PUSH2 0xC41 SWAP1 PUSH2 0x34ED JUMP JUMPDEST DUP1 ISZERO PUSH2 0xC8E JUMPI DUP1 PUSH1 0x1F LT PUSH2 0xC63 JUMPI PUSH2 0x100 DUP1 DUP4 SLOAD DIV MUL DUP4 MSTORE SWAP2 PUSH1 0x20 ADD SWAP2 PUSH2 0xC8E JUMP JUMPDEST DUP3 ADD SWAP2 SWAP1 PUSH1 0x0 MSTORE PUSH1 0x20 PUSH1 0x0 KECCAK256 SWAP1 JUMPDEST DUP2 SLOAD DUP2 MSTORE SWAP1 PUSH1 0x1 ADD SWAP1 PUSH1 0x20 ADD DUP1 DUP4 GT PUSH2 0xC71 JUMPI DUP3 SWAP1 SUB PUSH1 0x1F AND DUP3 ADD SWAP2 JUMPDEST POP POP POP POP POP DUP2 MSTORE PUSH1 0x20 ADD SWAP1 PUSH1 0x1 ADD SWAP1 PUSH2 0xBF6 JUMP JUMPDEST POP POP POP POP SWAP1 POP PUSH1 0x0 DUP1 JUMPDEST DUP3 MLOAD DUP2 LT ISZERO PUSH2 0x10B6 JUMPI PUSH1 0xC DUP4 DUP3 DUP2 MLOAD DUP2 LT PUSH2 0xCCA JUMPI PUSH2 0xCC9 PUSH2 0x3814 JUMP JUMPDEST JUMPDEST PUSH1 0x20 MUL PUSH1 0x20 ADD ADD MLOAD PUSH1 0x40 MLOAD PUSH2 0xCDF SWAP2 SWAP1 PUSH2 0x355A JUMP JUMPDEST SWAP1 DUP2 MSTORE PUSH1 0x20 ADD PUSH1 0x40 MLOAD DUP1 SWAP2 SUB SWAP1 KECCAK256 PUSH1 0x6 ADD PUSH1 0x1 SWAP1 SLOAD SWAP1 PUSH2 0x100 EXP SWAP1 DIV PUSH1 0xFF AND PUSH2 0x10A3 JUMPI PUSH1 0xC DUP4 DUP3 DUP2 MLOAD DUP2 LT PUSH2 0xD17 JUMPI PUSH2 0xD16 PUSH2 0x3814 JUMP JUMPDEST JUMPDEST PUSH1 0x20 MUL PUSH1 0x20 ADD ADD MLOAD PUSH1 0x40 MLOAD PUSH2 0xD2C SWAP2 SWAP1 PUSH2 0x355A JUMP JUMPDEST SWAP1 DUP2 MSTORE PUSH1 0x20 ADD PUSH1 0x40 MLOAD DUP1 SWAP2 SUB SWAP1 KECCAK256 PUSH1 0x2 ADD SLOAD TIMESTAMP LT PUSH2 0xEEA JUMPI PUSH1 0x1 PUSH1 0xC DUP5 DUP4 DUP2 MLOAD DUP2 LT PUSH2 0xD5B JUMPI PUSH2 0xD5A PUSH2 0x3814 JUMP JUMPDEST JUMPDEST PUSH1 0x20 MUL PUSH1 0x20 ADD ADD MLOAD PUSH1 0x40 MLOAD PUSH2 0xD70 SWAP2 SWAP1 PUSH2 0x355A JUMP JUMPDEST SWAP1 DUP2 MSTORE PUSH1 0x20 ADD PUSH1 0x40 MLOAD DUP1 SWAP2 SUB SWAP1 KECCAK256 PUSH1 0x6 ADD PUSH1 0x1 PUSH2 0x100 EXP DUP2 SLOAD DUP2 PUSH1 0xFF MUL NOT AND SWAP1 DUP4 ISZERO ISZERO MUL OR SWAP1 SSTORE POP PUSH1 0x0 PUSH1 0xC DUP5 DUP4 DUP2 MLOAD DUP2 LT PUSH2 0xDAF JUMPI PUSH2 0xDAE PUSH2 0x3814 JUMP JUMPDEST JUMPDEST PUSH1 0x20 MUL PUSH1 0x20 ADD ADD MLOAD PUSH1 0x40 MLOAD PUSH2 0xDC4 SWAP2 SWAP1 PUSH2 0x355A JUMP JUMPDEST SWAP1 DUP2 MSTORE PUSH1 0x20 ADD PUSH1 0x40 MLOAD DUP1 SWAP2 SUB SWAP1 KECCAK256 PUSH1 0x3 ADD SLOAD PUSH1 0xC DUP6 DUP5 DUP2 MLOAD DUP2 LT PUSH2 0xDEB JUMPI PUSH2 0xDEA PUSH2 0x3814 JUMP JUMPDEST JUMPDEST PUSH1 0x20 MUL PUSH1 0x20 ADD ADD MLOAD PUSH1 0x40 MLOAD PUSH2 0xE00 SWAP2 SWAP1 PUSH2 0x355A JUMP JUMPDEST SWAP1 DUP2 MSTORE PUSH1 0x20 ADD PUSH1 0x40 MLOAD DUP1 SWAP2 SUB SWAP1 KECCAK256 PUSH1 0x4 ADD PUSH1 0x0 SWAP1 SLOAD SWAP1 PUSH2 0x100 EXP SWAP1 DIV PUSH4 0xFFFFFFFF AND PUSH4 0xFFFFFFFF AND PUSH2 0xE32 SWAP2 SWAP1 PUSH2 0x369E JUMP JUMPDEST SWAP1 POP DUP1 PUSH1 0xC DUP6 DUP5 DUP2 MLOAD DUP2 LT PUSH2 0xE4A JUMPI PUSH2 0xE49 PUSH2 0x3814 JUMP JUMPDEST JUMPDEST PUSH1 0x20 MUL PUSH1 0x20 ADD ADD MLOAD PUSH1 0x40 MLOAD PUSH2 0xE5F SWAP2 SWAP1 PUSH2 0x355A JUMP JUMPDEST SWAP1 DUP2 MSTORE PUSH1 0x20 ADD PUSH1 0x40 MLOAD DUP1 SWAP2 SUB SWAP1 KECCAK256 PUSH1 0x4 ADD PUSH1 0x0 SWAP1 SLOAD SWAP1 PUSH2 0x100 EXP SWAP1 DIV PUSH4 0xFFFFFFFF AND PUSH4 0xFFFFFFFF AND PUSH1 0xC DUP7 DUP6 DUP2 MLOAD DUP2 LT PUSH2 0xE9C JUMPI PUSH2 0xE9B PUSH2 0x3814 JUMP JUMPDEST JUMPDEST PUSH1 0x20 MUL PUSH1 0x20 ADD ADD MLOAD PUSH1 0x40 MLOAD PUSH2 0xEB1 SWAP2 SWAP1 PUSH2 0x355A JUMP JUMPDEST SWAP1 DUP2 MSTORE PUSH1 0x20 ADD PUSH1 0x40 MLOAD DUP1 SWAP2 SUB SWAP1 KECCAK256 PUSH1 0x5 ADD SLOAD PUSH2 0xECD SWAP2 SWAP1 PUSH2 0x3701 JUMP JUMPDEST PUSH2 0xED7 SWAP2 SWAP1 PUSH2 0x3732 JUMP JUMPDEST DUP4 PUSH2 0xEE2 SWAP2 SWAP1 PUSH2 0x3774 JUMP JUMPDEST SWAP3 POP POP PUSH2 0x10A2 JUMP JUMPDEST PUSH1 0x0 PUSH1 0xC DUP5 DUP4 DUP2 MLOAD DUP2 LT PUSH2 0xF01 JUMPI PUSH2 0xF00 PUSH2 0x3814 JUMP JUMPDEST JUMPDEST PUSH1 0x20 MUL PUSH1 0x20 ADD ADD MLOAD PUSH1 0x40 MLOAD PUSH2 0xF16 SWAP2 SWAP1 PUSH2 0x355A JUMP JUMPDEST SWAP1 DUP2 MSTORE PUSH1 0x20 ADD PUSH1 0x40 MLOAD DUP1 SWAP2 SUB SWAP1 KECCAK256 PUSH1 0x3 ADD SLOAD PUSH1 0x9 PUSH1 0x0 SWAP1 SLOAD SWAP1 PUSH2 0x100 EXP SWAP1 DIV PUSH4 0xFFFFFFFF AND PUSH4 0xFFFFFFFF AND PUSH1 0xC DUP7 DUP6 DUP2 MLOAD DUP2 LT PUSH2 0xF56 JUMPI PUSH2 0xF55 PUSH2 0x3814 JUMP JUMPDEST JUMPDEST PUSH1 0x20 MUL PUSH1 0x20 ADD ADD MLOAD PUSH1 0x40 MLOAD PUSH2 0xF6B SWAP2 SWAP1 PUSH2 0x355A JUMP JUMPDEST SWAP1 DUP2 MSTORE PUSH1 0x20 ADD PUSH1 0x40 MLOAD DUP1 SWAP2 SUB SWAP1 KECCAK256 PUSH1 0x1 ADD SLOAD TIMESTAMP PUSH2 0xF88 SWAP2 SWAP1 PUSH2 0x369E JUMP JUMPDEST PUSH2 0xF92 SWAP2 SWAP1 PUSH2 0x3701 JUMP JUMPDEST PUSH2 0xF9C SWAP2 SWAP1 PUSH2 0x369E JUMP JUMPDEST SWAP1 POP DUP1 PUSH1 0xC DUP6 DUP5 DUP2 MLOAD DUP2 LT PUSH2 0xFB4 JUMPI PUSH2 0xFB3 PUSH2 0x3814 JUMP JUMPDEST JUMPDEST PUSH1 0x20 MUL PUSH1 0x20 ADD ADD MLOAD PUSH1 0x40 MLOAD PUSH2 0xFC9 SWAP2 SWAP1 PUSH2 0x355A JUMP JUMPDEST SWAP1 DUP2 MSTORE PUSH1 0x20 ADD PUSH1 0x40 MLOAD DUP1 SWAP2 SUB SWAP1 KECCAK256 PUSH1 0x3 ADD PUSH1 0x0 DUP3 DUP3 SLOAD PUSH2 0xFE9 SWAP2 SWAP1 PUSH2 0x3774 JUMP JUMPDEST SWAP3 POP POP DUP2 SWAP1 SSTORE POP DUP1 PUSH1 0xC DUP6 DUP5 DUP2 MLOAD DUP2 LT PUSH2 0x1006 JUMPI PUSH2 0x1005 PUSH2 0x3814 JUMP JUMPDEST JUMPDEST PUSH1 0x20 MUL PUSH1 0x20 ADD ADD MLOAD PUSH1 0x40 MLOAD PUSH2 0x101B SWAP2 SWAP1 PUSH2 0x355A JUMP JUMPDEST SWAP1 DUP2 MSTORE PUSH1 0x20 ADD PUSH1 0x40 MLOAD DUP1 SWAP2 SUB SWAP1 KECCAK256 PUSH1 0x4 ADD PUSH1 0x0 SWAP1 SLOAD SWAP1 PUSH2 0x100 EXP SWAP1 DIV PUSH4 0xFFFFFFFF AND PUSH4 0xFFFFFFFF AND PUSH1 0xC DUP7 DUP6 DUP2 MLOAD DUP2 LT PUSH2 0x1058 JUMPI PUSH2 0x1057 PUSH2 0x3814 JUMP JUMPDEST JUMPDEST PUSH1 0x20 MUL PUSH1 0x20 ADD ADD MLOAD PUSH1 0x40 MLOAD PUSH2 0x106D SWAP2 SWAP1 PUSH2 0x355A JUMP JUMPDEST SWAP1 DUP2 MSTORE PUSH1 0x20 ADD PUSH1 0x40 MLOAD DUP1 SWAP2 SUB SWAP1 KECCAK256 PUSH1 0x5 ADD SLOAD PUSH2 0x1089 SWAP2 SWAP1 PUSH2 0x3701 JUMP JUMPDEST PUSH2 0x1093 SWAP2 SWAP1 PUSH2 0x3732 JUMP JUMPDEST DUP4 PUSH2 0x109E SWAP2 SWAP1 PUSH2 0x3774 JUMP JUMPDEST SWAP3 POP POP JUMPDEST JUMPDEST DUP1 DUP1 PUSH2 0x10AE SWAP1 PUSH2 0x3843 JUMP JUMPDEST SWAP2 POP POP PUSH2 0xCAC JUMP JUMPDEST POP PUSH2 0x10C2 ADDRESS CALLER DUP4 PUSH2 0x299E JUMP JUMPDEST POP POP JUMP JUMPDEST PUSH1 0x3 PUSH1 0x0 SWAP1 SLOAD SWAP1 PUSH2 0x100 EXP SWAP1 DIV PUSH1 0xFF AND DUP2 JUMP JUMPDEST PUSH1 0xC DUP4 PUSH1 0x40 MLOAD PUSH2 0x10E9 SWAP2 SWAP1 PUSH2 0x355A JUMP JUMPDEST SWAP1 DUP2 MSTORE PUSH1 0x20 ADD PUSH1 0x40 MLOAD DUP1 SWAP2 SUB SWAP1 KECCAK256 PUSH1 0x6 ADD PUSH1 0x0 SWAP1 SLOAD SWAP1 PUSH2 0x100 EXP SWAP1 DIV PUSH1 0xFF AND ISZERO PUSH2 0x1148 JUMPI PUSH1 0x40 MLOAD PUSH32 0x8C379A000000000000000000000000000000000000000000000000000000000 DUP2 MSTORE PUSH1 0x4 ADD PUSH2 0x113F SWAP1 PUSH2 0x38D7 JUMP JUMPDEST PUSH1 0x40 MLOAD DUP1 SWAP2 SUB SWAP1 REVERT JUMPDEST DUP2 PUSH2 0x1152 CALLER PUSH2 0x16A2 JUMP JUMPDEST LT ISZERO PUSH2 0x1193 JUMPI PUSH1 0x40 MLOAD PUSH32 0x8C379A000000000000000000000000000000000000000000000000000000000 DUP2 MSTORE PUSH1 0x4 ADD PUSH2 0x118A SWAP1 PUSH2 0x3943 JUMP JUMPDEST PUSH1 0x40 MLOAD DUP1 SWAP2 SUB SWAP1 REVERT JUMPDEST PUSH2 0x119E CALLER ADDRESS DUP5 PUSH2 0x299E JUMP JUMPDEST PUSH1 0x40 MLOAD DUP1 PUSH2 0x140 ADD PUSH1 0x40 MSTORE DUP1 DUP7 DUP2 MSTORE PUSH1 0x20 ADD TIMESTAMP DUP2 MSTORE PUSH1 0x20 ADD PUSH1 0x9 PUSH1 0x0 SWAP1 SLOAD SWAP1 PUSH2 0x100 EXP SWAP1 DIV PUSH4 0xFFFFFFFF AND DUP7 PUSH2 0x11D4 SWAP2 SWAP1 PUSH2 0x3963 JUMP JUMPDEST PUSH4 0xFFFFFFFF AND TIMESTAMP PUSH2 0x11E5 SWAP2 SWAP1 PUSH2 0x3774 JUMP JUMPDEST DUP2 MSTORE PUSH1 0x20 ADD PUSH1 0x0 DUP2 MSTORE PUSH1 0x20 ADD DUP6 PUSH4 0xFFFFFFFF AND DUP2 MSTORE PUSH1 0x20 ADD DUP4 DUP2 MSTORE PUSH1 0x20 ADD PUSH1 0x1 ISZERO ISZERO DUP2 MSTORE PUSH1 0x20 ADD PUSH1 0x0 ISZERO ISZERO DUP2 MSTORE PUSH1 0x20 ADD CALLER PUSH20 0xFFFFFFFFFFFFFFFFFFFFFFFFFFFFFFFFFFFFFFFF AND DUP2 MSTORE PUSH1 0x20 ADD DUP3 PUSH20 0xFFFFFFFFFFFFFFFFFFFFFFFFFFFFFFFFFFFFFFFF AND DUP2 MSTORE POP PUSH1 0xC DUP5 PUSH1 0x40 MLOAD PUSH2 0x125B SWAP2 SWAP1 PUSH2 0x355A JUMP JUMPDEST SWAP1 DUP2 MSTORE PUSH1 0x20 ADD PUSH1 0x40 MLOAD DUP1 SWAP2 SUB SWAP1 KECCAK256 PUSH1 0x0 DUP3 ADD MLOAD DUP2 PUSH1 0x0 ADD SWAP1 DUP2 PUSH2 0x127E SWAP2 SWAP1 PUSH2 0x3B4C JUMP JUMPDEST POP PUSH1 0x20 DUP3 ADD MLOAD DUP2 PUSH1 0x1 ADD SSTORE PUSH1 0x40 DUP3 ADD MLOAD DUP2 PUSH1 0x2 ADD SSTORE PUSH1 0x60 DUP3 ADD MLOAD DUP2 PUSH1 0x3 ADD SSTORE PUSH1 0x80 DUP3 ADD MLOAD DUP2 PUSH1 0x4 ADD PUSH1 0x0 PUSH2 0x100 EXP DUP2 SLOAD DUP2 PUSH4 0xFFFFFFFF MUL NOT AND SWAP1 DUP4 PUSH4 0xFFFFFFFF AND MUL OR SWAP1 SSTORE POP PUSH1 0xA0 DUP3 ADD MLOAD DUP2 PUSH1 0x5 ADD SSTORE PUSH1 0xC0 DUP3 ADD MLOAD DUP2 PUSH1 0x6 ADD PUSH1 0x0 PUSH2 0x100 EXP DUP2 SLOAD DUP2 PUSH1 0xFF MUL NOT AND SWAP1 DUP4 ISZERO ISZERO MUL OR SWAP1 SSTORE POP PUSH1 0xE0 DUP3 ADD MLOAD DUP2 PUSH1 0x6 ADD PUSH1 0x1 PUSH2 0x100 EXP DUP2 SLOAD DUP2 PUSH1 0xFF MUL NOT AND SWAP1 DUP4 ISZERO ISZERO MUL OR SWAP1 SSTORE POP PUSH2 0x100 DUP3 ADD MLOAD DUP2 PUSH1 0x6 ADD PUSH1 0x2 PUSH2 0x100 EXP DUP2 SLOAD DUP2 PUSH20 0xFFFFFFFFFFFFFFFFFFFFFFFFFFFFFFFFFFFFFFFF MUL NOT AND SWAP1 DUP4 PUSH20 0xFFFFFFFFFFFFFFFFFFFFFFFFFFFFFFFFFFFFFFFF AND MUL OR SWAP1 SSTORE POP PUSH2 0x120 DUP3 ADD MLOAD DUP2 PUSH1 0x7 ADD PUSH1 0x0 PUSH2 0x100 EXP DUP2 SLOAD DUP2 PUSH20 0xFFFFFFFFFFFFFFFFFFFFFFFFFFFFFFFFFFFFFFFF MUL NOT AND SWAP1 DUP4 PUSH20 0xFFFFFFFFFFFFFFFFFFFFFFFFFFFFFFFFFFFFFFFF AND MUL OR SWAP1 SSTORE POP SWAP1 POP POP PUSH1 0xD PUSH1 0x0 DUP3 PUSH20 0xFFFFFFFFFFFFFFFFFFFFFFFFFFFFFFFFFFFFFFFF AND PUSH20 0xFFFFFFFFFFFFFFFFFFFFFFFFFFFFFFFFFFFFFFFF AND DUP2 MSTORE PUSH1 0x20 ADD SWAP1 DUP2 MSTORE PUSH1 0x20 ADD PUSH1 0x0 KECCAK256 DUP4 SWAP1 DUP1 PUSH1 0x1 DUP2 SLOAD ADD DUP1 DUP3 SSTORE DUP1 SWAP2 POP POP PUSH1 0x1 SWAP1 SUB SWAP1 PUSH1 0x0 MSTORE PUSH1 0x20 PUSH1 0x0 KECCAK256 ADD PUSH1 0x0 SWAP1 SWAP2 SWAP1 SWAP2 SWAP1 SWAP2 POP SWAP1 DUP2 PUSH2 0x1412 SWAP2 SWAP1 PUSH2 0x3B4C JUMP JUMPDEST POP POP POP POP POP POP JUMP JUMPDEST PUSH1 0x1 DUP2 PUSH1 0xFF AND SUB PUSH2 0x155E JUMPI PUSH1 0x0 PUSH1 0xA PUSH1 0x0 CALLER PUSH20 0xFFFFFFFFFFFFFFFFFFFFFFFFFFFFFFFFFFFFFFFF AND PUSH20 0xFFFFFFFFFFFFFFFFFFFFFFFFFFFFFFFFFFFFFFFF AND DUP2 MSTORE PUSH1 0x20 ADD SWAP1 DUP2 MSTORE PUSH1 0x20 ADD PUSH1 0x0 KECCAK256 SLOAD EQ PUSH2 0x14A7 JUMPI PUSH1 0x40 MLOAD PUSH32 0x8C379A000000000000000000000000000000000000000000000000000000000 DUP2 MSTORE PUSH1 0x4 ADD PUSH2 0x149E SWAP1 PUSH2 0x3C6A JUMP JUMPDEST PUSH1 0x40 MLOAD DUP1 SWAP2 SUB SWAP1 REVERT JUMPDEST PUSH1 0x7 SLOAD PUSH2 0x14B3 CALLER PUSH2 0x16A2 JUMP JUMPDEST LT ISZERO PUSH2 0x14F4 JUMPI PUSH1 0x40 MLOAD PUSH32 0x8C379A000000000000000000000000000000000000000000000000000000000 DUP2 MSTORE PUSH1 0x4 ADD PUSH2 0x14EB SWAP1 PUSH2 0x3943 JUMP JUMPDEST PUSH1 0x40 MLOAD DUP1 SWAP2 SUB SWAP1 REVERT JUMPDEST PUSH2 0x1501 CALLER ADDRESS PUSH1 0x7 SLOAD PUSH2 0x299E JUMP JUMPDEST PUSH1 0x7 SLOAD PUSH1 0xA PUSH1 0x0 CALLER PUSH20 0xFFFFFFFFFFFFFFFFFFFFFFFFFFFFFFFFFFFFFFFF AND PUSH20 0xFFFFFFFFFFFFFFFFFFFFFFFFFFFFFFFFFFFFFFFF AND DUP2 MSTORE PUSH1 0x20 ADD SWAP1 DUP2 MSTORE PUSH1 0x20 ADD PUSH1 0x0 KECCAK256 PUSH1 0x0 DUP3 DUP3 SLOAD PUSH2 0x1552 SWAP2 SWAP1 PUSH2 0x3774 JUMP JUMPDEST SWAP3 POP POP DUP2 SWAP1 SSTORE POP PUSH2 0x169F JUMP JUMPDEST PUSH1 0x2 DUP2 PUSH1 0xFF AND SUB PUSH2 0x169E JUMPI PUSH1 0x0 PUSH1 0xB PUSH1 0x0 CALLER PUSH20 0xFFFFFFFFFFFFFFFFFFFFFFFFFFFFFFFFFFFFFFFF AND PUSH20 0xFFFFFFFFFFFFFFFFFFFFFFFFFFFFFFFFFFFFFFFF AND DUP2 MSTORE PUSH1 0x20 ADD SWAP1 DUP2 MSTORE PUSH1 0x20 ADD PUSH1 0x0 KECCAK256 SLOAD EQ PUSH2 0x15EB JUMPI PUSH1 0x40 MLOAD PUSH32 0x8C379A000000000000000000000000000000000000000000000000000000000 DUP2 MSTORE PUSH1 0x4 ADD PUSH2 0x15E2 SWAP1 PUSH2 0x3C6A JUMP JUMPDEST PUSH1 0x40 MLOAD DUP1 SWAP2 SUB SWAP1 REVERT JUMPDEST PUSH1 0x8 SLOAD PUSH2 0x15F7 CALLER PUSH2 0x16A2 JUMP JUMPDEST LT ISZERO PUSH2 0x1638 JUMPI PUSH1 0x40 MLOAD PUSH32 0x8C379A000000000000000000000000000000000000000000000000000000000 DUP2 MSTORE PUSH1 0x4 ADD PUSH2 0x162F SWAP1 PUSH2 0x3943 JUMP JUMPDEST PUSH1 0x40 MLOAD DUP1 SWAP2 SUB SWAP1 REVERT JUMPDEST PUSH2 0x1645 CALLER ADDRESS PUSH1 0x8 SLOAD PUSH2 0x299E JUMP JUMPDEST PUSH1 0x8 SLOAD PUSH1 0xB PUSH1 0x0 CALLER PUSH20 0xFFFFFFFFFFFFFFFFFFFFFFFFFFFFFFFFFFFFFFFF AND PUSH20 0xFFFFFFFFFFFFFFFFFFFFFFFFFFFFFFFFFFFFFFFF AND DUP2 MSTORE PUSH1 0x20 ADD SWAP1 DUP2 MSTORE PUSH1 0x20 ADD PUSH1 0x0 KECCAK256 PUSH1 0x0 DUP3 DUP3 SLOAD PUSH2 0x1696 SWAP2 SWAP1 PUSH2 0x3774 JUMP JUMPDEST SWAP3 POP POP DUP2 SWAP1 SSTORE POP JUMPDEST JUMPDEST POP JUMP JUMPDEST PUSH1 0x0 PUSH1 0x4 PUSH1 0x0 DUP4 PUSH20 0xFFFFFFFFFFFFFFFFFFFFFFFFFFFFFFFFFFFFFFFF AND PUSH20 0xFFFFFFFFFFFFFFFFFFFFFFFFFFFFFFFFFFFFFFFF AND DUP2 MSTORE PUSH1 0x20 ADD SWAP1 DUP2 MSTORE PUSH1 0x20 ADD PUSH1 0x0 KECCAK256 SLOAD SWAP1 POP SWAP2 SWAP1 POP JUMP JUMPDEST PUSH1 0x0 DUP1 PUSH1 0x2 PUSH1 0x6 DUP5 PUSH1 0x40 MLOAD PUSH2 0x1700 SWAP2 SWAP1 PUSH2 0x355A JUMP JUMPDEST SWAP1 DUP2 MSTORE PUSH1 0x20 ADD PUSH1 0x40 MLOAD DUP1 SWAP2 SUB SWAP1 KECCAK256 PUSH1 0x0 ADD PUSH1 0x14 SWAP1 SLOAD SWAP1 PUSH2 0x100 EXP SWAP1 DIV PUSH1 0xFF AND PUSH1 0xFF AND SUB PUSH2 0x1838 JUMPI PUSH1 0x0 PUSH1 0xA PUSH1 0x0 PUSH1 0x6 DUP7 PUSH1 0x40 MLOAD PUSH2 0x173D SWAP2 SWAP1 PUSH2 0x355A JUMP JUMPDEST SWAP1 DUP2 MSTORE PUSH1 0x20 ADD PUSH1 0x40 MLOAD DUP1 SWAP2 SUB SWAP1 KECCAK256 PUSH1 0x0 ADD PUSH1 0x0 SWAP1 SLOAD SWAP1 PUSH2 0x100 EXP SWAP1 DIV PUSH20 0xFFFFFFFFFFFFFFFFFFFFFFFFFFFFFFFFFFFFFFFF AND PUSH20 0xFFFFFFFFFFFFFFFFFFFFFFFFFFFFFFFFFFFFFFFF AND PUSH20 0xFFFFFFFFFFFFFFFFFFFFFFFFFFFFFFFFFFFFFFFF AND DUP2 MSTORE PUSH1 0x20 ADD SWAP1 DUP2 MSTORE PUSH1 0x20 ADD PUSH1 0x0 KECCAK256 SLOAD GT PUSH1 0x0 PUSH1 0xB PUSH1 0x0 PUSH1 0x6 DUP8 PUSH1 0x40 MLOAD PUSH2 0x17C1 SWAP2 SWAP1 PUSH2 0x355A JUMP JUMPDEST SWAP1 DUP2 MSTORE PUSH1 0x20 ADD PUSH1 0x40 MLOAD DUP1 SWAP2 SUB SWAP1 KECCAK256 PUSH1 0x0 ADD PUSH1 0x0 SWAP1 SLOAD SWAP1 PUSH2 0x100 EXP SWAP1 DIV PUSH20 0xFFFFFFFFFFFFFFFFFFFFFFFFFFFFFFFFFFFFFFFF AND PUSH20 0xFFFFFFFFFFFFFFFFFFFFFFFFFFFFFFFFFFFFFFFF AND PUSH20 0xFFFFFFFFFFFFFFFFFFFFFFFFFFFFFFFFFFFFFFFF AND DUP2 MSTORE PUSH1 0x20 ADD SWAP1 DUP2 MSTORE PUSH1 0x20 ADD PUSH1 0x0 KECCAK256 SLOAD GT SWAP2 POP SWAP2 POP PUSH2 0x1840 JUMP JUMPDEST PUSH1 0x0 DUP1 SWAP2 POP SWAP2 POP JUMPDEST SWAP2 POP SWAP2 JUMP JUMPDEST PUSH2 0x184D PUSH2 0x2BAE JUMP JUMPDEST PUSH1 0xC DUP3 PUSH1 0x40 MLOAD PUSH2 0x185D SWAP2 SWAP1 PUSH2 0x355A JUMP JUMPDEST SWAP1 DUP2 MSTORE PUSH1 0x20 ADD PUSH1 0x40 MLOAD DUP1 SWAP2 SUB SWAP1 KECCAK256 PUSH1 0x40 MLOAD DUP1 PUSH2 0x140 ADD PUSH1 0x40 MSTORE SWAP1 DUP2 PUSH1 0x0 DUP3 ADD DUP1 SLOAD PUSH2 0x1887 SWAP1 PUSH2 0x34ED JUMP JUMPDEST DUP1 PUSH1 0x1F ADD PUSH1 0x20 DUP1 SWAP2 DIV MUL PUSH1 0x20 ADD PUSH1 0x40 MLOAD SWAP1 DUP2 ADD PUSH1 0x40 MSTORE DUP1 SWAP3 SWAP2 SWAP1 DUP2 DUP2 MSTORE PUSH1 0x20 ADD DUP3 DUP1 SLOAD PUSH2 0x18B3 SWAP1 PUSH2 0x34ED JUMP JUMPDEST DUP1 ISZERO PUSH2 0x1900 JUMPI DUP1 PUSH1 0x1F LT PUSH2 0x18D5 JUMPI PUSH2 0x100 DUP1 DUP4 SLOAD DIV MUL DUP4 MSTORE SWAP2 PUSH1 0x20 ADD SWAP2 PUSH2 0x1900 JUMP JUMPDEST DUP3 ADD SWAP2 SWAP1 PUSH1 0x0 MSTORE PUSH1 0x20 PUSH1 0x0 KECCAK256 SWAP1 JUMPDEST DUP2 SLOAD DUP2 MSTORE SWAP1 PUSH1 0x1 ADD SWAP1 PUSH1 0x20 ADD DUP1 DUP4 GT PUSH2 0x18E3 JUMPI DUP3 SWAP1 SUB PUSH1 0x1F AND DUP3 ADD SWAP2 JUMPDEST POP POP POP POP POP DUP2 MSTORE PUSH1 0x20 ADD PUSH1 0x1 DUP3 ADD SLOAD DUP2 MSTORE PUSH1 0x20 ADD PUSH1 0x2 DUP3 ADD SLOAD DUP2 MSTORE PUSH1 0x20 ADD PUSH1 0x3 DUP3 ADD SLOAD DUP2 MSTORE PUSH1 0x20 ADD PUSH1 0x4 DUP3 ADD PUSH1 0x0 SWAP1 SLOAD SWAP1 PUSH2 0x100 EXP SWAP1 DIV PUSH4 0xFFFFFFFF AND PUSH4 0xFFFFFFFF AND PUSH4 0xFFFFFFFF AND DUP2 MSTORE PUSH1 0x20 ADD PUSH1 0x5 DUP3 ADD SLOAD DUP2 MSTORE PUSH1 0x20 ADD PUSH1 0x6 DUP3 ADD PUSH1 0x0 SWAP1 SLOAD SWAP1 PUSH2 0x100 EXP SWAP1 DIV PUSH1 0xFF AND ISZERO ISZERO ISZERO ISZERO DUP2 MSTORE PUSH1 0x20 ADD PUSH1 0x6 DUP3 ADD PUSH1 0x1 SWAP1 SLOAD SWAP1 PUSH2 0x100 EXP SWAP1 DIV PUSH1 0xFF AND ISZERO ISZERO ISZERO ISZERO DUP2 MSTORE PUSH1 0x20 ADD PUSH1 0x6 DUP3 ADD PUSH1 0x2 SWAP1 SLOAD SWAP1 PUSH2 0x100 EXP SWAP1 DIV PUSH20 0xFFFFFFFFFFFFFFFFFFFFFFFFFFFFFFFFFFFFFFFF AND PUSH20 0xFFFFFFFFFFFFFFFFFFFFFFFFFFFFFFFFFFFFFFFF AND PUSH20 0xFFFFFFFFFFFFFFFFFFFFFFFFFFFFFFFFFFFFFFFF AND DUP2 MSTORE PUSH1 0x20 ADD PUSH1 0x7 DUP3 ADD PUSH1 0x0 SWAP1 SLOAD SWAP1 PUSH2 0x100 EXP SWAP1 DIV PUSH20 0xFFFFFFFFFFFFFFFFFFFFFFFFFFFFFFFFFFFFFFFF AND PUSH20 0xFFFFFFFFFFFFFFFFFFFFFFFFFFFFFFFFFFFFFFFF AND PUSH20 0xFFFFFFFFFFFFFFFFFFFFFFFFFFFFFFFFFFFFFFFF AND DUP2 MSTORE POP POP SWAP1 POP SWAP2 SWAP1 POP JUMP JUMPDEST PUSH1 0x0 PUSH20 0xFFFFFFFFFFFFFFFFFFFFFFFFFFFFFFFFFFFFFFFF AND DUP2 PUSH20 0xFFFFFFFFFFFFFFFFFFFFFFFFFFFFFFFFFFFFFFFF AND SUB PUSH2 0x1A79 JUMPI PUSH1 0x0 DUP1 REVERT JUMPDEST PUSH1 0x1 PUSH1 0x6 DUP4 PUSH1 0x40 MLOAD PUSH2 0x1A8B SWAP2 SWAP1 PUSH2 0x355A JUMP JUMPDEST SWAP1 DUP2 MSTORE PUSH1 0x20 ADD PUSH1 0x40 MLOAD DUP1 SWAP2 SUB SWAP1 KECCAK256 PUSH1 0x0 ADD PUSH1 0x14 SWAP1 SLOAD SWAP1 PUSH2 0x100 EXP SWAP1 DIV PUSH1 0xFF AND PUSH1 0xFF AND SUB PUSH2 0x1B17 JUMPI DUP1 PUSH1 0x6 DUP4 PUSH1 0x40 MLOAD PUSH2 0x1AC3 SWAP2 SWAP1 PUSH2 0x355A JUMP JUMPDEST SWAP1 DUP2 MSTORE PUSH1 0x20 ADD PUSH1 0x40 MLOAD DUP1 SWAP2 SUB SWAP1 KECCAK256 PUSH1 0x0 ADD PUSH1 0x0 PUSH2 0x100 EXP DUP2 SLOAD DUP2 PUSH20 0xFFFFFFFFFFFFFFFFFFFFFFFFFFFFFFFFFFFFFFFF MUL NOT AND SWAP1 DUP4 PUSH20 0xFFFFFFFFFFFFFFFFFFFFFFFFFFFFFFFFFFFFFFFF AND MUL OR SWAP1 SSTORE POP PUSH2 0x1BF1 JUMP JUMPDEST CALLER PUSH20 0xFFFFFFFFFFFFFFFFFFFFFFFFFFFFFFFFFFFFFFFF AND PUSH1 0x6 DUP4 PUSH1 0x40 MLOAD PUSH2 0x1B3E SWAP2 SWAP1 PUSH2 0x355A JUMP JUMPDEST SWAP1 DUP2 MSTORE PUSH1 0x20 ADD PUSH1 0x40 MLOAD DUP1 SWAP2 SUB SWAP1 KECCAK256 PUSH1 0x0 ADD PUSH1 0x0 SWAP1 SLOAD SWAP1 PUSH2 0x100 EXP SWAP1 DIV PUSH20 0xFFFFFFFFFFFFFFFFFFFFFFFFFFFFFFFFFFFFFFFF AND PUSH20 0xFFFFFFFFFFFFFFFFFFFFFFFFFFFFFFFFFFFFFFFF AND EQ PUSH2 0x1B90 JUMPI PUSH1 0x0 DUP1 REVERT JUMPDEST DUP1 PUSH1 0x6 DUP4 PUSH1 0x40 MLOAD PUSH2 0x1BA1 SWAP2 SWAP1 PUSH2 0x355A JUMP JUMPDEST SWAP1 DUP2 MSTORE PUSH1 0x20 ADD PUSH1 0x40 MLOAD DUP1 SWAP2 SUB SWAP1 KECCAK256 PUSH1 0x0 ADD PUSH1 0x0 PUSH2 0x100 EXP DUP2 SLOAD DUP2 PUSH20 0xFFFFFFFFFFFFFFFFFFFFFFFFFFFFFFFFFFFFFFFF MUL NOT AND SWAP1 DUP4 PUSH20 0xFFFFFFFFFFFFFFFFFFFFFFFFFFFFFFFFFFFFFFFF AND MUL OR SWAP1 SSTORE POP JUMPDEST POP POP JUMP JUMPDEST PUSH1 0x0 PUSH20 0xFFFFFFFFFFFFFFFFFFFFFFFFFFFFFFFFFFFFFFFF AND PUSH1 0x6 DUP3 PUSH1 0x40 MLOAD PUSH2 0x1C1D SWAP2 SWAP1 PUSH2 0x355A JUMP JUMPDEST SWAP1 DUP2 MSTORE PUSH1 0x20 ADD PUSH1 0x40 MLOAD DUP1 SWAP2 SUB SWAP1 KECCAK256 PUSH1 0x0 ADD PUSH1 0x0 SWAP1 SLOAD SWAP1 PUSH2 0x100 EXP SWAP1 DIV PUSH20 0xFFFFFFFFFFFFFFFFFFFFFFFFFFFFFFFFFFFFFFFF AND PUSH20 0xFFFFFFFFFFFFFFFFFFFFFFFFFFFFFFFFFFFFFFFF AND EQ PUSH2 0x1C6F JUMPI PUSH1 0x0 DUP1 REVERT JUMPDEST PUSH1 0x0 PUSH1 0xA PUSH1 0x0 CALLER PUSH20 0xFFFFFFFFFFFFFFFFFFFFFFFFFFFFFFFFFFFFFFFF AND PUSH20 0xFFFFFFFFFFFFFFFFFFFFFFFFFFFFFFFFFFFFFFFF AND DUP2 MSTORE PUSH1 0x20 ADD SWAP1 DUP2 MSTORE PUSH1 0x20 ADD PUSH1 0x0 KECCAK256 SLOAD SUB PUSH2 0x1D73 JUMPI PUSH1 0x40 MLOAD DUP1 PUSH1 0x40 ADD PUSH1 0x40 MSTORE DUP1 CALLER PUSH20 0xFFFFFFFFFFFFFFFFFFFFFFFFFFFFFFFFFFFFFFFF AND DUP2 MSTORE PUSH1 0x20 ADD PUSH1 0x1 PUSH1 0xFF AND DUP2 MSTORE POP PUSH1 0x6 DUP3 PUSH1 0x40 MLOAD PUSH2 0x1CF5 SWAP2 SWAP1 PUSH2 0x355A JUMP JUMPDEST SWAP1 DUP2 MSTORE PUSH1 0x20 ADD PUSH1 0x40 MLOAD DUP1 SWAP2 SUB SWAP1 KECCAK256 PUSH1 0x0 DUP3 ADD MLOAD DUP2 PUSH1 0x0 ADD PUSH1 0x0 PUSH2 0x100 EXP DUP2 SLOAD DUP2 PUSH20 0xFFFFFFFFFFFFFFFFFFFFFFFFFFFFFFFFFFFFFFFF MUL NOT AND SWAP1 DUP4 PUSH20 0xFFFFFFFFFFFFFFFFFFFFFFFFFFFFFFFFFFFFFFFF AND MUL OR SWAP1 SSTORE POP PUSH1 0x20 DUP3 ADD MLOAD DUP2 PUSH1 0x0 ADD PUSH1 0x14 PUSH2 0x100 EXP DUP2 SLOAD DUP2 PUSH1 0xFF MUL NOT AND SWAP1 DUP4 PUSH1 0xFF AND MUL OR SWAP1 SSTORE POP SWAP1 POP POP PUSH2 0x1E2C JUMP JUMPDEST PUSH1 0x40 MLOAD DUP1 PUSH1 0x40 ADD PUSH1 0x40 MSTORE DUP1 CALLER PUSH20 0xFFFFFFFFFFFFFFFFFFFFFFFFFFFFFFFFFFFFFFFF AND DUP2 MSTORE PUSH1 0x20 ADD PUSH1 0x2 PUSH1 0xFF AND DUP2 MSTORE POP PUSH1 0x6 DUP3 PUSH1 0x40 MLOAD PUSH2 0x1DB2 SWAP2 SWAP1 PUSH2 0x355A JUMP JUMPDEST SWAP1 DUP2 MSTORE PUSH1 0x20 ADD PUSH1 0x40 MLOAD DUP1 SWAP2 SUB SWAP1 KECCAK256 PUSH1 0x0 DUP3 ADD MLOAD DUP2 PUSH1 0x0 ADD PUSH1 0x0 PUSH2 0x100 EXP DUP2 SLOAD DUP2 PUSH20 0xFFFFFFFFFFFFFFFFFFFFFFFFFFFFFFFFFFFFFFFF MUL NOT AND SWAP1 DUP4 PUSH20 0xFFFFFFFFFFFFFFFFFFFFFFFFFFFFFFFFFFFFFFFF AND MUL OR SWAP1 SSTORE POP PUSH1 0x20 DUP3 ADD MLOAD DUP2 PUSH1 0x0 ADD PUSH1 0x14 PUSH2 0x100 EXP DUP2 SLOAD DUP2 PUSH1 0xFF MUL NOT AND SWAP1 DUP4 PUSH1 0xFF AND MUL OR SWAP1 SSTORE POP SWAP1 POP POP JUMPDEST POP JUMP JUMPDEST PUSH1 0x1 DUP1 SLOAD PUSH2 0x1E3C SWAP1 PUSH2 0x34ED JUMP JUMPDEST DUP1 PUSH1 0x1F ADD PUSH1 0x20 DUP1 SWAP2 DIV MUL PUSH1 0x20 ADD PUSH1 0x40 MLOAD SWAP1 DUP2 ADD PUSH1 0x40 MSTORE DUP1 SWAP3 SWAP2 SWAP1 DUP2 DUP2 MSTORE PUSH1 0x20 ADD DUP3 DUP1 SLOAD PUSH2 0x1E68 SWAP1 PUSH2 0x34ED JUMP JUMPDEST DUP1 ISZERO PUSH2 0x1EB5 JUMPI DUP1 PUSH1 0x1F LT PUSH2 0x1E8A JUMPI PUSH2 0x100 DUP1 DUP4 SLOAD DIV MUL DUP4 MSTORE SWAP2 PUSH1 0x20 ADD SWAP2 PUSH2 0x1EB5 JUMP JUMPDEST DUP3 ADD SWAP2 SWAP1 PUSH1 0x0 MSTORE PUSH1 0x20 PUSH1 0x0 KECCAK256 SWAP1 JUMPDEST DUP2 SLOAD DUP2 MSTORE SWAP1 PUSH1 0x1 ADD SWAP1 PUSH1 0x20 ADD DUP1 DUP4 GT PUSH2 0x1E98 JUMPI DUP3 SWAP1 SUB PUSH1 0x1F AND DUP3 ADD SWAP2 JUMPDEST POP POP POP POP POP DUP2 JUMP JUMPDEST PUSH1 0x7 SLOAD DUP2 JUMP JUMPDEST PUSH1 0x0 DUP1 PUSH1 0x6 DUP4 PUSH1 0x40 MLOAD PUSH2 0x1ED6 SWAP2 SWAP1 PUSH2 0x355A JUMP JUMPDEST SWAP1 DUP2 MSTORE PUSH1 0x20 ADD PUSH1 0x40 MLOAD DUP1 SWAP2 SUB SWAP1 KECCAK256 PUSH1 0x0 ADD PUSH1 0x0 SWAP1 SLOAD SWAP1 PUSH2 0x100 EXP SWAP1 DIV PUSH20 0xFFFFFFFFFFFFFFFFFFFFFFFFFFFFFFFFFFFFFFFF AND PUSH1 0x6 DUP5 PUSH1 0x40 MLOAD PUSH2 0x1F18 SWAP2 SWAP1 PUSH2 0x355A JUMP JUMPDEST SWAP1 DUP2 MSTORE PUSH1 0x20 ADD PUSH1 0x40 MLOAD DUP1 SWAP2 SUB SWAP1 KECCAK256 PUSH1 0x0 ADD PUSH1 0x14 SWAP1 SLOAD SWAP1 PUSH2 0x100 EXP SWAP1 DIV PUSH1 0xFF AND SWAP2 POP SWAP2 POP SWAP2 POP SWAP2 JUMP JUMPDEST PUSH1 0x0 DUP2 PUSH1 0x4 PUSH1 0x0 CALLER PUSH20 0xFFFFFFFFFFFFFFFFFFFFFFFFFFFFFFFFFFFFFFFF AND PUSH20 0xFFFFFFFFFFFFFFFFFFFFFFFFFFFFFFFFFFFFFFFF AND DUP2 MSTORE PUSH1 0x20 ADD SWAP1 DUP2 MSTORE PUSH1 0x20 ADD PUSH1 0x0 KECCAK256 SLOAD LT ISZERO PUSH2 0x1FC4 JUMPI PUSH1 0x40 MLOAD PUSH32 0x8C379A000000000000000000000000000000000000000000000000000000000 DUP2 MSTORE PUSH1 0x4 ADD PUSH2 0x1FBB SWAP1 PUSH2 0x3CD6 JUMP JUMPDEST PUSH1 0x40 MLOAD DUP1 SWAP2 SUB SWAP1 REVERT JUMPDEST PUSH2 0x1FCF CALLER DUP5 DUP5 PUSH2 0x299E JUMP JUMPDEST PUSH1 0x1 SWAP1 POP SWAP3 SWAP2 POP POP JUMP JUMPDEST PUSH1 0x8 SLOAD DUP2 JUMP JUMPDEST PUSH1 0x1 DUP2 PUSH1 0xFF AND SUB PUSH2 0x20C8 JUMPI PUSH1 0x0 PUSH1 0xA PUSH1 0x0 CALLER PUSH20 0xFFFFFFFFFFFFFFFFFFFFFFFFFFFFFFFFFFFFFFFF AND PUSH20 0xFFFFFFFFFFFFFFFFFFFFFFFFFFFFFFFFFFFFFFFF AND DUP2 MSTORE PUSH1 0x20 ADD SWAP1 DUP2 MSTORE PUSH1 0x20 ADD PUSH1 0x0 KECCAK256 SLOAD GT PUSH2 0x2036 JUMPI PUSH1 0x0 DUP1 REVERT JUMPDEST PUSH2 0x2080 ADDRESS CALLER PUSH1 0xA PUSH1 0x0 CALLER PUSH20 0xFFFFFFFFFFFFFFFFFFFFFFFFFFFFFFFFFFFFFFFF AND PUSH20 0xFFFFFFFFFFFFFFFFFFFFFFFFFFFFFFFFFFFFFFFF AND DUP2 MSTORE PUSH1 0x20 ADD SWAP1 DUP2 MSTORE PUSH1 0x20 ADD PUSH1 0x0 KECCAK256 SLOAD PUSH2 0x299E JUMP JUMPDEST PUSH1 0xA PUSH1 0x0 CALLER PUSH20 0xFFFFFFFFFFFFFFFFFFFFFFFFFFFFFFFFFFFFFFFF AND PUSH20 0xFFFFFFFFFFFFFFFFFFFFFFFFFFFFFFFFFFFFFFFF AND DUP2 MSTORE PUSH1 0x20 ADD SWAP1 DUP2 MSTORE PUSH1 0x20 ADD PUSH1 0x0 KECCAK256 PUSH1 0x0 SWAP1 SSTORE PUSH2 0x21AE JUMP JUMPDEST PUSH1 0x2 DUP2 PUSH1 0xFF AND SUB PUSH2 0x21AD JUMPI PUSH1 0x0 PUSH1 0xB PUSH1 0x0 CALLER PUSH20 0xFFFFFFFFFFFFFFFFFFFFFFFFFFFFFFFFFFFFFFFF AND PUSH20 0xFFFFFFFFFFFFFFFFFFFFFFFFFFFFFFFFFFFFFFFF AND DUP2 MSTORE PUSH1 0x20 ADD SWAP1 DUP2 MSTORE PUSH1 0x20 ADD PUSH1 0x0 KECCAK256 SLOAD GT PUSH2 0x211F JUMPI PUSH1 0x0 DUP1 REVERT JUMPDEST PUSH2 0x2169 ADDRESS CALLER PUSH1 0xB PUSH1 0x0 CALLER PUSH20 0xFFFFFFFFFFFFFFFFFFFFFFFFFFFFFFFFFFFFFFFF AND PUSH20 0xFFFFFFFFFFFFFFFFFFFFFFFFFFFFFFFFFFFFFFFF AND DUP2 MSTORE PUSH1 0x20 ADD SWAP1 DUP2 MSTORE PUSH1 0x20 ADD PUSH1 0x0 KECCAK256 SLOAD PUSH2 0x299E JUMP JUMPDEST PUSH1 0xB PUSH1 0x0 CALLER PUSH20 0xFFFFFFFFFFFFFFFFFFFFFFFFFFFFFFFFFFFFFFFF AND PUSH20 0xFFFFFFFFFFFFFFFFFFFFFFFFFFFFFFFFFFFFFFFF AND DUP2 MSTORE PUSH1 0x20 ADD SWAP1 DUP2 MSTORE PUSH1 0x20 ADD PUSH1 0x0 KECCAK256 PUSH1 0x0 SWAP1 SSTORE JUMPDEST JUMPDEST POP JUMP JUMPDEST CALLER PUSH20 0xFFFFFFFFFFFFFFFFFFFFFFFFFFFFFFFFFFFFFFFF AND PUSH1 0x6 DUP3 PUSH1 0x40 MLOAD PUSH2 0x21D8 SWAP2 SWAP1 PUSH2 0x355A JUMP JUMPDEST SWAP1 DUP2 MSTORE PUSH1 0x20 ADD PUSH1 0x40 MLOAD DUP1 SWAP2 SUB SWAP1 KECCAK256 PUSH1 0x0 ADD PUSH1 0x0 SWAP1 SLOAD SWAP1 PUSH2 0x100 EXP SWAP1 DIV PUSH20 0xFFFFFFFFFFFFFFFFFFFFFFFFFFFFFFFFFFFFFFFF AND PUSH20 0xFFFFFFFFFFFFFFFFFFFFFFFFFFFFFFFFFFFFFFFF AND EQ PUSH2 0x222A JUMPI PUSH1 0x0 DUP1 REVERT JUMPDEST PUSH1 0x6 DUP2 PUSH1 0x40 MLOAD PUSH2 0x223A SWAP2 SWAP1 PUSH2 0x355A JUMP JUMPDEST SWAP1 DUP2 MSTORE PUSH1 0x20 ADD PUSH1 0x40 MLOAD DUP1 SWAP2 SUB SWAP1 KECCAK256 PUSH1 0x0 DUP1 DUP3 ADD PUSH1 0x0 PUSH2 0x100 EXP DUP2 SLOAD SWAP1 PUSH20 0xFFFFFFFFFFFFFFFFFFFFFFFFFFFFFFFFFFFFFFFF MUL NOT AND SWAP1 SSTORE PUSH1 0x0 DUP3 ADD PUSH1 0x14 PUSH2 0x100 EXP DUP2 SLOAD SWAP1 PUSH1 0xFF MUL NOT AND SWAP1 SSTORE POP POP POP JUMP JUMPDEST PUSH1 0x0 PUSH1 0x5 PUSH1 0x0 DUP5 PUSH20 0xFFFFFFFFFFFFFFFFFFFFFFFFFFFFFFFFFFFFFFFF AND PUSH20 0xFFFFFFFFFFFFFFFFFFFFFFFFFFFFFFFFFFFFFFFF AND DUP2 MSTORE PUSH1 0x20 ADD SWAP1 DUP2 MSTORE PUSH1 0x20 ADD PUSH1 0x0 KECCAK256 PUSH1 0x0 DUP4 PUSH20 0xFFFFFFFFFFFFFFFFFFFFFFFFFFFFFFFFFFFFFFFF AND PUSH20 0xFFFFFFFFFFFFFFFFFFFFFFFFFFFFFFFFFFFFFFFF AND DUP2 MSTORE PUSH1 0x20 ADD SWAP1 DUP2 MSTORE PUSH1 0x20 ADD PUSH1 0x0 KECCAK256 SLOAD SWAP1 POP SWAP3 SWAP2 POP POP JUMP JUMPDEST PUSH1 0x0 PUSH1 0xC DUP3 PUSH1 0x40 MLOAD PUSH2 0x2322 SWAP2 SWAP1 PUSH2 0x355A JUMP JUMPDEST SWAP1 DUP2 MSTORE PUSH1 0x20 ADD PUSH1 0x40 MLOAD DUP1 SWAP2 SUB SWAP1 KECCAK256 PUSH1 0x6 ADD PUSH1 0x0 SWAP1 SLOAD SWAP1 PUSH2 0x100 EXP SWAP1 DIV PUSH1 0xFF AND SWAP1 POP SWAP2 SWAP1 POP JUMP JUMPDEST PUSH1 0x0 PUSH1 0x1 DUP3 PUSH1 0xFF AND SUB PUSH2 0x23A0 JUMPI PUSH1 0x0 PUSH1 0xA PUSH1 0x0 CALLER PUSH20 0xFFFFFFFFFFFFFFFFFFFFFFFFFFFFFFFFFFFFFFFF AND PUSH20 0xFFFFFFFFFFFFFFFFFFFFFFFFFFFFFFFFFFFFFFFF AND DUP2 MSTORE PUSH1 0x20 ADD SWAP1 DUP2 MSTORE PUSH1 0x20 ADD PUSH1 0x0 KECCAK256 SLOAD EQ ISZERO SWAP1 POP PUSH2 0x23FB JUMP JUMPDEST PUSH1 0x2 DUP3 PUSH1 0xFF AND SUB PUSH2 0x23F6 JUMPI PUSH1 0x0 PUSH1 0xB PUSH1 0x0 CALLER PUSH20 0xFFFFFFFFFFFFFFFFFFFFFFFFFFFFFFFFFFFFFFFF AND PUSH20 0xFFFFFFFFFFFFFFFFFFFFFFFFFFFFFFFFFFFFFFFF AND DUP2 MSTORE PUSH1 0x20 ADD SWAP1 DUP2 MSTORE PUSH1 0x20 ADD PUSH1 0x0 KECCAK256 SLOAD EQ ISZERO SWAP1 POP PUSH2 0x23FB JUMP JUMPDEST PUSH1 0x0 SWAP1 POP JUMPDEST SWAP2 SWAP1 POP JUMP JUMPDEST PUSH1 0x0 DUP1 PUSH1 0xB PUSH1 0x0 CALLER PUSH20 0xFFFFFFFFFFFFFFFFFFFFFFFFFFFFFFFFFFFFFFFF AND PUSH20 0xFFFFFFFFFFFFFFFFFFFFFFFFFFFFFFFFFFFFFFFF AND DUP2 MSTORE PUSH1 0x20 ADD SWAP1 DUP2 MSTORE PUSH1 0x20 ADD PUSH1 0x0 KECCAK256 SLOAD SUB PUSH2 0x2451 JUMPI PUSH1 0x0 SWAP1 POP PUSH2 0x28D3 JUMP JUMPDEST PUSH1 0x0 PUSH1 0xD PUSH1 0x0 CALLER PUSH20 0xFFFFFFFFFFFFFFFFFFFFFFFFFFFFFFFFFFFFFFFF AND PUSH20 0xFFFFFFFFFFFFFFFFFFFFFFFFFFFFFFFFFFFFFFFF AND DUP2 MSTORE PUSH1 0x20 ADD SWAP1 DUP2 MSTORE PUSH1 0x20 ADD PUSH1 0x0 KECCAK256 DUP1 SLOAD DUP1 PUSH1 0x20 MUL PUSH1 0x20 ADD PUSH1 0x40 MLOAD SWAP1 DUP2 ADD PUSH1 0x40 MSTORE DUP1 SWAP3 SWAP2 SWAP1 DUP2 DUP2 MSTORE PUSH1 0x20 ADD PUSH1 0x0 SWAP1 JUMPDEST DUP3 DUP3 LT ISZERO PUSH2 0x255E JUMPI DUP4 DUP3 SWAP1 PUSH1 0x0 MSTORE PUSH1 0x20 PUSH1 0x0 KECCAK256 ADD DUP1 SLOAD PUSH2 0x24D1 SWAP1 PUSH2 0x34ED JUMP JUMPDEST DUP1 PUSH1 0x1F ADD PUSH1 0x20 DUP1 SWAP2 DIV MUL PUSH1 0x20 ADD PUSH1 0x40 MLOAD SWAP1 DUP2 ADD PUSH1 0x40 MSTORE DUP1 SWAP3 SWAP2 SWAP1 DUP2 DUP2 MSTORE PUSH1 0x20 ADD DUP3 DUP1 SLOAD PUSH2 0x24FD SWAP1 PUSH2 0x34ED JUMP JUMPDEST DUP1 ISZERO PUSH2 0x254A JUMPI DUP1 PUSH1 0x1F LT PUSH2 0x251F JUMPI PUSH2 0x100 DUP1 DUP4 SLOAD DIV MUL DUP4 MSTORE SWAP2 PUSH1 0x20 ADD SWAP2 PUSH2 0x254A JUMP JUMPDEST DUP3 ADD SWAP2 SWAP1 PUSH1 0x0 MSTORE PUSH1 0x20 PUSH1 0x0 KECCAK256 SWAP1 JUMPDEST DUP2 SLOAD DUP2 MSTORE SWAP1 PUSH1 0x1 ADD SWAP1 PUSH1 0x20 ADD DUP1 DUP4 GT PUSH2 0x252D JUMPI DUP3 SWAP1 SUB PUSH1 0x1F AND DUP3 ADD SWAP2 JUMPDEST POP POP POP POP POP DUP2 MSTORE PUSH1 0x20 ADD SWAP1 PUSH1 0x1 ADD SWAP1 PUSH2 0x24B2 JUMP JUMPDEST POP POP POP POP SWAP1 POP PUSH1 0x0 DUP1 JUMPDEST DUP3 MLOAD DUP2 LT ISZERO PUSH2 0x28CC JUMPI PUSH1 0xC DUP4 DUP3 DUP2 MLOAD DUP2 LT PUSH2 0x2586 JUMPI PUSH2 0x2585 PUSH2 0x3814 JUMP JUMPDEST JUMPDEST PUSH1 0x20 MUL PUSH1 0x20 ADD ADD MLOAD PUSH1 0x40 MLOAD PUSH2 0x259B SWAP2 SWAP1 PUSH2 0x355A JUMP JUMPDEST SWAP1 DUP2 MSTORE PUSH1 0x20 ADD PUSH1 0x40 MLOAD DUP1 SWAP2 SUB SWAP1 KECCAK256 PUSH1 0x6 ADD PUSH1 0x1 SWAP1 SLOAD SWAP1 PUSH2 0x100 EXP SWAP1 DIV PUSH1 0xFF AND PUSH2 0x28B9 JUMPI PUSH1 0xC DUP4 DUP3 DUP2 MLOAD DUP2 LT PUSH2 0x25D3 JUMPI PUSH2 0x25D2 PUSH2 0x3814 JUMP JUMPDEST JUMPDEST PUSH1 0x20 MUL PUSH1 0x20 ADD ADD MLOAD PUSH1 0x40 MLOAD PUSH2 0x25E8 SWAP2 SWAP1 PUSH2 0x355A JUMP JUMPDEST SWAP1 DUP2 MSTORE PUSH1 0x20 ADD PUSH1 0x40 MLOAD DUP1 SWAP2 SUB SWAP1 KECCAK256 PUSH1 0x2 ADD SLOAD TIMESTAMP LT PUSH2 0x2752 JUMPI PUSH1 0x0 PUSH1 0xC DUP5 DUP4 DUP2 MLOAD DUP2 LT PUSH2 0x2617 JUMPI PUSH2 0x2616 PUSH2 0x3814 JUMP JUMPDEST JUMPDEST PUSH1 0x20 MUL PUSH1 0x20 ADD ADD MLOAD PUSH1 0x40 MLOAD PUSH2 0x262C SWAP2 SWAP1 PUSH2 0x355A JUMP JUMPDEST SWAP1 DUP2 MSTORE PUSH1 0x20 ADD PUSH1 0x40 MLOAD DUP1 SWAP2 SUB SWAP1 KECCAK256 PUSH1 0x3 ADD SLOAD PUSH1 0xC DUP6 DUP5 DUP2 MLOAD DUP2 LT PUSH2 0x2653 JUMPI PUSH2 0x2652 PUSH2 0x3814 JUMP JUMPDEST JUMPDEST PUSH1 0x20 MUL PUSH1 0x20 ADD ADD MLOAD PUSH1 0x40 MLOAD PUSH2 0x2668 SWAP2 SWAP1 PUSH2 0x355A JUMP JUMPDEST SWAP1 DUP2 MSTORE PUSH1 0x20 ADD PUSH1 0x40 MLOAD DUP1 SWAP2 SUB SWAP1 KECCAK256 PUSH1 0x4 ADD PUSH1 0x0 SWAP1 SLOAD SWAP1 PUSH2 0x100 EXP SWAP1 DIV PUSH4 0xFFFFFFFF AND PUSH4 0xFFFFFFFF AND PUSH2 0x269A SWAP2 SWAP1 PUSH2 0x369E JUMP JUMPDEST SWAP1 POP DUP1 PUSH1 0xC DUP6 DUP5 DUP2 MLOAD DUP2 LT PUSH2 0x26B2 JUMPI PUSH2 0x26B1 PUSH2 0x3814 JUMP JUMPDEST JUMPDEST PUSH1 0x20 MUL PUSH1 0x20 ADD ADD MLOAD PUSH1 0x40 MLOAD PUSH2 0x26C7 SWAP2 SWAP1 PUSH2 0x355A JUMP JUMPDEST SWAP1 DUP2 MSTORE PUSH1 0x20 ADD PUSH1 0x40 MLOAD DUP1 SWAP2 SUB SWAP1 KECCAK256 PUSH1 0x4 ADD PUSH1 0x0 SWAP1 SLOAD SWAP1 PUSH2 0x100 EXP SWAP1 DIV PUSH4 0xFFFFFFFF AND PUSH4 0xFFFFFFFF AND PUSH1 0xC DUP7 DUP6 DUP2 MLOAD DUP2 LT PUSH2 0x2704 JUMPI PUSH2 0x2703 PUSH2 0x3814 JUMP JUMPDEST JUMPDEST PUSH1 0x20 MUL PUSH1 0x20 ADD ADD MLOAD PUSH1 0x40 MLOAD PUSH2 0x2719 SWAP2 SWAP1 PUSH2 0x355A JUMP JUMPDEST SWAP1 DUP2 MSTORE PUSH1 0x20 ADD PUSH1 0x40 MLOAD DUP1 SWAP2 SUB SWAP1 KECCAK256 PUSH1 0x5 ADD SLOAD PUSH2 0x2735 SWAP2 SWAP1 PUSH2 0x3701 JUMP JUMPDEST PUSH2 0x273F SWAP2 SWAP1 PUSH2 0x3732 JUMP JUMPDEST DUP4 PUSH2 0x274A SWAP2 SWAP1 PUSH2 0x3774 JUMP JUMPDEST SWAP3 POP POP PUSH2 0x28B8 JUMP JUMPDEST PUSH1 0x0 PUSH1 0xC DUP5 DUP4 DUP2 MLOAD DUP2 LT PUSH2 0x2769 JUMPI PUSH2 0x2768 PUSH2 0x3814 JUMP JUMPDEST JUMPDEST PUSH1 0x20 MUL PUSH1 0x20 ADD ADD MLOAD PUSH1 0x40 MLOAD PUSH2 0x277E SWAP2 SWAP1 PUSH2 0x355A JUMP JUMPDEST SWAP1 DUP2 MSTORE PUSH1 0x20 ADD PUSH1 0x40 MLOAD DUP1 SWAP2 SUB SWAP1 KECCAK256 PUSH1 0x3 ADD SLOAD PUSH1 0x9 PUSH1 0x0 SWAP1 SLOAD SWAP1 PUSH2 0x100 EXP SWAP1 DIV PUSH4 0xFFFFFFFF AND PUSH4 0xFFFFFFFF AND PUSH1 0xC DUP7 DUP6 DUP2 MLOAD DUP2 LT PUSH2 0x27BE JUMPI PUSH2 0x27BD PUSH2 0x3814 JUMP JUMPDEST JUMPDEST PUSH1 0x20 MUL PUSH1 0x20 ADD ADD MLOAD PUSH1 0x40 MLOAD PUSH2 0x27D3 SWAP2 SWAP1 PUSH2 0x355A JUMP JUMPDEST SWAP1 DUP2 MSTORE PUSH1 0x20 ADD PUSH1 0x40 MLOAD DUP1 SWAP2 SUB SWAP1 KECCAK256 PUSH1 0x1 ADD SLOAD TIMESTAMP PUSH2 0x27F0 SWAP2 SWAP1 PUSH2 0x369E JUMP JUMPDEST PUSH2 0x27FA SWAP2 SWAP1 PUSH2 0x3701 JUMP JUMPDEST PUSH2 0x2804 SWAP2 SWAP1 PUSH2 0x369E JUMP JUMPDEST SWAP1 POP DUP1 PUSH1 0xC DUP6 DUP5 DUP2 MLOAD DUP2 LT PUSH2 0x281C JUMPI PUSH2 0x281B PUSH2 0x3814 JUMP JUMPDEST JUMPDEST PUSH1 0x20 MUL PUSH1 0x20 ADD ADD MLOAD PUSH1 0x40 MLOAD PUSH2 0x2831 SWAP2 SWAP1 PUSH2 0x355A JUMP JUMPDEST SWAP1 DUP2 MSTORE PUSH1 0x20 ADD PUSH1 0x40 MLOAD DUP1 SWAP2 SUB SWAP1 KECCAK256 PUSH1 0x4 ADD PUSH1 0x0 SWAP1 SLOAD SWAP1 PUSH2 0x100 EXP SWAP1 DIV PUSH4 0xFFFFFFFF AND PUSH4 0xFFFFFFFF AND PUSH1 0xC DUP7 DUP6 DUP2 MLOAD DUP2 LT PUSH2 0x286E JUMPI PUSH2 0x286D PUSH2 0x3814 JUMP JUMPDEST JUMPDEST PUSH1 0x20 MUL PUSH1 0x20 ADD ADD MLOAD PUSH1 0x40 MLOAD PUSH2 0x2883 SWAP2 SWAP1 PUSH2 0x355A JUMP JUMPDEST SWAP1 DUP2 MSTORE PUSH1 0x20 ADD PUSH1 0x40 MLOAD DUP1 SWAP2 SUB SWAP1 KECCAK256 PUSH1 0x5 ADD SLOAD PUSH2 0x289F SWAP2 SWAP1 PUSH2 0x3701 JUMP JUMPDEST PUSH2 0x28A9 SWAP2 SWAP1 PUSH2 0x3732 JUMP JUMPDEST DUP4 PUSH2 0x28B4 SWAP2 SWAP1 PUSH2 0x3774 JUMP JUMPDEST SWAP3 POP POP JUMPDEST JUMPDEST DUP1 DUP1 PUSH2 0x28C4 SWAP1 PUSH2 0x3843 JUMP JUMPDEST SWAP2 POP POP PUSH2 0x2568 JUMP JUMPDEST POP DUP1 SWAP3 POP POP POP JUMPDEST SWAP1 JUMP JUMPDEST PUSH1 0x0 PUSH1 0xA PUSH1 0x0 CALLER PUSH20 0xFFFFFFFFFFFFFFFFFFFFFFFFFFFFFFFFFFFFFFFF AND PUSH20 0xFFFFFFFFFFFFFFFFFFFFFFFFFFFFFFFFFFFFFFFF AND DUP2 MSTORE PUSH1 0x20 ADD SWAP1 DUP2 MSTORE PUSH1 0x20 ADD PUSH1 0x0 KECCAK256 SLOAD GT PUSH2 0x2922 JUMPI PUSH1 0x0 DUP1 REVERT JUMPDEST PUSH1 0x1 PUSH1 0x6 DUP3 PUSH1 0x40 MLOAD PUSH2 0x2934 SWAP2 SWAP1 PUSH2 0x355A JUMP JUMPDEST SWAP1 DUP2 MSTORE PUSH1 0x20 ADD PUSH1 0x40 MLOAD DUP1 SWAP2 SUB SWAP1 KECCAK256 PUSH1 0x0 ADD PUSH1 0x14 SWAP1 SLOAD SWAP1 PUSH2 0x100 EXP SWAP1 DIV PUSH1 0xFF AND PUSH1 0xFF AND EQ PUSH2 0x2960 JUMPI PUSH1 0x0 DUP1 REVERT JUMPDEST PUSH1 0x2 PUSH1 0x6 DUP3 PUSH1 0x40 MLOAD PUSH2 0x2972 SWAP2 SWAP1 PUSH2 0x355A JUMP JUMPDEST SWAP1 DUP2 MSTORE PUSH1 0x20 ADD PUSH1 0x40 MLOAD DUP1 SWAP2 SUB SWAP1 KECCAK256 PUSH1 0x0 ADD PUSH1 0x14 PUSH2 0x100 EXP DUP2 SLOAD DUP2 PUSH1 0xFF MUL NOT AND SWAP1 DUP4 PUSH1 0xFF AND MUL OR SWAP1 SSTORE POP POP JUMP JUMPDEST PUSH1 0x0 PUSH20 0xFFFFFFFFFFFFFFFFFFFFFFFFFFFFFFFFFFFFFFFF AND DUP4 PUSH20 0xFFFFFFFFFFFFFFFFFFFFFFFFFFFFFFFFFFFFFFFF AND SUB PUSH2 0x2A0D JUMPI PUSH1 0x40 MLOAD PUSH32 0x8C379A000000000000000000000000000000000000000000000000000000000 DUP2 MSTORE PUSH1 0x4 ADD PUSH2 0x2A04 SWAP1 PUSH2 0x3D68 JUMP JUMPDEST PUSH1 0x40 MLOAD DUP1 SWAP2 SUB SWAP1 REVERT JUMPDEST PUSH1 0x0 PUSH20 0xFFFFFFFFFFFFFFFFFFFFFFFFFFFFFFFFFFFFFFFF AND DUP3 PUSH20 0xFFFFFFFFFFFFFFFFFFFFFFFFFFFFFFFFFFFFFFFF AND SUB PUSH2 0x2A7C JUMPI PUSH1 0x40 MLOAD PUSH32 0x8C379A000000000000000000000000000000000000000000000000000000000 DUP2 MSTORE PUSH1 0x4 ADD PUSH2 0x2A73 SWAP1 PUSH2 0x3DFA JUMP JUMPDEST PUSH1 0x40 MLOAD DUP1 SWAP2 SUB SWAP1 REVERT JUMPDEST PUSH1 0x0 PUSH1 0x4 PUSH1 0x0 DUP6 PUSH20 0xFFFFFFFFFFFFFFFFFFFFFFFFFFFFFFFFFFFFFFFF AND PUSH20 0xFFFFFFFFFFFFFFFFFFFFFFFFFFFFFFFFFFFFFFFF AND DUP2 MSTORE PUSH1 0x20 ADD SWAP1 DUP2 MSTORE PUSH1 0x20 ADD PUSH1 0x0 KECCAK256 SLOAD SWAP1 POP DUP2 DUP2 LT ISZERO PUSH2 0x2B03 JUMPI PUSH1 0x40 MLOAD PUSH32 0x8C379A000000000000000000000000000000000000000000000000000000000 DUP2 MSTORE PUSH1 0x4 ADD PUSH2 0x2AFA SWAP1 PUSH2 0x3E8C JUMP JUMPDEST PUSH1 0x40 MLOAD DUP1 SWAP2 SUB SWAP1 REVERT JUMPDEST DUP2 DUP2 PUSH2 0x2B0F SWAP2 SWAP1 PUSH2 0x369E JUMP JUMPDEST PUSH1 0x4 PUSH1 0x0 DUP7 PUSH20 0xFFFFFFFFFFFFFFFFFFFFFFFFFFFFFFFFFFFFFFFF AND PUSH20 0xFFFFFFFFFFFFFFFFFFFFFFFFFFFFFFFFFFFFFFFF AND DUP2 MSTORE PUSH1 0x20 ADD SWAP1 DUP2 MSTORE PUSH1 0x20 ADD PUSH1 0x0 KECCAK256 DUP2 SWAP1 SSTORE POP DUP2 PUSH1 0x4 PUSH1 0x0 DUP6 PUSH20 0xFFFFFFFFFFFFFFFFFFFFFFFFFFFFFFFFFFFFFFFF AND PUSH20 0xFFFFFFFFFFFFFFFFFFFFFFFFFFFFFFFFFFFFFFFF AND DUP2 MSTORE PUSH1 0x20 ADD SWAP1 DUP2 MSTORE PUSH1 0x20 ADD PUSH1 0x0 KECCAK256 PUSH1 0x0 DUP3 DUP3 SLOAD PUSH2 0x2BA1 SWAP2 SWAP1 PUSH2 0x3774 JUMP JUMPDEST SWAP3 POP POP DUP2 SWAP1 SSTORE POP POP POP POP POP JUMP JUMPDEST PUSH1 0x40 MLOAD DUP1 PUSH2 0x140 ADD PUSH1 0x40 MSTORE DUP1 PUSH1 0x60 DUP2 MSTORE PUSH1 0x20 ADD PUSH1 0x0 DUP2 MSTORE PUSH1 0x20 ADD PUSH1 0x0 DUP2 MSTORE PUSH1 0x20 ADD PUSH1 0x0 DUP2 MSTORE PUSH1 0x20 ADD PUSH1 0x0 PUSH4 0xFFFFFFFF AND DUP2 MSTORE PUSH1 0x20 ADD PUSH1 0x0 DUP2 MSTORE PUSH1 0x20 ADD PUSH1 0x0 ISZERO ISZERO DUP2 MSTORE PUSH1 0x20 ADD PUSH1 0x0 ISZERO ISZERO DUP2 MSTORE PUSH1 0x20 ADD PUSH1 0x0 PUSH20 0xFFFFFFFFFFFFFFFFFFFFFFFFFFFFFFFFFFFFFFFF AND DUP2 MSTORE PUSH1 0x20 ADD PUSH1 0x0 PUSH20 0xFFFFFFFFFFFFFFFFFFFFFFFFFFFFFFFFFFFFFFFF AND DUP2 MSTORE POP SWAP1 JUMP JUMPDEST PUSH1 0x0 DUP2 MLOAD SWAP1 POP SWAP2 SWAP1 POP JUMP JUMPDEST PUSH1 0x0 DUP3 DUP3 MSTORE PUSH1 0x20 DUP3 ADD SWAP1 POP SWAP3 SWAP2 POP POP JUMP JUMPDEST PUSH1 0x0 JUMPDEST DUP4 DUP2 LT ISZERO PUSH2 0x2C71 JUMPI DUP1 DUP3 ADD MLOAD DUP2 DUP5 ADD MSTORE PUSH1 0x20 DUP2 ADD SWAP1 POP PUSH2 0x2C56 JUMP JUMPDEST PUSH1 0x0 DUP5 DUP5 ADD MSTORE POP POP POP POP JUMP JUMPDEST PUSH1 0x0 PUSH1 0x1F NOT PUSH1 0x1F DUP4 ADD AND SWAP1 POP SWAP2 SWAP1 POP JUMP JUMPDEST PUSH1 0x0 PUSH2 0x2C99 DUP3 PUSH2 0x2C37 JUMP JUMPDEST PUSH2 0x2CA3 DUP2 DUP6 PUSH2 0x2C42 JUMP JUMPDEST SWAP4 POP PUSH2 0x2CB3 DUP2 DUP6 PUSH1 0x20 DUP7 ADD PUSH2 0x2C53 JUMP JUMPDEST PUSH2 0x2CBC DUP2 PUSH2 0x2C7D JUMP JUMPDEST DUP5 ADD SWAP2 POP POP SWAP3 SWAP2 POP POP JUMP JUMPDEST PUSH1 0x0 PUSH1 0x20 DUP3 ADD SWAP1 POP DUP2 DUP2 SUB PUSH1 0x0 DUP4 ADD MSTORE PUSH2 0x2CE1 DUP2 DUP5 PUSH2 0x2C8E JUMP JUMPDEST SWAP1 POP SWAP3 SWAP2 POP POP JUMP JUMPDEST PUSH1 0x0 PUSH1 0x40 MLOAD SWAP1 POP SWAP1 JUMP JUMPDEST PUSH1 0x0 DUP1 REVERT JUMPDEST PUSH1 0x0 DUP1 REVERT JUMPDEST PUSH1 0x0 PUSH20 0xFFFFFFFFFFFFFFFFFFFFFFFFFFFFFFFFFFFFFFFF DUP3 AND SWAP1 POP SWAP2 SWAP1 POP JUMP JUMPDEST PUSH1 0x0 PUSH2 0x2D28 DUP3 PUSH2 0x2CFD JUMP JUMPDEST SWAP1 POP SWAP2 SWAP1 POP JUMP JUMPDEST PUSH2 0x2D38 DUP2 PUSH2 0x2D1D JUMP JUMPDEST DUP2 EQ PUSH2 0x2D43 JUMPI PUSH1 0x0 DUP1 REVERT JUMPDEST POP JUMP JUMPDEST PUSH1 0x0 DUP2 CALLDATALOAD SWAP1 POP PUSH2 0x2D55 DUP2 PUSH2 0x2D2F JUMP JUMPDEST SWAP3 SWAP2 POP POP JUMP JUMPDEST PUSH1 0x0 DUP2 SWAP1 POP SWAP2 SWAP1 POP JUMP JUMPDEST PUSH2 0x2D6E DUP2 PUSH2 0x2D5B JUMP JUMPDEST DUP2 EQ PUSH2 0x2D79 JUMPI PUSH1 0x0 DUP1 REVERT JUMPDEST POP JUMP JUMPDEST PUSH1 0x0 DUP2 CALLDATALOAD SWAP1 POP PUSH2 0x2D8B DUP2 PUSH2 0x2D65 JUMP JUMPDEST SWAP3 SWAP2 POP POP JUMP JUMPDEST PUSH1 0x0 DUP1 PUSH1 0x40 DUP4 DUP6 SUB SLT ISZERO PUSH2 0x2DA8 JUMPI PUSH2 0x2DA7 PUSH2 0x2CF3 JUMP JUMPDEST JUMPDEST PUSH1 0x0 PUSH2 0x2DB6 DUP6 DUP3 DUP7 ADD PUSH2 0x2D46 JUMP JUMPDEST SWAP3 POP POP PUSH1 0x20 PUSH2 0x2DC7 DUP6 DUP3 DUP7 ADD PUSH2 0x2D7C JUMP JUMPDEST SWAP2 POP POP SWAP3 POP SWAP3 SWAP1 POP JUMP JUMPDEST PUSH1 0x0 DUP2 ISZERO ISZERO SWAP1 POP SWAP2 SWAP1 POP JUMP JUMPDEST PUSH2 0x2DE6 DUP2 PUSH2 0x2DD1 JUMP JUMPDEST DUP3 MSTORE POP POP JUMP JUMPDEST PUSH1 0x0 PUSH1 0x20 DUP3 ADD SWAP1 POP PUSH2 0x2E01 PUSH1 0x0 DUP4 ADD DUP5 PUSH2 0x2DDD JUMP JUMPDEST SWAP3 SWAP2 POP POP JUMP JUMPDEST PUSH2 0x2E10 DUP2 PUSH2 0x2D5B JUMP JUMPDEST DUP3 MSTORE POP POP JUMP JUMPDEST PUSH1 0x0 PUSH1 0x20 DUP3 ADD SWAP1 POP PUSH2 0x2E2B PUSH1 0x0 DUP4 ADD DUP5 PUSH2 0x2E07 JUMP JUMPDEST SWAP3 SWAP2 POP POP JUMP JUMPDEST PUSH1 0x0 PUSH1 0x20 DUP3 DUP5 SUB SLT ISZERO PUSH2 0x2E47 JUMPI PUSH2 0x2E46 PUSH2 0x2CF3 JUMP JUMPDEST JUMPDEST PUSH1 0x0 PUSH2 0x2E55 DUP5 DUP3 DUP6 ADD PUSH2 0x2D46 JUMP JUMPDEST SWAP2 POP POP SWAP3 SWAP2 POP POP JUMP JUMPDEST PUSH1 0x0 DUP2 MLOAD SWAP1 POP SWAP2 SWAP1 POP JUMP JUMPDEST PUSH1 0x0 DUP3 DUP3 MSTORE PUSH1 0x20 DUP3 ADD SWAP1 POP SWAP3 SWAP2 POP POP JUMP JUMPDEST PUSH1 0x0 DUP2 SWAP1 POP PUSH1 0x20 DUP3 ADD SWAP1 POP SWAP2 SWAP1 POP JUMP JUMPDEST PUSH1 0x0 DUP3 DUP3 MSTORE PUSH1 0x20 DUP3 ADD SWAP1 POP SWAP3 SWAP2 POP POP JUMP JUMPDEST PUSH1 0x0 PUSH2 0x2EA6 DUP3 PUSH2 0x2C37 JUMP JUMPDEST PUSH2 0x2EB0 DUP2 DUP6 PUSH2 0x2E8A JUMP JUMPDEST SWAP4 POP PUSH2 0x2EC0 DUP2 DUP6 PUSH1 0x20 DUP7 ADD PUSH2 0x2C53 JUMP JUMPDEST PUSH2 0x2EC9 DUP2 PUSH2 0x2C7D JUMP JUMPDEST DUP5 ADD SWAP2 POP POP SWAP3 SWAP2 POP POP JUMP JUMPDEST PUSH1 0x0 PUSH2 0x2EE0 DUP4 DUP4 PUSH2 0x2E9B JUMP JUMPDEST SWAP1 POP SWAP3 SWAP2 POP POP JUMP JUMPDEST PUSH1 0x0 PUSH1 0x20 DUP3 ADD SWAP1 POP SWAP2 SWAP1 POP JUMP JUMPDEST PUSH1 0x0 PUSH2 0x2F00 DUP3 PUSH2 0x2E5E JUMP JUMPDEST PUSH2 0x2F0A DUP2 DUP6 PUSH2 0x2E69 JUMP JUMPDEST SWAP4 POP DUP4 PUSH1 0x20 DUP3 MUL DUP6 ADD PUSH2 0x2F1C DUP6 PUSH2 0x2E7A JUMP JUMPDEST DUP1 PUSH1 0x0 JUMPDEST DUP6 DUP2 LT ISZERO PUSH2 0x2F58 JUMPI DUP5 DUP5 SUB DUP10 MSTORE DUP2 MLOAD PUSH2 0x2F39 DUP6 DUP3 PUSH2 0x2ED4 JUMP JUMPDEST SWAP5 POP PUSH2 0x2F44 DUP4 PUSH2 0x2EE8 JUMP JUMPDEST SWAP3 POP PUSH1 0x20 DUP11 ADD SWAP10 POP POP PUSH1 0x1 DUP2 ADD SWAP1 POP PUSH2 0x2F20 JUMP JUMPDEST POP DUP3 SWAP8 POP DUP8 SWAP6 POP POP POP POP POP POP SWAP3 SWAP2 POP POP JUMP JUMPDEST PUSH1 0x0 PUSH1 0x20 DUP3 ADD SWAP1 POP DUP2 DUP2 SUB PUSH1 0x0 DUP4 ADD MSTORE PUSH2 0x2F84 DUP2 DUP5 PUSH2 0x2EF5 JUMP JUMPDEST SWAP1 POP SWAP3 SWAP2 POP POP JUMP JUMPDEST PUSH1 0x0 DUP1 REVERT JUMPDEST PUSH1 0x0 DUP1 REVERT JUMPDEST PUSH32 0x4E487B7100000000000000000000000000000000000000000000000000000000 PUSH1 0x0 MSTORE PUSH1 0x41 PUSH1 0x4 MSTORE PUSH1 0x24 PUSH1 0x0 REVERT JUMPDEST PUSH2 0x2FCE DUP3 PUSH2 0x2C7D JUMP JUMPDEST DUP2 ADD DUP2 DUP2 LT PUSH8 0xFFFFFFFFFFFFFFFF DUP3 GT OR ISZERO PUSH2 0x2FED JUMPI PUSH2 0x2FEC PUSH2 0x2F96 JUMP JUMPDEST JUMPDEST DUP1 PUSH1 0x40 MSTORE POP POP POP JUMP JUMPDEST PUSH1 0x0 PUSH2 0x3000 PUSH2 0x2CE9 JUMP JUMPDEST SWAP1 POP PUSH2 0x300C DUP3 DUP3 PUSH2 0x2FC5 JUMP JUMPDEST SWAP2 SWAP1 POP JUMP JUMPDEST PUSH1 0x0 PUSH8 0xFFFFFFFFFFFFFFFF DUP3 GT ISZERO PUSH2 0x302C JUMPI PUSH2 0x302B PUSH2 0x2F96 JUMP JUMPDEST JUMPDEST PUSH2 0x3035 DUP3 PUSH2 0x2C7D JUMP JUMPDEST SWAP1 POP PUSH1 0x20 DUP2 ADD SWAP1 POP SWAP2 SWAP1 POP JUMP JUMPDEST DUP3 DUP2 DUP4 CALLDATACOPY PUSH1 0x0 DUP4 DUP4 ADD MSTORE POP POP POP JUMP JUMPDEST PUSH1 0x0 PUSH2 0x3064 PUSH2 0x305F DUP5 PUSH2 0x3011 JUMP JUMPDEST PUSH2 0x2FF6 JUMP JUMPDEST SWAP1 POP DUP3 DUP2 MSTORE PUSH1 0x20 DUP2 ADD DUP5 DUP5 DUP5 ADD GT ISZERO PUSH2 0x3080 JUMPI PUSH2 0x307F PUSH2 0x2F91 JUMP JUMPDEST JUMPDEST PUSH2 0x308B DUP5 DUP3 DUP6 PUSH2 0x3042 JUMP JUMPDEST POP SWAP4 SWAP3 POP POP POP JUMP JUMPDEST PUSH1 0x0 DUP3 PUSH1 0x1F DUP4 ADD SLT PUSH2 0x30A8 JUMPI PUSH2 0x30A7 PUSH2 0x2F8C JUMP JUMPDEST JUMPDEST DUP2 CALLDATALOAD PUSH2 0x30B8 DUP5 DUP3 PUSH1 0x20 DUP7 ADD PUSH2 0x3051 JUMP JUMPDEST SWAP2 POP POP SWAP3 SWAP2 POP POP JUMP JUMPDEST PUSH1 0x0 PUSH1 0x20 DUP3 DUP5 SUB SLT ISZERO PUSH2 0x30D7 JUMPI PUSH2 0x30D6 PUSH2 0x2CF3 JUMP JUMPDEST JUMPDEST PUSH1 0x0 DUP3 ADD CALLDATALOAD PUSH8 0xFFFFFFFFFFFFFFFF DUP2 GT ISZERO PUSH2 0x30F5 JUMPI PUSH2 0x30F4 PUSH2 0x2CF8 JUMP JUMPDEST JUMPDEST PUSH2 0x3101 DUP5 DUP3 DUP6 ADD PUSH2 0x3093 JUMP JUMPDEST SWAP2 POP POP SWAP3 SWAP2 POP POP JUMP JUMPDEST PUSH1 0x0 PUSH1 0xFF DUP3 AND SWAP1 POP SWAP2 SWAP1 POP JUMP JUMPDEST PUSH2 0x3120 DUP2 PUSH2 0x310A JUMP JUMPDEST DUP3 MSTORE POP POP JUMP JUMPDEST PUSH1 0x0 PUSH1 0x20 DUP3 ADD SWAP1 POP PUSH2 0x313B PUSH1 0x0 DUP4 ADD DUP5 PUSH2 0x3117 JUMP JUMPDEST SWAP3 SWAP2 POP POP JUMP JUMPDEST PUSH1 0x0 PUSH4 0xFFFFFFFF DUP3 AND SWAP1 POP SWAP2 SWAP1 POP JUMP JUMPDEST PUSH2 0x315A DUP2 PUSH2 0x3141 JUMP JUMPDEST DUP2 EQ PUSH2 0x3165 JUMPI PUSH1 0x0 DUP1 REVERT JUMPDEST POP JUMP JUMPDEST PUSH1 0x0 DUP2 CALLDATALOAD SWAP1 POP PUSH2 0x3177 DUP2 PUSH2 0x3151 JUMP JUMPDEST SWAP3 SWAP2 POP POP JUMP JUMPDEST PUSH1 0x0 DUP1 PUSH1 0x0 DUP1 PUSH1 0x0 PUSH1 0xA0 DUP7 DUP9 SUB SLT ISZERO PUSH2 0x3199 JUMPI PUSH2 0x3198 PUSH2 0x2CF3 JUMP JUMPDEST JUMPDEST PUSH1 0x0 DUP7 ADD CALLDATALOAD PUSH8 0xFFFFFFFFFFFFFFFF DUP2 GT ISZERO PUSH2 0x31B7 JUMPI PUSH2 0x31B6 PUSH2 0x2CF8 JUMP JUMPDEST JUMPDEST PUSH2 0x31C3 DUP9 DUP3 DUP10 ADD PUSH2 0x3093 JUMP JUMPDEST SWAP6 POP POP PUSH1 0x20 PUSH2 0x31D4 DUP9 DUP3 DUP10 ADD PUSH2 0x3168 JUMP JUMPDEST SWAP5 POP POP PUSH1 0x40 DUP7 ADD CALLDATALOAD PUSH8 0xFFFFFFFFFFFFFFFF DUP2 GT ISZERO PUSH2 0x31F5 JUMPI PUSH2 0x31F4 PUSH2 0x2CF8 JUMP JUMPDEST JUMPDEST PUSH2 0x3201 DUP9 DUP3 DUP10 ADD PUSH2 0x3093 JUMP JUMPDEST SWAP4 POP POP PUSH1 0x60 PUSH2 0x3212 DUP9 DUP3 DUP10 ADD PUSH2 0x2D7C JUMP JUMPDEST SWAP3 POP POP PUSH1 0x80 PUSH2 0x3223 DUP9 DUP3 DUP10 ADD PUSH2 0x2D46 JUMP JUMPDEST SWAP2 POP POP SWAP3 SWAP6 POP SWAP3 SWAP6 SWAP1 SWAP4 POP JUMP JUMPDEST PUSH2 0x3239 DUP2 PUSH2 0x310A JUMP JUMPDEST DUP2 EQ PUSH2 0x3244 JUMPI PUSH1 0x0 DUP1 REVERT JUMPDEST POP JUMP JUMPDEST PUSH1 0x0 DUP2 CALLDATALOAD SWAP1 POP PUSH2 0x3256 DUP2 PUSH2 0x3230 JUMP JUMPDEST SWAP3 SWAP2 POP POP JUMP JUMPDEST PUSH1 0x0 PUSH1 0x20 DUP3 DUP5 SUB SLT ISZERO PUSH2 0x3272 JUMPI PUSH2 0x3271 PUSH2 0x2CF3 JUMP JUMPDEST JUMPDEST PUSH1 0x0 PUSH2 0x3280 DUP5 DUP3 DUP6 ADD PUSH2 0x3247 JUMP JUMPDEST SWAP2 POP POP SWAP3 SWAP2 POP POP JUMP JUMPDEST PUSH1 0x0 PUSH1 0x40 DUP3 ADD SWAP1 POP PUSH2 0x329E PUSH1 0x0 DUP4 ADD DUP6 PUSH2 0x2DDD JUMP JUMPDEST PUSH2 0x32AB PUSH1 0x20 DUP4 ADD DUP5 PUSH2 0x2DDD JUMP JUMPDEST SWAP4 SWAP3 POP POP POP JUMP JUMPDEST PUSH2 0x32BB DUP2 PUSH2 0x2D5B JUMP JUMPDEST DUP3 MSTORE POP POP JUMP JUMPDEST PUSH2 0x32CA DUP2 PUSH2 0x3141 JUMP JUMPDEST DUP3 MSTORE POP POP JUMP JUMPDEST PUSH2 0x32D9 DUP2 PUSH2 0x2DD1 JUMP JUMPDEST DUP3 MSTORE POP POP JUMP JUMPDEST PUSH2 0x32E8 DUP2 PUSH2 0x2D1D JUMP JUMPDEST DUP3 MSTORE POP POP JUMP JUMPDEST PUSH1 0x0 PUSH2 0x140 DUP4 ADD PUSH1 0x0 DUP4 ADD MLOAD DUP5 DUP3 SUB PUSH1 0x0 DUP7 ADD MSTORE PUSH2 0x330C DUP3 DUP3 PUSH2 0x2E9B JUMP JUMPDEST SWAP2 POP POP PUSH1 0x20 DUP4 ADD MLOAD PUSH2 0x3321 PUSH1 0x20 DUP7 ADD DUP3 PUSH2 0x32B2 JUMP JUMPDEST POP PUSH1 0x40 DUP4 ADD MLOAD PUSH2 0x3334 PUSH1 0x40 DUP7 ADD DUP3 PUSH2 0x32B2 JUMP JUMPDEST POP PUSH1 0x60 DUP4 ADD MLOAD PUSH2 0x3347 PUSH1 0x60 DUP7 ADD DUP3 PUSH2 0x32B2 JUMP JUMPDEST POP PUSH1 0x80 DUP4 ADD MLOAD PUSH2 0x335A PUSH1 0x80 DUP7 ADD DUP3 PUSH2 0x32C1 JUMP JUMPDEST POP PUSH1 0xA0 DUP4 ADD MLOAD PUSH2 0x336D PUSH1 0xA0 DUP7 ADD DUP3 PUSH2 0x32B2 JUMP JUMPDEST POP PUSH1 0xC0 DUP4 ADD MLOAD PUSH2 0x3380 PUSH1 0xC0 DUP7 ADD DUP3 PUSH2 0x32D0 JUMP JUMPDEST POP PUSH1 0xE0 DUP4 ADD MLOAD PUSH2 0x3393 PUSH1 0xE0 DUP7 ADD DUP3 PUSH2 0x32D0 JUMP JUMPDEST POP PUSH2 0x100 DUP4 ADD MLOAD PUSH2 0x33A8 PUSH2 0x100 DUP7 ADD DUP3 PUSH2 0x32DF JUMP JUMPDEST POP PUSH2 0x120 DUP4 ADD MLOAD PUSH2 0x33BD PUSH2 0x120 DUP7 ADD DUP3 PUSH2 0x32DF JUMP JUMPDEST POP DUP1 SWAP2 POP POP SWAP3 SWAP2 POP POP JUMP JUMPDEST PUSH1 0x0 PUSH1 0x20 DUP3 ADD SWAP1 POP DUP2 DUP2 SUB PUSH1 0x0 DUP4 ADD MSTORE PUSH2 0x33E2 DUP2 DUP5 PUSH2 0x32EE JUMP JUMPDEST SWAP1 POP SWAP3 SWAP2 POP POP JUMP JUMPDEST PUSH1 0x0 DUP1 PUSH1 0x40 DUP4 DUP6 SUB SLT ISZERO PUSH2 0x3401 JUMPI PUSH2 0x3400 PUSH2 0x2CF3 JUMP JUMPDEST JUMPDEST PUSH1 0x0 DUP4 ADD CALLDATALOAD PUSH8 0xFFFFFFFFFFFFFFFF DUP2 GT ISZERO PUSH2 0x341F JUMPI PUSH2 0x341E PUSH2 0x2CF8 JUMP JUMPDEST JUMPDEST PUSH2 0x342B DUP6 DUP3 DUP7 ADD PUSH2 0x3093 JUMP JUMPDEST SWAP3 POP POP PUSH1 0x20 PUSH2 0x343C DUP6 DUP3 DUP7 ADD PUSH2 0x2D46 JUMP JUMPDEST SWAP2 POP POP SWAP3 POP SWAP3 SWAP1 POP JUMP JUMPDEST PUSH2 0x344F DUP2 PUSH2 0x2D1D JUMP JUMPDEST DUP3 MSTORE POP POP JUMP JUMPDEST PUSH1 0x0 PUSH1 0x40 DUP3 ADD SWAP1 POP PUSH2 0x346A PUSH1 0x0 DUP4 ADD DUP6 PUSH2 0x3446 JUMP JUMPDEST PUSH2 0x3477 PUSH1 0x20 DUP4 ADD DUP5 PUSH2 0x3117 JUMP JUMPDEST SWAP4 SWAP3 POP POP POP JUMP JUMPDEST PUSH1 0x0 DUP1 PUSH1 0x40 DUP4 DUP6 SUB SLT ISZERO PUSH2 0x3495 JUMPI PUSH2 0x3494 PUSH2 0x2CF3 JUMP JUMPDEST JUMPDEST PUSH1 0x0 PUSH2 0x34A3 DUP6 DUP3 DUP7 ADD PUSH2 0x2D46 JUMP JUMPDEST SWAP3 POP POP PUSH1 0x20 PUSH2 0x34B4 DUP6 DUP3 DUP7 ADD PUSH2 0x2D46 JUMP JUMPDEST SWAP2 POP POP SWAP3 POP SWAP3 SWAP1 POP JUMP JUMPDEST PUSH32 0x4E487B7100000000000000000000000000000000000000000000000000000000 PUSH1 0x0 MSTORE PUSH1 0x22 PUSH1 0x4 MSTORE PUSH1 0x24 PUSH1 0x0 REVERT JUMPDEST PUSH1 0x0 PUSH1 0x2 DUP3 DIV SWAP1 POP PUSH1 0x1 DUP3 AND DUP1 PUSH2 0x3505 JUMPI PUSH1 0x7F DUP3 AND SWAP2 POP JUMPDEST PUSH1 0x20 DUP3 LT DUP2 SUB PUSH2 0x3518 JUMPI PUSH2 0x3517 PUSH2 0x34BE JUMP JUMPDEST JUMPDEST POP SWAP2 SWAP1 POP JUMP JUMPDEST PUSH1 0x0 DUP2 SWAP1 POP SWAP3 SWAP2 POP POP JUMP JUMPDEST PUSH1 0x0 PUSH2 0x3534 DUP3 PUSH2 0x2C37 JUMP JUMPDEST PUSH2 0x353E DUP2 DUP6 PUSH2 0x351E JUMP JUMPDEST SWAP4 POP PUSH2 0x354E DUP2 DUP6 PUSH1 0x20 DUP7 ADD PUSH2 0x2C53 JUMP JUMPDEST DUP1 DUP5 ADD SWAP2 POP POP SWAP3 SWAP2 POP POP JUMP JUMPDEST PUSH1 0x0 PUSH2 0x3566 DUP3 DUP5 PUSH2 0x3529 JUMP JUMPDEST SWAP2 POP DUP2 SWAP1 POP SWAP3 SWAP2 POP POP JUMP JUMPDEST PUSH32 0x546865206F7264657220686173206265656E2077697468647261776E00000000 PUSH1 0x0 DUP3 ADD MSTORE POP JUMP JUMPDEST PUSH1 0x0 PUSH2 0x35A7 PUSH1 0x1C DUP4 PUSH2 0x2C42 JUMP JUMPDEST SWAP2 POP PUSH2 0x35B2 DUP3 PUSH2 0x3571 JUMP JUMPDEST PUSH1 0x20 DUP3 ADD SWAP1 POP SWAP2 SWAP1 POP JUMP JUMPDEST PUSH1 0x0 PUSH1 0x20 DUP3 ADD SWAP1 POP DUP2 DUP2 SUB PUSH1 0x0 DUP4 ADD MSTORE PUSH2 0x35D6 DUP2 PUSH2 0x359A JUMP JUMPDEST SWAP1 POP SWAP2 SWAP1 POP JUMP JUMPDEST PUSH32 0x506C6561736520636F6E6669726D207468652077616C6C657420616464726573 PUSH1 0x0 DUP3 ADD MSTORE PUSH32 0x732C2043616E206E6F7420776974686472617700000000000000000000000000 PUSH1 0x20 DUP3 ADD MSTORE POP JUMP JUMPDEST PUSH1 0x0 PUSH2 0x3639 PUSH1 0x33 DUP4 PUSH2 0x2C42 JUMP JUMPDEST SWAP2 POP PUSH2 0x3644 DUP3 PUSH2 0x35DD JUMP JUMPDEST PUSH1 0x40 DUP3 ADD SWAP1 POP SWAP2 SWAP1 POP JUMP JUMPDEST PUSH1 0x0 PUSH1 0x20 DUP3 ADD SWAP1 POP DUP2 DUP2 SUB PUSH1 0x0 DUP4 ADD MSTORE PUSH2 0x3668 DUP2 PUSH2 0x362C JUMP JUMPDEST SWAP1 POP SWAP2 SWAP1 POP JUMP JUMPDEST PUSH32 0x4E487B7100000000000000000000000000000000000000000000000000000000 PUSH1 0x0 MSTORE PUSH1 0x11 PUSH1 0x4 MSTORE PUSH1 0x24 PUSH1 0x0 REVERT JUMPDEST PUSH1 0x0 PUSH2 0x36A9 DUP3 PUSH2 0x2D5B JUMP JUMPDEST SWAP2 POP PUSH2 0x36B4 DUP4 PUSH2 0x2D5B JUMP JUMPDEST SWAP3 POP DUP3 DUP3 SUB SWAP1 POP DUP2 DUP2 GT ISZERO PUSH2 0x36CC JUMPI PUSH2 0x36CB PUSH2 0x366F JUMP JUMPDEST JUMPDEST SWAP3 SWAP2 POP POP JUMP JUMPDEST PUSH32 0x4E487B7100000000000000000000000000000000000000000000000000000000 PUSH1 0x0 MSTORE PUSH1 0x12 PUSH1 0x4 MSTORE PUSH1 0x24 PUSH1 0x0 REVERT JUMPDEST PUSH1 0x0 PUSH2 0x370C DUP3 PUSH2 0x2D5B JUMP JUMPDEST SWAP2 POP PUSH2 0x3717 DUP4 PUSH2 0x2D5B JUMP JUMPDEST SWAP3 POP DUP3 PUSH2 0x3727 JUMPI PUSH2 0x3726 PUSH2 0x36D2 JUMP JUMPDEST JUMPDEST DUP3 DUP3 DIV SWAP1 POP SWAP3 SWAP2 POP POP JUMP JUMPDEST PUSH1 0x0 PUSH2 0x373D DUP3 PUSH2 0x2D5B JUMP JUMPDEST SWAP2 POP PUSH2 0x3748 DUP4 PUSH2 0x2D5B JUMP JUMPDEST SWAP3 POP DUP3 DUP3 MUL PUSH2 0x3756 DUP2 PUSH2 0x2D5B JUMP JUMPDEST SWAP2 POP DUP3 DUP3 DIV DUP5 EQ DUP4 ISZERO OR PUSH2 0x376D JUMPI PUSH2 0x376C PUSH2 0x366F JUMP JUMPDEST JUMPDEST POP SWAP3 SWAP2 POP POP JUMP JUMPDEST PUSH1 0x0 PUSH2 0x377F DUP3 PUSH2 0x2D5B JUMP JUMPDEST SWAP2 POP PUSH2 0x378A DUP4 PUSH2 0x2D5B JUMP JUMPDEST SWAP3 POP DUP3 DUP3 ADD SWAP1 POP DUP1 DUP3 GT ISZERO PUSH2 0x37A2 JUMPI PUSH2 0x37A1 PUSH2 0x366F JUMP JUMPDEST JUMPDEST SWAP3 SWAP2 POP POP JUMP JUMPDEST PUSH32 0x4E6F74206465706F736974730000000000000000000000000000000000000000 PUSH1 0x0 DUP3 ADD MSTORE POP JUMP JUMPDEST PUSH1 0x0 PUSH2 0x37DE PUSH1 0xC DUP4 PUSH2 0x2C42 JUMP JUMPDEST SWAP2 POP PUSH2 0x37E9 DUP3 PUSH2 0x37A8 JUMP JUMPDEST PUSH1 0x20 DUP3 ADD SWAP1 POP SWAP2 SWAP1 POP JUMP JUMPDEST PUSH1 0x0 PUSH1 0x20 DUP3 ADD SWAP1 POP DUP2 DUP2 SUB PUSH1 0x0 DUP4 ADD MSTORE PUSH2 0x380D DUP2 PUSH2 0x37D1 JUMP JUMPDEST SWAP1 POP SWAP2 SWAP1 POP JUMP JUMPDEST PUSH32 0x4E487B7100000000000000000000000000000000000000000000000000000000 PUSH1 0x0 MSTORE PUSH1 0x32 PUSH1 0x4 MSTORE PUSH1 0x24 PUSH1 0x0 REVERT JUMPDEST PUSH1 0x0 PUSH2 0x384E DUP3 PUSH2 0x2D5B JUMP JUMPDEST SWAP2 POP PUSH32 0xFFFFFFFFFFFFFFFFFFFFFFFFFFFFFFFFFFFFFFFFFFFFFFFFFFFFFFFFFFFFFFFF DUP3 SUB PUSH2 0x3880 JUMPI PUSH2 0x387F PUSH2 0x366F JUMP JUMPDEST JUMPDEST PUSH1 0x1 DUP3 ADD SWAP1 POP SWAP2 SWAP1 POP JUMP JUMPDEST PUSH32 0x416C726561647920706169640000000000000000000000000000000000000000 PUSH1 0x0 DUP3 ADD MSTORE POP JUMP JUMPDEST PUSH1 0x0 PUSH2 0x38C1 PUSH1 0xC DUP4 PUSH2 0x2C42 JUMP JUMPDEST SWAP2 POP PUSH2 0x38CC DUP3 PUSH2 0x388B JUMP JUMPDEST PUSH1 0x20 DUP3 ADD SWAP1 POP SWAP2 SWAP1 POP JUMP JUMPDEST PUSH1 0x0 PUSH1 0x20 DUP3 ADD SWAP1 POP DUP2 DUP2 SUB PUSH1 0x0 DUP4 ADD MSTORE PUSH2 0x38F0 DUP2 PUSH2 0x38B4 JUMP JUMPDEST SWAP1 POP SWAP2 SWAP1 POP JUMP JUMPDEST PUSH32 0x4E6F7420656E6F75676820435344000000000000000000000000000000000000 PUSH1 0x0 DUP3 ADD MSTORE POP JUMP JUMPDEST PUSH1 0x0 PUSH2 0x392D PUSH1 0xE DUP4 PUSH2 0x2C42 JUMP JUMPDEST SWAP2 POP PUSH2 0x3938 DUP3 PUSH2 0x38F7 JUMP JUMPDEST PUSH1 0x20 DUP3 ADD SWAP1 POP SWAP2 SWAP1 POP JUMP JUMPDEST PUSH1 0x0 PUSH1 0x20 DUP3 ADD SWAP1 POP DUP2 DUP2 SUB PUSH1 0x0 DUP4 ADD MSTORE PUSH2 0x395C DUP2 PUSH2 0x3920 JUMP JUMPDEST SWAP1 POP SWAP2 SWAP1 POP JUMP JUMPDEST PUSH1 0x0 PUSH2 0x396E DUP3 PUSH2 0x3141 JUMP JUMPDEST SWAP2 POP PUSH2 0x3979 DUP4 PUSH2 0x3141 JUMP JUMPDEST SWAP3 POP DUP3 DUP3 MUL PUSH2 0x3987 DUP2 PUSH2 0x3141 JUMP JUMPDEST SWAP2 POP DUP1 DUP3 EQ PUSH2 0x3999 JUMPI PUSH2 0x3998 PUSH2 0x366F JUMP JUMPDEST JUMPDEST POP SWAP3 SWAP2 POP POP JUMP JUMPDEST PUSH1 0x0 DUP2 SWAP1 POP DUP2 PUSH1 0x0 MSTORE PUSH1 0x20 PUSH1 0x0 KECCAK256 SWAP1 POP SWAP2 SWAP1 POP JUMP JUMPDEST PUSH1 0x0 PUSH1 0x20 PUSH1 0x1F DUP4 ADD DIV SWAP1 POP SWAP2 SWAP1 POP JUMP JUMPDEST PUSH1 0x0 DUP3 DUP3 SHL SWAP1 POP SWAP3 SWAP2 POP POP JUMP JUMPDEST PUSH1 0x0 PUSH1 0x8 DUP4 MUL PUSH2 0x3A02 PUSH32 0xFFFFFFFFFFFFFFFFFFFFFFFFFFFFFFFFFFFFFFFFFFFFFFFFFFFFFFFFFFFFFFFF DUP3 PUSH2 0x39C5 JUMP JUMPDEST PUSH2 0x3A0C DUP7 DUP4 PUSH2 0x39C5 JUMP JUMPDEST SWAP6 POP DUP1 NOT DUP5 AND SWAP4 POP DUP1 DUP7 AND DUP5 OR SWAP3 POP POP POP SWAP4 SWAP3 POP POP POP JUMP JUMPDEST PUSH1 0x0 DUP2 SWAP1 POP SWAP2 SWAP1 POP JUMP JUMPDEST PUSH1 0x0 PUSH2 0x3A49 PUSH2 0x3A44 PUSH2 0x3A3F DUP5 PUSH2 0x2D5B JUMP JUMPDEST PUSH2 0x3A24 JUMP JUMPDEST PUSH2 0x2D5B JUMP JUMPDEST SWAP1 POP SWAP2 SWAP1 POP JUMP JUMPDEST PUSH1 0x0 DUP2 SWAP1 POP SWAP2 SWAP1 POP JUMP JUMPDEST PUSH2 0x3A63 DUP4 PUSH2 0x3A2E JUMP JUMPDEST PUSH2 0x3A77 PUSH2 0x3A6F DUP3 PUSH2 0x3A50 JUMP JUMPDEST DUP5 DUP5 SLOAD PUSH2 0x39D2 JUMP JUMPDEST DUP3 SSTORE POP POP POP POP JUMP JUMPDEST PUSH1 0x0 SWAP1 JUMP JUMPDEST PUSH2 0x3A8C PUSH2 0x3A7F JUMP JUMPDEST PUSH2 0x3A97 DUP2 DUP5 DUP5 PUSH2 0x3A5A JUMP JUMPDEST POP POP POP JUMP JUMPDEST JUMPDEST DUP2 DUP2 LT ISZERO PUSH2 0x3ABB JUMPI PUSH2 0x3AB0 PUSH1 0x0 DUP3 PUSH2 0x3A84 JUMP JUMPDEST PUSH1 0x1 DUP2 ADD SWAP1 POP PUSH2 0x3A9D JUMP JUMPDEST POP POP JUMP JUMPDEST PUSH1 0x1F DUP3 GT ISZERO PUSH2 0x3B00 JUMPI PUSH2 0x3AD1 DUP2 PUSH2 0x39A0 JUMP JUMPDEST PUSH2 0x3ADA DUP5 PUSH2 0x39B5 JUMP JUMPDEST DUP2 ADD PUSH1 0x20 DUP6 LT ISZERO PUSH2 0x3AE9 JUMPI DUP2 SWAP1 POP JUMPDEST PUSH2 0x3AFD PUSH2 0x3AF5 DUP6 PUSH2 0x39B5 JUMP JUMPDEST DUP4 ADD DUP3 PUSH2 0x3A9C JUMP JUMPDEST POP POP JUMPDEST POP POP POP JUMP JUMPDEST PUSH1 0x0 DUP3 DUP3 SHR SWAP1 POP SWAP3 SWAP2 POP POP JUMP JUMPDEST PUSH1 0x0 PUSH2 0x3B23 PUSH1 0x0 NOT DUP5 PUSH1 0x8 MUL PUSH2 0x3B05 JUMP JUMPDEST NOT DUP1 DUP4 AND SWAP2 POP POP SWAP3 SWAP2 POP POP JUMP JUMPDEST PUSH1 0x0 PUSH2 0x3B3C DUP4 DUP4 PUSH2 0x3B12 JUMP JUMPDEST SWAP2 POP DUP3 PUSH1 0x2 MUL DUP3 OR SWAP1 POP SWAP3 SWAP2 POP POP JUMP JUMPDEST PUSH2 0x3B55 DUP3 PUSH2 0x2C37 JUMP JUMPDEST PUSH8 0xFFFFFFFFFFFFFFFF DUP2 GT ISZERO PUSH2 0x3B6E JUMPI PUSH2 0x3B6D PUSH2 0x2F96 JUMP JUMPDEST JUMPDEST PUSH2 0x3B78 DUP3 SLOAD PUSH2 0x34ED JUMP JUMPDEST PUSH2 0x3B83 DUP3 DUP3 DUP6 PUSH2 0x3ABF JUMP JUMPDEST PUSH1 0x0 PUSH1 0x20 SWAP1 POP PUSH1 0x1F DUP4 GT PUSH1 0x1 DUP2 EQ PUSH2 0x3BB6 JUMPI PUSH1 0x0 DUP5 ISZERO PUSH2 0x3BA4 JUMPI DUP3 DUP8 ADD MLOAD SWAP1 POP JUMPDEST PUSH2 0x3BAE DUP6 DUP3 PUSH2 0x3B30 JUMP JUMPDEST DUP7 SSTORE POP PUSH2 0x3C16 JUMP JUMPDEST PUSH1 0x1F NOT DUP5 AND PUSH2 0x3BC4 DUP7 PUSH2 0x39A0 JUMP JUMPDEST PUSH1 0x0 JUMPDEST DUP3 DUP2 LT ISZERO PUSH2 0x3BEC JUMPI DUP5 DUP10 ADD MLOAD DUP3 SSTORE PUSH1 0x1 DUP3 ADD SWAP2 POP PUSH1 0x20 DUP6 ADD SWAP5 POP PUSH1 0x20 DUP2 ADD SWAP1 POP PUSH2 0x3BC7 JUMP JUMPDEST DUP7 DUP4 LT ISZERO PUSH2 0x3C09 JUMPI DUP5 DUP10 ADD MLOAD PUSH2 0x3C05 PUSH1 0x1F DUP10 AND DUP3 PUSH2 0x3B12 JUMP JUMPDEST DUP4 SSTORE POP JUMPDEST PUSH1 0x1 PUSH1 0x2 DUP9 MUL ADD DUP9 SSTORE POP POP POP JUMPDEST POP POP POP POP POP POP JUMP JUMPDEST PUSH32 0x416C7265616479207374616B6564000000000000000000000000000000000000 PUSH1 0x0 DUP3 ADD MSTORE POP JUMP JUMPDEST PUSH1 0x0 PUSH2 0x3C54 PUSH1 0xE DUP4 PUSH2 0x2C42 JUMP JUMPDEST SWAP2 POP PUSH2 0x3C5F DUP3 PUSH2 0x3C1E JUMP JUMPDEST PUSH1 0x20 DUP3 ADD SWAP1 POP SWAP2 SWAP1 POP JUMP JUMPDEST PUSH1 0x0 PUSH1 0x20 DUP3 ADD SWAP1 POP DUP2 DUP2 SUB PUSH1 0x0 DUP4 ADD MSTORE PUSH2 0x3C83 DUP2 PUSH2 0x3C47 JUMP JUMPDEST SWAP1 POP SWAP2 SWAP1 POP JUMP JUMPDEST PUSH32 0x4E6F7420656E6F75676820746F6B656E73000000000000000000000000000000 PUSH1 0x0 DUP3 ADD MSTORE POP JUMP JUMPDEST PUSH1 0x0 PUSH2 0x3CC0 PUSH1 0x11 DUP4 PUSH2 0x2C42 JUMP JUMPDEST SWAP2 POP PUSH2 0x3CCB DUP3 PUSH2 0x3C8A JUMP JUMPDEST PUSH1 0x20 DUP3 ADD SWAP1 POP SWAP2 SWAP1 POP JUMP JUMPDEST PUSH1 0x0 PUSH1 0x20 DUP3 ADD SWAP1 POP DUP2 DUP2 SUB PUSH1 0x0 DUP4 ADD MSTORE PUSH2 0x3CEF DUP2 PUSH2 0x3CB3 JUMP JUMPDEST SWAP1 POP SWAP2 SWAP1 POP JUMP JUMPDEST PUSH32 0x45524332303A207472616E736665722066726F6D20746865207A65726F206164 PUSH1 0x0 DUP3 ADD MSTORE PUSH32 0x6472657373000000000000000000000000000000000000000000000000000000 PUSH1 0x20 DUP3 ADD MSTORE POP JUMP JUMPDEST PUSH1 0x0 PUSH2 0x3D52 PUSH1 0x25 DUP4 PUSH2 0x2C42 JUMP JUMPDEST SWAP2 POP PUSH2 0x3D5D DUP3 PUSH2 0x3CF6 JUMP JUMPDEST PUSH1 0x40 DUP3 ADD SWAP1 POP SWAP2 SWAP1 POP JUMP JUMPDEST PUSH1 0x0 PUSH1 0x20 DUP3 ADD SWAP1 POP DUP2 DUP2 SUB PUSH1 0x0 DUP4 ADD MSTORE PUSH2 0x3D81 DUP2 PUSH2 0x3D45 JUMP JUMPDEST SWAP1 POP SWAP2 SWAP1 POP JUMP JUMPDEST PUSH32 0x45524332303A207472616E7366657220746F20746865207A65726F2061646472 PUSH1 0x0 DUP3 ADD MSTORE PUSH32 0x6573730000000000000000000000000000000000000000000000000000000000 PUSH1 0x20 DUP3 ADD MSTORE POP JUMP JUMPDEST PUSH1 0x0 PUSH2 0x3DE4 PUSH1 0x23 DUP4 PUSH2 0x2C42 JUMP JUMPDEST SWAP2 POP PUSH2 0x3DEF DUP3 PUSH2 0x3D88 JUMP JUMPDEST PUSH1 0x40 DUP3 ADD SWAP1 POP SWAP2 SWAP1 POP JUMP JUMPDEST PUSH1 0x0 PUSH1 0x20 DUP3 ADD SWAP1 POP DUP2 DUP2 SUB PUSH1 0x0 DUP4 ADD MSTORE PUSH2 0x3E13 DUP2 PUSH2 0x3DD7 JUMP JUMPDEST SWAP1 POP SWAP2 SWAP1 POP JUMP JUMPDEST PUSH32 0x45524332303A207472616E7366657220616D6F756E7420657863656564732062 PUSH1 0x0 DUP3 ADD MSTORE PUSH32 0x616C616E63650000000000000000000000000000000000000000000000000000 PUSH1 0x20 DUP3 ADD MSTORE POP JUMP JUMPDEST PUSH1 0x0 PUSH2 0x3E76 PUSH1 0x26 DUP4 PUSH2 0x2C42 JUMP JUMPDEST SWAP2 POP PUSH2 0x3E81 DUP3 PUSH2 0x3E1A JUMP JUMPDEST PUSH1 0x40 DUP3 ADD SWAP1 POP SWAP2 SWAP1 POP JUMP JUMPDEST PUSH1 0x0 PUSH1 0x20 DUP3 ADD SWAP1 POP DUP2 DUP2 SUB PUSH1 0x0 DUP4 ADD MSTORE PUSH2 0x3EA5 DUP2 PUSH2 0x3E69 JUMP JUMPDEST SWAP1 POP SWAP2 SWAP1 POP JUMP INVALID LOG2 PUSH5 0x6970667358 0x22 SLT KECCAK256 0xD4 0x4D GAS SUB GASPRICE SAR 0xCE DELEGATECALL OR DUP12 0xEF PUSH21 0x3ECB289CEB3C0F573F06E312C5CF0A4EB95B08F264 PUSH20 0x6F6C634300081100330000000000000000000000 "},"gasEstimates":{"creation":{"codeDepositCost":"3219600","executionCost":"infinite","totalCost":"infinite"},"external":{"_fullnodeDepositAmount()":"2496","_privoderDepositAmount()":"2562","allowance(address,address)":"infinite","approve(address,uint256)":"23169","balanceOf(address)":"2886","bindWallet(string)":"infinite","changeWallet(string,address)":"infinite","checkOrder(string)":"infinite","clientOrder(string,uint32,string,uint256,address)":"infinite","decimals()":"2517","getAllOrderTokens()":"infinite","getOrdersInfo(string)":"infinite","getPrivoderOrders(address)":"infinite","getUserInfo(string)":"infinite","getWallet(string)":"infinite","isDeposit(uint8)":"2947","name()":"infinite","stake(uint8)":"infinite","symbol()":"infinite","totalSupply()":"2497","transfer(address,uint256)":"infinite","unbindWallet(string)":"infinite","verifyWallet(string)":"infinite","withdraw(uint8)":"infinite","withdrawAllOrderTokens()":"infinite","withdrawOrderTokens(string)":"infinite"}},"methodIdentifiers":{"_fullnodeDepositAmount()":"a23c7c14","_privoderDepositAmount()":"c5bc91e8","allowance(address,address)":"dd62ed3e","approve(address,uint256)":"095ea7b3","balanceOf(address)":"70a08231","bindWallet(string)":"8ec012b9","changeWallet(string,address)":"87a858d2","checkOrder(string)":"dd6887ed","clientOrder(string,uint32,string,uint256,address)":"5c9abe11","decimals()":"313ce567","getAllOrderTokens()":"f3fbfc7b","getOrdersInfo(string)":"8291a021","getPrivoderOrders(address)":"183dd1cd","getUserInfo(string)":"7c9b7fdd","getWallet(string)":"a4e2df66","isDeposit(uint8)":"f276b8aa","name()":"06fdde03","stake(uint8)":"604f2177","symbol()":"95d89b41","totalSupply()":"18160ddd","transfer(address,uint256)":"a9059cbb","unbindWallet(string)":"d19e4856","verifyWallet(string)":"ffc2c9b7","withdraw(uint8)":"c6ab5d90","withdrawAllOrderTokens()":"27a0b34a","withdrawOrderTokens(string)":"25cfedb5"}},"storageLayout":{"storage":[{"astId":1062,"contract":"contracts/CloudSlitDao.sol:CloudSlitDao","label":"name","offset":0,"slot":"0","type":"t_string_storage"},{"astId":1065,"contract":"contracts/CloudSlitDao.sol:CloudSlitDao","label":"symbol","offset":0,"slot":"1","type":"t_string_storage"},{"astId":1067,"contract":"contracts/CloudSlitDao.sol:CloudSlitDao","label":"totalSupply","offset":0,"slot":"2","type":"t_uint256"},{"astId":1070,"contract":"contracts/CloudSlitDao.sol:CloudSlitDao","label":"decimals","offset":0,"slot":"3","type":"t_uint8"},{"astId":1074,"contract":"contracts/CloudSlitDao.sol:CloudSlitDao","label":"balances","offset":0,"slot":"4","type":"t_mapping(t_address,t_uint256)"},{"astId":1080,"contract":"contracts/CloudSlitDao.sol:CloudSlitDao","label":"allowances","offset":0,"slot":"5","type":"t_mapping(t_address,t_mapping(t_address,t_uint256))"},{"astId":35,"contract":"contracts/CloudSlitDao.sol:CloudSlitDao","label":"userWallets","offset":0,"slot":"6","type":"t_mapping(t_string_memory_ptr,t_struct(userWallet)9_storage)"},{"astId":37,"contract":"contracts/CloudSlitDao.sol:CloudSlitDao","label":"_fullnodeDepositAmount","offset":0,"slot":"7","type":"t_uint256"},{"astId":39,"contract":"contracts/CloudSlitDao.sol:CloudSlitDao","label":"_privoderDepositAmount","offset":0,"slot":"8","type":"t_uint256"},{"astId":41,"contract":"contracts/CloudSlitDao.sol:CloudSlitDao","label":"_durationUnit","offset":0,"slot":"9","type":"t_uint32"},{"astId":45,"contract":"contracts/CloudSlitDao.sol:CloudSlitDao","label":"_fullnodeDeposits","offset":0,"slot":"10","type":"t_mapping(t_address,t_uint256)"},{"astId":49,"contract":"contracts/CloudSlitDao.sol:CloudSlitDao","label":"_privoderDeposits","offset":0,"slot":"11","type":"t_mapping(t_address,t_uint256)"},{"astId":54,"contract":"contracts/CloudSlitDao.sol:CloudSlitDao","label":"_orders","offset":0,"slot":"12","type":"t_mapping(t_string_memory_ptr,t_struct(Order)30_storage)"},{"astId":59,"contract":"contracts/CloudSlitDao.sol:CloudSlitDao","label":"_privoderOrders","offset":0,"slot":"13","type":"t_mapping(t_address,t_array(t_string_storage)dyn_storage)"}],"types":{"t_address":{"encoding":"inplace","label":"address","numberOfBytes":"20"},"t_array(t_string_storage)dyn_storage":{"base":"t_string_storage","encoding":"dynamic_array","label":"string[]","numberOfBytes":"32"},"t_bool":{"encoding":"inplace","label":"bool","numberOfBytes":"1"},"t_mapping(t_address,t_array(t_string_storage)dyn_storage)":{"encoding":"mapping","key":"t_address","label":"mapping(address => string[])","numberOfBytes":"32","value":"t_array(t_string_storage)dyn_storage"},"t_mapping(t_address,t_mapping(t_address,t_uint256))":{"encoding":"mapping","key":"t_address","label":"mapping(address => mapping(address => uint256))","numberOfBytes":"32","value":"t_mapping(t_address,t_uint256)"},"t_mapping(t_address,t_uint256)":{"encoding":"mapping","key":"t_address","label":"mapping(address => uint256)","numberOfBytes":"32","value":"t_uint256"},"t_mapping(t_string_memory_ptr,t_struct(Order)30_storage)":{"encoding":"mapping","key":"t_string_memory_ptr","label":"mapping(string => struct CloudSlitDao.Order)","numberOfBytes":"32","value":"t_struct(Order)30_storage"},"t_mapping(t_string_memory_ptr,t_struct(userWallet)9_storage)":{"encoding":"mapping","key":"t_string_memory_ptr","label":"mapping(string => struct CloudSlitDao.userWallet)","numberOfBytes":"32","value":"t_struct(userWallet)9_storage"},"t_string_memory_ptr":{"encoding":"bytes","label":"string","numberOfBytes":"32"},"t_string_storage":{"encoding":"bytes","label":"string","numberOfBytes":"32"},"t_struct(Order)30_storage":{"encoding":"inplace","label":"struct CloudSlitDao.Order","members":[{"astId":11,"contract":"contracts/CloudSlitDao.sol:CloudSlitDao","label":"name","offset":0,"slot":"0","type":"t_string_storage"},{"astId":13,"contract":"contracts/CloudSlitDao.sol:CloudSlitDao","label":"startTime","offset":0,"slot":"1","type":"t_uint256"},{"astId":15,"contract":"contracts/CloudSlitDao.sol:CloudSlitDao","label":"endTime","offset":0,"slot":"2","type":"t_uint256"},{"astId":17,"contract":"contracts/CloudSlitDao.sol:CloudSlitDao","label":"withdrawDuration","offset":0,"slot":"3","type":"t_uint256"},{"astId":19,"contract":"contracts/CloudSlitDao.sol:CloudSlitDao","label":"duration","offset":0,"slot":"4","type":"t_uint32"},{"astId":21,"contract":"contracts/CloudSlitDao.sol:CloudSlitDao","label":"price","offset":0,"slot":"5","type":"t_uint256"},{"astId":23,"contract":"contracts/CloudSlitDao.sol:CloudSlitDao","label":"used","offset":0,"slot":"6","type":"t_bool"},{"astId":25,"contract":"contracts/CloudSlitDao.sol:CloudSlitDao","label":"withdraw","offset":1,"slot":"6","type":"t_bool"},{"astId":27,"contract":"contracts/CloudSlitDao.sol:CloudSlitDao","label":"payAddress","offset":2,"slot":"6","type":"t_address"},{"astId":29,"contract":"contracts/CloudSlitDao.sol:CloudSlitDao","label":"privoderAddress","offset":0,"slot":"7","type":"t_address"}],"numberOfBytes":"256"},"t_struct(userWallet)9_storage":{"encoding":"inplace","label":"struct CloudSlitDao.userWallet","members":[{"astId":6,"contract":"contracts/CloudSlitDao.sol:CloudSlitDao","label":"user","offset":0,"slot":"0","type":"t_address"},{"astId":8,"contract":"contracts/CloudSlitDao.sol:CloudSlitDao","label":"status","offset":20,"slot":"0","type":"t_uint8"}],"numberOfBytes":"32"},"t_uint256":{"encoding":"inplace","label":"uint256","numberOfBytes":"32"},"t_uint32":{"encoding":"inplace","label":"uint32","numberOfBytes":"4"},"t_uint8":{"encoding":"inplace","label":"uint8","numberOfBytes":"1"}}},"userdoc":{"kind":"user","methods":{},"version":1}}}}