{"contracts/CloudSlitDao.sol":{"CloudSlitDao":{"abi":[{"inputs":[],"stateMutability":"nonpayable","type":"constructor"},{"anonymous":false,"inputs":[{"indexed":true,"internalType":"address","name":"owner","type":"address"},{"indexed":true,"internalType":"address","name":"spender","type":"address"},{"indexed":false,"internalType":"uint256","name":"value","type":"uint256"}],"name":"Approval","type":"event"},{"anonymous":false,"inputs":[{"indexed":true,"internalType":"address","name":"from","type":"address"},{"indexed":true,"internalType":"address","name":"to","type":"address"},{"indexed":false,"internalType":"uint256","name":"value","type":"uint256"}],"name":"Transfer","type":"event"},{"inputs":[],"name":"_fullnodeDepositAmount","outputs":[{"internalType":"uint256","name":"","type":"uint256"}],"stateMutability":"view","type":"function"},{"inputs":[],"name":"_privoderDepositAmount","outputs":[{"internalType":"uint256","name":"","type":"uint256"}],"stateMutability":"view","type":"function"},{"inputs":[{"internalType":"address","name":"owner","type":"address"},{"internalType":"address","name":"spender","type":"address"}],"name":"allowance","outputs":[{"internalType":"uint256","name":"","type":"uint256"}],"stateMutability":"view","type":"function"},{"inputs":[{"internalType":"address","name":"spender","type":"address"},{"internalType":"uint256","name":"value","type":"uint256"}],"name":"approve","outputs":[{"internalType":"bool","name":"","type":"bool"}],"stateMutability":"nonpayable","type":"function"},{"inputs":[{"internalType":"address","name":"account","type":"address"}],"name":"balanceOf","outputs":[{"internalType":"uint256","name":"","type":"uint256"}],"stateMutability":"view","type":"function"},{"inputs":[{"internalType":"string","name":"uuid","type":"string"}],"name":"bindWallet","outputs":[],"stateMutability":"nonpayable","type":"function"},{"inputs":[{"internalType":"string","name":"uuid","type":"string"},{"internalType":"address","name":"newWallet","type":"address"}],"name":"changeWallet","outputs":[],"stateMutability":"nonpayable","type":"function"},{"inputs":[{"internalType":"string","name":"orderId","type":"string"}],"name":"checkOrder","outputs":[{"internalType":"bool","name":"","type":"bool"}],"stateMutability":"view","type":"function"},{"inputs":[{"internalType":"string","name":"name","type":"string"},{"internalType":"uint32","name":"duration","type":"uint32"},{"internalType":"string","name":"orderId","type":"string"},{"internalType":"uint256","name":"amount","type":"uint256"},{"internalType":"address","name":"to","type":"address"}],"name":"clientOrder","outputs":[],"stateMutability":"nonpayable","type":"function"},{"inputs":[],"name":"decimals","outputs":[{"internalType":"uint8","name":"","type":"uint8"}],"stateMutability":"view","type":"function"},{"inputs":[],"name":"getAllOrderTokens","outputs":[{"internalType":"uint256","name":"","type":"uint256"}],"stateMutability":"view","type":"function"},{"inputs":[{"internalType":"address","name":"walletAddress","type":"address"}],"name":"getDeposit","outputs":[{"internalType":"uint256","name":"","type":"uint256"},{"internalType":"uint256","name":"","type":"uint256"}],"stateMutability":"view","type":"function"},{"inputs":[{"internalType":"string","name":"orderId","type":"string"}],"name":"getOrdersInfo","outputs":[{"components":[{"internalType":"string","name":"name","type":"string"},{"internalType":"uint256","name":"startTime","type":"uint256"},{"internalType":"uint256","name":"endTime","type":"uint256"},{"internalType":"uint256","name":"withdrawDuration","type":"uint256"},{"internalType":"uint32","name":"duration","type":"uint32"},{"internalType":"uint256","name":"amount","type":"uint256"},{"internalType":"bool","name":"used","type":"bool"},{"internalType":"bool","name":"withdraw","type":"bool"},{"internalType":"address","name":"payAddress","type":"address"},{"internalType":"address","name":"privoderAddress","type":"address"}],"internalType":"struct CloudSlitDao.Order","name":"","type":"tuple"}],"stateMutability":"view","type":"function"},{"inputs":[{"internalType":"address","name":"from","type":"address"}],"name":"getPrivoderOrders","outputs":[{"internalType":"string[]","name":"","type":"string[]"}],"stateMutability":"view","type":"function"},{"inputs":[{"internalType":"string","name":"uuid","type":"string"}],"name":"getUserInfo","outputs":[{"internalType":"bool","name":"","type":"bool"},{"internalType":"bool","name":"","type":"bool"}],"stateMutability":"view","type":"function"},{"inputs":[{"internalType":"string","name":"uuid","type":"string"}],"name":"getWallet","outputs":[{"internalType":"address","name":"","type":"address"},{"internalType":"uint8","name":"","type":"uint8"}],"stateMutability":"view","type":"function"},{"inputs":[{"internalType":"uint8","name":"_type","type":"uint8"}],"name":"isDeposit","outputs":[{"internalType":"bool","name":"","type":"bool"}],"stateMutability":"view","type":"function"},{"inputs":[],"name":"name","outputs":[{"internalType":"string","name":"","type":"string"}],"stateMutability":"view","type":"function"},{"inputs":[{"internalType":"uint8","name":"_type","type":"uint8"},{"internalType":"uint256","name":"amount","type":"uint256"}],"name":"stake","outputs":[],"stateMutability":"nonpayable","type":"function"},{"inputs":[],"name":"symbol","outputs":[{"internalType":"string","name":"","type":"string"}],"stateMutability":"view","type":"function"},{"inputs":[],"name":"totalSupply","outputs":[{"internalType":"uint256","name":"","type":"uint256"}],"stateMutability":"view","type":"function"},{"inputs":[{"internalType":"address","name":"to","type":"address"},{"internalType":"uint256","name":"amount","type":"uint256"}],"name":"transfer","outputs":[{"internalType":"bool","name":"","type":"bool"}],"stateMutability":"nonpayable","type":"function"},{"inputs":[{"internalType":"string","name":"uuid","type":"string"}],"name":"unbindWallet","outputs":[],"stateMutability":"nonpayable","type":"function"},{"inputs":[{"internalType":"string","name":"uuid","type":"string"}],"name":"verifyWallet","outputs":[],"stateMutability":"nonpayable","type":"function"},{"inputs":[{"internalType":"uint8","name":"_type","type":"uint8"}],"name":"withdraw","outputs":[],"stateMutability":"nonpayable","type":"function"},{"inputs":[],"name":"withdrawAllOrderTokens","outputs":[],"stateMutability":"nonpayable","type":"function"},{"inputs":[{"internalType":"string","name":"orderId","type":"string"}],"name":"withdrawOrderTokens","outputs":[],"stateMutability":"nonpayable","type":"function"}],"devdoc":{"kind":"dev","methods":{"constructor":{"custom:oz-upgrades-unsafe-allow":"constructor"}},"version":1},"evm":{"bytecode":{"linkReferences":{},"object":"60806040526040518060400160405280600d81526020017f436c6f7564536c69742044616f00000000000000000000000000000000000000815250600090816200004a9190620004ee565b506040518060400160405280600381526020017f435344000000000000000000000000000000000000000000000000000000000081525060019081620000919190620004ee565b506012600360006101000a81548160ff021916908360ff160217905550348015620000bb57600080fd5b50620000fc33600360009054906101000a900460ff16600a620000df919062000765565b6305f5e100620000f09190620007b6565b6200018b60201b60201c565b600360009054906101000a900460ff16600a6200011a919062000765565b611388620001299190620007b6565b600781905550600360009054906101000a900460ff16600a6200014d919062000765565b6103e86200015c9190620007b6565b600881905550610e10600960006101000a81548163ffffffff021916908363ffffffff160217905550620008bf565b600073ffffffffffffffffffffffffffffffffffffffff168273ffffffffffffffffffffffffffffffffffffffff1603620001fd576040517f08c379a0000000000000000000000000000000000000000000000000000000008152600401620001f49062000862565b60405180910390fd5b806002600082825462000211919062000884565b9250508190555080600460008473ffffffffffffffffffffffffffffffffffffffff1673ffffffffffffffffffffffffffffffffffffffff168152602001908152602001600020600082825462000269919062000884565b925050819055505050565b600081519050919050565b7f4e487b7100000000000000000000000000000000000000000000000000000000600052604160045260246000fd5b7f4e487b7100000000000000000000000000000000000000000000000000000000600052602260045260246000fd5b60006002820490506001821680620002f657607f821691505b6020821081036200030c576200030b620002ae565b5b50919050565b60008190508160005260206000209050919050565b60006020601f8301049050919050565b600082821b905092915050565b600060088302620003767fffffffffffffffffffffffffffffffffffffffffffffffffffffffffffffffff8262000337565b62000382868362000337565b95508019841693508086168417925050509392505050565b6000819050919050565b6000819050919050565b6000620003cf620003c9620003c3846200039a565b620003a4565b6200039a565b9050919050565b6000819050919050565b620003eb83620003ae565b62000403620003fa82620003d6565b84845462000344565b825550505050565b600090565b6200041a6200040b565b62000427818484620003e0565b505050565b5b818110156200044f576200044360008262000410565b6001810190506200042d565b5050565b601f8211156200049e57620004688162000312565b620004738462000327565b8101602085101562000483578190505b6200049b620004928562000327565b8301826200042c565b50505b505050565b600082821c905092915050565b6000620004c360001984600802620004a3565b1980831691505092915050565b6000620004de8383620004b0565b9150826002028217905092915050565b620004f98262000274565b67ffffffffffffffff8111156200051557620005146200027f565b5b620005218254620002dd565b6200052e82828562000453565b600060209050601f83116001811462000566576000841562000551578287015190505b6200055d8582620004d0565b865550620005cd565b601f198416620005768662000312565b60005b82811015620005a05784890151825560018201915060208501945060208101905062000579565b86831015620005c05784890151620005bc601f891682620004b0565b8355505b6001600288020188555050505b505050505050565b7f4e487b7100000000000000000000000000000000000000000000000000000000600052601160045260246000fd5b60008160011c9050919050565b6000808291508390505b600185111562000663578086048111156200063b576200063a620005d5565b5b60018516156200064b5780820291505b80810290506200065b8562000604565b94506200061b565b94509492505050565b6000826200067e576001905062000751565b816200068e576000905062000751565b8160018114620006a75760028114620006b257620006e8565b600191505062000751565b60ff841115620006c757620006c6620005d5565b5b8360020a915084821115620006e157620006e0620005d5565b5b5062000751565b5060208310610133831016604e8410600b8410161715620007225782820a9050838111156200071c576200071b620005d5565b5b62000751565b62000731848484600162000611565b925090508184048111156200074b576200074a620005d5565b5b81810290505b9392505050565b600060ff82169050919050565b600062000772826200039a565b91506200077f8362000758565b9250620007ae7fffffffffffffffffffffffffffffffffffffffffffffffffffffffffffffffff84846200066c565b905092915050565b6000620007c3826200039a565b9150620007d0836200039a565b9250828202620007e0816200039a565b91508282048414831517620007fa57620007f9620005d5565b5b5092915050565b600082825260208201905092915050565b7f45524332303a206d696e7420746f20746865207a65726f206164647265737300600082015250565b60006200084a601f8362000801565b9150620008578262000812565b602082019050919050565b600060208201905081810360008301526200087d816200083b565b9050919050565b600062000891826200039a565b91506200089e836200039a565b9250828201905080821115620008b957620008b8620005d5565b5b92915050565b61401880620008cf6000396000f3fe608060405234801561001057600080fd5b50600436106101a95760003560e01c806395d89b41116100f9578063dd62ed3e11610097578063e1254fba11610071578063e1254fba146104e2578063f276b8aa14610513578063f3fbfc7b14610543578063ffc2c9b714610561576101a9565b8063dd62ed3e14610466578063dd6887ed14610496578063dd752e55146104c6576101a9565b8063a9059cbb116100d3578063a9059cbb146103e0578063c5bc91e814610410578063c6ab5d901461042e578063d19e48561461044a576101a9565b806395d89b4114610373578063a23c7c1414610391578063a4e2df66146103af576101a9565b8063313ce567116101665780637c9b7fdd116101405780637c9b7fdd146102da5780638291a0211461030b57806387a858d21461033b5780638ec012b914610357576101a9565b8063313ce567146102705780635c9abe111461028e57806370a08231146102aa576101a9565b806306fdde03146101ae578063095ea7b3146101cc57806318160ddd146101fc578063183dd1cd1461021a57806325cfedb51461024a57806327a0b34a14610266575b600080fd5b6101b661057d565b6040516101c39190612d94565b60405180910390f35b6101e660048036038101906101e19190612e5e565b61060b565b6040516101f39190612eb9565b60405180910390f35b610204610698565b6040516102119190612ee3565b60405180910390f35b610234600480360381019061022f9190612efe565b61069e565b6040516102419190613037565b60405180910390f35b610264600480360381019061025f919061318e565b6107b6565b005b61026e610b5f565b005b610278611112565b60405161028591906131f3565b60405180910390f35b6102a860048036038101906102a3919061324a565b611125565b005b6102c460048036038101906102bf9190612efe565b611466565b6040516102d19190612ee3565b60405180910390f35b6102f460048036038101906102ef919061318e565b6114af565b6040516103029291906132fd565b60405180910390f35b6103256004803603810190610320919061318e565b611609565b604051610332919061343c565b60405180910390f35b6103556004803603810190610350919061345e565b611804565b005b610371600480360381019061036c919061318e565b6119b9565b005b61037b611bf3565b6040516103889190612d94565b60405180910390f35b610399611c81565b6040516103a69190612ee3565b60405180910390f35b6103c960048036038101906103c4919061318e565b611c87565b6040516103d79291906134c9565b60405180910390f35b6103fa60048036038101906103f59190612e5e565b611d04565b6040516104079190612eb9565b60405180910390f35b610418611d9d565b6040516104259190612ee3565b60405180910390f35b6104486004803603810190610443919061351e565b611da3565b005b610464600480360381019061045f919061318e565b611f75565b005b610480600480360381019061047b919061354b565b61204d565b60405161048d9190612ee3565b60405180910390f35b6104b060048036038101906104ab919061318e565b6120d4565b6040516104bd9190612eb9565b60405180910390f35b6104e060048036038101906104db919061358b565b61210c565b005b6104fc60048036038101906104f79190612efe565b612389565b60405161050a9291906135cb565b60405180910390f35b61052d6004803603810190610528919061351e565b612415565b60405161053a9190612eb9565b60405180910390f35b61054b6124cd565b6040516105589190612ee3565b60405180910390f35b61057b6004803603810190610576919061318e565b6129a3565b005b6000805461058a90613623565b80601f01602080910402602001604051908101604052809291908181526020018280546105b690613623565b80156106035780601f106105d857610100808354040283529160200191610603565b820191906000526020600020905b8154815290600101906020018083116105e657829003601f168201915b505050505081565b600081600560003373ffffffffffffffffffffffffffffffffffffffff1673ffffffffffffffffffffffffffffffffffffffff16815260200190815260200160002060008573ffffffffffffffffffffffffffffffffffffffff1673ffffffffffffffffffffffffffffffffffffffff168152602001908152602001600020819055506001905092915050565b60025481565b6060600d60008373ffffffffffffffffffffffffffffffffffffffff1673ffffffffffffffffffffffffffffffffffffffff168152602001908152602001600020805480602002602001604051908101604052809291908181526020016000905b828210156107ab57838290600052602060002001805461071e90613623565b80601f016020809104026020016040519081016040528092919081815260200182805461074a90613623565b80156107975780601f1061076c57610100808354040283529160200191610797565b820191906000526020600020905b81548152906001019060200180831161077a57829003601f168201915b5050505050815260200190600101906106ff565b505050509050919050565b600c816040516107c69190613690565b908152602001604051809103902060060160019054906101000a900460ff1615610825576040517f08c379a000000000000000000000000000000000000000000000000000000000815260040161081c906136f3565b60405180910390fd5b3373ffffffffffffffffffffffffffffffffffffffff16600c8260405161084c9190613690565b908152602001604051809103902060070160009054906101000a900473ffffffffffffffffffffffffffffffffffffffff1673ffffffffffffffffffffffffffffffffffffffff16146108d4576040517f08c379a00000000000000000000000000000000000000000000000000000000081526004016108cb90613785565b60405180910390fd5b600c816040516108e49190613690565b9081526020016040518091039020600201544210610a23576001600c8260405161090e9190613690565b908152602001604051809103902060060160016101000a81548160ff0219169083151502179055506000600c826040516109489190613690565b908152602001604051809103902060030154600c8360405161096a9190613690565b908152602001604051809103902060040160009054906101000a900463ffffffff1663ffffffff1661099c91906137d4565b9050600081600c846040516109b19190613690565b908152602001604051809103902060040160009054906101000a900463ffffffff1663ffffffff16600c856040516109e99190613690565b908152602001604051809103902060050154610a059190613837565b610a0f9190613868565b9050610a1c303383612a6b565b5050610b5c565b6000600c82604051610a359190613690565b908152602001604051809103902060030154600960009054906101000a900463ffffffff1663ffffffff16600c84604051610a709190613690565b90815260200160405180910390206001015442610a8d91906137d4565b610a979190613837565b610aa191906137d4565b905080600c83604051610ab49190613690565b90815260200160405180910390206003016000828254610ad491906138aa565b92505081905550600081600c84604051610aee9190613690565b908152602001604051809103902060040160009054906101000a900463ffffffff1663ffffffff16600c85604051610b269190613690565b908152602001604051809103902060050154610b429190613837565b610b4c9190613868565b9050610b59303383612a6b565b50505b50565b6000600b60003373ffffffffffffffffffffffffffffffffffffffff1673ffffffffffffffffffffffffffffffffffffffff1681526020019081526020016000205403610be1576040517f08c379a0000000000000000000000000000000000000000000000000000000008152600401610bd89061392a565b60405180910390fd5b6000600d60003373ffffffffffffffffffffffffffffffffffffffff1673ffffffffffffffffffffffffffffffffffffffff168152602001908152602001600020805480602002602001604051908101604052809291908181526020016000905b82821015610cee578382906000526020600020018054610c6190613623565b80601f0160208091040260200160405190810160405280929190818152602001828054610c8d90613623565b8015610cda5780601f10610caf57610100808354040283529160200191610cda565b820191906000526020600020905b815481529060010190602001808311610cbd57829003601f168201915b505050505081526020019060010190610c42565b5050505090506000805b825181101561110257600c838281518110610d1657610d1561394a565b5b6020026020010151604051610d2b9190613690565b908152602001604051809103902060060160019054906101000a900460ff166110ef57600c838281518110610d6357610d6261394a565b5b6020026020010151604051610d789190613690565b9081526020016040518091039020600201544210610f36576001600c848381518110610da757610da661394a565b5b6020026020010151604051610dbc9190613690565b908152602001604051809103902060060160016101000a81548160ff0219169083151502179055506000600c848381518110610dfb57610dfa61394a565b5b6020026020010151604051610e109190613690565b908152602001604051809103902060030154600c858481518110610e3757610e3661394a565b5b6020026020010151604051610e4c9190613690565b908152602001604051809103902060040160009054906101000a900463ffffffff1663ffffffff16610e7e91906137d4565b905080600c858481518110610e9657610e9561394a565b5b6020026020010151604051610eab9190613690565b908152602001604051809103902060040160009054906101000a900463ffffffff1663ffffffff16600c868581518110610ee857610ee761394a565b5b6020026020010151604051610efd9190613690565b908152602001604051809103902060050154610f199190613837565b610f239190613868565b83610f2e91906138aa565b9250506110ee565b6000600c848381518110610f4d57610f4c61394a565b5b6020026020010151604051610f629190613690565b908152602001604051809103902060030154600960009054906101000a900463ffffffff1663ffffffff16600c868581518110610fa257610fa161394a565b5b6020026020010151604051610fb79190613690565b90815260200160405180910390206001015442610fd491906137d4565b610fde9190613837565b610fe891906137d4565b905080600c85848151811061100057610fff61394a565b5b60200260200101516040516110159190613690565b9081526020016040518091039020600301600082825461103591906138aa565b9250508190555080600c8584815181106110525761105161394a565b5b60200260200101516040516110679190613690565b908152602001604051809103902060040160009054906101000a900463ffffffff1663ffffffff16600c8685815181106110a4576110a361394a565b5b60200260200101516040516110b99190613690565b9081526020016040518091039020600501546110d59190613837565b6110df9190613868565b836110ea91906138aa565b9250505b5b80806110fa90613979565b915050610cf8565b5061110e303383612a6b565b5050565b600360009054906101000a900460ff1681565b600c836040516111359190613690565b908152602001604051809103902060060160009054906101000a900460ff1615611194576040517f08c379a000000000000000000000000000000000000000000000000000000000815260040161118b90613a0d565b60405180910390fd5b8161119e33611466565b10156111df576040517f08c379a00000000000000000000000000000000000000000000000000000000081526004016111d690613a79565b60405180910390fd5b6111ea333084612a6b565b604051806101400160405280868152602001428152602001600960009054906101000a900463ffffffff16866112209190613a99565b63ffffffff164261123191906138aa565b8152602001600081526020018563ffffffff1681526020018381526020016001151581526020016000151581526020013373ffffffffffffffffffffffffffffffffffffffff1681526020018273ffffffffffffffffffffffffffffffffffffffff16815250600c846040516112a79190613690565b908152602001604051809103902060008201518160000190816112ca9190613c82565b5060208201518160010155604082015181600201556060820151816003015560808201518160040160006101000a81548163ffffffff021916908363ffffffff16021790555060a0820151816005015560c08201518160060160006101000a81548160ff02191690831515021790555060e08201518160060160016101000a81548160ff0219169083151502179055506101008201518160060160026101000a81548173ffffffffffffffffffffffffffffffffffffffff021916908373ffffffffffffffffffffffffffffffffffffffff1602179055506101208201518160070160006101000a81548173ffffffffffffffffffffffffffffffffffffffff021916908373ffffffffffffffffffffffffffffffffffffffff160217905550905050600d60008273ffffffffffffffffffffffffffffffffffffffff1673ffffffffffffffffffffffffffffffffffffffff1681526020019081526020016000208390806001815401808255809150506001900390600052602060002001600090919091909150908161145e9190613c82565b505050505050565b6000600460008373ffffffffffffffffffffffffffffffffffffffff1673ffffffffffffffffffffffffffffffffffffffff168152602001908152602001600020549050919050565b60008060026006846040516114c49190613690565b908152602001604051809103902060000160149054906101000a900460ff1660ff16036115fc576000600a60006006866040516115019190613690565b908152602001604051809103902060000160009054906101000a900473ffffffffffffffffffffffffffffffffffffffff1673ffffffffffffffffffffffffffffffffffffffff1673ffffffffffffffffffffffffffffffffffffffff16815260200190815260200160002054116000600b60006006876040516115859190613690565b908152602001604051809103902060000160009054906101000a900473ffffffffffffffffffffffffffffffffffffffff1673ffffffffffffffffffffffffffffffffffffffff1673ffffffffffffffffffffffffffffffffffffffff168152602001908152602001600020541191509150611604565b600080915091505b915091565b611611612c7b565b600c826040516116219190613690565b90815260200160405180910390206040518061014001604052908160008201805461164b90613623565b80601f016020809104026020016040519081016040528092919081815260200182805461167790613623565b80156116c45780601f10611699576101008083540402835291602001916116c4565b820191906000526020600020905b8154815290600101906020018083116116a757829003601f168201915b505050505081526020016001820154815260200160028201548152602001600382015481526020016004820160009054906101000a900463ffffffff1663ffffffff1663ffffffff168152602001600582015481526020016006820160009054906101000a900460ff161515151581526020016006820160019054906101000a900460ff161515151581526020016006820160029054906101000a900473ffffffffffffffffffffffffffffffffffffffff1673ffffffffffffffffffffffffffffffffffffffff1673ffffffffffffffffffffffffffffffffffffffff1681526020016007820160009054906101000a900473ffffffffffffffffffffffffffffffffffffffff1673ffffffffffffffffffffffffffffffffffffffff1673ffffffffffffffffffffffffffffffffffffffff16815250509050919050565b600073ffffffffffffffffffffffffffffffffffffffff168173ffffffffffffffffffffffffffffffffffffffff160361183d57600080fd5b600160068360405161184f9190613690565b908152602001604051809103902060000160149054906101000a900460ff1660ff16036118db57806006836040516118879190613690565b908152602001604051809103902060000160006101000a81548173ffffffffffffffffffffffffffffffffffffffff021916908373ffffffffffffffffffffffffffffffffffffffff1602179055506119b5565b3373ffffffffffffffffffffffffffffffffffffffff166006836040516119029190613690565b908152602001604051809103902060000160009054906101000a900473ffffffffffffffffffffffffffffffffffffffff1673ffffffffffffffffffffffffffffffffffffffff161461195457600080fd5b806006836040516119659190613690565b908152602001604051809103902060000160006101000a81548173ffffffffffffffffffffffffffffffffffffffff021916908373ffffffffffffffffffffffffffffffffffffffff1602179055505b5050565b600073ffffffffffffffffffffffffffffffffffffffff166006826040516119e19190613690565b908152602001604051809103902060000160009054906101000a900473ffffffffffffffffffffffffffffffffffffffff1673ffffffffffffffffffffffffffffffffffffffff1614611a3357600080fd5b6000600a60003373ffffffffffffffffffffffffffffffffffffffff1673ffffffffffffffffffffffffffffffffffffffff1681526020019081526020016000205403611b375760405180604001604052803373ffffffffffffffffffffffffffffffffffffffff168152602001600160ff16815250600682604051611ab99190613690565b908152602001604051809103902060008201518160000160006101000a81548173ffffffffffffffffffffffffffffffffffffffff021916908373ffffffffffffffffffffffffffffffffffffffff16021790555060208201518160000160146101000a81548160ff021916908360ff160217905550905050611bf0565b60405180604001604052803373ffffffffffffffffffffffffffffffffffffffff168152602001600260ff16815250600682604051611b769190613690565b908152602001604051809103902060008201518160000160006101000a81548173ffffffffffffffffffffffffffffffffffffffff021916908373ffffffffffffffffffffffffffffffffffffffff16021790555060208201518160000160146101000a81548160ff021916908360ff1602179055509050505b50565b60018054611c0090613623565b80601f0160208091040260200160405190810160405280929190818152602001828054611c2c90613623565b8015611c795780601f10611c4e57610100808354040283529160200191611c79565b820191906000526020600020905b815481529060010190602001808311611c5c57829003601f168201915b505050505081565b60075481565b600080600683604051611c9a9190613690565b908152602001604051809103902060000160009054906101000a900473ffffffffffffffffffffffffffffffffffffffff16600684604051611cdc9190613690565b908152602001604051809103902060000160149054906101000a900460ff1691509150915091565b600081600460003373ffffffffffffffffffffffffffffffffffffffff1673ffffffffffffffffffffffffffffffffffffffff168152602001908152602001600020541015611d88576040517f08c379a0000000000000000000000000000000000000000000000000000000008152600401611d7f90613da0565b60405180910390fd5b611d93338484612a6b565b6001905092915050565b60085481565b60018160ff1603611e8c576000600a60003373ffffffffffffffffffffffffffffffffffffffff1673ffffffffffffffffffffffffffffffffffffffff1681526020019081526020016000205411611dfa57600080fd5b611e443033600a60003373ffffffffffffffffffffffffffffffffffffffff1673ffffffffffffffffffffffffffffffffffffffff16815260200190815260200160002054612a6b565b600a60003373ffffffffffffffffffffffffffffffffffffffff1673ffffffffffffffffffffffffffffffffffffffff16815260200190815260200160002060009055611f72565b60028160ff1603611f71576000600b60003373ffffffffffffffffffffffffffffffffffffffff1673ffffffffffffffffffffffffffffffffffffffff1681526020019081526020016000205411611ee357600080fd5b611f2d3033600b60003373ffffffffffffffffffffffffffffffffffffffff1673ffffffffffffffffffffffffffffffffffffffff16815260200190815260200160002054612a6b565b600b60003373ffffffffffffffffffffffffffffffffffffffff1673ffffffffffffffffffffffffffffffffffffffff168152602001908152602001600020600090555b5b50565b3373ffffffffffffffffffffffffffffffffffffffff16600682604051611f9c9190613690565b908152602001604051809103902060000160009054906101000a900473ffffffffffffffffffffffffffffffffffffffff1673ffffffffffffffffffffffffffffffffffffffff1614611fee57600080fd5b600681604051611ffe9190613690565b9081526020016040518091039020600080820160006101000a81549073ffffffffffffffffffffffffffffffffffffffff02191690556000820160146101000a81549060ff0219169055505050565b6000600560008473ffffffffffffffffffffffffffffffffffffffff1673ffffffffffffffffffffffffffffffffffffffff16815260200190815260200160002060008373ffffffffffffffffffffffffffffffffffffffff1673ffffffffffffffffffffffffffffffffffffffff16815260200190815260200160002054905092915050565b6000600c826040516120e69190613690565b908152602001604051809103902060060160009054906101000a900460ff169050919050565b60018260ff160361224a576000600a60003373ffffffffffffffffffffffffffffffffffffffff1673ffffffffffffffffffffffffffffffffffffffff1681526020019081526020016000205414612199576040517f08c379a000000000000000000000000000000000000000000000000000000000815260040161219090613e0c565b60405180910390fd5b806121a333611466565b10156121e4576040517f08c379a00000000000000000000000000000000000000000000000000000000081526004016121db90613a79565b60405180910390fd5b6121ef333083612a6b565b80600a60003373ffffffffffffffffffffffffffffffffffffffff1673ffffffffffffffffffffffffffffffffffffffff168152602001908152602001600020600082825461223e91906138aa565b92505081905550612385565b60028260ff1603612384576000600b60003373ffffffffffffffffffffffffffffffffffffffff1673ffffffffffffffffffffffffffffffffffffffff16815260200190815260200160002054146122d7576040517f08c379a00000000000000000000000000000000000000000000000000000000081526004016122ce90613e0c565b60405180910390fd5b806122e133611466565b1015612322576040517f08c379a000000000000000000000000000000000000000000000000000000000815260040161231990613a79565b60405180910390fd5b61232d333083612a6b565b80600b60003373ffffffffffffffffffffffffffffffffffffffff1673ffffffffffffffffffffffffffffffffffffffff168152602001908152602001600020600082825461237c91906138aa565b925050819055505b5b5050565b600080600a60008473ffffffffffffffffffffffffffffffffffffffff1673ffffffffffffffffffffffffffffffffffffffff16815260200190815260200160002054600b60008573ffffffffffffffffffffffffffffffffffffffff1673ffffffffffffffffffffffffffffffffffffffff1681526020019081526020016000205491509150915091565b600060018260ff160361246d576000600a60003373ffffffffffffffffffffffffffffffffffffffff1673ffffffffffffffffffffffffffffffffffffffff16815260200190815260200160002054141590506124c8565b60028260ff16036124c3576000600b60003373ffffffffffffffffffffffffffffffffffffffff1673ffffffffffffffffffffffffffffffffffffffff16815260200190815260200160002054141590506124c8565b600090505b919050565b600080600b60003373ffffffffffffffffffffffffffffffffffffffff1673ffffffffffffffffffffffffffffffffffffffff168152602001908152602001600020540361251e57600090506129a0565b6000600d60003373ffffffffffffffffffffffffffffffffffffffff1673ffffffffffffffffffffffffffffffffffffffff168152602001908152602001600020805480602002602001604051908101604052809291908181526020016000905b8282101561262b57838290600052602060002001805461259e90613623565b80601f01602080910402602001604051908101604052809291908181526020018280546125ca90613623565b80156126175780601f106125ec57610100808354040283529160200191612617565b820191906000526020600020905b8154815290600101906020018083116125fa57829003601f168201915b50505050508152602001906001019061257f565b5050505090506000805b825181101561299957600c8382815181106126535761265261394a565b5b60200260200101516040516126689190613690565b908152602001604051809103902060060160019054906101000a900460ff1661298657600c8382815181106126a05761269f61394a565b5b60200260200101516040516126b59190613690565b908152602001604051809103902060020154421061281f576000600c8483815181106126e4576126e361394a565b5b60200260200101516040516126f99190613690565b908152602001604051809103902060030154600c8584815181106127205761271f61394a565b5b60200260200101516040516127359190613690565b908152602001604051809103902060040160009054906101000a900463ffffffff1663ffffffff1661276791906137d4565b905080600c85848151811061277f5761277e61394a565b5b60200260200101516040516127949190613690565b908152602001604051809103902060040160009054906101000a900463ffffffff1663ffffffff16600c8685815181106127d1576127d061394a565b5b60200260200101516040516127e69190613690565b9081526020016040518091039020600501546128029190613837565b61280c9190613868565b8361281791906138aa565b925050612985565b6000600c8483815181106128365761283561394a565b5b602002602001015160405161284b9190613690565b908152602001604051809103902060030154600960009054906101000a900463ffffffff1663ffffffff16600c86858151811061288b5761288a61394a565b5b60200260200101516040516128a09190613690565b908152602001604051809103902060010154426128bd91906137d4565b6128c79190613837565b6128d191906137d4565b905080600c8584815181106128e9576128e861394a565b5b60200260200101516040516128fe9190613690565b908152602001604051809103902060040160009054906101000a900463ffffffff1663ffffffff16600c86858151811061293b5761293a61394a565b5b60200260200101516040516129509190613690565b90815260200160405180910390206005015461296c9190613837565b6129769190613868565b8361298191906138aa565b9250505b5b808061299190613979565b915050612635565b5080925050505b90565b6000600a60003373ffffffffffffffffffffffffffffffffffffffff1673ffffffffffffffffffffffffffffffffffffffff16815260200190815260200160002054116129ef57600080fd5b6001600682604051612a019190613690565b908152602001604051809103902060000160149054906101000a900460ff1660ff1614612a2d57600080fd5b6002600682604051612a3f9190613690565b908152602001604051809103902060000160146101000a81548160ff021916908360ff16021790555050565b600073ffffffffffffffffffffffffffffffffffffffff168373ffffffffffffffffffffffffffffffffffffffff1603612ada576040517f08c379a0000000000000000000000000000000000000000000000000000000008152600401612ad190613e9e565b60405180910390fd5b600073ffffffffffffffffffffffffffffffffffffffff168273ffffffffffffffffffffffffffffffffffffffff1603612b49576040517f08c379a0000000000000000000000000000000000000000000000000000000008152600401612b4090613f30565b60405180910390fd5b6000600460008573ffffffffffffffffffffffffffffffffffffffff1673ffffffffffffffffffffffffffffffffffffffff16815260200190815260200160002054905081811015612bd0576040517f08c379a0000000000000000000000000000000000000000000000000000000008152600401612bc790613fc2565b60405180910390fd5b8181612bdc91906137d4565b600460008673ffffffffffffffffffffffffffffffffffffffff1673ffffffffffffffffffffffffffffffffffffffff1681526020019081526020016000208190555081600460008573ffffffffffffffffffffffffffffffffffffffff1673ffffffffffffffffffffffffffffffffffffffff1681526020019081526020016000206000828254612c6e91906138aa565b9250508190555050505050565b60405180610140016040528060608152602001600081526020016000815260200160008152602001600063ffffffff16815260200160008152602001600015158152602001600015158152602001600073ffffffffffffffffffffffffffffffffffffffff168152602001600073ffffffffffffffffffffffffffffffffffffffff1681525090565b600081519050919050565b600082825260208201905092915050565b60005b83811015612d3e578082015181840152602081019050612d23565b60008484015250505050565b6000601f19601f8301169050919050565b6000612d6682612d04565b612d708185612d0f565b9350612d80818560208601612d20565b612d8981612d4a565b840191505092915050565b60006020820190508181036000830152612dae8184612d5b565b905092915050565b6000604051905090565b600080fd5b600080fd5b600073ffffffffffffffffffffffffffffffffffffffff82169050919050565b6000612df582612dca565b9050919050565b612e0581612dea565b8114612e1057600080fd5b50565b600081359050612e2281612dfc565b92915050565b6000819050919050565b612e3b81612e28565b8114612e4657600080fd5b50565b600081359050612e5881612e32565b92915050565b60008060408385031215612e7557612e74612dc0565b5b6000612e8385828601612e13565b9250506020612e9485828601612e49565b9150509250929050565b60008115159050919050565b612eb381612e9e565b82525050565b6000602082019050612ece6000830184612eaa565b92915050565b612edd81612e28565b82525050565b6000602082019050612ef86000830184612ed4565b92915050565b600060208284031215612f1457612f13612dc0565b5b6000612f2284828501612e13565b91505092915050565b600081519050919050565b600082825260208201905092915050565b6000819050602082019050919050565b600082825260208201905092915050565b6000612f7382612d04565b612f7d8185612f57565b9350612f8d818560208601612d20565b612f9681612d4a565b840191505092915050565b6000612fad8383612f68565b905092915050565b6000602082019050919050565b6000612fcd82612f2b565b612fd78185612f36565b935083602082028501612fe985612f47565b8060005b8581101561302557848403895281516130068582612fa1565b945061301183612fb5565b925060208a01995050600181019050612fed565b50829750879550505050505092915050565b600060208201905081810360008301526130518184612fc2565b905092915050565b600080fd5b600080fd5b7f4e487b7100000000000000000000000000000000000000000000000000000000600052604160045260246000fd5b61309b82612d4a565b810181811067ffffffffffffffff821117156130ba576130b9613063565b5b80604052505050565b60006130cd612db6565b90506130d98282613092565b919050565b600067ffffffffffffffff8211156130f9576130f8613063565b5b61310282612d4a565b9050602081019050919050565b82818337600083830152505050565b600061313161312c846130de565b6130c3565b90508281526020810184848401111561314d5761314c61305e565b5b61315884828561310f565b509392505050565b600082601f83011261317557613174613059565b5b813561318584826020860161311e565b91505092915050565b6000602082840312156131a4576131a3612dc0565b5b600082013567ffffffffffffffff8111156131c2576131c1612dc5565b5b6131ce84828501613160565b91505092915050565b600060ff82169050919050565b6131ed816131d7565b82525050565b600060208201905061320860008301846131e4565b92915050565b600063ffffffff82169050919050565b6132278161320e565b811461323257600080fd5b50565b6000813590506132448161321e565b92915050565b600080600080600060a0868803121561326657613265612dc0565b5b600086013567ffffffffffffffff81111561328457613283612dc5565b5b61329088828901613160565b95505060206132a188828901613235565b945050604086013567ffffffffffffffff8111156132c2576132c1612dc5565b5b6132ce88828901613160565b93505060606132df88828901612e49565b92505060806132f088828901612e13565b9150509295509295909350565b60006040820190506133126000830185612eaa565b61331f6020830184612eaa565b9392505050565b61332f81612e28565b82525050565b61333e8161320e565b82525050565b61334d81612e9e565b82525050565b61335c81612dea565b82525050565b60006101408301600083015184820360008601526133808282612f68565b91505060208301516133956020860182613326565b5060408301516133a86040860182613326565b5060608301516133bb6060860182613326565b5060808301516133ce6080860182613335565b5060a08301516133e160a0860182613326565b5060c08301516133f460c0860182613344565b5060e083015161340760e0860182613344565b5061010083015161341c610100860182613353565b50610120830151613431610120860182613353565b508091505092915050565b600060208201905081810360008301526134568184613362565b905092915050565b6000806040838503121561347557613474612dc0565b5b600083013567ffffffffffffffff81111561349357613492612dc5565b5b61349f85828601613160565b92505060206134b085828601612e13565b9150509250929050565b6134c381612dea565b82525050565b60006040820190506134de60008301856134ba565b6134eb60208301846131e4565b9392505050565b6134fb816131d7565b811461350657600080fd5b50565b600081359050613518816134f2565b92915050565b60006020828403121561353457613533612dc0565b5b600061354284828501613509565b91505092915050565b6000806040838503121561356257613561612dc0565b5b600061357085828601612e13565b925050602061358185828601612e13565b9150509250929050565b600080604083850312156135a2576135a1612dc0565b5b60006135b085828601613509565b92505060206135c185828601612e49565b9150509250929050565b60006040820190506135e06000830185612ed4565b6135ed6020830184612ed4565b9392505050565b7f4e487b7100000000000000000000000000000000000000000000000000000000600052602260045260246000fd5b6000600282049050600182168061363b57607f821691505b60208210810361364e5761364d6135f4565b5b50919050565b600081905092915050565b600061366a82612d04565b6136748185613654565b9350613684818560208601612d20565b80840191505092915050565b600061369c828461365f565b915081905092915050565b7f546865206f7264657220686173206265656e2077697468647261776e00000000600082015250565b60006136dd601c83612d0f565b91506136e8826136a7565b602082019050919050565b6000602082019050818103600083015261370c816136d0565b9050919050565b7f506c6561736520636f6e6669726d207468652077616c6c65742061646472657360008201527f732c2043616e206e6f7420776974686472617700000000000000000000000000602082015250565b600061376f603383612d0f565b915061377a82613713565b604082019050919050565b6000602082019050818103600083015261379e81613762565b9050919050565b7f4e487b7100000000000000000000000000000000000000000000000000000000600052601160045260246000fd5b60006137df82612e28565b91506137ea83612e28565b9250828203905081811115613802576138016137a5565b5b92915050565b7f4e487b7100000000000000000000000000000000000000000000000000000000600052601260045260246000fd5b600061384282612e28565b915061384d83612e28565b92508261385d5761385c613808565b5b828204905092915050565b600061387382612e28565b915061387e83612e28565b925082820261388c81612e28565b915082820484148315176138a3576138a26137a5565b5b5092915050565b60006138b582612e28565b91506138c083612e28565b92508282019050808211156138d8576138d76137a5565b5b92915050565b7f4e6f74206465706f736974730000000000000000000000000000000000000000600082015250565b6000613914600c83612d0f565b915061391f826138de565b602082019050919050565b6000602082019050818103600083015261394381613907565b9050919050565b7f4e487b7100000000000000000000000000000000000000000000000000000000600052603260045260246000fd5b600061398482612e28565b91507fffffffffffffffffffffffffffffffffffffffffffffffffffffffffffffffff82036139b6576139b56137a5565b5b600182019050919050565b7f416c726561647920706169640000000000000000000000000000000000000000600082015250565b60006139f7600c83612d0f565b9150613a02826139c1565b602082019050919050565b60006020820190508181036000830152613a26816139ea565b9050919050565b7f4e6f7420656e6f75676820435344000000000000000000000000000000000000600082015250565b6000613a63600e83612d0f565b9150613a6e82613a2d565b602082019050919050565b60006020820190508181036000830152613a9281613a56565b9050919050565b6000613aa48261320e565b9150613aaf8361320e565b9250828202613abd8161320e565b9150808214613acf57613ace6137a5565b5b5092915050565b60008190508160005260206000209050919050565b60006020601f8301049050919050565b600082821b905092915050565b600060088302613b387fffffffffffffffffffffffffffffffffffffffffffffffffffffffffffffffff82613afb565b613b428683613afb565b95508019841693508086168417925050509392505050565b6000819050919050565b6000613b7f613b7a613b7584612e28565b613b5a565b612e28565b9050919050565b6000819050919050565b613b9983613b64565b613bad613ba582613b86565b848454613b08565b825550505050565b600090565b613bc2613bb5565b613bcd818484613b90565b505050565b5b81811015613bf157613be6600082613bba565b600181019050613bd3565b5050565b601f821115613c3657613c0781613ad6565b613c1084613aeb565b81016020851015613c1f578190505b613c33613c2b85613aeb565b830182613bd2565b50505b505050565b600082821c905092915050565b6000613c5960001984600802613c3b565b1980831691505092915050565b6000613c728383613c48565b9150826002028217905092915050565b613c8b82612d04565b67ffffffffffffffff811115613ca457613ca3613063565b5b613cae8254613623565b613cb9828285613bf5565b600060209050601f831160018114613cec5760008415613cda578287015190505b613ce48582613c66565b865550613d4c565b601f198416613cfa86613ad6565b60005b82811015613d2257848901518255600182019150602085019450602081019050613cfd565b86831015613d3f5784890151613d3b601f891682613c48565b8355505b6001600288020188555050505b505050505050565b7f4e6f7420656e6f75676820746f6b656e73000000000000000000000000000000600082015250565b6000613d8a601183612d0f565b9150613d9582613d54565b602082019050919050565b60006020820190508181036000830152613db981613d7d565b9050919050565b7f416c7265616479207374616b6564000000000000000000000000000000000000600082015250565b6000613df6600e83612d0f565b9150613e0182613dc0565b602082019050919050565b60006020820190508181036000830152613e2581613de9565b9050919050565b7f45524332303a207472616e736665722066726f6d20746865207a65726f20616460008201527f6472657373000000000000000000000000000000000000000000000000000000602082015250565b6000613e88602583612d0f565b9150613e9382613e2c565b604082019050919050565b60006020820190508181036000830152613eb781613e7b565b9050919050565b7f45524332303a207472616e7366657220746f20746865207a65726f206164647260008201527f6573730000000000000000000000000000000000000000000000000000000000602082015250565b6000613f1a602383612d0f565b9150613f2582613ebe565b604082019050919050565b60006020820190508181036000830152613f4981613f0d565b9050919050565b7f45524332303a207472616e7366657220616d6f756e742065786365656473206260008201527f616c616e63650000000000000000000000000000000000000000000000000000602082015250565b6000613fac602683612d0f565b9150613fb782613f50565b604082019050919050565b60006020820190508181036000830152613fdb81613f9f565b905091905056fea2646970667358221220452ed44c161f766b757d7e85d19a6fc2608f384ee46d608fac115b57c2127b7e64736f6c63430008110033","opcodes":"PUSH1 0x80 PUSH1 0x40 MSTORE PUSH1 0x40 MLOAD DUP1 PUSH1 0x40 ADD PUSH1 0x40 MSTORE DUP1 PUSH1 0xD DUP2 MSTORE PUSH1 0x20 ADD PUSH32 0x436C6F7564536C69742044616F00000000000000000000000000000000000000 DUP2 MSTORE POP PUSH1 0x0 SWAP1 DUP2 PUSH3 0x4A SWAP2 SWAP1 PUSH3 0x4EE JUMP JUMPDEST POP PUSH1 0x40 MLOAD DUP1 PUSH1 0x40 ADD PUSH1 0x40 MSTORE DUP1 PUSH1 0x3 DUP2 MSTORE PUSH1 0x20 ADD PUSH32 0x4353440000000000000000000000000000000000000000000000000000000000 DUP2 MSTORE POP PUSH1 0x1 SWAP1 DUP2 PUSH3 0x91 SWAP2 SWAP1 PUSH3 0x4EE JUMP JUMPDEST POP PUSH1 0x12 PUSH1 0x3 PUSH1 0x0 PUSH2 0x100 EXP DUP2 SLOAD DUP2 PUSH1 0xFF MUL NOT AND SWAP1 DUP4 PUSH1 0xFF AND MUL OR SWAP1 SSTORE POP CALLVALUE DUP1 ISZERO PUSH3 0xBB JUMPI PUSH1 0x0 DUP1 REVERT JUMPDEST POP PUSH3 0xFC CALLER PUSH1 0x3 PUSH1 0x0 SWAP1 SLOAD SWAP1 PUSH2 0x100 EXP SWAP1 DIV PUSH1 0xFF AND PUSH1 0xA PUSH3 0xDF SWAP2 SWAP1 PUSH3 0x765 JUMP JUMPDEST PUSH4 0x5F5E100 PUSH3 0xF0 SWAP2 SWAP1 PUSH3 0x7B6 JUMP JUMPDEST PUSH3 0x18B PUSH1 0x20 SHL PUSH1 0x20 SHR JUMP JUMPDEST PUSH1 0x3 PUSH1 0x0 SWAP1 SLOAD SWAP1 PUSH2 0x100 EXP SWAP1 DIV PUSH1 0xFF AND PUSH1 0xA PUSH3 0x11A SWAP2 SWAP1 PUSH3 0x765 JUMP JUMPDEST PUSH2 0x1388 PUSH3 0x129 SWAP2 SWAP1 PUSH3 0x7B6 JUMP JUMPDEST PUSH1 0x7 DUP2 SWAP1 SSTORE POP PUSH1 0x3 PUSH1 0x0 SWAP1 SLOAD SWAP1 PUSH2 0x100 EXP SWAP1 DIV PUSH1 0xFF AND PUSH1 0xA PUSH3 0x14D SWAP2 SWAP1 PUSH3 0x765 JUMP JUMPDEST PUSH2 0x3E8 PUSH3 0x15C SWAP2 SWAP1 PUSH3 0x7B6 JUMP JUMPDEST PUSH1 0x8 DUP2 SWAP1 SSTORE POP PUSH2 0xE10 PUSH1 0x9 PUSH1 0x0 PUSH2 0x100 EXP DUP2 SLOAD DUP2 PUSH4 0xFFFFFFFF MUL NOT AND SWAP1 DUP4 PUSH4 0xFFFFFFFF AND MUL OR SWAP1 SSTORE POP PUSH3 0x8BF JUMP JUMPDEST PUSH1 0x0 PUSH20 0xFFFFFFFFFFFFFFFFFFFFFFFFFFFFFFFFFFFFFFFF AND DUP3 PUSH20 0xFFFFFFFFFFFFFFFFFFFFFFFFFFFFFFFFFFFFFFFF AND SUB PUSH3 0x1FD JUMPI PUSH1 0x40 MLOAD PUSH32 0x8C379A000000000000000000000000000000000000000000000000000000000 DUP2 MSTORE PUSH1 0x4 ADD PUSH3 0x1F4 SWAP1 PUSH3 0x862 JUMP JUMPDEST PUSH1 0x40 MLOAD DUP1 SWAP2 SUB SWAP1 REVERT JUMPDEST DUP1 PUSH1 0x2 PUSH1 0x0 DUP3 DUP3 SLOAD PUSH3 0x211 SWAP2 SWAP1 PUSH3 0x884 JUMP JUMPDEST SWAP3 POP POP DUP2 SWAP1 SSTORE POP DUP1 PUSH1 0x4 PUSH1 0x0 DUP5 PUSH20 0xFFFFFFFFFFFFFFFFFFFFFFFFFFFFFFFFFFFFFFFF AND PUSH20 0xFFFFFFFFFFFFFFFFFFFFFFFFFFFFFFFFFFFFFFFF AND DUP2 MSTORE PUSH1 0x20 ADD SWAP1 DUP2 MSTORE PUSH1 0x20 ADD PUSH1 0x0 KECCAK256 PUSH1 0x0 DUP3 DUP3 SLOAD PUSH3 0x269 SWAP2 SWAP1 PUSH3 0x884 JUMP JUMPDEST SWAP3 POP POP DUP2 SWAP1 SSTORE POP POP POP JUMP JUMPDEST PUSH1 0x0 DUP2 MLOAD SWAP1 POP SWAP2 SWAP1 POP JUMP JUMPDEST PUSH32 0x4E487B7100000000000000000000000000000000000000000000000000000000 PUSH1 0x0 MSTORE PUSH1 0x41 PUSH1 0x4 MSTORE PUSH1 0x24 PUSH1 0x0 REVERT JUMPDEST PUSH32 0x4E487B7100000000000000000000000000000000000000000000000000000000 PUSH1 0x0 MSTORE PUSH1 0x22 PUSH1 0x4 MSTORE PUSH1 0x24 PUSH1 0x0 REVERT JUMPDEST PUSH1 0x0 PUSH1 0x2 DUP3 DIV SWAP1 POP PUSH1 0x1 DUP3 AND DUP1 PUSH3 0x2F6 JUMPI PUSH1 0x7F DUP3 AND SWAP2 POP JUMPDEST PUSH1 0x20 DUP3 LT DUP2 SUB PUSH3 0x30C JUMPI PUSH3 0x30B PUSH3 0x2AE JUMP JUMPDEST JUMPDEST POP SWAP2 SWAP1 POP JUMP JUMPDEST PUSH1 0x0 DUP2 SWAP1 POP DUP2 PUSH1 0x0 MSTORE PUSH1 0x20 PUSH1 0x0 KECCAK256 SWAP1 POP SWAP2 SWAP1 POP JUMP JUMPDEST PUSH1 0x0 PUSH1 0x20 PUSH1 0x1F DUP4 ADD DIV SWAP1 POP SWAP2 SWAP1 POP JUMP JUMPDEST PUSH1 0x0 DUP3 DUP3 SHL SWAP1 POP SWAP3 SWAP2 POP POP JUMP JUMPDEST PUSH1 0x0 PUSH1 0x8 DUP4 MUL PUSH3 0x376 PUSH32 0xFFFFFFFFFFFFFFFFFFFFFFFFFFFFFFFFFFFFFFFFFFFFFFFFFFFFFFFFFFFFFFFF DUP3 PUSH3 0x337 JUMP JUMPDEST PUSH3 0x382 DUP7 DUP4 PUSH3 0x337 JUMP JUMPDEST SWAP6 POP DUP1 NOT DUP5 AND SWAP4 POP DUP1 DUP7 AND DUP5 OR SWAP3 POP POP POP SWAP4 SWAP3 POP POP POP JUMP JUMPDEST PUSH1 0x0 DUP2 SWAP1 POP SWAP2 SWAP1 POP JUMP JUMPDEST PUSH1 0x0 DUP2 SWAP1 POP SWAP2 SWAP1 POP JUMP JUMPDEST PUSH1 0x0 PUSH3 0x3CF PUSH3 0x3C9 PUSH3 0x3C3 DUP5 PUSH3 0x39A JUMP JUMPDEST PUSH3 0x3A4 JUMP JUMPDEST PUSH3 0x39A JUMP JUMPDEST SWAP1 POP SWAP2 SWAP1 POP JUMP JUMPDEST PUSH1 0x0 DUP2 SWAP1 POP SWAP2 SWAP1 POP JUMP JUMPDEST PUSH3 0x3EB DUP4 PUSH3 0x3AE JUMP JUMPDEST PUSH3 0x403 PUSH3 0x3FA DUP3 PUSH3 0x3D6 JUMP JUMPDEST DUP5 DUP5 SLOAD PUSH3 0x344 JUMP JUMPDEST DUP3 SSTORE POP POP POP POP JUMP JUMPDEST PUSH1 0x0 SWAP1 JUMP JUMPDEST PUSH3 0x41A PUSH3 0x40B JUMP JUMPDEST PUSH3 0x427 DUP2 DUP5 DUP5 PUSH3 0x3E0 JUMP JUMPDEST POP POP POP JUMP JUMPDEST JUMPDEST DUP2 DUP2 LT ISZERO PUSH3 0x44F JUMPI PUSH3 0x443 PUSH1 0x0 DUP3 PUSH3 0x410 JUMP JUMPDEST PUSH1 0x1 DUP2 ADD SWAP1 POP PUSH3 0x42D JUMP JUMPDEST POP POP JUMP JUMPDEST PUSH1 0x1F DUP3 GT ISZERO PUSH3 0x49E JUMPI PUSH3 0x468 DUP2 PUSH3 0x312 JUMP JUMPDEST PUSH3 0x473 DUP5 PUSH3 0x327 JUMP JUMPDEST DUP2 ADD PUSH1 0x20 DUP6 LT ISZERO PUSH3 0x483 JUMPI DUP2 SWAP1 POP JUMPDEST PUSH3 0x49B PUSH3 0x492 DUP6 PUSH3 0x327 JUMP JUMPDEST DUP4 ADD DUP3 PUSH3 0x42C JUMP JUMPDEST POP POP JUMPDEST POP POP POP JUMP JUMPDEST PUSH1 0x0 DUP3 DUP3 SHR SWAP1 POP SWAP3 SWAP2 POP POP JUMP JUMPDEST PUSH1 0x0 PUSH3 0x4C3 PUSH1 0x0 NOT DUP5 PUSH1 0x8 MUL PUSH3 0x4A3 JUMP JUMPDEST NOT DUP1 DUP4 AND SWAP2 POP POP SWAP3 SWAP2 POP POP JUMP JUMPDEST PUSH1 0x0 PUSH3 0x4DE DUP4 DUP4 PUSH3 0x4B0 JUMP JUMPDEST SWAP2 POP DUP3 PUSH1 0x2 MUL DUP3 OR SWAP1 POP SWAP3 SWAP2 POP POP JUMP JUMPDEST PUSH3 0x4F9 DUP3 PUSH3 0x274 JUMP JUMPDEST PUSH8 0xFFFFFFFFFFFFFFFF DUP2 GT ISZERO PUSH3 0x515 JUMPI PUSH3 0x514 PUSH3 0x27F JUMP JUMPDEST JUMPDEST PUSH3 0x521 DUP3 SLOAD PUSH3 0x2DD JUMP JUMPDEST PUSH3 0x52E DUP3 DUP3 DUP6 PUSH3 0x453 JUMP JUMPDEST PUSH1 0x0 PUSH1 0x20 SWAP1 POP PUSH1 0x1F DUP4 GT PUSH1 0x1 DUP2 EQ PUSH3 0x566 JUMPI PUSH1 0x0 DUP5 ISZERO PUSH3 0x551 JUMPI DUP3 DUP8 ADD MLOAD SWAP1 POP JUMPDEST PUSH3 0x55D DUP6 DUP3 PUSH3 0x4D0 JUMP JUMPDEST DUP7 SSTORE POP PUSH3 0x5CD JUMP JUMPDEST PUSH1 0x1F NOT DUP5 AND PUSH3 0x576 DUP7 PUSH3 0x312 JUMP JUMPDEST PUSH1 0x0 JUMPDEST DUP3 DUP2 LT ISZERO PUSH3 0x5A0 JUMPI DUP5 DUP10 ADD MLOAD DUP3 SSTORE PUSH1 0x1 DUP3 ADD SWAP2 POP PUSH1 0x20 DUP6 ADD SWAP5 POP PUSH1 0x20 DUP2 ADD SWAP1 POP PUSH3 0x579 JUMP JUMPDEST DUP7 DUP4 LT ISZERO PUSH3 0x5C0 JUMPI DUP5 DUP10 ADD MLOAD PUSH3 0x5BC PUSH1 0x1F DUP10 AND DUP3 PUSH3 0x4B0 JUMP JUMPDEST DUP4 SSTORE POP JUMPDEST PUSH1 0x1 PUSH1 0x2 DUP9 MUL ADD DUP9 SSTORE POP POP POP JUMPDEST POP POP POP POP POP POP JUMP JUMPDEST PUSH32 0x4E487B7100000000000000000000000000000000000000000000000000000000 PUSH1 0x0 MSTORE PUSH1 0x11 PUSH1 0x4 MSTORE PUSH1 0x24 PUSH1 0x0 REVERT JUMPDEST PUSH1 0x0 DUP2 PUSH1 0x1 SHR SWAP1 POP SWAP2 SWAP1 POP JUMP JUMPDEST PUSH1 0x0 DUP1 DUP3 SWAP2 POP DUP4 SWAP1 POP JUMPDEST PUSH1 0x1 DUP6 GT ISZERO PUSH3 0x663 JUMPI DUP1 DUP7 DIV DUP2 GT ISZERO PUSH3 0x63B JUMPI PUSH3 0x63A PUSH3 0x5D5 JUMP JUMPDEST JUMPDEST PUSH1 0x1 DUP6 AND ISZERO PUSH3 0x64B JUMPI DUP1 DUP3 MUL SWAP2 POP JUMPDEST DUP1 DUP2 MUL SWAP1 POP PUSH3 0x65B DUP6 PUSH3 0x604 JUMP JUMPDEST SWAP5 POP PUSH3 0x61B JUMP JUMPDEST SWAP5 POP SWAP5 SWAP3 POP POP POP JUMP JUMPDEST PUSH1 0x0 DUP3 PUSH3 0x67E JUMPI PUSH1 0x1 SWAP1 POP PUSH3 0x751 JUMP JUMPDEST DUP2 PUSH3 0x68E JUMPI PUSH1 0x0 SWAP1 POP PUSH3 0x751 JUMP JUMPDEST DUP2 PUSH1 0x1 DUP2 EQ PUSH3 0x6A7 JUMPI PUSH1 0x2 DUP2 EQ PUSH3 0x6B2 JUMPI PUSH3 0x6E8 JUMP JUMPDEST PUSH1 0x1 SWAP2 POP POP PUSH3 0x751 JUMP JUMPDEST PUSH1 0xFF DUP5 GT ISZERO PUSH3 0x6C7 JUMPI PUSH3 0x6C6 PUSH3 0x5D5 JUMP JUMPDEST JUMPDEST DUP4 PUSH1 0x2 EXP SWAP2 POP DUP5 DUP3 GT ISZERO PUSH3 0x6E1 JUMPI PUSH3 0x6E0 PUSH3 0x5D5 JUMP JUMPDEST JUMPDEST POP PUSH3 0x751 JUMP JUMPDEST POP PUSH1 0x20 DUP4 LT PUSH2 0x133 DUP4 LT AND PUSH1 0x4E DUP5 LT PUSH1 0xB DUP5 LT AND OR ISZERO PUSH3 0x722 JUMPI DUP3 DUP3 EXP SWAP1 POP DUP4 DUP2 GT ISZERO PUSH3 0x71C JUMPI PUSH3 0x71B PUSH3 0x5D5 JUMP JUMPDEST JUMPDEST PUSH3 0x751 JUMP JUMPDEST PUSH3 0x731 DUP5 DUP5 DUP5 PUSH1 0x1 PUSH3 0x611 JUMP JUMPDEST SWAP3 POP SWAP1 POP DUP2 DUP5 DIV DUP2 GT ISZERO PUSH3 0x74B JUMPI PUSH3 0x74A PUSH3 0x5D5 JUMP JUMPDEST JUMPDEST DUP2 DUP2 MUL SWAP1 POP JUMPDEST SWAP4 SWAP3 POP POP POP JUMP JUMPDEST PUSH1 0x0 PUSH1 0xFF DUP3 AND SWAP1 POP SWAP2 SWAP1 POP JUMP JUMPDEST PUSH1 0x0 PUSH3 0x772 DUP3 PUSH3 0x39A JUMP JUMPDEST SWAP2 POP PUSH3 0x77F DUP4 PUSH3 0x758 JUMP JUMPDEST SWAP3 POP PUSH3 0x7AE PUSH32 0xFFFFFFFFFFFFFFFFFFFFFFFFFFFFFFFFFFFFFFFFFFFFFFFFFFFFFFFFFFFFFFFF DUP5 DUP5 PUSH3 0x66C JUMP JUMPDEST SWAP1 POP SWAP3 SWAP2 POP POP JUMP JUMPDEST PUSH1 0x0 PUSH3 0x7C3 DUP3 PUSH3 0x39A JUMP JUMPDEST SWAP2 POP PUSH3 0x7D0 DUP4 PUSH3 0x39A JUMP JUMPDEST SWAP3 POP DUP3 DUP3 MUL PUSH3 0x7E0 DUP2 PUSH3 0x39A JUMP JUMPDEST SWAP2 POP DUP3 DUP3 DIV DUP5 EQ DUP4 ISZERO OR PUSH3 0x7FA JUMPI PUSH3 0x7F9 PUSH3 0x5D5 JUMP JUMPDEST JUMPDEST POP SWAP3 SWAP2 POP POP JUMP JUMPDEST PUSH1 0x0 DUP3 DUP3 MSTORE PUSH1 0x20 DUP3 ADD SWAP1 POP SWAP3 SWAP2 POP POP JUMP JUMPDEST PUSH32 0x45524332303A206D696E7420746F20746865207A65726F206164647265737300 PUSH1 0x0 DUP3 ADD MSTORE POP JUMP JUMPDEST PUSH1 0x0 PUSH3 0x84A PUSH1 0x1F DUP4 PUSH3 0x801 JUMP JUMPDEST SWAP2 POP PUSH3 0x857 DUP3 PUSH3 0x812 JUMP JUMPDEST PUSH1 0x20 DUP3 ADD SWAP1 POP SWAP2 SWAP1 POP JUMP JUMPDEST PUSH1 0x0 PUSH1 0x20 DUP3 ADD SWAP1 POP DUP2 DUP2 SUB PUSH1 0x0 DUP4 ADD MSTORE PUSH3 0x87D DUP2 PUSH3 0x83B JUMP JUMPDEST SWAP1 POP SWAP2 SWAP1 POP JUMP JUMPDEST PUSH1 0x0 PUSH3 0x891 DUP3 PUSH3 0x39A JUMP JUMPDEST SWAP2 POP PUSH3 0x89E DUP4 PUSH3 0x39A JUMP JUMPDEST SWAP3 POP DUP3 DUP3 ADD SWAP1 POP DUP1 DUP3 GT ISZERO PUSH3 0x8B9 JUMPI PUSH3 0x8B8 PUSH3 0x5D5 JUMP JUMPDEST JUMPDEST SWAP3 SWAP2 POP POP JUMP JUMPDEST PUSH2 0x4018 DUP1 PUSH3 0x8CF PUSH1 0x0 CODECOPY PUSH1 0x0 RETURN INVALID PUSH1 0x80 PUSH1 0x40 MSTORE CALLVALUE DUP1 ISZERO PUSH2 0x10 JUMPI PUSH1 0x0 DUP1 REVERT JUMPDEST POP PUSH1 0x4 CALLDATASIZE LT PUSH2 0x1A9 JUMPI PUSH1 0x0 CALLDATALOAD PUSH1 0xE0 SHR DUP1 PUSH4 0x95D89B41 GT PUSH2 0xF9 JUMPI DUP1 PUSH4 0xDD62ED3E GT PUSH2 0x97 JUMPI DUP1 PUSH4 0xE1254FBA GT PUSH2 0x71 JUMPI DUP1 PUSH4 0xE1254FBA EQ PUSH2 0x4E2 JUMPI DUP1 PUSH4 0xF276B8AA EQ PUSH2 0x513 JUMPI DUP1 PUSH4 0xF3FBFC7B EQ PUSH2 0x543 JUMPI DUP1 PUSH4 0xFFC2C9B7 EQ PUSH2 0x561 JUMPI PUSH2 0x1A9 JUMP JUMPDEST DUP1 PUSH4 0xDD62ED3E EQ PUSH2 0x466 JUMPI DUP1 PUSH4 0xDD6887ED EQ PUSH2 0x496 JUMPI DUP1 PUSH4 0xDD752E55 EQ PUSH2 0x4C6 JUMPI PUSH2 0x1A9 JUMP JUMPDEST DUP1 PUSH4 0xA9059CBB GT PUSH2 0xD3 JUMPI DUP1 PUSH4 0xA9059CBB EQ PUSH2 0x3E0 JUMPI DUP1 PUSH4 0xC5BC91E8 EQ PUSH2 0x410 JUMPI DUP1 PUSH4 0xC6AB5D90 EQ PUSH2 0x42E JUMPI DUP1 PUSH4 0xD19E4856 EQ PUSH2 0x44A JUMPI PUSH2 0x1A9 JUMP JUMPDEST DUP1 PUSH4 0x95D89B41 EQ PUSH2 0x373 JUMPI DUP1 PUSH4 0xA23C7C14 EQ PUSH2 0x391 JUMPI DUP1 PUSH4 0xA4E2DF66 EQ PUSH2 0x3AF JUMPI PUSH2 0x1A9 JUMP JUMPDEST DUP1 PUSH4 0x313CE567 GT PUSH2 0x166 JUMPI DUP1 PUSH4 0x7C9B7FDD GT PUSH2 0x140 JUMPI DUP1 PUSH4 0x7C9B7FDD EQ PUSH2 0x2DA JUMPI DUP1 PUSH4 0x8291A021 EQ PUSH2 0x30B JUMPI DUP1 PUSH4 0x87A858D2 EQ PUSH2 0x33B JUMPI DUP1 PUSH4 0x8EC012B9 EQ PUSH2 0x357 JUMPI PUSH2 0x1A9 JUMP JUMPDEST DUP1 PUSH4 0x313CE567 EQ PUSH2 0x270 JUMPI DUP1 PUSH4 0x5C9ABE11 EQ PUSH2 0x28E JUMPI DUP1 PUSH4 0x70A08231 EQ PUSH2 0x2AA JUMPI PUSH2 0x1A9 JUMP JUMPDEST DUP1 PUSH4 0x6FDDE03 EQ PUSH2 0x1AE JUMPI DUP1 PUSH4 0x95EA7B3 EQ PUSH2 0x1CC JUMPI DUP1 PUSH4 0x18160DDD EQ PUSH2 0x1FC JUMPI DUP1 PUSH4 0x183DD1CD EQ PUSH2 0x21A JUMPI DUP1 PUSH4 0x25CFEDB5 EQ PUSH2 0x24A JUMPI DUP1 PUSH4 0x27A0B34A EQ PUSH2 0x266 JUMPI JUMPDEST PUSH1 0x0 DUP1 REVERT JUMPDEST PUSH2 0x1B6 PUSH2 0x57D JUMP JUMPDEST PUSH1 0x40 MLOAD PUSH2 0x1C3 SWAP2 SWAP1 PUSH2 0x2D94 JUMP JUMPDEST PUSH1 0x40 MLOAD DUP1 SWAP2 SUB SWAP1 RETURN JUMPDEST PUSH2 0x1E6 PUSH1 0x4 DUP1 CALLDATASIZE SUB DUP2 ADD SWAP1 PUSH2 0x1E1 SWAP2 SWAP1 PUSH2 0x2E5E JUMP JUMPDEST PUSH2 0x60B JUMP JUMPDEST PUSH1 0x40 MLOAD PUSH2 0x1F3 SWAP2 SWAP1 PUSH2 0x2EB9 JUMP JUMPDEST PUSH1 0x40 MLOAD DUP1 SWAP2 SUB SWAP1 RETURN JUMPDEST PUSH2 0x204 PUSH2 0x698 JUMP JUMPDEST PUSH1 0x40 MLOAD PUSH2 0x211 SWAP2 SWAP1 PUSH2 0x2EE3 JUMP JUMPDEST PUSH1 0x40 MLOAD DUP1 SWAP2 SUB SWAP1 RETURN JUMPDEST PUSH2 0x234 PUSH1 0x4 DUP1 CALLDATASIZE SUB DUP2 ADD SWAP1 PUSH2 0x22F SWAP2 SWAP1 PUSH2 0x2EFE JUMP JUMPDEST PUSH2 0x69E JUMP JUMPDEST PUSH1 0x40 MLOAD PUSH2 0x241 SWAP2 SWAP1 PUSH2 0x3037 JUMP JUMPDEST PUSH1 0x40 MLOAD DUP1 SWAP2 SUB SWAP1 RETURN JUMPDEST PUSH2 0x264 PUSH1 0x4 DUP1 CALLDATASIZE SUB DUP2 ADD SWAP1 PUSH2 0x25F SWAP2 SWAP1 PUSH2 0x318E JUMP JUMPDEST PUSH2 0x7B6 JUMP JUMPDEST STOP JUMPDEST PUSH2 0x26E PUSH2 0xB5F JUMP JUMPDEST STOP JUMPDEST PUSH2 0x278 PUSH2 0x1112 JUMP JUMPDEST PUSH1 0x40 MLOAD PUSH2 0x285 SWAP2 SWAP1 PUSH2 0x31F3 JUMP JUMPDEST PUSH1 0x40 MLOAD DUP1 SWAP2 SUB SWAP1 RETURN JUMPDEST PUSH2 0x2A8 PUSH1 0x4 DUP1 CALLDATASIZE SUB DUP2 ADD SWAP1 PUSH2 0x2A3 SWAP2 SWAP1 PUSH2 0x324A JUMP JUMPDEST PUSH2 0x1125 JUMP JUMPDEST STOP JUMPDEST PUSH2 0x2C4 PUSH1 0x4 DUP1 CALLDATASIZE SUB DUP2 ADD SWAP1 PUSH2 0x2BF SWAP2 SWAP1 PUSH2 0x2EFE JUMP JUMPDEST PUSH2 0x1466 JUMP JUMPDEST PUSH1 0x40 MLOAD PUSH2 0x2D1 SWAP2 SWAP1 PUSH2 0x2EE3 JUMP JUMPDEST PUSH1 0x40 MLOAD DUP1 SWAP2 SUB SWAP1 RETURN JUMPDEST PUSH2 0x2F4 PUSH1 0x4 DUP1 CALLDATASIZE SUB DUP2 ADD SWAP1 PUSH2 0x2EF SWAP2 SWAP1 PUSH2 0x318E JUMP JUMPDEST PUSH2 0x14AF JUMP JUMPDEST PUSH1 0x40 MLOAD PUSH2 0x302 SWAP3 SWAP2 SWAP1 PUSH2 0x32FD JUMP JUMPDEST PUSH1 0x40 MLOAD DUP1 SWAP2 SUB SWAP1 RETURN JUMPDEST PUSH2 0x325 PUSH1 0x4 DUP1 CALLDATASIZE SUB DUP2 ADD SWAP1 PUSH2 0x320 SWAP2 SWAP1 PUSH2 0x318E JUMP JUMPDEST PUSH2 0x1609 JUMP JUMPDEST PUSH1 0x40 MLOAD PUSH2 0x332 SWAP2 SWAP1 PUSH2 0x343C JUMP JUMPDEST PUSH1 0x40 MLOAD DUP1 SWAP2 SUB SWAP1 RETURN JUMPDEST PUSH2 0x355 PUSH1 0x4 DUP1 CALLDATASIZE SUB DUP2 ADD SWAP1 PUSH2 0x350 SWAP2 SWAP1 PUSH2 0x345E JUMP JUMPDEST PUSH2 0x1804 JUMP JUMPDEST STOP JUMPDEST PUSH2 0x371 PUSH1 0x4 DUP1 CALLDATASIZE SUB DUP2 ADD SWAP1 PUSH2 0x36C SWAP2 SWAP1 PUSH2 0x318E JUMP JUMPDEST PUSH2 0x19B9 JUMP JUMPDEST STOP JUMPDEST PUSH2 0x37B PUSH2 0x1BF3 JUMP JUMPDEST PUSH1 0x40 MLOAD PUSH2 0x388 SWAP2 SWAP1 PUSH2 0x2D94 JUMP JUMPDEST PUSH1 0x40 MLOAD DUP1 SWAP2 SUB SWAP1 RETURN JUMPDEST PUSH2 0x399 PUSH2 0x1C81 JUMP JUMPDEST PUSH1 0x40 MLOAD PUSH2 0x3A6 SWAP2 SWAP1 PUSH2 0x2EE3 JUMP JUMPDEST PUSH1 0x40 MLOAD DUP1 SWAP2 SUB SWAP1 RETURN JUMPDEST PUSH2 0x3C9 PUSH1 0x4 DUP1 CALLDATASIZE SUB DUP2 ADD SWAP1 PUSH2 0x3C4 SWAP2 SWAP1 PUSH2 0x318E JUMP JUMPDEST PUSH2 0x1C87 JUMP JUMPDEST PUSH1 0x40 MLOAD PUSH2 0x3D7 SWAP3 SWAP2 SWAP1 PUSH2 0x34C9 JUMP JUMPDEST PUSH1 0x40 MLOAD DUP1 SWAP2 SUB SWAP1 RETURN JUMPDEST PUSH2 0x3FA PUSH1 0x4 DUP1 CALLDATASIZE SUB DUP2 ADD SWAP1 PUSH2 0x3F5 SWAP2 SWAP1 PUSH2 0x2E5E JUMP JUMPDEST PUSH2 0x1D04 JUMP JUMPDEST PUSH1 0x40 MLOAD PUSH2 0x407 SWAP2 SWAP1 PUSH2 0x2EB9 JUMP JUMPDEST PUSH1 0x40 MLOAD DUP1 SWAP2 SUB SWAP1 RETURN JUMPDEST PUSH2 0x418 PUSH2 0x1D9D JUMP JUMPDEST PUSH1 0x40 MLOAD PUSH2 0x425 SWAP2 SWAP1 PUSH2 0x2EE3 JUMP JUMPDEST PUSH1 0x40 MLOAD DUP1 SWAP2 SUB SWAP1 RETURN JUMPDEST PUSH2 0x448 PUSH1 0x4 DUP1 CALLDATASIZE SUB DUP2 ADD SWAP1 PUSH2 0x443 SWAP2 SWAP1 PUSH2 0x351E JUMP JUMPDEST PUSH2 0x1DA3 JUMP JUMPDEST STOP JUMPDEST PUSH2 0x464 PUSH1 0x4 DUP1 CALLDATASIZE SUB DUP2 ADD SWAP1 PUSH2 0x45F SWAP2 SWAP1 PUSH2 0x318E JUMP JUMPDEST PUSH2 0x1F75 JUMP JUMPDEST STOP JUMPDEST PUSH2 0x480 PUSH1 0x4 DUP1 CALLDATASIZE SUB DUP2 ADD SWAP1 PUSH2 0x47B SWAP2 SWAP1 PUSH2 0x354B JUMP JUMPDEST PUSH2 0x204D JUMP JUMPDEST PUSH1 0x40 MLOAD PUSH2 0x48D SWAP2 SWAP1 PUSH2 0x2EE3 JUMP JUMPDEST PUSH1 0x40 MLOAD DUP1 SWAP2 SUB SWAP1 RETURN JUMPDEST PUSH2 0x4B0 PUSH1 0x4 DUP1 CALLDATASIZE SUB DUP2 ADD SWAP1 PUSH2 0x4AB SWAP2 SWAP1 PUSH2 0x318E JUMP JUMPDEST PUSH2 0x20D4 JUMP JUMPDEST PUSH1 0x40 MLOAD PUSH2 0x4BD SWAP2 SWAP1 PUSH2 0x2EB9 JUMP JUMPDEST PUSH1 0x40 MLOAD DUP1 SWAP2 SUB SWAP1 RETURN JUMPDEST PUSH2 0x4E0 PUSH1 0x4 DUP1 CALLDATASIZE SUB DUP2 ADD SWAP1 PUSH2 0x4DB SWAP2 SWAP1 PUSH2 0x358B JUMP JUMPDEST PUSH2 0x210C JUMP JUMPDEST STOP JUMPDEST PUSH2 0x4FC PUSH1 0x4 DUP1 CALLDATASIZE SUB DUP2 ADD SWAP1 PUSH2 0x4F7 SWAP2 SWAP1 PUSH2 0x2EFE JUMP JUMPDEST PUSH2 0x2389 JUMP JUMPDEST PUSH1 0x40 MLOAD PUSH2 0x50A SWAP3 SWAP2 SWAP1 PUSH2 0x35CB JUMP JUMPDEST PUSH1 0x40 MLOAD DUP1 SWAP2 SUB SWAP1 RETURN JUMPDEST PUSH2 0x52D PUSH1 0x4 DUP1 CALLDATASIZE SUB DUP2 ADD SWAP1 PUSH2 0x528 SWAP2 SWAP1 PUSH2 0x351E JUMP JUMPDEST PUSH2 0x2415 JUMP JUMPDEST PUSH1 0x40 MLOAD PUSH2 0x53A SWAP2 SWAP1 PUSH2 0x2EB9 JUMP JUMPDEST PUSH1 0x40 MLOAD DUP1 SWAP2 SUB SWAP1 RETURN JUMPDEST PUSH2 0x54B PUSH2 0x24CD JUMP JUMPDEST PUSH1 0x40 MLOAD PUSH2 0x558 SWAP2 SWAP1 PUSH2 0x2EE3 JUMP JUMPDEST PUSH1 0x40 MLOAD DUP1 SWAP2 SUB SWAP1 RETURN JUMPDEST PUSH2 0x57B PUSH1 0x4 DUP1 CALLDATASIZE SUB DUP2 ADD SWAP1 PUSH2 0x576 SWAP2 SWAP1 PUSH2 0x318E JUMP JUMPDEST PUSH2 0x29A3 JUMP JUMPDEST STOP JUMPDEST PUSH1 0x0 DUP1 SLOAD PUSH2 0x58A SWAP1 PUSH2 0x3623 JUMP JUMPDEST DUP1 PUSH1 0x1F ADD PUSH1 0x20 DUP1 SWAP2 DIV MUL PUSH1 0x20 ADD PUSH1 0x40 MLOAD SWAP1 DUP2 ADD PUSH1 0x40 MSTORE DUP1 SWAP3 SWAP2 SWAP1 DUP2 DUP2 MSTORE PUSH1 0x20 ADD DUP3 DUP1 SLOAD PUSH2 0x5B6 SWAP1 PUSH2 0x3623 JUMP JUMPDEST DUP1 ISZERO PUSH2 0x603 JUMPI DUP1 PUSH1 0x1F LT PUSH2 0x5D8 JUMPI PUSH2 0x100 DUP1 DUP4 SLOAD DIV MUL DUP4 MSTORE SWAP2 PUSH1 0x20 ADD SWAP2 PUSH2 0x603 JUMP JUMPDEST DUP3 ADD SWAP2 SWAP1 PUSH1 0x0 MSTORE PUSH1 0x20 PUSH1 0x0 KECCAK256 SWAP1 JUMPDEST DUP2 SLOAD DUP2 MSTORE SWAP1 PUSH1 0x1 ADD SWAP1 PUSH1 0x20 ADD DUP1 DUP4 GT PUSH2 0x5E6 JUMPI DUP3 SWAP1 SUB PUSH1 0x1F AND DUP3 ADD SWAP2 JUMPDEST POP POP POP POP POP DUP2 JUMP JUMPDEST PUSH1 0x0 DUP2 PUSH1 0x5 PUSH1 0x0 CALLER PUSH20 0xFFFFFFFFFFFFFFFFFFFFFFFFFFFFFFFFFFFFFFFF AND PUSH20 0xFFFFFFFFFFFFFFFFFFFFFFFFFFFFFFFFFFFFFFFF AND DUP2 MSTORE PUSH1 0x20 ADD SWAP1 DUP2 MSTORE PUSH1 0x20 ADD PUSH1 0x0 KECCAK256 PUSH1 0x0 DUP6 PUSH20 0xFFFFFFFFFFFFFFFFFFFFFFFFFFFFFFFFFFFFFFFF AND PUSH20 0xFFFFFFFFFFFFFFFFFFFFFFFFFFFFFFFFFFFFFFFF AND DUP2 MSTORE PUSH1 0x20 ADD SWAP1 DUP2 MSTORE PUSH1 0x20 ADD PUSH1 0x0 KECCAK256 DUP2 SWAP1 SSTORE POP PUSH1 0x1 SWAP1 POP SWAP3 SWAP2 POP POP JUMP JUMPDEST PUSH1 0x2 SLOAD DUP2 JUMP JUMPDEST PUSH1 0x60 PUSH1 0xD PUSH1 0x0 DUP4 PUSH20 0xFFFFFFFFFFFFFFFFFFFFFFFFFFFFFFFFFFFFFFFF AND PUSH20 0xFFFFFFFFFFFFFFFFFFFFFFFFFFFFFFFFFFFFFFFF AND DUP2 MSTORE PUSH1 0x20 ADD SWAP1 DUP2 MSTORE PUSH1 0x20 ADD PUSH1 0x0 KECCAK256 DUP1 SLOAD DUP1 PUSH1 0x20 MUL PUSH1 0x20 ADD PUSH1 0x40 MLOAD SWAP1 DUP2 ADD PUSH1 0x40 MSTORE DUP1 SWAP3 SWAP2 SWAP1 DUP2 DUP2 MSTORE PUSH1 0x20 ADD PUSH1 0x0 SWAP1 JUMPDEST DUP3 DUP3 LT ISZERO PUSH2 0x7AB JUMPI DUP4 DUP3 SWAP1 PUSH1 0x0 MSTORE PUSH1 0x20 PUSH1 0x0 KECCAK256 ADD DUP1 SLOAD PUSH2 0x71E SWAP1 PUSH2 0x3623 JUMP JUMPDEST DUP1 PUSH1 0x1F ADD PUSH1 0x20 DUP1 SWAP2 DIV MUL PUSH1 0x20 ADD PUSH1 0x40 MLOAD SWAP1 DUP2 ADD PUSH1 0x40 MSTORE DUP1 SWAP3 SWAP2 SWAP1 DUP2 DUP2 MSTORE PUSH1 0x20 ADD DUP3 DUP1 SLOAD PUSH2 0x74A SWAP1 PUSH2 0x3623 JUMP JUMPDEST DUP1 ISZERO PUSH2 0x797 JUMPI DUP1 PUSH1 0x1F LT PUSH2 0x76C JUMPI PUSH2 0x100 DUP1 DUP4 SLOAD DIV MUL DUP4 MSTORE SWAP2 PUSH1 0x20 ADD SWAP2 PUSH2 0x797 JUMP JUMPDEST DUP3 ADD SWAP2 SWAP1 PUSH1 0x0 MSTORE PUSH1 0x20 PUSH1 0x0 KECCAK256 SWAP1 JUMPDEST DUP2 SLOAD DUP2 MSTORE SWAP1 PUSH1 0x1 ADD SWAP1 PUSH1 0x20 ADD DUP1 DUP4 GT PUSH2 0x77A JUMPI DUP3 SWAP1 SUB PUSH1 0x1F AND DUP3 ADD SWAP2 JUMPDEST POP POP POP POP POP DUP2 MSTORE PUSH1 0x20 ADD SWAP1 PUSH1 0x1 ADD SWAP1 PUSH2 0x6FF JUMP JUMPDEST POP POP POP POP SWAP1 POP SWAP2 SWAP1 POP JUMP JUMPDEST PUSH1 0xC DUP2 PUSH1 0x40 MLOAD PUSH2 0x7C6 SWAP2 SWAP1 PUSH2 0x3690 JUMP JUMPDEST SWAP1 DUP2 MSTORE PUSH1 0x20 ADD PUSH1 0x40 MLOAD DUP1 SWAP2 SUB SWAP1 KECCAK256 PUSH1 0x6 ADD PUSH1 0x1 SWAP1 SLOAD SWAP1 PUSH2 0x100 EXP SWAP1 DIV PUSH1 0xFF AND ISZERO PUSH2 0x825 JUMPI PUSH1 0x40 MLOAD PUSH32 0x8C379A000000000000000000000000000000000000000000000000000000000 DUP2 MSTORE PUSH1 0x4 ADD PUSH2 0x81C SWAP1 PUSH2 0x36F3 JUMP JUMPDEST PUSH1 0x40 MLOAD DUP1 SWAP2 SUB SWAP1 REVERT JUMPDEST CALLER PUSH20 0xFFFFFFFFFFFFFFFFFFFFFFFFFFFFFFFFFFFFFFFF AND PUSH1 0xC DUP3 PUSH1 0x40 MLOAD PUSH2 0x84C SWAP2 SWAP1 PUSH2 0x3690 JUMP JUMPDEST SWAP1 DUP2 MSTORE PUSH1 0x20 ADD PUSH1 0x40 MLOAD DUP1 SWAP2 SUB SWAP1 KECCAK256 PUSH1 0x7 ADD PUSH1 0x0 SWAP1 SLOAD SWAP1 PUSH2 0x100 EXP SWAP1 DIV PUSH20 0xFFFFFFFFFFFFFFFFFFFFFFFFFFFFFFFFFFFFFFFF AND PUSH20 0xFFFFFFFFFFFFFFFFFFFFFFFFFFFFFFFFFFFFFFFF AND EQ PUSH2 0x8D4 JUMPI PUSH1 0x40 MLOAD PUSH32 0x8C379A000000000000000000000000000000000000000000000000000000000 DUP2 MSTORE PUSH1 0x4 ADD PUSH2 0x8CB SWAP1 PUSH2 0x3785 JUMP JUMPDEST PUSH1 0x40 MLOAD DUP1 SWAP2 SUB SWAP1 REVERT JUMPDEST PUSH1 0xC DUP2 PUSH1 0x40 MLOAD PUSH2 0x8E4 SWAP2 SWAP1 PUSH2 0x3690 JUMP JUMPDEST SWAP1 DUP2 MSTORE PUSH1 0x20 ADD PUSH1 0x40 MLOAD DUP1 SWAP2 SUB SWAP1 KECCAK256 PUSH1 0x2 ADD SLOAD TIMESTAMP LT PUSH2 0xA23 JUMPI PUSH1 0x1 PUSH1 0xC DUP3 PUSH1 0x40 MLOAD PUSH2 0x90E SWAP2 SWAP1 PUSH2 0x3690 JUMP JUMPDEST SWAP1 DUP2 MSTORE PUSH1 0x20 ADD PUSH1 0x40 MLOAD DUP1 SWAP2 SUB SWAP1 KECCAK256 PUSH1 0x6 ADD PUSH1 0x1 PUSH2 0x100 EXP DUP2 SLOAD DUP2 PUSH1 0xFF MUL NOT AND SWAP1 DUP4 ISZERO ISZERO MUL OR SWAP1 SSTORE POP PUSH1 0x0 PUSH1 0xC DUP3 PUSH1 0x40 MLOAD PUSH2 0x948 SWAP2 SWAP1 PUSH2 0x3690 JUMP JUMPDEST SWAP1 DUP2 MSTORE PUSH1 0x20 ADD PUSH1 0x40 MLOAD DUP1 SWAP2 SUB SWAP1 KECCAK256 PUSH1 0x3 ADD SLOAD PUSH1 0xC DUP4 PUSH1 0x40 MLOAD PUSH2 0x96A SWAP2 SWAP1 PUSH2 0x3690 JUMP JUMPDEST SWAP1 DUP2 MSTORE PUSH1 0x20 ADD PUSH1 0x40 MLOAD DUP1 SWAP2 SUB SWAP1 KECCAK256 PUSH1 0x4 ADD PUSH1 0x0 SWAP1 SLOAD SWAP1 PUSH2 0x100 EXP SWAP1 DIV PUSH4 0xFFFFFFFF AND PUSH4 0xFFFFFFFF AND PUSH2 0x99C SWAP2 SWAP1 PUSH2 0x37D4 JUMP JUMPDEST SWAP1 POP PUSH1 0x0 DUP2 PUSH1 0xC DUP5 PUSH1 0x40 MLOAD PUSH2 0x9B1 SWAP2 SWAP1 PUSH2 0x3690 JUMP JUMPDEST SWAP1 DUP2 MSTORE PUSH1 0x20 ADD PUSH1 0x40 MLOAD DUP1 SWAP2 SUB SWAP1 KECCAK256 PUSH1 0x4 ADD PUSH1 0x0 SWAP1 SLOAD SWAP1 PUSH2 0x100 EXP SWAP1 DIV PUSH4 0xFFFFFFFF AND PUSH4 0xFFFFFFFF AND PUSH1 0xC DUP6 PUSH1 0x40 MLOAD PUSH2 0x9E9 SWAP2 SWAP1 PUSH2 0x3690 JUMP JUMPDEST SWAP1 DUP2 MSTORE PUSH1 0x20 ADD PUSH1 0x40 MLOAD DUP1 SWAP2 SUB SWAP1 KECCAK256 PUSH1 0x5 ADD SLOAD PUSH2 0xA05 SWAP2 SWAP1 PUSH2 0x3837 JUMP JUMPDEST PUSH2 0xA0F SWAP2 SWAP1 PUSH2 0x3868 JUMP JUMPDEST SWAP1 POP PUSH2 0xA1C ADDRESS CALLER DUP4 PUSH2 0x2A6B JUMP JUMPDEST POP POP PUSH2 0xB5C JUMP JUMPDEST PUSH1 0x0 PUSH1 0xC DUP3 PUSH1 0x40 MLOAD PUSH2 0xA35 SWAP2 SWAP1 PUSH2 0x3690 JUMP JUMPDEST SWAP1 DUP2 MSTORE PUSH1 0x20 ADD PUSH1 0x40 MLOAD DUP1 SWAP2 SUB SWAP1 KECCAK256 PUSH1 0x3 ADD SLOAD PUSH1 0x9 PUSH1 0x0 SWAP1 SLOAD SWAP1 PUSH2 0x100 EXP SWAP1 DIV PUSH4 0xFFFFFFFF AND PUSH4 0xFFFFFFFF AND PUSH1 0xC DUP5 PUSH1 0x40 MLOAD PUSH2 0xA70 SWAP2 SWAP1 PUSH2 0x3690 JUMP JUMPDEST SWAP1 DUP2 MSTORE PUSH1 0x20 ADD PUSH1 0x40 MLOAD DUP1 SWAP2 SUB SWAP1 KECCAK256 PUSH1 0x1 ADD SLOAD TIMESTAMP PUSH2 0xA8D SWAP2 SWAP1 PUSH2 0x37D4 JUMP JUMPDEST PUSH2 0xA97 SWAP2 SWAP1 PUSH2 0x3837 JUMP JUMPDEST PUSH2 0xAA1 SWAP2 SWAP1 PUSH2 0x37D4 JUMP JUMPDEST SWAP1 POP DUP1 PUSH1 0xC DUP4 PUSH1 0x40 MLOAD PUSH2 0xAB4 SWAP2 SWAP1 PUSH2 0x3690 JUMP JUMPDEST SWAP1 DUP2 MSTORE PUSH1 0x20 ADD PUSH1 0x40 MLOAD DUP1 SWAP2 SUB SWAP1 KECCAK256 PUSH1 0x3 ADD PUSH1 0x0 DUP3 DUP3 SLOAD PUSH2 0xAD4 SWAP2 SWAP1 PUSH2 0x38AA JUMP JUMPDEST SWAP3 POP POP DUP2 SWAP1 SSTORE POP PUSH1 0x0 DUP2 PUSH1 0xC DUP5 PUSH1 0x40 MLOAD PUSH2 0xAEE SWAP2 SWAP1 PUSH2 0x3690 JUMP JUMPDEST SWAP1 DUP2 MSTORE PUSH1 0x20 ADD PUSH1 0x40 MLOAD DUP1 SWAP2 SUB SWAP1 KECCAK256 PUSH1 0x4 ADD PUSH1 0x0 SWAP1 SLOAD SWAP1 PUSH2 0x100 EXP SWAP1 DIV PUSH4 0xFFFFFFFF AND PUSH4 0xFFFFFFFF AND PUSH1 0xC DUP6 PUSH1 0x40 MLOAD PUSH2 0xB26 SWAP2 SWAP1 PUSH2 0x3690 JUMP JUMPDEST SWAP1 DUP2 MSTORE PUSH1 0x20 ADD PUSH1 0x40 MLOAD DUP1 SWAP2 SUB SWAP1 KECCAK256 PUSH1 0x5 ADD SLOAD PUSH2 0xB42 SWAP2 SWAP1 PUSH2 0x3837 JUMP JUMPDEST PUSH2 0xB4C SWAP2 SWAP1 PUSH2 0x3868 JUMP JUMPDEST SWAP1 POP PUSH2 0xB59 ADDRESS CALLER DUP4 PUSH2 0x2A6B JUMP JUMPDEST POP POP JUMPDEST POP JUMP JUMPDEST PUSH1 0x0 PUSH1 0xB PUSH1 0x0 CALLER PUSH20 0xFFFFFFFFFFFFFFFFFFFFFFFFFFFFFFFFFFFFFFFF AND PUSH20 0xFFFFFFFFFFFFFFFFFFFFFFFFFFFFFFFFFFFFFFFF AND DUP2 MSTORE PUSH1 0x20 ADD SWAP1 DUP2 MSTORE PUSH1 0x20 ADD PUSH1 0x0 KECCAK256 SLOAD SUB PUSH2 0xBE1 JUMPI PUSH1 0x40 MLOAD PUSH32 0x8C379A000000000000000000000000000000000000000000000000000000000 DUP2 MSTORE PUSH1 0x4 ADD PUSH2 0xBD8 SWAP1 PUSH2 0x392A JUMP JUMPDEST PUSH1 0x40 MLOAD DUP1 SWAP2 SUB SWAP1 REVERT JUMPDEST PUSH1 0x0 PUSH1 0xD PUSH1 0x0 CALLER PUSH20 0xFFFFFFFFFFFFFFFFFFFFFFFFFFFFFFFFFFFFFFFF AND PUSH20 0xFFFFFFFFFFFFFFFFFFFFFFFFFFFFFFFFFFFFFFFF AND DUP2 MSTORE PUSH1 0x20 ADD SWAP1 DUP2 MSTORE PUSH1 0x20 ADD PUSH1 0x0 KECCAK256 DUP1 SLOAD DUP1 PUSH1 0x20 MUL PUSH1 0x20 ADD PUSH1 0x40 MLOAD SWAP1 DUP2 ADD PUSH1 0x40 MSTORE DUP1 SWAP3 SWAP2 SWAP1 DUP2 DUP2 MSTORE PUSH1 0x20 ADD PUSH1 0x0 SWAP1 JUMPDEST DUP3 DUP3 LT ISZERO PUSH2 0xCEE JUMPI DUP4 DUP3 SWAP1 PUSH1 0x0 MSTORE PUSH1 0x20 PUSH1 0x0 KECCAK256 ADD DUP1 SLOAD PUSH2 0xC61 SWAP1 PUSH2 0x3623 JUMP JUMPDEST DUP1 PUSH1 0x1F ADD PUSH1 0x20 DUP1 SWAP2 DIV MUL PUSH1 0x20 ADD PUSH1 0x40 MLOAD SWAP1 DUP2 ADD PUSH1 0x40 MSTORE DUP1 SWAP3 SWAP2 SWAP1 DUP2 DUP2 MSTORE PUSH1 0x20 ADD DUP3 DUP1 SLOAD PUSH2 0xC8D SWAP1 PUSH2 0x3623 JUMP JUMPDEST DUP1 ISZERO PUSH2 0xCDA JUMPI DUP1 PUSH1 0x1F LT PUSH2 0xCAF JUMPI PUSH2 0x100 DUP1 DUP4 SLOAD DIV MUL DUP4 MSTORE SWAP2 PUSH1 0x20 ADD SWAP2 PUSH2 0xCDA JUMP JUMPDEST DUP3 ADD SWAP2 SWAP1 PUSH1 0x0 MSTORE PUSH1 0x20 PUSH1 0x0 KECCAK256 SWAP1 JUMPDEST DUP2 SLOAD DUP2 MSTORE SWAP1 PUSH1 0x1 ADD SWAP1 PUSH1 0x20 ADD DUP1 DUP4 GT PUSH2 0xCBD JUMPI DUP3 SWAP1 SUB PUSH1 0x1F AND DUP3 ADD SWAP2 JUMPDEST POP POP POP POP POP DUP2 MSTORE PUSH1 0x20 ADD SWAP1 PUSH1 0x1 ADD SWAP1 PUSH2 0xC42 JUMP JUMPDEST POP POP POP POP SWAP1 POP PUSH1 0x0 DUP1 JUMPDEST DUP3 MLOAD DUP2 LT ISZERO PUSH2 0x1102 JUMPI PUSH1 0xC DUP4 DUP3 DUP2 MLOAD DUP2 LT PUSH2 0xD16 JUMPI PUSH2 0xD15 PUSH2 0x394A JUMP JUMPDEST JUMPDEST PUSH1 0x20 MUL PUSH1 0x20 ADD ADD MLOAD PUSH1 0x40 MLOAD PUSH2 0xD2B SWAP2 SWAP1 PUSH2 0x3690 JUMP JUMPDEST SWAP1 DUP2 MSTORE PUSH1 0x20 ADD PUSH1 0x40 MLOAD DUP1 SWAP2 SUB SWAP1 KECCAK256 PUSH1 0x6 ADD PUSH1 0x1 SWAP1 SLOAD SWAP1 PUSH2 0x100 EXP SWAP1 DIV PUSH1 0xFF AND PUSH2 0x10EF JUMPI PUSH1 0xC DUP4 DUP3 DUP2 MLOAD DUP2 LT PUSH2 0xD63 JUMPI PUSH2 0xD62 PUSH2 0x394A JUMP JUMPDEST JUMPDEST PUSH1 0x20 MUL PUSH1 0x20 ADD ADD MLOAD PUSH1 0x40 MLOAD PUSH2 0xD78 SWAP2 SWAP1 PUSH2 0x3690 JUMP JUMPDEST SWAP1 DUP2 MSTORE PUSH1 0x20 ADD PUSH1 0x40 MLOAD DUP1 SWAP2 SUB SWAP1 KECCAK256 PUSH1 0x2 ADD SLOAD TIMESTAMP LT PUSH2 0xF36 JUMPI PUSH1 0x1 PUSH1 0xC DUP5 DUP4 DUP2 MLOAD DUP2 LT PUSH2 0xDA7 JUMPI PUSH2 0xDA6 PUSH2 0x394A JUMP JUMPDEST JUMPDEST PUSH1 0x20 MUL PUSH1 0x20 ADD ADD MLOAD PUSH1 0x40 MLOAD PUSH2 0xDBC SWAP2 SWAP1 PUSH2 0x3690 JUMP JUMPDEST SWAP1 DUP2 MSTORE PUSH1 0x20 ADD PUSH1 0x40 MLOAD DUP1 SWAP2 SUB SWAP1 KECCAK256 PUSH1 0x6 ADD PUSH1 0x1 PUSH2 0x100 EXP DUP2 SLOAD DUP2 PUSH1 0xFF MUL NOT AND SWAP1 DUP4 ISZERO ISZERO MUL OR SWAP1 SSTORE POP PUSH1 0x0 PUSH1 0xC DUP5 DUP4 DUP2 MLOAD DUP2 LT PUSH2 0xDFB JUMPI PUSH2 0xDFA PUSH2 0x394A JUMP JUMPDEST JUMPDEST PUSH1 0x20 MUL PUSH1 0x20 ADD ADD MLOAD PUSH1 0x40 MLOAD PUSH2 0xE10 SWAP2 SWAP1 PUSH2 0x3690 JUMP JUMPDEST SWAP1 DUP2 MSTORE PUSH1 0x20 ADD PUSH1 0x40 MLOAD DUP1 SWAP2 SUB SWAP1 KECCAK256 PUSH1 0x3 ADD SLOAD PUSH1 0xC DUP6 DUP5 DUP2 MLOAD DUP2 LT PUSH2 0xE37 JUMPI PUSH2 0xE36 PUSH2 0x394A JUMP JUMPDEST JUMPDEST PUSH1 0x20 MUL PUSH1 0x20 ADD ADD MLOAD PUSH1 0x40 MLOAD PUSH2 0xE4C SWAP2 SWAP1 PUSH2 0x3690 JUMP JUMPDEST SWAP1 DUP2 MSTORE PUSH1 0x20 ADD PUSH1 0x40 MLOAD DUP1 SWAP2 SUB SWAP1 KECCAK256 PUSH1 0x4 ADD PUSH1 0x0 SWAP1 SLOAD SWAP1 PUSH2 0x100 EXP SWAP1 DIV PUSH4 0xFFFFFFFF AND PUSH4 0xFFFFFFFF AND PUSH2 0xE7E SWAP2 SWAP1 PUSH2 0x37D4 JUMP JUMPDEST SWAP1 POP DUP1 PUSH1 0xC DUP6 DUP5 DUP2 MLOAD DUP2 LT PUSH2 0xE96 JUMPI PUSH2 0xE95 PUSH2 0x394A JUMP JUMPDEST JUMPDEST PUSH1 0x20 MUL PUSH1 0x20 ADD ADD MLOAD PUSH1 0x40 MLOAD PUSH2 0xEAB SWAP2 SWAP1 PUSH2 0x3690 JUMP JUMPDEST SWAP1 DUP2 MSTORE PUSH1 0x20 ADD PUSH1 0x40 MLOAD DUP1 SWAP2 SUB SWAP1 KECCAK256 PUSH1 0x4 ADD PUSH1 0x0 SWAP1 SLOAD SWAP1 PUSH2 0x100 EXP SWAP1 DIV PUSH4 0xFFFFFFFF AND PUSH4 0xFFFFFFFF AND PUSH1 0xC DUP7 DUP6 DUP2 MLOAD DUP2 LT PUSH2 0xEE8 JUMPI PUSH2 0xEE7 PUSH2 0x394A JUMP JUMPDEST JUMPDEST PUSH1 0x20 MUL PUSH1 0x20 ADD ADD MLOAD PUSH1 0x40 MLOAD PUSH2 0xEFD SWAP2 SWAP1 PUSH2 0x3690 JUMP JUMPDEST SWAP1 DUP2 MSTORE PUSH1 0x20 ADD PUSH1 0x40 MLOAD DUP1 SWAP2 SUB SWAP1 KECCAK256 PUSH1 0x5 ADD SLOAD PUSH2 0xF19 SWAP2 SWAP1 PUSH2 0x3837 JUMP JUMPDEST PUSH2 0xF23 SWAP2 SWAP1 PUSH2 0x3868 JUMP JUMPDEST DUP4 PUSH2 0xF2E SWAP2 SWAP1 PUSH2 0x38AA JUMP JUMPDEST SWAP3 POP POP PUSH2 0x10EE JUMP JUMPDEST PUSH1 0x0 PUSH1 0xC DUP5 DUP4 DUP2 MLOAD DUP2 LT PUSH2 0xF4D JUMPI PUSH2 0xF4C PUSH2 0x394A JUMP JUMPDEST JUMPDEST PUSH1 0x20 MUL PUSH1 0x20 ADD ADD MLOAD PUSH1 0x40 MLOAD PUSH2 0xF62 SWAP2 SWAP1 PUSH2 0x3690 JUMP JUMPDEST SWAP1 DUP2 MSTORE PUSH1 0x20 ADD PUSH1 0x40 MLOAD DUP1 SWAP2 SUB SWAP1 KECCAK256 PUSH1 0x3 ADD SLOAD PUSH1 0x9 PUSH1 0x0 SWAP1 SLOAD SWAP1 PUSH2 0x100 EXP SWAP1 DIV PUSH4 0xFFFFFFFF AND PUSH4 0xFFFFFFFF AND PUSH1 0xC DUP7 DUP6 DUP2 MLOAD DUP2 LT PUSH2 0xFA2 JUMPI PUSH2 0xFA1 PUSH2 0x394A JUMP JUMPDEST JUMPDEST PUSH1 0x20 MUL PUSH1 0x20 ADD ADD MLOAD PUSH1 0x40 MLOAD PUSH2 0xFB7 SWAP2 SWAP1 PUSH2 0x3690 JUMP JUMPDEST SWAP1 DUP2 MSTORE PUSH1 0x20 ADD PUSH1 0x40 MLOAD DUP1 SWAP2 SUB SWAP1 KECCAK256 PUSH1 0x1 ADD SLOAD TIMESTAMP PUSH2 0xFD4 SWAP2 SWAP1 PUSH2 0x37D4 JUMP JUMPDEST PUSH2 0xFDE SWAP2 SWAP1 PUSH2 0x3837 JUMP JUMPDEST PUSH2 0xFE8 SWAP2 SWAP1 PUSH2 0x37D4 JUMP JUMPDEST SWAP1 POP DUP1 PUSH1 0xC DUP6 DUP5 DUP2 MLOAD DUP2 LT PUSH2 0x1000 JUMPI PUSH2 0xFFF PUSH2 0x394A JUMP JUMPDEST JUMPDEST PUSH1 0x20 MUL PUSH1 0x20 ADD ADD MLOAD PUSH1 0x40 MLOAD PUSH2 0x1015 SWAP2 SWAP1 PUSH2 0x3690 JUMP JUMPDEST SWAP1 DUP2 MSTORE PUSH1 0x20 ADD PUSH1 0x40 MLOAD DUP1 SWAP2 SUB SWAP1 KECCAK256 PUSH1 0x3 ADD PUSH1 0x0 DUP3 DUP3 SLOAD PUSH2 0x1035 SWAP2 SWAP1 PUSH2 0x38AA JUMP JUMPDEST SWAP3 POP POP DUP2 SWAP1 SSTORE POP DUP1 PUSH1 0xC DUP6 DUP5 DUP2 MLOAD DUP2 LT PUSH2 0x1052 JUMPI PUSH2 0x1051 PUSH2 0x394A JUMP JUMPDEST JUMPDEST PUSH1 0x20 MUL PUSH1 0x20 ADD ADD MLOAD PUSH1 0x40 MLOAD PUSH2 0x1067 SWAP2 SWAP1 PUSH2 0x3690 JUMP JUMPDEST SWAP1 DUP2 MSTORE PUSH1 0x20 ADD PUSH1 0x40 MLOAD DUP1 SWAP2 SUB SWAP1 KECCAK256 PUSH1 0x4 ADD PUSH1 0x0 SWAP1 SLOAD SWAP1 PUSH2 0x100 EXP SWAP1 DIV PUSH4 0xFFFFFFFF AND PUSH4 0xFFFFFFFF AND PUSH1 0xC DUP7 DUP6 DUP2 MLOAD DUP2 LT PUSH2 0x10A4 JUMPI PUSH2 0x10A3 PUSH2 0x394A JUMP JUMPDEST JUMPDEST PUSH1 0x20 MUL PUSH1 0x20 ADD ADD MLOAD PUSH1 0x40 MLOAD PUSH2 0x10B9 SWAP2 SWAP1 PUSH2 0x3690 JUMP JUMPDEST SWAP1 DUP2 MSTORE PUSH1 0x20 ADD PUSH1 0x40 MLOAD DUP1 SWAP2 SUB SWAP1 KECCAK256 PUSH1 0x5 ADD SLOAD PUSH2 0x10D5 SWAP2 SWAP1 PUSH2 0x3837 JUMP JUMPDEST PUSH2 0x10DF SWAP2 SWAP1 PUSH2 0x3868 JUMP JUMPDEST DUP4 PUSH2 0x10EA SWAP2 SWAP1 PUSH2 0x38AA JUMP JUMPDEST SWAP3 POP POP JUMPDEST JUMPDEST DUP1 DUP1 PUSH2 0x10FA SWAP1 PUSH2 0x3979 JUMP JUMPDEST SWAP2 POP POP PUSH2 0xCF8 JUMP JUMPDEST POP PUSH2 0x110E ADDRESS CALLER DUP4 PUSH2 0x2A6B JUMP JUMPDEST POP POP JUMP JUMPDEST PUSH1 0x3 PUSH1 0x0 SWAP1 SLOAD SWAP1 PUSH2 0x100 EXP SWAP1 DIV PUSH1 0xFF AND DUP2 JUMP JUMPDEST PUSH1 0xC DUP4 PUSH1 0x40 MLOAD PUSH2 0x1135 SWAP2 SWAP1 PUSH2 0x3690 JUMP JUMPDEST SWAP1 DUP2 MSTORE PUSH1 0x20 ADD PUSH1 0x40 MLOAD DUP1 SWAP2 SUB SWAP1 KECCAK256 PUSH1 0x6 ADD PUSH1 0x0 SWAP1 SLOAD SWAP1 PUSH2 0x100 EXP SWAP1 DIV PUSH1 0xFF AND ISZERO PUSH2 0x1194 JUMPI PUSH1 0x40 MLOAD PUSH32 0x8C379A000000000000000000000000000000000000000000000000000000000 DUP2 MSTORE PUSH1 0x4 ADD PUSH2 0x118B SWAP1 PUSH2 0x3A0D JUMP JUMPDEST PUSH1 0x40 MLOAD DUP1 SWAP2 SUB SWAP1 REVERT JUMPDEST DUP2 PUSH2 0x119E CALLER PUSH2 0x1466 JUMP JUMPDEST LT ISZERO PUSH2 0x11DF JUMPI PUSH1 0x40 MLOAD PUSH32 0x8C379A000000000000000000000000000000000000000000000000000000000 DUP2 MSTORE PUSH1 0x4 ADD PUSH2 0x11D6 SWAP1 PUSH2 0x3A79 JUMP JUMPDEST PUSH1 0x40 MLOAD DUP1 SWAP2 SUB SWAP1 REVERT JUMPDEST PUSH2 0x11EA CALLER ADDRESS DUP5 PUSH2 0x2A6B JUMP JUMPDEST PUSH1 0x40 MLOAD DUP1 PUSH2 0x140 ADD PUSH1 0x40 MSTORE DUP1 DUP7 DUP2 MSTORE PUSH1 0x20 ADD TIMESTAMP DUP2 MSTORE PUSH1 0x20 ADD PUSH1 0x9 PUSH1 0x0 SWAP1 SLOAD SWAP1 PUSH2 0x100 EXP SWAP1 DIV PUSH4 0xFFFFFFFF AND DUP7 PUSH2 0x1220 SWAP2 SWAP1 PUSH2 0x3A99 JUMP JUMPDEST PUSH4 0xFFFFFFFF AND TIMESTAMP PUSH2 0x1231 SWAP2 SWAP1 PUSH2 0x38AA JUMP JUMPDEST DUP2 MSTORE PUSH1 0x20 ADD PUSH1 0x0 DUP2 MSTORE PUSH1 0x20 ADD DUP6 PUSH4 0xFFFFFFFF AND DUP2 MSTORE PUSH1 0x20 ADD DUP4 DUP2 MSTORE PUSH1 0x20 ADD PUSH1 0x1 ISZERO ISZERO DUP2 MSTORE PUSH1 0x20 ADD PUSH1 0x0 ISZERO ISZERO DUP2 MSTORE PUSH1 0x20 ADD CALLER PUSH20 0xFFFFFFFFFFFFFFFFFFFFFFFFFFFFFFFFFFFFFFFF AND DUP2 MSTORE PUSH1 0x20 ADD DUP3 PUSH20 0xFFFFFFFFFFFFFFFFFFFFFFFFFFFFFFFFFFFFFFFF AND DUP2 MSTORE POP PUSH1 0xC DUP5 PUSH1 0x40 MLOAD PUSH2 0x12A7 SWAP2 SWAP1 PUSH2 0x3690 JUMP JUMPDEST SWAP1 DUP2 MSTORE PUSH1 0x20 ADD PUSH1 0x40 MLOAD DUP1 SWAP2 SUB SWAP1 KECCAK256 PUSH1 0x0 DUP3 ADD MLOAD DUP2 PUSH1 0x0 ADD SWAP1 DUP2 PUSH2 0x12CA SWAP2 SWAP1 PUSH2 0x3C82 JUMP JUMPDEST POP PUSH1 0x20 DUP3 ADD MLOAD DUP2 PUSH1 0x1 ADD SSTORE PUSH1 0x40 DUP3 ADD MLOAD DUP2 PUSH1 0x2 ADD SSTORE PUSH1 0x60 DUP3 ADD MLOAD DUP2 PUSH1 0x3 ADD SSTORE PUSH1 0x80 DUP3 ADD MLOAD DUP2 PUSH1 0x4 ADD PUSH1 0x0 PUSH2 0x100 EXP DUP2 SLOAD DUP2 PUSH4 0xFFFFFFFF MUL NOT AND SWAP1 DUP4 PUSH4 0xFFFFFFFF AND MUL OR SWAP1 SSTORE POP PUSH1 0xA0 DUP3 ADD MLOAD DUP2 PUSH1 0x5 ADD SSTORE PUSH1 0xC0 DUP3 ADD MLOAD DUP2 PUSH1 0x6 ADD PUSH1 0x0 PUSH2 0x100 EXP DUP2 SLOAD DUP2 PUSH1 0xFF MUL NOT AND SWAP1 DUP4 ISZERO ISZERO MUL OR SWAP1 SSTORE POP PUSH1 0xE0 DUP3 ADD MLOAD DUP2 PUSH1 0x6 ADD PUSH1 0x1 PUSH2 0x100 EXP DUP2 SLOAD DUP2 PUSH1 0xFF MUL NOT AND SWAP1 DUP4 ISZERO ISZERO MUL OR SWAP1 SSTORE POP PUSH2 0x100 DUP3 ADD MLOAD DUP2 PUSH1 0x6 ADD PUSH1 0x2 PUSH2 0x100 EXP DUP2 SLOAD DUP2 PUSH20 0xFFFFFFFFFFFFFFFFFFFFFFFFFFFFFFFFFFFFFFFF MUL NOT AND SWAP1 DUP4 PUSH20 0xFFFFFFFFFFFFFFFFFFFFFFFFFFFFFFFFFFFFFFFF AND MUL OR SWAP1 SSTORE POP PUSH2 0x120 DUP3 ADD MLOAD DUP2 PUSH1 0x7 ADD PUSH1 0x0 PUSH2 0x100 EXP DUP2 SLOAD DUP2 PUSH20 0xFFFFFFFFFFFFFFFFFFFFFFFFFFFFFFFFFFFFFFFF MUL NOT AND SWAP1 DUP4 PUSH20 0xFFFFFFFFFFFFFFFFFFFFFFFFFFFFFFFFFFFFFFFF AND MUL OR SWAP1 SSTORE POP SWAP1 POP POP PUSH1 0xD PUSH1 0x0 DUP3 PUSH20 0xFFFFFFFFFFFFFFFFFFFFFFFFFFFFFFFFFFFFFFFF AND PUSH20 0xFFFFFFFFFFFFFFFFFFFFFFFFFFFFFFFFFFFFFFFF AND DUP2 MSTORE PUSH1 0x20 ADD SWAP1 DUP2 MSTORE PUSH1 0x20 ADD PUSH1 0x0 KECCAK256 DUP4 SWAP1 DUP1 PUSH1 0x1 DUP2 SLOAD ADD DUP1 DUP3 SSTORE DUP1 SWAP2 POP POP PUSH1 0x1 SWAP1 SUB SWAP1 PUSH1 0x0 MSTORE PUSH1 0x20 PUSH1 0x0 KECCAK256 ADD PUSH1 0x0 SWAP1 SWAP2 SWAP1 SWAP2 SWAP1 SWAP2 POP SWAP1 DUP2 PUSH2 0x145E SWAP2 SWAP1 PUSH2 0x3C82 JUMP JUMPDEST POP POP POP POP POP POP JUMP JUMPDEST PUSH1 0x0 PUSH1 0x4 PUSH1 0x0 DUP4 PUSH20 0xFFFFFFFFFFFFFFFFFFFFFFFFFFFFFFFFFFFFFFFF AND PUSH20 0xFFFFFFFFFFFFFFFFFFFFFFFFFFFFFFFFFFFFFFFF AND DUP2 MSTORE PUSH1 0x20 ADD SWAP1 DUP2 MSTORE PUSH1 0x20 ADD PUSH1 0x0 KECCAK256 SLOAD SWAP1 POP SWAP2 SWAP1 POP JUMP JUMPDEST PUSH1 0x0 DUP1 PUSH1 0x2 PUSH1 0x6 DUP5 PUSH1 0x40 MLOAD PUSH2 0x14C4 SWAP2 SWAP1 PUSH2 0x3690 JUMP JUMPDEST SWAP1 DUP2 MSTORE PUSH1 0x20 ADD PUSH1 0x40 MLOAD DUP1 SWAP2 SUB SWAP1 KECCAK256 PUSH1 0x0 ADD PUSH1 0x14 SWAP1 SLOAD SWAP1 PUSH2 0x100 EXP SWAP1 DIV PUSH1 0xFF AND PUSH1 0xFF AND SUB PUSH2 0x15FC JUMPI PUSH1 0x0 PUSH1 0xA PUSH1 0x0 PUSH1 0x6 DUP7 PUSH1 0x40 MLOAD PUSH2 0x1501 SWAP2 SWAP1 PUSH2 0x3690 JUMP JUMPDEST SWAP1 DUP2 MSTORE PUSH1 0x20 ADD PUSH1 0x40 MLOAD DUP1 SWAP2 SUB SWAP1 KECCAK256 PUSH1 0x0 ADD PUSH1 0x0 SWAP1 SLOAD SWAP1 PUSH2 0x100 EXP SWAP1 DIV PUSH20 0xFFFFFFFFFFFFFFFFFFFFFFFFFFFFFFFFFFFFFFFF AND PUSH20 0xFFFFFFFFFFFFFFFFFFFFFFFFFFFFFFFFFFFFFFFF AND PUSH20 0xFFFFFFFFFFFFFFFFFFFFFFFFFFFFFFFFFFFFFFFF AND DUP2 MSTORE PUSH1 0x20 ADD SWAP1 DUP2 MSTORE PUSH1 0x20 ADD PUSH1 0x0 KECCAK256 SLOAD GT PUSH1 0x0 PUSH1 0xB PUSH1 0x0 PUSH1 0x6 DUP8 PUSH1 0x40 MLOAD PUSH2 0x1585 SWAP2 SWAP1 PUSH2 0x3690 JUMP JUMPDEST SWAP1 DUP2 MSTORE PUSH1 0x20 ADD PUSH1 0x40 MLOAD DUP1 SWAP2 SUB SWAP1 KECCAK256 PUSH1 0x0 ADD PUSH1 0x0 SWAP1 SLOAD SWAP1 PUSH2 0x100 EXP SWAP1 DIV PUSH20 0xFFFFFFFFFFFFFFFFFFFFFFFFFFFFFFFFFFFFFFFF AND PUSH20 0xFFFFFFFFFFFFFFFFFFFFFFFFFFFFFFFFFFFFFFFF AND PUSH20 0xFFFFFFFFFFFFFFFFFFFFFFFFFFFFFFFFFFFFFFFF AND DUP2 MSTORE PUSH1 0x20 ADD SWAP1 DUP2 MSTORE PUSH1 0x20 ADD PUSH1 0x0 KECCAK256 SLOAD GT SWAP2 POP SWAP2 POP PUSH2 0x1604 JUMP JUMPDEST PUSH1 0x0 DUP1 SWAP2 POP SWAP2 POP JUMPDEST SWAP2 POP SWAP2 JUMP JUMPDEST PUSH2 0x1611 PUSH2 0x2C7B JUMP JUMPDEST PUSH1 0xC DUP3 PUSH1 0x40 MLOAD PUSH2 0x1621 SWAP2 SWAP1 PUSH2 0x3690 JUMP JUMPDEST SWAP1 DUP2 MSTORE PUSH1 0x20 ADD PUSH1 0x40 MLOAD DUP1 SWAP2 SUB SWAP1 KECCAK256 PUSH1 0x40 MLOAD DUP1 PUSH2 0x140 ADD PUSH1 0x40 MSTORE SWAP1 DUP2 PUSH1 0x0 DUP3 ADD DUP1 SLOAD PUSH2 0x164B SWAP1 PUSH2 0x3623 JUMP JUMPDEST DUP1 PUSH1 0x1F ADD PUSH1 0x20 DUP1 SWAP2 DIV MUL PUSH1 0x20 ADD PUSH1 0x40 MLOAD SWAP1 DUP2 ADD PUSH1 0x40 MSTORE DUP1 SWAP3 SWAP2 SWAP1 DUP2 DUP2 MSTORE PUSH1 0x20 ADD DUP3 DUP1 SLOAD PUSH2 0x1677 SWAP1 PUSH2 0x3623 JUMP JUMPDEST DUP1 ISZERO PUSH2 0x16C4 JUMPI DUP1 PUSH1 0x1F LT PUSH2 0x1699 JUMPI PUSH2 0x100 DUP1 DUP4 SLOAD DIV MUL DUP4 MSTORE SWAP2 PUSH1 0x20 ADD SWAP2 PUSH2 0x16C4 JUMP JUMPDEST DUP3 ADD SWAP2 SWAP1 PUSH1 0x0 MSTORE PUSH1 0x20 PUSH1 0x0 KECCAK256 SWAP1 JUMPDEST DUP2 SLOAD DUP2 MSTORE SWAP1 PUSH1 0x1 ADD SWAP1 PUSH1 0x20 ADD DUP1 DUP4 GT PUSH2 0x16A7 JUMPI DUP3 SWAP1 SUB PUSH1 0x1F AND DUP3 ADD SWAP2 JUMPDEST POP POP POP POP POP DUP2 MSTORE PUSH1 0x20 ADD PUSH1 0x1 DUP3 ADD SLOAD DUP2 MSTORE PUSH1 0x20 ADD PUSH1 0x2 DUP3 ADD SLOAD DUP2 MSTORE PUSH1 0x20 ADD PUSH1 0x3 DUP3 ADD SLOAD DUP2 MSTORE PUSH1 0x20 ADD PUSH1 0x4 DUP3 ADD PUSH1 0x0 SWAP1 SLOAD SWAP1 PUSH2 0x100 EXP SWAP1 DIV PUSH4 0xFFFFFFFF AND PUSH4 0xFFFFFFFF AND PUSH4 0xFFFFFFFF AND DUP2 MSTORE PUSH1 0x20 ADD PUSH1 0x5 DUP3 ADD SLOAD DUP2 MSTORE PUSH1 0x20 ADD PUSH1 0x6 DUP3 ADD PUSH1 0x0 SWAP1 SLOAD SWAP1 PUSH2 0x100 EXP SWAP1 DIV PUSH1 0xFF AND ISZERO ISZERO ISZERO ISZERO DUP2 MSTORE PUSH1 0x20 ADD PUSH1 0x6 DUP3 ADD PUSH1 0x1 SWAP1 SLOAD SWAP1 PUSH2 0x100 EXP SWAP1 DIV PUSH1 0xFF AND ISZERO ISZERO ISZERO ISZERO DUP2 MSTORE PUSH1 0x20 ADD PUSH1 0x6 DUP3 ADD PUSH1 0x2 SWAP1 SLOAD SWAP1 PUSH2 0x100 EXP SWAP1 DIV PUSH20 0xFFFFFFFFFFFFFFFFFFFFFFFFFFFFFFFFFFFFFFFF AND PUSH20 0xFFFFFFFFFFFFFFFFFFFFFFFFFFFFFFFFFFFFFFFF AND PUSH20 0xFFFFFFFFFFFFFFFFFFFFFFFFFFFFFFFFFFFFFFFF AND DUP2 MSTORE PUSH1 0x20 ADD PUSH1 0x7 DUP3 ADD PUSH1 0x0 SWAP1 SLOAD SWAP1 PUSH2 0x100 EXP SWAP1 DIV PUSH20 0xFFFFFFFFFFFFFFFFFFFFFFFFFFFFFFFFFFFFFFFF AND PUSH20 0xFFFFFFFFFFFFFFFFFFFFFFFFFFFFFFFFFFFFFFFF AND PUSH20 0xFFFFFFFFFFFFFFFFFFFFFFFFFFFFFFFFFFFFFFFF AND DUP2 MSTORE POP POP SWAP1 POP SWAP2 SWAP1 POP JUMP JUMPDEST PUSH1 0x0 PUSH20 0xFFFFFFFFFFFFFFFFFFFFFFFFFFFFFFFFFFFFFFFF AND DUP2 PUSH20 0xFFFFFFFFFFFFFFFFFFFFFFFFFFFFFFFFFFFFFFFF AND SUB PUSH2 0x183D JUMPI PUSH1 0x0 DUP1 REVERT JUMPDEST PUSH1 0x1 PUSH1 0x6 DUP4 PUSH1 0x40 MLOAD PUSH2 0x184F SWAP2 SWAP1 PUSH2 0x3690 JUMP JUMPDEST SWAP1 DUP2 MSTORE PUSH1 0x20 ADD PUSH1 0x40 MLOAD DUP1 SWAP2 SUB SWAP1 KECCAK256 PUSH1 0x0 ADD PUSH1 0x14 SWAP1 SLOAD SWAP1 PUSH2 0x100 EXP SWAP1 DIV PUSH1 0xFF AND PUSH1 0xFF AND SUB PUSH2 0x18DB JUMPI DUP1 PUSH1 0x6 DUP4 PUSH1 0x40 MLOAD PUSH2 0x1887 SWAP2 SWAP1 PUSH2 0x3690 JUMP JUMPDEST SWAP1 DUP2 MSTORE PUSH1 0x20 ADD PUSH1 0x40 MLOAD DUP1 SWAP2 SUB SWAP1 KECCAK256 PUSH1 0x0 ADD PUSH1 0x0 PUSH2 0x100 EXP DUP2 SLOAD DUP2 PUSH20 0xFFFFFFFFFFFFFFFFFFFFFFFFFFFFFFFFFFFFFFFF MUL NOT AND SWAP1 DUP4 PUSH20 0xFFFFFFFFFFFFFFFFFFFFFFFFFFFFFFFFFFFFFFFF AND MUL OR SWAP1 SSTORE POP PUSH2 0x19B5 JUMP JUMPDEST CALLER PUSH20 0xFFFFFFFFFFFFFFFFFFFFFFFFFFFFFFFFFFFFFFFF AND PUSH1 0x6 DUP4 PUSH1 0x40 MLOAD PUSH2 0x1902 SWAP2 SWAP1 PUSH2 0x3690 JUMP JUMPDEST SWAP1 DUP2 MSTORE PUSH1 0x20 ADD PUSH1 0x40 MLOAD DUP1 SWAP2 SUB SWAP1 KECCAK256 PUSH1 0x0 ADD PUSH1 0x0 SWAP1 SLOAD SWAP1 PUSH2 0x100 EXP SWAP1 DIV PUSH20 0xFFFFFFFFFFFFFFFFFFFFFFFFFFFFFFFFFFFFFFFF AND PUSH20 0xFFFFFFFFFFFFFFFFFFFFFFFFFFFFFFFFFFFFFFFF AND EQ PUSH2 0x1954 JUMPI PUSH1 0x0 DUP1 REVERT JUMPDEST DUP1 PUSH1 0x6 DUP4 PUSH1 0x40 MLOAD PUSH2 0x1965 SWAP2 SWAP1 PUSH2 0x3690 JUMP JUMPDEST SWAP1 DUP2 MSTORE PUSH1 0x20 ADD PUSH1 0x40 MLOAD DUP1 SWAP2 SUB SWAP1 KECCAK256 PUSH1 0x0 ADD PUSH1 0x0 PUSH2 0x100 EXP DUP2 SLOAD DUP2 PUSH20 0xFFFFFFFFFFFFFFFFFFFFFFFFFFFFFFFFFFFFFFFF MUL NOT AND SWAP1 DUP4 PUSH20 0xFFFFFFFFFFFFFFFFFFFFFFFFFFFFFFFFFFFFFFFF AND MUL OR SWAP1 SSTORE POP JUMPDEST POP POP JUMP JUMPDEST PUSH1 0x0 PUSH20 0xFFFFFFFFFFFFFFFFFFFFFFFFFFFFFFFFFFFFFFFF AND PUSH1 0x6 DUP3 PUSH1 0x40 MLOAD PUSH2 0x19E1 SWAP2 SWAP1 PUSH2 0x3690 JUMP JUMPDEST SWAP1 DUP2 MSTORE PUSH1 0x20 ADD PUSH1 0x40 MLOAD DUP1 SWAP2 SUB SWAP1 KECCAK256 PUSH1 0x0 ADD PUSH1 0x0 SWAP1 SLOAD SWAP1 PUSH2 0x100 EXP SWAP1 DIV PUSH20 0xFFFFFFFFFFFFFFFFFFFFFFFFFFFFFFFFFFFFFFFF AND PUSH20 0xFFFFFFFFFFFFFFFFFFFFFFFFFFFFFFFFFFFFFFFF AND EQ PUSH2 0x1A33 JUMPI PUSH1 0x0 DUP1 REVERT JUMPDEST PUSH1 0x0 PUSH1 0xA PUSH1 0x0 CALLER PUSH20 0xFFFFFFFFFFFFFFFFFFFFFFFFFFFFFFFFFFFFFFFF AND PUSH20 0xFFFFFFFFFFFFFFFFFFFFFFFFFFFFFFFFFFFFFFFF AND DUP2 MSTORE PUSH1 0x20 ADD SWAP1 DUP2 MSTORE PUSH1 0x20 ADD PUSH1 0x0 KECCAK256 SLOAD SUB PUSH2 0x1B37 JUMPI PUSH1 0x40 MLOAD DUP1 PUSH1 0x40 ADD PUSH1 0x40 MSTORE DUP1 CALLER PUSH20 0xFFFFFFFFFFFFFFFFFFFFFFFFFFFFFFFFFFFFFFFF AND DUP2 MSTORE PUSH1 0x20 ADD PUSH1 0x1 PUSH1 0xFF AND DUP2 MSTORE POP PUSH1 0x6 DUP3 PUSH1 0x40 MLOAD PUSH2 0x1AB9 SWAP2 SWAP1 PUSH2 0x3690 JUMP JUMPDEST SWAP1 DUP2 MSTORE PUSH1 0x20 ADD PUSH1 0x40 MLOAD DUP1 SWAP2 SUB SWAP1 KECCAK256 PUSH1 0x0 DUP3 ADD MLOAD DUP2 PUSH1 0x0 ADD PUSH1 0x0 PUSH2 0x100 EXP DUP2 SLOAD DUP2 PUSH20 0xFFFFFFFFFFFFFFFFFFFFFFFFFFFFFFFFFFFFFFFF MUL NOT AND SWAP1 DUP4 PUSH20 0xFFFFFFFFFFFFFFFFFFFFFFFFFFFFFFFFFFFFFFFF AND MUL OR SWAP1 SSTORE POP PUSH1 0x20 DUP3 ADD MLOAD DUP2 PUSH1 0x0 ADD PUSH1 0x14 PUSH2 0x100 EXP DUP2 SLOAD DUP2 PUSH1 0xFF MUL NOT AND SWAP1 DUP4 PUSH1 0xFF AND MUL OR SWAP1 SSTORE POP SWAP1 POP POP PUSH2 0x1BF0 JUMP JUMPDEST PUSH1 0x40 MLOAD DUP1 PUSH1 0x40 ADD PUSH1 0x40 MSTORE DUP1 CALLER PUSH20 0xFFFFFFFFFFFFFFFFFFFFFFFFFFFFFFFFFFFFFFFF AND DUP2 MSTORE PUSH1 0x20 ADD PUSH1 0x2 PUSH1 0xFF AND DUP2 MSTORE POP PUSH1 0x6 DUP3 PUSH1 0x40 MLOAD PUSH2 0x1B76 SWAP2 SWAP1 PUSH2 0x3690 JUMP JUMPDEST SWAP1 DUP2 MSTORE PUSH1 0x20 ADD PUSH1 0x40 MLOAD DUP1 SWAP2 SUB SWAP1 KECCAK256 PUSH1 0x0 DUP3 ADD MLOAD DUP2 PUSH1 0x0 ADD PUSH1 0x0 PUSH2 0x100 EXP DUP2 SLOAD DUP2 PUSH20 0xFFFFFFFFFFFFFFFFFFFFFFFFFFFFFFFFFFFFFFFF MUL NOT AND SWAP1 DUP4 PUSH20 0xFFFFFFFFFFFFFFFFFFFFFFFFFFFFFFFFFFFFFFFF AND MUL OR SWAP1 SSTORE POP PUSH1 0x20 DUP3 ADD MLOAD DUP2 PUSH1 0x0 ADD PUSH1 0x14 PUSH2 0x100 EXP DUP2 SLOAD DUP2 PUSH1 0xFF MUL NOT AND SWAP1 DUP4 PUSH1 0xFF AND MUL OR SWAP1 SSTORE POP SWAP1 POP POP JUMPDEST POP JUMP JUMPDEST PUSH1 0x1 DUP1 SLOAD PUSH2 0x1C00 SWAP1 PUSH2 0x3623 JUMP JUMPDEST DUP1 PUSH1 0x1F ADD PUSH1 0x20 DUP1 SWAP2 DIV MUL PUSH1 0x20 ADD PUSH1 0x40 MLOAD SWAP1 DUP2 ADD PUSH1 0x40 MSTORE DUP1 SWAP3 SWAP2 SWAP1 DUP2 DUP2 MSTORE PUSH1 0x20 ADD DUP3 DUP1 SLOAD PUSH2 0x1C2C SWAP1 PUSH2 0x3623 JUMP JUMPDEST DUP1 ISZERO PUSH2 0x1C79 JUMPI DUP1 PUSH1 0x1F LT PUSH2 0x1C4E JUMPI PUSH2 0x100 DUP1 DUP4 SLOAD DIV MUL DUP4 MSTORE SWAP2 PUSH1 0x20 ADD SWAP2 PUSH2 0x1C79 JUMP JUMPDEST DUP3 ADD SWAP2 SWAP1 PUSH1 0x0 MSTORE PUSH1 0x20 PUSH1 0x0 KECCAK256 SWAP1 JUMPDEST DUP2 SLOAD DUP2 MSTORE SWAP1 PUSH1 0x1 ADD SWAP1 PUSH1 0x20 ADD DUP1 DUP4 GT PUSH2 0x1C5C JUMPI DUP3 SWAP1 SUB PUSH1 0x1F AND DUP3 ADD SWAP2 JUMPDEST POP POP POP POP POP DUP2 JUMP JUMPDEST PUSH1 0x7 SLOAD DUP2 JUMP JUMPDEST PUSH1 0x0 DUP1 PUSH1 0x6 DUP4 PUSH1 0x40 MLOAD PUSH2 0x1C9A SWAP2 SWAP1 PUSH2 0x3690 JUMP JUMPDEST SWAP1 DUP2 MSTORE PUSH1 0x20 ADD PUSH1 0x40 MLOAD DUP1 SWAP2 SUB SWAP1 KECCAK256 PUSH1 0x0 ADD PUSH1 0x0 SWAP1 SLOAD SWAP1 PUSH2 0x100 EXP SWAP1 DIV PUSH20 0xFFFFFFFFFFFFFFFFFFFFFFFFFFFFFFFFFFFFFFFF AND PUSH1 0x6 DUP5 PUSH1 0x40 MLOAD PUSH2 0x1CDC SWAP2 SWAP1 PUSH2 0x3690 JUMP JUMPDEST SWAP1 DUP2 MSTORE PUSH1 0x20 ADD PUSH1 0x40 MLOAD DUP1 SWAP2 SUB SWAP1 KECCAK256 PUSH1 0x0 ADD PUSH1 0x14 SWAP1 SLOAD SWAP1 PUSH2 0x100 EXP SWAP1 DIV PUSH1 0xFF AND SWAP2 POP SWAP2 POP SWAP2 POP SWAP2 JUMP JUMPDEST PUSH1 0x0 DUP2 PUSH1 0x4 PUSH1 0x0 CALLER PUSH20 0xFFFFFFFFFFFFFFFFFFFFFFFFFFFFFFFFFFFFFFFF AND PUSH20 0xFFFFFFFFFFFFFFFFFFFFFFFFFFFFFFFFFFFFFFFF AND DUP2 MSTORE PUSH1 0x20 ADD SWAP1 DUP2 MSTORE PUSH1 0x20 ADD PUSH1 0x0 KECCAK256 SLOAD LT ISZERO PUSH2 0x1D88 JUMPI PUSH1 0x40 MLOAD PUSH32 0x8C379A000000000000000000000000000000000000000000000000000000000 DUP2 MSTORE PUSH1 0x4 ADD PUSH2 0x1D7F SWAP1 PUSH2 0x3DA0 JUMP JUMPDEST PUSH1 0x40 MLOAD DUP1 SWAP2 SUB SWAP1 REVERT JUMPDEST PUSH2 0x1D93 CALLER DUP5 DUP5 PUSH2 0x2A6B JUMP JUMPDEST PUSH1 0x1 SWAP1 POP SWAP3 SWAP2 POP POP JUMP JUMPDEST PUSH1 0x8 SLOAD DUP2 JUMP JUMPDEST PUSH1 0x1 DUP2 PUSH1 0xFF AND SUB PUSH2 0x1E8C JUMPI PUSH1 0x0 PUSH1 0xA PUSH1 0x0 CALLER PUSH20 0xFFFFFFFFFFFFFFFFFFFFFFFFFFFFFFFFFFFFFFFF AND PUSH20 0xFFFFFFFFFFFFFFFFFFFFFFFFFFFFFFFFFFFFFFFF AND DUP2 MSTORE PUSH1 0x20 ADD SWAP1 DUP2 MSTORE PUSH1 0x20 ADD PUSH1 0x0 KECCAK256 SLOAD GT PUSH2 0x1DFA JUMPI PUSH1 0x0 DUP1 REVERT JUMPDEST PUSH2 0x1E44 ADDRESS CALLER PUSH1 0xA PUSH1 0x0 CALLER PUSH20 0xFFFFFFFFFFFFFFFFFFFFFFFFFFFFFFFFFFFFFFFF AND PUSH20 0xFFFFFFFFFFFFFFFFFFFFFFFFFFFFFFFFFFFFFFFF AND DUP2 MSTORE PUSH1 0x20 ADD SWAP1 DUP2 MSTORE PUSH1 0x20 ADD PUSH1 0x0 KECCAK256 SLOAD PUSH2 0x2A6B JUMP JUMPDEST PUSH1 0xA PUSH1 0x0 CALLER PUSH20 0xFFFFFFFFFFFFFFFFFFFFFFFFFFFFFFFFFFFFFFFF AND PUSH20 0xFFFFFFFFFFFFFFFFFFFFFFFFFFFFFFFFFFFFFFFF AND DUP2 MSTORE PUSH1 0x20 ADD SWAP1 DUP2 MSTORE PUSH1 0x20 ADD PUSH1 0x0 KECCAK256 PUSH1 0x0 SWAP1 SSTORE PUSH2 0x1F72 JUMP JUMPDEST PUSH1 0x2 DUP2 PUSH1 0xFF AND SUB PUSH2 0x1F71 JUMPI PUSH1 0x0 PUSH1 0xB PUSH1 0x0 CALLER PUSH20 0xFFFFFFFFFFFFFFFFFFFFFFFFFFFFFFFFFFFFFFFF AND PUSH20 0xFFFFFFFFFFFFFFFFFFFFFFFFFFFFFFFFFFFFFFFF AND DUP2 MSTORE PUSH1 0x20 ADD SWAP1 DUP2 MSTORE PUSH1 0x20 ADD PUSH1 0x0 KECCAK256 SLOAD GT PUSH2 0x1EE3 JUMPI PUSH1 0x0 DUP1 REVERT JUMPDEST PUSH2 0x1F2D ADDRESS CALLER PUSH1 0xB PUSH1 0x0 CALLER PUSH20 0xFFFFFFFFFFFFFFFFFFFFFFFFFFFFFFFFFFFFFFFF AND PUSH20 0xFFFFFFFFFFFFFFFFFFFFFFFFFFFFFFFFFFFFFFFF AND DUP2 MSTORE PUSH1 0x20 ADD SWAP1 DUP2 MSTORE PUSH1 0x20 ADD PUSH1 0x0 KECCAK256 SLOAD PUSH2 0x2A6B JUMP JUMPDEST PUSH1 0xB PUSH1 0x0 CALLER PUSH20 0xFFFFFFFFFFFFFFFFFFFFFFFFFFFFFFFFFFFFFFFF AND PUSH20 0xFFFFFFFFFFFFFFFFFFFFFFFFFFFFFFFFFFFFFFFF AND DUP2 MSTORE PUSH1 0x20 ADD SWAP1 DUP2 MSTORE PUSH1 0x20 ADD PUSH1 0x0 KECCAK256 PUSH1 0x0 SWAP1 SSTORE JUMPDEST JUMPDEST POP JUMP JUMPDEST CALLER PUSH20 0xFFFFFFFFFFFFFFFFFFFFFFFFFFFFFFFFFFFFFFFF AND PUSH1 0x6 DUP3 PUSH1 0x40 MLOAD PUSH2 0x1F9C SWAP2 SWAP1 PUSH2 0x3690 JUMP JUMPDEST SWAP1 DUP2 MSTORE PUSH1 0x20 ADD PUSH1 0x40 MLOAD DUP1 SWAP2 SUB SWAP1 KECCAK256 PUSH1 0x0 ADD PUSH1 0x0 SWAP1 SLOAD SWAP1 PUSH2 0x100 EXP SWAP1 DIV PUSH20 0xFFFFFFFFFFFFFFFFFFFFFFFFFFFFFFFFFFFFFFFF AND PUSH20 0xFFFFFFFFFFFFFFFFFFFFFFFFFFFFFFFFFFFFFFFF AND EQ PUSH2 0x1FEE JUMPI PUSH1 0x0 DUP1 REVERT JUMPDEST PUSH1 0x6 DUP2 PUSH1 0x40 MLOAD PUSH2 0x1FFE SWAP2 SWAP1 PUSH2 0x3690 JUMP JUMPDEST SWAP1 DUP2 MSTORE PUSH1 0x20 ADD PUSH1 0x40 MLOAD DUP1 SWAP2 SUB SWAP1 KECCAK256 PUSH1 0x0 DUP1 DUP3 ADD PUSH1 0x0 PUSH2 0x100 EXP DUP2 SLOAD SWAP1 PUSH20 0xFFFFFFFFFFFFFFFFFFFFFFFFFFFFFFFFFFFFFFFF MUL NOT AND SWAP1 SSTORE PUSH1 0x0 DUP3 ADD PUSH1 0x14 PUSH2 0x100 EXP DUP2 SLOAD SWAP1 PUSH1 0xFF MUL NOT AND SWAP1 SSTORE POP POP POP JUMP JUMPDEST PUSH1 0x0 PUSH1 0x5 PUSH1 0x0 DUP5 PUSH20 0xFFFFFFFFFFFFFFFFFFFFFFFFFFFFFFFFFFFFFFFF AND PUSH20 0xFFFFFFFFFFFFFFFFFFFFFFFFFFFFFFFFFFFFFFFF AND DUP2 MSTORE PUSH1 0x20 ADD SWAP1 DUP2 MSTORE PUSH1 0x20 ADD PUSH1 0x0 KECCAK256 PUSH1 0x0 DUP4 PUSH20 0xFFFFFFFFFFFFFFFFFFFFFFFFFFFFFFFFFFFFFFFF AND PUSH20 0xFFFFFFFFFFFFFFFFFFFFFFFFFFFFFFFFFFFFFFFF AND DUP2 MSTORE PUSH1 0x20 ADD SWAP1 DUP2 MSTORE PUSH1 0x20 ADD PUSH1 0x0 KECCAK256 SLOAD SWAP1 POP SWAP3 SWAP2 POP POP JUMP JUMPDEST PUSH1 0x0 PUSH1 0xC DUP3 PUSH1 0x40 MLOAD PUSH2 0x20E6 SWAP2 SWAP1 PUSH2 0x3690 JUMP JUMPDEST SWAP1 DUP2 MSTORE PUSH1 0x20 ADD PUSH1 0x40 MLOAD DUP1 SWAP2 SUB SWAP1 KECCAK256 PUSH1 0x6 ADD PUSH1 0x0 SWAP1 SLOAD SWAP1 PUSH2 0x100 EXP SWAP1 DIV PUSH1 0xFF AND SWAP1 POP SWAP2 SWAP1 POP JUMP JUMPDEST PUSH1 0x1 DUP3 PUSH1 0xFF AND SUB PUSH2 0x224A JUMPI PUSH1 0x0 PUSH1 0xA PUSH1 0x0 CALLER PUSH20 0xFFFFFFFFFFFFFFFFFFFFFFFFFFFFFFFFFFFFFFFF AND PUSH20 0xFFFFFFFFFFFFFFFFFFFFFFFFFFFFFFFFFFFFFFFF AND DUP2 MSTORE PUSH1 0x20 ADD SWAP1 DUP2 MSTORE PUSH1 0x20 ADD PUSH1 0x0 KECCAK256 SLOAD EQ PUSH2 0x2199 JUMPI PUSH1 0x40 MLOAD PUSH32 0x8C379A000000000000000000000000000000000000000000000000000000000 DUP2 MSTORE PUSH1 0x4 ADD PUSH2 0x2190 SWAP1 PUSH2 0x3E0C JUMP JUMPDEST PUSH1 0x40 MLOAD DUP1 SWAP2 SUB SWAP1 REVERT JUMPDEST DUP1 PUSH2 0x21A3 CALLER PUSH2 0x1466 JUMP JUMPDEST LT ISZERO PUSH2 0x21E4 JUMPI PUSH1 0x40 MLOAD PUSH32 0x8C379A000000000000000000000000000000000000000000000000000000000 DUP2 MSTORE PUSH1 0x4 ADD PUSH2 0x21DB SWAP1 PUSH2 0x3A79 JUMP JUMPDEST PUSH1 0x40 MLOAD DUP1 SWAP2 SUB SWAP1 REVERT JUMPDEST PUSH2 0x21EF CALLER ADDRESS DUP4 PUSH2 0x2A6B JUMP JUMPDEST DUP1 PUSH1 0xA PUSH1 0x0 CALLER PUSH20 0xFFFFFFFFFFFFFFFFFFFFFFFFFFFFFFFFFFFFFFFF AND PUSH20 0xFFFFFFFFFFFFFFFFFFFFFFFFFFFFFFFFFFFFFFFF AND DUP2 MSTORE PUSH1 0x20 ADD SWAP1 DUP2 MSTORE PUSH1 0x20 ADD PUSH1 0x0 KECCAK256 PUSH1 0x0 DUP3 DUP3 SLOAD PUSH2 0x223E SWAP2 SWAP1 PUSH2 0x38AA JUMP JUMPDEST SWAP3 POP POP DUP2 SWAP1 SSTORE POP PUSH2 0x2385 JUMP JUMPDEST PUSH1 0x2 DUP3 PUSH1 0xFF AND SUB PUSH2 0x2384 JUMPI PUSH1 0x0 PUSH1 0xB PUSH1 0x0 CALLER PUSH20 0xFFFFFFFFFFFFFFFFFFFFFFFFFFFFFFFFFFFFFFFF AND PUSH20 0xFFFFFFFFFFFFFFFFFFFFFFFFFFFFFFFFFFFFFFFF AND DUP2 MSTORE PUSH1 0x20 ADD SWAP1 DUP2 MSTORE PUSH1 0x20 ADD PUSH1 0x0 KECCAK256 SLOAD EQ PUSH2 0x22D7 JUMPI PUSH1 0x40 MLOAD PUSH32 0x8C379A000000000000000000000000000000000000000000000000000000000 DUP2 MSTORE PUSH1 0x4 ADD PUSH2 0x22CE SWAP1 PUSH2 0x3E0C JUMP JUMPDEST PUSH1 0x40 MLOAD DUP1 SWAP2 SUB SWAP1 REVERT JUMPDEST DUP1 PUSH2 0x22E1 CALLER PUSH2 0x1466 JUMP JUMPDEST LT ISZERO PUSH2 0x2322 JUMPI PUSH1 0x40 MLOAD PUSH32 0x8C379A000000000000000000000000000000000000000000000000000000000 DUP2 MSTORE PUSH1 0x4 ADD PUSH2 0x2319 SWAP1 PUSH2 0x3A79 JUMP JUMPDEST PUSH1 0x40 MLOAD DUP1 SWAP2 SUB SWAP1 REVERT JUMPDEST PUSH2 0x232D CALLER ADDRESS DUP4 PUSH2 0x2A6B JUMP JUMPDEST DUP1 PUSH1 0xB PUSH1 0x0 CALLER PUSH20 0xFFFFFFFFFFFFFFFFFFFFFFFFFFFFFFFFFFFFFFFF AND PUSH20 0xFFFFFFFFFFFFFFFFFFFFFFFFFFFFFFFFFFFFFFFF AND DUP2 MSTORE PUSH1 0x20 ADD SWAP1 DUP2 MSTORE PUSH1 0x20 ADD PUSH1 0x0 KECCAK256 PUSH1 0x0 DUP3 DUP3 SLOAD PUSH2 0x237C SWAP2 SWAP1 PUSH2 0x38AA JUMP JUMPDEST SWAP3 POP POP DUP2 SWAP1 SSTORE POP JUMPDEST JUMPDEST POP POP JUMP JUMPDEST PUSH1 0x0 DUP1 PUSH1 0xA PUSH1 0x0 DUP5 PUSH20 0xFFFFFFFFFFFFFFFFFFFFFFFFFFFFFFFFFFFFFFFF AND PUSH20 0xFFFFFFFFFFFFFFFFFFFFFFFFFFFFFFFFFFFFFFFF AND DUP2 MSTORE PUSH1 0x20 ADD SWAP1 DUP2 MSTORE PUSH1 0x20 ADD PUSH1 0x0 KECCAK256 SLOAD PUSH1 0xB PUSH1 0x0 DUP6 PUSH20 0xFFFFFFFFFFFFFFFFFFFFFFFFFFFFFFFFFFFFFFFF AND PUSH20 0xFFFFFFFFFFFFFFFFFFFFFFFFFFFFFFFFFFFFFFFF AND DUP2 MSTORE PUSH1 0x20 ADD SWAP1 DUP2 MSTORE PUSH1 0x20 ADD PUSH1 0x0 KECCAK256 SLOAD SWAP2 POP SWAP2 POP SWAP2 POP SWAP2 JUMP JUMPDEST PUSH1 0x0 PUSH1 0x1 DUP3 PUSH1 0xFF AND SUB PUSH2 0x246D JUMPI PUSH1 0x0 PUSH1 0xA PUSH1 0x0 CALLER PUSH20 0xFFFFFFFFFFFFFFFFFFFFFFFFFFFFFFFFFFFFFFFF AND PUSH20 0xFFFFFFFFFFFFFFFFFFFFFFFFFFFFFFFFFFFFFFFF AND DUP2 MSTORE PUSH1 0x20 ADD SWAP1 DUP2 MSTORE PUSH1 0x20 ADD PUSH1 0x0 KECCAK256 SLOAD EQ ISZERO SWAP1 POP PUSH2 0x24C8 JUMP JUMPDEST PUSH1 0x2 DUP3 PUSH1 0xFF AND SUB PUSH2 0x24C3 JUMPI PUSH1 0x0 PUSH1 0xB PUSH1 0x0 CALLER PUSH20 0xFFFFFFFFFFFFFFFFFFFFFFFFFFFFFFFFFFFFFFFF AND PUSH20 0xFFFFFFFFFFFFFFFFFFFFFFFFFFFFFFFFFFFFFFFF AND DUP2 MSTORE PUSH1 0x20 ADD SWAP1 DUP2 MSTORE PUSH1 0x20 ADD PUSH1 0x0 KECCAK256 SLOAD EQ ISZERO SWAP1 POP PUSH2 0x24C8 JUMP JUMPDEST PUSH1 0x0 SWAP1 POP JUMPDEST SWAP2 SWAP1 POP JUMP JUMPDEST PUSH1 0x0 DUP1 PUSH1 0xB PUSH1 0x0 CALLER PUSH20 0xFFFFFFFFFFFFFFFFFFFFFFFFFFFFFFFFFFFFFFFF AND PUSH20 0xFFFFFFFFFFFFFFFFFFFFFFFFFFFFFFFFFFFFFFFF AND DUP2 MSTORE PUSH1 0x20 ADD SWAP1 DUP2 MSTORE PUSH1 0x20 ADD PUSH1 0x0 KECCAK256 SLOAD SUB PUSH2 0x251E JUMPI PUSH1 0x0 SWAP1 POP PUSH2 0x29A0 JUMP JUMPDEST PUSH1 0x0 PUSH1 0xD PUSH1 0x0 CALLER PUSH20 0xFFFFFFFFFFFFFFFFFFFFFFFFFFFFFFFFFFFFFFFF AND PUSH20 0xFFFFFFFFFFFFFFFFFFFFFFFFFFFFFFFFFFFFFFFF AND DUP2 MSTORE PUSH1 0x20 ADD SWAP1 DUP2 MSTORE PUSH1 0x20 ADD PUSH1 0x0 KECCAK256 DUP1 SLOAD DUP1 PUSH1 0x20 MUL PUSH1 0x20 ADD PUSH1 0x40 MLOAD SWAP1 DUP2 ADD PUSH1 0x40 MSTORE DUP1 SWAP3 SWAP2 SWAP1 DUP2 DUP2 MSTORE PUSH1 0x20 ADD PUSH1 0x0 SWAP1 JUMPDEST DUP3 DUP3 LT ISZERO PUSH2 0x262B JUMPI DUP4 DUP3 SWAP1 PUSH1 0x0 MSTORE PUSH1 0x20 PUSH1 0x0 KECCAK256 ADD DUP1 SLOAD PUSH2 0x259E SWAP1 PUSH2 0x3623 JUMP JUMPDEST DUP1 PUSH1 0x1F ADD PUSH1 0x20 DUP1 SWAP2 DIV MUL PUSH1 0x20 ADD PUSH1 0x40 MLOAD SWAP1 DUP2 ADD PUSH1 0x40 MSTORE DUP1 SWAP3 SWAP2 SWAP1 DUP2 DUP2 MSTORE PUSH1 0x20 ADD DUP3 DUP1 SLOAD PUSH2 0x25CA SWAP1 PUSH2 0x3623 JUMP JUMPDEST DUP1 ISZERO PUSH2 0x2617 JUMPI DUP1 PUSH1 0x1F LT PUSH2 0x25EC JUMPI PUSH2 0x100 DUP1 DUP4 SLOAD DIV MUL DUP4 MSTORE SWAP2 PUSH1 0x20 ADD SWAP2 PUSH2 0x2617 JUMP JUMPDEST DUP3 ADD SWAP2 SWAP1 PUSH1 0x0 MSTORE PUSH1 0x20 PUSH1 0x0 KECCAK256 SWAP1 JUMPDEST DUP2 SLOAD DUP2 MSTORE SWAP1 PUSH1 0x1 ADD SWAP1 PUSH1 0x20 ADD DUP1 DUP4 GT PUSH2 0x25FA JUMPI DUP3 SWAP1 SUB PUSH1 0x1F AND DUP3 ADD SWAP2 JUMPDEST POP POP POP POP POP DUP2 MSTORE PUSH1 0x20 ADD SWAP1 PUSH1 0x1 ADD SWAP1 PUSH2 0x257F JUMP JUMPDEST POP POP POP POP SWAP1 POP PUSH1 0x0 DUP1 JUMPDEST DUP3 MLOAD DUP2 LT ISZERO PUSH2 0x2999 JUMPI PUSH1 0xC DUP4 DUP3 DUP2 MLOAD DUP2 LT PUSH2 0x2653 JUMPI PUSH2 0x2652 PUSH2 0x394A JUMP JUMPDEST JUMPDEST PUSH1 0x20 MUL PUSH1 0x20 ADD ADD MLOAD PUSH1 0x40 MLOAD PUSH2 0x2668 SWAP2 SWAP1 PUSH2 0x3690 JUMP JUMPDEST SWAP1 DUP2 MSTORE PUSH1 0x20 ADD PUSH1 0x40 MLOAD DUP1 SWAP2 SUB SWAP1 KECCAK256 PUSH1 0x6 ADD PUSH1 0x1 SWAP1 SLOAD SWAP1 PUSH2 0x100 EXP SWAP1 DIV PUSH1 0xFF AND PUSH2 0x2986 JUMPI PUSH1 0xC DUP4 DUP3 DUP2 MLOAD DUP2 LT PUSH2 0x26A0 JUMPI PUSH2 0x269F PUSH2 0x394A JUMP JUMPDEST JUMPDEST PUSH1 0x20 MUL PUSH1 0x20 ADD ADD MLOAD PUSH1 0x40 MLOAD PUSH2 0x26B5 SWAP2 SWAP1 PUSH2 0x3690 JUMP JUMPDEST SWAP1 DUP2 MSTORE PUSH1 0x20 ADD PUSH1 0x40 MLOAD DUP1 SWAP2 SUB SWAP1 KECCAK256 PUSH1 0x2 ADD SLOAD TIMESTAMP LT PUSH2 0x281F JUMPI PUSH1 0x0 PUSH1 0xC DUP5 DUP4 DUP2 MLOAD DUP2 LT PUSH2 0x26E4 JUMPI PUSH2 0x26E3 PUSH2 0x394A JUMP JUMPDEST JUMPDEST PUSH1 0x20 MUL PUSH1 0x20 ADD ADD MLOAD PUSH1 0x40 MLOAD PUSH2 0x26F9 SWAP2 SWAP1 PUSH2 0x3690 JUMP JUMPDEST SWAP1 DUP2 MSTORE PUSH1 0x20 ADD PUSH1 0x40 MLOAD DUP1 SWAP2 SUB SWAP1 KECCAK256 PUSH1 0x3 ADD SLOAD PUSH1 0xC DUP6 DUP5 DUP2 MLOAD DUP2 LT PUSH2 0x2720 JUMPI PUSH2 0x271F PUSH2 0x394A JUMP JUMPDEST JUMPDEST PUSH1 0x20 MUL PUSH1 0x20 ADD ADD MLOAD PUSH1 0x40 MLOAD PUSH2 0x2735 SWAP2 SWAP1 PUSH2 0x3690 JUMP JUMPDEST SWAP1 DUP2 MSTORE PUSH1 0x20 ADD PUSH1 0x40 MLOAD DUP1 SWAP2 SUB SWAP1 KECCAK256 PUSH1 0x4 ADD PUSH1 0x0 SWAP1 SLOAD SWAP1 PUSH2 0x100 EXP SWAP1 DIV PUSH4 0xFFFFFFFF AND PUSH4 0xFFFFFFFF AND PUSH2 0x2767 SWAP2 SWAP1 PUSH2 0x37D4 JUMP JUMPDEST SWAP1 POP DUP1 PUSH1 0xC DUP6 DUP5 DUP2 MLOAD DUP2 LT PUSH2 0x277F JUMPI PUSH2 0x277E PUSH2 0x394A JUMP JUMPDEST JUMPDEST PUSH1 0x20 MUL PUSH1 0x20 ADD ADD MLOAD PUSH1 0x40 MLOAD PUSH2 0x2794 SWAP2 SWAP1 PUSH2 0x3690 JUMP JUMPDEST SWAP1 DUP2 MSTORE PUSH1 0x20 ADD PUSH1 0x40 MLOAD DUP1 SWAP2 SUB SWAP1 KECCAK256 PUSH1 0x4 ADD PUSH1 0x0 SWAP1 SLOAD SWAP1 PUSH2 0x100 EXP SWAP1 DIV PUSH4 0xFFFFFFFF AND PUSH4 0xFFFFFFFF AND PUSH1 0xC DUP7 DUP6 DUP2 MLOAD DUP2 LT PUSH2 0x27D1 JUMPI PUSH2 0x27D0 PUSH2 0x394A JUMP JUMPDEST JUMPDEST PUSH1 0x20 MUL PUSH1 0x20 ADD ADD MLOAD PUSH1 0x40 MLOAD PUSH2 0x27E6 SWAP2 SWAP1 PUSH2 0x3690 JUMP JUMPDEST SWAP1 DUP2 MSTORE PUSH1 0x20 ADD PUSH1 0x40 MLOAD DUP1 SWAP2 SUB SWAP1 KECCAK256 PUSH1 0x5 ADD SLOAD PUSH2 0x2802 SWAP2 SWAP1 PUSH2 0x3837 JUMP JUMPDEST PUSH2 0x280C SWAP2 SWAP1 PUSH2 0x3868 JUMP JUMPDEST DUP4 PUSH2 0x2817 SWAP2 SWAP1 PUSH2 0x38AA JUMP JUMPDEST SWAP3 POP POP PUSH2 0x2985 JUMP JUMPDEST PUSH1 0x0 PUSH1 0xC DUP5 DUP4 DUP2 MLOAD DUP2 LT PUSH2 0x2836 JUMPI PUSH2 0x2835 PUSH2 0x394A JUMP JUMPDEST JUMPDEST PUSH1 0x20 MUL PUSH1 0x20 ADD ADD MLOAD PUSH1 0x40 MLOAD PUSH2 0x284B SWAP2 SWAP1 PUSH2 0x3690 JUMP JUMPDEST SWAP1 DUP2 MSTORE PUSH1 0x20 ADD PUSH1 0x40 MLOAD DUP1 SWAP2 SUB SWAP1 KECCAK256 PUSH1 0x3 ADD SLOAD PUSH1 0x9 PUSH1 0x0 SWAP1 SLOAD SWAP1 PUSH2 0x100 EXP SWAP1 DIV PUSH4 0xFFFFFFFF AND PUSH4 0xFFFFFFFF AND PUSH1 0xC DUP7 DUP6 DUP2 MLOAD DUP2 LT PUSH2 0x288B JUMPI PUSH2 0x288A PUSH2 0x394A JUMP JUMPDEST JUMPDEST PUSH1 0x20 MUL PUSH1 0x20 ADD ADD MLOAD PUSH1 0x40 MLOAD PUSH2 0x28A0 SWAP2 SWAP1 PUSH2 0x3690 JUMP JUMPDEST SWAP1 DUP2 MSTORE PUSH1 0x20 ADD PUSH1 0x40 MLOAD DUP1 SWAP2 SUB SWAP1 KECCAK256 PUSH1 0x1 ADD SLOAD TIMESTAMP PUSH2 0x28BD SWAP2 SWAP1 PUSH2 0x37D4 JUMP JUMPDEST PUSH2 0x28C7 SWAP2 SWAP1 PUSH2 0x3837 JUMP JUMPDEST PUSH2 0x28D1 SWAP2 SWAP1 PUSH2 0x37D4 JUMP JUMPDEST SWAP1 POP DUP1 PUSH1 0xC DUP6 DUP5 DUP2 MLOAD DUP2 LT PUSH2 0x28E9 JUMPI PUSH2 0x28E8 PUSH2 0x394A JUMP JUMPDEST JUMPDEST PUSH1 0x20 MUL PUSH1 0x20 ADD ADD MLOAD PUSH1 0x40 MLOAD PUSH2 0x28FE SWAP2 SWAP1 PUSH2 0x3690 JUMP JUMPDEST SWAP1 DUP2 MSTORE PUSH1 0x20 ADD PUSH1 0x40 MLOAD DUP1 SWAP2 SUB SWAP1 KECCAK256 PUSH1 0x4 ADD PUSH1 0x0 SWAP1 SLOAD SWAP1 PUSH2 0x100 EXP SWAP1 DIV PUSH4 0xFFFFFFFF AND PUSH4 0xFFFFFFFF AND PUSH1 0xC DUP7 DUP6 DUP2 MLOAD DUP2 LT PUSH2 0x293B JUMPI PUSH2 0x293A PUSH2 0x394A JUMP JUMPDEST JUMPDEST PUSH1 0x20 MUL PUSH1 0x20 ADD ADD MLOAD PUSH1 0x40 MLOAD PUSH2 0x2950 SWAP2 SWAP1 PUSH2 0x3690 JUMP JUMPDEST SWAP1 DUP2 MSTORE PUSH1 0x20 ADD PUSH1 0x40 MLOAD DUP1 SWAP2 SUB SWAP1 KECCAK256 PUSH1 0x5 ADD SLOAD PUSH2 0x296C SWAP2 SWAP1 PUSH2 0x3837 JUMP JUMPDEST PUSH2 0x2976 SWAP2 SWAP1 PUSH2 0x3868 JUMP JUMPDEST DUP4 PUSH2 0x2981 SWAP2 SWAP1 PUSH2 0x38AA JUMP JUMPDEST SWAP3 POP POP JUMPDEST JUMPDEST DUP1 DUP1 PUSH2 0x2991 SWAP1 PUSH2 0x3979 JUMP JUMPDEST SWAP2 POP POP PUSH2 0x2635 JUMP JUMPDEST POP DUP1 SWAP3 POP POP POP JUMPDEST SWAP1 JUMP JUMPDEST PUSH1 0x0 PUSH1 0xA PUSH1 0x0 CALLER PUSH20 0xFFFFFFFFFFFFFFFFFFFFFFFFFFFFFFFFFFFFFFFF AND PUSH20 0xFFFFFFFFFFFFFFFFFFFFFFFFFFFFFFFFFFFFFFFF AND DUP2 MSTORE PUSH1 0x20 ADD SWAP1 DUP2 MSTORE PUSH1 0x20 ADD PUSH1 0x0 KECCAK256 SLOAD GT PUSH2 0x29EF JUMPI PUSH1 0x0 DUP1 REVERT JUMPDEST PUSH1 0x1 PUSH1 0x6 DUP3 PUSH1 0x40 MLOAD PUSH2 0x2A01 SWAP2 SWAP1 PUSH2 0x3690 JUMP JUMPDEST SWAP1 DUP2 MSTORE PUSH1 0x20 ADD PUSH1 0x40 MLOAD DUP1 SWAP2 SUB SWAP1 KECCAK256 PUSH1 0x0 ADD PUSH1 0x14 SWAP1 SLOAD SWAP1 PUSH2 0x100 EXP SWAP1 DIV PUSH1 0xFF AND PUSH1 0xFF AND EQ PUSH2 0x2A2D JUMPI PUSH1 0x0 DUP1 REVERT JUMPDEST PUSH1 0x2 PUSH1 0x6 DUP3 PUSH1 0x40 MLOAD PUSH2 0x2A3F SWAP2 SWAP1 PUSH2 0x3690 JUMP JUMPDEST SWAP1 DUP2 MSTORE PUSH1 0x20 ADD PUSH1 0x40 MLOAD DUP1 SWAP2 SUB SWAP1 KECCAK256 PUSH1 0x0 ADD PUSH1 0x14 PUSH2 0x100 EXP DUP2 SLOAD DUP2 PUSH1 0xFF MUL NOT AND SWAP1 DUP4 PUSH1 0xFF AND MUL OR SWAP1 SSTORE POP POP JUMP JUMPDEST PUSH1 0x0 PUSH20 0xFFFFFFFFFFFFFFFFFFFFFFFFFFFFFFFFFFFFFFFF AND DUP4 PUSH20 0xFFFFFFFFFFFFFFFFFFFFFFFFFFFFFFFFFFFFFFFF AND SUB PUSH2 0x2ADA JUMPI PUSH1 0x40 MLOAD PUSH32 0x8C379A000000000000000000000000000000000000000000000000000000000 DUP2 MSTORE PUSH1 0x4 ADD PUSH2 0x2AD1 SWAP1 PUSH2 0x3E9E JUMP JUMPDEST PUSH1 0x40 MLOAD DUP1 SWAP2 SUB SWAP1 REVERT JUMPDEST PUSH1 0x0 PUSH20 0xFFFFFFFFFFFFFFFFFFFFFFFFFFFFFFFFFFFFFFFF AND DUP3 PUSH20 0xFFFFFFFFFFFFFFFFFFFFFFFFFFFFFFFFFFFFFFFF AND SUB PUSH2 0x2B49 JUMPI PUSH1 0x40 MLOAD PUSH32 0x8C379A000000000000000000000000000000000000000000000000000000000 DUP2 MSTORE PUSH1 0x4 ADD PUSH2 0x2B40 SWAP1 PUSH2 0x3F30 JUMP JUMPDEST PUSH1 0x40 MLOAD DUP1 SWAP2 SUB SWAP1 REVERT JUMPDEST PUSH1 0x0 PUSH1 0x4 PUSH1 0x0 DUP6 PUSH20 0xFFFFFFFFFFFFFFFFFFFFFFFFFFFFFFFFFFFFFFFF AND PUSH20 0xFFFFFFFFFFFFFFFFFFFFFFFFFFFFFFFFFFFFFFFF AND DUP2 MSTORE PUSH1 0x20 ADD SWAP1 DUP2 MSTORE PUSH1 0x20 ADD PUSH1 0x0 KECCAK256 SLOAD SWAP1 POP DUP2 DUP2 LT ISZERO PUSH2 0x2BD0 JUMPI PUSH1 0x40 MLOAD PUSH32 0x8C379A000000000000000000000000000000000000000000000000000000000 DUP2 MSTORE PUSH1 0x4 ADD PUSH2 0x2BC7 SWAP1 PUSH2 0x3FC2 JUMP JUMPDEST PUSH1 0x40 MLOAD DUP1 SWAP2 SUB SWAP1 REVERT JUMPDEST DUP2 DUP2 PUSH2 0x2BDC SWAP2 SWAP1 PUSH2 0x37D4 JUMP JUMPDEST PUSH1 0x4 PUSH1 0x0 DUP7 PUSH20 0xFFFFFFFFFFFFFFFFFFFFFFFFFFFFFFFFFFFFFFFF AND PUSH20 0xFFFFFFFFFFFFFFFFFFFFFFFFFFFFFFFFFFFFFFFF AND DUP2 MSTORE PUSH1 0x20 ADD SWAP1 DUP2 MSTORE PUSH1 0x20 ADD PUSH1 0x0 KECCAK256 DUP2 SWAP1 SSTORE POP DUP2 PUSH1 0x4 PUSH1 0x0 DUP6 PUSH20 0xFFFFFFFFFFFFFFFFFFFFFFFFFFFFFFFFFFFFFFFF AND PUSH20 0xFFFFFFFFFFFFFFFFFFFFFFFFFFFFFFFFFFFFFFFF AND DUP2 MSTORE PUSH1 0x20 ADD SWAP1 DUP2 MSTORE PUSH1 0x20 ADD PUSH1 0x0 KECCAK256 PUSH1 0x0 DUP3 DUP3 SLOAD PUSH2 0x2C6E SWAP2 SWAP1 PUSH2 0x38AA JUMP JUMPDEST SWAP3 POP POP DUP2 SWAP1 SSTORE POP POP POP POP POP JUMP JUMPDEST PUSH1 0x40 MLOAD DUP1 PUSH2 0x140 ADD PUSH1 0x40 MSTORE DUP1 PUSH1 0x60 DUP2 MSTORE PUSH1 0x20 ADD PUSH1 0x0 DUP2 MSTORE PUSH1 0x20 ADD PUSH1 0x0 DUP2 MSTORE PUSH1 0x20 ADD PUSH1 0x0 DUP2 MSTORE PUSH1 0x20 ADD PUSH1 0x0 PUSH4 0xFFFFFFFF AND DUP2 MSTORE PUSH1 0x20 ADD PUSH1 0x0 DUP2 MSTORE PUSH1 0x20 ADD PUSH1 0x0 ISZERO ISZERO DUP2 MSTORE PUSH1 0x20 ADD PUSH1 0x0 ISZERO ISZERO DUP2 MSTORE PUSH1 0x20 ADD PUSH1 0x0 PUSH20 0xFFFFFFFFFFFFFFFFFFFFFFFFFFFFFFFFFFFFFFFF AND DUP2 MSTORE PUSH1 0x20 ADD PUSH1 0x0 PUSH20 0xFFFFFFFFFFFFFFFFFFFFFFFFFFFFFFFFFFFFFFFF AND DUP2 MSTORE POP SWAP1 JUMP JUMPDEST PUSH1 0x0 DUP2 MLOAD SWAP1 POP SWAP2 SWAP1 POP JUMP JUMPDEST PUSH1 0x0 DUP3 DUP3 MSTORE PUSH1 0x20 DUP3 ADD SWAP1 POP SWAP3 SWAP2 POP POP JUMP JUMPDEST PUSH1 0x0 JUMPDEST DUP4 DUP2 LT ISZERO PUSH2 0x2D3E JUMPI DUP1 DUP3 ADD MLOAD DUP2 DUP5 ADD MSTORE PUSH1 0x20 DUP2 ADD SWAP1 POP PUSH2 0x2D23 JUMP JUMPDEST PUSH1 0x0 DUP5 DUP5 ADD MSTORE POP POP POP POP JUMP JUMPDEST PUSH1 0x0 PUSH1 0x1F NOT PUSH1 0x1F DUP4 ADD AND SWAP1 POP SWAP2 SWAP1 POP JUMP JUMPDEST PUSH1 0x0 PUSH2 0x2D66 DUP3 PUSH2 0x2D04 JUMP JUMPDEST PUSH2 0x2D70 DUP2 DUP6 PUSH2 0x2D0F JUMP JUMPDEST SWAP4 POP PUSH2 0x2D80 DUP2 DUP6 PUSH1 0x20 DUP7 ADD PUSH2 0x2D20 JUMP JUMPDEST PUSH2 0x2D89 DUP2 PUSH2 0x2D4A JUMP JUMPDEST DUP5 ADD SWAP2 POP POP SWAP3 SWAP2 POP POP JUMP JUMPDEST PUSH1 0x0 PUSH1 0x20 DUP3 ADD SWAP1 POP DUP2 DUP2 SUB PUSH1 0x0 DUP4 ADD MSTORE PUSH2 0x2DAE DUP2 DUP5 PUSH2 0x2D5B JUMP JUMPDEST SWAP1 POP SWAP3 SWAP2 POP POP JUMP JUMPDEST PUSH1 0x0 PUSH1 0x40 MLOAD SWAP1 POP SWAP1 JUMP JUMPDEST PUSH1 0x0 DUP1 REVERT JUMPDEST PUSH1 0x0 DUP1 REVERT JUMPDEST PUSH1 0x0 PUSH20 0xFFFFFFFFFFFFFFFFFFFFFFFFFFFFFFFFFFFFFFFF DUP3 AND SWAP1 POP SWAP2 SWAP1 POP JUMP JUMPDEST PUSH1 0x0 PUSH2 0x2DF5 DUP3 PUSH2 0x2DCA JUMP JUMPDEST SWAP1 POP SWAP2 SWAP1 POP JUMP JUMPDEST PUSH2 0x2E05 DUP2 PUSH2 0x2DEA JUMP JUMPDEST DUP2 EQ PUSH2 0x2E10 JUMPI PUSH1 0x0 DUP1 REVERT JUMPDEST POP JUMP JUMPDEST PUSH1 0x0 DUP2 CALLDATALOAD SWAP1 POP PUSH2 0x2E22 DUP2 PUSH2 0x2DFC JUMP JUMPDEST SWAP3 SWAP2 POP POP JUMP JUMPDEST PUSH1 0x0 DUP2 SWAP1 POP SWAP2 SWAP1 POP JUMP JUMPDEST PUSH2 0x2E3B DUP2 PUSH2 0x2E28 JUMP JUMPDEST DUP2 EQ PUSH2 0x2E46 JUMPI PUSH1 0x0 DUP1 REVERT JUMPDEST POP JUMP JUMPDEST PUSH1 0x0 DUP2 CALLDATALOAD SWAP1 POP PUSH2 0x2E58 DUP2 PUSH2 0x2E32 JUMP JUMPDEST SWAP3 SWAP2 POP POP JUMP JUMPDEST PUSH1 0x0 DUP1 PUSH1 0x40 DUP4 DUP6 SUB SLT ISZERO PUSH2 0x2E75 JUMPI PUSH2 0x2E74 PUSH2 0x2DC0 JUMP JUMPDEST JUMPDEST PUSH1 0x0 PUSH2 0x2E83 DUP6 DUP3 DUP7 ADD PUSH2 0x2E13 JUMP JUMPDEST SWAP3 POP POP PUSH1 0x20 PUSH2 0x2E94 DUP6 DUP3 DUP7 ADD PUSH2 0x2E49 JUMP JUMPDEST SWAP2 POP POP SWAP3 POP SWAP3 SWAP1 POP JUMP JUMPDEST PUSH1 0x0 DUP2 ISZERO ISZERO SWAP1 POP SWAP2 SWAP1 POP JUMP JUMPDEST PUSH2 0x2EB3 DUP2 PUSH2 0x2E9E JUMP JUMPDEST DUP3 MSTORE POP POP JUMP JUMPDEST PUSH1 0x0 PUSH1 0x20 DUP3 ADD SWAP1 POP PUSH2 0x2ECE PUSH1 0x0 DUP4 ADD DUP5 PUSH2 0x2EAA JUMP JUMPDEST SWAP3 SWAP2 POP POP JUMP JUMPDEST PUSH2 0x2EDD DUP2 PUSH2 0x2E28 JUMP JUMPDEST DUP3 MSTORE POP POP JUMP JUMPDEST PUSH1 0x0 PUSH1 0x20 DUP3 ADD SWAP1 POP PUSH2 0x2EF8 PUSH1 0x0 DUP4 ADD DUP5 PUSH2 0x2ED4 JUMP JUMPDEST SWAP3 SWAP2 POP POP JUMP JUMPDEST PUSH1 0x0 PUSH1 0x20 DUP3 DUP5 SUB SLT ISZERO PUSH2 0x2F14 JUMPI PUSH2 0x2F13 PUSH2 0x2DC0 JUMP JUMPDEST JUMPDEST PUSH1 0x0 PUSH2 0x2F22 DUP5 DUP3 DUP6 ADD PUSH2 0x2E13 JUMP JUMPDEST SWAP2 POP POP SWAP3 SWAP2 POP POP JUMP JUMPDEST PUSH1 0x0 DUP2 MLOAD SWAP1 POP SWAP2 SWAP1 POP JUMP JUMPDEST PUSH1 0x0 DUP3 DUP3 MSTORE PUSH1 0x20 DUP3 ADD SWAP1 POP SWAP3 SWAP2 POP POP JUMP JUMPDEST PUSH1 0x0 DUP2 SWAP1 POP PUSH1 0x20 DUP3 ADD SWAP1 POP SWAP2 SWAP1 POP JUMP JUMPDEST PUSH1 0x0 DUP3 DUP3 MSTORE PUSH1 0x20 DUP3 ADD SWAP1 POP SWAP3 SWAP2 POP POP JUMP JUMPDEST PUSH1 0x0 PUSH2 0x2F73 DUP3 PUSH2 0x2D04 JUMP JUMPDEST PUSH2 0x2F7D DUP2 DUP6 PUSH2 0x2F57 JUMP JUMPDEST SWAP4 POP PUSH2 0x2F8D DUP2 DUP6 PUSH1 0x20 DUP7 ADD PUSH2 0x2D20 JUMP JUMPDEST PUSH2 0x2F96 DUP2 PUSH2 0x2D4A JUMP JUMPDEST DUP5 ADD SWAP2 POP POP SWAP3 SWAP2 POP POP JUMP JUMPDEST PUSH1 0x0 PUSH2 0x2FAD DUP4 DUP4 PUSH2 0x2F68 JUMP JUMPDEST SWAP1 POP SWAP3 SWAP2 POP POP JUMP JUMPDEST PUSH1 0x0 PUSH1 0x20 DUP3 ADD SWAP1 POP SWAP2 SWAP1 POP JUMP JUMPDEST PUSH1 0x0 PUSH2 0x2FCD DUP3 PUSH2 0x2F2B JUMP JUMPDEST PUSH2 0x2FD7 DUP2 DUP6 PUSH2 0x2F36 JUMP JUMPDEST SWAP4 POP DUP4 PUSH1 0x20 DUP3 MUL DUP6 ADD PUSH2 0x2FE9 DUP6 PUSH2 0x2F47 JUMP JUMPDEST DUP1 PUSH1 0x0 JUMPDEST DUP6 DUP2 LT ISZERO PUSH2 0x3025 JUMPI DUP5 DUP5 SUB DUP10 MSTORE DUP2 MLOAD PUSH2 0x3006 DUP6 DUP3 PUSH2 0x2FA1 JUMP JUMPDEST SWAP5 POP PUSH2 0x3011 DUP4 PUSH2 0x2FB5 JUMP JUMPDEST SWAP3 POP PUSH1 0x20 DUP11 ADD SWAP10 POP POP PUSH1 0x1 DUP2 ADD SWAP1 POP PUSH2 0x2FED JUMP JUMPDEST POP DUP3 SWAP8 POP DUP8 SWAP6 POP POP POP POP POP POP SWAP3 SWAP2 POP POP JUMP JUMPDEST PUSH1 0x0 PUSH1 0x20 DUP3 ADD SWAP1 POP DUP2 DUP2 SUB PUSH1 0x0 DUP4 ADD MSTORE PUSH2 0x3051 DUP2 DUP5 PUSH2 0x2FC2 JUMP JUMPDEST SWAP1 POP SWAP3 SWAP2 POP POP JUMP JUMPDEST PUSH1 0x0 DUP1 REVERT JUMPDEST PUSH1 0x0 DUP1 REVERT JUMPDEST PUSH32 0x4E487B7100000000000000000000000000000000000000000000000000000000 PUSH1 0x0 MSTORE PUSH1 0x41 PUSH1 0x4 MSTORE PUSH1 0x24 PUSH1 0x0 REVERT JUMPDEST PUSH2 0x309B DUP3 PUSH2 0x2D4A JUMP JUMPDEST DUP2 ADD DUP2 DUP2 LT PUSH8 0xFFFFFFFFFFFFFFFF DUP3 GT OR ISZERO PUSH2 0x30BA JUMPI PUSH2 0x30B9 PUSH2 0x3063 JUMP JUMPDEST JUMPDEST DUP1 PUSH1 0x40 MSTORE POP POP POP JUMP JUMPDEST PUSH1 0x0 PUSH2 0x30CD PUSH2 0x2DB6 JUMP JUMPDEST SWAP1 POP PUSH2 0x30D9 DUP3 DUP3 PUSH2 0x3092 JUMP JUMPDEST SWAP2 SWAP1 POP JUMP JUMPDEST PUSH1 0x0 PUSH8 0xFFFFFFFFFFFFFFFF DUP3 GT ISZERO PUSH2 0x30F9 JUMPI PUSH2 0x30F8 PUSH2 0x3063 JUMP JUMPDEST JUMPDEST PUSH2 0x3102 DUP3 PUSH2 0x2D4A JUMP JUMPDEST SWAP1 POP PUSH1 0x20 DUP2 ADD SWAP1 POP SWAP2 SWAP1 POP JUMP JUMPDEST DUP3 DUP2 DUP4 CALLDATACOPY PUSH1 0x0 DUP4 DUP4 ADD MSTORE POP POP POP JUMP JUMPDEST PUSH1 0x0 PUSH2 0x3131 PUSH2 0x312C DUP5 PUSH2 0x30DE JUMP JUMPDEST PUSH2 0x30C3 JUMP JUMPDEST SWAP1 POP DUP3 DUP2 MSTORE PUSH1 0x20 DUP2 ADD DUP5 DUP5 DUP5 ADD GT ISZERO PUSH2 0x314D JUMPI PUSH2 0x314C PUSH2 0x305E JUMP JUMPDEST JUMPDEST PUSH2 0x3158 DUP5 DUP3 DUP6 PUSH2 0x310F JUMP JUMPDEST POP SWAP4 SWAP3 POP POP POP JUMP JUMPDEST PUSH1 0x0 DUP3 PUSH1 0x1F DUP4 ADD SLT PUSH2 0x3175 JUMPI PUSH2 0x3174 PUSH2 0x3059 JUMP JUMPDEST JUMPDEST DUP2 CALLDATALOAD PUSH2 0x3185 DUP5 DUP3 PUSH1 0x20 DUP7 ADD PUSH2 0x311E JUMP JUMPDEST SWAP2 POP POP SWAP3 SWAP2 POP POP JUMP JUMPDEST PUSH1 0x0 PUSH1 0x20 DUP3 DUP5 SUB SLT ISZERO PUSH2 0x31A4 JUMPI PUSH2 0x31A3 PUSH2 0x2DC0 JUMP JUMPDEST JUMPDEST PUSH1 0x0 DUP3 ADD CALLDATALOAD PUSH8 0xFFFFFFFFFFFFFFFF DUP2 GT ISZERO PUSH2 0x31C2 JUMPI PUSH2 0x31C1 PUSH2 0x2DC5 JUMP JUMPDEST JUMPDEST PUSH2 0x31CE DUP5 DUP3 DUP6 ADD PUSH2 0x3160 JUMP JUMPDEST SWAP2 POP POP SWAP3 SWAP2 POP POP JUMP JUMPDEST PUSH1 0x0 PUSH1 0xFF DUP3 AND SWAP1 POP SWAP2 SWAP1 POP JUMP JUMPDEST PUSH2 0x31ED DUP2 PUSH2 0x31D7 JUMP JUMPDEST DUP3 MSTORE POP POP JUMP JUMPDEST PUSH1 0x0 PUSH1 0x20 DUP3 ADD SWAP1 POP PUSH2 0x3208 PUSH1 0x0 DUP4 ADD DUP5 PUSH2 0x31E4 JUMP JUMPDEST SWAP3 SWAP2 POP POP JUMP JUMPDEST PUSH1 0x0 PUSH4 0xFFFFFFFF DUP3 AND SWAP1 POP SWAP2 SWAP1 POP JUMP JUMPDEST PUSH2 0x3227 DUP2 PUSH2 0x320E JUMP JUMPDEST DUP2 EQ PUSH2 0x3232 JUMPI PUSH1 0x0 DUP1 REVERT JUMPDEST POP JUMP JUMPDEST PUSH1 0x0 DUP2 CALLDATALOAD SWAP1 POP PUSH2 0x3244 DUP2 PUSH2 0x321E JUMP JUMPDEST SWAP3 SWAP2 POP POP JUMP JUMPDEST PUSH1 0x0 DUP1 PUSH1 0x0 DUP1 PUSH1 0x0 PUSH1 0xA0 DUP7 DUP9 SUB SLT ISZERO PUSH2 0x3266 JUMPI PUSH2 0x3265 PUSH2 0x2DC0 JUMP JUMPDEST JUMPDEST PUSH1 0x0 DUP7 ADD CALLDATALOAD PUSH8 0xFFFFFFFFFFFFFFFF DUP2 GT ISZERO PUSH2 0x3284 JUMPI PUSH2 0x3283 PUSH2 0x2DC5 JUMP JUMPDEST JUMPDEST PUSH2 0x3290 DUP9 DUP3 DUP10 ADD PUSH2 0x3160 JUMP JUMPDEST SWAP6 POP POP PUSH1 0x20 PUSH2 0x32A1 DUP9 DUP3 DUP10 ADD PUSH2 0x3235 JUMP JUMPDEST SWAP5 POP POP PUSH1 0x40 DUP7 ADD CALLDATALOAD PUSH8 0xFFFFFFFFFFFFFFFF DUP2 GT ISZERO PUSH2 0x32C2 JUMPI PUSH2 0x32C1 PUSH2 0x2DC5 JUMP JUMPDEST JUMPDEST PUSH2 0x32CE DUP9 DUP3 DUP10 ADD PUSH2 0x3160 JUMP JUMPDEST SWAP4 POP POP PUSH1 0x60 PUSH2 0x32DF DUP9 DUP3 DUP10 ADD PUSH2 0x2E49 JUMP JUMPDEST SWAP3 POP POP PUSH1 0x80 PUSH2 0x32F0 DUP9 DUP3 DUP10 ADD PUSH2 0x2E13 JUMP JUMPDEST SWAP2 POP POP SWAP3 SWAP6 POP SWAP3 SWAP6 SWAP1 SWAP4 POP JUMP JUMPDEST PUSH1 0x0 PUSH1 0x40 DUP3 ADD SWAP1 POP PUSH2 0x3312 PUSH1 0x0 DUP4 ADD DUP6 PUSH2 0x2EAA JUMP JUMPDEST PUSH2 0x331F PUSH1 0x20 DUP4 ADD DUP5 PUSH2 0x2EAA JUMP JUMPDEST SWAP4 SWAP3 POP POP POP JUMP JUMPDEST PUSH2 0x332F DUP2 PUSH2 0x2E28 JUMP JUMPDEST DUP3 MSTORE POP POP JUMP JUMPDEST PUSH2 0x333E DUP2 PUSH2 0x320E JUMP JUMPDEST DUP3 MSTORE POP POP JUMP JUMPDEST PUSH2 0x334D DUP2 PUSH2 0x2E9E JUMP JUMPDEST DUP3 MSTORE POP POP JUMP JUMPDEST PUSH2 0x335C DUP2 PUSH2 0x2DEA JUMP JUMPDEST DUP3 MSTORE POP POP JUMP JUMPDEST PUSH1 0x0 PUSH2 0x140 DUP4 ADD PUSH1 0x0 DUP4 ADD MLOAD DUP5 DUP3 SUB PUSH1 0x0 DUP7 ADD MSTORE PUSH2 0x3380 DUP3 DUP3 PUSH2 0x2F68 JUMP JUMPDEST SWAP2 POP POP PUSH1 0x20 DUP4 ADD MLOAD PUSH2 0x3395 PUSH1 0x20 DUP7 ADD DUP3 PUSH2 0x3326 JUMP JUMPDEST POP PUSH1 0x40 DUP4 ADD MLOAD PUSH2 0x33A8 PUSH1 0x40 DUP7 ADD DUP3 PUSH2 0x3326 JUMP JUMPDEST POP PUSH1 0x60 DUP4 ADD MLOAD PUSH2 0x33BB PUSH1 0x60 DUP7 ADD DUP3 PUSH2 0x3326 JUMP JUMPDEST POP PUSH1 0x80 DUP4 ADD MLOAD PUSH2 0x33CE PUSH1 0x80 DUP7 ADD DUP3 PUSH2 0x3335 JUMP JUMPDEST POP PUSH1 0xA0 DUP4 ADD MLOAD PUSH2 0x33E1 PUSH1 0xA0 DUP7 ADD DUP3 PUSH2 0x3326 JUMP JUMPDEST POP PUSH1 0xC0 DUP4 ADD MLOAD PUSH2 0x33F4 PUSH1 0xC0 DUP7 ADD DUP3 PUSH2 0x3344 JUMP JUMPDEST POP PUSH1 0xE0 DUP4 ADD MLOAD PUSH2 0x3407 PUSH1 0xE0 DUP7 ADD DUP3 PUSH2 0x3344 JUMP JUMPDEST POP PUSH2 0x100 DUP4 ADD MLOAD PUSH2 0x341C PUSH2 0x100 DUP7 ADD DUP3 PUSH2 0x3353 JUMP JUMPDEST POP PUSH2 0x120 DUP4 ADD MLOAD PUSH2 0x3431 PUSH2 0x120 DUP7 ADD DUP3 PUSH2 0x3353 JUMP JUMPDEST POP DUP1 SWAP2 POP POP SWAP3 SWAP2 POP POP JUMP JUMPDEST PUSH1 0x0 PUSH1 0x20 DUP3 ADD SWAP1 POP DUP2 DUP2 SUB PUSH1 0x0 DUP4 ADD MSTORE PUSH2 0x3456 DUP2 DUP5 PUSH2 0x3362 JUMP JUMPDEST SWAP1 POP SWAP3 SWAP2 POP POP JUMP JUMPDEST PUSH1 0x0 DUP1 PUSH1 0x40 DUP4 DUP6 SUB SLT ISZERO PUSH2 0x3475 JUMPI PUSH2 0x3474 PUSH2 0x2DC0 JUMP JUMPDEST JUMPDEST PUSH1 0x0 DUP4 ADD CALLDATALOAD PUSH8 0xFFFFFFFFFFFFFFFF DUP2 GT ISZERO PUSH2 0x3493 JUMPI PUSH2 0x3492 PUSH2 0x2DC5 JUMP JUMPDEST JUMPDEST PUSH2 0x349F DUP6 DUP3 DUP7 ADD PUSH2 0x3160 JUMP JUMPDEST SWAP3 POP POP PUSH1 0x20 PUSH2 0x34B0 DUP6 DUP3 DUP7 ADD PUSH2 0x2E13 JUMP JUMPDEST SWAP2 POP POP SWAP3 POP SWAP3 SWAP1 POP JUMP JUMPDEST PUSH2 0x34C3 DUP2 PUSH2 0x2DEA JUMP JUMPDEST DUP3 MSTORE POP POP JUMP JUMPDEST PUSH1 0x0 PUSH1 0x40 DUP3 ADD SWAP1 POP PUSH2 0x34DE PUSH1 0x0 DUP4 ADD DUP6 PUSH2 0x34BA JUMP JUMPDEST PUSH2 0x34EB PUSH1 0x20 DUP4 ADD DUP5 PUSH2 0x31E4 JUMP JUMPDEST SWAP4 SWAP3 POP POP POP JUMP JUMPDEST PUSH2 0x34FB DUP2 PUSH2 0x31D7 JUMP JUMPDEST DUP2 EQ PUSH2 0x3506 JUMPI PUSH1 0x0 DUP1 REVERT JUMPDEST POP JUMP JUMPDEST PUSH1 0x0 DUP2 CALLDATALOAD SWAP1 POP PUSH2 0x3518 DUP2 PUSH2 0x34F2 JUMP JUMPDEST SWAP3 SWAP2 POP POP JUMP JUMPDEST PUSH1 0x0 PUSH1 0x20 DUP3 DUP5 SUB SLT ISZERO PUSH2 0x3534 JUMPI PUSH2 0x3533 PUSH2 0x2DC0 JUMP JUMPDEST JUMPDEST PUSH1 0x0 PUSH2 0x3542 DUP5 DUP3 DUP6 ADD PUSH2 0x3509 JUMP JUMPDEST SWAP2 POP POP SWAP3 SWAP2 POP POP JUMP JUMPDEST PUSH1 0x0 DUP1 PUSH1 0x40 DUP4 DUP6 SUB SLT ISZERO PUSH2 0x3562 JUMPI PUSH2 0x3561 PUSH2 0x2DC0 JUMP JUMPDEST JUMPDEST PUSH1 0x0 PUSH2 0x3570 DUP6 DUP3 DUP7 ADD PUSH2 0x2E13 JUMP JUMPDEST SWAP3 POP POP PUSH1 0x20 PUSH2 0x3581 DUP6 DUP3 DUP7 ADD PUSH2 0x2E13 JUMP JUMPDEST SWAP2 POP POP SWAP3 POP SWAP3 SWAP1 POP JUMP JUMPDEST PUSH1 0x0 DUP1 PUSH1 0x40 DUP4 DUP6 SUB SLT ISZERO PUSH2 0x35A2 JUMPI PUSH2 0x35A1 PUSH2 0x2DC0 JUMP JUMPDEST JUMPDEST PUSH1 0x0 PUSH2 0x35B0 DUP6 DUP3 DUP7 ADD PUSH2 0x3509 JUMP JUMPDEST SWAP3 POP POP PUSH1 0x20 PUSH2 0x35C1 DUP6 DUP3 DUP7 ADD PUSH2 0x2E49 JUMP JUMPDEST SWAP2 POP POP SWAP3 POP SWAP3 SWAP1 POP JUMP JUMPDEST PUSH1 0x0 PUSH1 0x40 DUP3 ADD SWAP1 POP PUSH2 0x35E0 PUSH1 0x0 DUP4 ADD DUP6 PUSH2 0x2ED4 JUMP JUMPDEST PUSH2 0x35ED PUSH1 0x20 DUP4 ADD DUP5 PUSH2 0x2ED4 JUMP JUMPDEST SWAP4 SWAP3 POP POP POP JUMP JUMPDEST PUSH32 0x4E487B7100000000000000000000000000000000000000000000000000000000 PUSH1 0x0 MSTORE PUSH1 0x22 PUSH1 0x4 MSTORE PUSH1 0x24 PUSH1 0x0 REVERT JUMPDEST PUSH1 0x0 PUSH1 0x2 DUP3 DIV SWAP1 POP PUSH1 0x1 DUP3 AND DUP1 PUSH2 0x363B JUMPI PUSH1 0x7F DUP3 AND SWAP2 POP JUMPDEST PUSH1 0x20 DUP3 LT DUP2 SUB PUSH2 0x364E JUMPI PUSH2 0x364D PUSH2 0x35F4 JUMP JUMPDEST JUMPDEST POP SWAP2 SWAP1 POP JUMP JUMPDEST PUSH1 0x0 DUP2 SWAP1 POP SWAP3 SWAP2 POP POP JUMP JUMPDEST PUSH1 0x0 PUSH2 0x366A DUP3 PUSH2 0x2D04 JUMP JUMPDEST PUSH2 0x3674 DUP2 DUP6 PUSH2 0x3654 JUMP JUMPDEST SWAP4 POP PUSH2 0x3684 DUP2 DUP6 PUSH1 0x20 DUP7 ADD PUSH2 0x2D20 JUMP JUMPDEST DUP1 DUP5 ADD SWAP2 POP POP SWAP3 SWAP2 POP POP JUMP JUMPDEST PUSH1 0x0 PUSH2 0x369C DUP3 DUP5 PUSH2 0x365F JUMP JUMPDEST SWAP2 POP DUP2 SWAP1 POP SWAP3 SWAP2 POP POP JUMP JUMPDEST PUSH32 0x546865206F7264657220686173206265656E2077697468647261776E00000000 PUSH1 0x0 DUP3 ADD MSTORE POP JUMP JUMPDEST PUSH1 0x0 PUSH2 0x36DD PUSH1 0x1C DUP4 PUSH2 0x2D0F JUMP JUMPDEST SWAP2 POP PUSH2 0x36E8 DUP3 PUSH2 0x36A7 JUMP JUMPDEST PUSH1 0x20 DUP3 ADD SWAP1 POP SWAP2 SWAP1 POP JUMP JUMPDEST PUSH1 0x0 PUSH1 0x20 DUP3 ADD SWAP1 POP DUP2 DUP2 SUB PUSH1 0x0 DUP4 ADD MSTORE PUSH2 0x370C DUP2 PUSH2 0x36D0 JUMP JUMPDEST SWAP1 POP SWAP2 SWAP1 POP JUMP JUMPDEST PUSH32 0x506C6561736520636F6E6669726D207468652077616C6C657420616464726573 PUSH1 0x0 DUP3 ADD MSTORE PUSH32 0x732C2043616E206E6F7420776974686472617700000000000000000000000000 PUSH1 0x20 DUP3 ADD MSTORE POP JUMP JUMPDEST PUSH1 0x0 PUSH2 0x376F PUSH1 0x33 DUP4 PUSH2 0x2D0F JUMP JUMPDEST SWAP2 POP PUSH2 0x377A DUP3 PUSH2 0x3713 JUMP JUMPDEST PUSH1 0x40 DUP3 ADD SWAP1 POP SWAP2 SWAP1 POP JUMP JUMPDEST PUSH1 0x0 PUSH1 0x20 DUP3 ADD SWAP1 POP DUP2 DUP2 SUB PUSH1 0x0 DUP4 ADD MSTORE PUSH2 0x379E DUP2 PUSH2 0x3762 JUMP JUMPDEST SWAP1 POP SWAP2 SWAP1 POP JUMP JUMPDEST PUSH32 0x4E487B7100000000000000000000000000000000000000000000000000000000 PUSH1 0x0 MSTORE PUSH1 0x11 PUSH1 0x4 MSTORE PUSH1 0x24 PUSH1 0x0 REVERT JUMPDEST PUSH1 0x0 PUSH2 0x37DF DUP3 PUSH2 0x2E28 JUMP JUMPDEST SWAP2 POP PUSH2 0x37EA DUP4 PUSH2 0x2E28 JUMP JUMPDEST SWAP3 POP DUP3 DUP3 SUB SWAP1 POP DUP2 DUP2 GT ISZERO PUSH2 0x3802 JUMPI PUSH2 0x3801 PUSH2 0x37A5 JUMP JUMPDEST JUMPDEST SWAP3 SWAP2 POP POP JUMP JUMPDEST PUSH32 0x4E487B7100000000000000000000000000000000000000000000000000000000 PUSH1 0x0 MSTORE PUSH1 0x12 PUSH1 0x4 MSTORE PUSH1 0x24 PUSH1 0x0 REVERT JUMPDEST PUSH1 0x0 PUSH2 0x3842 DUP3 PUSH2 0x2E28 JUMP JUMPDEST SWAP2 POP PUSH2 0x384D DUP4 PUSH2 0x2E28 JUMP JUMPDEST SWAP3 POP DUP3 PUSH2 0x385D JUMPI PUSH2 0x385C PUSH2 0x3808 JUMP JUMPDEST JUMPDEST DUP3 DUP3 DIV SWAP1 POP SWAP3 SWAP2 POP POP JUMP JUMPDEST PUSH1 0x0 PUSH2 0x3873 DUP3 PUSH2 0x2E28 JUMP JUMPDEST SWAP2 POP PUSH2 0x387E DUP4 PUSH2 0x2E28 JUMP JUMPDEST SWAP3 POP DUP3 DUP3 MUL PUSH2 0x388C DUP2 PUSH2 0x2E28 JUMP JUMPDEST SWAP2 POP DUP3 DUP3 DIV DUP5 EQ DUP4 ISZERO OR PUSH2 0x38A3 JUMPI PUSH2 0x38A2 PUSH2 0x37A5 JUMP JUMPDEST JUMPDEST POP SWAP3 SWAP2 POP POP JUMP JUMPDEST PUSH1 0x0 PUSH2 0x38B5 DUP3 PUSH2 0x2E28 JUMP JUMPDEST SWAP2 POP PUSH2 0x38C0 DUP4 PUSH2 0x2E28 JUMP JUMPDEST SWAP3 POP DUP3 DUP3 ADD SWAP1 POP DUP1 DUP3 GT ISZERO PUSH2 0x38D8 JUMPI PUSH2 0x38D7 PUSH2 0x37A5 JUMP JUMPDEST JUMPDEST SWAP3 SWAP2 POP POP JUMP JUMPDEST PUSH32 0x4E6F74206465706F736974730000000000000000000000000000000000000000 PUSH1 0x0 DUP3 ADD MSTORE POP JUMP JUMPDEST PUSH1 0x0 PUSH2 0x3914 PUSH1 0xC DUP4 PUSH2 0x2D0F JUMP JUMPDEST SWAP2 POP PUSH2 0x391F DUP3 PUSH2 0x38DE JUMP JUMPDEST PUSH1 0x20 DUP3 ADD SWAP1 POP SWAP2 SWAP1 POP JUMP JUMPDEST PUSH1 0x0 PUSH1 0x20 DUP3 ADD SWAP1 POP DUP2 DUP2 SUB PUSH1 0x0 DUP4 ADD MSTORE PUSH2 0x3943 DUP2 PUSH2 0x3907 JUMP JUMPDEST SWAP1 POP SWAP2 SWAP1 POP JUMP JUMPDEST PUSH32 0x4E487B7100000000000000000000000000000000000000000000000000000000 PUSH1 0x0 MSTORE PUSH1 0x32 PUSH1 0x4 MSTORE PUSH1 0x24 PUSH1 0x0 REVERT JUMPDEST PUSH1 0x0 PUSH2 0x3984 DUP3 PUSH2 0x2E28 JUMP JUMPDEST SWAP2 POP PUSH32 0xFFFFFFFFFFFFFFFFFFFFFFFFFFFFFFFFFFFFFFFFFFFFFFFFFFFFFFFFFFFFFFFF DUP3 SUB PUSH2 0x39B6 JUMPI PUSH2 0x39B5 PUSH2 0x37A5 JUMP JUMPDEST JUMPDEST PUSH1 0x1 DUP3 ADD SWAP1 POP SWAP2 SWAP1 POP JUMP JUMPDEST PUSH32 0x416C726561647920706169640000000000000000000000000000000000000000 PUSH1 0x0 DUP3 ADD MSTORE POP JUMP JUMPDEST PUSH1 0x0 PUSH2 0x39F7 PUSH1 0xC DUP4 PUSH2 0x2D0F JUMP JUMPDEST SWAP2 POP PUSH2 0x3A02 DUP3 PUSH2 0x39C1 JUMP JUMPDEST PUSH1 0x20 DUP3 ADD SWAP1 POP SWAP2 SWAP1 POP JUMP JUMPDEST PUSH1 0x0 PUSH1 0x20 DUP3 ADD SWAP1 POP DUP2 DUP2 SUB PUSH1 0x0 DUP4 ADD MSTORE PUSH2 0x3A26 DUP2 PUSH2 0x39EA JUMP JUMPDEST SWAP1 POP SWAP2 SWAP1 POP JUMP JUMPDEST PUSH32 0x4E6F7420656E6F75676820435344000000000000000000000000000000000000 PUSH1 0x0 DUP3 ADD MSTORE POP JUMP JUMPDEST PUSH1 0x0 PUSH2 0x3A63 PUSH1 0xE DUP4 PUSH2 0x2D0F JUMP JUMPDEST SWAP2 POP PUSH2 0x3A6E DUP3 PUSH2 0x3A2D JUMP JUMPDEST PUSH1 0x20 DUP3 ADD SWAP1 POP SWAP2 SWAP1 POP JUMP JUMPDEST PUSH1 0x0 PUSH1 0x20 DUP3 ADD SWAP1 POP DUP2 DUP2 SUB PUSH1 0x0 DUP4 ADD MSTORE PUSH2 0x3A92 DUP2 PUSH2 0x3A56 JUMP JUMPDEST SWAP1 POP SWAP2 SWAP1 POP JUMP JUMPDEST PUSH1 0x0 PUSH2 0x3AA4 DUP3 PUSH2 0x320E JUMP JUMPDEST SWAP2 POP PUSH2 0x3AAF DUP4 PUSH2 0x320E JUMP JUMPDEST SWAP3 POP DUP3 DUP3 MUL PUSH2 0x3ABD DUP2 PUSH2 0x320E JUMP JUMPDEST SWAP2 POP DUP1 DUP3 EQ PUSH2 0x3ACF JUMPI PUSH2 0x3ACE PUSH2 0x37A5 JUMP JUMPDEST JUMPDEST POP SWAP3 SWAP2 POP POP JUMP JUMPDEST PUSH1 0x0 DUP2 SWAP1 POP DUP2 PUSH1 0x0 MSTORE PUSH1 0x20 PUSH1 0x0 KECCAK256 SWAP1 POP SWAP2 SWAP1 POP JUMP JUMPDEST PUSH1 0x0 PUSH1 0x20 PUSH1 0x1F DUP4 ADD DIV SWAP1 POP SWAP2 SWAP1 POP JUMP JUMPDEST PUSH1 0x0 DUP3 DUP3 SHL SWAP1 POP SWAP3 SWAP2 POP POP JUMP JUMPDEST PUSH1 0x0 PUSH1 0x8 DUP4 MUL PUSH2 0x3B38 PUSH32 0xFFFFFFFFFFFFFFFFFFFFFFFFFFFFFFFFFFFFFFFFFFFFFFFFFFFFFFFFFFFFFFFF DUP3 PUSH2 0x3AFB JUMP JUMPDEST PUSH2 0x3B42 DUP7 DUP4 PUSH2 0x3AFB JUMP JUMPDEST SWAP6 POP DUP1 NOT DUP5 AND SWAP4 POP DUP1 DUP7 AND DUP5 OR SWAP3 POP POP POP SWAP4 SWAP3 POP POP POP JUMP JUMPDEST PUSH1 0x0 DUP2 SWAP1 POP SWAP2 SWAP1 POP JUMP JUMPDEST PUSH1 0x0 PUSH2 0x3B7F PUSH2 0x3B7A PUSH2 0x3B75 DUP5 PUSH2 0x2E28 JUMP JUMPDEST PUSH2 0x3B5A JUMP JUMPDEST PUSH2 0x2E28 JUMP JUMPDEST SWAP1 POP SWAP2 SWAP1 POP JUMP JUMPDEST PUSH1 0x0 DUP2 SWAP1 POP SWAP2 SWAP1 POP JUMP JUMPDEST PUSH2 0x3B99 DUP4 PUSH2 0x3B64 JUMP JUMPDEST PUSH2 0x3BAD PUSH2 0x3BA5 DUP3 PUSH2 0x3B86 JUMP JUMPDEST DUP5 DUP5 SLOAD PUSH2 0x3B08 JUMP JUMPDEST DUP3 SSTORE POP POP POP POP JUMP JUMPDEST PUSH1 0x0 SWAP1 JUMP JUMPDEST PUSH2 0x3BC2 PUSH2 0x3BB5 JUMP JUMPDEST PUSH2 0x3BCD DUP2 DUP5 DUP5 PUSH2 0x3B90 JUMP JUMPDEST POP POP POP JUMP JUMPDEST JUMPDEST DUP2 DUP2 LT ISZERO PUSH2 0x3BF1 JUMPI PUSH2 0x3BE6 PUSH1 0x0 DUP3 PUSH2 0x3BBA JUMP JUMPDEST PUSH1 0x1 DUP2 ADD SWAP1 POP PUSH2 0x3BD3 JUMP JUMPDEST POP POP JUMP JUMPDEST PUSH1 0x1F DUP3 GT ISZERO PUSH2 0x3C36 JUMPI PUSH2 0x3C07 DUP2 PUSH2 0x3AD6 JUMP JUMPDEST PUSH2 0x3C10 DUP5 PUSH2 0x3AEB JUMP JUMPDEST DUP2 ADD PUSH1 0x20 DUP6 LT ISZERO PUSH2 0x3C1F JUMPI DUP2 SWAP1 POP JUMPDEST PUSH2 0x3C33 PUSH2 0x3C2B DUP6 PUSH2 0x3AEB JUMP JUMPDEST DUP4 ADD DUP3 PUSH2 0x3BD2 JUMP JUMPDEST POP POP JUMPDEST POP POP POP JUMP JUMPDEST PUSH1 0x0 DUP3 DUP3 SHR SWAP1 POP SWAP3 SWAP2 POP POP JUMP JUMPDEST PUSH1 0x0 PUSH2 0x3C59 PUSH1 0x0 NOT DUP5 PUSH1 0x8 MUL PUSH2 0x3C3B JUMP JUMPDEST NOT DUP1 DUP4 AND SWAP2 POP POP SWAP3 SWAP2 POP POP JUMP JUMPDEST PUSH1 0x0 PUSH2 0x3C72 DUP4 DUP4 PUSH2 0x3C48 JUMP JUMPDEST SWAP2 POP DUP3 PUSH1 0x2 MUL DUP3 OR SWAP1 POP SWAP3 SWAP2 POP POP JUMP JUMPDEST PUSH2 0x3C8B DUP3 PUSH2 0x2D04 JUMP JUMPDEST PUSH8 0xFFFFFFFFFFFFFFFF DUP2 GT ISZERO PUSH2 0x3CA4 JUMPI PUSH2 0x3CA3 PUSH2 0x3063 JUMP JUMPDEST JUMPDEST PUSH2 0x3CAE DUP3 SLOAD PUSH2 0x3623 JUMP JUMPDEST PUSH2 0x3CB9 DUP3 DUP3 DUP6 PUSH2 0x3BF5 JUMP JUMPDEST PUSH1 0x0 PUSH1 0x20 SWAP1 POP PUSH1 0x1F DUP4 GT PUSH1 0x1 DUP2 EQ PUSH2 0x3CEC JUMPI PUSH1 0x0 DUP5 ISZERO PUSH2 0x3CDA JUMPI DUP3 DUP8 ADD MLOAD SWAP1 POP JUMPDEST PUSH2 0x3CE4 DUP6 DUP3 PUSH2 0x3C66 JUMP JUMPDEST DUP7 SSTORE POP PUSH2 0x3D4C JUMP JUMPDEST PUSH1 0x1F NOT DUP5 AND PUSH2 0x3CFA DUP7 PUSH2 0x3AD6 JUMP JUMPDEST PUSH1 0x0 JUMPDEST DUP3 DUP2 LT ISZERO PUSH2 0x3D22 JUMPI DUP5 DUP10 ADD MLOAD DUP3 SSTORE PUSH1 0x1 DUP3 ADD SWAP2 POP PUSH1 0x20 DUP6 ADD SWAP5 POP PUSH1 0x20 DUP2 ADD SWAP1 POP PUSH2 0x3CFD JUMP JUMPDEST DUP7 DUP4 LT ISZERO PUSH2 0x3D3F JUMPI DUP5 DUP10 ADD MLOAD PUSH2 0x3D3B PUSH1 0x1F DUP10 AND DUP3 PUSH2 0x3C48 JUMP JUMPDEST DUP4 SSTORE POP JUMPDEST PUSH1 0x1 PUSH1 0x2 DUP9 MUL ADD DUP9 SSTORE POP POP POP JUMPDEST POP POP POP POP POP POP JUMP JUMPDEST PUSH32 0x4E6F7420656E6F75676820746F6B656E73000000000000000000000000000000 PUSH1 0x0 DUP3 ADD MSTORE POP JUMP JUMPDEST PUSH1 0x0 PUSH2 0x3D8A PUSH1 0x11 DUP4 PUSH2 0x2D0F JUMP JUMPDEST SWAP2 POP PUSH2 0x3D95 DUP3 PUSH2 0x3D54 JUMP JUMPDEST PUSH1 0x20 DUP3 ADD SWAP1 POP SWAP2 SWAP1 POP JUMP JUMPDEST PUSH1 0x0 PUSH1 0x20 DUP3 ADD SWAP1 POP DUP2 DUP2 SUB PUSH1 0x0 DUP4 ADD MSTORE PUSH2 0x3DB9 DUP2 PUSH2 0x3D7D JUMP JUMPDEST SWAP1 POP SWAP2 SWAP1 POP JUMP JUMPDEST PUSH32 0x416C7265616479207374616B6564000000000000000000000000000000000000 PUSH1 0x0 DUP3 ADD MSTORE POP JUMP JUMPDEST PUSH1 0x0 PUSH2 0x3DF6 PUSH1 0xE DUP4 PUSH2 0x2D0F JUMP JUMPDEST SWAP2 POP PUSH2 0x3E01 DUP3 PUSH2 0x3DC0 JUMP JUMPDEST PUSH1 0x20 DUP3 ADD SWAP1 POP SWAP2 SWAP1 POP JUMP JUMPDEST PUSH1 0x0 PUSH1 0x20 DUP3 ADD SWAP1 POP DUP2 DUP2 SUB PUSH1 0x0 DUP4 ADD MSTORE PUSH2 0x3E25 DUP2 PUSH2 0x3DE9 JUMP JUMPDEST SWAP1 POP SWAP2 SWAP1 POP JUMP JUMPDEST PUSH32 0x45524332303A207472616E736665722066726F6D20746865207A65726F206164 PUSH1 0x0 DUP3 ADD MSTORE PUSH32 0x6472657373000000000000000000000000000000000000000000000000000000 PUSH1 0x20 DUP3 ADD MSTORE POP JUMP JUMPDEST PUSH1 0x0 PUSH2 0x3E88 PUSH1 0x25 DUP4 PUSH2 0x2D0F JUMP JUMPDEST SWAP2 POP PUSH2 0x3E93 DUP3 PUSH2 0x3E2C JUMP JUMPDEST PUSH1 0x40 DUP3 ADD SWAP1 POP SWAP2 SWAP1 POP JUMP JUMPDEST PUSH1 0x0 PUSH1 0x20 DUP3 ADD SWAP1 POP DUP2 DUP2 SUB PUSH1 0x0 DUP4 ADD MSTORE PUSH2 0x3EB7 DUP2 PUSH2 0x3E7B JUMP JUMPDEST SWAP1 POP SWAP2 SWAP1 POP JUMP JUMPDEST PUSH32 0x45524332303A207472616E7366657220746F20746865207A65726F2061646472 PUSH1 0x0 DUP3 ADD MSTORE PUSH32 0x6573730000000000000000000000000000000000000000000000000000000000 PUSH1 0x20 DUP3 ADD MSTORE POP JUMP JUMPDEST PUSH1 0x0 PUSH2 0x3F1A PUSH1 0x23 DUP4 PUSH2 0x2D0F JUMP JUMPDEST SWAP2 POP PUSH2 0x3F25 DUP3 PUSH2 0x3EBE JUMP JUMPDEST PUSH1 0x40 DUP3 ADD SWAP1 POP SWAP2 SWAP1 POP JUMP JUMPDEST PUSH1 0x0 PUSH1 0x20 DUP3 ADD SWAP1 POP DUP2 DUP2 SUB PUSH1 0x0 DUP4 ADD MSTORE PUSH2 0x3F49 DUP2 PUSH2 0x3F0D JUMP JUMPDEST SWAP1 POP SWAP2 SWAP1 POP JUMP JUMPDEST PUSH32 0x45524332303A207472616E7366657220616D6F756E7420657863656564732062 PUSH1 0x0 DUP3 ADD MSTORE PUSH32 0x616C616E63650000000000000000000000000000000000000000000000000000 PUSH1 0x20 DUP3 ADD MSTORE POP JUMP JUMPDEST PUSH1 0x0 PUSH2 0x3FAC PUSH1 0x26 DUP4 PUSH2 0x2D0F JUMP JUMPDEST SWAP2 POP PUSH2 0x3FB7 DUP3 PUSH2 0x3F50 JUMP JUMPDEST PUSH1 0x40 DUP3 ADD SWAP1 POP SWAP2 SWAP1 POP JUMP JUMPDEST PUSH1 0x0 PUSH1 0x20 DUP3 ADD SWAP1 POP DUP2 DUP2 SUB PUSH1 0x0 DUP4 ADD MSTORE PUSH2 0x3FDB DUP2 PUSH2 0x3F9F JUMP JUMPDEST SWAP1 POP SWAP2 SWAP1 POP JUMP INVALID LOG2 PUSH5 0x6970667358 0x22 SLT KECCAK256 GASLIMIT 0x2E 0xD4 0x4C AND 0x1F PUSH23 0x6B757D7E85D19A6FC2608F384EE46D608FAC115B57C212 PUSH28 0x7E64736F6C6343000811003300000000000000000000000000000000 "},"gasEstimates":{"creation":{"codeDepositCost":"3281600","executionCost":"infinite","totalCost":"infinite"},"external":{"_fullnodeDepositAmount()":"2497","_privoderDepositAmount()":"2496","allowance(address,address)":"infinite","approve(address,uint256)":"23169","balanceOf(address)":"2931","bindWallet(string)":"infinite","changeWallet(string,address)":"infinite","checkOrder(string)":"infinite","clientOrder(string,uint32,string,uint256,address)":"infinite","decimals()":"2517","getAllOrderTokens()":"infinite","getDeposit(address)":"infinite","getOrdersInfo(string)":"infinite","getPrivoderOrders(address)":"infinite","getUserInfo(string)":"infinite","getWallet(string)":"infinite","isDeposit(uint8)":"2947","name()":"infinite","stake(uint8,uint256)":"infinite","symbol()":"infinite","totalSupply()":"2497","transfer(address,uint256)":"infinite","unbindWallet(string)":"infinite","verifyWallet(string)":"infinite","withdraw(uint8)":"infinite","withdrawAllOrderTokens()":"infinite","withdrawOrderTokens(string)":"infinite"}},"methodIdentifiers":{"_fullnodeDepositAmount()":"a23c7c14","_privoderDepositAmount()":"c5bc91e8","allowance(address,address)":"dd62ed3e","approve(address,uint256)":"095ea7b3","balanceOf(address)":"70a08231","bindWallet(string)":"8ec012b9","changeWallet(string,address)":"87a858d2","checkOrder(string)":"dd6887ed","clientOrder(string,uint32,string,uint256,address)":"5c9abe11","decimals()":"313ce567","getAllOrderTokens()":"f3fbfc7b","getDeposit(address)":"e1254fba","getOrdersInfo(string)":"8291a021","getPrivoderOrders(address)":"183dd1cd","getUserInfo(string)":"7c9b7fdd","getWallet(string)":"a4e2df66","isDeposit(uint8)":"f276b8aa","name()":"06fdde03","stake(uint8,uint256)":"dd752e55","symbol()":"95d89b41","totalSupply()":"18160ddd","transfer(address,uint256)":"a9059cbb","unbindWallet(string)":"d19e4856","verifyWallet(string)":"ffc2c9b7","withdraw(uint8)":"c6ab5d90","withdrawAllOrderTokens()":"27a0b34a","withdrawOrderTokens(string)":"25cfedb5"}},"storageLayout":{"storage":[{"astId":1082,"contract":"contracts/CloudSlitDao.sol:CloudSlitDao","label":"name","offset":0,"slot":"0","type":"t_string_storage"},{"astId":1085,"contract":"contracts/CloudSlitDao.sol:CloudSlitDao","label":"symbol","offset":0,"slot":"1","type":"t_string_storage"},{"astId":1087,"contract":"contracts/CloudSlitDao.sol:CloudSlitDao","label":"totalSupply","offset":0,"slot":"2","type":"t_uint256"},{"astId":1090,"contract":"contracts/CloudSlitDao.sol:CloudSlitDao","label":"decimals","offset":0,"slot":"3","type":"t_uint8"},{"astId":1094,"contract":"contracts/CloudSlitDao.sol:CloudSlitDao","label":"balances","offset":0,"slot":"4","type":"t_mapping(t_address,t_uint256)"},{"astId":1100,"contract":"contracts/CloudSlitDao.sol:CloudSlitDao","label":"allowances","offset":0,"slot":"5","type":"t_mapping(t_address,t_mapping(t_address,t_uint256))"},{"astId":35,"contract":"contracts/CloudSlitDao.sol:CloudSlitDao","label":"userWallets","offset":0,"slot":"6","type":"t_mapping(t_string_memory_ptr,t_struct(userWallet)9_storage)"},{"astId":37,"contract":"contracts/CloudSlitDao.sol:CloudSlitDao","label":"_fullnodeDepositAmount","offset":0,"slot":"7","type":"t_uint256"},{"astId":39,"contract":"contracts/CloudSlitDao.sol:CloudSlitDao","label":"_privoderDepositAmount","offset":0,"slot":"8","type":"t_uint256"},{"astId":41,"contract":"contracts/CloudSlitDao.sol:CloudSlitDao","label":"_durationUnit","offset":0,"slot":"9","type":"t_uint32"},{"astId":45,"contract":"contracts/CloudSlitDao.sol:CloudSlitDao","label":"_fullnodeDeposits","offset":0,"slot":"10","type":"t_mapping(t_address,t_uint256)"},{"astId":49,"contract":"contracts/CloudSlitDao.sol:CloudSlitDao","label":"_privoderDeposits","offset":0,"slot":"11","type":"t_mapping(t_address,t_uint256)"},{"astId":54,"contract":"contracts/CloudSlitDao.sol:CloudSlitDao","label":"_orders","offset":0,"slot":"12","type":"t_mapping(t_string_memory_ptr,t_struct(Order)30_storage)"},{"astId":59,"contract":"contracts/CloudSlitDao.sol:CloudSlitDao","label":"_privoderOrders","offset":0,"slot":"13","type":"t_mapping(t_address,t_array(t_string_storage)dyn_storage)"}],"types":{"t_address":{"encoding":"inplace","label":"address","numberOfBytes":"20"},"t_array(t_string_storage)dyn_storage":{"base":"t_string_storage","encoding":"dynamic_array","label":"string[]","numberOfBytes":"32"},"t_bool":{"encoding":"inplace","label":"bool","numberOfBytes":"1"},"t_mapping(t_address,t_array(t_string_storage)dyn_storage)":{"encoding":"mapping","key":"t_address","label":"mapping(address => string[])","numberOfBytes":"32","value":"t_array(t_string_storage)dyn_storage"},"t_mapping(t_address,t_mapping(t_address,t_uint256))":{"encoding":"mapping","key":"t_address","label":"mapping(address => mapping(address => uint256))","numberOfBytes":"32","value":"t_mapping(t_address,t_uint256)"},"t_mapping(t_address,t_uint256)":{"encoding":"mapping","key":"t_address","label":"mapping(address => uint256)","numberOfBytes":"32","value":"t_uint256"},"t_mapping(t_string_memory_ptr,t_struct(Order)30_storage)":{"encoding":"mapping","key":"t_string_memory_ptr","label":"mapping(string => struct CloudSlitDao.Order)","numberOfBytes":"32","value":"t_struct(Order)30_storage"},"t_mapping(t_string_memory_ptr,t_struct(userWallet)9_storage)":{"encoding":"mapping","key":"t_string_memory_ptr","label":"mapping(string => struct CloudSlitDao.userWallet)","numberOfBytes":"32","value":"t_struct(userWallet)9_storage"},"t_string_memory_ptr":{"encoding":"bytes","label":"string","numberOfBytes":"32"},"t_string_storage":{"encoding":"bytes","label":"string","numberOfBytes":"32"},"t_struct(Order)30_storage":{"encoding":"inplace","label":"struct CloudSlitDao.Order","members":[{"astId":11,"contract":"contracts/CloudSlitDao.sol:CloudSlitDao","label":"name","offset":0,"slot":"0","type":"t_string_storage"},{"astId":13,"contract":"contracts/CloudSlitDao.sol:CloudSlitDao","label":"startTime","offset":0,"slot":"1","type":"t_uint256"},{"astId":15,"contract":"contracts/CloudSlitDao.sol:CloudSlitDao","label":"endTime","offset":0,"slot":"2","type":"t_uint256"},{"astId":17,"contract":"contracts/CloudSlitDao.sol:CloudSlitDao","label":"withdrawDuration","offset":0,"slot":"3","type":"t_uint256"},{"astId":19,"contract":"contracts/CloudSlitDao.sol:CloudSlitDao","label":"duration","offset":0,"slot":"4","type":"t_uint32"},{"astId":21,"contract":"contracts/CloudSlitDao.sol:CloudSlitDao","label":"amount","offset":0,"slot":"5","type":"t_uint256"},{"astId":23,"contract":"contracts/CloudSlitDao.sol:CloudSlitDao","label":"used","offset":0,"slot":"6","type":"t_bool"},{"astId":25,"contract":"contracts/CloudSlitDao.sol:CloudSlitDao","label":"withdraw","offset":1,"slot":"6","type":"t_bool"},{"astId":27,"contract":"contracts/CloudSlitDao.sol:CloudSlitDao","label":"payAddress","offset":2,"slot":"6","type":"t_address"},{"astId":29,"contract":"contracts/CloudSlitDao.sol:CloudSlitDao","label":"privoderAddress","offset":0,"slot":"7","type":"t_address"}],"numberOfBytes":"256"},"t_struct(userWallet)9_storage":{"encoding":"inplace","label":"struct CloudSlitDao.userWallet","members":[{"astId":6,"contract":"contracts/CloudSlitDao.sol:CloudSlitDao","label":"user","offset":0,"slot":"0","type":"t_address"},{"astId":8,"contract":"contracts/CloudSlitDao.sol:CloudSlitDao","label":"status","offset":20,"slot":"0","type":"t_uint8"}],"numberOfBytes":"32"},"t_uint256":{"encoding":"inplace","label":"uint256","numberOfBytes":"32"},"t_uint32":{"encoding":"inplace","label":"uint32","numberOfBytes":"4"},"t_uint8":{"encoding":"inplace","label":"uint8","numberOfBytes":"1"}}},"userdoc":{"kind":"user","methods":{},"version":1}}}}