{"contracts/FlowShieldDao.sol":{"FlowShieldDao":{"abi":[{"inputs":[],"stateMutability":"nonpayable","type":"constructor"},{"anonymous":false,"inputs":[{"indexed":true,"internalType":"address","name":"owner","type":"address"},{"indexed":true,"internalType":"address","name":"spender","type":"address"},{"indexed":false,"internalType":"uint256","name":"value","type":"uint256"}],"name":"Approval","type":"event"},{"anonymous":false,"inputs":[{"indexed":true,"internalType":"address","name":"previousOwner","type":"address"},{"indexed":true,"internalType":"address","name":"newOwner","type":"address"}],"name":"OwnershipTransferred","type":"event"},{"anonymous":false,"inputs":[{"indexed":true,"internalType":"address","name":"from","type":"address"},{"indexed":true,"internalType":"address","name":"to","type":"address"},{"indexed":false,"internalType":"uint256","name":"value","type":"uint256"}],"name":"Transfer","type":"event"},{"inputs":[],"name":"_fullnodeDepositAmount","outputs":[{"internalType":"uint256","name":"","type":"uint256"}],"stateMutability":"view","type":"function"},{"inputs":[],"name":"_privoderDepositAmount","outputs":[{"internalType":"uint256","name":"","type":"uint256"}],"stateMutability":"view","type":"function"},{"inputs":[{"internalType":"address","name":"owner","type":"address"},{"internalType":"address","name":"spender","type":"address"}],"name":"allowance","outputs":[{"internalType":"uint256","name":"","type":"uint256"}],"stateMutability":"view","type":"function"},{"inputs":[{"internalType":"address","name":"spender","type":"address"},{"internalType":"uint256","name":"amount","type":"uint256"}],"name":"approve","outputs":[{"internalType":"bool","name":"","type":"bool"}],"stateMutability":"nonpayable","type":"function"},{"inputs":[{"internalType":"address","name":"account","type":"address"}],"name":"balanceOf","outputs":[{"internalType":"uint256","name":"","type":"uint256"}],"stateMutability":"view","type":"function"},{"inputs":[{"internalType":"string","name":"uuid","type":"string"}],"name":"bindWallet","outputs":[],"stateMutability":"nonpayable","type":"function"},{"inputs":[{"internalType":"string","name":"uuid","type":"string"},{"internalType":"address","name":"newWallet","type":"address"}],"name":"changeWallet","outputs":[],"stateMutability":"nonpayable","type":"function"},{"inputs":[{"internalType":"string","name":"orderId","type":"string"}],"name":"checkOrder","outputs":[{"internalType":"bool","name":"","type":"bool"}],"stateMutability":"view","type":"function"},{"inputs":[{"internalType":"string","name":"name","type":"string"},{"internalType":"uint32","name":"duration","type":"uint32"},{"internalType":"string","name":"orderId","type":"string"},{"internalType":"uint256","name":"amount","type":"uint256"},{"internalType":"address","name":"to","type":"address"}],"name":"clientOrder","outputs":[],"stateMutability":"nonpayable","type":"function"},{"inputs":[],"name":"decimals","outputs":[{"internalType":"uint8","name":"","type":"uint8"}],"stateMutability":"view","type":"function"},{"inputs":[{"internalType":"address","name":"spender","type":"address"},{"internalType":"uint256","name":"subtractedValue","type":"uint256"}],"name":"decreaseAllowance","outputs":[{"internalType":"bool","name":"","type":"bool"}],"stateMutability":"nonpayable","type":"function"},{"inputs":[],"name":"getAllOrderTokens","outputs":[{"internalType":"uint256","name":"","type":"uint256"}],"stateMutability":"view","type":"function"},{"inputs":[{"internalType":"address","name":"walletAddress","type":"address"}],"name":"getDeposit","outputs":[{"internalType":"uint256","name":"","type":"uint256"},{"internalType":"uint256","name":"","type":"uint256"}],"stateMutability":"view","type":"function"},{"inputs":[{"internalType":"string","name":"orderId","type":"string"}],"name":"getOrdersInfo","outputs":[{"components":[{"internalType":"string","name":"name","type":"string"},{"internalType":"uint256","name":"startTime","type":"uint256"},{"internalType":"uint256","name":"endTime","type":"uint256"},{"internalType":"uint256","name":"withdrawDuration","type":"uint256"},{"internalType":"uint32","name":"duration","type":"uint32"},{"internalType":"uint256","name":"amount","type":"uint256"},{"internalType":"bool","name":"used","type":"bool"},{"internalType":"bool","name":"withdraw","type":"bool"},{"internalType":"address","name":"payAddress","type":"address"},{"internalType":"address","name":"privoderAddress","type":"address"}],"internalType":"struct FlowShieldDao.order","name":"","type":"tuple"}],"stateMutability":"view","type":"function"},{"inputs":[{"internalType":"address","name":"from","type":"address"}],"name":"getPrivoderOrders","outputs":[{"internalType":"string[]","name":"","type":"string[]"}],"stateMutability":"view","type":"function"},{"inputs":[{"internalType":"string","name":"uuid","type":"string"}],"name":"getUserInfo","outputs":[{"internalType":"bool","name":"","type":"bool"},{"internalType":"bool","name":"","type":"bool"}],"stateMutability":"view","type":"function"},{"inputs":[{"internalType":"string","name":"uuid","type":"string"}],"name":"getWallet","outputs":[{"internalType":"address","name":"","type":"address"},{"internalType":"uint8","name":"","type":"uint8"}],"stateMutability":"view","type":"function"},{"inputs":[{"internalType":"address","name":"spender","type":"address"},{"internalType":"uint256","name":"addedValue","type":"uint256"}],"name":"increaseAllowance","outputs":[{"internalType":"bool","name":"","type":"bool"}],"stateMutability":"nonpayable","type":"function"},{"inputs":[{"internalType":"uint8","name":"_type","type":"uint8"}],"name":"isDeposit","outputs":[{"internalType":"bool","name":"","type":"bool"}],"stateMutability":"view","type":"function"},{"inputs":[],"name":"name","outputs":[{"internalType":"string","name":"","type":"string"}],"stateMutability":"view","type":"function"},{"inputs":[],"name":"owner","outputs":[{"internalType":"address","name":"","type":"address"}],"stateMutability":"view","type":"function"},{"inputs":[],"name":"renounceOwnership","outputs":[],"stateMutability":"nonpayable","type":"function"},{"inputs":[{"internalType":"uint8","name":"_type","type":"uint8"}],"name":"stake","outputs":[],"stateMutability":"nonpayable","type":"function"},{"inputs":[{"internalType":"uint8","name":"_type","type":"uint8"},{"internalType":"address","name":"walletAddress","type":"address"},{"internalType":"uint256","name":"amount","type":"uint256"}],"name":"stakeAmount","outputs":[],"stateMutability":"nonpayable","type":"function"},{"inputs":[],"name":"symbol","outputs":[{"internalType":"string","name":"","type":"string"}],"stateMutability":"view","type":"function"},{"inputs":[],"name":"totalSupply","outputs":[{"internalType":"uint256","name":"","type":"uint256"}],"stateMutability":"view","type":"function"},{"inputs":[{"internalType":"address","name":"to","type":"address"},{"internalType":"uint256","name":"amount","type":"uint256"}],"name":"transfer","outputs":[{"internalType":"bool","name":"","type":"bool"}],"stateMutability":"nonpayable","type":"function"},{"inputs":[{"internalType":"address","name":"from","type":"address"},{"internalType":"address","name":"to","type":"address"},{"internalType":"uint256","name":"amount","type":"uint256"}],"name":"transferFrom","outputs":[{"internalType":"bool","name":"","type":"bool"}],"stateMutability":"nonpayable","type":"function"},{"inputs":[{"internalType":"address","name":"newOwner","type":"address"}],"name":"transferOwnership","outputs":[],"stateMutability":"nonpayable","type":"function"},{"inputs":[{"internalType":"string","name":"uuid","type":"string"}],"name":"unbindWallet","outputs":[],"stateMutability":"nonpayable","type":"function"},{"inputs":[{"internalType":"string","name":"uuid","type":"string"}],"name":"verifyWallet","outputs":[],"stateMutability":"nonpayable","type":"function"},{"inputs":[{"internalType":"uint8","name":"_type","type":"uint8"}],"name":"withdraw","outputs":[],"stateMutability":"nonpayable","type":"function"},{"inputs":[],"name":"withdrawAllOrderTokens","outputs":[],"stateMutability":"nonpayable","type":"function"},{"inputs":[{"internalType":"string","name":"orderId","type":"string"}],"name":"withdrawOrderTokens","outputs":[],"stateMutability":"nonpayable","type":"function"}],"devdoc":{"kind":"dev","methods":{"allowance(address,address)":{"details":"See {IERC20-allowance}."},"approve(address,uint256)":{"details":"See {IERC20-approve}. NOTE: If `amount` is the maximum `uint256`, the allowance is not updated on `transferFrom`. This is semantically equivalent to an infinite approval. Requirements: - `spender` cannot be the zero address."},"balanceOf(address)":{"details":"See {IERC20-balanceOf}."},"decimals()":{"details":"Returns the number of decimals used to get its user representation. For example, if `decimals` equals `2`, a balance of `505` tokens should be displayed to a user as `5.05` (`505 / 10 ** 2`). Tokens usually opt for a value of 18, imitating the relationship between Ether and Wei. This is the value {ERC20} uses, unless this function is overridden; NOTE: This information is only used for _display_ purposes: it in no way affects any of the arithmetic of the contract, including {IERC20-balanceOf} and {IERC20-transfer}."},"decreaseAllowance(address,uint256)":{"details":"Atomically decreases the allowance granted to `spender` by the caller. This is an alternative to {approve} that can be used as a mitigation for problems described in {IERC20-approve}. Emits an {Approval} event indicating the updated allowance. Requirements: - `spender` cannot be the zero address. - `spender` must have allowance for the caller of at least `subtractedValue`."},"increaseAllowance(address,uint256)":{"details":"Atomically increases the allowance granted to `spender` by the caller. This is an alternative to {approve} that can be used as a mitigation for problems described in {IERC20-approve}. Emits an {Approval} event indicating the updated allowance. Requirements: - `spender` cannot be the zero address."},"name()":{"details":"Returns the name of the token."},"owner()":{"details":"Returns the address of the current owner."},"renounceOwnership()":{"details":"Leaves the contract without owner. It will not be possible to call `onlyOwner` functions anymore. Can only be called by the current owner. NOTE: Renouncing ownership will leave the contract without an owner, thereby removing any functionality that is only available to the owner."},"symbol()":{"details":"Returns the symbol of the token, usually a shorter version of the name."},"totalSupply()":{"details":"See {IERC20-totalSupply}."},"transfer(address,uint256)":{"details":"See {IERC20-transfer}. Requirements: - `to` cannot be the zero address. - the caller must have a balance of at least `amount`."},"transferFrom(address,address,uint256)":{"details":"See {IERC20-transferFrom}. Emits an {Approval} event indicating the updated allowance. This is not required by the EIP. See the note at the beginning of {ERC20}. NOTE: Does not update the allowance if the current allowance is the maximum `uint256`. Requirements: - `from` and `to` cannot be the zero address. - `from` must have a balance of at least `amount`. - the caller must have allowance for ``from``'s tokens of at least `amount`."},"transferOwnership(address)":{"details":"Transfers ownership of the contract to a new account (`newOwner`). Can only be called by the current owner."}},"version":1},"evm":{"bytecode":{"linkReferences":{},"object":"60806040523480156200001157600080fd5b506040518060400160405280600e81526020017f466c6f77536869656c642044616f0000000000000000000000000000000000008152506040518060400160405280600381526020017f465344000000000000000000000000000000000000000000000000000000000081525081600390816200008f91906200065b565b508060049081620000a191906200065b565b505050620000c4620000b86200019360201b60201c565b6200019b60201b60201c565b6200010433620000d96200026160201b60201c565b600a620000e79190620008d2565b6305f5e100620000f8919062000923565b6200026a60201b60201c565b620001146200026160201b60201c565b600a620001229190620008d2565b61138862000131919062000923565b600781905550620001476200026160201b60201c565b600a620001559190620008d2565b6103e862000164919062000923565b600881905550610e10600960006101000a81548163ffffffff021916908363ffffffff16021790555062000a5a565b600033905090565b6000600560009054906101000a900473ffffffffffffffffffffffffffffffffffffffff16905081600560006101000a81548173ffffffffffffffffffffffffffffffffffffffff021916908373ffffffffffffffffffffffffffffffffffffffff1602179055508173ffffffffffffffffffffffffffffffffffffffff168173ffffffffffffffffffffffffffffffffffffffff167f8be0079c531659141344cd1fd0a4f28419497f9722a3daafe3b4186f6b6457e060405160405180910390a35050565b60006012905090565b600073ffffffffffffffffffffffffffffffffffffffff168273ffffffffffffffffffffffffffffffffffffffff1603620002dc576040517f08c379a0000000000000000000000000000000000000000000000000000000008152600401620002d390620009cf565b60405180910390fd5b620002f060008383620003d760201b60201c565b8060026000828254620003049190620009f1565b92505081905550806000808473ffffffffffffffffffffffffffffffffffffffff1673ffffffffffffffffffffffffffffffffffffffff168152602001908152602001600020600082825401925050819055508173ffffffffffffffffffffffffffffffffffffffff16600073ffffffffffffffffffffffffffffffffffffffff167fddf252ad1be2c89b69c2b068fc378daa952ba7f163c4a11628f55a4df523b3ef83604051620003b7919062000a3d565b60405180910390a3620003d360008383620003dc60201b60201c565b5050565b505050565b505050565b600081519050919050565b7f4e487b7100000000000000000000000000000000000000000000000000000000600052604160045260246000fd5b7f4e487b7100000000000000000000000000000000000000000000000000000000600052602260045260246000fd5b600060028204905060018216806200046357607f821691505b6020821081036200047957620004786200041b565b5b50919050565b60008190508160005260206000209050919050565b60006020601f8301049050919050565b600082821b905092915050565b600060088302620004e37fffffffffffffffffffffffffffffffffffffffffffffffffffffffffffffffff82620004a4565b620004ef8683620004a4565b95508019841693508086168417925050509392505050565b6000819050919050565b6000819050919050565b60006200053c62000536620005308462000507565b62000511565b62000507565b9050919050565b6000819050919050565b62000558836200051b565b62000570620005678262000543565b848454620004b1565b825550505050565b600090565b6200058762000578565b620005948184846200054d565b505050565b5b81811015620005bc57620005b06000826200057d565b6001810190506200059a565b5050565b601f8211156200060b57620005d5816200047f565b620005e08462000494565b81016020851015620005f0578190505b62000608620005ff8562000494565b83018262000599565b50505b505050565b600082821c905092915050565b6000620006306000198460080262000610565b1980831691505092915050565b60006200064b83836200061d565b9150826002028217905092915050565b6200066682620003e1565b67ffffffffffffffff811115620006825762000681620003ec565b5b6200068e82546200044a565b6200069b828285620005c0565b600060209050601f831160018114620006d35760008415620006be578287015190505b620006ca85826200063d565b8655506200073a565b601f198416620006e3866200047f565b60005b828110156200070d57848901518255600182019150602085019450602081019050620006e6565b868310156200072d578489015162000729601f8916826200061d565b8355505b6001600288020188555050505b505050505050565b7f4e487b7100000000000000000000000000000000000000000000000000000000600052601160045260246000fd5b60008160011c9050919050565b6000808291508390505b6001851115620007d057808604811115620007a857620007a762000742565b5b6001851615620007b85780820291505b8081029050620007c88562000771565b945062000788565b94509492505050565b600082620007eb5760019050620008be565b81620007fb5760009050620008be565b81600181146200081457600281146200081f5762000855565b6001915050620008be565b60ff84111562000834576200083362000742565b5b8360020a9150848211156200084e576200084d62000742565b5b50620008be565b5060208310610133831016604e8410600b84101617156200088f5782820a90508381111562000889576200088862000742565b5b620008be565b6200089e84848460016200077e565b92509050818404811115620008b857620008b762000742565b5b81810290505b9392505050565b600060ff82169050919050565b6000620008df8262000507565b9150620008ec83620008c5565b92506200091b7fffffffffffffffffffffffffffffffffffffffffffffffffffffffffffffffff8484620007d9565b905092915050565b6000620009308262000507565b91506200093d8362000507565b92508282026200094d8162000507565b9150828204841483151762000967576200096662000742565b5b5092915050565b600082825260208201905092915050565b7f45524332303a206d696e7420746f20746865207a65726f206164647265737300600082015250565b6000620009b7601f836200096e565b9150620009c4826200097f565b602082019050919050565b60006020820190508181036000830152620009ea81620009a8565b9050919050565b6000620009fe8262000507565b915062000a0b8362000507565b925082820190508082111562000a265762000a2562000742565b5b92915050565b62000a378162000507565b82525050565b600060208201905062000a54600083018462000a2c565b92915050565b614af48062000a6a6000396000f3fe608060405234801561001057600080fd5b50600436106102065760003560e01c80638da5cb5b1161011a578063c6ab5d90116100ad578063e1254fba1161007c578063e1254fba14610613578063f276b8aa14610644578063f2fde38b14610674578063f3fbfc7b14610690578063ffc2c9b7146106ae57610206565b8063c6ab5d901461057b578063d19e485614610597578063dd62ed3e146105b3578063dd6887ed146105e357610206565b8063a457c2d7116100e9578063a457c2d7146104cc578063a4e2df66146104fc578063a9059cbb1461052d578063c5bc91e81461055d57610206565b80638da5cb5b146104565780638ec012b91461047457806395d89b4114610490578063a23c7c14146104ae57610206565b8063395093511161019d57806370a082311161016c57806370a082311461039f578063715018a6146103cf5780637c9b7fdd146103d95780638291a0211461040a57806387a858d21461043a57610206565b8063395093511461031b5780635c9abe111461034b5780635e3ae06e14610367578063604f21771461038357610206565b806323b872dd116101d957806323b872dd146102a757806325cfedb5146102d757806327a0b34a146102f3578063313ce567146102fd57610206565b806306fdde031461020b578063095ea7b31461022957806318160ddd14610259578063183dd1cd14610277575b600080fd5b6102136106ca565b604051610220919061353b565b60405180910390f35b610243600480360381019061023e9190613605565b61075c565b6040516102509190613660565b60405180910390f35b61026161077f565b60405161026e919061368a565b60405180910390f35b610291600480360381019061028c91906136a5565b610789565b60405161029e91906137de565b60405180910390f35b6102c160048036038101906102bc9190613800565b6108a1565b6040516102ce9190613660565b60405180910390f35b6102f160048036038101906102ec9190613988565b6108d0565b005b6102fb610c7b565b005b61030561122f565b60405161031291906139ed565b60405180910390f35b61033560048036038101906103309190613605565b611238565b6040516103429190613660565b60405180910390f35b61036560048036038101906103609190613a44565b61126f565b005b610381600480360381019061037c9190613b23565b6115b0565b005b61039d60048036038101906103989190613b76565b61172a565b005b6103b960048036038101906103b491906136a5565b6119b2565b6040516103c6919061368a565b60405180910390f35b6103d76119fa565b005b6103f360048036038101906103ee9190613988565b611a0e565b604051610401929190613ba3565b60405180910390f35b610424600480360381019061041f9190613988565b611b68565b6040516104319190613ce2565b60405180910390f35b610454600480360381019061044f9190613d04565b611d63565b005b61045e611f18565b60405161046b9190613d6f565b60405180910390f35b61048e60048036038101906104899190613988565b611f42565b005b61049861217c565b6040516104a5919061353b565b60405180910390f35b6104b661220e565b6040516104c3919061368a565b60405180910390f35b6104e660048036038101906104e19190613605565b612214565b6040516104f39190613660565b60405180910390f35b61051660048036038101906105119190613988565b61228b565b604051610524929190613d8a565b60405180910390f35b61054760048036038101906105429190613605565b612308565b6040516105549190613660565b60405180910390f35b61056561232b565b604051610572919061368a565b60405180910390f35b61059560048036038101906105909190613b76565b612331565b005b6105b160048036038101906105ac9190613988565b612505565b005b6105cd60048036038101906105c89190613db3565b6125dd565b6040516105da919061368a565b60405180910390f35b6105fd60048036038101906105f89190613988565b612664565b60405161060a9190613660565b60405180910390f35b61062d600480360381019061062891906136a5565b61269c565b60405161063b929190613df3565b60405180910390f35b61065e60048036038101906106599190613b76565b612728565b60405161066b9190613660565b60405180910390f35b61068e600480360381019061068991906136a5565b6127e0565b005b610698612863565b6040516106a5919061368a565b60405180910390f35b6106c860048036038101906106c39190613988565b612d39565b005b6060600380546106d990613e4b565b80601f016020809104026020016040519081016040528092919081815260200182805461070590613e4b565b80156107525780601f1061072757610100808354040283529160200191610752565b820191906000526020600020905b81548152906001019060200180831161073557829003601f168201915b5050505050905090565b600080610767612e01565b9050610774818585612e09565b600191505092915050565b6000600254905090565b6060600d60008373ffffffffffffffffffffffffffffffffffffffff1673ffffffffffffffffffffffffffffffffffffffff168152602001908152602001600020805480602002602001604051908101604052809291908181526020016000905b8282101561089657838290600052602060002001805461080990613e4b565b80601f016020809104026020016040519081016040528092919081815260200182805461083590613e4b565b80156108825780601f1061085757610100808354040283529160200191610882565b820191906000526020600020905b81548152906001019060200180831161086557829003601f168201915b5050505050815260200190600101906107ea565b505050509050919050565b6000806108ac612e01565b90506108b9858285612fd2565b6108c485858561305e565b60019150509392505050565b600c816040516108e09190613eb8565b908152602001604051809103902060060160019054906101000a900460ff161561093f576040517f08c379a000000000000000000000000000000000000000000000000000000000815260040161093690613f1b565b60405180910390fd5b3373ffffffffffffffffffffffffffffffffffffffff16600c826040516109669190613eb8565b908152602001604051809103902060070160009054906101000a900473ffffffffffffffffffffffffffffffffffffffff1673ffffffffffffffffffffffffffffffffffffffff16146109ee576040517f08c379a00000000000000000000000000000000000000000000000000000000081526004016109e590613fad565b60405180910390fd5b600c816040516109fe9190613eb8565b9081526020016040518091039020600201544210610b3e576001600c82604051610a289190613eb8565b908152602001604051809103902060060160016101000a81548160ff0219169083151502179055506000600c82604051610a629190613eb8565b908152602001604051809103902060030154600c83604051610a849190613eb8565b908152602001604051809103902060040160009054906101000a900463ffffffff1663ffffffff16610ab69190613ffc565b9050600081600c84604051610acb9190613eb8565b908152602001604051809103902060040160009054906101000a900463ffffffff1663ffffffff16600c85604051610b039190613eb8565b908152602001604051809103902060050154610b1f919061405f565b610b299190614090565b9050610b363033836108a1565b505050610c78565b6000600c82604051610b509190613eb8565b908152602001604051809103902060030154600960009054906101000a900463ffffffff1663ffffffff16600c84604051610b8b9190613eb8565b90815260200160405180910390206001015442610ba89190613ffc565b610bb2919061405f565b610bbc9190613ffc565b905080600c83604051610bcf9190613eb8565b90815260200160405180910390206003016000828254610bef91906140d2565b92505081905550600081600c84604051610c099190613eb8565b908152602001604051809103902060040160009054906101000a900463ffffffff1663ffffffff16600c85604051610c419190613eb8565b908152602001604051809103902060050154610c5d919061405f565b610c679190614090565b9050610c743033836108a1565b5050505b50565b6000600b60003373ffffffffffffffffffffffffffffffffffffffff1673ffffffffffffffffffffffffffffffffffffffff1681526020019081526020016000205403610cfd576040517f08c379a0000000000000000000000000000000000000000000000000000000008152600401610cf490614152565b60405180910390fd5b6000600d60003373ffffffffffffffffffffffffffffffffffffffff1673ffffffffffffffffffffffffffffffffffffffff168152602001908152602001600020805480602002602001604051908101604052809291908181526020016000905b82821015610e0a578382906000526020600020018054610d7d90613e4b565b80601f0160208091040260200160405190810160405280929190818152602001828054610da990613e4b565b8015610df65780601f10610dcb57610100808354040283529160200191610df6565b820191906000526020600020905b815481529060010190602001808311610dd957829003601f168201915b505050505081526020019060010190610d5e565b5050505090506000805b825181101561121e57600c838281518110610e3257610e31614172565b5b6020026020010151604051610e479190613eb8565b908152602001604051809103902060060160019054906101000a900460ff1661120b57600c838281518110610e7f57610e7e614172565b5b6020026020010151604051610e949190613eb8565b9081526020016040518091039020600201544210611052576001600c848381518110610ec357610ec2614172565b5b6020026020010151604051610ed89190613eb8565b908152602001604051809103902060060160016101000a81548160ff0219169083151502179055506000600c848381518110610f1757610f16614172565b5b6020026020010151604051610f2c9190613eb8565b908152602001604051809103902060030154600c858481518110610f5357610f52614172565b5b6020026020010151604051610f689190613eb8565b908152602001604051809103902060040160009054906101000a900463ffffffff1663ffffffff16610f9a9190613ffc565b905080600c858481518110610fb257610fb1614172565b5b6020026020010151604051610fc79190613eb8565b908152602001604051809103902060040160009054906101000a900463ffffffff1663ffffffff16600c86858151811061100457611003614172565b5b60200260200101516040516110199190613eb8565b908152602001604051809103902060050154611035919061405f565b61103f9190614090565b8361104a91906140d2565b92505061120a565b6000600c84838151811061106957611068614172565b5b602002602001015160405161107e9190613eb8565b908152602001604051809103902060030154600960009054906101000a900463ffffffff1663ffffffff16600c8685815181106110be576110bd614172565b5b60200260200101516040516110d39190613eb8565b908152602001604051809103902060010154426110f09190613ffc565b6110fa919061405f565b6111049190613ffc565b905080600c85848151811061111c5761111b614172565b5b60200260200101516040516111319190613eb8565b9081526020016040518091039020600301600082825461115191906140d2565b9250508190555080600c85848151811061116e5761116d614172565b5b60200260200101516040516111839190613eb8565b908152602001604051809103902060040160009054906101000a900463ffffffff1663ffffffff16600c8685815181106111c0576111bf614172565b5b60200260200101516040516111d59190613eb8565b9081526020016040518091039020600501546111f1919061405f565b6111fb9190614090565b8361120691906140d2565b9250505b5b8080611216906141a1565b915050610e14565b5061122a3033836108a1565b505050565b60006012905090565b600080611243612e01565b905061126481858561125585896125dd565b61125f91906140d2565b612e09565b600191505092915050565b600c8360405161127f9190613eb8565b908152602001604051809103902060060160009054906101000a900460ff16156112de576040517f08c379a00000000000000000000000000000000000000000000000000000000081526004016112d590614235565b60405180910390fd5b816112e8336119b2565b1015611329576040517f08c379a0000000000000000000000000000000000000000000000000000000008152600401611320906142a1565b60405180910390fd5b6113333083612308565b50604051806101400160405280868152602001428152602001600960009054906101000a900463ffffffff168661136a91906142c1565b63ffffffff164261137b91906140d2565b8152602001600081526020018563ffffffff1681526020018381526020016001151581526020016000151581526020013373ffffffffffffffffffffffffffffffffffffffff1681526020018273ffffffffffffffffffffffffffffffffffffffff16815250600c846040516113f19190613eb8565b9081526020016040518091039020600082015181600001908161141491906144aa565b5060208201518160010155604082015181600201556060820151816003015560808201518160040160006101000a81548163ffffffff021916908363ffffffff16021790555060a0820151816005015560c08201518160060160006101000a81548160ff02191690831515021790555060e08201518160060160016101000a81548160ff0219169083151502179055506101008201518160060160026101000a81548173ffffffffffffffffffffffffffffffffffffffff021916908373ffffffffffffffffffffffffffffffffffffffff1602179055506101208201518160070160006101000a81548173ffffffffffffffffffffffffffffffffffffffff021916908373ffffffffffffffffffffffffffffffffffffffff160217905550905050600d60008273ffffffffffffffffffffffffffffffffffffffff1673ffffffffffffffffffffffffffffffffffffffff168152602001908152602001600020839080600181540180825580915050600190039060005260206000200160009091909190915090816115a891906144aa565b505050505050565b60018360ff160361166c57806115c5336119b2565b1015611606576040517f08c379a00000000000000000000000000000000000000000000000000000000081526004016115fd906142a1565b60405180910390fd5b6116103082612308565b5080600a60008473ffffffffffffffffffffffffffffffffffffffff1673ffffffffffffffffffffffffffffffffffffffff168152602001908152602001600020600082825461166091906140d2565b92505081905550611725565b60028360ff16036117245780611681336119b2565b10156116c2576040517f08c379a00000000000000000000000000000000000000000000000000000000081526004016116b9906142a1565b60405180910390fd5b6116cc3082612308565b5080600b60008473ffffffffffffffffffffffffffffffffffffffff1673ffffffffffffffffffffffffffffffffffffffff168152602001908152602001600020600082825461171c91906140d2565b925050819055505b5b505050565b60018160ff160361186e576000600a60003373ffffffffffffffffffffffffffffffffffffffff1673ffffffffffffffffffffffffffffffffffffffff16815260200190815260200160002054146117b7576040517f08c379a00000000000000000000000000000000000000000000000000000000081526004016117ae906145c8565b60405180910390fd5b6007546117c3336119b2565b1015611804576040517f08c379a00000000000000000000000000000000000000000000000000000000081526004016117fb906142a1565b60405180910390fd5b61181030600754612308565b50600754600a60003373ffffffffffffffffffffffffffffffffffffffff1673ffffffffffffffffffffffffffffffffffffffff168152602001908152602001600020600082825461186291906140d2565b925050819055506119af565b60028160ff16036119ae576000600b60003373ffffffffffffffffffffffffffffffffffffffff1673ffffffffffffffffffffffffffffffffffffffff16815260200190815260200160002054146118fb576040517f08c379a00000000000000000000000000000000000000000000000000000000081526004016118f2906145c8565b60405180910390fd5b600854611907336119b2565b1015611948576040517f08c379a000000000000000000000000000000000000000000000000000000000815260040161193f906142a1565b60405180910390fd5b61195430600854612308565b50600854600b60003373ffffffffffffffffffffffffffffffffffffffff1673ffffffffffffffffffffffffffffffffffffffff16815260200190815260200160002060008282546119a691906140d2565b925050819055505b5b50565b60008060008373ffffffffffffffffffffffffffffffffffffffff1673ffffffffffffffffffffffffffffffffffffffff168152602001908152602001600020549050919050565b611a026132d4565b611a0c6000613352565b565b6000806002600684604051611a239190613eb8565b908152602001604051809103902060000160149054906101000a900460ff1660ff1603611b5b576000600a6000600686604051611a609190613eb8565b908152602001604051809103902060000160009054906101000a900473ffffffffffffffffffffffffffffffffffffffff1673ffffffffffffffffffffffffffffffffffffffff1673ffffffffffffffffffffffffffffffffffffffff16815260200190815260200160002054116000600b6000600687604051611ae49190613eb8565b908152602001604051809103902060000160009054906101000a900473ffffffffffffffffffffffffffffffffffffffff1673ffffffffffffffffffffffffffffffffffffffff1673ffffffffffffffffffffffffffffffffffffffff168152602001908152602001600020541191509150611b63565b600080915091505b915091565b611b70613422565b600c82604051611b809190613eb8565b908152602001604051809103902060405180610140016040529081600082018054611baa90613e4b565b80601f0160208091040260200160405190810160405280929190818152602001828054611bd690613e4b565b8015611c235780601f10611bf857610100808354040283529160200191611c23565b820191906000526020600020905b815481529060010190602001808311611c0657829003601f168201915b505050505081526020016001820154815260200160028201548152602001600382015481526020016004820160009054906101000a900463ffffffff1663ffffffff1663ffffffff168152602001600582015481526020016006820160009054906101000a900460ff161515151581526020016006820160019054906101000a900460ff161515151581526020016006820160029054906101000a900473ffffffffffffffffffffffffffffffffffffffff1673ffffffffffffffffffffffffffffffffffffffff1673ffffffffffffffffffffffffffffffffffffffff1681526020016007820160009054906101000a900473ffffffffffffffffffffffffffffffffffffffff1673ffffffffffffffffffffffffffffffffffffffff1673ffffffffffffffffffffffffffffffffffffffff16815250509050919050565b600073ffffffffffffffffffffffffffffffffffffffff168173ffffffffffffffffffffffffffffffffffffffff1603611d9c57600080fd5b6001600683604051611dae9190613eb8565b908152602001604051809103902060000160149054906101000a900460ff1660ff1603611e3a5780600683604051611de69190613eb8565b908152602001604051809103902060000160006101000a81548173ffffffffffffffffffffffffffffffffffffffff021916908373ffffffffffffffffffffffffffffffffffffffff160217905550611f14565b3373ffffffffffffffffffffffffffffffffffffffff16600683604051611e619190613eb8565b908152602001604051809103902060000160009054906101000a900473ffffffffffffffffffffffffffffffffffffffff1673ffffffffffffffffffffffffffffffffffffffff1614611eb357600080fd5b80600683604051611ec49190613eb8565b908152602001604051809103902060000160006101000a81548173ffffffffffffffffffffffffffffffffffffffff021916908373ffffffffffffffffffffffffffffffffffffffff1602179055505b5050565b6000600560009054906101000a900473ffffffffffffffffffffffffffffffffffffffff16905090565b600073ffffffffffffffffffffffffffffffffffffffff16600682604051611f6a9190613eb8565b908152602001604051809103902060000160009054906101000a900473ffffffffffffffffffffffffffffffffffffffff1673ffffffffffffffffffffffffffffffffffffffff1614611fbc57600080fd5b6000600a60003373ffffffffffffffffffffffffffffffffffffffff1673ffffffffffffffffffffffffffffffffffffffff16815260200190815260200160002054036120c05760405180604001604052803373ffffffffffffffffffffffffffffffffffffffff168152602001600160ff168152506006826040516120429190613eb8565b908152602001604051809103902060008201518160000160006101000a81548173ffffffffffffffffffffffffffffffffffffffff021916908373ffffffffffffffffffffffffffffffffffffffff16021790555060208201518160000160146101000a81548160ff021916908360ff160217905550905050612179565b60405180604001604052803373ffffffffffffffffffffffffffffffffffffffff168152602001600260ff168152506006826040516120ff9190613eb8565b908152602001604051809103902060008201518160000160006101000a81548173ffffffffffffffffffffffffffffffffffffffff021916908373ffffffffffffffffffffffffffffffffffffffff16021790555060208201518160000160146101000a81548160ff021916908360ff1602179055509050505b50565b60606004805461218b90613e4b565b80601f01602080910402602001604051908101604052809291908181526020018280546121b790613e4b565b80156122045780601f106121d957610100808354040283529160200191612204565b820191906000526020600020905b8154815290600101906020018083116121e757829003601f168201915b5050505050905090565b60075481565b60008061221f612e01565b9050600061222d82866125dd565b905083811015612272576040517f08c379a00000000000000000000000000000000000000000000000000000000081526004016122699061465a565b60405180910390fd5b61227f8286868403612e09565b60019250505092915050565b60008060068360405161229e9190613eb8565b908152602001604051809103902060000160009054906101000a900473ffffffffffffffffffffffffffffffffffffffff166006846040516122e09190613eb8565b908152602001604051809103902060000160149054906101000a900460ff1691509150915091565b600080612313612e01565b905061232081858561305e565b600191505092915050565b60085481565b60018160ff160361241b576000600a60003373ffffffffffffffffffffffffffffffffffffffff1673ffffffffffffffffffffffffffffffffffffffff168152602001908152602001600020541161238857600080fd5b6123d23033600a60003373ffffffffffffffffffffffffffffffffffffffff1673ffffffffffffffffffffffffffffffffffffffff168152602001908152602001600020546108a1565b50600a60003373ffffffffffffffffffffffffffffffffffffffff1673ffffffffffffffffffffffffffffffffffffffff16815260200190815260200160002060009055612502565b60028160ff1603612501576000600b60003373ffffffffffffffffffffffffffffffffffffffff1673ffffffffffffffffffffffffffffffffffffffff168152602001908152602001600020541161247257600080fd5b6124bc3033600b60003373ffffffffffffffffffffffffffffffffffffffff1673ffffffffffffffffffffffffffffffffffffffff168152602001908152602001600020546108a1565b50600b60003373ffffffffffffffffffffffffffffffffffffffff1673ffffffffffffffffffffffffffffffffffffffff168152602001908152602001600020600090555b5b50565b3373ffffffffffffffffffffffffffffffffffffffff1660068260405161252c9190613eb8565b908152602001604051809103902060000160009054906101000a900473ffffffffffffffffffffffffffffffffffffffff1673ffffffffffffffffffffffffffffffffffffffff161461257e57600080fd5b60068160405161258e9190613eb8565b9081526020016040518091039020600080820160006101000a81549073ffffffffffffffffffffffffffffffffffffffff02191690556000820160146101000a81549060ff0219169055505050565b6000600160008473ffffffffffffffffffffffffffffffffffffffff1673ffffffffffffffffffffffffffffffffffffffff16815260200190815260200160002060008373ffffffffffffffffffffffffffffffffffffffff1673ffffffffffffffffffffffffffffffffffffffff16815260200190815260200160002054905092915050565b6000600c826040516126769190613eb8565b908152602001604051809103902060060160009054906101000a900460ff169050919050565b600080600a60008473ffffffffffffffffffffffffffffffffffffffff1673ffffffffffffffffffffffffffffffffffffffff16815260200190815260200160002054600b60008573ffffffffffffffffffffffffffffffffffffffff1673ffffffffffffffffffffffffffffffffffffffff1681526020019081526020016000205491509150915091565b600060018260ff1603612780576000600a60003373ffffffffffffffffffffffffffffffffffffffff1673ffffffffffffffffffffffffffffffffffffffff16815260200190815260200160002054141590506127db565b60028260ff16036127d6576000600b60003373ffffffffffffffffffffffffffffffffffffffff1673ffffffffffffffffffffffffffffffffffffffff16815260200190815260200160002054141590506127db565b600090505b919050565b6127e86132d4565b600073ffffffffffffffffffffffffffffffffffffffff168173ffffffffffffffffffffffffffffffffffffffff1603612857576040517f08c379a000000000000000000000000000000000000000000000000000000000815260040161284e906146ec565b60405180910390fd5b61286081613352565b50565b600080600b60003373ffffffffffffffffffffffffffffffffffffffff1673ffffffffffffffffffffffffffffffffffffffff16815260200190815260200160002054036128b45760009050612d36565b6000600d60003373ffffffffffffffffffffffffffffffffffffffff1673ffffffffffffffffffffffffffffffffffffffff168152602001908152602001600020805480602002602001604051908101604052809291908181526020016000905b828210156129c157838290600052602060002001805461293490613e4b565b80601f016020809104026020016040519081016040528092919081815260200182805461296090613e4b565b80156129ad5780601f10612982576101008083540402835291602001916129ad565b820191906000526020600020905b81548152906001019060200180831161299057829003601f168201915b505050505081526020019060010190612915565b5050505090506000805b8251811015612d2f57600c8382815181106129e9576129e8614172565b5b60200260200101516040516129fe9190613eb8565b908152602001604051809103902060060160019054906101000a900460ff16612d1c57600c838281518110612a3657612a35614172565b5b6020026020010151604051612a4b9190613eb8565b9081526020016040518091039020600201544210612bb5576000600c848381518110612a7a57612a79614172565b5b6020026020010151604051612a8f9190613eb8565b908152602001604051809103902060030154600c858481518110612ab657612ab5614172565b5b6020026020010151604051612acb9190613eb8565b908152602001604051809103902060040160009054906101000a900463ffffffff1663ffffffff16612afd9190613ffc565b905080600c858481518110612b1557612b14614172565b5b6020026020010151604051612b2a9190613eb8565b908152602001604051809103902060040160009054906101000a900463ffffffff1663ffffffff16600c868581518110612b6757612b66614172565b5b6020026020010151604051612b7c9190613eb8565b908152602001604051809103902060050154612b98919061405f565b612ba29190614090565b83612bad91906140d2565b925050612d1b565b6000600c848381518110612bcc57612bcb614172565b5b6020026020010151604051612be19190613eb8565b908152602001604051809103902060030154600960009054906101000a900463ffffffff1663ffffffff16600c868581518110612c2157612c20614172565b5b6020026020010151604051612c369190613eb8565b90815260200160405180910390206001015442612c539190613ffc565b612c5d919061405f565b612c679190613ffc565b905080600c858481518110612c7f57612c7e614172565b5b6020026020010151604051612c949190613eb8565b908152602001604051809103902060040160009054906101000a900463ffffffff1663ffffffff16600c868581518110612cd157612cd0614172565b5b6020026020010151604051612ce69190613eb8565b908152602001604051809103902060050154612d02919061405f565b612d0c9190614090565b83612d1791906140d2565b9250505b5b8080612d27906141a1565b9150506129cb565b5080925050505b90565b6000600a60003373ffffffffffffffffffffffffffffffffffffffff1673ffffffffffffffffffffffffffffffffffffffff1681526020019081526020016000205411612d8557600080fd5b6001600682604051612d979190613eb8565b908152602001604051809103902060000160149054906101000a900460ff1660ff1614612dc357600080fd5b6002600682604051612dd59190613eb8565b908152602001604051809103902060000160146101000a81548160ff021916908360ff16021790555050565b600033905090565b600073ffffffffffffffffffffffffffffffffffffffff168373ffffffffffffffffffffffffffffffffffffffff1603612e78576040517f08c379a0000000000000000000000000000000000000000000000000000000008152600401612e6f9061477e565b60405180910390fd5b600073ffffffffffffffffffffffffffffffffffffffff168273ffffffffffffffffffffffffffffffffffffffff1603612ee7576040517f08c379a0000000000000000000000000000000000000000000000000000000008152600401612ede90614810565b60405180910390fd5b80600160008573ffffffffffffffffffffffffffffffffffffffff1673ffffffffffffffffffffffffffffffffffffffff16815260200190815260200160002060008473ffffffffffffffffffffffffffffffffffffffff1673ffffffffffffffffffffffffffffffffffffffff168152602001908152602001600020819055508173ffffffffffffffffffffffffffffffffffffffff168373ffffffffffffffffffffffffffffffffffffffff167f8c5be1e5ebec7d5bd14f71427d1e84f3dd0314c0f7b2291e5b200ac8c7c3b92583604051612fc5919061368a565b60405180910390a3505050565b6000612fde84846125dd565b90507fffffffffffffffffffffffffffffffffffffffffffffffffffffffffffffffff8114613058578181101561304a576040517f08c379a00000000000000000000000000000000000000000000000000000000081526004016130419061487c565b60405180910390fd5b6130578484848403612e09565b5b50505050565b600073ffffffffffffffffffffffffffffffffffffffff168373ffffffffffffffffffffffffffffffffffffffff16036130cd576040517f08c379a00000000000000000000000000000000000000000000000000000000081526004016130c49061490e565b60405180910390fd5b600073ffffffffffffffffffffffffffffffffffffffff168273ffffffffffffffffffffffffffffffffffffffff160361313c576040517f08c379a0000000000000000000000000000000000000000000000000000000008152600401613133906149a0565b60405180910390fd5b613147838383613418565b60008060008573ffffffffffffffffffffffffffffffffffffffff1673ffffffffffffffffffffffffffffffffffffffff168152602001908152602001600020549050818110156131cd576040517f08c379a00000000000000000000000000000000000000000000000000000000081526004016131c490614a32565b60405180910390fd5b8181036000808673ffffffffffffffffffffffffffffffffffffffff1673ffffffffffffffffffffffffffffffffffffffff16815260200190815260200160002081905550816000808573ffffffffffffffffffffffffffffffffffffffff1673ffffffffffffffffffffffffffffffffffffffff168152602001908152602001600020600082825401925050819055508273ffffffffffffffffffffffffffffffffffffffff168473ffffffffffffffffffffffffffffffffffffffff167fddf252ad1be2c89b69c2b068fc378daa952ba7f163c4a11628f55a4df523b3ef846040516132bb919061368a565b60405180910390a36132ce84848461341d565b50505050565b6132dc612e01565b73ffffffffffffffffffffffffffffffffffffffff166132fa611f18565b73ffffffffffffffffffffffffffffffffffffffff1614613350576040517f08c379a000000000000000000000000000000000000000000000000000000000815260040161334790614a9e565b60405180910390fd5b565b6000600560009054906101000a900473ffffffffffffffffffffffffffffffffffffffff16905081600560006101000a81548173ffffffffffffffffffffffffffffffffffffffff021916908373ffffffffffffffffffffffffffffffffffffffff1602179055508173ffffffffffffffffffffffffffffffffffffffff168173ffffffffffffffffffffffffffffffffffffffff167f8be0079c531659141344cd1fd0a4f28419497f9722a3daafe3b4186f6b6457e060405160405180910390a35050565b505050565b505050565b60405180610140016040528060608152602001600081526020016000815260200160008152602001600063ffffffff16815260200160008152602001600015158152602001600015158152602001600073ffffffffffffffffffffffffffffffffffffffff168152602001600073ffffffffffffffffffffffffffffffffffffffff1681525090565b600081519050919050565b600082825260208201905092915050565b60005b838110156134e55780820151818401526020810190506134ca565b60008484015250505050565b6000601f19601f8301169050919050565b600061350d826134ab565b61351781856134b6565b93506135278185602086016134c7565b613530816134f1565b840191505092915050565b600060208201905081810360008301526135558184613502565b905092915050565b6000604051905090565b600080fd5b600080fd5b600073ffffffffffffffffffffffffffffffffffffffff82169050919050565b600061359c82613571565b9050919050565b6135ac81613591565b81146135b757600080fd5b50565b6000813590506135c9816135a3565b92915050565b6000819050919050565b6135e2816135cf565b81146135ed57600080fd5b50565b6000813590506135ff816135d9565b92915050565b6000806040838503121561361c5761361b613567565b5b600061362a858286016135ba565b925050602061363b858286016135f0565b9150509250929050565b60008115159050919050565b61365a81613645565b82525050565b60006020820190506136756000830184613651565b92915050565b613684816135cf565b82525050565b600060208201905061369f600083018461367b565b92915050565b6000602082840312156136bb576136ba613567565b5b60006136c9848285016135ba565b91505092915050565b600081519050919050565b600082825260208201905092915050565b6000819050602082019050919050565b600082825260208201905092915050565b600061371a826134ab565b61372481856136fe565b93506137348185602086016134c7565b61373d816134f1565b840191505092915050565b6000613754838361370f565b905092915050565b6000602082019050919050565b6000613774826136d2565b61377e81856136dd565b935083602082028501613790856136ee565b8060005b858110156137cc57848403895281516137ad8582613748565b94506137b88361375c565b925060208a01995050600181019050613794565b50829750879550505050505092915050565b600060208201905081810360008301526137f88184613769565b905092915050565b60008060006060848603121561381957613818613567565b5b6000613827868287016135ba565b9350506020613838868287016135ba565b9250506040613849868287016135f0565b9150509250925092565b600080fd5b600080fd5b7f4e487b7100000000000000000000000000000000000000000000000000000000600052604160045260246000fd5b613895826134f1565b810181811067ffffffffffffffff821117156138b4576138b361385d565b5b80604052505050565b60006138c761355d565b90506138d3828261388c565b919050565b600067ffffffffffffffff8211156138f3576138f261385d565b5b6138fc826134f1565b9050602081019050919050565b82818337600083830152505050565b600061392b613926846138d8565b6138bd565b90508281526020810184848401111561394757613946613858565b5b613952848285613909565b509392505050565b600082601f83011261396f5761396e613853565b5b813561397f848260208601613918565b91505092915050565b60006020828403121561399e5761399d613567565b5b600082013567ffffffffffffffff8111156139bc576139bb61356c565b5b6139c88482850161395a565b91505092915050565b600060ff82169050919050565b6139e7816139d1565b82525050565b6000602082019050613a0260008301846139de565b92915050565b600063ffffffff82169050919050565b613a2181613a08565b8114613a2c57600080fd5b50565b600081359050613a3e81613a18565b92915050565b600080600080600060a08688031215613a6057613a5f613567565b5b600086013567ffffffffffffffff811115613a7e57613a7d61356c565b5b613a8a8882890161395a565b9550506020613a9b88828901613a2f565b945050604086013567ffffffffffffffff811115613abc57613abb61356c565b5b613ac88882890161395a565b9350506060613ad9888289016135f0565b9250506080613aea888289016135ba565b9150509295509295909350565b613b00816139d1565b8114613b0b57600080fd5b50565b600081359050613b1d81613af7565b92915050565b600080600060608486031215613b3c57613b3b613567565b5b6000613b4a86828701613b0e565b9350506020613b5b868287016135ba565b9250506040613b6c868287016135f0565b9150509250925092565b600060208284031215613b8c57613b8b613567565b5b6000613b9a84828501613b0e565b91505092915050565b6000604082019050613bb86000830185613651565b613bc56020830184613651565b9392505050565b613bd5816135cf565b82525050565b613be481613a08565b82525050565b613bf381613645565b82525050565b613c0281613591565b82525050565b6000610140830160008301518482036000860152613c26828261370f565b9150506020830151613c3b6020860182613bcc565b506040830151613c4e6040860182613bcc565b506060830151613c616060860182613bcc565b506080830151613c746080860182613bdb565b5060a0830151613c8760a0860182613bcc565b5060c0830151613c9a60c0860182613bea565b5060e0830151613cad60e0860182613bea565b50610100830151613cc2610100860182613bf9565b50610120830151613cd7610120860182613bf9565b508091505092915050565b60006020820190508181036000830152613cfc8184613c08565b905092915050565b60008060408385031215613d1b57613d1a613567565b5b600083013567ffffffffffffffff811115613d3957613d3861356c565b5b613d458582860161395a565b9250506020613d56858286016135ba565b9150509250929050565b613d6981613591565b82525050565b6000602082019050613d846000830184613d60565b92915050565b6000604082019050613d9f6000830185613d60565b613dac60208301846139de565b9392505050565b60008060408385031215613dca57613dc9613567565b5b6000613dd8858286016135ba565b9250506020613de9858286016135ba565b9150509250929050565b6000604082019050613e08600083018561367b565b613e15602083018461367b565b9392505050565b7f4e487b7100000000000000000000000000000000000000000000000000000000600052602260045260246000fd5b60006002820490506001821680613e6357607f821691505b602082108103613e7657613e75613e1c565b5b50919050565b600081905092915050565b6000613e92826134ab565b613e9c8185613e7c565b9350613eac8185602086016134c7565b80840191505092915050565b6000613ec48284613e87565b915081905092915050565b7f546865206f7264657220686173206265656e2077697468647261776e00000000600082015250565b6000613f05601c836134b6565b9150613f1082613ecf565b602082019050919050565b60006020820190508181036000830152613f3481613ef8565b9050919050565b7f506c6561736520636f6e6669726d207468652077616c6c65742061646472657360008201527f732c2043616e206e6f7420776974686472617700000000000000000000000000602082015250565b6000613f976033836134b6565b9150613fa282613f3b565b604082019050919050565b60006020820190508181036000830152613fc681613f8a565b9050919050565b7f4e487b7100000000000000000000000000000000000000000000000000000000600052601160045260246000fd5b6000614007826135cf565b9150614012836135cf565b925082820390508181111561402a57614029613fcd565b5b92915050565b7f4e487b7100000000000000000000000000000000000000000000000000000000600052601260045260246000fd5b600061406a826135cf565b9150614075836135cf565b92508261408557614084614030565b5b828204905092915050565b600061409b826135cf565b91506140a6836135cf565b92508282026140b4816135cf565b915082820484148315176140cb576140ca613fcd565b5b5092915050565b60006140dd826135cf565b91506140e8836135cf565b9250828201905080821115614100576140ff613fcd565b5b92915050565b7f4e6f74206465706f736974730000000000000000000000000000000000000000600082015250565b600061413c600c836134b6565b915061414782614106565b602082019050919050565b6000602082019050818103600083015261416b8161412f565b9050919050565b7f4e487b7100000000000000000000000000000000000000000000000000000000600052603260045260246000fd5b60006141ac826135cf565b91507fffffffffffffffffffffffffffffffffffffffffffffffffffffffffffffffff82036141de576141dd613fcd565b5b600182019050919050565b7f416c726561647920706169640000000000000000000000000000000000000000600082015250565b600061421f600c836134b6565b915061422a826141e9565b602082019050919050565b6000602082019050818103600083015261424e81614212565b9050919050565b7f4e6f7420656e6f75676820435344000000000000000000000000000000000000600082015250565b600061428b600e836134b6565b915061429682614255565b602082019050919050565b600060208201905081810360008301526142ba8161427e565b9050919050565b60006142cc82613a08565b91506142d783613a08565b92508282026142e581613a08565b91508082146142f7576142f6613fcd565b5b5092915050565b60008190508160005260206000209050919050565b60006020601f8301049050919050565b600082821b905092915050565b6000600883026143607fffffffffffffffffffffffffffffffffffffffffffffffffffffffffffffffff82614323565b61436a8683614323565b95508019841693508086168417925050509392505050565b6000819050919050565b60006143a76143a261439d846135cf565b614382565b6135cf565b9050919050565b6000819050919050565b6143c18361438c565b6143d56143cd826143ae565b848454614330565b825550505050565b600090565b6143ea6143dd565b6143f58184846143b8565b505050565b5b818110156144195761440e6000826143e2565b6001810190506143fb565b5050565b601f82111561445e5761442f816142fe565b61443884614313565b81016020851015614447578190505b61445b61445385614313565b8301826143fa565b50505b505050565b600082821c905092915050565b600061448160001984600802614463565b1980831691505092915050565b600061449a8383614470565b9150826002028217905092915050565b6144b3826134ab565b67ffffffffffffffff8111156144cc576144cb61385d565b5b6144d68254613e4b565b6144e182828561441d565b600060209050601f8311600181146145145760008415614502578287015190505b61450c858261448e565b865550614574565b601f198416614522866142fe565b60005b8281101561454a57848901518255600182019150602085019450602081019050614525565b868310156145675784890151614563601f891682614470565b8355505b6001600288020188555050505b505050505050565b7f416c7265616479207374616b6564000000000000000000000000000000000000600082015250565b60006145b2600e836134b6565b91506145bd8261457c565b602082019050919050565b600060208201905081810360008301526145e1816145a5565b9050919050565b7f45524332303a2064656372656173656420616c6c6f77616e63652062656c6f7760008201527f207a65726f000000000000000000000000000000000000000000000000000000602082015250565b60006146446025836134b6565b915061464f826145e8565b604082019050919050565b6000602082019050818103600083015261467381614637565b9050919050565b7f4f776e61626c653a206e6577206f776e657220697320746865207a65726f206160008201527f6464726573730000000000000000000000000000000000000000000000000000602082015250565b60006146d66026836134b6565b91506146e18261467a565b604082019050919050565b60006020820190508181036000830152614705816146c9565b9050919050565b7f45524332303a20617070726f76652066726f6d20746865207a65726f2061646460008201527f7265737300000000000000000000000000000000000000000000000000000000602082015250565b60006147686024836134b6565b91506147738261470c565b604082019050919050565b600060208201905081810360008301526147978161475b565b9050919050565b7f45524332303a20617070726f766520746f20746865207a65726f20616464726560008201527f7373000000000000000000000000000000000000000000000000000000000000602082015250565b60006147fa6022836134b6565b91506148058261479e565b604082019050919050565b60006020820190508181036000830152614829816147ed565b9050919050565b7f45524332303a20696e73756666696369656e7420616c6c6f77616e6365000000600082015250565b6000614866601d836134b6565b915061487182614830565b602082019050919050565b6000602082019050818103600083015261489581614859565b9050919050565b7f45524332303a207472616e736665722066726f6d20746865207a65726f20616460008201527f6472657373000000000000000000000000000000000000000000000000000000602082015250565b60006148f86025836134b6565b91506149038261489c565b604082019050919050565b60006020820190508181036000830152614927816148eb565b9050919050565b7f45524332303a207472616e7366657220746f20746865207a65726f206164647260008201527f6573730000000000000000000000000000000000000000000000000000000000602082015250565b600061498a6023836134b6565b91506149958261492e565b604082019050919050565b600060208201905081810360008301526149b98161497d565b9050919050565b7f45524332303a207472616e7366657220616d6f756e742065786365656473206260008201527f616c616e63650000000000000000000000000000000000000000000000000000602082015250565b6000614a1c6026836134b6565b9150614a27826149c0565b604082019050919050565b60006020820190508181036000830152614a4b81614a0f565b9050919050565b7f4f776e61626c653a2063616c6c6572206973206e6f7420746865206f776e6572600082015250565b6000614a886020836134b6565b9150614a9382614a52565b602082019050919050565b60006020820190508181036000830152614ab781614a7b565b905091905056fea2646970667358221220268c599cbd6c57894c69ec114e79757d8b8514c9093f6ee4c6d7a96490f1310e64736f6c63430008110033","opcodes":"PUSH1 0x80 PUSH1 0x40 MSTORE CALLVALUE DUP1 ISZERO PUSH3 0x11 JUMPI PUSH1 0x0 DUP1 REVERT JUMPDEST POP PUSH1 0x40 MLOAD DUP1 PUSH1 0x40 ADD PUSH1 0x40 MSTORE DUP1 PUSH1 0xE DUP2 MSTORE PUSH1 0x20 ADD PUSH32 0x466C6F77536869656C642044616F000000000000000000000000000000000000 DUP2 MSTORE POP PUSH1 0x40 MLOAD DUP1 PUSH1 0x40 ADD PUSH1 0x40 MSTORE DUP1 PUSH1 0x3 DUP2 MSTORE PUSH1 0x20 ADD PUSH32 0x4653440000000000000000000000000000000000000000000000000000000000 DUP2 MSTORE POP DUP2 PUSH1 0x3 SWAP1 DUP2 PUSH3 0x8F SWAP2 SWAP1 PUSH3 0x65B JUMP JUMPDEST POP DUP1 PUSH1 0x4 SWAP1 DUP2 PUSH3 0xA1 SWAP2 SWAP1 PUSH3 0x65B JUMP JUMPDEST POP POP POP PUSH3 0xC4 PUSH3 0xB8 PUSH3 0x193 PUSH1 0x20 SHL PUSH1 0x20 SHR JUMP JUMPDEST PUSH3 0x19B PUSH1 0x20 SHL PUSH1 0x20 SHR JUMP JUMPDEST PUSH3 0x104 CALLER PUSH3 0xD9 PUSH3 0x261 PUSH1 0x20 SHL PUSH1 0x20 SHR JUMP JUMPDEST PUSH1 0xA PUSH3 0xE7 SWAP2 SWAP1 PUSH3 0x8D2 JUMP JUMPDEST PUSH4 0x5F5E100 PUSH3 0xF8 SWAP2 SWAP1 PUSH3 0x923 JUMP JUMPDEST PUSH3 0x26A PUSH1 0x20 SHL PUSH1 0x20 SHR JUMP JUMPDEST PUSH3 0x114 PUSH3 0x261 PUSH1 0x20 SHL PUSH1 0x20 SHR JUMP JUMPDEST PUSH1 0xA PUSH3 0x122 SWAP2 SWAP1 PUSH3 0x8D2 JUMP JUMPDEST PUSH2 0x1388 PUSH3 0x131 SWAP2 SWAP1 PUSH3 0x923 JUMP JUMPDEST PUSH1 0x7 DUP2 SWAP1 SSTORE POP PUSH3 0x147 PUSH3 0x261 PUSH1 0x20 SHL PUSH1 0x20 SHR JUMP JUMPDEST PUSH1 0xA PUSH3 0x155 SWAP2 SWAP1 PUSH3 0x8D2 JUMP JUMPDEST PUSH2 0x3E8 PUSH3 0x164 SWAP2 SWAP1 PUSH3 0x923 JUMP JUMPDEST PUSH1 0x8 DUP2 SWAP1 SSTORE POP PUSH2 0xE10 PUSH1 0x9 PUSH1 0x0 PUSH2 0x100 EXP DUP2 SLOAD DUP2 PUSH4 0xFFFFFFFF MUL NOT AND SWAP1 DUP4 PUSH4 0xFFFFFFFF AND MUL OR SWAP1 SSTORE POP PUSH3 0xA5A JUMP JUMPDEST PUSH1 0x0 CALLER SWAP1 POP SWAP1 JUMP JUMPDEST PUSH1 0x0 PUSH1 0x5 PUSH1 0x0 SWAP1 SLOAD SWAP1 PUSH2 0x100 EXP SWAP1 DIV PUSH20 0xFFFFFFFFFFFFFFFFFFFFFFFFFFFFFFFFFFFFFFFF AND SWAP1 POP DUP2 PUSH1 0x5 PUSH1 0x0 PUSH2 0x100 EXP DUP2 SLOAD DUP2 PUSH20 0xFFFFFFFFFFFFFFFFFFFFFFFFFFFFFFFFFFFFFFFF MUL NOT AND SWAP1 DUP4 PUSH20 0xFFFFFFFFFFFFFFFFFFFFFFFFFFFFFFFFFFFFFFFF AND MUL OR SWAP1 SSTORE POP DUP2 PUSH20 0xFFFFFFFFFFFFFFFFFFFFFFFFFFFFFFFFFFFFFFFF AND DUP2 PUSH20 0xFFFFFFFFFFFFFFFFFFFFFFFFFFFFFFFFFFFFFFFF AND PUSH32 0x8BE0079C531659141344CD1FD0A4F28419497F9722A3DAAFE3B4186F6B6457E0 PUSH1 0x40 MLOAD PUSH1 0x40 MLOAD DUP1 SWAP2 SUB SWAP1 LOG3 POP POP JUMP JUMPDEST PUSH1 0x0 PUSH1 0x12 SWAP1 POP SWAP1 JUMP JUMPDEST PUSH1 0x0 PUSH20 0xFFFFFFFFFFFFFFFFFFFFFFFFFFFFFFFFFFFFFFFF AND DUP3 PUSH20 0xFFFFFFFFFFFFFFFFFFFFFFFFFFFFFFFFFFFFFFFF AND SUB PUSH3 0x2DC JUMPI PUSH1 0x40 MLOAD PUSH32 0x8C379A000000000000000000000000000000000000000000000000000000000 DUP2 MSTORE PUSH1 0x4 ADD PUSH3 0x2D3 SWAP1 PUSH3 0x9CF JUMP JUMPDEST PUSH1 0x40 MLOAD DUP1 SWAP2 SUB SWAP1 REVERT JUMPDEST PUSH3 0x2F0 PUSH1 0x0 DUP4 DUP4 PUSH3 0x3D7 PUSH1 0x20 SHL PUSH1 0x20 SHR JUMP JUMPDEST DUP1 PUSH1 0x2 PUSH1 0x0 DUP3 DUP3 SLOAD PUSH3 0x304 SWAP2 SWAP1 PUSH3 0x9F1 JUMP JUMPDEST SWAP3 POP POP DUP2 SWAP1 SSTORE POP DUP1 PUSH1 0x0 DUP1 DUP5 PUSH20 0xFFFFFFFFFFFFFFFFFFFFFFFFFFFFFFFFFFFFFFFF AND PUSH20 0xFFFFFFFFFFFFFFFFFFFFFFFFFFFFFFFFFFFFFFFF AND DUP2 MSTORE PUSH1 0x20 ADD SWAP1 DUP2 MSTORE PUSH1 0x20 ADD PUSH1 0x0 KECCAK256 PUSH1 0x0 DUP3 DUP3 SLOAD ADD SWAP3 POP POP DUP2 SWAP1 SSTORE POP DUP2 PUSH20 0xFFFFFFFFFFFFFFFFFFFFFFFFFFFFFFFFFFFFFFFF AND PUSH1 0x0 PUSH20 0xFFFFFFFFFFFFFFFFFFFFFFFFFFFFFFFFFFFFFFFF AND PUSH32 0xDDF252AD1BE2C89B69C2B068FC378DAA952BA7F163C4A11628F55A4DF523B3EF DUP4 PUSH1 0x40 MLOAD PUSH3 0x3B7 SWAP2 SWAP1 PUSH3 0xA3D JUMP JUMPDEST PUSH1 0x40 MLOAD DUP1 SWAP2 SUB SWAP1 LOG3 PUSH3 0x3D3 PUSH1 0x0 DUP4 DUP4 PUSH3 0x3DC PUSH1 0x20 SHL PUSH1 0x20 SHR JUMP JUMPDEST POP POP JUMP JUMPDEST POP POP POP JUMP JUMPDEST POP POP POP JUMP JUMPDEST PUSH1 0x0 DUP2 MLOAD SWAP1 POP SWAP2 SWAP1 POP JUMP JUMPDEST PUSH32 0x4E487B7100000000000000000000000000000000000000000000000000000000 PUSH1 0x0 MSTORE PUSH1 0x41 PUSH1 0x4 MSTORE PUSH1 0x24 PUSH1 0x0 REVERT JUMPDEST PUSH32 0x4E487B7100000000000000000000000000000000000000000000000000000000 PUSH1 0x0 MSTORE PUSH1 0x22 PUSH1 0x4 MSTORE PUSH1 0x24 PUSH1 0x0 REVERT JUMPDEST PUSH1 0x0 PUSH1 0x2 DUP3 DIV SWAP1 POP PUSH1 0x1 DUP3 AND DUP1 PUSH3 0x463 JUMPI PUSH1 0x7F DUP3 AND SWAP2 POP JUMPDEST PUSH1 0x20 DUP3 LT DUP2 SUB PUSH3 0x479 JUMPI PUSH3 0x478 PUSH3 0x41B JUMP JUMPDEST JUMPDEST POP SWAP2 SWAP1 POP JUMP JUMPDEST PUSH1 0x0 DUP2 SWAP1 POP DUP2 PUSH1 0x0 MSTORE PUSH1 0x20 PUSH1 0x0 KECCAK256 SWAP1 POP SWAP2 SWAP1 POP JUMP JUMPDEST PUSH1 0x0 PUSH1 0x20 PUSH1 0x1F DUP4 ADD DIV SWAP1 POP SWAP2 SWAP1 POP JUMP JUMPDEST PUSH1 0x0 DUP3 DUP3 SHL SWAP1 POP SWAP3 SWAP2 POP POP JUMP JUMPDEST PUSH1 0x0 PUSH1 0x8 DUP4 MUL PUSH3 0x4E3 PUSH32 0xFFFFFFFFFFFFFFFFFFFFFFFFFFFFFFFFFFFFFFFFFFFFFFFFFFFFFFFFFFFFFFFF DUP3 PUSH3 0x4A4 JUMP JUMPDEST PUSH3 0x4EF DUP7 DUP4 PUSH3 0x4A4 JUMP JUMPDEST SWAP6 POP DUP1 NOT DUP5 AND SWAP4 POP DUP1 DUP7 AND DUP5 OR SWAP3 POP POP POP SWAP4 SWAP3 POP POP POP JUMP JUMPDEST PUSH1 0x0 DUP2 SWAP1 POP SWAP2 SWAP1 POP JUMP JUMPDEST PUSH1 0x0 DUP2 SWAP1 POP SWAP2 SWAP1 POP JUMP JUMPDEST PUSH1 0x0 PUSH3 0x53C PUSH3 0x536 PUSH3 0x530 DUP5 PUSH3 0x507 JUMP JUMPDEST PUSH3 0x511 JUMP JUMPDEST PUSH3 0x507 JUMP JUMPDEST SWAP1 POP SWAP2 SWAP1 POP JUMP JUMPDEST PUSH1 0x0 DUP2 SWAP1 POP SWAP2 SWAP1 POP JUMP JUMPDEST PUSH3 0x558 DUP4 PUSH3 0x51B JUMP JUMPDEST PUSH3 0x570 PUSH3 0x567 DUP3 PUSH3 0x543 JUMP JUMPDEST DUP5 DUP5 SLOAD PUSH3 0x4B1 JUMP JUMPDEST DUP3 SSTORE POP POP POP POP JUMP JUMPDEST PUSH1 0x0 SWAP1 JUMP JUMPDEST PUSH3 0x587 PUSH3 0x578 JUMP JUMPDEST PUSH3 0x594 DUP2 DUP5 DUP5 PUSH3 0x54D JUMP JUMPDEST POP POP POP JUMP JUMPDEST JUMPDEST DUP2 DUP2 LT ISZERO PUSH3 0x5BC JUMPI PUSH3 0x5B0 PUSH1 0x0 DUP3 PUSH3 0x57D JUMP JUMPDEST PUSH1 0x1 DUP2 ADD SWAP1 POP PUSH3 0x59A JUMP JUMPDEST POP POP JUMP JUMPDEST PUSH1 0x1F DUP3 GT ISZERO PUSH3 0x60B JUMPI PUSH3 0x5D5 DUP2 PUSH3 0x47F JUMP JUMPDEST PUSH3 0x5E0 DUP5 PUSH3 0x494 JUMP JUMPDEST DUP2 ADD PUSH1 0x20 DUP6 LT ISZERO PUSH3 0x5F0 JUMPI DUP2 SWAP1 POP JUMPDEST PUSH3 0x608 PUSH3 0x5FF DUP6 PUSH3 0x494 JUMP JUMPDEST DUP4 ADD DUP3 PUSH3 0x599 JUMP JUMPDEST POP POP JUMPDEST POP POP POP JUMP JUMPDEST PUSH1 0x0 DUP3 DUP3 SHR SWAP1 POP SWAP3 SWAP2 POP POP JUMP JUMPDEST PUSH1 0x0 PUSH3 0x630 PUSH1 0x0 NOT DUP5 PUSH1 0x8 MUL PUSH3 0x610 JUMP JUMPDEST NOT DUP1 DUP4 AND SWAP2 POP POP SWAP3 SWAP2 POP POP JUMP JUMPDEST PUSH1 0x0 PUSH3 0x64B DUP4 DUP4 PUSH3 0x61D JUMP JUMPDEST SWAP2 POP DUP3 PUSH1 0x2 MUL DUP3 OR SWAP1 POP SWAP3 SWAP2 POP POP JUMP JUMPDEST PUSH3 0x666 DUP3 PUSH3 0x3E1 JUMP JUMPDEST PUSH8 0xFFFFFFFFFFFFFFFF DUP2 GT ISZERO PUSH3 0x682 JUMPI PUSH3 0x681 PUSH3 0x3EC JUMP JUMPDEST JUMPDEST PUSH3 0x68E DUP3 SLOAD PUSH3 0x44A JUMP JUMPDEST PUSH3 0x69B DUP3 DUP3 DUP6 PUSH3 0x5C0 JUMP JUMPDEST PUSH1 0x0 PUSH1 0x20 SWAP1 POP PUSH1 0x1F DUP4 GT PUSH1 0x1 DUP2 EQ PUSH3 0x6D3 JUMPI PUSH1 0x0 DUP5 ISZERO PUSH3 0x6BE JUMPI DUP3 DUP8 ADD MLOAD SWAP1 POP JUMPDEST PUSH3 0x6CA DUP6 DUP3 PUSH3 0x63D JUMP JUMPDEST DUP7 SSTORE POP PUSH3 0x73A JUMP JUMPDEST PUSH1 0x1F NOT DUP5 AND PUSH3 0x6E3 DUP7 PUSH3 0x47F JUMP JUMPDEST PUSH1 0x0 JUMPDEST DUP3 DUP2 LT ISZERO PUSH3 0x70D JUMPI DUP5 DUP10 ADD MLOAD DUP3 SSTORE PUSH1 0x1 DUP3 ADD SWAP2 POP PUSH1 0x20 DUP6 ADD SWAP5 POP PUSH1 0x20 DUP2 ADD SWAP1 POP PUSH3 0x6E6 JUMP JUMPDEST DUP7 DUP4 LT ISZERO PUSH3 0x72D JUMPI DUP5 DUP10 ADD MLOAD PUSH3 0x729 PUSH1 0x1F DUP10 AND DUP3 PUSH3 0x61D JUMP JUMPDEST DUP4 SSTORE POP JUMPDEST PUSH1 0x1 PUSH1 0x2 DUP9 MUL ADD DUP9 SSTORE POP POP POP JUMPDEST POP POP POP POP POP POP JUMP JUMPDEST PUSH32 0x4E487B7100000000000000000000000000000000000000000000000000000000 PUSH1 0x0 MSTORE PUSH1 0x11 PUSH1 0x4 MSTORE PUSH1 0x24 PUSH1 0x0 REVERT JUMPDEST PUSH1 0x0 DUP2 PUSH1 0x1 SHR SWAP1 POP SWAP2 SWAP1 POP JUMP JUMPDEST PUSH1 0x0 DUP1 DUP3 SWAP2 POP DUP4 SWAP1 POP JUMPDEST PUSH1 0x1 DUP6 GT ISZERO PUSH3 0x7D0 JUMPI DUP1 DUP7 DIV DUP2 GT ISZERO PUSH3 0x7A8 JUMPI PUSH3 0x7A7 PUSH3 0x742 JUMP JUMPDEST JUMPDEST PUSH1 0x1 DUP6 AND ISZERO PUSH3 0x7B8 JUMPI DUP1 DUP3 MUL SWAP2 POP JUMPDEST DUP1 DUP2 MUL SWAP1 POP PUSH3 0x7C8 DUP6 PUSH3 0x771 JUMP JUMPDEST SWAP5 POP PUSH3 0x788 JUMP JUMPDEST SWAP5 POP SWAP5 SWAP3 POP POP POP JUMP JUMPDEST PUSH1 0x0 DUP3 PUSH3 0x7EB JUMPI PUSH1 0x1 SWAP1 POP PUSH3 0x8BE JUMP JUMPDEST DUP2 PUSH3 0x7FB JUMPI PUSH1 0x0 SWAP1 POP PUSH3 0x8BE JUMP JUMPDEST DUP2 PUSH1 0x1 DUP2 EQ PUSH3 0x814 JUMPI PUSH1 0x2 DUP2 EQ PUSH3 0x81F JUMPI PUSH3 0x855 JUMP JUMPDEST PUSH1 0x1 SWAP2 POP POP PUSH3 0x8BE JUMP JUMPDEST PUSH1 0xFF DUP5 GT ISZERO PUSH3 0x834 JUMPI PUSH3 0x833 PUSH3 0x742 JUMP JUMPDEST JUMPDEST DUP4 PUSH1 0x2 EXP SWAP2 POP DUP5 DUP3 GT ISZERO PUSH3 0x84E JUMPI PUSH3 0x84D PUSH3 0x742 JUMP JUMPDEST JUMPDEST POP PUSH3 0x8BE JUMP JUMPDEST POP PUSH1 0x20 DUP4 LT PUSH2 0x133 DUP4 LT AND PUSH1 0x4E DUP5 LT PUSH1 0xB DUP5 LT AND OR ISZERO PUSH3 0x88F JUMPI DUP3 DUP3 EXP SWAP1 POP DUP4 DUP2 GT ISZERO PUSH3 0x889 JUMPI PUSH3 0x888 PUSH3 0x742 JUMP JUMPDEST JUMPDEST PUSH3 0x8BE JUMP JUMPDEST PUSH3 0x89E DUP5 DUP5 DUP5 PUSH1 0x1 PUSH3 0x77E JUMP JUMPDEST SWAP3 POP SWAP1 POP DUP2 DUP5 DIV DUP2 GT ISZERO PUSH3 0x8B8 JUMPI PUSH3 0x8B7 PUSH3 0x742 JUMP JUMPDEST JUMPDEST DUP2 DUP2 MUL SWAP1 POP JUMPDEST SWAP4 SWAP3 POP POP POP JUMP JUMPDEST PUSH1 0x0 PUSH1 0xFF DUP3 AND SWAP1 POP SWAP2 SWAP1 POP JUMP JUMPDEST PUSH1 0x0 PUSH3 0x8DF DUP3 PUSH3 0x507 JUMP JUMPDEST SWAP2 POP PUSH3 0x8EC DUP4 PUSH3 0x8C5 JUMP JUMPDEST SWAP3 POP PUSH3 0x91B PUSH32 0xFFFFFFFFFFFFFFFFFFFFFFFFFFFFFFFFFFFFFFFFFFFFFFFFFFFFFFFFFFFFFFFF DUP5 DUP5 PUSH3 0x7D9 JUMP JUMPDEST SWAP1 POP SWAP3 SWAP2 POP POP JUMP JUMPDEST PUSH1 0x0 PUSH3 0x930 DUP3 PUSH3 0x507 JUMP JUMPDEST SWAP2 POP PUSH3 0x93D DUP4 PUSH3 0x507 JUMP JUMPDEST SWAP3 POP DUP3 DUP3 MUL PUSH3 0x94D DUP2 PUSH3 0x507 JUMP JUMPDEST SWAP2 POP DUP3 DUP3 DIV DUP5 EQ DUP4 ISZERO OR PUSH3 0x967 JUMPI PUSH3 0x966 PUSH3 0x742 JUMP JUMPDEST JUMPDEST POP SWAP3 SWAP2 POP POP JUMP JUMPDEST PUSH1 0x0 DUP3 DUP3 MSTORE PUSH1 0x20 DUP3 ADD SWAP1 POP SWAP3 SWAP2 POP POP JUMP JUMPDEST PUSH32 0x45524332303A206D696E7420746F20746865207A65726F206164647265737300 PUSH1 0x0 DUP3 ADD MSTORE POP JUMP JUMPDEST PUSH1 0x0 PUSH3 0x9B7 PUSH1 0x1F DUP4 PUSH3 0x96E JUMP JUMPDEST SWAP2 POP PUSH3 0x9C4 DUP3 PUSH3 0x97F JUMP JUMPDEST PUSH1 0x20 DUP3 ADD SWAP1 POP SWAP2 SWAP1 POP JUMP JUMPDEST PUSH1 0x0 PUSH1 0x20 DUP3 ADD SWAP1 POP DUP2 DUP2 SUB PUSH1 0x0 DUP4 ADD MSTORE PUSH3 0x9EA DUP2 PUSH3 0x9A8 JUMP JUMPDEST SWAP1 POP SWAP2 SWAP1 POP JUMP JUMPDEST PUSH1 0x0 PUSH3 0x9FE DUP3 PUSH3 0x507 JUMP JUMPDEST SWAP2 POP PUSH3 0xA0B DUP4 PUSH3 0x507 JUMP JUMPDEST SWAP3 POP DUP3 DUP3 ADD SWAP1 POP DUP1 DUP3 GT ISZERO PUSH3 0xA26 JUMPI PUSH3 0xA25 PUSH3 0x742 JUMP JUMPDEST JUMPDEST SWAP3 SWAP2 POP POP JUMP JUMPDEST PUSH3 0xA37 DUP2 PUSH3 0x507 JUMP JUMPDEST DUP3 MSTORE POP POP JUMP JUMPDEST PUSH1 0x0 PUSH1 0x20 DUP3 ADD SWAP1 POP PUSH3 0xA54 PUSH1 0x0 DUP4 ADD DUP5 PUSH3 0xA2C JUMP JUMPDEST SWAP3 SWAP2 POP POP JUMP JUMPDEST PUSH2 0x4AF4 DUP1 PUSH3 0xA6A PUSH1 0x0 CODECOPY PUSH1 0x0 RETURN INVALID PUSH1 0x80 PUSH1 0x40 MSTORE CALLVALUE DUP1 ISZERO PUSH2 0x10 JUMPI PUSH1 0x0 DUP1 REVERT JUMPDEST POP PUSH1 0x4 CALLDATASIZE LT PUSH2 0x206 JUMPI PUSH1 0x0 CALLDATALOAD PUSH1 0xE0 SHR DUP1 PUSH4 0x8DA5CB5B GT PUSH2 0x11A JUMPI DUP1 PUSH4 0xC6AB5D90 GT PUSH2 0xAD JUMPI DUP1 PUSH4 0xE1254FBA GT PUSH2 0x7C JUMPI DUP1 PUSH4 0xE1254FBA EQ PUSH2 0x613 JUMPI DUP1 PUSH4 0xF276B8AA EQ PUSH2 0x644 JUMPI DUP1 PUSH4 0xF2FDE38B EQ PUSH2 0x674 JUMPI DUP1 PUSH4 0xF3FBFC7B EQ PUSH2 0x690 JUMPI DUP1 PUSH4 0xFFC2C9B7 EQ PUSH2 0x6AE JUMPI PUSH2 0x206 JUMP JUMPDEST DUP1 PUSH4 0xC6AB5D90 EQ PUSH2 0x57B JUMPI DUP1 PUSH4 0xD19E4856 EQ PUSH2 0x597 JUMPI DUP1 PUSH4 0xDD62ED3E EQ PUSH2 0x5B3 JUMPI DUP1 PUSH4 0xDD6887ED EQ PUSH2 0x5E3 JUMPI PUSH2 0x206 JUMP JUMPDEST DUP1 PUSH4 0xA457C2D7 GT PUSH2 0xE9 JUMPI DUP1 PUSH4 0xA457C2D7 EQ PUSH2 0x4CC JUMPI DUP1 PUSH4 0xA4E2DF66 EQ PUSH2 0x4FC JUMPI DUP1 PUSH4 0xA9059CBB EQ PUSH2 0x52D JUMPI DUP1 PUSH4 0xC5BC91E8 EQ PUSH2 0x55D JUMPI PUSH2 0x206 JUMP JUMPDEST DUP1 PUSH4 0x8DA5CB5B EQ PUSH2 0x456 JUMPI DUP1 PUSH4 0x8EC012B9 EQ PUSH2 0x474 JUMPI DUP1 PUSH4 0x95D89B41 EQ PUSH2 0x490 JUMPI DUP1 PUSH4 0xA23C7C14 EQ PUSH2 0x4AE JUMPI PUSH2 0x206 JUMP JUMPDEST DUP1 PUSH4 0x39509351 GT PUSH2 0x19D JUMPI DUP1 PUSH4 0x70A08231 GT PUSH2 0x16C JUMPI DUP1 PUSH4 0x70A08231 EQ PUSH2 0x39F JUMPI DUP1 PUSH4 0x715018A6 EQ PUSH2 0x3CF JUMPI DUP1 PUSH4 0x7C9B7FDD EQ PUSH2 0x3D9 JUMPI DUP1 PUSH4 0x8291A021 EQ PUSH2 0x40A JUMPI DUP1 PUSH4 0x87A858D2 EQ PUSH2 0x43A JUMPI PUSH2 0x206 JUMP JUMPDEST DUP1 PUSH4 0x39509351 EQ PUSH2 0x31B JUMPI DUP1 PUSH4 0x5C9ABE11 EQ PUSH2 0x34B JUMPI DUP1 PUSH4 0x5E3AE06E EQ PUSH2 0x367 JUMPI DUP1 PUSH4 0x604F2177 EQ PUSH2 0x383 JUMPI PUSH2 0x206 JUMP JUMPDEST DUP1 PUSH4 0x23B872DD GT PUSH2 0x1D9 JUMPI DUP1 PUSH4 0x23B872DD EQ PUSH2 0x2A7 JUMPI DUP1 PUSH4 0x25CFEDB5 EQ PUSH2 0x2D7 JUMPI DUP1 PUSH4 0x27A0B34A EQ PUSH2 0x2F3 JUMPI DUP1 PUSH4 0x313CE567 EQ PUSH2 0x2FD JUMPI PUSH2 0x206 JUMP JUMPDEST DUP1 PUSH4 0x6FDDE03 EQ PUSH2 0x20B JUMPI DUP1 PUSH4 0x95EA7B3 EQ PUSH2 0x229 JUMPI DUP1 PUSH4 0x18160DDD EQ PUSH2 0x259 JUMPI DUP1 PUSH4 0x183DD1CD EQ PUSH2 0x277 JUMPI JUMPDEST PUSH1 0x0 DUP1 REVERT JUMPDEST PUSH2 0x213 PUSH2 0x6CA JUMP JUMPDEST PUSH1 0x40 MLOAD PUSH2 0x220 SWAP2 SWAP1 PUSH2 0x353B JUMP JUMPDEST PUSH1 0x40 MLOAD DUP1 SWAP2 SUB SWAP1 RETURN JUMPDEST PUSH2 0x243 PUSH1 0x4 DUP1 CALLDATASIZE SUB DUP2 ADD SWAP1 PUSH2 0x23E SWAP2 SWAP1 PUSH2 0x3605 JUMP JUMPDEST PUSH2 0x75C JUMP JUMPDEST PUSH1 0x40 MLOAD PUSH2 0x250 SWAP2 SWAP1 PUSH2 0x3660 JUMP JUMPDEST PUSH1 0x40 MLOAD DUP1 SWAP2 SUB SWAP1 RETURN JUMPDEST PUSH2 0x261 PUSH2 0x77F JUMP JUMPDEST PUSH1 0x40 MLOAD PUSH2 0x26E SWAP2 SWAP1 PUSH2 0x368A JUMP JUMPDEST PUSH1 0x40 MLOAD DUP1 SWAP2 SUB SWAP1 RETURN JUMPDEST PUSH2 0x291 PUSH1 0x4 DUP1 CALLDATASIZE SUB DUP2 ADD SWAP1 PUSH2 0x28C SWAP2 SWAP1 PUSH2 0x36A5 JUMP JUMPDEST PUSH2 0x789 JUMP JUMPDEST PUSH1 0x40 MLOAD PUSH2 0x29E SWAP2 SWAP1 PUSH2 0x37DE JUMP JUMPDEST PUSH1 0x40 MLOAD DUP1 SWAP2 SUB SWAP1 RETURN JUMPDEST PUSH2 0x2C1 PUSH1 0x4 DUP1 CALLDATASIZE SUB DUP2 ADD SWAP1 PUSH2 0x2BC SWAP2 SWAP1 PUSH2 0x3800 JUMP JUMPDEST PUSH2 0x8A1 JUMP JUMPDEST PUSH1 0x40 MLOAD PUSH2 0x2CE SWAP2 SWAP1 PUSH2 0x3660 JUMP JUMPDEST PUSH1 0x40 MLOAD DUP1 SWAP2 SUB SWAP1 RETURN JUMPDEST PUSH2 0x2F1 PUSH1 0x4 DUP1 CALLDATASIZE SUB DUP2 ADD SWAP1 PUSH2 0x2EC SWAP2 SWAP1 PUSH2 0x3988 JUMP JUMPDEST PUSH2 0x8D0 JUMP JUMPDEST STOP JUMPDEST PUSH2 0x2FB PUSH2 0xC7B JUMP JUMPDEST STOP JUMPDEST PUSH2 0x305 PUSH2 0x122F JUMP JUMPDEST PUSH1 0x40 MLOAD PUSH2 0x312 SWAP2 SWAP1 PUSH2 0x39ED JUMP JUMPDEST PUSH1 0x40 MLOAD DUP1 SWAP2 SUB SWAP1 RETURN JUMPDEST PUSH2 0x335 PUSH1 0x4 DUP1 CALLDATASIZE SUB DUP2 ADD SWAP1 PUSH2 0x330 SWAP2 SWAP1 PUSH2 0x3605 JUMP JUMPDEST PUSH2 0x1238 JUMP JUMPDEST PUSH1 0x40 MLOAD PUSH2 0x342 SWAP2 SWAP1 PUSH2 0x3660 JUMP JUMPDEST PUSH1 0x40 MLOAD DUP1 SWAP2 SUB SWAP1 RETURN JUMPDEST PUSH2 0x365 PUSH1 0x4 DUP1 CALLDATASIZE SUB DUP2 ADD SWAP1 PUSH2 0x360 SWAP2 SWAP1 PUSH2 0x3A44 JUMP JUMPDEST PUSH2 0x126F JUMP JUMPDEST STOP JUMPDEST PUSH2 0x381 PUSH1 0x4 DUP1 CALLDATASIZE SUB DUP2 ADD SWAP1 PUSH2 0x37C SWAP2 SWAP1 PUSH2 0x3B23 JUMP JUMPDEST PUSH2 0x15B0 JUMP JUMPDEST STOP JUMPDEST PUSH2 0x39D PUSH1 0x4 DUP1 CALLDATASIZE SUB DUP2 ADD SWAP1 PUSH2 0x398 SWAP2 SWAP1 PUSH2 0x3B76 JUMP JUMPDEST PUSH2 0x172A JUMP JUMPDEST STOP JUMPDEST PUSH2 0x3B9 PUSH1 0x4 DUP1 CALLDATASIZE SUB DUP2 ADD SWAP1 PUSH2 0x3B4 SWAP2 SWAP1 PUSH2 0x36A5 JUMP JUMPDEST PUSH2 0x19B2 JUMP JUMPDEST PUSH1 0x40 MLOAD PUSH2 0x3C6 SWAP2 SWAP1 PUSH2 0x368A JUMP JUMPDEST PUSH1 0x40 MLOAD DUP1 SWAP2 SUB SWAP1 RETURN JUMPDEST PUSH2 0x3D7 PUSH2 0x19FA JUMP JUMPDEST STOP JUMPDEST PUSH2 0x3F3 PUSH1 0x4 DUP1 CALLDATASIZE SUB DUP2 ADD SWAP1 PUSH2 0x3EE SWAP2 SWAP1 PUSH2 0x3988 JUMP JUMPDEST PUSH2 0x1A0E JUMP JUMPDEST PUSH1 0x40 MLOAD PUSH2 0x401 SWAP3 SWAP2 SWAP1 PUSH2 0x3BA3 JUMP JUMPDEST PUSH1 0x40 MLOAD DUP1 SWAP2 SUB SWAP1 RETURN JUMPDEST PUSH2 0x424 PUSH1 0x4 DUP1 CALLDATASIZE SUB DUP2 ADD SWAP1 PUSH2 0x41F SWAP2 SWAP1 PUSH2 0x3988 JUMP JUMPDEST PUSH2 0x1B68 JUMP JUMPDEST PUSH1 0x40 MLOAD PUSH2 0x431 SWAP2 SWAP1 PUSH2 0x3CE2 JUMP JUMPDEST PUSH1 0x40 MLOAD DUP1 SWAP2 SUB SWAP1 RETURN JUMPDEST PUSH2 0x454 PUSH1 0x4 DUP1 CALLDATASIZE SUB DUP2 ADD SWAP1 PUSH2 0x44F SWAP2 SWAP1 PUSH2 0x3D04 JUMP JUMPDEST PUSH2 0x1D63 JUMP JUMPDEST STOP JUMPDEST PUSH2 0x45E PUSH2 0x1F18 JUMP JUMPDEST PUSH1 0x40 MLOAD PUSH2 0x46B SWAP2 SWAP1 PUSH2 0x3D6F JUMP JUMPDEST PUSH1 0x40 MLOAD DUP1 SWAP2 SUB SWAP1 RETURN JUMPDEST PUSH2 0x48E PUSH1 0x4 DUP1 CALLDATASIZE SUB DUP2 ADD SWAP1 PUSH2 0x489 SWAP2 SWAP1 PUSH2 0x3988 JUMP JUMPDEST PUSH2 0x1F42 JUMP JUMPDEST STOP JUMPDEST PUSH2 0x498 PUSH2 0x217C JUMP JUMPDEST PUSH1 0x40 MLOAD PUSH2 0x4A5 SWAP2 SWAP1 PUSH2 0x353B JUMP JUMPDEST PUSH1 0x40 MLOAD DUP1 SWAP2 SUB SWAP1 RETURN JUMPDEST PUSH2 0x4B6 PUSH2 0x220E JUMP JUMPDEST PUSH1 0x40 MLOAD PUSH2 0x4C3 SWAP2 SWAP1 PUSH2 0x368A JUMP JUMPDEST PUSH1 0x40 MLOAD DUP1 SWAP2 SUB SWAP1 RETURN JUMPDEST PUSH2 0x4E6 PUSH1 0x4 DUP1 CALLDATASIZE SUB DUP2 ADD SWAP1 PUSH2 0x4E1 SWAP2 SWAP1 PUSH2 0x3605 JUMP JUMPDEST PUSH2 0x2214 JUMP JUMPDEST PUSH1 0x40 MLOAD PUSH2 0x4F3 SWAP2 SWAP1 PUSH2 0x3660 JUMP JUMPDEST PUSH1 0x40 MLOAD DUP1 SWAP2 SUB SWAP1 RETURN JUMPDEST PUSH2 0x516 PUSH1 0x4 DUP1 CALLDATASIZE SUB DUP2 ADD SWAP1 PUSH2 0x511 SWAP2 SWAP1 PUSH2 0x3988 JUMP JUMPDEST PUSH2 0x228B JUMP JUMPDEST PUSH1 0x40 MLOAD PUSH2 0x524 SWAP3 SWAP2 SWAP1 PUSH2 0x3D8A JUMP JUMPDEST PUSH1 0x40 MLOAD DUP1 SWAP2 SUB SWAP1 RETURN JUMPDEST PUSH2 0x547 PUSH1 0x4 DUP1 CALLDATASIZE SUB DUP2 ADD SWAP1 PUSH2 0x542 SWAP2 SWAP1 PUSH2 0x3605 JUMP JUMPDEST PUSH2 0x2308 JUMP JUMPDEST PUSH1 0x40 MLOAD PUSH2 0x554 SWAP2 SWAP1 PUSH2 0x3660 JUMP JUMPDEST PUSH1 0x40 MLOAD DUP1 SWAP2 SUB SWAP1 RETURN JUMPDEST PUSH2 0x565 PUSH2 0x232B JUMP JUMPDEST PUSH1 0x40 MLOAD PUSH2 0x572 SWAP2 SWAP1 PUSH2 0x368A JUMP JUMPDEST PUSH1 0x40 MLOAD DUP1 SWAP2 SUB SWAP1 RETURN JUMPDEST PUSH2 0x595 PUSH1 0x4 DUP1 CALLDATASIZE SUB DUP2 ADD SWAP1 PUSH2 0x590 SWAP2 SWAP1 PUSH2 0x3B76 JUMP JUMPDEST PUSH2 0x2331 JUMP JUMPDEST STOP JUMPDEST PUSH2 0x5B1 PUSH1 0x4 DUP1 CALLDATASIZE SUB DUP2 ADD SWAP1 PUSH2 0x5AC SWAP2 SWAP1 PUSH2 0x3988 JUMP JUMPDEST PUSH2 0x2505 JUMP JUMPDEST STOP JUMPDEST PUSH2 0x5CD PUSH1 0x4 DUP1 CALLDATASIZE SUB DUP2 ADD SWAP1 PUSH2 0x5C8 SWAP2 SWAP1 PUSH2 0x3DB3 JUMP JUMPDEST PUSH2 0x25DD JUMP JUMPDEST PUSH1 0x40 MLOAD PUSH2 0x5DA SWAP2 SWAP1 PUSH2 0x368A JUMP JUMPDEST PUSH1 0x40 MLOAD DUP1 SWAP2 SUB SWAP1 RETURN JUMPDEST PUSH2 0x5FD PUSH1 0x4 DUP1 CALLDATASIZE SUB DUP2 ADD SWAP1 PUSH2 0x5F8 SWAP2 SWAP1 PUSH2 0x3988 JUMP JUMPDEST PUSH2 0x2664 JUMP JUMPDEST PUSH1 0x40 MLOAD PUSH2 0x60A SWAP2 SWAP1 PUSH2 0x3660 JUMP JUMPDEST PUSH1 0x40 MLOAD DUP1 SWAP2 SUB SWAP1 RETURN JUMPDEST PUSH2 0x62D PUSH1 0x4 DUP1 CALLDATASIZE SUB DUP2 ADD SWAP1 PUSH2 0x628 SWAP2 SWAP1 PUSH2 0x36A5 JUMP JUMPDEST PUSH2 0x269C JUMP JUMPDEST PUSH1 0x40 MLOAD PUSH2 0x63B SWAP3 SWAP2 SWAP1 PUSH2 0x3DF3 JUMP JUMPDEST PUSH1 0x40 MLOAD DUP1 SWAP2 SUB SWAP1 RETURN JUMPDEST PUSH2 0x65E PUSH1 0x4 DUP1 CALLDATASIZE SUB DUP2 ADD SWAP1 PUSH2 0x659 SWAP2 SWAP1 PUSH2 0x3B76 JUMP JUMPDEST PUSH2 0x2728 JUMP JUMPDEST PUSH1 0x40 MLOAD PUSH2 0x66B SWAP2 SWAP1 PUSH2 0x3660 JUMP JUMPDEST PUSH1 0x40 MLOAD DUP1 SWAP2 SUB SWAP1 RETURN JUMPDEST PUSH2 0x68E PUSH1 0x4 DUP1 CALLDATASIZE SUB DUP2 ADD SWAP1 PUSH2 0x689 SWAP2 SWAP1 PUSH2 0x36A5 JUMP JUMPDEST PUSH2 0x27E0 JUMP JUMPDEST STOP JUMPDEST PUSH2 0x698 PUSH2 0x2863 JUMP JUMPDEST PUSH1 0x40 MLOAD PUSH2 0x6A5 SWAP2 SWAP1 PUSH2 0x368A JUMP JUMPDEST PUSH1 0x40 MLOAD DUP1 SWAP2 SUB SWAP1 RETURN JUMPDEST PUSH2 0x6C8 PUSH1 0x4 DUP1 CALLDATASIZE SUB DUP2 ADD SWAP1 PUSH2 0x6C3 SWAP2 SWAP1 PUSH2 0x3988 JUMP JUMPDEST PUSH2 0x2D39 JUMP JUMPDEST STOP JUMPDEST PUSH1 0x60 PUSH1 0x3 DUP1 SLOAD PUSH2 0x6D9 SWAP1 PUSH2 0x3E4B JUMP JUMPDEST DUP1 PUSH1 0x1F ADD PUSH1 0x20 DUP1 SWAP2 DIV MUL PUSH1 0x20 ADD PUSH1 0x40 MLOAD SWAP1 DUP2 ADD PUSH1 0x40 MSTORE DUP1 SWAP3 SWAP2 SWAP1 DUP2 DUP2 MSTORE PUSH1 0x20 ADD DUP3 DUP1 SLOAD PUSH2 0x705 SWAP1 PUSH2 0x3E4B JUMP JUMPDEST DUP1 ISZERO PUSH2 0x752 JUMPI DUP1 PUSH1 0x1F LT PUSH2 0x727 JUMPI PUSH2 0x100 DUP1 DUP4 SLOAD DIV MUL DUP4 MSTORE SWAP2 PUSH1 0x20 ADD SWAP2 PUSH2 0x752 JUMP JUMPDEST DUP3 ADD SWAP2 SWAP1 PUSH1 0x0 MSTORE PUSH1 0x20 PUSH1 0x0 KECCAK256 SWAP1 JUMPDEST DUP2 SLOAD DUP2 MSTORE SWAP1 PUSH1 0x1 ADD SWAP1 PUSH1 0x20 ADD DUP1 DUP4 GT PUSH2 0x735 JUMPI DUP3 SWAP1 SUB PUSH1 0x1F AND DUP3 ADD SWAP2 JUMPDEST POP POP POP POP POP SWAP1 POP SWAP1 JUMP JUMPDEST PUSH1 0x0 DUP1 PUSH2 0x767 PUSH2 0x2E01 JUMP JUMPDEST SWAP1 POP PUSH2 0x774 DUP2 DUP6 DUP6 PUSH2 0x2E09 JUMP JUMPDEST PUSH1 0x1 SWAP2 POP POP SWAP3 SWAP2 POP POP JUMP JUMPDEST PUSH1 0x0 PUSH1 0x2 SLOAD SWAP1 POP SWAP1 JUMP JUMPDEST PUSH1 0x60 PUSH1 0xD PUSH1 0x0 DUP4 PUSH20 0xFFFFFFFFFFFFFFFFFFFFFFFFFFFFFFFFFFFFFFFF AND PUSH20 0xFFFFFFFFFFFFFFFFFFFFFFFFFFFFFFFFFFFFFFFF AND DUP2 MSTORE PUSH1 0x20 ADD SWAP1 DUP2 MSTORE PUSH1 0x20 ADD PUSH1 0x0 KECCAK256 DUP1 SLOAD DUP1 PUSH1 0x20 MUL PUSH1 0x20 ADD PUSH1 0x40 MLOAD SWAP1 DUP2 ADD PUSH1 0x40 MSTORE DUP1 SWAP3 SWAP2 SWAP1 DUP2 DUP2 MSTORE PUSH1 0x20 ADD PUSH1 0x0 SWAP1 JUMPDEST DUP3 DUP3 LT ISZERO PUSH2 0x896 JUMPI DUP4 DUP3 SWAP1 PUSH1 0x0 MSTORE PUSH1 0x20 PUSH1 0x0 KECCAK256 ADD DUP1 SLOAD PUSH2 0x809 SWAP1 PUSH2 0x3E4B JUMP JUMPDEST DUP1 PUSH1 0x1F ADD PUSH1 0x20 DUP1 SWAP2 DIV MUL PUSH1 0x20 ADD PUSH1 0x40 MLOAD SWAP1 DUP2 ADD PUSH1 0x40 MSTORE DUP1 SWAP3 SWAP2 SWAP1 DUP2 DUP2 MSTORE PUSH1 0x20 ADD DUP3 DUP1 SLOAD PUSH2 0x835 SWAP1 PUSH2 0x3E4B JUMP JUMPDEST DUP1 ISZERO PUSH2 0x882 JUMPI DUP1 PUSH1 0x1F LT PUSH2 0x857 JUMPI PUSH2 0x100 DUP1 DUP4 SLOAD DIV MUL DUP4 MSTORE SWAP2 PUSH1 0x20 ADD SWAP2 PUSH2 0x882 JUMP JUMPDEST DUP3 ADD SWAP2 SWAP1 PUSH1 0x0 MSTORE PUSH1 0x20 PUSH1 0x0 KECCAK256 SWAP1 JUMPDEST DUP2 SLOAD DUP2 MSTORE SWAP1 PUSH1 0x1 ADD SWAP1 PUSH1 0x20 ADD DUP1 DUP4 GT PUSH2 0x865 JUMPI DUP3 SWAP1 SUB PUSH1 0x1F AND DUP3 ADD SWAP2 JUMPDEST POP POP POP POP POP DUP2 MSTORE PUSH1 0x20 ADD SWAP1 PUSH1 0x1 ADD SWAP1 PUSH2 0x7EA JUMP JUMPDEST POP POP POP POP SWAP1 POP SWAP2 SWAP1 POP JUMP JUMPDEST PUSH1 0x0 DUP1 PUSH2 0x8AC PUSH2 0x2E01 JUMP JUMPDEST SWAP1 POP PUSH2 0x8B9 DUP6 DUP3 DUP6 PUSH2 0x2FD2 JUMP JUMPDEST PUSH2 0x8C4 DUP6 DUP6 DUP6 PUSH2 0x305E JUMP JUMPDEST PUSH1 0x1 SWAP2 POP POP SWAP4 SWAP3 POP POP POP JUMP JUMPDEST PUSH1 0xC DUP2 PUSH1 0x40 MLOAD PUSH2 0x8E0 SWAP2 SWAP1 PUSH2 0x3EB8 JUMP JUMPDEST SWAP1 DUP2 MSTORE PUSH1 0x20 ADD PUSH1 0x40 MLOAD DUP1 SWAP2 SUB SWAP1 KECCAK256 PUSH1 0x6 ADD PUSH1 0x1 SWAP1 SLOAD SWAP1 PUSH2 0x100 EXP SWAP1 DIV PUSH1 0xFF AND ISZERO PUSH2 0x93F JUMPI PUSH1 0x40 MLOAD PUSH32 0x8C379A000000000000000000000000000000000000000000000000000000000 DUP2 MSTORE PUSH1 0x4 ADD PUSH2 0x936 SWAP1 PUSH2 0x3F1B JUMP JUMPDEST PUSH1 0x40 MLOAD DUP1 SWAP2 SUB SWAP1 REVERT JUMPDEST CALLER PUSH20 0xFFFFFFFFFFFFFFFFFFFFFFFFFFFFFFFFFFFFFFFF AND PUSH1 0xC DUP3 PUSH1 0x40 MLOAD PUSH2 0x966 SWAP2 SWAP1 PUSH2 0x3EB8 JUMP JUMPDEST SWAP1 DUP2 MSTORE PUSH1 0x20 ADD PUSH1 0x40 MLOAD DUP1 SWAP2 SUB SWAP1 KECCAK256 PUSH1 0x7 ADD PUSH1 0x0 SWAP1 SLOAD SWAP1 PUSH2 0x100 EXP SWAP1 DIV PUSH20 0xFFFFFFFFFFFFFFFFFFFFFFFFFFFFFFFFFFFFFFFF AND PUSH20 0xFFFFFFFFFFFFFFFFFFFFFFFFFFFFFFFFFFFFFFFF AND EQ PUSH2 0x9EE JUMPI PUSH1 0x40 MLOAD PUSH32 0x8C379A000000000000000000000000000000000000000000000000000000000 DUP2 MSTORE PUSH1 0x4 ADD PUSH2 0x9E5 SWAP1 PUSH2 0x3FAD JUMP JUMPDEST PUSH1 0x40 MLOAD DUP1 SWAP2 SUB SWAP1 REVERT JUMPDEST PUSH1 0xC DUP2 PUSH1 0x40 MLOAD PUSH2 0x9FE SWAP2 SWAP1 PUSH2 0x3EB8 JUMP JUMPDEST SWAP1 DUP2 MSTORE PUSH1 0x20 ADD PUSH1 0x40 MLOAD DUP1 SWAP2 SUB SWAP1 KECCAK256 PUSH1 0x2 ADD SLOAD TIMESTAMP LT PUSH2 0xB3E JUMPI PUSH1 0x1 PUSH1 0xC DUP3 PUSH1 0x40 MLOAD PUSH2 0xA28 SWAP2 SWAP1 PUSH2 0x3EB8 JUMP JUMPDEST SWAP1 DUP2 MSTORE PUSH1 0x20 ADD PUSH1 0x40 MLOAD DUP1 SWAP2 SUB SWAP1 KECCAK256 PUSH1 0x6 ADD PUSH1 0x1 PUSH2 0x100 EXP DUP2 SLOAD DUP2 PUSH1 0xFF MUL NOT AND SWAP1 DUP4 ISZERO ISZERO MUL OR SWAP1 SSTORE POP PUSH1 0x0 PUSH1 0xC DUP3 PUSH1 0x40 MLOAD PUSH2 0xA62 SWAP2 SWAP1 PUSH2 0x3EB8 JUMP JUMPDEST SWAP1 DUP2 MSTORE PUSH1 0x20 ADD PUSH1 0x40 MLOAD DUP1 SWAP2 SUB SWAP1 KECCAK256 PUSH1 0x3 ADD SLOAD PUSH1 0xC DUP4 PUSH1 0x40 MLOAD PUSH2 0xA84 SWAP2 SWAP1 PUSH2 0x3EB8 JUMP JUMPDEST SWAP1 DUP2 MSTORE PUSH1 0x20 ADD PUSH1 0x40 MLOAD DUP1 SWAP2 SUB SWAP1 KECCAK256 PUSH1 0x4 ADD PUSH1 0x0 SWAP1 SLOAD SWAP1 PUSH2 0x100 EXP SWAP1 DIV PUSH4 0xFFFFFFFF AND PUSH4 0xFFFFFFFF AND PUSH2 0xAB6 SWAP2 SWAP1 PUSH2 0x3FFC JUMP JUMPDEST SWAP1 POP PUSH1 0x0 DUP2 PUSH1 0xC DUP5 PUSH1 0x40 MLOAD PUSH2 0xACB SWAP2 SWAP1 PUSH2 0x3EB8 JUMP JUMPDEST SWAP1 DUP2 MSTORE PUSH1 0x20 ADD PUSH1 0x40 MLOAD DUP1 SWAP2 SUB SWAP1 KECCAK256 PUSH1 0x4 ADD PUSH1 0x0 SWAP1 SLOAD SWAP1 PUSH2 0x100 EXP SWAP1 DIV PUSH4 0xFFFFFFFF AND PUSH4 0xFFFFFFFF AND PUSH1 0xC DUP6 PUSH1 0x40 MLOAD PUSH2 0xB03 SWAP2 SWAP1 PUSH2 0x3EB8 JUMP JUMPDEST SWAP1 DUP2 MSTORE PUSH1 0x20 ADD PUSH1 0x40 MLOAD DUP1 SWAP2 SUB SWAP1 KECCAK256 PUSH1 0x5 ADD SLOAD PUSH2 0xB1F SWAP2 SWAP1 PUSH2 0x405F JUMP JUMPDEST PUSH2 0xB29 SWAP2 SWAP1 PUSH2 0x4090 JUMP JUMPDEST SWAP1 POP PUSH2 0xB36 ADDRESS CALLER DUP4 PUSH2 0x8A1 JUMP JUMPDEST POP POP POP PUSH2 0xC78 JUMP JUMPDEST PUSH1 0x0 PUSH1 0xC DUP3 PUSH1 0x40 MLOAD PUSH2 0xB50 SWAP2 SWAP1 PUSH2 0x3EB8 JUMP JUMPDEST SWAP1 DUP2 MSTORE PUSH1 0x20 ADD PUSH1 0x40 MLOAD DUP1 SWAP2 SUB SWAP1 KECCAK256 PUSH1 0x3 ADD SLOAD PUSH1 0x9 PUSH1 0x0 SWAP1 SLOAD SWAP1 PUSH2 0x100 EXP SWAP1 DIV PUSH4 0xFFFFFFFF AND PUSH4 0xFFFFFFFF AND PUSH1 0xC DUP5 PUSH1 0x40 MLOAD PUSH2 0xB8B SWAP2 SWAP1 PUSH2 0x3EB8 JUMP JUMPDEST SWAP1 DUP2 MSTORE PUSH1 0x20 ADD PUSH1 0x40 MLOAD DUP1 SWAP2 SUB SWAP1 KECCAK256 PUSH1 0x1 ADD SLOAD TIMESTAMP PUSH2 0xBA8 SWAP2 SWAP1 PUSH2 0x3FFC JUMP JUMPDEST PUSH2 0xBB2 SWAP2 SWAP1 PUSH2 0x405F JUMP JUMPDEST PUSH2 0xBBC SWAP2 SWAP1 PUSH2 0x3FFC JUMP JUMPDEST SWAP1 POP DUP1 PUSH1 0xC DUP4 PUSH1 0x40 MLOAD PUSH2 0xBCF SWAP2 SWAP1 PUSH2 0x3EB8 JUMP JUMPDEST SWAP1 DUP2 MSTORE PUSH1 0x20 ADD PUSH1 0x40 MLOAD DUP1 SWAP2 SUB SWAP1 KECCAK256 PUSH1 0x3 ADD PUSH1 0x0 DUP3 DUP3 SLOAD PUSH2 0xBEF SWAP2 SWAP1 PUSH2 0x40D2 JUMP JUMPDEST SWAP3 POP POP DUP2 SWAP1 SSTORE POP PUSH1 0x0 DUP2 PUSH1 0xC DUP5 PUSH1 0x40 MLOAD PUSH2 0xC09 SWAP2 SWAP1 PUSH2 0x3EB8 JUMP JUMPDEST SWAP1 DUP2 MSTORE PUSH1 0x20 ADD PUSH1 0x40 MLOAD DUP1 SWAP2 SUB SWAP1 KECCAK256 PUSH1 0x4 ADD PUSH1 0x0 SWAP1 SLOAD SWAP1 PUSH2 0x100 EXP SWAP1 DIV PUSH4 0xFFFFFFFF AND PUSH4 0xFFFFFFFF AND PUSH1 0xC DUP6 PUSH1 0x40 MLOAD PUSH2 0xC41 SWAP2 SWAP1 PUSH2 0x3EB8 JUMP JUMPDEST SWAP1 DUP2 MSTORE PUSH1 0x20 ADD PUSH1 0x40 MLOAD DUP1 SWAP2 SUB SWAP1 KECCAK256 PUSH1 0x5 ADD SLOAD PUSH2 0xC5D SWAP2 SWAP1 PUSH2 0x405F JUMP JUMPDEST PUSH2 0xC67 SWAP2 SWAP1 PUSH2 0x4090 JUMP JUMPDEST SWAP1 POP PUSH2 0xC74 ADDRESS CALLER DUP4 PUSH2 0x8A1 JUMP JUMPDEST POP POP POP JUMPDEST POP JUMP JUMPDEST PUSH1 0x0 PUSH1 0xB PUSH1 0x0 CALLER PUSH20 0xFFFFFFFFFFFFFFFFFFFFFFFFFFFFFFFFFFFFFFFF AND PUSH20 0xFFFFFFFFFFFFFFFFFFFFFFFFFFFFFFFFFFFFFFFF AND DUP2 MSTORE PUSH1 0x20 ADD SWAP1 DUP2 MSTORE PUSH1 0x20 ADD PUSH1 0x0 KECCAK256 SLOAD SUB PUSH2 0xCFD JUMPI PUSH1 0x40 MLOAD PUSH32 0x8C379A000000000000000000000000000000000000000000000000000000000 DUP2 MSTORE PUSH1 0x4 ADD PUSH2 0xCF4 SWAP1 PUSH2 0x4152 JUMP JUMPDEST PUSH1 0x40 MLOAD DUP1 SWAP2 SUB SWAP1 REVERT JUMPDEST PUSH1 0x0 PUSH1 0xD PUSH1 0x0 CALLER PUSH20 0xFFFFFFFFFFFFFFFFFFFFFFFFFFFFFFFFFFFFFFFF AND PUSH20 0xFFFFFFFFFFFFFFFFFFFFFFFFFFFFFFFFFFFFFFFF AND DUP2 MSTORE PUSH1 0x20 ADD SWAP1 DUP2 MSTORE PUSH1 0x20 ADD PUSH1 0x0 KECCAK256 DUP1 SLOAD DUP1 PUSH1 0x20 MUL PUSH1 0x20 ADD PUSH1 0x40 MLOAD SWAP1 DUP2 ADD PUSH1 0x40 MSTORE DUP1 SWAP3 SWAP2 SWAP1 DUP2 DUP2 MSTORE PUSH1 0x20 ADD PUSH1 0x0 SWAP1 JUMPDEST DUP3 DUP3 LT ISZERO PUSH2 0xE0A JUMPI DUP4 DUP3 SWAP1 PUSH1 0x0 MSTORE PUSH1 0x20 PUSH1 0x0 KECCAK256 ADD DUP1 SLOAD PUSH2 0xD7D SWAP1 PUSH2 0x3E4B JUMP JUMPDEST DUP1 PUSH1 0x1F ADD PUSH1 0x20 DUP1 SWAP2 DIV MUL PUSH1 0x20 ADD PUSH1 0x40 MLOAD SWAP1 DUP2 ADD PUSH1 0x40 MSTORE DUP1 SWAP3 SWAP2 SWAP1 DUP2 DUP2 MSTORE PUSH1 0x20 ADD DUP3 DUP1 SLOAD PUSH2 0xDA9 SWAP1 PUSH2 0x3E4B JUMP JUMPDEST DUP1 ISZERO PUSH2 0xDF6 JUMPI DUP1 PUSH1 0x1F LT PUSH2 0xDCB JUMPI PUSH2 0x100 DUP1 DUP4 SLOAD DIV MUL DUP4 MSTORE SWAP2 PUSH1 0x20 ADD SWAP2 PUSH2 0xDF6 JUMP JUMPDEST DUP3 ADD SWAP2 SWAP1 PUSH1 0x0 MSTORE PUSH1 0x20 PUSH1 0x0 KECCAK256 SWAP1 JUMPDEST DUP2 SLOAD DUP2 MSTORE SWAP1 PUSH1 0x1 ADD SWAP1 PUSH1 0x20 ADD DUP1 DUP4 GT PUSH2 0xDD9 JUMPI DUP3 SWAP1 SUB PUSH1 0x1F AND DUP3 ADD SWAP2 JUMPDEST POP POP POP POP POP DUP2 MSTORE PUSH1 0x20 ADD SWAP1 PUSH1 0x1 ADD SWAP1 PUSH2 0xD5E JUMP JUMPDEST POP POP POP POP SWAP1 POP PUSH1 0x0 DUP1 JUMPDEST DUP3 MLOAD DUP2 LT ISZERO PUSH2 0x121E JUMPI PUSH1 0xC DUP4 DUP3 DUP2 MLOAD DUP2 LT PUSH2 0xE32 JUMPI PUSH2 0xE31 PUSH2 0x4172 JUMP JUMPDEST JUMPDEST PUSH1 0x20 MUL PUSH1 0x20 ADD ADD MLOAD PUSH1 0x40 MLOAD PUSH2 0xE47 SWAP2 SWAP1 PUSH2 0x3EB8 JUMP JUMPDEST SWAP1 DUP2 MSTORE PUSH1 0x20 ADD PUSH1 0x40 MLOAD DUP1 SWAP2 SUB SWAP1 KECCAK256 PUSH1 0x6 ADD PUSH1 0x1 SWAP1 SLOAD SWAP1 PUSH2 0x100 EXP SWAP1 DIV PUSH1 0xFF AND PUSH2 0x120B JUMPI PUSH1 0xC DUP4 DUP3 DUP2 MLOAD DUP2 LT PUSH2 0xE7F JUMPI PUSH2 0xE7E PUSH2 0x4172 JUMP JUMPDEST JUMPDEST PUSH1 0x20 MUL PUSH1 0x20 ADD ADD MLOAD PUSH1 0x40 MLOAD PUSH2 0xE94 SWAP2 SWAP1 PUSH2 0x3EB8 JUMP JUMPDEST SWAP1 DUP2 MSTORE PUSH1 0x20 ADD PUSH1 0x40 MLOAD DUP1 SWAP2 SUB SWAP1 KECCAK256 PUSH1 0x2 ADD SLOAD TIMESTAMP LT PUSH2 0x1052 JUMPI PUSH1 0x1 PUSH1 0xC DUP5 DUP4 DUP2 MLOAD DUP2 LT PUSH2 0xEC3 JUMPI PUSH2 0xEC2 PUSH2 0x4172 JUMP JUMPDEST JUMPDEST PUSH1 0x20 MUL PUSH1 0x20 ADD ADD MLOAD PUSH1 0x40 MLOAD PUSH2 0xED8 SWAP2 SWAP1 PUSH2 0x3EB8 JUMP JUMPDEST SWAP1 DUP2 MSTORE PUSH1 0x20 ADD PUSH1 0x40 MLOAD DUP1 SWAP2 SUB SWAP1 KECCAK256 PUSH1 0x6 ADD PUSH1 0x1 PUSH2 0x100 EXP DUP2 SLOAD DUP2 PUSH1 0xFF MUL NOT AND SWAP1 DUP4 ISZERO ISZERO MUL OR SWAP1 SSTORE POP PUSH1 0x0 PUSH1 0xC DUP5 DUP4 DUP2 MLOAD DUP2 LT PUSH2 0xF17 JUMPI PUSH2 0xF16 PUSH2 0x4172 JUMP JUMPDEST JUMPDEST PUSH1 0x20 MUL PUSH1 0x20 ADD ADD MLOAD PUSH1 0x40 MLOAD PUSH2 0xF2C SWAP2 SWAP1 PUSH2 0x3EB8 JUMP JUMPDEST SWAP1 DUP2 MSTORE PUSH1 0x20 ADD PUSH1 0x40 MLOAD DUP1 SWAP2 SUB SWAP1 KECCAK256 PUSH1 0x3 ADD SLOAD PUSH1 0xC DUP6 DUP5 DUP2 MLOAD DUP2 LT PUSH2 0xF53 JUMPI PUSH2 0xF52 PUSH2 0x4172 JUMP JUMPDEST JUMPDEST PUSH1 0x20 MUL PUSH1 0x20 ADD ADD MLOAD PUSH1 0x40 MLOAD PUSH2 0xF68 SWAP2 SWAP1 PUSH2 0x3EB8 JUMP JUMPDEST SWAP1 DUP2 MSTORE PUSH1 0x20 ADD PUSH1 0x40 MLOAD DUP1 SWAP2 SUB SWAP1 KECCAK256 PUSH1 0x4 ADD PUSH1 0x0 SWAP1 SLOAD SWAP1 PUSH2 0x100 EXP SWAP1 DIV PUSH4 0xFFFFFFFF AND PUSH4 0xFFFFFFFF AND PUSH2 0xF9A SWAP2 SWAP1 PUSH2 0x3FFC JUMP JUMPDEST SWAP1 POP DUP1 PUSH1 0xC DUP6 DUP5 DUP2 MLOAD DUP2 LT PUSH2 0xFB2 JUMPI PUSH2 0xFB1 PUSH2 0x4172 JUMP JUMPDEST JUMPDEST PUSH1 0x20 MUL PUSH1 0x20 ADD ADD MLOAD PUSH1 0x40 MLOAD PUSH2 0xFC7 SWAP2 SWAP1 PUSH2 0x3EB8 JUMP JUMPDEST SWAP1 DUP2 MSTORE PUSH1 0x20 ADD PUSH1 0x40 MLOAD DUP1 SWAP2 SUB SWAP1 KECCAK256 PUSH1 0x4 ADD PUSH1 0x0 SWAP1 SLOAD SWAP1 PUSH2 0x100 EXP SWAP1 DIV PUSH4 0xFFFFFFFF AND PUSH4 0xFFFFFFFF AND PUSH1 0xC DUP7 DUP6 DUP2 MLOAD DUP2 LT PUSH2 0x1004 JUMPI PUSH2 0x1003 PUSH2 0x4172 JUMP JUMPDEST JUMPDEST PUSH1 0x20 MUL PUSH1 0x20 ADD ADD MLOAD PUSH1 0x40 MLOAD PUSH2 0x1019 SWAP2 SWAP1 PUSH2 0x3EB8 JUMP JUMPDEST SWAP1 DUP2 MSTORE PUSH1 0x20 ADD PUSH1 0x40 MLOAD DUP1 SWAP2 SUB SWAP1 KECCAK256 PUSH1 0x5 ADD SLOAD PUSH2 0x1035 SWAP2 SWAP1 PUSH2 0x405F JUMP JUMPDEST PUSH2 0x103F SWAP2 SWAP1 PUSH2 0x4090 JUMP JUMPDEST DUP4 PUSH2 0x104A SWAP2 SWAP1 PUSH2 0x40D2 JUMP JUMPDEST SWAP3 POP POP PUSH2 0x120A JUMP JUMPDEST PUSH1 0x0 PUSH1 0xC DUP5 DUP4 DUP2 MLOAD DUP2 LT PUSH2 0x1069 JUMPI PUSH2 0x1068 PUSH2 0x4172 JUMP JUMPDEST JUMPDEST PUSH1 0x20 MUL PUSH1 0x20 ADD ADD MLOAD PUSH1 0x40 MLOAD PUSH2 0x107E SWAP2 SWAP1 PUSH2 0x3EB8 JUMP JUMPDEST SWAP1 DUP2 MSTORE PUSH1 0x20 ADD PUSH1 0x40 MLOAD DUP1 SWAP2 SUB SWAP1 KECCAK256 PUSH1 0x3 ADD SLOAD PUSH1 0x9 PUSH1 0x0 SWAP1 SLOAD SWAP1 PUSH2 0x100 EXP SWAP1 DIV PUSH4 0xFFFFFFFF AND PUSH4 0xFFFFFFFF AND PUSH1 0xC DUP7 DUP6 DUP2 MLOAD DUP2 LT PUSH2 0x10BE JUMPI PUSH2 0x10BD PUSH2 0x4172 JUMP JUMPDEST JUMPDEST PUSH1 0x20 MUL PUSH1 0x20 ADD ADD MLOAD PUSH1 0x40 MLOAD PUSH2 0x10D3 SWAP2 SWAP1 PUSH2 0x3EB8 JUMP JUMPDEST SWAP1 DUP2 MSTORE PUSH1 0x20 ADD PUSH1 0x40 MLOAD DUP1 SWAP2 SUB SWAP1 KECCAK256 PUSH1 0x1 ADD SLOAD TIMESTAMP PUSH2 0x10F0 SWAP2 SWAP1 PUSH2 0x3FFC JUMP JUMPDEST PUSH2 0x10FA SWAP2 SWAP1 PUSH2 0x405F JUMP JUMPDEST PUSH2 0x1104 SWAP2 SWAP1 PUSH2 0x3FFC JUMP JUMPDEST SWAP1 POP DUP1 PUSH1 0xC DUP6 DUP5 DUP2 MLOAD DUP2 LT PUSH2 0x111C JUMPI PUSH2 0x111B PUSH2 0x4172 JUMP JUMPDEST JUMPDEST PUSH1 0x20 MUL PUSH1 0x20 ADD ADD MLOAD PUSH1 0x40 MLOAD PUSH2 0x1131 SWAP2 SWAP1 PUSH2 0x3EB8 JUMP JUMPDEST SWAP1 DUP2 MSTORE PUSH1 0x20 ADD PUSH1 0x40 MLOAD DUP1 SWAP2 SUB SWAP1 KECCAK256 PUSH1 0x3 ADD PUSH1 0x0 DUP3 DUP3 SLOAD PUSH2 0x1151 SWAP2 SWAP1 PUSH2 0x40D2 JUMP JUMPDEST SWAP3 POP POP DUP2 SWAP1 SSTORE POP DUP1 PUSH1 0xC DUP6 DUP5 DUP2 MLOAD DUP2 LT PUSH2 0x116E JUMPI PUSH2 0x116D PUSH2 0x4172 JUMP JUMPDEST JUMPDEST PUSH1 0x20 MUL PUSH1 0x20 ADD ADD MLOAD PUSH1 0x40 MLOAD PUSH2 0x1183 SWAP2 SWAP1 PUSH2 0x3EB8 JUMP JUMPDEST SWAP1 DUP2 MSTORE PUSH1 0x20 ADD PUSH1 0x40 MLOAD DUP1 SWAP2 SUB SWAP1 KECCAK256 PUSH1 0x4 ADD PUSH1 0x0 SWAP1 SLOAD SWAP1 PUSH2 0x100 EXP SWAP1 DIV PUSH4 0xFFFFFFFF AND PUSH4 0xFFFFFFFF AND PUSH1 0xC DUP7 DUP6 DUP2 MLOAD DUP2 LT PUSH2 0x11C0 JUMPI PUSH2 0x11BF PUSH2 0x4172 JUMP JUMPDEST JUMPDEST PUSH1 0x20 MUL PUSH1 0x20 ADD ADD MLOAD PUSH1 0x40 MLOAD PUSH2 0x11D5 SWAP2 SWAP1 PUSH2 0x3EB8 JUMP JUMPDEST SWAP1 DUP2 MSTORE PUSH1 0x20 ADD PUSH1 0x40 MLOAD DUP1 SWAP2 SUB SWAP1 KECCAK256 PUSH1 0x5 ADD SLOAD PUSH2 0x11F1 SWAP2 SWAP1 PUSH2 0x405F JUMP JUMPDEST PUSH2 0x11FB SWAP2 SWAP1 PUSH2 0x4090 JUMP JUMPDEST DUP4 PUSH2 0x1206 SWAP2 SWAP1 PUSH2 0x40D2 JUMP JUMPDEST SWAP3 POP POP JUMPDEST JUMPDEST DUP1 DUP1 PUSH2 0x1216 SWAP1 PUSH2 0x41A1 JUMP JUMPDEST SWAP2 POP POP PUSH2 0xE14 JUMP JUMPDEST POP PUSH2 0x122A ADDRESS CALLER DUP4 PUSH2 0x8A1 JUMP JUMPDEST POP POP POP JUMP JUMPDEST PUSH1 0x0 PUSH1 0x12 SWAP1 POP SWAP1 JUMP JUMPDEST PUSH1 0x0 DUP1 PUSH2 0x1243 PUSH2 0x2E01 JUMP JUMPDEST SWAP1 POP PUSH2 0x1264 DUP2 DUP6 DUP6 PUSH2 0x1255 DUP6 DUP10 PUSH2 0x25DD JUMP JUMPDEST PUSH2 0x125F SWAP2 SWAP1 PUSH2 0x40D2 JUMP JUMPDEST PUSH2 0x2E09 JUMP JUMPDEST PUSH1 0x1 SWAP2 POP POP SWAP3 SWAP2 POP POP JUMP JUMPDEST PUSH1 0xC DUP4 PUSH1 0x40 MLOAD PUSH2 0x127F SWAP2 SWAP1 PUSH2 0x3EB8 JUMP JUMPDEST SWAP1 DUP2 MSTORE PUSH1 0x20 ADD PUSH1 0x40 MLOAD DUP1 SWAP2 SUB SWAP1 KECCAK256 PUSH1 0x6 ADD PUSH1 0x0 SWAP1 SLOAD SWAP1 PUSH2 0x100 EXP SWAP1 DIV PUSH1 0xFF AND ISZERO PUSH2 0x12DE JUMPI PUSH1 0x40 MLOAD PUSH32 0x8C379A000000000000000000000000000000000000000000000000000000000 DUP2 MSTORE PUSH1 0x4 ADD PUSH2 0x12D5 SWAP1 PUSH2 0x4235 JUMP JUMPDEST PUSH1 0x40 MLOAD DUP1 SWAP2 SUB SWAP1 REVERT JUMPDEST DUP2 PUSH2 0x12E8 CALLER PUSH2 0x19B2 JUMP JUMPDEST LT ISZERO PUSH2 0x1329 JUMPI PUSH1 0x40 MLOAD PUSH32 0x8C379A000000000000000000000000000000000000000000000000000000000 DUP2 MSTORE PUSH1 0x4 ADD PUSH2 0x1320 SWAP1 PUSH2 0x42A1 JUMP JUMPDEST PUSH1 0x40 MLOAD DUP1 SWAP2 SUB SWAP1 REVERT JUMPDEST PUSH2 0x1333 ADDRESS DUP4 PUSH2 0x2308 JUMP JUMPDEST POP PUSH1 0x40 MLOAD DUP1 PUSH2 0x140 ADD PUSH1 0x40 MSTORE DUP1 DUP7 DUP2 MSTORE PUSH1 0x20 ADD TIMESTAMP DUP2 MSTORE PUSH1 0x20 ADD PUSH1 0x9 PUSH1 0x0 SWAP1 SLOAD SWAP1 PUSH2 0x100 EXP SWAP1 DIV PUSH4 0xFFFFFFFF AND DUP7 PUSH2 0x136A SWAP2 SWAP1 PUSH2 0x42C1 JUMP JUMPDEST PUSH4 0xFFFFFFFF AND TIMESTAMP PUSH2 0x137B SWAP2 SWAP1 PUSH2 0x40D2 JUMP JUMPDEST DUP2 MSTORE PUSH1 0x20 ADD PUSH1 0x0 DUP2 MSTORE PUSH1 0x20 ADD DUP6 PUSH4 0xFFFFFFFF AND DUP2 MSTORE PUSH1 0x20 ADD DUP4 DUP2 MSTORE PUSH1 0x20 ADD PUSH1 0x1 ISZERO ISZERO DUP2 MSTORE PUSH1 0x20 ADD PUSH1 0x0 ISZERO ISZERO DUP2 MSTORE PUSH1 0x20 ADD CALLER PUSH20 0xFFFFFFFFFFFFFFFFFFFFFFFFFFFFFFFFFFFFFFFF AND DUP2 MSTORE PUSH1 0x20 ADD DUP3 PUSH20 0xFFFFFFFFFFFFFFFFFFFFFFFFFFFFFFFFFFFFFFFF AND DUP2 MSTORE POP PUSH1 0xC DUP5 PUSH1 0x40 MLOAD PUSH2 0x13F1 SWAP2 SWAP1 PUSH2 0x3EB8 JUMP JUMPDEST SWAP1 DUP2 MSTORE PUSH1 0x20 ADD PUSH1 0x40 MLOAD DUP1 SWAP2 SUB SWAP1 KECCAK256 PUSH1 0x0 DUP3 ADD MLOAD DUP2 PUSH1 0x0 ADD SWAP1 DUP2 PUSH2 0x1414 SWAP2 SWAP1 PUSH2 0x44AA JUMP JUMPDEST POP PUSH1 0x20 DUP3 ADD MLOAD DUP2 PUSH1 0x1 ADD SSTORE PUSH1 0x40 DUP3 ADD MLOAD DUP2 PUSH1 0x2 ADD SSTORE PUSH1 0x60 DUP3 ADD MLOAD DUP2 PUSH1 0x3 ADD SSTORE PUSH1 0x80 DUP3 ADD MLOAD DUP2 PUSH1 0x4 ADD PUSH1 0x0 PUSH2 0x100 EXP DUP2 SLOAD DUP2 PUSH4 0xFFFFFFFF MUL NOT AND SWAP1 DUP4 PUSH4 0xFFFFFFFF AND MUL OR SWAP1 SSTORE POP PUSH1 0xA0 DUP3 ADD MLOAD DUP2 PUSH1 0x5 ADD SSTORE PUSH1 0xC0 DUP3 ADD MLOAD DUP2 PUSH1 0x6 ADD PUSH1 0x0 PUSH2 0x100 EXP DUP2 SLOAD DUP2 PUSH1 0xFF MUL NOT AND SWAP1 DUP4 ISZERO ISZERO MUL OR SWAP1 SSTORE POP PUSH1 0xE0 DUP3 ADD MLOAD DUP2 PUSH1 0x6 ADD PUSH1 0x1 PUSH2 0x100 EXP DUP2 SLOAD DUP2 PUSH1 0xFF MUL NOT AND SWAP1 DUP4 ISZERO ISZERO MUL OR SWAP1 SSTORE POP PUSH2 0x100 DUP3 ADD MLOAD DUP2 PUSH1 0x6 ADD PUSH1 0x2 PUSH2 0x100 EXP DUP2 SLOAD DUP2 PUSH20 0xFFFFFFFFFFFFFFFFFFFFFFFFFFFFFFFFFFFFFFFF MUL NOT AND SWAP1 DUP4 PUSH20 0xFFFFFFFFFFFFFFFFFFFFFFFFFFFFFFFFFFFFFFFF AND MUL OR SWAP1 SSTORE POP PUSH2 0x120 DUP3 ADD MLOAD DUP2 PUSH1 0x7 ADD PUSH1 0x0 PUSH2 0x100 EXP DUP2 SLOAD DUP2 PUSH20 0xFFFFFFFFFFFFFFFFFFFFFFFFFFFFFFFFFFFFFFFF MUL NOT AND SWAP1 DUP4 PUSH20 0xFFFFFFFFFFFFFFFFFFFFFFFFFFFFFFFFFFFFFFFF AND MUL OR SWAP1 SSTORE POP SWAP1 POP POP PUSH1 0xD PUSH1 0x0 DUP3 PUSH20 0xFFFFFFFFFFFFFFFFFFFFFFFFFFFFFFFFFFFFFFFF AND PUSH20 0xFFFFFFFFFFFFFFFFFFFFFFFFFFFFFFFFFFFFFFFF AND DUP2 MSTORE PUSH1 0x20 ADD SWAP1 DUP2 MSTORE PUSH1 0x20 ADD PUSH1 0x0 KECCAK256 DUP4 SWAP1 DUP1 PUSH1 0x1 DUP2 SLOAD ADD DUP1 DUP3 SSTORE DUP1 SWAP2 POP POP PUSH1 0x1 SWAP1 SUB SWAP1 PUSH1 0x0 MSTORE PUSH1 0x20 PUSH1 0x0 KECCAK256 ADD PUSH1 0x0 SWAP1 SWAP2 SWAP1 SWAP2 SWAP1 SWAP2 POP SWAP1 DUP2 PUSH2 0x15A8 SWAP2 SWAP1 PUSH2 0x44AA JUMP JUMPDEST POP POP POP POP POP POP JUMP JUMPDEST PUSH1 0x1 DUP4 PUSH1 0xFF AND SUB PUSH2 0x166C JUMPI DUP1 PUSH2 0x15C5 CALLER PUSH2 0x19B2 JUMP JUMPDEST LT ISZERO PUSH2 0x1606 JUMPI PUSH1 0x40 MLOAD PUSH32 0x8C379A000000000000000000000000000000000000000000000000000000000 DUP2 MSTORE PUSH1 0x4 ADD PUSH2 0x15FD SWAP1 PUSH2 0x42A1 JUMP JUMPDEST PUSH1 0x40 MLOAD DUP1 SWAP2 SUB SWAP1 REVERT JUMPDEST PUSH2 0x1610 ADDRESS DUP3 PUSH2 0x2308 JUMP JUMPDEST POP DUP1 PUSH1 0xA PUSH1 0x0 DUP5 PUSH20 0xFFFFFFFFFFFFFFFFFFFFFFFFFFFFFFFFFFFFFFFF AND PUSH20 0xFFFFFFFFFFFFFFFFFFFFFFFFFFFFFFFFFFFFFFFF AND DUP2 MSTORE PUSH1 0x20 ADD SWAP1 DUP2 MSTORE PUSH1 0x20 ADD PUSH1 0x0 KECCAK256 PUSH1 0x0 DUP3 DUP3 SLOAD PUSH2 0x1660 SWAP2 SWAP1 PUSH2 0x40D2 JUMP JUMPDEST SWAP3 POP POP DUP2 SWAP1 SSTORE POP PUSH2 0x1725 JUMP JUMPDEST PUSH1 0x2 DUP4 PUSH1 0xFF AND SUB PUSH2 0x1724 JUMPI DUP1 PUSH2 0x1681 CALLER PUSH2 0x19B2 JUMP JUMPDEST LT ISZERO PUSH2 0x16C2 JUMPI PUSH1 0x40 MLOAD PUSH32 0x8C379A000000000000000000000000000000000000000000000000000000000 DUP2 MSTORE PUSH1 0x4 ADD PUSH2 0x16B9 SWAP1 PUSH2 0x42A1 JUMP JUMPDEST PUSH1 0x40 MLOAD DUP1 SWAP2 SUB SWAP1 REVERT JUMPDEST PUSH2 0x16CC ADDRESS DUP3 PUSH2 0x2308 JUMP JUMPDEST POP DUP1 PUSH1 0xB PUSH1 0x0 DUP5 PUSH20 0xFFFFFFFFFFFFFFFFFFFFFFFFFFFFFFFFFFFFFFFF AND PUSH20 0xFFFFFFFFFFFFFFFFFFFFFFFFFFFFFFFFFFFFFFFF AND DUP2 MSTORE PUSH1 0x20 ADD SWAP1 DUP2 MSTORE PUSH1 0x20 ADD PUSH1 0x0 KECCAK256 PUSH1 0x0 DUP3 DUP3 SLOAD PUSH2 0x171C SWAP2 SWAP1 PUSH2 0x40D2 JUMP JUMPDEST SWAP3 POP POP DUP2 SWAP1 SSTORE POP JUMPDEST JUMPDEST POP POP POP JUMP JUMPDEST PUSH1 0x1 DUP2 PUSH1 0xFF AND SUB PUSH2 0x186E JUMPI PUSH1 0x0 PUSH1 0xA PUSH1 0x0 CALLER PUSH20 0xFFFFFFFFFFFFFFFFFFFFFFFFFFFFFFFFFFFFFFFF AND PUSH20 0xFFFFFFFFFFFFFFFFFFFFFFFFFFFFFFFFFFFFFFFF AND DUP2 MSTORE PUSH1 0x20 ADD SWAP1 DUP2 MSTORE PUSH1 0x20 ADD PUSH1 0x0 KECCAK256 SLOAD EQ PUSH2 0x17B7 JUMPI PUSH1 0x40 MLOAD PUSH32 0x8C379A000000000000000000000000000000000000000000000000000000000 DUP2 MSTORE PUSH1 0x4 ADD PUSH2 0x17AE SWAP1 PUSH2 0x45C8 JUMP JUMPDEST PUSH1 0x40 MLOAD DUP1 SWAP2 SUB SWAP1 REVERT JUMPDEST PUSH1 0x7 SLOAD PUSH2 0x17C3 CALLER PUSH2 0x19B2 JUMP JUMPDEST LT ISZERO PUSH2 0x1804 JUMPI PUSH1 0x40 MLOAD PUSH32 0x8C379A000000000000000000000000000000000000000000000000000000000 DUP2 MSTORE PUSH1 0x4 ADD PUSH2 0x17FB SWAP1 PUSH2 0x42A1 JUMP JUMPDEST PUSH1 0x40 MLOAD DUP1 SWAP2 SUB SWAP1 REVERT JUMPDEST PUSH2 0x1810 ADDRESS PUSH1 0x7 SLOAD PUSH2 0x2308 JUMP JUMPDEST POP PUSH1 0x7 SLOAD PUSH1 0xA PUSH1 0x0 CALLER PUSH20 0xFFFFFFFFFFFFFFFFFFFFFFFFFFFFFFFFFFFFFFFF AND PUSH20 0xFFFFFFFFFFFFFFFFFFFFFFFFFFFFFFFFFFFFFFFF AND DUP2 MSTORE PUSH1 0x20 ADD SWAP1 DUP2 MSTORE PUSH1 0x20 ADD PUSH1 0x0 KECCAK256 PUSH1 0x0 DUP3 DUP3 SLOAD PUSH2 0x1862 SWAP2 SWAP1 PUSH2 0x40D2 JUMP JUMPDEST SWAP3 POP POP DUP2 SWAP1 SSTORE POP PUSH2 0x19AF JUMP JUMPDEST PUSH1 0x2 DUP2 PUSH1 0xFF AND SUB PUSH2 0x19AE JUMPI PUSH1 0x0 PUSH1 0xB PUSH1 0x0 CALLER PUSH20 0xFFFFFFFFFFFFFFFFFFFFFFFFFFFFFFFFFFFFFFFF AND PUSH20 0xFFFFFFFFFFFFFFFFFFFFFFFFFFFFFFFFFFFFFFFF AND DUP2 MSTORE PUSH1 0x20 ADD SWAP1 DUP2 MSTORE PUSH1 0x20 ADD PUSH1 0x0 KECCAK256 SLOAD EQ PUSH2 0x18FB JUMPI PUSH1 0x40 MLOAD PUSH32 0x8C379A000000000000000000000000000000000000000000000000000000000 DUP2 MSTORE PUSH1 0x4 ADD PUSH2 0x18F2 SWAP1 PUSH2 0x45C8 JUMP JUMPDEST PUSH1 0x40 MLOAD DUP1 SWAP2 SUB SWAP1 REVERT JUMPDEST PUSH1 0x8 SLOAD PUSH2 0x1907 CALLER PUSH2 0x19B2 JUMP JUMPDEST LT ISZERO PUSH2 0x1948 JUMPI PUSH1 0x40 MLOAD PUSH32 0x8C379A000000000000000000000000000000000000000000000000000000000 DUP2 MSTORE PUSH1 0x4 ADD PUSH2 0x193F SWAP1 PUSH2 0x42A1 JUMP JUMPDEST PUSH1 0x40 MLOAD DUP1 SWAP2 SUB SWAP1 REVERT JUMPDEST PUSH2 0x1954 ADDRESS PUSH1 0x8 SLOAD PUSH2 0x2308 JUMP JUMPDEST POP PUSH1 0x8 SLOAD PUSH1 0xB PUSH1 0x0 CALLER PUSH20 0xFFFFFFFFFFFFFFFFFFFFFFFFFFFFFFFFFFFFFFFF AND PUSH20 0xFFFFFFFFFFFFFFFFFFFFFFFFFFFFFFFFFFFFFFFF AND DUP2 MSTORE PUSH1 0x20 ADD SWAP1 DUP2 MSTORE PUSH1 0x20 ADD PUSH1 0x0 KECCAK256 PUSH1 0x0 DUP3 DUP3 SLOAD PUSH2 0x19A6 SWAP2 SWAP1 PUSH2 0x40D2 JUMP JUMPDEST SWAP3 POP POP DUP2 SWAP1 SSTORE POP JUMPDEST JUMPDEST POP JUMP JUMPDEST PUSH1 0x0 DUP1 PUSH1 0x0 DUP4 PUSH20 0xFFFFFFFFFFFFFFFFFFFFFFFFFFFFFFFFFFFFFFFF AND PUSH20 0xFFFFFFFFFFFFFFFFFFFFFFFFFFFFFFFFFFFFFFFF AND DUP2 MSTORE PUSH1 0x20 ADD SWAP1 DUP2 MSTORE PUSH1 0x20 ADD PUSH1 0x0 KECCAK256 SLOAD SWAP1 POP SWAP2 SWAP1 POP JUMP JUMPDEST PUSH2 0x1A02 PUSH2 0x32D4 JUMP JUMPDEST PUSH2 0x1A0C PUSH1 0x0 PUSH2 0x3352 JUMP JUMPDEST JUMP JUMPDEST PUSH1 0x0 DUP1 PUSH1 0x2 PUSH1 0x6 DUP5 PUSH1 0x40 MLOAD PUSH2 0x1A23 SWAP2 SWAP1 PUSH2 0x3EB8 JUMP JUMPDEST SWAP1 DUP2 MSTORE PUSH1 0x20 ADD PUSH1 0x40 MLOAD DUP1 SWAP2 SUB SWAP1 KECCAK256 PUSH1 0x0 ADD PUSH1 0x14 SWAP1 SLOAD SWAP1 PUSH2 0x100 EXP SWAP1 DIV PUSH1 0xFF AND PUSH1 0xFF AND SUB PUSH2 0x1B5B JUMPI PUSH1 0x0 PUSH1 0xA PUSH1 0x0 PUSH1 0x6 DUP7 PUSH1 0x40 MLOAD PUSH2 0x1A60 SWAP2 SWAP1 PUSH2 0x3EB8 JUMP JUMPDEST SWAP1 DUP2 MSTORE PUSH1 0x20 ADD PUSH1 0x40 MLOAD DUP1 SWAP2 SUB SWAP1 KECCAK256 PUSH1 0x0 ADD PUSH1 0x0 SWAP1 SLOAD SWAP1 PUSH2 0x100 EXP SWAP1 DIV PUSH20 0xFFFFFFFFFFFFFFFFFFFFFFFFFFFFFFFFFFFFFFFF AND PUSH20 0xFFFFFFFFFFFFFFFFFFFFFFFFFFFFFFFFFFFFFFFF AND PUSH20 0xFFFFFFFFFFFFFFFFFFFFFFFFFFFFFFFFFFFFFFFF AND DUP2 MSTORE PUSH1 0x20 ADD SWAP1 DUP2 MSTORE PUSH1 0x20 ADD PUSH1 0x0 KECCAK256 SLOAD GT PUSH1 0x0 PUSH1 0xB PUSH1 0x0 PUSH1 0x6 DUP8 PUSH1 0x40 MLOAD PUSH2 0x1AE4 SWAP2 SWAP1 PUSH2 0x3EB8 JUMP JUMPDEST SWAP1 DUP2 MSTORE PUSH1 0x20 ADD PUSH1 0x40 MLOAD DUP1 SWAP2 SUB SWAP1 KECCAK256 PUSH1 0x0 ADD PUSH1 0x0 SWAP1 SLOAD SWAP1 PUSH2 0x100 EXP SWAP1 DIV PUSH20 0xFFFFFFFFFFFFFFFFFFFFFFFFFFFFFFFFFFFFFFFF AND PUSH20 0xFFFFFFFFFFFFFFFFFFFFFFFFFFFFFFFFFFFFFFFF AND PUSH20 0xFFFFFFFFFFFFFFFFFFFFFFFFFFFFFFFFFFFFFFFF AND DUP2 MSTORE PUSH1 0x20 ADD SWAP1 DUP2 MSTORE PUSH1 0x20 ADD PUSH1 0x0 KECCAK256 SLOAD GT SWAP2 POP SWAP2 POP PUSH2 0x1B63 JUMP JUMPDEST PUSH1 0x0 DUP1 SWAP2 POP SWAP2 POP JUMPDEST SWAP2 POP SWAP2 JUMP JUMPDEST PUSH2 0x1B70 PUSH2 0x3422 JUMP JUMPDEST PUSH1 0xC DUP3 PUSH1 0x40 MLOAD PUSH2 0x1B80 SWAP2 SWAP1 PUSH2 0x3EB8 JUMP JUMPDEST SWAP1 DUP2 MSTORE PUSH1 0x20 ADD PUSH1 0x40 MLOAD DUP1 SWAP2 SUB SWAP1 KECCAK256 PUSH1 0x40 MLOAD DUP1 PUSH2 0x140 ADD PUSH1 0x40 MSTORE SWAP1 DUP2 PUSH1 0x0 DUP3 ADD DUP1 SLOAD PUSH2 0x1BAA SWAP1 PUSH2 0x3E4B JUMP JUMPDEST DUP1 PUSH1 0x1F ADD PUSH1 0x20 DUP1 SWAP2 DIV MUL PUSH1 0x20 ADD PUSH1 0x40 MLOAD SWAP1 DUP2 ADD PUSH1 0x40 MSTORE DUP1 SWAP3 SWAP2 SWAP1 DUP2 DUP2 MSTORE PUSH1 0x20 ADD DUP3 DUP1 SLOAD PUSH2 0x1BD6 SWAP1 PUSH2 0x3E4B JUMP JUMPDEST DUP1 ISZERO PUSH2 0x1C23 JUMPI DUP1 PUSH1 0x1F LT PUSH2 0x1BF8 JUMPI PUSH2 0x100 DUP1 DUP4 SLOAD DIV MUL DUP4 MSTORE SWAP2 PUSH1 0x20 ADD SWAP2 PUSH2 0x1C23 JUMP JUMPDEST DUP3 ADD SWAP2 SWAP1 PUSH1 0x0 MSTORE PUSH1 0x20 PUSH1 0x0 KECCAK256 SWAP1 JUMPDEST DUP2 SLOAD DUP2 MSTORE SWAP1 PUSH1 0x1 ADD SWAP1 PUSH1 0x20 ADD DUP1 DUP4 GT PUSH2 0x1C06 JUMPI DUP3 SWAP1 SUB PUSH1 0x1F AND DUP3 ADD SWAP2 JUMPDEST POP POP POP POP POP DUP2 MSTORE PUSH1 0x20 ADD PUSH1 0x1 DUP3 ADD SLOAD DUP2 MSTORE PUSH1 0x20 ADD PUSH1 0x2 DUP3 ADD SLOAD DUP2 MSTORE PUSH1 0x20 ADD PUSH1 0x3 DUP3 ADD SLOAD DUP2 MSTORE PUSH1 0x20 ADD PUSH1 0x4 DUP3 ADD PUSH1 0x0 SWAP1 SLOAD SWAP1 PUSH2 0x100 EXP SWAP1 DIV PUSH4 0xFFFFFFFF AND PUSH4 0xFFFFFFFF AND PUSH4 0xFFFFFFFF AND DUP2 MSTORE PUSH1 0x20 ADD PUSH1 0x5 DUP3 ADD SLOAD DUP2 MSTORE PUSH1 0x20 ADD PUSH1 0x6 DUP3 ADD PUSH1 0x0 SWAP1 SLOAD SWAP1 PUSH2 0x100 EXP SWAP1 DIV PUSH1 0xFF AND ISZERO ISZERO ISZERO ISZERO DUP2 MSTORE PUSH1 0x20 ADD PUSH1 0x6 DUP3 ADD PUSH1 0x1 SWAP1 SLOAD SWAP1 PUSH2 0x100 EXP SWAP1 DIV PUSH1 0xFF AND ISZERO ISZERO ISZERO ISZERO DUP2 MSTORE PUSH1 0x20 ADD PUSH1 0x6 DUP3 ADD PUSH1 0x2 SWAP1 SLOAD SWAP1 PUSH2 0x100 EXP SWAP1 DIV PUSH20 0xFFFFFFFFFFFFFFFFFFFFFFFFFFFFFFFFFFFFFFFF AND PUSH20 0xFFFFFFFFFFFFFFFFFFFFFFFFFFFFFFFFFFFFFFFF AND PUSH20 0xFFFFFFFFFFFFFFFFFFFFFFFFFFFFFFFFFFFFFFFF AND DUP2 MSTORE PUSH1 0x20 ADD PUSH1 0x7 DUP3 ADD PUSH1 0x0 SWAP1 SLOAD SWAP1 PUSH2 0x100 EXP SWAP1 DIV PUSH20 0xFFFFFFFFFFFFFFFFFFFFFFFFFFFFFFFFFFFFFFFF AND PUSH20 0xFFFFFFFFFFFFFFFFFFFFFFFFFFFFFFFFFFFFFFFF AND PUSH20 0xFFFFFFFFFFFFFFFFFFFFFFFFFFFFFFFFFFFFFFFF AND DUP2 MSTORE POP POP SWAP1 POP SWAP2 SWAP1 POP JUMP JUMPDEST PUSH1 0x0 PUSH20 0xFFFFFFFFFFFFFFFFFFFFFFFFFFFFFFFFFFFFFFFF AND DUP2 PUSH20 0xFFFFFFFFFFFFFFFFFFFFFFFFFFFFFFFFFFFFFFFF AND SUB PUSH2 0x1D9C JUMPI PUSH1 0x0 DUP1 REVERT JUMPDEST PUSH1 0x1 PUSH1 0x6 DUP4 PUSH1 0x40 MLOAD PUSH2 0x1DAE SWAP2 SWAP1 PUSH2 0x3EB8 JUMP JUMPDEST SWAP1 DUP2 MSTORE PUSH1 0x20 ADD PUSH1 0x40 MLOAD DUP1 SWAP2 SUB SWAP1 KECCAK256 PUSH1 0x0 ADD PUSH1 0x14 SWAP1 SLOAD SWAP1 PUSH2 0x100 EXP SWAP1 DIV PUSH1 0xFF AND PUSH1 0xFF AND SUB PUSH2 0x1E3A JUMPI DUP1 PUSH1 0x6 DUP4 PUSH1 0x40 MLOAD PUSH2 0x1DE6 SWAP2 SWAP1 PUSH2 0x3EB8 JUMP JUMPDEST SWAP1 DUP2 MSTORE PUSH1 0x20 ADD PUSH1 0x40 MLOAD DUP1 SWAP2 SUB SWAP1 KECCAK256 PUSH1 0x0 ADD PUSH1 0x0 PUSH2 0x100 EXP DUP2 SLOAD DUP2 PUSH20 0xFFFFFFFFFFFFFFFFFFFFFFFFFFFFFFFFFFFFFFFF MUL NOT AND SWAP1 DUP4 PUSH20 0xFFFFFFFFFFFFFFFFFFFFFFFFFFFFFFFFFFFFFFFF AND MUL OR SWAP1 SSTORE POP PUSH2 0x1F14 JUMP JUMPDEST CALLER PUSH20 0xFFFFFFFFFFFFFFFFFFFFFFFFFFFFFFFFFFFFFFFF AND PUSH1 0x6 DUP4 PUSH1 0x40 MLOAD PUSH2 0x1E61 SWAP2 SWAP1 PUSH2 0x3EB8 JUMP JUMPDEST SWAP1 DUP2 MSTORE PUSH1 0x20 ADD PUSH1 0x40 MLOAD DUP1 SWAP2 SUB SWAP1 KECCAK256 PUSH1 0x0 ADD PUSH1 0x0 SWAP1 SLOAD SWAP1 PUSH2 0x100 EXP SWAP1 DIV PUSH20 0xFFFFFFFFFFFFFFFFFFFFFFFFFFFFFFFFFFFFFFFF AND PUSH20 0xFFFFFFFFFFFFFFFFFFFFFFFFFFFFFFFFFFFFFFFF AND EQ PUSH2 0x1EB3 JUMPI PUSH1 0x0 DUP1 REVERT JUMPDEST DUP1 PUSH1 0x6 DUP4 PUSH1 0x40 MLOAD PUSH2 0x1EC4 SWAP2 SWAP1 PUSH2 0x3EB8 JUMP JUMPDEST SWAP1 DUP2 MSTORE PUSH1 0x20 ADD PUSH1 0x40 MLOAD DUP1 SWAP2 SUB SWAP1 KECCAK256 PUSH1 0x0 ADD PUSH1 0x0 PUSH2 0x100 EXP DUP2 SLOAD DUP2 PUSH20 0xFFFFFFFFFFFFFFFFFFFFFFFFFFFFFFFFFFFFFFFF MUL NOT AND SWAP1 DUP4 PUSH20 0xFFFFFFFFFFFFFFFFFFFFFFFFFFFFFFFFFFFFFFFF AND MUL OR SWAP1 SSTORE POP JUMPDEST POP POP JUMP JUMPDEST PUSH1 0x0 PUSH1 0x5 PUSH1 0x0 SWAP1 SLOAD SWAP1 PUSH2 0x100 EXP SWAP1 DIV PUSH20 0xFFFFFFFFFFFFFFFFFFFFFFFFFFFFFFFFFFFFFFFF AND SWAP1 POP SWAP1 JUMP JUMPDEST PUSH1 0x0 PUSH20 0xFFFFFFFFFFFFFFFFFFFFFFFFFFFFFFFFFFFFFFFF AND PUSH1 0x6 DUP3 PUSH1 0x40 MLOAD PUSH2 0x1F6A SWAP2 SWAP1 PUSH2 0x3EB8 JUMP JUMPDEST SWAP1 DUP2 MSTORE PUSH1 0x20 ADD PUSH1 0x40 MLOAD DUP1 SWAP2 SUB SWAP1 KECCAK256 PUSH1 0x0 ADD PUSH1 0x0 SWAP1 SLOAD SWAP1 PUSH2 0x100 EXP SWAP1 DIV PUSH20 0xFFFFFFFFFFFFFFFFFFFFFFFFFFFFFFFFFFFFFFFF AND PUSH20 0xFFFFFFFFFFFFFFFFFFFFFFFFFFFFFFFFFFFFFFFF AND EQ PUSH2 0x1FBC JUMPI PUSH1 0x0 DUP1 REVERT JUMPDEST PUSH1 0x0 PUSH1 0xA PUSH1 0x0 CALLER PUSH20 0xFFFFFFFFFFFFFFFFFFFFFFFFFFFFFFFFFFFFFFFF AND PUSH20 0xFFFFFFFFFFFFFFFFFFFFFFFFFFFFFFFFFFFFFFFF AND DUP2 MSTORE PUSH1 0x20 ADD SWAP1 DUP2 MSTORE PUSH1 0x20 ADD PUSH1 0x0 KECCAK256 SLOAD SUB PUSH2 0x20C0 JUMPI PUSH1 0x40 MLOAD DUP1 PUSH1 0x40 ADD PUSH1 0x40 MSTORE DUP1 CALLER PUSH20 0xFFFFFFFFFFFFFFFFFFFFFFFFFFFFFFFFFFFFFFFF AND DUP2 MSTORE PUSH1 0x20 ADD PUSH1 0x1 PUSH1 0xFF AND DUP2 MSTORE POP PUSH1 0x6 DUP3 PUSH1 0x40 MLOAD PUSH2 0x2042 SWAP2 SWAP1 PUSH2 0x3EB8 JUMP JUMPDEST SWAP1 DUP2 MSTORE PUSH1 0x20 ADD PUSH1 0x40 MLOAD DUP1 SWAP2 SUB SWAP1 KECCAK256 PUSH1 0x0 DUP3 ADD MLOAD DUP2 PUSH1 0x0 ADD PUSH1 0x0 PUSH2 0x100 EXP DUP2 SLOAD DUP2 PUSH20 0xFFFFFFFFFFFFFFFFFFFFFFFFFFFFFFFFFFFFFFFF MUL NOT AND SWAP1 DUP4 PUSH20 0xFFFFFFFFFFFFFFFFFFFFFFFFFFFFFFFFFFFFFFFF AND MUL OR SWAP1 SSTORE POP PUSH1 0x20 DUP3 ADD MLOAD DUP2 PUSH1 0x0 ADD PUSH1 0x14 PUSH2 0x100 EXP DUP2 SLOAD DUP2 PUSH1 0xFF MUL NOT AND SWAP1 DUP4 PUSH1 0xFF AND MUL OR SWAP1 SSTORE POP SWAP1 POP POP PUSH2 0x2179 JUMP JUMPDEST PUSH1 0x40 MLOAD DUP1 PUSH1 0x40 ADD PUSH1 0x40 MSTORE DUP1 CALLER PUSH20 0xFFFFFFFFFFFFFFFFFFFFFFFFFFFFFFFFFFFFFFFF AND DUP2 MSTORE PUSH1 0x20 ADD PUSH1 0x2 PUSH1 0xFF AND DUP2 MSTORE POP PUSH1 0x6 DUP3 PUSH1 0x40 MLOAD PUSH2 0x20FF SWAP2 SWAP1 PUSH2 0x3EB8 JUMP JUMPDEST SWAP1 DUP2 MSTORE PUSH1 0x20 ADD PUSH1 0x40 MLOAD DUP1 SWAP2 SUB SWAP1 KECCAK256 PUSH1 0x0 DUP3 ADD MLOAD DUP2 PUSH1 0x0 ADD PUSH1 0x0 PUSH2 0x100 EXP DUP2 SLOAD DUP2 PUSH20 0xFFFFFFFFFFFFFFFFFFFFFFFFFFFFFFFFFFFFFFFF MUL NOT AND SWAP1 DUP4 PUSH20 0xFFFFFFFFFFFFFFFFFFFFFFFFFFFFFFFFFFFFFFFF AND MUL OR SWAP1 SSTORE POP PUSH1 0x20 DUP3 ADD MLOAD DUP2 PUSH1 0x0 ADD PUSH1 0x14 PUSH2 0x100 EXP DUP2 SLOAD DUP2 PUSH1 0xFF MUL NOT AND SWAP1 DUP4 PUSH1 0xFF AND MUL OR SWAP1 SSTORE POP SWAP1 POP POP JUMPDEST POP JUMP JUMPDEST PUSH1 0x60 PUSH1 0x4 DUP1 SLOAD PUSH2 0x218B SWAP1 PUSH2 0x3E4B JUMP JUMPDEST DUP1 PUSH1 0x1F ADD PUSH1 0x20 DUP1 SWAP2 DIV MUL PUSH1 0x20 ADD PUSH1 0x40 MLOAD SWAP1 DUP2 ADD PUSH1 0x40 MSTORE DUP1 SWAP3 SWAP2 SWAP1 DUP2 DUP2 MSTORE PUSH1 0x20 ADD DUP3 DUP1 SLOAD PUSH2 0x21B7 SWAP1 PUSH2 0x3E4B JUMP JUMPDEST DUP1 ISZERO PUSH2 0x2204 JUMPI DUP1 PUSH1 0x1F LT PUSH2 0x21D9 JUMPI PUSH2 0x100 DUP1 DUP4 SLOAD DIV MUL DUP4 MSTORE SWAP2 PUSH1 0x20 ADD SWAP2 PUSH2 0x2204 JUMP JUMPDEST DUP3 ADD SWAP2 SWAP1 PUSH1 0x0 MSTORE PUSH1 0x20 PUSH1 0x0 KECCAK256 SWAP1 JUMPDEST DUP2 SLOAD DUP2 MSTORE SWAP1 PUSH1 0x1 ADD SWAP1 PUSH1 0x20 ADD DUP1 DUP4 GT PUSH2 0x21E7 JUMPI DUP3 SWAP1 SUB PUSH1 0x1F AND DUP3 ADD SWAP2 JUMPDEST POP POP POP POP POP SWAP1 POP SWAP1 JUMP JUMPDEST PUSH1 0x7 SLOAD DUP2 JUMP JUMPDEST PUSH1 0x0 DUP1 PUSH2 0x221F PUSH2 0x2E01 JUMP JUMPDEST SWAP1 POP PUSH1 0x0 PUSH2 0x222D DUP3 DUP7 PUSH2 0x25DD JUMP JUMPDEST SWAP1 POP DUP4 DUP2 LT ISZERO PUSH2 0x2272 JUMPI PUSH1 0x40 MLOAD PUSH32 0x8C379A000000000000000000000000000000000000000000000000000000000 DUP2 MSTORE PUSH1 0x4 ADD PUSH2 0x2269 SWAP1 PUSH2 0x465A JUMP JUMPDEST PUSH1 0x40 MLOAD DUP1 SWAP2 SUB SWAP1 REVERT JUMPDEST PUSH2 0x227F DUP3 DUP7 DUP7 DUP5 SUB PUSH2 0x2E09 JUMP JUMPDEST PUSH1 0x1 SWAP3 POP POP POP SWAP3 SWAP2 POP POP JUMP JUMPDEST PUSH1 0x0 DUP1 PUSH1 0x6 DUP4 PUSH1 0x40 MLOAD PUSH2 0x229E SWAP2 SWAP1 PUSH2 0x3EB8 JUMP JUMPDEST SWAP1 DUP2 MSTORE PUSH1 0x20 ADD PUSH1 0x40 MLOAD DUP1 SWAP2 SUB SWAP1 KECCAK256 PUSH1 0x0 ADD PUSH1 0x0 SWAP1 SLOAD SWAP1 PUSH2 0x100 EXP SWAP1 DIV PUSH20 0xFFFFFFFFFFFFFFFFFFFFFFFFFFFFFFFFFFFFFFFF AND PUSH1 0x6 DUP5 PUSH1 0x40 MLOAD PUSH2 0x22E0 SWAP2 SWAP1 PUSH2 0x3EB8 JUMP JUMPDEST SWAP1 DUP2 MSTORE PUSH1 0x20 ADD PUSH1 0x40 MLOAD DUP1 SWAP2 SUB SWAP1 KECCAK256 PUSH1 0x0 ADD PUSH1 0x14 SWAP1 SLOAD SWAP1 PUSH2 0x100 EXP SWAP1 DIV PUSH1 0xFF AND SWAP2 POP SWAP2 POP SWAP2 POP SWAP2 JUMP JUMPDEST PUSH1 0x0 DUP1 PUSH2 0x2313 PUSH2 0x2E01 JUMP JUMPDEST SWAP1 POP PUSH2 0x2320 DUP2 DUP6 DUP6 PUSH2 0x305E JUMP JUMPDEST PUSH1 0x1 SWAP2 POP POP SWAP3 SWAP2 POP POP JUMP JUMPDEST PUSH1 0x8 SLOAD DUP2 JUMP JUMPDEST PUSH1 0x1 DUP2 PUSH1 0xFF AND SUB PUSH2 0x241B JUMPI PUSH1 0x0 PUSH1 0xA PUSH1 0x0 CALLER PUSH20 0xFFFFFFFFFFFFFFFFFFFFFFFFFFFFFFFFFFFFFFFF AND PUSH20 0xFFFFFFFFFFFFFFFFFFFFFFFFFFFFFFFFFFFFFFFF AND DUP2 MSTORE PUSH1 0x20 ADD SWAP1 DUP2 MSTORE PUSH1 0x20 ADD PUSH1 0x0 KECCAK256 SLOAD GT PUSH2 0x2388 JUMPI PUSH1 0x0 DUP1 REVERT JUMPDEST PUSH2 0x23D2 ADDRESS CALLER PUSH1 0xA PUSH1 0x0 CALLER PUSH20 0xFFFFFFFFFFFFFFFFFFFFFFFFFFFFFFFFFFFFFFFF AND PUSH20 0xFFFFFFFFFFFFFFFFFFFFFFFFFFFFFFFFFFFFFFFF AND DUP2 MSTORE PUSH1 0x20 ADD SWAP1 DUP2 MSTORE PUSH1 0x20 ADD PUSH1 0x0 KECCAK256 SLOAD PUSH2 0x8A1 JUMP JUMPDEST POP PUSH1 0xA PUSH1 0x0 CALLER PUSH20 0xFFFFFFFFFFFFFFFFFFFFFFFFFFFFFFFFFFFFFFFF AND PUSH20 0xFFFFFFFFFFFFFFFFFFFFFFFFFFFFFFFFFFFFFFFF AND DUP2 MSTORE PUSH1 0x20 ADD SWAP1 DUP2 MSTORE PUSH1 0x20 ADD PUSH1 0x0 KECCAK256 PUSH1 0x0 SWAP1 SSTORE PUSH2 0x2502 JUMP JUMPDEST PUSH1 0x2 DUP2 PUSH1 0xFF AND SUB PUSH2 0x2501 JUMPI PUSH1 0x0 PUSH1 0xB PUSH1 0x0 CALLER PUSH20 0xFFFFFFFFFFFFFFFFFFFFFFFFFFFFFFFFFFFFFFFF AND PUSH20 0xFFFFFFFFFFFFFFFFFFFFFFFFFFFFFFFFFFFFFFFF AND DUP2 MSTORE PUSH1 0x20 ADD SWAP1 DUP2 MSTORE PUSH1 0x20 ADD PUSH1 0x0 KECCAK256 SLOAD GT PUSH2 0x2472 JUMPI PUSH1 0x0 DUP1 REVERT JUMPDEST PUSH2 0x24BC ADDRESS CALLER PUSH1 0xB PUSH1 0x0 CALLER PUSH20 0xFFFFFFFFFFFFFFFFFFFFFFFFFFFFFFFFFFFFFFFF AND PUSH20 0xFFFFFFFFFFFFFFFFFFFFFFFFFFFFFFFFFFFFFFFF AND DUP2 MSTORE PUSH1 0x20 ADD SWAP1 DUP2 MSTORE PUSH1 0x20 ADD PUSH1 0x0 KECCAK256 SLOAD PUSH2 0x8A1 JUMP JUMPDEST POP PUSH1 0xB PUSH1 0x0 CALLER PUSH20 0xFFFFFFFFFFFFFFFFFFFFFFFFFFFFFFFFFFFFFFFF AND PUSH20 0xFFFFFFFFFFFFFFFFFFFFFFFFFFFFFFFFFFFFFFFF AND DUP2 MSTORE PUSH1 0x20 ADD SWAP1 DUP2 MSTORE PUSH1 0x20 ADD PUSH1 0x0 KECCAK256 PUSH1 0x0 SWAP1 SSTORE JUMPDEST JUMPDEST POP JUMP JUMPDEST CALLER PUSH20 0xFFFFFFFFFFFFFFFFFFFFFFFFFFFFFFFFFFFFFFFF AND PUSH1 0x6 DUP3 PUSH1 0x40 MLOAD PUSH2 0x252C SWAP2 SWAP1 PUSH2 0x3EB8 JUMP JUMPDEST SWAP1 DUP2 MSTORE PUSH1 0x20 ADD PUSH1 0x40 MLOAD DUP1 SWAP2 SUB SWAP1 KECCAK256 PUSH1 0x0 ADD PUSH1 0x0 SWAP1 SLOAD SWAP1 PUSH2 0x100 EXP SWAP1 DIV PUSH20 0xFFFFFFFFFFFFFFFFFFFFFFFFFFFFFFFFFFFFFFFF AND PUSH20 0xFFFFFFFFFFFFFFFFFFFFFFFFFFFFFFFFFFFFFFFF AND EQ PUSH2 0x257E JUMPI PUSH1 0x0 DUP1 REVERT JUMPDEST PUSH1 0x6 DUP2 PUSH1 0x40 MLOAD PUSH2 0x258E SWAP2 SWAP1 PUSH2 0x3EB8 JUMP JUMPDEST SWAP1 DUP2 MSTORE PUSH1 0x20 ADD PUSH1 0x40 MLOAD DUP1 SWAP2 SUB SWAP1 KECCAK256 PUSH1 0x0 DUP1 DUP3 ADD PUSH1 0x0 PUSH2 0x100 EXP DUP2 SLOAD SWAP1 PUSH20 0xFFFFFFFFFFFFFFFFFFFFFFFFFFFFFFFFFFFFFFFF MUL NOT AND SWAP1 SSTORE PUSH1 0x0 DUP3 ADD PUSH1 0x14 PUSH2 0x100 EXP DUP2 SLOAD SWAP1 PUSH1 0xFF MUL NOT AND SWAP1 SSTORE POP POP POP JUMP JUMPDEST PUSH1 0x0 PUSH1 0x1 PUSH1 0x0 DUP5 PUSH20 0xFFFFFFFFFFFFFFFFFFFFFFFFFFFFFFFFFFFFFFFF AND PUSH20 0xFFFFFFFFFFFFFFFFFFFFFFFFFFFFFFFFFFFFFFFF AND DUP2 MSTORE PUSH1 0x20 ADD SWAP1 DUP2 MSTORE PUSH1 0x20 ADD PUSH1 0x0 KECCAK256 PUSH1 0x0 DUP4 PUSH20 0xFFFFFFFFFFFFFFFFFFFFFFFFFFFFFFFFFFFFFFFF AND PUSH20 0xFFFFFFFFFFFFFFFFFFFFFFFFFFFFFFFFFFFFFFFF AND DUP2 MSTORE PUSH1 0x20 ADD SWAP1 DUP2 MSTORE PUSH1 0x20 ADD PUSH1 0x0 KECCAK256 SLOAD SWAP1 POP SWAP3 SWAP2 POP POP JUMP JUMPDEST PUSH1 0x0 PUSH1 0xC DUP3 PUSH1 0x40 MLOAD PUSH2 0x2676 SWAP2 SWAP1 PUSH2 0x3EB8 JUMP JUMPDEST SWAP1 DUP2 MSTORE PUSH1 0x20 ADD PUSH1 0x40 MLOAD DUP1 SWAP2 SUB SWAP1 KECCAK256 PUSH1 0x6 ADD PUSH1 0x0 SWAP1 SLOAD SWAP1 PUSH2 0x100 EXP SWAP1 DIV PUSH1 0xFF AND SWAP1 POP SWAP2 SWAP1 POP JUMP JUMPDEST PUSH1 0x0 DUP1 PUSH1 0xA PUSH1 0x0 DUP5 PUSH20 0xFFFFFFFFFFFFFFFFFFFFFFFFFFFFFFFFFFFFFFFF AND PUSH20 0xFFFFFFFFFFFFFFFFFFFFFFFFFFFFFFFFFFFFFFFF AND DUP2 MSTORE PUSH1 0x20 ADD SWAP1 DUP2 MSTORE PUSH1 0x20 ADD PUSH1 0x0 KECCAK256 SLOAD PUSH1 0xB PUSH1 0x0 DUP6 PUSH20 0xFFFFFFFFFFFFFFFFFFFFFFFFFFFFFFFFFFFFFFFF AND PUSH20 0xFFFFFFFFFFFFFFFFFFFFFFFFFFFFFFFFFFFFFFFF AND DUP2 MSTORE PUSH1 0x20 ADD SWAP1 DUP2 MSTORE PUSH1 0x20 ADD PUSH1 0x0 KECCAK256 SLOAD SWAP2 POP SWAP2 POP SWAP2 POP SWAP2 JUMP JUMPDEST PUSH1 0x0 PUSH1 0x1 DUP3 PUSH1 0xFF AND SUB PUSH2 0x2780 JUMPI PUSH1 0x0 PUSH1 0xA PUSH1 0x0 CALLER PUSH20 0xFFFFFFFFFFFFFFFFFFFFFFFFFFFFFFFFFFFFFFFF AND PUSH20 0xFFFFFFFFFFFFFFFFFFFFFFFFFFFFFFFFFFFFFFFF AND DUP2 MSTORE PUSH1 0x20 ADD SWAP1 DUP2 MSTORE PUSH1 0x20 ADD PUSH1 0x0 KECCAK256 SLOAD EQ ISZERO SWAP1 POP PUSH2 0x27DB JUMP JUMPDEST PUSH1 0x2 DUP3 PUSH1 0xFF AND SUB PUSH2 0x27D6 JUMPI PUSH1 0x0 PUSH1 0xB PUSH1 0x0 CALLER PUSH20 0xFFFFFFFFFFFFFFFFFFFFFFFFFFFFFFFFFFFFFFFF AND PUSH20 0xFFFFFFFFFFFFFFFFFFFFFFFFFFFFFFFFFFFFFFFF AND DUP2 MSTORE PUSH1 0x20 ADD SWAP1 DUP2 MSTORE PUSH1 0x20 ADD PUSH1 0x0 KECCAK256 SLOAD EQ ISZERO SWAP1 POP PUSH2 0x27DB JUMP JUMPDEST PUSH1 0x0 SWAP1 POP JUMPDEST SWAP2 SWAP1 POP JUMP JUMPDEST PUSH2 0x27E8 PUSH2 0x32D4 JUMP JUMPDEST PUSH1 0x0 PUSH20 0xFFFFFFFFFFFFFFFFFFFFFFFFFFFFFFFFFFFFFFFF AND DUP2 PUSH20 0xFFFFFFFFFFFFFFFFFFFFFFFFFFFFFFFFFFFFFFFF AND SUB PUSH2 0x2857 JUMPI PUSH1 0x40 MLOAD PUSH32 0x8C379A000000000000000000000000000000000000000000000000000000000 DUP2 MSTORE PUSH1 0x4 ADD PUSH2 0x284E SWAP1 PUSH2 0x46EC JUMP JUMPDEST PUSH1 0x40 MLOAD DUP1 SWAP2 SUB SWAP1 REVERT JUMPDEST PUSH2 0x2860 DUP2 PUSH2 0x3352 JUMP JUMPDEST POP JUMP JUMPDEST PUSH1 0x0 DUP1 PUSH1 0xB PUSH1 0x0 CALLER PUSH20 0xFFFFFFFFFFFFFFFFFFFFFFFFFFFFFFFFFFFFFFFF AND PUSH20 0xFFFFFFFFFFFFFFFFFFFFFFFFFFFFFFFFFFFFFFFF AND DUP2 MSTORE PUSH1 0x20 ADD SWAP1 DUP2 MSTORE PUSH1 0x20 ADD PUSH1 0x0 KECCAK256 SLOAD SUB PUSH2 0x28B4 JUMPI PUSH1 0x0 SWAP1 POP PUSH2 0x2D36 JUMP JUMPDEST PUSH1 0x0 PUSH1 0xD PUSH1 0x0 CALLER PUSH20 0xFFFFFFFFFFFFFFFFFFFFFFFFFFFFFFFFFFFFFFFF AND PUSH20 0xFFFFFFFFFFFFFFFFFFFFFFFFFFFFFFFFFFFFFFFF AND DUP2 MSTORE PUSH1 0x20 ADD SWAP1 DUP2 MSTORE PUSH1 0x20 ADD PUSH1 0x0 KECCAK256 DUP1 SLOAD DUP1 PUSH1 0x20 MUL PUSH1 0x20 ADD PUSH1 0x40 MLOAD SWAP1 DUP2 ADD PUSH1 0x40 MSTORE DUP1 SWAP3 SWAP2 SWAP1 DUP2 DUP2 MSTORE PUSH1 0x20 ADD PUSH1 0x0 SWAP1 JUMPDEST DUP3 DUP3 LT ISZERO PUSH2 0x29C1 JUMPI DUP4 DUP3 SWAP1 PUSH1 0x0 MSTORE PUSH1 0x20 PUSH1 0x0 KECCAK256 ADD DUP1 SLOAD PUSH2 0x2934 SWAP1 PUSH2 0x3E4B JUMP JUMPDEST DUP1 PUSH1 0x1F ADD PUSH1 0x20 DUP1 SWAP2 DIV MUL PUSH1 0x20 ADD PUSH1 0x40 MLOAD SWAP1 DUP2 ADD PUSH1 0x40 MSTORE DUP1 SWAP3 SWAP2 SWAP1 DUP2 DUP2 MSTORE PUSH1 0x20 ADD DUP3 DUP1 SLOAD PUSH2 0x2960 SWAP1 PUSH2 0x3E4B JUMP JUMPDEST DUP1 ISZERO PUSH2 0x29AD JUMPI DUP1 PUSH1 0x1F LT PUSH2 0x2982 JUMPI PUSH2 0x100 DUP1 DUP4 SLOAD DIV MUL DUP4 MSTORE SWAP2 PUSH1 0x20 ADD SWAP2 PUSH2 0x29AD JUMP JUMPDEST DUP3 ADD SWAP2 SWAP1 PUSH1 0x0 MSTORE PUSH1 0x20 PUSH1 0x0 KECCAK256 SWAP1 JUMPDEST DUP2 SLOAD DUP2 MSTORE SWAP1 PUSH1 0x1 ADD SWAP1 PUSH1 0x20 ADD DUP1 DUP4 GT PUSH2 0x2990 JUMPI DUP3 SWAP1 SUB PUSH1 0x1F AND DUP3 ADD SWAP2 JUMPDEST POP POP POP POP POP DUP2 MSTORE PUSH1 0x20 ADD SWAP1 PUSH1 0x1 ADD SWAP1 PUSH2 0x2915 JUMP JUMPDEST POP POP POP POP SWAP1 POP PUSH1 0x0 DUP1 JUMPDEST DUP3 MLOAD DUP2 LT ISZERO PUSH2 0x2D2F JUMPI PUSH1 0xC DUP4 DUP3 DUP2 MLOAD DUP2 LT PUSH2 0x29E9 JUMPI PUSH2 0x29E8 PUSH2 0x4172 JUMP JUMPDEST JUMPDEST PUSH1 0x20 MUL PUSH1 0x20 ADD ADD MLOAD PUSH1 0x40 MLOAD PUSH2 0x29FE SWAP2 SWAP1 PUSH2 0x3EB8 JUMP JUMPDEST SWAP1 DUP2 MSTORE PUSH1 0x20 ADD PUSH1 0x40 MLOAD DUP1 SWAP2 SUB SWAP1 KECCAK256 PUSH1 0x6 ADD PUSH1 0x1 SWAP1 SLOAD SWAP1 PUSH2 0x100 EXP SWAP1 DIV PUSH1 0xFF AND PUSH2 0x2D1C JUMPI PUSH1 0xC DUP4 DUP3 DUP2 MLOAD DUP2 LT PUSH2 0x2A36 JUMPI PUSH2 0x2A35 PUSH2 0x4172 JUMP JUMPDEST JUMPDEST PUSH1 0x20 MUL PUSH1 0x20 ADD ADD MLOAD PUSH1 0x40 MLOAD PUSH2 0x2A4B SWAP2 SWAP1 PUSH2 0x3EB8 JUMP JUMPDEST SWAP1 DUP2 MSTORE PUSH1 0x20 ADD PUSH1 0x40 MLOAD DUP1 SWAP2 SUB SWAP1 KECCAK256 PUSH1 0x2 ADD SLOAD TIMESTAMP LT PUSH2 0x2BB5 JUMPI PUSH1 0x0 PUSH1 0xC DUP5 DUP4 DUP2 MLOAD DUP2 LT PUSH2 0x2A7A JUMPI PUSH2 0x2A79 PUSH2 0x4172 JUMP JUMPDEST JUMPDEST PUSH1 0x20 MUL PUSH1 0x20 ADD ADD MLOAD PUSH1 0x40 MLOAD PUSH2 0x2A8F SWAP2 SWAP1 PUSH2 0x3EB8 JUMP JUMPDEST SWAP1 DUP2 MSTORE PUSH1 0x20 ADD PUSH1 0x40 MLOAD DUP1 SWAP2 SUB SWAP1 KECCAK256 PUSH1 0x3 ADD SLOAD PUSH1 0xC DUP6 DUP5 DUP2 MLOAD DUP2 LT PUSH2 0x2AB6 JUMPI PUSH2 0x2AB5 PUSH2 0x4172 JUMP JUMPDEST JUMPDEST PUSH1 0x20 MUL PUSH1 0x20 ADD ADD MLOAD PUSH1 0x40 MLOAD PUSH2 0x2ACB SWAP2 SWAP1 PUSH2 0x3EB8 JUMP JUMPDEST SWAP1 DUP2 MSTORE PUSH1 0x20 ADD PUSH1 0x40 MLOAD DUP1 SWAP2 SUB SWAP1 KECCAK256 PUSH1 0x4 ADD PUSH1 0x0 SWAP1 SLOAD SWAP1 PUSH2 0x100 EXP SWAP1 DIV PUSH4 0xFFFFFFFF AND PUSH4 0xFFFFFFFF AND PUSH2 0x2AFD SWAP2 SWAP1 PUSH2 0x3FFC JUMP JUMPDEST SWAP1 POP DUP1 PUSH1 0xC DUP6 DUP5 DUP2 MLOAD DUP2 LT PUSH2 0x2B15 JUMPI PUSH2 0x2B14 PUSH2 0x4172 JUMP JUMPDEST JUMPDEST PUSH1 0x20 MUL PUSH1 0x20 ADD ADD MLOAD PUSH1 0x40 MLOAD PUSH2 0x2B2A SWAP2 SWAP1 PUSH2 0x3EB8 JUMP JUMPDEST SWAP1 DUP2 MSTORE PUSH1 0x20 ADD PUSH1 0x40 MLOAD DUP1 SWAP2 SUB SWAP1 KECCAK256 PUSH1 0x4 ADD PUSH1 0x0 SWAP1 SLOAD SWAP1 PUSH2 0x100 EXP SWAP1 DIV PUSH4 0xFFFFFFFF AND PUSH4 0xFFFFFFFF AND PUSH1 0xC DUP7 DUP6 DUP2 MLOAD DUP2 LT PUSH2 0x2B67 JUMPI PUSH2 0x2B66 PUSH2 0x4172 JUMP JUMPDEST JUMPDEST PUSH1 0x20 MUL PUSH1 0x20 ADD ADD MLOAD PUSH1 0x40 MLOAD PUSH2 0x2B7C SWAP2 SWAP1 PUSH2 0x3EB8 JUMP JUMPDEST SWAP1 DUP2 MSTORE PUSH1 0x20 ADD PUSH1 0x40 MLOAD DUP1 SWAP2 SUB SWAP1 KECCAK256 PUSH1 0x5 ADD SLOAD PUSH2 0x2B98 SWAP2 SWAP1 PUSH2 0x405F JUMP JUMPDEST PUSH2 0x2BA2 SWAP2 SWAP1 PUSH2 0x4090 JUMP JUMPDEST DUP4 PUSH2 0x2BAD SWAP2 SWAP1 PUSH2 0x40D2 JUMP JUMPDEST SWAP3 POP POP PUSH2 0x2D1B JUMP JUMPDEST PUSH1 0x0 PUSH1 0xC DUP5 DUP4 DUP2 MLOAD DUP2 LT PUSH2 0x2BCC JUMPI PUSH2 0x2BCB PUSH2 0x4172 JUMP JUMPDEST JUMPDEST PUSH1 0x20 MUL PUSH1 0x20 ADD ADD MLOAD PUSH1 0x40 MLOAD PUSH2 0x2BE1 SWAP2 SWAP1 PUSH2 0x3EB8 JUMP JUMPDEST SWAP1 DUP2 MSTORE PUSH1 0x20 ADD PUSH1 0x40 MLOAD DUP1 SWAP2 SUB SWAP1 KECCAK256 PUSH1 0x3 ADD SLOAD PUSH1 0x9 PUSH1 0x0 SWAP1 SLOAD SWAP1 PUSH2 0x100 EXP SWAP1 DIV PUSH4 0xFFFFFFFF AND PUSH4 0xFFFFFFFF AND PUSH1 0xC DUP7 DUP6 DUP2 MLOAD DUP2 LT PUSH2 0x2C21 JUMPI PUSH2 0x2C20 PUSH2 0x4172 JUMP JUMPDEST JUMPDEST PUSH1 0x20 MUL PUSH1 0x20 ADD ADD MLOAD PUSH1 0x40 MLOAD PUSH2 0x2C36 SWAP2 SWAP1 PUSH2 0x3EB8 JUMP JUMPDEST SWAP1 DUP2 MSTORE PUSH1 0x20 ADD PUSH1 0x40 MLOAD DUP1 SWAP2 SUB SWAP1 KECCAK256 PUSH1 0x1 ADD SLOAD TIMESTAMP PUSH2 0x2C53 SWAP2 SWAP1 PUSH2 0x3FFC JUMP JUMPDEST PUSH2 0x2C5D SWAP2 SWAP1 PUSH2 0x405F JUMP JUMPDEST PUSH2 0x2C67 SWAP2 SWAP1 PUSH2 0x3FFC JUMP JUMPDEST SWAP1 POP DUP1 PUSH1 0xC DUP6 DUP5 DUP2 MLOAD DUP2 LT PUSH2 0x2C7F JUMPI PUSH2 0x2C7E PUSH2 0x4172 JUMP JUMPDEST JUMPDEST PUSH1 0x20 MUL PUSH1 0x20 ADD ADD MLOAD PUSH1 0x40 MLOAD PUSH2 0x2C94 SWAP2 SWAP1 PUSH2 0x3EB8 JUMP JUMPDEST SWAP1 DUP2 MSTORE PUSH1 0x20 ADD PUSH1 0x40 MLOAD DUP1 SWAP2 SUB SWAP1 KECCAK256 PUSH1 0x4 ADD PUSH1 0x0 SWAP1 SLOAD SWAP1 PUSH2 0x100 EXP SWAP1 DIV PUSH4 0xFFFFFFFF AND PUSH4 0xFFFFFFFF AND PUSH1 0xC DUP7 DUP6 DUP2 MLOAD DUP2 LT PUSH2 0x2CD1 JUMPI PUSH2 0x2CD0 PUSH2 0x4172 JUMP JUMPDEST JUMPDEST PUSH1 0x20 MUL PUSH1 0x20 ADD ADD MLOAD PUSH1 0x40 MLOAD PUSH2 0x2CE6 SWAP2 SWAP1 PUSH2 0x3EB8 JUMP JUMPDEST SWAP1 DUP2 MSTORE PUSH1 0x20 ADD PUSH1 0x40 MLOAD DUP1 SWAP2 SUB SWAP1 KECCAK256 PUSH1 0x5 ADD SLOAD PUSH2 0x2D02 SWAP2 SWAP1 PUSH2 0x405F JUMP JUMPDEST PUSH2 0x2D0C SWAP2 SWAP1 PUSH2 0x4090 JUMP JUMPDEST DUP4 PUSH2 0x2D17 SWAP2 SWAP1 PUSH2 0x40D2 JUMP JUMPDEST SWAP3 POP POP JUMPDEST JUMPDEST DUP1 DUP1 PUSH2 0x2D27 SWAP1 PUSH2 0x41A1 JUMP JUMPDEST SWAP2 POP POP PUSH2 0x29CB JUMP JUMPDEST POP DUP1 SWAP3 POP POP POP JUMPDEST SWAP1 JUMP JUMPDEST PUSH1 0x0 PUSH1 0xA PUSH1 0x0 CALLER PUSH20 0xFFFFFFFFFFFFFFFFFFFFFFFFFFFFFFFFFFFFFFFF AND PUSH20 0xFFFFFFFFFFFFFFFFFFFFFFFFFFFFFFFFFFFFFFFF AND DUP2 MSTORE PUSH1 0x20 ADD SWAP1 DUP2 MSTORE PUSH1 0x20 ADD PUSH1 0x0 KECCAK256 SLOAD GT PUSH2 0x2D85 JUMPI PUSH1 0x0 DUP1 REVERT JUMPDEST PUSH1 0x1 PUSH1 0x6 DUP3 PUSH1 0x40 MLOAD PUSH2 0x2D97 SWAP2 SWAP1 PUSH2 0x3EB8 JUMP JUMPDEST SWAP1 DUP2 MSTORE PUSH1 0x20 ADD PUSH1 0x40 MLOAD DUP1 SWAP2 SUB SWAP1 KECCAK256 PUSH1 0x0 ADD PUSH1 0x14 SWAP1 SLOAD SWAP1 PUSH2 0x100 EXP SWAP1 DIV PUSH1 0xFF AND PUSH1 0xFF AND EQ PUSH2 0x2DC3 JUMPI PUSH1 0x0 DUP1 REVERT JUMPDEST PUSH1 0x2 PUSH1 0x6 DUP3 PUSH1 0x40 MLOAD PUSH2 0x2DD5 SWAP2 SWAP1 PUSH2 0x3EB8 JUMP JUMPDEST SWAP1 DUP2 MSTORE PUSH1 0x20 ADD PUSH1 0x40 MLOAD DUP1 SWAP2 SUB SWAP1 KECCAK256 PUSH1 0x0 ADD PUSH1 0x14 PUSH2 0x100 EXP DUP2 SLOAD DUP2 PUSH1 0xFF MUL NOT AND SWAP1 DUP4 PUSH1 0xFF AND MUL OR SWAP1 SSTORE POP POP JUMP JUMPDEST PUSH1 0x0 CALLER SWAP1 POP SWAP1 JUMP JUMPDEST PUSH1 0x0 PUSH20 0xFFFFFFFFFFFFFFFFFFFFFFFFFFFFFFFFFFFFFFFF AND DUP4 PUSH20 0xFFFFFFFFFFFFFFFFFFFFFFFFFFFFFFFFFFFFFFFF AND SUB PUSH2 0x2E78 JUMPI PUSH1 0x40 MLOAD PUSH32 0x8C379A000000000000000000000000000000000000000000000000000000000 DUP2 MSTORE PUSH1 0x4 ADD PUSH2 0x2E6F SWAP1 PUSH2 0x477E JUMP JUMPDEST PUSH1 0x40 MLOAD DUP1 SWAP2 SUB SWAP1 REVERT JUMPDEST PUSH1 0x0 PUSH20 0xFFFFFFFFFFFFFFFFFFFFFFFFFFFFFFFFFFFFFFFF AND DUP3 PUSH20 0xFFFFFFFFFFFFFFFFFFFFFFFFFFFFFFFFFFFFFFFF AND SUB PUSH2 0x2EE7 JUMPI PUSH1 0x40 MLOAD PUSH32 0x8C379A000000000000000000000000000000000000000000000000000000000 DUP2 MSTORE PUSH1 0x4 ADD PUSH2 0x2EDE SWAP1 PUSH2 0x4810 JUMP JUMPDEST PUSH1 0x40 MLOAD DUP1 SWAP2 SUB SWAP1 REVERT JUMPDEST DUP1 PUSH1 0x1 PUSH1 0x0 DUP6 PUSH20 0xFFFFFFFFFFFFFFFFFFFFFFFFFFFFFFFFFFFFFFFF AND PUSH20 0xFFFFFFFFFFFFFFFFFFFFFFFFFFFFFFFFFFFFFFFF AND DUP2 MSTORE PUSH1 0x20 ADD SWAP1 DUP2 MSTORE PUSH1 0x20 ADD PUSH1 0x0 KECCAK256 PUSH1 0x0 DUP5 PUSH20 0xFFFFFFFFFFFFFFFFFFFFFFFFFFFFFFFFFFFFFFFF AND PUSH20 0xFFFFFFFFFFFFFFFFFFFFFFFFFFFFFFFFFFFFFFFF AND DUP2 MSTORE PUSH1 0x20 ADD SWAP1 DUP2 MSTORE PUSH1 0x20 ADD PUSH1 0x0 KECCAK256 DUP2 SWAP1 SSTORE POP DUP2 PUSH20 0xFFFFFFFFFFFFFFFFFFFFFFFFFFFFFFFFFFFFFFFF AND DUP4 PUSH20 0xFFFFFFFFFFFFFFFFFFFFFFFFFFFFFFFFFFFFFFFF AND PUSH32 0x8C5BE1E5EBEC7D5BD14F71427D1E84F3DD0314C0F7B2291E5B200AC8C7C3B925 DUP4 PUSH1 0x40 MLOAD PUSH2 0x2FC5 SWAP2 SWAP1 PUSH2 0x368A JUMP JUMPDEST PUSH1 0x40 MLOAD DUP1 SWAP2 SUB SWAP1 LOG3 POP POP POP JUMP JUMPDEST PUSH1 0x0 PUSH2 0x2FDE DUP5 DUP5 PUSH2 0x25DD JUMP JUMPDEST SWAP1 POP PUSH32 0xFFFFFFFFFFFFFFFFFFFFFFFFFFFFFFFFFFFFFFFFFFFFFFFFFFFFFFFFFFFFFFFF DUP2 EQ PUSH2 0x3058 JUMPI DUP2 DUP2 LT ISZERO PUSH2 0x304A JUMPI PUSH1 0x40 MLOAD PUSH32 0x8C379A000000000000000000000000000000000000000000000000000000000 DUP2 MSTORE PUSH1 0x4 ADD PUSH2 0x3041 SWAP1 PUSH2 0x487C JUMP JUMPDEST PUSH1 0x40 MLOAD DUP1 SWAP2 SUB SWAP1 REVERT JUMPDEST PUSH2 0x3057 DUP5 DUP5 DUP5 DUP5 SUB PUSH2 0x2E09 JUMP JUMPDEST JUMPDEST POP POP POP POP JUMP JUMPDEST PUSH1 0x0 PUSH20 0xFFFFFFFFFFFFFFFFFFFFFFFFFFFFFFFFFFFFFFFF AND DUP4 PUSH20 0xFFFFFFFFFFFFFFFFFFFFFFFFFFFFFFFFFFFFFFFF AND SUB PUSH2 0x30CD JUMPI PUSH1 0x40 MLOAD PUSH32 0x8C379A000000000000000000000000000000000000000000000000000000000 DUP2 MSTORE PUSH1 0x4 ADD PUSH2 0x30C4 SWAP1 PUSH2 0x490E JUMP JUMPDEST PUSH1 0x40 MLOAD DUP1 SWAP2 SUB SWAP1 REVERT JUMPDEST PUSH1 0x0 PUSH20 0xFFFFFFFFFFFFFFFFFFFFFFFFFFFFFFFFFFFFFFFF AND DUP3 PUSH20 0xFFFFFFFFFFFFFFFFFFFFFFFFFFFFFFFFFFFFFFFF AND SUB PUSH2 0x313C JUMPI PUSH1 0x40 MLOAD PUSH32 0x8C379A000000000000000000000000000000000000000000000000000000000 DUP2 MSTORE PUSH1 0x4 ADD PUSH2 0x3133 SWAP1 PUSH2 0x49A0 JUMP JUMPDEST PUSH1 0x40 MLOAD DUP1 SWAP2 SUB SWAP1 REVERT JUMPDEST PUSH2 0x3147 DUP4 DUP4 DUP4 PUSH2 0x3418 JUMP JUMPDEST PUSH1 0x0 DUP1 PUSH1 0x0 DUP6 PUSH20 0xFFFFFFFFFFFFFFFFFFFFFFFFFFFFFFFFFFFFFFFF AND PUSH20 0xFFFFFFFFFFFFFFFFFFFFFFFFFFFFFFFFFFFFFFFF AND DUP2 MSTORE PUSH1 0x20 ADD SWAP1 DUP2 MSTORE PUSH1 0x20 ADD PUSH1 0x0 KECCAK256 SLOAD SWAP1 POP DUP2 DUP2 LT ISZERO PUSH2 0x31CD JUMPI PUSH1 0x40 MLOAD PUSH32 0x8C379A000000000000000000000000000000000000000000000000000000000 DUP2 MSTORE PUSH1 0x4 ADD PUSH2 0x31C4 SWAP1 PUSH2 0x4A32 JUMP JUMPDEST PUSH1 0x40 MLOAD DUP1 SWAP2 SUB SWAP1 REVERT JUMPDEST DUP2 DUP2 SUB PUSH1 0x0 DUP1 DUP7 PUSH20 0xFFFFFFFFFFFFFFFFFFFFFFFFFFFFFFFFFFFFFFFF AND PUSH20 0xFFFFFFFFFFFFFFFFFFFFFFFFFFFFFFFFFFFFFFFF AND DUP2 MSTORE PUSH1 0x20 ADD SWAP1 DUP2 MSTORE PUSH1 0x20 ADD PUSH1 0x0 KECCAK256 DUP2 SWAP1 SSTORE POP DUP2 PUSH1 0x0 DUP1 DUP6 PUSH20 0xFFFFFFFFFFFFFFFFFFFFFFFFFFFFFFFFFFFFFFFF AND PUSH20 0xFFFFFFFFFFFFFFFFFFFFFFFFFFFFFFFFFFFFFFFF AND DUP2 MSTORE PUSH1 0x20 ADD SWAP1 DUP2 MSTORE PUSH1 0x20 ADD PUSH1 0x0 KECCAK256 PUSH1 0x0 DUP3 DUP3 SLOAD ADD SWAP3 POP POP DUP2 SWAP1 SSTORE POP DUP3 PUSH20 0xFFFFFFFFFFFFFFFFFFFFFFFFFFFFFFFFFFFFFFFF AND DUP5 PUSH20 0xFFFFFFFFFFFFFFFFFFFFFFFFFFFFFFFFFFFFFFFF AND PUSH32 0xDDF252AD1BE2C89B69C2B068FC378DAA952BA7F163C4A11628F55A4DF523B3EF DUP5 PUSH1 0x40 MLOAD PUSH2 0x32BB SWAP2 SWAP1 PUSH2 0x368A JUMP JUMPDEST PUSH1 0x40 MLOAD DUP1 SWAP2 SUB SWAP1 LOG3 PUSH2 0x32CE DUP5 DUP5 DUP5 PUSH2 0x341D JUMP JUMPDEST POP POP POP POP JUMP JUMPDEST PUSH2 0x32DC PUSH2 0x2E01 JUMP JUMPDEST PUSH20 0xFFFFFFFFFFFFFFFFFFFFFFFFFFFFFFFFFFFFFFFF AND PUSH2 0x32FA PUSH2 0x1F18 JUMP JUMPDEST PUSH20 0xFFFFFFFFFFFFFFFFFFFFFFFFFFFFFFFFFFFFFFFF AND EQ PUSH2 0x3350 JUMPI PUSH1 0x40 MLOAD PUSH32 0x8C379A000000000000000000000000000000000000000000000000000000000 DUP2 MSTORE PUSH1 0x4 ADD PUSH2 0x3347 SWAP1 PUSH2 0x4A9E JUMP JUMPDEST PUSH1 0x40 MLOAD DUP1 SWAP2 SUB SWAP1 REVERT JUMPDEST JUMP JUMPDEST PUSH1 0x0 PUSH1 0x5 PUSH1 0x0 SWAP1 SLOAD SWAP1 PUSH2 0x100 EXP SWAP1 DIV PUSH20 0xFFFFFFFFFFFFFFFFFFFFFFFFFFFFFFFFFFFFFFFF AND SWAP1 POP DUP2 PUSH1 0x5 PUSH1 0x0 PUSH2 0x100 EXP DUP2 SLOAD DUP2 PUSH20 0xFFFFFFFFFFFFFFFFFFFFFFFFFFFFFFFFFFFFFFFF MUL NOT AND SWAP1 DUP4 PUSH20 0xFFFFFFFFFFFFFFFFFFFFFFFFFFFFFFFFFFFFFFFF AND MUL OR SWAP1 SSTORE POP DUP2 PUSH20 0xFFFFFFFFFFFFFFFFFFFFFFFFFFFFFFFFFFFFFFFF AND DUP2 PUSH20 0xFFFFFFFFFFFFFFFFFFFFFFFFFFFFFFFFFFFFFFFF AND PUSH32 0x8BE0079C531659141344CD1FD0A4F28419497F9722A3DAAFE3B4186F6B6457E0 PUSH1 0x40 MLOAD PUSH1 0x40 MLOAD DUP1 SWAP2 SUB SWAP1 LOG3 POP POP JUMP JUMPDEST POP POP POP JUMP JUMPDEST POP POP POP JUMP JUMPDEST PUSH1 0x40 MLOAD DUP1 PUSH2 0x140 ADD PUSH1 0x40 MSTORE DUP1 PUSH1 0x60 DUP2 MSTORE PUSH1 0x20 ADD PUSH1 0x0 DUP2 MSTORE PUSH1 0x20 ADD PUSH1 0x0 DUP2 MSTORE PUSH1 0x20 ADD PUSH1 0x0 DUP2 MSTORE PUSH1 0x20 ADD PUSH1 0x0 PUSH4 0xFFFFFFFF AND DUP2 MSTORE PUSH1 0x20 ADD PUSH1 0x0 DUP2 MSTORE PUSH1 0x20 ADD PUSH1 0x0 ISZERO ISZERO DUP2 MSTORE PUSH1 0x20 ADD PUSH1 0x0 ISZERO ISZERO DUP2 MSTORE PUSH1 0x20 ADD PUSH1 0x0 PUSH20 0xFFFFFFFFFFFFFFFFFFFFFFFFFFFFFFFFFFFFFFFF AND DUP2 MSTORE PUSH1 0x20 ADD PUSH1 0x0 PUSH20 0xFFFFFFFFFFFFFFFFFFFFFFFFFFFFFFFFFFFFFFFF AND DUP2 MSTORE POP SWAP1 JUMP JUMPDEST PUSH1 0x0 DUP2 MLOAD SWAP1 POP SWAP2 SWAP1 POP JUMP JUMPDEST PUSH1 0x0 DUP3 DUP3 MSTORE PUSH1 0x20 DUP3 ADD SWAP1 POP SWAP3 SWAP2 POP POP JUMP JUMPDEST PUSH1 0x0 JUMPDEST DUP4 DUP2 LT ISZERO PUSH2 0x34E5 JUMPI DUP1 DUP3 ADD MLOAD DUP2 DUP5 ADD MSTORE PUSH1 0x20 DUP2 ADD SWAP1 POP PUSH2 0x34CA JUMP JUMPDEST PUSH1 0x0 DUP5 DUP5 ADD MSTORE POP POP POP POP JUMP JUMPDEST PUSH1 0x0 PUSH1 0x1F NOT PUSH1 0x1F DUP4 ADD AND SWAP1 POP SWAP2 SWAP1 POP JUMP JUMPDEST PUSH1 0x0 PUSH2 0x350D DUP3 PUSH2 0x34AB JUMP JUMPDEST PUSH2 0x3517 DUP2 DUP6 PUSH2 0x34B6 JUMP JUMPDEST SWAP4 POP PUSH2 0x3527 DUP2 DUP6 PUSH1 0x20 DUP7 ADD PUSH2 0x34C7 JUMP JUMPDEST PUSH2 0x3530 DUP2 PUSH2 0x34F1 JUMP JUMPDEST DUP5 ADD SWAP2 POP POP SWAP3 SWAP2 POP POP JUMP JUMPDEST PUSH1 0x0 PUSH1 0x20 DUP3 ADD SWAP1 POP DUP2 DUP2 SUB PUSH1 0x0 DUP4 ADD MSTORE PUSH2 0x3555 DUP2 DUP5 PUSH2 0x3502 JUMP JUMPDEST SWAP1 POP SWAP3 SWAP2 POP POP JUMP JUMPDEST PUSH1 0x0 PUSH1 0x40 MLOAD SWAP1 POP SWAP1 JUMP JUMPDEST PUSH1 0x0 DUP1 REVERT JUMPDEST PUSH1 0x0 DUP1 REVERT JUMPDEST PUSH1 0x0 PUSH20 0xFFFFFFFFFFFFFFFFFFFFFFFFFFFFFFFFFFFFFFFF DUP3 AND SWAP1 POP SWAP2 SWAP1 POP JUMP JUMPDEST PUSH1 0x0 PUSH2 0x359C DUP3 PUSH2 0x3571 JUMP JUMPDEST SWAP1 POP SWAP2 SWAP1 POP JUMP JUMPDEST PUSH2 0x35AC DUP2 PUSH2 0x3591 JUMP JUMPDEST DUP2 EQ PUSH2 0x35B7 JUMPI PUSH1 0x0 DUP1 REVERT JUMPDEST POP JUMP JUMPDEST PUSH1 0x0 DUP2 CALLDATALOAD SWAP1 POP PUSH2 0x35C9 DUP2 PUSH2 0x35A3 JUMP JUMPDEST SWAP3 SWAP2 POP POP JUMP JUMPDEST PUSH1 0x0 DUP2 SWAP1 POP SWAP2 SWAP1 POP JUMP JUMPDEST PUSH2 0x35E2 DUP2 PUSH2 0x35CF JUMP JUMPDEST DUP2 EQ PUSH2 0x35ED JUMPI PUSH1 0x0 DUP1 REVERT JUMPDEST POP JUMP JUMPDEST PUSH1 0x0 DUP2 CALLDATALOAD SWAP1 POP PUSH2 0x35FF DUP2 PUSH2 0x35D9 JUMP JUMPDEST SWAP3 SWAP2 POP POP JUMP JUMPDEST PUSH1 0x0 DUP1 PUSH1 0x40 DUP4 DUP6 SUB SLT ISZERO PUSH2 0x361C JUMPI PUSH2 0x361B PUSH2 0x3567 JUMP JUMPDEST JUMPDEST PUSH1 0x0 PUSH2 0x362A DUP6 DUP3 DUP7 ADD PUSH2 0x35BA JUMP JUMPDEST SWAP3 POP POP PUSH1 0x20 PUSH2 0x363B DUP6 DUP3 DUP7 ADD PUSH2 0x35F0 JUMP JUMPDEST SWAP2 POP POP SWAP3 POP SWAP3 SWAP1 POP JUMP JUMPDEST PUSH1 0x0 DUP2 ISZERO ISZERO SWAP1 POP SWAP2 SWAP1 POP JUMP JUMPDEST PUSH2 0x365A DUP2 PUSH2 0x3645 JUMP JUMPDEST DUP3 MSTORE POP POP JUMP JUMPDEST PUSH1 0x0 PUSH1 0x20 DUP3 ADD SWAP1 POP PUSH2 0x3675 PUSH1 0x0 DUP4 ADD DUP5 PUSH2 0x3651 JUMP JUMPDEST SWAP3 SWAP2 POP POP JUMP JUMPDEST PUSH2 0x3684 DUP2 PUSH2 0x35CF JUMP JUMPDEST DUP3 MSTORE POP POP JUMP JUMPDEST PUSH1 0x0 PUSH1 0x20 DUP3 ADD SWAP1 POP PUSH2 0x369F PUSH1 0x0 DUP4 ADD DUP5 PUSH2 0x367B JUMP JUMPDEST SWAP3 SWAP2 POP POP JUMP JUMPDEST PUSH1 0x0 PUSH1 0x20 DUP3 DUP5 SUB SLT ISZERO PUSH2 0x36BB JUMPI PUSH2 0x36BA PUSH2 0x3567 JUMP JUMPDEST JUMPDEST PUSH1 0x0 PUSH2 0x36C9 DUP5 DUP3 DUP6 ADD PUSH2 0x35BA JUMP JUMPDEST SWAP2 POP POP SWAP3 SWAP2 POP POP JUMP JUMPDEST PUSH1 0x0 DUP2 MLOAD SWAP1 POP SWAP2 SWAP1 POP JUMP JUMPDEST PUSH1 0x0 DUP3 DUP3 MSTORE PUSH1 0x20 DUP3 ADD SWAP1 POP SWAP3 SWAP2 POP POP JUMP JUMPDEST PUSH1 0x0 DUP2 SWAP1 POP PUSH1 0x20 DUP3 ADD SWAP1 POP SWAP2 SWAP1 POP JUMP JUMPDEST PUSH1 0x0 DUP3 DUP3 MSTORE PUSH1 0x20 DUP3 ADD SWAP1 POP SWAP3 SWAP2 POP POP JUMP JUMPDEST PUSH1 0x0 PUSH2 0x371A DUP3 PUSH2 0x34AB JUMP JUMPDEST PUSH2 0x3724 DUP2 DUP6 PUSH2 0x36FE JUMP JUMPDEST SWAP4 POP PUSH2 0x3734 DUP2 DUP6 PUSH1 0x20 DUP7 ADD PUSH2 0x34C7 JUMP JUMPDEST PUSH2 0x373D DUP2 PUSH2 0x34F1 JUMP JUMPDEST DUP5 ADD SWAP2 POP POP SWAP3 SWAP2 POP POP JUMP JUMPDEST PUSH1 0x0 PUSH2 0x3754 DUP4 DUP4 PUSH2 0x370F JUMP JUMPDEST SWAP1 POP SWAP3 SWAP2 POP POP JUMP JUMPDEST PUSH1 0x0 PUSH1 0x20 DUP3 ADD SWAP1 POP SWAP2 SWAP1 POP JUMP JUMPDEST PUSH1 0x0 PUSH2 0x3774 DUP3 PUSH2 0x36D2 JUMP JUMPDEST PUSH2 0x377E DUP2 DUP6 PUSH2 0x36DD JUMP JUMPDEST SWAP4 POP DUP4 PUSH1 0x20 DUP3 MUL DUP6 ADD PUSH2 0x3790 DUP6 PUSH2 0x36EE JUMP JUMPDEST DUP1 PUSH1 0x0 JUMPDEST DUP6 DUP2 LT ISZERO PUSH2 0x37CC JUMPI DUP5 DUP5 SUB DUP10 MSTORE DUP2 MLOAD PUSH2 0x37AD DUP6 DUP3 PUSH2 0x3748 JUMP JUMPDEST SWAP5 POP PUSH2 0x37B8 DUP4 PUSH2 0x375C JUMP JUMPDEST SWAP3 POP PUSH1 0x20 DUP11 ADD SWAP10 POP POP PUSH1 0x1 DUP2 ADD SWAP1 POP PUSH2 0x3794 JUMP JUMPDEST POP DUP3 SWAP8 POP DUP8 SWAP6 POP POP POP POP POP POP SWAP3 SWAP2 POP POP JUMP JUMPDEST PUSH1 0x0 PUSH1 0x20 DUP3 ADD SWAP1 POP DUP2 DUP2 SUB PUSH1 0x0 DUP4 ADD MSTORE PUSH2 0x37F8 DUP2 DUP5 PUSH2 0x3769 JUMP JUMPDEST SWAP1 POP SWAP3 SWAP2 POP POP JUMP JUMPDEST PUSH1 0x0 DUP1 PUSH1 0x0 PUSH1 0x60 DUP5 DUP7 SUB SLT ISZERO PUSH2 0x3819 JUMPI PUSH2 0x3818 PUSH2 0x3567 JUMP JUMPDEST JUMPDEST PUSH1 0x0 PUSH2 0x3827 DUP7 DUP3 DUP8 ADD PUSH2 0x35BA JUMP JUMPDEST SWAP4 POP POP PUSH1 0x20 PUSH2 0x3838 DUP7 DUP3 DUP8 ADD PUSH2 0x35BA JUMP JUMPDEST SWAP3 POP POP PUSH1 0x40 PUSH2 0x3849 DUP7 DUP3 DUP8 ADD PUSH2 0x35F0 JUMP JUMPDEST SWAP2 POP POP SWAP3 POP SWAP3 POP SWAP3 JUMP JUMPDEST PUSH1 0x0 DUP1 REVERT JUMPDEST PUSH1 0x0 DUP1 REVERT JUMPDEST PUSH32 0x4E487B7100000000000000000000000000000000000000000000000000000000 PUSH1 0x0 MSTORE PUSH1 0x41 PUSH1 0x4 MSTORE PUSH1 0x24 PUSH1 0x0 REVERT JUMPDEST PUSH2 0x3895 DUP3 PUSH2 0x34F1 JUMP JUMPDEST DUP2 ADD DUP2 DUP2 LT PUSH8 0xFFFFFFFFFFFFFFFF DUP3 GT OR ISZERO PUSH2 0x38B4 JUMPI PUSH2 0x38B3 PUSH2 0x385D JUMP JUMPDEST JUMPDEST DUP1 PUSH1 0x40 MSTORE POP POP POP JUMP JUMPDEST PUSH1 0x0 PUSH2 0x38C7 PUSH2 0x355D JUMP JUMPDEST SWAP1 POP PUSH2 0x38D3 DUP3 DUP3 PUSH2 0x388C JUMP JUMPDEST SWAP2 SWAP1 POP JUMP JUMPDEST PUSH1 0x0 PUSH8 0xFFFFFFFFFFFFFFFF DUP3 GT ISZERO PUSH2 0x38F3 JUMPI PUSH2 0x38F2 PUSH2 0x385D JUMP JUMPDEST JUMPDEST PUSH2 0x38FC DUP3 PUSH2 0x34F1 JUMP JUMPDEST SWAP1 POP PUSH1 0x20 DUP2 ADD SWAP1 POP SWAP2 SWAP1 POP JUMP JUMPDEST DUP3 DUP2 DUP4 CALLDATACOPY PUSH1 0x0 DUP4 DUP4 ADD MSTORE POP POP POP JUMP JUMPDEST PUSH1 0x0 PUSH2 0x392B PUSH2 0x3926 DUP5 PUSH2 0x38D8 JUMP JUMPDEST PUSH2 0x38BD JUMP JUMPDEST SWAP1 POP DUP3 DUP2 MSTORE PUSH1 0x20 DUP2 ADD DUP5 DUP5 DUP5 ADD GT ISZERO PUSH2 0x3947 JUMPI PUSH2 0x3946 PUSH2 0x3858 JUMP JUMPDEST JUMPDEST PUSH2 0x3952 DUP5 DUP3 DUP6 PUSH2 0x3909 JUMP JUMPDEST POP SWAP4 SWAP3 POP POP POP JUMP JUMPDEST PUSH1 0x0 DUP3 PUSH1 0x1F DUP4 ADD SLT PUSH2 0x396F JUMPI PUSH2 0x396E PUSH2 0x3853 JUMP JUMPDEST JUMPDEST DUP2 CALLDATALOAD PUSH2 0x397F DUP5 DUP3 PUSH1 0x20 DUP7 ADD PUSH2 0x3918 JUMP JUMPDEST SWAP2 POP POP SWAP3 SWAP2 POP POP JUMP JUMPDEST PUSH1 0x0 PUSH1 0x20 DUP3 DUP5 SUB SLT ISZERO PUSH2 0x399E JUMPI PUSH2 0x399D PUSH2 0x3567 JUMP JUMPDEST JUMPDEST PUSH1 0x0 DUP3 ADD CALLDATALOAD PUSH8 0xFFFFFFFFFFFFFFFF DUP2 GT ISZERO PUSH2 0x39BC JUMPI PUSH2 0x39BB PUSH2 0x356C JUMP JUMPDEST JUMPDEST PUSH2 0x39C8 DUP5 DUP3 DUP6 ADD PUSH2 0x395A JUMP JUMPDEST SWAP2 POP POP SWAP3 SWAP2 POP POP JUMP JUMPDEST PUSH1 0x0 PUSH1 0xFF DUP3 AND SWAP1 POP SWAP2 SWAP1 POP JUMP JUMPDEST PUSH2 0x39E7 DUP2 PUSH2 0x39D1 JUMP JUMPDEST DUP3 MSTORE POP POP JUMP JUMPDEST PUSH1 0x0 PUSH1 0x20 DUP3 ADD SWAP1 POP PUSH2 0x3A02 PUSH1 0x0 DUP4 ADD DUP5 PUSH2 0x39DE JUMP JUMPDEST SWAP3 SWAP2 POP POP JUMP JUMPDEST PUSH1 0x0 PUSH4 0xFFFFFFFF DUP3 AND SWAP1 POP SWAP2 SWAP1 POP JUMP JUMPDEST PUSH2 0x3A21 DUP2 PUSH2 0x3A08 JUMP JUMPDEST DUP2 EQ PUSH2 0x3A2C JUMPI PUSH1 0x0 DUP1 REVERT JUMPDEST POP JUMP JUMPDEST PUSH1 0x0 DUP2 CALLDATALOAD SWAP1 POP PUSH2 0x3A3E DUP2 PUSH2 0x3A18 JUMP JUMPDEST SWAP3 SWAP2 POP POP JUMP JUMPDEST PUSH1 0x0 DUP1 PUSH1 0x0 DUP1 PUSH1 0x0 PUSH1 0xA0 DUP7 DUP9 SUB SLT ISZERO PUSH2 0x3A60 JUMPI PUSH2 0x3A5F PUSH2 0x3567 JUMP JUMPDEST JUMPDEST PUSH1 0x0 DUP7 ADD CALLDATALOAD PUSH8 0xFFFFFFFFFFFFFFFF DUP2 GT ISZERO PUSH2 0x3A7E JUMPI PUSH2 0x3A7D PUSH2 0x356C JUMP JUMPDEST JUMPDEST PUSH2 0x3A8A DUP9 DUP3 DUP10 ADD PUSH2 0x395A JUMP JUMPDEST SWAP6 POP POP PUSH1 0x20 PUSH2 0x3A9B DUP9 DUP3 DUP10 ADD PUSH2 0x3A2F JUMP JUMPDEST SWAP5 POP POP PUSH1 0x40 DUP7 ADD CALLDATALOAD PUSH8 0xFFFFFFFFFFFFFFFF DUP2 GT ISZERO PUSH2 0x3ABC JUMPI PUSH2 0x3ABB PUSH2 0x356C JUMP JUMPDEST JUMPDEST PUSH2 0x3AC8 DUP9 DUP3 DUP10 ADD PUSH2 0x395A JUMP JUMPDEST SWAP4 POP POP PUSH1 0x60 PUSH2 0x3AD9 DUP9 DUP3 DUP10 ADD PUSH2 0x35F0 JUMP JUMPDEST SWAP3 POP POP PUSH1 0x80 PUSH2 0x3AEA DUP9 DUP3 DUP10 ADD PUSH2 0x35BA JUMP JUMPDEST SWAP2 POP POP SWAP3 SWAP6 POP SWAP3 SWAP6 SWAP1 SWAP4 POP JUMP JUMPDEST PUSH2 0x3B00 DUP2 PUSH2 0x39D1 JUMP JUMPDEST DUP2 EQ PUSH2 0x3B0B JUMPI PUSH1 0x0 DUP1 REVERT JUMPDEST POP JUMP JUMPDEST PUSH1 0x0 DUP2 CALLDATALOAD SWAP1 POP PUSH2 0x3B1D DUP2 PUSH2 0x3AF7 JUMP JUMPDEST SWAP3 SWAP2 POP POP JUMP JUMPDEST PUSH1 0x0 DUP1 PUSH1 0x0 PUSH1 0x60 DUP5 DUP7 SUB SLT ISZERO PUSH2 0x3B3C JUMPI PUSH2 0x3B3B PUSH2 0x3567 JUMP JUMPDEST JUMPDEST PUSH1 0x0 PUSH2 0x3B4A DUP7 DUP3 DUP8 ADD PUSH2 0x3B0E JUMP JUMPDEST SWAP4 POP POP PUSH1 0x20 PUSH2 0x3B5B DUP7 DUP3 DUP8 ADD PUSH2 0x35BA JUMP JUMPDEST SWAP3 POP POP PUSH1 0x40 PUSH2 0x3B6C DUP7 DUP3 DUP8 ADD PUSH2 0x35F0 JUMP JUMPDEST SWAP2 POP POP SWAP3 POP SWAP3 POP SWAP3 JUMP JUMPDEST PUSH1 0x0 PUSH1 0x20 DUP3 DUP5 SUB SLT ISZERO PUSH2 0x3B8C JUMPI PUSH2 0x3B8B PUSH2 0x3567 JUMP JUMPDEST JUMPDEST PUSH1 0x0 PUSH2 0x3B9A DUP5 DUP3 DUP6 ADD PUSH2 0x3B0E JUMP JUMPDEST SWAP2 POP POP SWAP3 SWAP2 POP POP JUMP JUMPDEST PUSH1 0x0 PUSH1 0x40 DUP3 ADD SWAP1 POP PUSH2 0x3BB8 PUSH1 0x0 DUP4 ADD DUP6 PUSH2 0x3651 JUMP JUMPDEST PUSH2 0x3BC5 PUSH1 0x20 DUP4 ADD DUP5 PUSH2 0x3651 JUMP JUMPDEST SWAP4 SWAP3 POP POP POP JUMP JUMPDEST PUSH2 0x3BD5 DUP2 PUSH2 0x35CF JUMP JUMPDEST DUP3 MSTORE POP POP JUMP JUMPDEST PUSH2 0x3BE4 DUP2 PUSH2 0x3A08 JUMP JUMPDEST DUP3 MSTORE POP POP JUMP JUMPDEST PUSH2 0x3BF3 DUP2 PUSH2 0x3645 JUMP JUMPDEST DUP3 MSTORE POP POP JUMP JUMPDEST PUSH2 0x3C02 DUP2 PUSH2 0x3591 JUMP JUMPDEST DUP3 MSTORE POP POP JUMP JUMPDEST PUSH1 0x0 PUSH2 0x140 DUP4 ADD PUSH1 0x0 DUP4 ADD MLOAD DUP5 DUP3 SUB PUSH1 0x0 DUP7 ADD MSTORE PUSH2 0x3C26 DUP3 DUP3 PUSH2 0x370F JUMP JUMPDEST SWAP2 POP POP PUSH1 0x20 DUP4 ADD MLOAD PUSH2 0x3C3B PUSH1 0x20 DUP7 ADD DUP3 PUSH2 0x3BCC JUMP JUMPDEST POP PUSH1 0x40 DUP4 ADD MLOAD PUSH2 0x3C4E PUSH1 0x40 DUP7 ADD DUP3 PUSH2 0x3BCC JUMP JUMPDEST POP PUSH1 0x60 DUP4 ADD MLOAD PUSH2 0x3C61 PUSH1 0x60 DUP7 ADD DUP3 PUSH2 0x3BCC JUMP JUMPDEST POP PUSH1 0x80 DUP4 ADD MLOAD PUSH2 0x3C74 PUSH1 0x80 DUP7 ADD DUP3 PUSH2 0x3BDB JUMP JUMPDEST POP PUSH1 0xA0 DUP4 ADD MLOAD PUSH2 0x3C87 PUSH1 0xA0 DUP7 ADD DUP3 PUSH2 0x3BCC JUMP JUMPDEST POP PUSH1 0xC0 DUP4 ADD MLOAD PUSH2 0x3C9A PUSH1 0xC0 DUP7 ADD DUP3 PUSH2 0x3BEA JUMP JUMPDEST POP PUSH1 0xE0 DUP4 ADD MLOAD PUSH2 0x3CAD PUSH1 0xE0 DUP7 ADD DUP3 PUSH2 0x3BEA JUMP JUMPDEST POP PUSH2 0x100 DUP4 ADD MLOAD PUSH2 0x3CC2 PUSH2 0x100 DUP7 ADD DUP3 PUSH2 0x3BF9 JUMP JUMPDEST POP PUSH2 0x120 DUP4 ADD MLOAD PUSH2 0x3CD7 PUSH2 0x120 DUP7 ADD DUP3 PUSH2 0x3BF9 JUMP JUMPDEST POP DUP1 SWAP2 POP POP SWAP3 SWAP2 POP POP JUMP JUMPDEST PUSH1 0x0 PUSH1 0x20 DUP3 ADD SWAP1 POP DUP2 DUP2 SUB PUSH1 0x0 DUP4 ADD MSTORE PUSH2 0x3CFC DUP2 DUP5 PUSH2 0x3C08 JUMP JUMPDEST SWAP1 POP SWAP3 SWAP2 POP POP JUMP JUMPDEST PUSH1 0x0 DUP1 PUSH1 0x40 DUP4 DUP6 SUB SLT ISZERO PUSH2 0x3D1B JUMPI PUSH2 0x3D1A PUSH2 0x3567 JUMP JUMPDEST JUMPDEST PUSH1 0x0 DUP4 ADD CALLDATALOAD PUSH8 0xFFFFFFFFFFFFFFFF DUP2 GT ISZERO PUSH2 0x3D39 JUMPI PUSH2 0x3D38 PUSH2 0x356C JUMP JUMPDEST JUMPDEST PUSH2 0x3D45 DUP6 DUP3 DUP7 ADD PUSH2 0x395A JUMP JUMPDEST SWAP3 POP POP PUSH1 0x20 PUSH2 0x3D56 DUP6 DUP3 DUP7 ADD PUSH2 0x35BA JUMP JUMPDEST SWAP2 POP POP SWAP3 POP SWAP3 SWAP1 POP JUMP JUMPDEST PUSH2 0x3D69 DUP2 PUSH2 0x3591 JUMP JUMPDEST DUP3 MSTORE POP POP JUMP JUMPDEST PUSH1 0x0 PUSH1 0x20 DUP3 ADD SWAP1 POP PUSH2 0x3D84 PUSH1 0x0 DUP4 ADD DUP5 PUSH2 0x3D60 JUMP JUMPDEST SWAP3 SWAP2 POP POP JUMP JUMPDEST PUSH1 0x0 PUSH1 0x40 DUP3 ADD SWAP1 POP PUSH2 0x3D9F PUSH1 0x0 DUP4 ADD DUP6 PUSH2 0x3D60 JUMP JUMPDEST PUSH2 0x3DAC PUSH1 0x20 DUP4 ADD DUP5 PUSH2 0x39DE JUMP JUMPDEST SWAP4 SWAP3 POP POP POP JUMP JUMPDEST PUSH1 0x0 DUP1 PUSH1 0x40 DUP4 DUP6 SUB SLT ISZERO PUSH2 0x3DCA JUMPI PUSH2 0x3DC9 PUSH2 0x3567 JUMP JUMPDEST JUMPDEST PUSH1 0x0 PUSH2 0x3DD8 DUP6 DUP3 DUP7 ADD PUSH2 0x35BA JUMP JUMPDEST SWAP3 POP POP PUSH1 0x20 PUSH2 0x3DE9 DUP6 DUP3 DUP7 ADD PUSH2 0x35BA JUMP JUMPDEST SWAP2 POP POP SWAP3 POP SWAP3 SWAP1 POP JUMP JUMPDEST PUSH1 0x0 PUSH1 0x40 DUP3 ADD SWAP1 POP PUSH2 0x3E08 PUSH1 0x0 DUP4 ADD DUP6 PUSH2 0x367B JUMP JUMPDEST PUSH2 0x3E15 PUSH1 0x20 DUP4 ADD DUP5 PUSH2 0x367B JUMP JUMPDEST SWAP4 SWAP3 POP POP POP JUMP JUMPDEST PUSH32 0x4E487B7100000000000000000000000000000000000000000000000000000000 PUSH1 0x0 MSTORE PUSH1 0x22 PUSH1 0x4 MSTORE PUSH1 0x24 PUSH1 0x0 REVERT JUMPDEST PUSH1 0x0 PUSH1 0x2 DUP3 DIV SWAP1 POP PUSH1 0x1 DUP3 AND DUP1 PUSH2 0x3E63 JUMPI PUSH1 0x7F DUP3 AND SWAP2 POP JUMPDEST PUSH1 0x20 DUP3 LT DUP2 SUB PUSH2 0x3E76 JUMPI PUSH2 0x3E75 PUSH2 0x3E1C JUMP JUMPDEST JUMPDEST POP SWAP2 SWAP1 POP JUMP JUMPDEST PUSH1 0x0 DUP2 SWAP1 POP SWAP3 SWAP2 POP POP JUMP JUMPDEST PUSH1 0x0 PUSH2 0x3E92 DUP3 PUSH2 0x34AB JUMP JUMPDEST PUSH2 0x3E9C DUP2 DUP6 PUSH2 0x3E7C JUMP JUMPDEST SWAP4 POP PUSH2 0x3EAC DUP2 DUP6 PUSH1 0x20 DUP7 ADD PUSH2 0x34C7 JUMP JUMPDEST DUP1 DUP5 ADD SWAP2 POP POP SWAP3 SWAP2 POP POP JUMP JUMPDEST PUSH1 0x0 PUSH2 0x3EC4 DUP3 DUP5 PUSH2 0x3E87 JUMP JUMPDEST SWAP2 POP DUP2 SWAP1 POP SWAP3 SWAP2 POP POP JUMP JUMPDEST PUSH32 0x546865206F7264657220686173206265656E2077697468647261776E00000000 PUSH1 0x0 DUP3 ADD MSTORE POP JUMP JUMPDEST PUSH1 0x0 PUSH2 0x3F05 PUSH1 0x1C DUP4 PUSH2 0x34B6 JUMP JUMPDEST SWAP2 POP PUSH2 0x3F10 DUP3 PUSH2 0x3ECF JUMP JUMPDEST PUSH1 0x20 DUP3 ADD SWAP1 POP SWAP2 SWAP1 POP JUMP JUMPDEST PUSH1 0x0 PUSH1 0x20 DUP3 ADD SWAP1 POP DUP2 DUP2 SUB PUSH1 0x0 DUP4 ADD MSTORE PUSH2 0x3F34 DUP2 PUSH2 0x3EF8 JUMP JUMPDEST SWAP1 POP SWAP2 SWAP1 POP JUMP JUMPDEST PUSH32 0x506C6561736520636F6E6669726D207468652077616C6C657420616464726573 PUSH1 0x0 DUP3 ADD MSTORE PUSH32 0x732C2043616E206E6F7420776974686472617700000000000000000000000000 PUSH1 0x20 DUP3 ADD MSTORE POP JUMP JUMPDEST PUSH1 0x0 PUSH2 0x3F97 PUSH1 0x33 DUP4 PUSH2 0x34B6 JUMP JUMPDEST SWAP2 POP PUSH2 0x3FA2 DUP3 PUSH2 0x3F3B JUMP JUMPDEST PUSH1 0x40 DUP3 ADD SWAP1 POP SWAP2 SWAP1 POP JUMP JUMPDEST PUSH1 0x0 PUSH1 0x20 DUP3 ADD SWAP1 POP DUP2 DUP2 SUB PUSH1 0x0 DUP4 ADD MSTORE PUSH2 0x3FC6 DUP2 PUSH2 0x3F8A JUMP JUMPDEST SWAP1 POP SWAP2 SWAP1 POP JUMP JUMPDEST PUSH32 0x4E487B7100000000000000000000000000000000000000000000000000000000 PUSH1 0x0 MSTORE PUSH1 0x11 PUSH1 0x4 MSTORE PUSH1 0x24 PUSH1 0x0 REVERT JUMPDEST PUSH1 0x0 PUSH2 0x4007 DUP3 PUSH2 0x35CF JUMP JUMPDEST SWAP2 POP PUSH2 0x4012 DUP4 PUSH2 0x35CF JUMP JUMPDEST SWAP3 POP DUP3 DUP3 SUB SWAP1 POP DUP2 DUP2 GT ISZERO PUSH2 0x402A JUMPI PUSH2 0x4029 PUSH2 0x3FCD JUMP JUMPDEST JUMPDEST SWAP3 SWAP2 POP POP JUMP JUMPDEST PUSH32 0x4E487B7100000000000000000000000000000000000000000000000000000000 PUSH1 0x0 MSTORE PUSH1 0x12 PUSH1 0x4 MSTORE PUSH1 0x24 PUSH1 0x0 REVERT JUMPDEST PUSH1 0x0 PUSH2 0x406A DUP3 PUSH2 0x35CF JUMP JUMPDEST SWAP2 POP PUSH2 0x4075 DUP4 PUSH2 0x35CF JUMP JUMPDEST SWAP3 POP DUP3 PUSH2 0x4085 JUMPI PUSH2 0x4084 PUSH2 0x4030 JUMP JUMPDEST JUMPDEST DUP3 DUP3 DIV SWAP1 POP SWAP3 SWAP2 POP POP JUMP JUMPDEST PUSH1 0x0 PUSH2 0x409B DUP3 PUSH2 0x35CF JUMP JUMPDEST SWAP2 POP PUSH2 0x40A6 DUP4 PUSH2 0x35CF JUMP JUMPDEST SWAP3 POP DUP3 DUP3 MUL PUSH2 0x40B4 DUP2 PUSH2 0x35CF JUMP JUMPDEST SWAP2 POP DUP3 DUP3 DIV DUP5 EQ DUP4 ISZERO OR PUSH2 0x40CB JUMPI PUSH2 0x40CA PUSH2 0x3FCD JUMP JUMPDEST JUMPDEST POP SWAP3 SWAP2 POP POP JUMP JUMPDEST PUSH1 0x0 PUSH2 0x40DD DUP3 PUSH2 0x35CF JUMP JUMPDEST SWAP2 POP PUSH2 0x40E8 DUP4 PUSH2 0x35CF JUMP JUMPDEST SWAP3 POP DUP3 DUP3 ADD SWAP1 POP DUP1 DUP3 GT ISZERO PUSH2 0x4100 JUMPI PUSH2 0x40FF PUSH2 0x3FCD JUMP JUMPDEST JUMPDEST SWAP3 SWAP2 POP POP JUMP JUMPDEST PUSH32 0x4E6F74206465706F736974730000000000000000000000000000000000000000 PUSH1 0x0 DUP3 ADD MSTORE POP JUMP JUMPDEST PUSH1 0x0 PUSH2 0x413C PUSH1 0xC DUP4 PUSH2 0x34B6 JUMP JUMPDEST SWAP2 POP PUSH2 0x4147 DUP3 PUSH2 0x4106 JUMP JUMPDEST PUSH1 0x20 DUP3 ADD SWAP1 POP SWAP2 SWAP1 POP JUMP JUMPDEST PUSH1 0x0 PUSH1 0x20 DUP3 ADD SWAP1 POP DUP2 DUP2 SUB PUSH1 0x0 DUP4 ADD MSTORE PUSH2 0x416B DUP2 PUSH2 0x412F JUMP JUMPDEST SWAP1 POP SWAP2 SWAP1 POP JUMP JUMPDEST PUSH32 0x4E487B7100000000000000000000000000000000000000000000000000000000 PUSH1 0x0 MSTORE PUSH1 0x32 PUSH1 0x4 MSTORE PUSH1 0x24 PUSH1 0x0 REVERT JUMPDEST PUSH1 0x0 PUSH2 0x41AC DUP3 PUSH2 0x35CF JUMP JUMPDEST SWAP2 POP PUSH32 0xFFFFFFFFFFFFFFFFFFFFFFFFFFFFFFFFFFFFFFFFFFFFFFFFFFFFFFFFFFFFFFFF DUP3 SUB PUSH2 0x41DE JUMPI PUSH2 0x41DD PUSH2 0x3FCD JUMP JUMPDEST JUMPDEST PUSH1 0x1 DUP3 ADD SWAP1 POP SWAP2 SWAP1 POP JUMP JUMPDEST PUSH32 0x416C726561647920706169640000000000000000000000000000000000000000 PUSH1 0x0 DUP3 ADD MSTORE POP JUMP JUMPDEST PUSH1 0x0 PUSH2 0x421F PUSH1 0xC DUP4 PUSH2 0x34B6 JUMP JUMPDEST SWAP2 POP PUSH2 0x422A DUP3 PUSH2 0x41E9 JUMP JUMPDEST PUSH1 0x20 DUP3 ADD SWAP1 POP SWAP2 SWAP1 POP JUMP JUMPDEST PUSH1 0x0 PUSH1 0x20 DUP3 ADD SWAP1 POP DUP2 DUP2 SUB PUSH1 0x0 DUP4 ADD MSTORE PUSH2 0x424E DUP2 PUSH2 0x4212 JUMP JUMPDEST SWAP1 POP SWAP2 SWAP1 POP JUMP JUMPDEST PUSH32 0x4E6F7420656E6F75676820435344000000000000000000000000000000000000 PUSH1 0x0 DUP3 ADD MSTORE POP JUMP JUMPDEST PUSH1 0x0 PUSH2 0x428B PUSH1 0xE DUP4 PUSH2 0x34B6 JUMP JUMPDEST SWAP2 POP PUSH2 0x4296 DUP3 PUSH2 0x4255 JUMP JUMPDEST PUSH1 0x20 DUP3 ADD SWAP1 POP SWAP2 SWAP1 POP JUMP JUMPDEST PUSH1 0x0 PUSH1 0x20 DUP3 ADD SWAP1 POP DUP2 DUP2 SUB PUSH1 0x0 DUP4 ADD MSTORE PUSH2 0x42BA DUP2 PUSH2 0x427E JUMP JUMPDEST SWAP1 POP SWAP2 SWAP1 POP JUMP JUMPDEST PUSH1 0x0 PUSH2 0x42CC DUP3 PUSH2 0x3A08 JUMP JUMPDEST SWAP2 POP PUSH2 0x42D7 DUP4 PUSH2 0x3A08 JUMP JUMPDEST SWAP3 POP DUP3 DUP3 MUL PUSH2 0x42E5 DUP2 PUSH2 0x3A08 JUMP JUMPDEST SWAP2 POP DUP1 DUP3 EQ PUSH2 0x42F7 JUMPI PUSH2 0x42F6 PUSH2 0x3FCD JUMP JUMPDEST JUMPDEST POP SWAP3 SWAP2 POP POP JUMP JUMPDEST PUSH1 0x0 DUP2 SWAP1 POP DUP2 PUSH1 0x0 MSTORE PUSH1 0x20 PUSH1 0x0 KECCAK256 SWAP1 POP SWAP2 SWAP1 POP JUMP JUMPDEST PUSH1 0x0 PUSH1 0x20 PUSH1 0x1F DUP4 ADD DIV SWAP1 POP SWAP2 SWAP1 POP JUMP JUMPDEST PUSH1 0x0 DUP3 DUP3 SHL SWAP1 POP SWAP3 SWAP2 POP POP JUMP JUMPDEST PUSH1 0x0 PUSH1 0x8 DUP4 MUL PUSH2 0x4360 PUSH32 0xFFFFFFFFFFFFFFFFFFFFFFFFFFFFFFFFFFFFFFFFFFFFFFFFFFFFFFFFFFFFFFFF DUP3 PUSH2 0x4323 JUMP JUMPDEST PUSH2 0x436A DUP7 DUP4 PUSH2 0x4323 JUMP JUMPDEST SWAP6 POP DUP1 NOT DUP5 AND SWAP4 POP DUP1 DUP7 AND DUP5 OR SWAP3 POP POP POP SWAP4 SWAP3 POP POP POP JUMP JUMPDEST PUSH1 0x0 DUP2 SWAP1 POP SWAP2 SWAP1 POP JUMP JUMPDEST PUSH1 0x0 PUSH2 0x43A7 PUSH2 0x43A2 PUSH2 0x439D DUP5 PUSH2 0x35CF JUMP JUMPDEST PUSH2 0x4382 JUMP JUMPDEST PUSH2 0x35CF JUMP JUMPDEST SWAP1 POP SWAP2 SWAP1 POP JUMP JUMPDEST PUSH1 0x0 DUP2 SWAP1 POP SWAP2 SWAP1 POP JUMP JUMPDEST PUSH2 0x43C1 DUP4 PUSH2 0x438C JUMP JUMPDEST PUSH2 0x43D5 PUSH2 0x43CD DUP3 PUSH2 0x43AE JUMP JUMPDEST DUP5 DUP5 SLOAD PUSH2 0x4330 JUMP JUMPDEST DUP3 SSTORE POP POP POP POP JUMP JUMPDEST PUSH1 0x0 SWAP1 JUMP JUMPDEST PUSH2 0x43EA PUSH2 0x43DD JUMP JUMPDEST PUSH2 0x43F5 DUP2 DUP5 DUP5 PUSH2 0x43B8 JUMP JUMPDEST POP POP POP JUMP JUMPDEST JUMPDEST DUP2 DUP2 LT ISZERO PUSH2 0x4419 JUMPI PUSH2 0x440E PUSH1 0x0 DUP3 PUSH2 0x43E2 JUMP JUMPDEST PUSH1 0x1 DUP2 ADD SWAP1 POP PUSH2 0x43FB JUMP JUMPDEST POP POP JUMP JUMPDEST PUSH1 0x1F DUP3 GT ISZERO PUSH2 0x445E JUMPI PUSH2 0x442F DUP2 PUSH2 0x42FE JUMP JUMPDEST PUSH2 0x4438 DUP5 PUSH2 0x4313 JUMP JUMPDEST DUP2 ADD PUSH1 0x20 DUP6 LT ISZERO PUSH2 0x4447 JUMPI DUP2 SWAP1 POP JUMPDEST PUSH2 0x445B PUSH2 0x4453 DUP6 PUSH2 0x4313 JUMP JUMPDEST DUP4 ADD DUP3 PUSH2 0x43FA JUMP JUMPDEST POP POP JUMPDEST POP POP POP JUMP JUMPDEST PUSH1 0x0 DUP3 DUP3 SHR SWAP1 POP SWAP3 SWAP2 POP POP JUMP JUMPDEST PUSH1 0x0 PUSH2 0x4481 PUSH1 0x0 NOT DUP5 PUSH1 0x8 MUL PUSH2 0x4463 JUMP JUMPDEST NOT DUP1 DUP4 AND SWAP2 POP POP SWAP3 SWAP2 POP POP JUMP JUMPDEST PUSH1 0x0 PUSH2 0x449A DUP4 DUP4 PUSH2 0x4470 JUMP JUMPDEST SWAP2 POP DUP3 PUSH1 0x2 MUL DUP3 OR SWAP1 POP SWAP3 SWAP2 POP POP JUMP JUMPDEST PUSH2 0x44B3 DUP3 PUSH2 0x34AB JUMP JUMPDEST PUSH8 0xFFFFFFFFFFFFFFFF DUP2 GT ISZERO PUSH2 0x44CC JUMPI PUSH2 0x44CB PUSH2 0x385D JUMP JUMPDEST JUMPDEST PUSH2 0x44D6 DUP3 SLOAD PUSH2 0x3E4B JUMP JUMPDEST PUSH2 0x44E1 DUP3 DUP3 DUP6 PUSH2 0x441D JUMP JUMPDEST PUSH1 0x0 PUSH1 0x20 SWAP1 POP PUSH1 0x1F DUP4 GT PUSH1 0x1 DUP2 EQ PUSH2 0x4514 JUMPI PUSH1 0x0 DUP5 ISZERO PUSH2 0x4502 JUMPI DUP3 DUP8 ADD MLOAD SWAP1 POP JUMPDEST PUSH2 0x450C DUP6 DUP3 PUSH2 0x448E JUMP JUMPDEST DUP7 SSTORE POP PUSH2 0x4574 JUMP JUMPDEST PUSH1 0x1F NOT DUP5 AND PUSH2 0x4522 DUP7 PUSH2 0x42FE JUMP JUMPDEST PUSH1 0x0 JUMPDEST DUP3 DUP2 LT ISZERO PUSH2 0x454A JUMPI DUP5 DUP10 ADD MLOAD DUP3 SSTORE PUSH1 0x1 DUP3 ADD SWAP2 POP PUSH1 0x20 DUP6 ADD SWAP5 POP PUSH1 0x20 DUP2 ADD SWAP1 POP PUSH2 0x4525 JUMP JUMPDEST DUP7 DUP4 LT ISZERO PUSH2 0x4567 JUMPI DUP5 DUP10 ADD MLOAD PUSH2 0x4563 PUSH1 0x1F DUP10 AND DUP3 PUSH2 0x4470 JUMP JUMPDEST DUP4 SSTORE POP JUMPDEST PUSH1 0x1 PUSH1 0x2 DUP9 MUL ADD DUP9 SSTORE POP POP POP JUMPDEST POP POP POP POP POP POP JUMP JUMPDEST PUSH32 0x416C7265616479207374616B6564000000000000000000000000000000000000 PUSH1 0x0 DUP3 ADD MSTORE POP JUMP JUMPDEST PUSH1 0x0 PUSH2 0x45B2 PUSH1 0xE DUP4 PUSH2 0x34B6 JUMP JUMPDEST SWAP2 POP PUSH2 0x45BD DUP3 PUSH2 0x457C JUMP JUMPDEST PUSH1 0x20 DUP3 ADD SWAP1 POP SWAP2 SWAP1 POP JUMP JUMPDEST PUSH1 0x0 PUSH1 0x20 DUP3 ADD SWAP1 POP DUP2 DUP2 SUB PUSH1 0x0 DUP4 ADD MSTORE PUSH2 0x45E1 DUP2 PUSH2 0x45A5 JUMP JUMPDEST SWAP1 POP SWAP2 SWAP1 POP JUMP JUMPDEST PUSH32 0x45524332303A2064656372656173656420616C6C6F77616E63652062656C6F77 PUSH1 0x0 DUP3 ADD MSTORE PUSH32 0x207A65726F000000000000000000000000000000000000000000000000000000 PUSH1 0x20 DUP3 ADD MSTORE POP JUMP JUMPDEST PUSH1 0x0 PUSH2 0x4644 PUSH1 0x25 DUP4 PUSH2 0x34B6 JUMP JUMPDEST SWAP2 POP PUSH2 0x464F DUP3 PUSH2 0x45E8 JUMP JUMPDEST PUSH1 0x40 DUP3 ADD SWAP1 POP SWAP2 SWAP1 POP JUMP JUMPDEST PUSH1 0x0 PUSH1 0x20 DUP3 ADD SWAP1 POP DUP2 DUP2 SUB PUSH1 0x0 DUP4 ADD MSTORE PUSH2 0x4673 DUP2 PUSH2 0x4637 JUMP JUMPDEST SWAP1 POP SWAP2 SWAP1 POP JUMP JUMPDEST PUSH32 0x4F776E61626C653A206E6577206F776E657220697320746865207A65726F2061 PUSH1 0x0 DUP3 ADD MSTORE PUSH32 0x6464726573730000000000000000000000000000000000000000000000000000 PUSH1 0x20 DUP3 ADD MSTORE POP JUMP JUMPDEST PUSH1 0x0 PUSH2 0x46D6 PUSH1 0x26 DUP4 PUSH2 0x34B6 JUMP JUMPDEST SWAP2 POP PUSH2 0x46E1 DUP3 PUSH2 0x467A JUMP JUMPDEST PUSH1 0x40 DUP3 ADD SWAP1 POP SWAP2 SWAP1 POP JUMP JUMPDEST PUSH1 0x0 PUSH1 0x20 DUP3 ADD SWAP1 POP DUP2 DUP2 SUB PUSH1 0x0 DUP4 ADD MSTORE PUSH2 0x4705 DUP2 PUSH2 0x46C9 JUMP JUMPDEST SWAP1 POP SWAP2 SWAP1 POP JUMP JUMPDEST PUSH32 0x45524332303A20617070726F76652066726F6D20746865207A65726F20616464 PUSH1 0x0 DUP3 ADD MSTORE PUSH32 0x7265737300000000000000000000000000000000000000000000000000000000 PUSH1 0x20 DUP3 ADD MSTORE POP JUMP JUMPDEST PUSH1 0x0 PUSH2 0x4768 PUSH1 0x24 DUP4 PUSH2 0x34B6 JUMP JUMPDEST SWAP2 POP PUSH2 0x4773 DUP3 PUSH2 0x470C JUMP JUMPDEST PUSH1 0x40 DUP3 ADD SWAP1 POP SWAP2 SWAP1 POP JUMP JUMPDEST PUSH1 0x0 PUSH1 0x20 DUP3 ADD SWAP1 POP DUP2 DUP2 SUB PUSH1 0x0 DUP4 ADD MSTORE PUSH2 0x4797 DUP2 PUSH2 0x475B JUMP JUMPDEST SWAP1 POP SWAP2 SWAP1 POP JUMP JUMPDEST PUSH32 0x45524332303A20617070726F766520746F20746865207A65726F206164647265 PUSH1 0x0 DUP3 ADD MSTORE PUSH32 0x7373000000000000000000000000000000000000000000000000000000000000 PUSH1 0x20 DUP3 ADD MSTORE POP JUMP JUMPDEST PUSH1 0x0 PUSH2 0x47FA PUSH1 0x22 DUP4 PUSH2 0x34B6 JUMP JUMPDEST SWAP2 POP PUSH2 0x4805 DUP3 PUSH2 0x479E JUMP JUMPDEST PUSH1 0x40 DUP3 ADD SWAP1 POP SWAP2 SWAP1 POP JUMP JUMPDEST PUSH1 0x0 PUSH1 0x20 DUP3 ADD SWAP1 POP DUP2 DUP2 SUB PUSH1 0x0 DUP4 ADD MSTORE PUSH2 0x4829 DUP2 PUSH2 0x47ED JUMP JUMPDEST SWAP1 POP SWAP2 SWAP1 POP JUMP JUMPDEST PUSH32 0x45524332303A20696E73756666696369656E7420616C6C6F77616E6365000000 PUSH1 0x0 DUP3 ADD MSTORE POP JUMP JUMPDEST PUSH1 0x0 PUSH2 0x4866 PUSH1 0x1D DUP4 PUSH2 0x34B6 JUMP JUMPDEST SWAP2 POP PUSH2 0x4871 DUP3 PUSH2 0x4830 JUMP JUMPDEST PUSH1 0x20 DUP3 ADD SWAP1 POP SWAP2 SWAP1 POP JUMP JUMPDEST PUSH1 0x0 PUSH1 0x20 DUP3 ADD SWAP1 POP DUP2 DUP2 SUB PUSH1 0x0 DUP4 ADD MSTORE PUSH2 0x4895 DUP2 PUSH2 0x4859 JUMP JUMPDEST SWAP1 POP SWAP2 SWAP1 POP JUMP JUMPDEST PUSH32 0x45524332303A207472616E736665722066726F6D20746865207A65726F206164 PUSH1 0x0 DUP3 ADD MSTORE PUSH32 0x6472657373000000000000000000000000000000000000000000000000000000 PUSH1 0x20 DUP3 ADD MSTORE POP JUMP JUMPDEST PUSH1 0x0 PUSH2 0x48F8 PUSH1 0x25 DUP4 PUSH2 0x34B6 JUMP JUMPDEST SWAP2 POP PUSH2 0x4903 DUP3 PUSH2 0x489C JUMP JUMPDEST PUSH1 0x40 DUP3 ADD SWAP1 POP SWAP2 SWAP1 POP JUMP JUMPDEST PUSH1 0x0 PUSH1 0x20 DUP3 ADD SWAP1 POP DUP2 DUP2 SUB PUSH1 0x0 DUP4 ADD MSTORE PUSH2 0x4927 DUP2 PUSH2 0x48EB JUMP JUMPDEST SWAP1 POP SWAP2 SWAP1 POP JUMP JUMPDEST PUSH32 0x45524332303A207472616E7366657220746F20746865207A65726F2061646472 PUSH1 0x0 DUP3 ADD MSTORE PUSH32 0x6573730000000000000000000000000000000000000000000000000000000000 PUSH1 0x20 DUP3 ADD MSTORE POP JUMP JUMPDEST PUSH1 0x0 PUSH2 0x498A PUSH1 0x23 DUP4 PUSH2 0x34B6 JUMP JUMPDEST SWAP2 POP PUSH2 0x4995 DUP3 PUSH2 0x492E JUMP JUMPDEST PUSH1 0x40 DUP3 ADD SWAP1 POP SWAP2 SWAP1 POP JUMP JUMPDEST PUSH1 0x0 PUSH1 0x20 DUP3 ADD SWAP1 POP DUP2 DUP2 SUB PUSH1 0x0 DUP4 ADD MSTORE PUSH2 0x49B9 DUP2 PUSH2 0x497D JUMP JUMPDEST SWAP1 POP SWAP2 SWAP1 POP JUMP JUMPDEST PUSH32 0x45524332303A207472616E7366657220616D6F756E7420657863656564732062 PUSH1 0x0 DUP3 ADD MSTORE PUSH32 0x616C616E63650000000000000000000000000000000000000000000000000000 PUSH1 0x20 DUP3 ADD MSTORE POP JUMP JUMPDEST PUSH1 0x0 PUSH2 0x4A1C PUSH1 0x26 DUP4 PUSH2 0x34B6 JUMP JUMPDEST SWAP2 POP PUSH2 0x4A27 DUP3 PUSH2 0x49C0 JUMP JUMPDEST PUSH1 0x40 DUP3 ADD SWAP1 POP SWAP2 SWAP1 POP JUMP JUMPDEST PUSH1 0x0 PUSH1 0x20 DUP3 ADD SWAP1 POP DUP2 DUP2 SUB PUSH1 0x0 DUP4 ADD MSTORE PUSH2 0x4A4B DUP2 PUSH2 0x4A0F JUMP JUMPDEST SWAP1 POP SWAP2 SWAP1 POP JUMP JUMPDEST PUSH32 0x4F776E61626C653A2063616C6C6572206973206E6F7420746865206F776E6572 PUSH1 0x0 DUP3 ADD MSTORE POP JUMP JUMPDEST PUSH1 0x0 PUSH2 0x4A88 PUSH1 0x20 DUP4 PUSH2 0x34B6 JUMP JUMPDEST SWAP2 POP PUSH2 0x4A93 DUP3 PUSH2 0x4A52 JUMP JUMPDEST PUSH1 0x20 DUP3 ADD SWAP1 POP SWAP2 SWAP1 POP JUMP JUMPDEST PUSH1 0x0 PUSH1 0x20 DUP3 ADD SWAP1 POP DUP2 DUP2 SUB PUSH1 0x0 DUP4 ADD MSTORE PUSH2 0x4AB7 DUP2 PUSH2 0x4A7B JUMP JUMPDEST SWAP1 POP SWAP2 SWAP1 POP JUMP INVALID LOG2 PUSH5 0x6970667358 0x22 SLT KECCAK256 0x26 DUP13 MSIZE SWAP13 0xBD PUSH13 0x57894C69EC114E79757D8B8514 0xC9 MULMOD EXTCODEHASH PUSH15 0xE4C6D7A96490F1310E64736F6C6343 STOP ADDMOD GT STOP CALLER "},"gasEstimates":{"creation":{"codeDepositCost":"3837600","executionCost":"infinite","totalCost":"infinite"},"external":{"_fullnodeDepositAmount()":"2541","_privoderDepositAmount()":"2540","allowance(address,address)":"infinite","approve(address,uint256)":"infinite","balanceOf(address)":"2886","bindWallet(string)":"infinite","changeWallet(string,address)":"infinite","checkOrder(string)":"infinite","clientOrder(string,uint32,string,uint256,address)":"infinite","decimals()":"455","decreaseAllowance(address,uint256)":"infinite","getAllOrderTokens()":"infinite","getDeposit(address)":"infinite","getOrdersInfo(string)":"infinite","getPrivoderOrders(address)":"infinite","getUserInfo(string)":"infinite","getWallet(string)":"infinite","increaseAllowance(address,uint256)":"infinite","isDeposit(uint8)":"2947","name()":"infinite","owner()":"2568","renounceOwnership()":"30465","stake(uint8)":"infinite","stakeAmount(uint8,address,uint256)":"infinite","symbol()":"infinite","totalSupply()":"2528","transfer(address,uint256)":"infinite","transferFrom(address,address,uint256)":"infinite","transferOwnership(address)":"30832","unbindWallet(string)":"infinite","verifyWallet(string)":"infinite","withdraw(uint8)":"infinite","withdrawAllOrderTokens()":"infinite","withdrawOrderTokens(string)":"infinite"}},"methodIdentifiers":{"_fullnodeDepositAmount()":"a23c7c14","_privoderDepositAmount()":"c5bc91e8","allowance(address,address)":"dd62ed3e","approve(address,uint256)":"095ea7b3","balanceOf(address)":"70a08231","bindWallet(string)":"8ec012b9","changeWallet(string,address)":"87a858d2","checkOrder(string)":"dd6887ed","clientOrder(string,uint32,string,uint256,address)":"5c9abe11","decimals()":"313ce567","decreaseAllowance(address,uint256)":"a457c2d7","getAllOrderTokens()":"f3fbfc7b","getDeposit(address)":"e1254fba","getOrdersInfo(string)":"8291a021","getPrivoderOrders(address)":"183dd1cd","getUserInfo(string)":"7c9b7fdd","getWallet(string)":"a4e2df66","increaseAllowance(address,uint256)":"39509351","isDeposit(uint8)":"f276b8aa","name()":"06fdde03","owner()":"8da5cb5b","renounceOwnership()":"715018a6","stake(uint8)":"604f2177","stakeAmount(uint8,address,uint256)":"5e3ae06e","symbol()":"95d89b41","totalSupply()":"18160ddd","transfer(address,uint256)":"a9059cbb","transferFrom(address,address,uint256)":"23b872dd","transferOwnership(address)":"f2fde38b","unbindWallet(string)":"d19e4856","verifyWallet(string)":"ffc2c9b7","withdraw(uint8)":"c6ab5d90","withdrawAllOrderTokens()":"27a0b34a","withdrawOrderTokens(string)":"25cfedb5"}},"storageLayout":{"storage":[{"astId":128,"contract":"contracts/FlowShieldDao.sol:FlowShieldDao","label":"_balances","offset":0,"slot":"0","type":"t_mapping(t_address,t_uint256)"},{"astId":134,"contract":"contracts/FlowShieldDao.sol:FlowShieldDao","label":"_allowances","offset":0,"slot":"1","type":"t_mapping(t_address,t_mapping(t_address,t_uint256))"},{"astId":136,"contract":"contracts/FlowShieldDao.sol:FlowShieldDao","label":"_totalSupply","offset":0,"slot":"2","type":"t_uint256"},{"astId":138,"contract":"contracts/FlowShieldDao.sol:FlowShieldDao","label":"_name","offset":0,"slot":"3","type":"t_string_storage"},{"astId":140,"contract":"contracts/FlowShieldDao.sol:FlowShieldDao","label":"_symbol","offset":0,"slot":"4","type":"t_string_storage"},{"astId":7,"contract":"contracts/FlowShieldDao.sol:FlowShieldDao","label":"_owner","offset":0,"slot":"5","type":"t_address"},{"astId":863,"contract":"contracts/FlowShieldDao.sol:FlowShieldDao","label":"userWallets","offset":0,"slot":"6","type":"t_mapping(t_string_memory_ptr,t_struct(userWallet)837_storage)"},{"astId":865,"contract":"contracts/FlowShieldDao.sol:FlowShieldDao","label":"_fullnodeDepositAmount","offset":0,"slot":"7","type":"t_uint256"},{"astId":867,"contract":"contracts/FlowShieldDao.sol:FlowShieldDao","label":"_privoderDepositAmount","offset":0,"slot":"8","type":"t_uint256"},{"astId":869,"contract":"contracts/FlowShieldDao.sol:FlowShieldDao","label":"_durationUnit","offset":0,"slot":"9","type":"t_uint32"},{"astId":873,"contract":"contracts/FlowShieldDao.sol:FlowShieldDao","label":"_fullnodeDeposits","offset":0,"slot":"10","type":"t_mapping(t_address,t_uint256)"},{"astId":877,"contract":"contracts/FlowShieldDao.sol:FlowShieldDao","label":"_privoderDeposits","offset":0,"slot":"11","type":"t_mapping(t_address,t_uint256)"},{"astId":882,"contract":"contracts/FlowShieldDao.sol:FlowShieldDao","label":"_orders","offset":0,"slot":"12","type":"t_mapping(t_string_memory_ptr,t_struct(order)858_storage)"},{"astId":887,"contract":"contracts/FlowShieldDao.sol:FlowShieldDao","label":"_privoderOrders","offset":0,"slot":"13","type":"t_mapping(t_address,t_array(t_string_storage)dyn_storage)"}],"types":{"t_address":{"encoding":"inplace","label":"address","numberOfBytes":"20"},"t_array(t_string_storage)dyn_storage":{"base":"t_string_storage","encoding":"dynamic_array","label":"string[]","numberOfBytes":"32"},"t_bool":{"encoding":"inplace","label":"bool","numberOfBytes":"1"},"t_mapping(t_address,t_array(t_string_storage)dyn_storage)":{"encoding":"mapping","key":"t_address","label":"mapping(address => string[])","numberOfBytes":"32","value":"t_array(t_string_storage)dyn_storage"},"t_mapping(t_address,t_mapping(t_address,t_uint256))":{"encoding":"mapping","key":"t_address","label":"mapping(address => mapping(address => uint256))","numberOfBytes":"32","value":"t_mapping(t_address,t_uint256)"},"t_mapping(t_address,t_uint256)":{"encoding":"mapping","key":"t_address","label":"mapping(address => uint256)","numberOfBytes":"32","value":"t_uint256"},"t_mapping(t_string_memory_ptr,t_struct(order)858_storage)":{"encoding":"mapping","key":"t_string_memory_ptr","label":"mapping(string => struct FlowShieldDao.order)","numberOfBytes":"32","value":"t_struct(order)858_storage"},"t_mapping(t_string_memory_ptr,t_struct(userWallet)837_storage)":{"encoding":"mapping","key":"t_string_memory_ptr","label":"mapping(string => struct FlowShieldDao.userWallet)","numberOfBytes":"32","value":"t_struct(userWallet)837_storage"},"t_string_memory_ptr":{"encoding":"bytes","label":"string","numberOfBytes":"32"},"t_string_storage":{"encoding":"bytes","label":"string","numberOfBytes":"32"},"t_struct(order)858_storage":{"encoding":"inplace","label":"struct FlowShieldDao.order","members":[{"astId":839,"contract":"contracts/FlowShieldDao.sol:FlowShieldDao","label":"name","offset":0,"slot":"0","type":"t_string_storage"},{"astId":841,"contract":"contracts/FlowShieldDao.sol:FlowShieldDao","label":"startTime","offset":0,"slot":"1","type":"t_uint256"},{"astId":843,"contract":"contracts/FlowShieldDao.sol:FlowShieldDao","label":"endTime","offset":0,"slot":"2","type":"t_uint256"},{"astId":845,"contract":"contracts/FlowShieldDao.sol:FlowShieldDao","label":"withdrawDuration","offset":0,"slot":"3","type":"t_uint256"},{"astId":847,"contract":"contracts/FlowShieldDao.sol:FlowShieldDao","label":"duration","offset":0,"slot":"4","type":"t_uint32"},{"astId":849,"contract":"contracts/FlowShieldDao.sol:FlowShieldDao","label":"amount","offset":0,"slot":"5","type":"t_uint256"},{"astId":851,"contract":"contracts/FlowShieldDao.sol:FlowShieldDao","label":"used","offset":0,"slot":"6","type":"t_bool"},{"astId":853,"contract":"contracts/FlowShieldDao.sol:FlowShieldDao","label":"withdraw","offset":1,"slot":"6","type":"t_bool"},{"astId":855,"contract":"contracts/FlowShieldDao.sol:FlowShieldDao","label":"payAddress","offset":2,"slot":"6","type":"t_address"},{"astId":857,"contract":"contracts/FlowShieldDao.sol:FlowShieldDao","label":"privoderAddress","offset":0,"slot":"7","type":"t_address"}],"numberOfBytes":"256"},"t_struct(userWallet)837_storage":{"encoding":"inplace","label":"struct FlowShieldDao.userWallet","members":[{"astId":834,"contract":"contracts/FlowShieldDao.sol:FlowShieldDao","label":"user","offset":0,"slot":"0","type":"t_address"},{"astId":836,"contract":"contracts/FlowShieldDao.sol:FlowShieldDao","label":"status","offset":20,"slot":"0","type":"t_uint8"}],"numberOfBytes":"32"},"t_uint256":{"encoding":"inplace","label":"uint256","numberOfBytes":"32"},"t_uint32":{"encoding":"inplace","label":"uint32","numberOfBytes":"4"},"t_uint8":{"encoding":"inplace","label":"uint8","numberOfBytes":"1"}}},"userdoc":{"kind":"user","methods":{},"version":1}}}}